:020000040000fa
:080000000007040000000000ed
:020000040000fa
:04000800b808000034
:020000040000fa
:04000c00b808000030
:020000040000fa
:04001000b80800002c
:020000040000fa
:04001400b808000028
:020000040000fa
:04001800b808000024
:020000040000fa
:04001c00b808000020
:020000040000fa
:04002000b80800001c
:020000040000fa
:04002400b808000018
:020000040000fa
:04002800b808000014
:020000040000fa
:04002c00b808000010
:020000040000fa
:04003000b80800000c
:020000040000fa
:04003400c8070000f9
:020000040000fa
:04003800b808000004
:020000040000fa
:04003c00b808000000
:020000040000fa
:04004000b8080000fc
:020000040000fa
:04004400b8080000f8
:020000040000fa
:04004800b8080000f4
:020000040000fa
:04004c00b8080000f0
:020000040000fa
:04005000b8080000ec
:020000040000fa
:040054006a08000036
:020000040000fa
:04005800b8080000e4
:020000040000fa
:04005c00b8080000e0
:020000040000fa
:04006000b8080000dc
:020000040000fa
:04006400b8080000d8
:020000040000fa
:04006800b8080000d4
:020000040000fa
:04006c00b8080000d0
:020000040000fa
:04007000b8080000cc
:020000040000fa
:04007400b8080000c8
:020000040000fa
:04007800b8080000c4
:020000040000fa
:04007c00b8080000c0
:020000040000fa
:04008000b8080000bc
:020000040000fa
:04008400b8080000b8
:020000040000fa
:040088007a080000f2
:020000040000fa
:04008c00b8080000b0
:020000040000fa
:04009000b8080000ac
:020000040000fa
:04009400b8080000a8
:020000040000fa
:04009800b8080000a4
:020000040000fa
:04009c00b8080000a0
:020000040000fa
:0400a000b80800009c
:020000040000fa
:0400a400b808000098
:020000040000fa
:0400a800b808000094
:020000040000fa
:0400ac00b808000090
:020000040000fa
:0400b000b80800008c
:020000040000fa
:0400b400b808000088
:020000040000fa
:0400b800b808000084
:020000040000fa
:0400bc00b808000080
:020000040000fa
:0400c000b80800007c
:020000040000fa
:0400c400b808000078
:020000040000fa
:0400c800b808000074
:020000040000fa
:0400cc00b808000070
:020000040000fa
:0400d000b80800006c
:020000040000fa
:0400d400b808000068
:020000040000fa
:0400d800b808000064
:020000040000fa
:04010800b808000033
:020000040000fa
:04010c00b80800002f
:020000040000fa
:04011000b80800002b
:020000040000fa
:04011400b808000027
:020000040000fa
:04011800b808000023
:020000040000fa
:04011c00b80800001f
:020000040000fa
:04012000b80800001b
:020000040000fa
:04012400b808000017
:020000040000fa
:04012800b808000013
:020000040000fa
:04012c00b80800000f
:020000040000fa
:04013000b80800000b
:020000040000fa
:04013400b808000007
:020000040000fa
:04013800b808000003
:020000040000fa
:04013c00b8080000ff
:020000040000fa
:04014000b8080000fb
:020000040000fa
:04014400b8080000f7
:020000040000fa
:04014800b8080000f3
:020000040000fa
:04014c00b8080000ef
:020000040000fa
:04015000b8080000eb
:020000040000fa
:04015400b8080000e7
:020000040000fa
:04015800b8080000e3
:020000040000fa
:04015c00b8080000df
:020000040000fa
:04016000b8080000db
:020000040000fa
:04016400b8080000d7
:020000040000fa
:04016800b8080000d3
:020000040000fa
:04016c00b8080000cf
:020000040000fa
:04017000b8080000cb
:020000040000fa
:04017400b8080000c7
:020000040000fa
:04017800b8080000c3
:020000040000fa
:04017c00b8080000bf
:020000040000fa
:04018000b8080000bb
:020000040000fa
:04018400b8080000b7
:020000040000fa
:04018800b8080000b3
:020000040000fa
:04018c00b8080000af
:020000040000fa
:04019000b8080000ab
:020000040000fa
:04019400b8080000a7
:020000040000fa
:04019800b8080000a3
:020000040000fa
:04019c00b80800009f
:020000040000fa
:0401a000b80800009b
:020000040000fa
:0401a400b808000097
:020000040000fa
:0401a800b808000093
:020000040000fa
:0401ac00b80800008f
:020000040000fa
:0401b000b80800008b
:020000040000fa
:0401b400b808000087
:020000040000fa
:0401b800b808000083
:020000040000fa
:0401bc00b80800007f
:020000040000fa
:0401c000b80800007b
:020000040000fa
:0401c400b808000077
:020000040000fa
:0401c800b808000073
:020000040000fa
:0401cc00b80800006f
:020000040000fa
:0401d000b80800006b
:020000040000fa
:0401d400b808000067
:020000040000fa
:0401d800b808000063
:020000040000fa
:100e0000efb020000e7f22000e01880000000000dd
:100e1000000020000000e00002003200000120007d
:100e200020028800140007005a0107000000e000bb
:100e300003003a00c09323000100200002003700a5
:100e40000000200001002000810f7000010032002e
:100e500014000700000020000000e0000200320043
:100e60000000020000000000400c02000000000032
:100e70000040da000000fe004440a900401f2000ae
:100e80000000e0000300320000002000a001880004
:100e90004440a800000006008a1f78008b1f7800dd
:100ea0000000060091018800800478000000eb003b
:100eb0001a003700e284440032a0b4009905ba0059
:100ec000e284440032a0b4009906ba00e2844400ef
:100ed00032a0b4000006eb00476fde00fd07b20051
:100ee000636ce10003003a00ebff07000000eb0039
:100ef0000a003700606ce10004003a00005deb007e
:100f00008b05e900fdff3e00040037006168e10049
:100f1000010032000086eb000b00070019c7ba0081
:100f20001905ba000e04e00003003a000a00e000d0
:100f3000e0ff3a0000000600fe07b2009e018800b4
:100f40008a047800f5ff3700395dba008b05e900a7
:100f50000c003200295dba008b05e9000800320060
:100f60000c00e00003003a00e284440032a0b40028
:100f7000f5ff370019ddba008b05e900faff3a00ea
:100f80008904e800e184440032a0b40000000600b7
:100f90003600f800809fbe00829fbe00849fbe0086
:100fa000869fbe000000fa00500020003a0f0700a4
:100fb000304680000000e00002003200db22a80082
:100fc00001003700db22a900614080005041800011
:100fd000808f50000d003400a04780000000e0002a
:100fe0000a003a00800f07000000e000070032000e
:100ff0002040800031408000c0478800d1478800f1
:1010000020002000a04788002a00370061408000af
:1010100050418000808f50001e003400a0478000a7
:10102000e20f50001b003a00c0478000d14780000b
:1010300065014000e0814800204080003140800090
:10104000800f5100818f59001a00310010002000dc
:10105000b0478800f04780000000e800f0478800b3
:1010600080002000a0478800704080000000e00061
:101070000300320010002000804088000d0037007f
:10108000210020000000eb00990f07001028ef005e
:10109000080037006140800050418000808f500080
:1010a00004003c000000eb00a04788000000eb00bb
:1010b000b04788008460a9000080fa004f03be009a
:1010c0004f02be004f01be004f00be003600f900c7
:1010d00000400600801f78000000fa000014800025
:1010e000604088008560a9000080fa004f00780009
:1010f000004006003600f800809fbe00829fbe00c0
:10110000849fbe00869fbe000000fa00c0108000d1
:10111000620060000000e000010032001822a90017
:10112000e01080004041880041418000a002200082
:10113000808f500006003a008000eb00d0032000b2
:101140006b0f070020032000370f07000000fe0090
:101150008700a9000080fa004f03be004f02be00c6
:101160004f01be004f00be003600f90000400600ef
:101170000040da000000fe00889fbe008004780076
:10118000604880000000e00004003a000e00070004
:101190000084eb000000e000080035006848800093
:1011a0000900e000050032000900440006000700c5
:1011b0000000e00001003d000084eb000800780022
:1011c0004f04be0000000600800078000100e0002f
:1011d00003003a00e090200060488800000005000d
:1011e0000080eb00e2b02000828f500002003e0041
:1011f000614888000000eb00000006000602ab001a
:10120000feff3a000642ab00fcff3a000662ab006c
:10121000faff3a000682ab00f8ff3a0009c2ab00c1
:10122000f6ff3a00000006000662a8000662ab0066
:10123000feff3a0008c2a90000108000000006006e
:101240008040780000c0eb008180fb001110880016
:1012500008e2ab0007003a0009c2ab00feff3a000b
:10126000e6ff07000040eb000802e20001003d003d
:10127000e0cfb30000000600211088003010880085
:10128000000006000602a800000006000642a800b2
:10129000000006008460a900e7006000f2ff28005b
:1012a000cc08dd00a3048000030161006800600039
:1012b0000281700071ff2f00a20488006204800088
:1012c00082806000810070006104880000000600d8
:1012d000001020001802b6000000e9004f00de00f8
:1012e0000000060017e2a9008f00a9008f20a900c6
:1012f0008700a9008720a900000006008700a90038
:10130000e70060008720a9000001780083ff2f001c
:101310000207b200040580008481610083817000af
:10132000e800600003058800c308de00f3f82f0022
:10133000e18060000405800084816100c808dd0050
:10134000830171000008b20003058800f2ef2f004e
:101350004700de007304800003016100610060004b
:10136000028170004900dd0072048800f1df2f0067
:101370007404800084806000810070007104880023
:1013800000000600f2108800b0108800c11088002c
:1013900000000600000005003200f80091018800fe
:1013a0000008bb00410424006210e1000400320088
:1013b000000220000010e1000a003a00510424005d
:1013c000013b88000500fc0051052000313b8800ee
:1013d000a10a2000313b880061e7a800000000005e
:1013e000000000003200f900000006003200f800a2
:1013f00060042400003b8800f2ff37003200f80050
:101400009101880041002400013b88000208bb00d4
:10141000ecff37003200f8009101880051002400f1
:10142000013b8800030120003218bb008301e90062
:10143000fdff3a00e3ff37003200f8009101880019
:1014400080027800620040003549ba00e080480020
:101450003204e0000410a700100032008301e9000c
:101460000e0032002549ba003204e0000410a70043
:101470000a0032008301e900080032000408a300da
:10148000eeff320015c9ba003204e0000410a700d4
:10149000020032008301e900e8ff3a003200f9005f
:1014a000000006000000e0002f003200c0017800bc
:1014b000e38f51002c0036000308a3002a003a00f5
:1014c000214880000100e00002003200810f50003e
:1014d00004003100110098002048880016003700f1
:1014e00082007800110190000200e000020032004a
:1014f000800f5100faff3900110278008482400009
:10150000850f500018003900808f520003003a0008
:101510008308420001007800070037000200e00065
:101520000300320083014000830f51000e00390098
:101530001200980090009800900090000100e000d8
:101540000900320010014000828f500006003a006e
:10155000229020000009eb001001780011084100e2
:10156000910090001100980000000600889fbe00c6
:1015700000047800114880000100e0000200320001
:10158000010078000d0037002148800040902000c5
:1015900004003700910f5400250036000180e80058
:1015a000910090000100e000faff3a0010003700bf
:1015b000920f54001e0036000280e80010017800ef
:1015c0000200e000faff3a00110178002148800093
:1015d0004090200004003700910f540014003600a2
:1015e0000180e80091009000828f5000faff3a00dd
:1015f00059488000888f5400010031008804780029
:10160000090078008e0007000000e00004003a00a6
:10161000888f5400050032008904d100f5ff37009f
:10162000091878009fff0700d2ff37000000eb0089
:101630004f04be0000000600881f780063044000cd
:101640000800a1008000eb00800f5400210036004c
:10165000e30f540001003e0048002000080078001d
:10166000c2ff07008000eb000000e000190032001c
:10167000900078009101780064815100880f51003a
:1016800003003100110190000208780007003700c4
:101690000881400002087800910190001301980031
:1016a00010017800110914008808780010017800f2
:1016b0000000eb000200e000040032009201900004
:1016c0000300e000010032000280e80010488800ba
:1016d0008180e800010078004f04780000000600d7
:1016e000889fbe00a04180000000e00001003200a1
:1016f00000000100b04180000000e0000100320065
:1017000000000100208320001004e00022003a00c5
:10171000304880004148800088002000d2602600c8
:101720009301200050000700f2352f00e3c623008c
:1017300000004100818049000804e900f7ff3a00f9
:10174000888320000908200088844400d260260095
:101750009301200044000700f2352f00e3c6230068
:10176000000041008180490000acbe00890f540098
:10177000f6ff3a003048880041488800c0458000a4
:10178000d1458000c0418800d141880011c0b3001c
:101790002083200001487800d260260093012000b9
:1017a00030488000414880002f000700f2352f00ac
:1017b000e3c62300000241008182490034488800ca
:1017c0004548880080832000100078007f01600079
:1017d0004211dd00c0832000020140001200be0063
:1017e000c0418800d14188000489be000100780012
:1017f00000f0a1004f04be0000000600889fbe005c
:1018000000047800a04180000000e00001003200e8
:1018100000000100208320000048eb00b041800060
:101820000000e00001003200000001008004eb0035
:1018300038488800494888004f04be000000060070
:10184000800078000000eb000100e000050034009b
:101850000100780048fe0700e10f400001003a0057
:101860000000eb0000000600020ab900001bb900ee
:101870000200b80081004200810043000000060021
:101880000000fa00db0c0700f30c0700850d0700d1
:101890009f0e0700fb0e07003b0e070001762b0092
:1018a00090762b009011070051772b00200020002c
:1018b0009d110700c3000700fbff37000000fa007e
:1018c000000f2300b016880040002000650d0700bf
:1018d00000002300b016880040002000610d0700c2
:1018e000f7ff37000200fa00000f78001e007800b2
:1018f000e30f50000c0032001e007800e40f50008f
:10190000090032001e007800e70f50000600320088
:101910001e007800e60f5000030032001e00780021
:10192000ea0f500002003a001000200001003700ca
:101930000000eb000080fa00000006000800fa003a
:101940002007980031079800ae00900000fc2000ae
:1019500000806000c680de003e009000e10f500075
:1019600002003a0000042000010037000000eb00f4
:10197000008f40009e007800b00120005c0d070041
:10198000ae009000f0032000808060003e009000d8
:10199000e10f500002003a0000042000010037006f
:1019a0000000eb0000804000100798009e009000af
:1019b000c00120004e0d07000080fa000000060064
:1019c0000400fa00704680000000e00023003400ac
:1019d000704680000000400017ff07005046880056
:1019e000704680000000400013ff0700604688003a
:1019f0000000eb00000f78001500370001782b0085
:101a00002000200048110700100798005146800070
:101a10001e00780000004000008040009e00900002
:101a200001087800e1782b00200020003e1107001b
:101a300010079800614680001e00780000004000fa
:101a4000008040009e009000010878001e0fe80012
:101a5000704680009e0f5000e8ff3c00a0468000ca
:101a60000000e00023003400a04680000000400099
:101a7000f1fe070080468800a0468000000040007c
:101a8000edfe0700904688000000eb00000f780094
:101a900015003700a1792b0020002000221107003b
:101aa00010079800814680001e007800000040006a
:101ab000008040009e00900001087800917a2b0081
:101ac00020002000181107001007980091468000a0
:101ad0001e00780000004000008040009e00900042
:101ae000010878001e0fe800a04680009e0f5000fd
:101af000e8ff3c00c04680000000e0001500340014
:101b0000c046800000004000cbfe0700b0468800c1
:101b10000000eb00000f78000b003700617b2b000a
:101b2000200020000011070010079800b146800037
:101b30001e00780000004000008040009e009000e1
:101b4000010878001e0fe800c04680009e0f50007c
:101b5000f2ff3c000080fa00000006000000fa00de
:101b600010002000821107000080fa00000006002b
:101b70000200fa000000eb00000f78000b003700b5
:101b8000100020007a11070080418000a60c070099
:101b90000000eb007611070080418000411f20000b
:101ba00000805000a00c07001e0fe8003006200047
:101bb0009e007800808f5000f1ff34000080fa0012
:101bc000000006004e00fa00602798000000eb00bd
:101bd000c00d07004200dd005041880020002000b9
:101be000bc0d07008041880020408000314080000b
:101bf0000000780001ff07006e2090006101b9002d
:101c0000b0fe2f00f1ff2f0002004000838048004b
:101c10005201200003002000820f5000838f5800e3
:101c200051023e000060010015003700240037001b
:101c3000250037002600370027003700280037002e
:101c4000580037006b0037006c0037006d0037001c
:101c50006e003700440237006e003700a0003700e6
:101c6000d200370004013700220137005601370047
:101c70008a013700bc013700e50137001002370048
:101c8000617c2b0010002000a7100700200798009f
:101c9000d17c2b0020002000a31007003007980003
:101ca000417d2b00100020009f1007004007980086
:101cb0004e019000be0090002e00900040020700f0
:101cc0001f03070038023700fcfe0700360237000a
:101cd000dd0307003402370080418000a3030700c2
:101ce000a17d2b00b07d2b007f100700417e2b00d3
:101cf000100020008c100700500798005e00900034
:101d00000000e00002003200200020000100370047
:101d1000a0002000e0458800b0002000f0458800c9
:101d20006006200060418800e17e2b00100020004a
:101d30007d100700204788002000200070468800a2
:101d40001fff0700f17f2b00200020007610070006
:101d500050478800e1802b0020002000721007000f
:101d600060478800b1812b00100020006e10070032
:101d7000814180000180b900000078008041880026
:101d800071822b0020002000671007006007980078
:101d90006e01900041012000400120002208070050
:101da00001023700410320008100470002922b000e
:101db0000b000900b21878000000eb00000f78005b
:101dc000080037001e0078000000400000004700b7
:101dd0002018900012002000a10020001902070026
:101de0001e0fe8001e007800eb0f5000f5ff3600d4
:101df000ed01370059ff0700eb0137005cff0700da
:101e0000e9013700f6070700e7013700540b070028
:101e1000e5013700a17d2b0070832b0032100700f5
:101e2000417e2b00100020003f1007007007980033
:101e30007e0090000000e000020032002000200040
:101e40000100370030002000e04588003006200007
:101e5000604188001000200090478800e17e2b0040
:101e600010002000301007002047880020002000cc
:101e7000704688000000eb00c0468800d0fe0700d6
:101e8000f17f2b002000200027100700504788001a
:101e9000e1802b002000200023100700604788000d
:101ea000b1812b00100020001f100700814180002d
:101eb0000180b900000078008041880071822b0009
:101ec0002000200018100700000f98000e09900055
:101ed0004101200040012000d3070700b201370074
:101ee000a17d2b0070832b00ff0f0700417e2b008c
:101ef000100020000c100700100f98001e08900022
:101f00000000e00002003200200020000100370045
:101f1000a0002000e0458800b0002000f0458800c7
:101f2000e006200060418800e17e2b0010002000c8
:101f3000fd0f070020478800200020007046880021
:101f40000000eb00c04688009dfe0700f17f2b00db
:101f500020002000f40f070050478800e1802b008c
:101f600020002000f00f070060478800b1812b009f
:101f700010002000ec0f0700814180000180b900b3
:101f8000000078008041880071822b002000200032
:101f9000e50f0700200f98002e0990004101200056
:101fa00040012000a00707007f013700c1832b00fc
:101fb00050842b00cc0f0700417e2b001000200026
:101fc000d90f0700300f98003e0890000000e00095
:101fd000020032002000200001003700a000200095
:101fe000e0458800b0002000f04588006006200031
:101ff00060418800e17e2b0010002000ca0f07001e
:102000002047880040002000704688000000eb0058
:10201000c04688006afe0700f17f2b0020002000e8
:10202000c10f070050478800e1802b0020002000ee
:10203000bd0f070060478800b1812b001000200011
:10204000b90f0700814180000180b90000007800cd
:102050008041880071822b0020002000b20f070011
:10206000400f98004e09900041012000800220009e
:102070006d0707004c01370051852b00a0852b0010
:10208000990f070020002000e04588000000eb00c9
:10209000f0458800e00120006041880021862b0087
:1020a00010002000a00f0700c04688000000eb00d1
:1020b00020478800200020007046880040fe07006e
:1020c0000000eb0050478800400020006047880077
:1020d00071822b0020002000930f0700500f980002
:1020e0005e09900041012000400120004e070700da
:1020f0002d013700c1862b00b0872b007a0f070017
:10210000417e2b0010002000870f0700600f980011
:102110006e0890000000e000020032002000200065
:1021200001003700a0002000e0458800b00020003a
:10213000f045880000032000604188001000200066
:10214000904788000000eb00c04688000000eb00cc
:102150002047880060002000704688006000200052
:102160008047880016fe0700f17f2b00200020002a
:102170006d0f070050478800e1802b0020002000f1
:10218000690f070060478800b1812b001000200014
:10219000650f0700814180000180b90000007800d0
:1021a0008041880071822b00200020005e0f070014
:1021b000700f98007e09900041012000c0032000ac
:1021c00019070700f800370041882b0050842b00c6
:1021d000450f0700417e2b0010002000520f070022
:1021e000001798000e1090000000e000020032007e
:1021f0002000200001003700a0002000e0458800fa
:10220000b0002000f0458800600620006041880092
:10221000e17e2b0010002000430f070020478800bc
:102220006000200070468800600020008047880021
:102230000000eb00c0468800e1fd0700f17f2b00a5
:1022400020002000380f070050478800e1802b0055
:1022500020002000340f070060478800b1812b0068
:1022600010002000300f0700814180000180b9007c
:10227000000078008041880071822b00200020003f
:10228000290f0700101798001e119000410120002f
:10229000c0032000e4060700c3003700c1862b00fe
:1022a000b0872b00100f0700417e2b00100020008c
:1022b0001d0f0700201798002e1090000000e0006e
:1022c0000200320020002000010037001000200032
:1022d000e0458800b0002000f045880000032000a1
:1022e000604188000000eb00c04688000000eb0061
:1022f00020478800600020007046880060002000b1
:1023000080478800aefd0700f17f2b0020002000f1
:10231000050f070050478800e1802b0020002000b7
:10232000010f070060478800b1812b0010002000da
:10233000fd0e0700814180000180b9000000780097
:102340008041880071822b0020002000f60e0700db
:10235000301798003e11900041012000c00320007a
:10236000b106070090003700c1862b00d0882b00f3
:10237000dd0e0700417e2b0010002000ea0e070052
:10238000401798004e1090000000e000020032005c
:10239000200020000100370010002000e0458800e8
:1023a000b0002000f0458800000320006041880054
:1023b0000000eb00c04688000000eb0020478800ca
:1023c000600020007046880010002000a0468800b1
:1023d000600020008047880079fd0700c0002000d1
:1023e00050478800500020006047880071822b0011
:1023f00020002000cc0e0700501798005e119000be
:1024000041012000c0032000870607006600370056
:10241000c1862b00e0892b00b30e0700417e2b0004
:1024200010002000c00e0700601798006e1090008a
:102430000000e00002003200200020000100370010
:1024400010002000e0458800b0002000f045880022
:1024500000032000604188001000200090478800a1
:102460000000eb00c04688000000eb002047880019
:10247000600020007046880020002000a0468800f0
:1024800060002000804788004dfd0700c00020004c
:1024900050478800500020006047880071822b0060
:1024a00020002000a00e0700701798007e119000f9
:1024b00041012000c00320005b0607003a003700fe
:1024c000c1862b00e0892b00870e0700417e2b0080
:1024d00010002000940e0700001f98000e189000b6
:1024e0000000e00002003200200020000100370060
:1024f00010002000e0458800b0002000f045880072
:1025000000032000604188000000eb00c046880006
:102510000000eb0020478800600020007046880023
:1025200020002000a046880060002000804788002e
:1025300023fd0700c0002000504788005000200005
:102540006047880071822b0020002000760e070073
:10255000101f98001e19900041012000c0032000a8
:102560003106070010003700ee2090001107980098
:1025700007003700a2002000810020001e0090000c
:10258000300007001e0090000000e80010079800cf
:102590006e209000e40040001e009000808f5000ec
:1025a000f4ff3c000000000050468000bdfb070027
:1025b00060468000bbfb07000080fa0000000600b8
:1025c0000600fa00000f7800110798002207980013
:1025d000120c07001b0c0700b08a2b00e90b070048
:1025e0000001eb00610020001e007800a50d07002f
:1025f00012002000610020001e009000a10d0700c5
:102600001e0090000000e900680a07000100370082
:10261000000000001e80ea009f0a07002e009000c4
:102620000000e000faff3a00401f2000fe0907000a
:10263000f0002000980a0700401f2000fa09070058
:10264000f4ff37001400fa0070079800010f98009b
:10265000120f9800401f200010079800803e2000b5
:1026600020079800300c2000300798000000eb0095
:10267000000f7800ac003700e80b0700f10b0700f3
:10268000908b2b00bf0b070011c0b3000040eb0084
:10269000f60b0700f08b2b00ba0b07001e00e800ba
:1026a0001200200071002000760d07000001eb00f1
:1026b000610020007e009000720d07007e009000f7
:1026c000ef0f5000030034007e00900070005000b7
:1026d000010037007e009000400798007e009000c7
:1026e000ef0f500002003c001000200001003700f6
:1026f00040002000500798007e009000ef0f50002f
:1027000002003c0020002000010037008000200073
:1027100060079800fe00900030002000f4090700d8
:102720004e009000210a07005e0090000080ea0041
:10273000590a07001e009000bb090700e702a80025
:10274000de0090006e009000010070000080ea0042
:10275000510a07007e009000700060004480de0097
:1027600000407800614060000080fb006100600074
:102770004900dd00311780000190a10001007000c8
:10278000301788002e019000706626000090b90076
:102790008180d1004f90de0000805000a209070028
:1027a0007e009000680060004380de0000407800fa
:1027b000614060000080fb00610060004900dd00b6
:1027c000311780000190a1000100700030178800cf
:1027d0002e019000706626000090b9008180d10023
:1027e0004f90de00008050008f0907007e009000af
:1027f000640060004280de000040780061406000bc
:102800000080fb00610060004900dd00311780009e
:102810000190a10001007000301788002e01900087
:10282000706626000090b9008180d1004f90de00d4
:10283000008050007c0907007e009000620060006c
:102840000080d10000407800614060000080fb0003
:10285000610060004900dd00311780000190a10097
:1028600001007000301788002e019000706626006d
:102870000090b9008180d1004f90de0000805000b0
:10288000690907007e009000004078006140600008
:1028900061406000614060000080fb0061006000fa
:1028a0004900dd00311780000190a1000100700097
:1028b000301788002e019000706626000090b90045
:1028c0008180d1004f90de00808050003e0090005b
:1028d00000805000540907006e0090000080ea005c
:1028e000ed0907003e0090004f090700e722a9000c
:1028f000f0002000e80907008000eb003000200015
:102900007b090700e702a9008e089000803e2000a6
:102910000088b900800078001e0090000080500000
:10292000410907001e0fe8001e0890009e00780075
:10293000808f500050ff35000080fa000000060034
:102940000600fa0060408000200798002e019000e9
:10295000b04721000090b900c388de004f90de0030
:10296000008f50002e009000b14721000181b90076
:102970004399de00cf80de000101510041062000b6
:102980000191b90082007800010050001007980002
:102990009e00780070012000550907009e009000fd
:1029a0008001200052090700200320001e090700b3
:1029b000e4ff37000200fa00f0f32f00f016880061
:1029c0000000eb00000f78001e00a2001e0078003f
:1029d00000407800614060000080fb006100600002
:1029e0004600dd00011780000160a10001007000b9
:1029f0000017880000000000000000000000000038
:102a00001e00780000407800614060000080fb00fc
:102a1000610060004800dd00411680000180a100d7
:102a20000100700040168800000000000000000057
:102a3000000000001e007800004078006140600047
:102a40000080fb00610060004900dd00411680004d
:102a50000190a100010070004016880000000000f5
:102a600000000000000000001e0078000040780018
:102a7000614060000080fb00610060004700dd00f5
:102a8000011780000170a10001007000001788008c
:102a90000000000000000000000000001e007800a0
:102aa00000407800614060000080fb006100600031
:102ab0004600dd00011780000160a10001007000e8
:102ac0000017880000000000000000000000000067
:102ad0001e00780000407800614060000080fb002c
:102ae000610060004e00dd001116800001e0a100d1
:102af00001007000101688000000000000000000b7
:102b0000000000001e007800004078006140600076
:102b10000080fb00610060004c00dd00a116800019
:102b200001c0a10001007000a01688000000000094
:102b300000000000000000001e0078000040780047
:102b4000614060000080fb00610060004d00dd001e
:102b5000a116800001d0a10001007000a01688001d
:102b6000a00f2000b008070097ff37000400fa000c
:102b70000000eb00f0478800504180008a0d0700fc
:102b80000000eb00000f78000000eb001007980039
:102b9000a20a0700ab0a0700608c2b00790a070025
:102ba000803e200001002000004088001140880085
:102bb0000100370000000000f14780001e00900077
:102bc000808f5000160036000240800013408000c5
:102bd000301f200001002000800f5100818f59001c
:102be0000900360010002000610d07000028ef00ea
:102bf0000228ef001e0fe8001e00780012002000df
:102c0000c10020001f0c0700f14780001107980049
:102c10001e0090000001eb00b1002000190c07001d
:102c2000804180006101b9000040800011408000b7
:102c3000800f5100818f5900deff3e000000eb0045
:102c40004b0d0700dcff37000c00fa00224080002b
:102c500033408000220798003307980017003700a0
:102c60000000eb00000f78000000eb001007980058
:102c700005003700604080001e0f40001e009000dd
:102c80000000e800100798001e009000ee0f5000b2
:102c9000f8ff34009e007800f000200080017800ea
:102ca000110009008300d800400798004e009000f2
:102cb0003d0d0700401f20005b0807002e0190001b
:102cc000be019000007122000100200002014000be
:102cd000838148002040800031408000800f5100f7
:102ce000818f5900deff3e00504180002e0d07000d
:102cf000118d2b00300020008b0c0700500798002e
:102d00005e009000280d07005e0090004280de000b
:102d1000800078000000eb004f0907008000eb0006
:102d2000d0032000720807000000fe000080fa00b7
:102d3000000006000800fa0010079800210798001c
:102d4000320798001e009000e10f5000060032008c
:102d50001e009000e20f5000030032001e009000a1
:102d6000e60f500011003a002e009000ef0f5000c7
:102d7000030034002e009000700050000100370066
:102d80002e009000890807002e009000ef0f5000e1
:102d900002003c00e0ff2f0001003700b0ff2f00d1
:102da000bd080700401f2000600d07001e009000b6
:102db000e30f500013003a00ae00900030002000f6
:102dc0004b0807002e009000ef0f50000300340066
:102dd0002e00900070005000010037002e0090007f
:102de000720807002e009000ef0f500002003c0018
:102df000e0ff2f0001003700b0ff2f00a6080700fa
:102e0000df0037001e009000e20f50000e0032007d
:102e1000e20f500003003c00e10f500006003200ba
:102e200014003700e40f50000b003200e60f500092
:102e30000c0032000f003700410120003e009000de
:102e4000560d07000b003700610420003e00900083
:102e5000520d070007003700a10520003e0090003a
:102e60004e0d0700c10d20003e0090004b0d0700e5
:102e7000000000002e009000ef0f500002003c0008
:102e8000c0ff2f000100370030ff2f00820807002d
:102e90001e009000e40f500019003200e40f5000b3
:102ea00004003c000000e900e10f500020003e005b
:102eb00007003700e60f500017003200e60f500001
:102ec00012003500e70f50001600320018003700de
:102ed0002e00900083fa07000000e000040032009a
:102ee00090002000000f7800c322a80010003700d7
:102ef000a0002000000f7800c342a8000c0037009b
:102f000030052000000f7800090037005005200030
:102f1000000f780006003700b0002000000f780096
:102f200003003700c0002000000f78000000000000
:102f30002e0090000000e00003003a002e009000f8
:102f40004006b000010037002e009000800078009d
:102f50001e007800e60707008040eb0030c0b30099
:102f6000c20907001e009000e40f50001a00320052
:102f7000e40f500005003c00e10f50000a00320051
:102f8000e20f50000e00320029003700e60f50001b
:102f90001b003200e60f500015003500e70f50000f
:102fa0001d0032002200370010c3b3006a09070079
:102fb000d0468000800cb100dc0c07001c003700fc
:102fc00020c3b30064090700f0468000800cb10004
:102fd000d60c07001600370030c3b3005e090700a7
:102fe00010478000800cb100d00c070010003700a3
:102ff00040478000800cb100cc0c07000c0037006b
:1030000050c7b30054090700e0468000800cb100af
:10301000c60c07000600370050c5b3004e09070074
:1030200000478000800cb100c00c070000000000c9
:103030002e009000ef0f500002003c00d0ff2f0048
:103040000100370070ff2f0013080700800c2000dc
:10305000b60c0700f00020000f080700c322a900eb
:103060000000000000000000c342a90000000000b2
:10307000000000008000eb001e0078009c070700a5
:103080008040eb0030c0b300780907001e009000bc
:10309000e40f50002a003200e40f500005003c000d
:1030a000e10f500008003200e20f5000150032001e
:1030b00033003700e60f500027003200e70f5000c2
:1030c000280032002e003700e10120003e00900071
:1030d000b20c070040c6b3001f090700d0468000ad
:1030e00080007800703e2000808f500021003e005c
:1030f000d0468000813e2000008050008b0c0700ed
:103100001f003700010520003e009000a30c0700bf
:1031100040c4b30010090700f0468000800078002a
:10312000703e2000808f500014003e00f04680006a
:10313000813e2000008050007c0c0700100037000a
:10314000f10520003e009000940c070020c5b3005c
:10315000010907000a00370040c6b300fe08070057
:103160000700370040c6b300fb080700000000005e
:1031700003003700000000000100370000000000dd
:103180000080fa00000006000400fa00000f78003a
:10319000110798001100200060012000540707006b
:1031a0001e0090000000e00008003c001e0090009f
:1031b0000000e0000f003a0049f9070061006000dc
:1031c000004078000004e0000a003200910720006f
:1031d000200020004607070010002000e40b070035
:1031e00080418000510c07000000eb00e00b07005d
:1031f0000500370081072000200020003c07070061
:1032000080418000490c07001e009000e20f500032
:103210000b003a00a107200020002000340707001f
:10322000401f2000410c070010002000d00b0700b9
:10323000804180003d0c07000000eb00cc0b070034
:103240001c28ef009e00780070002000280707006f
:10325000904080000000e80090408800904080008e
:103260000001eb0051002000860a07000080fa00f0
:10327000000006000200fa00000f78001c28ef0092
:103280009e0078004000200019070700b040800031
:103290000000e800b0408800b0408000120020002c
:1032a00051002000770a0700304780000001eb0042
:1032b00080007800500020009efe07001e0078006d
:1032c000e30f50000200320000fa2000170c070044
:1032d0000080fa00000006000200fa00000f7800eb
:1032e000e04080000000e800e04088009e00780098
:1032f00060002000fe060700a04080000000e800fb
:10330000a0408800a04080000001eb009100200058
:103310005c0a07000080fa00000006000a00fa00bc
:10332000881f78001007980021079800320798003e
:10333000430798000000eb00000f78000000eb004e
:10334000e047880060418000fe0f500047003a00cf
:103350000028ef000228ef0002003700b04780008d
:10336000e04788004e0090006101b90000408000f5
:1033700011408000800f5100818f590003003600fa
:10338000e04780000000e000f4ff320020408000b1
:10339000314080004040880051408800e047800074
:1033a0000000e00026003a001e0090004df90700e2
:1033b0000000e0000b003a00110020005000200047
:1033c000cb060700c04080000000e800c040880035
:1033d000c04080001200200091002000290a070050
:1033e000a600370010002000bbff0700bcf8070054
:1033f0003100200001017800110009000200d8000e
:103400008000fd000000e00097003a00110020005d
:1034100060012000b606070010002000540b0700d2
:103420001100200080002000b106070080418000cc
:10343000be0b07000000eb004d0b07008f003700ac
:103440001e00900027f907000000e00003003a008a
:103450001000200087ff07008800370011002000bf
:103460001000200048ff0700840037000028ef000c
:103470000228ef0002003700b0478000e0478800d4
:103480004e0090006101b9000040800011408000b2
:10349000800f5100818f590003003600e047800003
:1034a0000000e000f4ff3200204080003140800046
:1034b0004040880051408800e04780000000e00064
:1034c00030003a001e00900006f907000004780062
:1034d0002e00900003f90700800f54000d003a0001
:1034e000be0090005000200081060700c040800010
:1034f0000000e800c0408800c040800012002000aa
:1035000091002000df09070050002000000f780024
:103510005a0037003e0090006fff07006000200057
:10352000000f7800904780000000e000500032005b
:103530006bf807003100200001017800110009003c
:103540000200d8008000fd000000e0004a003a00c0
:103550001100200060012000650607001000200017
:10356000030b070011002000800020006006070008
:10357000804180006d0b07000000eb00fc0a070093
:103580003e0037001e009000d6f8070000047800c7
:103590002e009000d3f80700800f540005003a0079
:1035a0003e00900033ff070040002000000f78002d
:1035b000320037006141800000032000808f5000fe
:1035c00023003a0050468000900078001e009000d2
:1035d000808f500006003200504680000080e800d6
:1035e000900078001e009000808f500004003a0088
:1035f000110020003e009000e3fe07001700370096
:103600005046800064004000900078001e0090004a
:10361000808f500006003200504680006600400057
:10362000900078001e009000808f500004003a0047
:10363000210020003e009000d3fe07000700370065
:103640008000eb003e009000cffe07000300370033
:10365000110020003e009000cbfe0700700020000b
:10366000000f78000500370000000000030037005d
:103670000000000001003700000000001e0078007c
:103680004f0478000080fa00000006000800fa00ed
:103690001007980021079800320798001e0190003b
:1036a000ae00900060002000a2fd07008040eb000b
:1036b00030c0b300ed07070040c4b300a607070001
:1036c0003e0090000000e00003003a0080bb2000b4
:1036d000160b07002e003700803e2000130b07005a
:1036e000000f78003e009000ef0f50000300340000
:1036f0003e00900070005000010037003e00900036
:103700002a0607003e009000ef0f500002003c0028
:10371000e0ff2f0001003700b0ff2f005e0607001a
:10372000401f2000010b07001e0f70001e007800d4
:103730000000e0000a003a001e019000be00900068
:10374000700020007bfd0700431f20003200200096
:10375000be0090002e009000f0fe07000c00370025
:10376000f00020004c06070031002000400520003a
:10377000df0507008040eb0030c0b300bb07070047
:1037800010c4b30074070700c05d2000e70a0700fb
:103790000080fa00000006000400fa0010079800fc
:1037a00011478000700c2000808f50002d003400e5
:1037b000803e2000dd0a0700000f7800b046800040
:1037c000100078001e01900080007800300020007a
:1037d00058fd0700401f2000d40a07001e0f70008c
:1037e0008040eb0030c0b300a00707001e00780047
:1037f0000000e00010003200f00020002606070064
:103800001100200040052000b905070010c4b300d6
:1038100051070700304780000001eb00800078006e
:103820005000200043fd0700d04080000000e80069
:10383000d04088000b00370020c5b30046070700c2
:10384000410620001e009000d40a0700b046800008
:10385000100078001e0190008000780040002000d9
:1038600034fd07000080fa00000006001200fa0094
:103870004007980051079800620798007307980066
:10388000040f9800204080003140800040408800b4
:10389000514088008e089000a00320009405070086
:1038a0000e08900000f0a7000000ea000000ea0007
:1038b0004f00de0080007800100420008c05070017
:1038c000410020000e089000b40a0700803e20004e
:1038d000960a0700510020000e089000af0a07006a
:1038e000007d2000910a0700a10020000e08900032
:1038f000aa0a0700401f20008c0a070021012000af
:103900000e089000a50a07000e099000ce00900056
:103910001000200007fd070060418000fe0f5000ee
:103920000d003a00010520000e0890009b0a0700d8
:1039300050478000e10f50008b003400504780005a
:1039400080007800803e20000088b90000007800e8
:10395000760a070085003700504780000000e0002d
:1039600003003a00800c2000700a0700790037003d
:1039700050478000e40f500008003c005047800092
:1039800080007800803e20000088b90000007800a8
:10399000803eb100650a070066003700a04680003f
:1039a0000000e00015003200401f20005f0a070001
:1039b0007e019000ee0090000e08900033ff07009b
:1039c000e10d20000e089000740a070050478000a7
:1039d000e70f500057003600504780008000780005
:1039e000803e20000088b9008000780000892e0009
:1039f000008040004d0a07004e0037008102200081
:103a00000e089000650a0700401f2000470a0700c3
:103a1000a10220000e089000600a0700401f20004d
:103a2000420a0700810c20000e0890005b0a070084
:103a3000803e20003d0a0700210d20000e08900066
:103a4000560a07005047800080007800401f200081
:103a50000088b9008000780000832f0000804000bb
:103a6000320a0700610e20000e0890004b0a070082
:103a700050478000eb0f500017003400007d2000fd
:103a80002a0a0700b10e20000e089000430a070022
:103a9000401f2000250a0700010f20000e0890009b
:103aa0003e0a0700401f2000200a0700510f200097
:103ab0000e089000390a070051478000401f20007f
:103ac0000088b9008000780040a82e0000804000e7
:103ad000160a070008003700504780008000780071
:103ae000401f20000088b90080007800c0632f00cc
:103af000008040000d0a0700a10f20000e08900072
:103b0000260a0700401f2000080a0700f10f2000c6
:103b10000e089000210a0700401f2000030a07003a
:103b2000d10320000e0890001c0a0700401f20004f
:103b3000fe090700f10320000e089000170a070095
:103b4000401f2000f9090700110420000e08900012
:103b5000120a07000e099000de00900020002000ed
:103b600074fc070001003700000000000000eb00bb
:103b7000000f7800c04680000000e0000300320023
:103b8000e10f500035003200400037008040eb006c
:103b900030c0b300b506070020c5b3006e060700ad
:103ba000833e200012002000de0090004e009000b6
:103bb000dafd0700000f780061418000000320005b
:103bc000808f50002e003a001e007800e50f500054
:103bd000030032001e007800e60f50002a003a0071
:103be00060468000900078005e009000808f50005a
:103bf00004003a00604680000080e8001000780071
:103c0000020037006046800010007800200798000e
:103c1000803e2000c50907000e099000ae0090000c
:103c20003000200043fc0700401f2000bf090700b0
:103c30000e099000ae009000400020003dfc0700ff
:103c4000833e200022002000ae0090004e00900035
:103c5000b2fd0700000f78000c0037000e0890003e
:103c6000cdfe0700833e200012002000de00900001
:103c70004e009000a9fd0700000f780003003700f8
:103c800000000000010037000000000091408000ab
:103c9000c040800080804000a040800080804000c4
:103ca000b040800080804000d04080000080400014
:103cb0003007980012002000d10020003e00900044
:103cc000f007070091408000c04080000080400065
:103cd0000000e0001500340091408000c0408000ea
:103ce00080804000400620000088b90080007800f5
:103cf0003e00900000017800110009008200d80009
:103d0000f0408800f040800031062000810f500014
:103d10000100340030062000f0408800f0408000b0
:103d20000001eb00d1002000d60707008040eb0027
:103d300030c0b3004d06070090c4b300060607006c
:103d40001e007800e40f500007003a002047800072
:103d50000000a00020478800704180000000e800bb
:103d60007041880003003700204780000000a10058
:103d70002047880060478000e30f500012003600a3
:103d8000604780006400500010079800050037006d
:103d900000a62e00650907001e009000c003b100b8
:103da000100798009e009000c0032000808f5000f4
:103db000f7ff3e009e009000803e20000088b90082
:103dc00000007800590907008000eb00b0032000d4
:103dd000470407000a0c07000080fa0000000600f4
:103de0000200fa0080418000ef080700118e2b00ce
:103df000300020004c080700000f78008041800050
:103e0000e90807009e007800200020001205070046
:103e10008000eb00d0032000350407000000fe0006
:103e20000080fa00000006001c00fa00300f980025
:103e3000410f9800520f98000000eb00000f78002f
:103e40000000eb0010079800f04580007007980014
:103e50008047800000004000f7f50700000f980041
:103e600060418000800078003003200020040700bb
:103e70001d03370011002000d00320001c040700a0
:103e8000018f2b0010902b00170807001200200054
:103e9000110020001e0090007a0707001a28ef008a
:103ea000d0408000c0408800c0408000b040880002
:103eb000b0408000a0408800a04080009040880072
:103ec0000000eb00400798000000eb00500798004e
:103ed0000000eb00000f7800e90237008047800007
:103ee000800078000e089000ce0807000000eb006c
:103ef00060079800da0237006e0090000000400072
:103f00008e0890000080400010007800100f98008c
:103f10006041800021032000810f500037003200f3
:103f200021032000810f500008003e00fe0f5000ca
:103f30003200320001032000810f50009600320051
:103f4000f40f500012003200150137004106200026
:103f5000810f50006e00320041062000810f50009a
:103f600004003e0031062000810f50004e00320058
:103f70000b01370061062000810f500086003200df
:103f8000e1062000810f50002c00320004013700b0
:103f90001e0890000000e000030032001e089000a0
:103fa000e20f500003003a005046800010007800f5
:103fb00003003700504680000080e80010007800c1
:103fc000200798001e089000e10f50000300320007
:103fd0001e089000e20f500003003a006046800087
:103fe0001000780003003700604680000080e80081
:103ff0001000780030079800e90037001e08900094
:104000000000e000030032001e089000e20f5000a4
:1040100003003a005046800010007800030037008b
:10402000504680000080e8001000780020079800cb
:104030000000eb0030079800d90037001e08900000
:104040000000e000030032001e089000e20f500064
:1040500003003a005046800010007800030037004b
:10406000504680000080e80010007800200798008b
:104070001e089000e10f5000030032001e0890005f
:10408000e20f500003003a00604680001000780004
:1040900003003700604680000080e80010007800d0
:1040a00030079800be0037001e0890000000e000b6
:1040b000030032001e089000e20f500003003a0097
:1040c0005046800010007800030037005046800002
:1040d0000080e8001000780020079800504680001b
:1040e000900078002e009000808f500004003a006d
:1040f000604680000080e800100078000200370071
:10410000604680001000780030079800a400370057
:104110001e0890000000e000030032001e0890001e
:10412000e20f500003003a00504680001000780073
:1041300003003700504680000080e800100078003f
:104140002007980050468000900078002e009000d4
:10415000808f500004003a00604680000080e80034
:1041600010007800020037006046800010007800e0
:10417000300798001e007800ef0f50000300340055
:10418000b0002000f0458800850037000000eb00fb
:10419000f0458800820037002047800063006000ff
:1041a000e30f500003003a0070418000e20f50001e
:1041b0007a00340070468000e40f50001f00320087
:1041c000e60f50004e003200e20f500071003a003e
:1041d0001e0890000000e000030032001e0890005e
:1041e000e20f500003003a005046800010007800b3
:1041f00003003700504680000080e800100078007f
:10420000200798001e089000e10f500003003200c4
:104210001e089000e20f500003003a006046800044
:104220001000780003003700604680000080e8003e
:104230001000780030079800560037005146800083
:104240001e089000000040000080400090007800b0
:10425000210798001e089000e10f50000300320073
:104260001e089000e20f50000b003a009e007800fc
:1042700070002800008060000000e00004003d00a5
:104280000000e90081ff2f00008070000000e800be
:10429000e30f5000110034001e0890000000e00001
:1042a000030032001e089000e30f50000f003a0098
:1042b0009e00780070002800008060000000e00090
:1042c00004003d000000e90081ff2f000080700025
:1042d0000000e800e30f5000040034006046800056
:1042e00010017800320798002a00370060468000ed
:1042f0000080e80090007800310798002500370022
:10430000514680001e0890000000400000804000e0
:1043100010017800220798001e089000e20f50005c
:1043200008003c009e007800c000200000017800da
:10433000110009008200d8008000fd00e50f500048
:104340000b0034001e089000e20f50000c003400f7
:104350009e007800c00020000001780011000900d4
:104360008200d8008000fd00e50f500004003400fa
:104370006046800090007800310798000500370003
:10438000604680000080e800100178003207980045
:10439000000000002e28ef000100370000000000a0
:1043a0008040eb000040eb00b004070081742b005c
:1043b0002e00900000804000104078006604070046
:1043c00081742b003e009000008040001040780077
:1043d00061040700a0468000e10f50000300320096
:1043e000e20f5000050032001400370080468000c4
:1043f000900078004107980010003700b8f40700db
:1044000061006000004078000004e000030032001a
:10441000804680001000780003003700804680004e
:104420000080e80010007800400798009046800067
:10443000100178005207980000000000e04580005d
:104440006101b8000080eb008080eb0002004000ba
:1044500083804800f204200003002000820f5000f7
:10446000838f580073013e00006001005200370046
:104470004e0037006f0137006e0137006d013700c5
:104480006c0137006b0137006a01370069013700a2
:1044900052003700670137006601370065013700b9
:1044a00064013700630137006201370061013700a2
:1044b000600137005f0137005b00370062003700a2
:1044c0005c0137005b0137005a013700820037007a
:1044d0008900370057013700560137005501370072
:1044e000a90037005301370052013700510137004e
:1044f000500137004f0137004e0137004d013700a2
:104500004c0137004b013700c30037004901370029
:10451000ca0037004701370046013700d80037008e
:1045200044013700430137004201370041013700a1
:10453000400137003f0137003e0137003d013700a1
:104540003c0137003b0137003a01370039013700a1
:1045500038013700370137003601370012013700c4
:1045600034013700330137003201370031013700a1
:10457000300137002f0137002e0137002d013700a1
:104580002c0137002b0137002a01370029013700a1
:1045900028013700270137002601370025013700a1
:1045a0002401370023013700070137000000eb002a
:1045b000f04588001f0137001e0078006100600090
:1045c0000000e000020032007e0090000100370091
:1045d0000000eb00f0458800160137003e0890000f
:1045e0000000400000017800706626000090b900cd
:1045f000c288de004f90de0000805000200f98003f
:104600003e0890009e0050002e089000808f5000c1
:1046100002003c007e009000010037000000eb002b
:10462000f0458800030137002e009000adf407002c
:104630000000e000020032001000200001003700fe
:1046400020002000404688009e0078005000200096
:1046500000017800110009008200d8008000fd00f0
:10466000e20f500012003200e20f500005003c0043
:104670000000e00008003200e10f500009003200a5
:10468000ec003700e30f50000c003200e40f500044
:104690000d003200e70037000000eb00f045880015
:1046a0000c003700b0052000f045880009003700f5
:1046b000c0052000f045880006003700d005200026
:1046c000f045880003003700e0052000f045880031
:1046d00000000000d70037002e00900081f4070092
:1046e0000000e0000200320010002000010037004e
:1046f00020002000404688009e00780050002000e6
:1047000000017800110009008200d8008000fd003f
:10471000e20f500012003200e20f500005003c0092
:104720000000e00008003200e10f500009003200f4
:10473000c0003700e30f50000c003200e40f5000bf
:104740000d003200bb0037000000eb00f045880090
:104750000c00370000062000f045880009003700f3
:1047600010062000f04588000600370020062000d3
:10477000f04588000300370030062000f04588002f
:1047800000000000ab0037009e00780050002000c1
:1047900000017800110009008200d8008000fd00af
:1047a000e20f500012003200e20f500005003c0002
:1047b0000000e00008003200e10f50000900320064
:1047c0009c003700e30f50000c003200e40f500053
:1047d0000d003200970037000000eb00f045880024
:1047e0000c00370090072000f045880009003700d2
:1047f000a0072000f045880006003700b007200021
:10480000f045880003003700c0072000f04588000d
:1048100000000000870037002e00900031f40700f0
:104820000000e0000200320010002000010037000c
:1048300020002000404688007e0037002e009000b7
:1048400028f407000000e000020032001000200001
:104850000100370020002000404688001e0078003c
:10486000610060000000e000020032007e00900065
:10487000010037000000eb00f04588006d003700b4
:104880001e007800e30f50000b0034001e0078007b
:10489000e70f500008003c002e00900011f40700c4
:1048a0000000e000040032003e0090000df407001c
:1048b0000000e0002a003a001e007800e70f5000d8
:1048c0000b0034001e007800eb0f500008003c0085
:1048d0002e00900003f407000000e0000400320006
:1048e0003e009000fff307000000e0001c003200d3
:1048f0001e007800eb0f50000b0034001e00780003
:10490000ef0f500008003c002e009000f5f3070068
:104910000000e00004003a003e009000f1f30700c0
:104920000000e0000e003a001e007800ef0f50007b
:10493000140034001e007800f30f500011003c00fa
:104940002e009000e7f307000000e0000d003a00a1
:104950003e009000e3f307000000e00009003a0089
:104960002e009000dff307000000e000020032009c
:104970002000200001003700100020004046880081
:104980002c0037002e009000d6f307000000e00056
:10499000020032001000200001003700200020003b
:1049a00040468800230037001e089000e10f5000a9
:1049b00002003c000000eb0001003700100920005d
:1049c000f04588001b00370045f3070061006000d8
:1049d000004078000004e0000b0032003e08900028
:1049e000cf00de00008040000080d1009e0f50000c
:1049f00002003c007e009000010037000000eb0048
:104a0000f04588000b0037003e089000cf00de0024
:104a1000008040000080d1009e0f50000200340052
:104a20007e009000010037000000eb00f045880098
:104a300000000000f045800000027800de019000d8
:104a40004e019000be0090002e00900087fb0700f2
:104a50001e0fe8006e0090000000e800600798005c
:104a6000814780006e009000808f50000400340069
:104a7000e14080004e089000808f50001efd350000
:104a80003e0890009e007800808f500004003d009a
:104a9000e14080004e089000808f50000ffd3500ef
:104aa0008000eb00d003200011010700f0408000df
:104ab0008000eb00a1f30700a14080004006200029
:104ac0000088b90080007800a240800090408000fb
:104ad0000000410000017800110009008200d800a8
:104ae0001100200095f30700e14080004e0890007f
:104af000808f50000b003d0010c0b3001e019000dd
:104b0000de089000810f5100010035000040eb00ed
:104b10009e0090008100e800110798000004e0006a
:104b2000d4fc3a008000eb00e0032000f000070016
:104b30000080eb00404188000e08900059f2070009
:104b40005046800057f207006046800055f207008b
:104b5000b046800053f207000080fa000000060013
:104b60000200fa000000eb00000f78001e00a20017
:104b70001e0078003046880021912b001000200094
:104b8000e9040700f9ff37000200fa00000f78007f
:104b900010002000304688008040eb0030c0b30099
:104ba000b2020700c0c4b3006b020700110020006e
:104bb000f0042000ce0007000080fa00000006008c
:104bc0000000fa000000eb00304688008040eb0057
:104bd00030c0b300a5020700e0c2b3005e020700c8
:104be0008000eb00f0042000c10007000080fa0004
:104bf000000006000000fa00f09f23000016880065
:104c0000c422ef00f0cf2f003016880000302000c3
:104c1000501688000080eb0060168800d022ef005c
:104c200000f020009016880000002300b0168800d5
:104c3000d822ef00dc22ef000080eb00f0168800a5
:104c4000e222ef00f0cf2f0020178800e822ef00cb
:104c50000080fa00000006000000fa000021ef00ca
:104c600080382100100888008460a9008c60a800aa
:104c700000012800200888000080eb0085f1070073
:104c80000028ef000228ef000428ef000628ef00bc
:104c90000080fa00000006000200fa00000f780011
:104ca0001e0078006101b8000040800011408000c3
:104cb00002004000838048000040880011408800c6
:104cc0001e0078006101b800204080003140800063
:104cd0000200400083804800204088003140880066
:104ce000224080003340800000202000010020008e
:104cf000020278000301780080017800010078004a
:104d000003026200000061008000eb00c000dd00d3
:104d1000000020000001be006120b8000001710009
:104d200081817100471add004910de000000720029
:104d3000c918de0000407800614060000080fb0080
:104d4000610060004e00dd00a116800001e0a100be
:104d500001007000a01688000000000000000000a4
:104d6000224080003340800000202000010020000d
:104d700002027800030178008001780001007800c9
:104d800003026200000061008000eb00c000dd0053
:104d9000000020000001be006120b8000001710089
:104da00081817100471add004910de0000007200a9
:104db000c918de0000407800614060000080fb0000
:104dc0004f00dd00a2168000f1ff27008100610086
:104dd00001007000a0168800000000000000000024
:104de0000080fa00000006000000fa00c0478000c2
:104df000d14780000001be002203b0000380b00054
:104e0000204080003140800014002000800f5100bd
:104e1000818f5900010039000002eb000400780086
:104e20000080fa00000006000600fa002007980043
:104e30002e009000cf80de00008fbe000028ef0023
:104e40000228ef00000000000040800011408000b8
:104e5000be0f5000ae8f5800fbff39000080fa00f3
:104e6000000006000200fa00000f78000200370080
:104e7000803e2000ecff07001e00780000f0a70035
:104e80000000ea000000ea004f00de000040780069
:104e90001e0fe9000004e000f5ff3a000080fa0070
:104ea000000006000600fa000ef1070090f12f0046
:104eb00012f1070000f02d00000f7800d0752700d8
:104ec0001007980090012000200798002e01900004
:104ed0009e0090001e0078002af107008000eb0081
:104ee000d0032000020007000080fa000000060046
:104ef0000400fa00000f780011079800100020004d
:104f00007040880000000000f1f007000004e0009d
:104f1000fdff3a001e007800004078008080fb0012
:104f2000f007200000806000d01088000000000022
:104f3000e7f007000004e000fdff3a001e009000cb
:104f40008040780000c8b30000c070000080fb0003
:104f5000d010880000000000ddf007000004e00031
:104f6000fdff3a00804080000000e0000b003200ae
:104f70001a22ef0000000000d5f007000004e00056
:104f8000fdff3a0020082000d0108800000000003b
:104f9000cff007000004e000fdff3a001028ef000a
:104fa0000e28ef000080fa00000006000200fa0060
:104fb000000f78001e00780000407800614060001b
:104fc00061406000614060000080fb0061006000a3
:104fd000a11680000100a10001007000a016880049
:104fe00000000000000000009e0078006280600069
:104ff0000080d10000407800614060000080fb002c
:105000006100600000004000a11680000110a100b6
:1050100001007000a01688000000000000000000e1
:105020009e007800648060004280de0000407800ce
:10503000614060000080fb00610060004200dd0014
:10504000a11680000120a10001007000a0168800b8
:1050500000000000000000009e00780068806000f2
:105060004380de0000407800614060000080fb006b
:10507000610060004300dd00a11680000130a10046
:1050800001007000a0168800000000000000000071
:105090000080fa00000006000200fa00000f78000d
:1050a0001e007800004078006140600061406000b0
:1050b000614060000080fb00610060004c00dd008a
:1050c000a116800001c0a10001007000a016880098
:1050d00000000000000000009e0078006280600078
:1050e0000080d10000407800614060000080fb003b
:1050f000610060004d00dd00a116800001d0a1001c
:1051000001007000a01688000000000000000000f0
:105110009e007800648060004280de0000407800dd
:10512000614060000080fb00610060004800dd001d
:10513000411680000180a100010070004016880027
:1051400000000000000000009e0078006880600001
:105150004380de0000407800614060000080fb007a
:10516000610060004900dd00411680000190a1004f
:1051700001007000401688000000000000000000e0
:105180000080fa00000006000000fa00a1a2a900b9
:1051900001158000f0cf2f0000806000001588000e
:1051a00001158000000e200001007000001588002d
:1051b000a022a80011158000f0ff210000806000ef
:1051c00010158800a342a8001115800030fc2f00a4
:1051d000008060000030a00010158800a222a90005
:1051e000a202a9002115800000f02100010070003a
:1051f00020158800a4e2a8002115800000fc2f00e3
:1052000000806000f001b30020158800a782a9008b
:10521000a682a90030158000f000b3003015880088
:1052200031158000f00f2f000080600030158800dd
:10523000f0ff270040158800000028005015880066
:10524000a042a8008560a8008d60a800a1e2a80087
:105250000080fa00000006000400fa00000f780049
:10526000110798001e0078006101b900c0c98500cf
:10527000d1c9850002004000838048002200200040
:1052800045f00700013b800000002800008060001e
:105290000000e000fbff3a001e0078006101b90049
:1052a000c0c98500d1c98500020040008380480044
:1052b0001e01900051f00700013b80000000280013
:1052c000008060000000e000fbff3a000080fa0070
:1052d000000006000400fa00100798001e0090006d
:1052e0006101b900c0c98500d1c985000200400034
:1052f000838048000002eb00230020000e017800ac
:105300004df007001e0078000080fa000000060043
:105310000400fa0080042000000f780000222c0016
:10532000100798009e0078001e009000d2ef070042
:105330000080fa00000006000200fa00004f78002a
:1053400011479800adef0700ceef07000000000006
:1053500030108000610060000000e000fcff3a00b7
:1053600085c0a9001e407800b5ef070000000000ce
:1053700040108000610060000000e000fcff3a0087
:105380000000000021048000000024000080600074
:105390000000e000fbff320085c0a9000000000013
:1053a0004110800000002800008060000000e00044
:1053b000fbff3a001e409000a1ef0700b3ef07008b
:1053c0000000000030108000640060000000e00079
:1053d000fcff3a000080fa00000006000400fa001a
:1053e0002047980085ef0700a6ef070000000000a7
:1053f00030108000610060000000e000fcff3a0017
:1054000085c0a9002e4090000004a0008cef07008a
:105410000000000040108000610060000000e0001b
:10542000fcff3a000000000021048000000024007e
:10543000008060000000e000fbff320085c0a90092
:105440000000000041108000000028000080600083
:105450000000e000fbff3a0073ef0700004f780008
:105460008aef070000000000301080006400600038
:105470000000e000fcff3a001e4078000080fa00c7
:10548000000006000000fa0027c8bf000034a0009a
:1054900027e8b70020c0b30026e8b70000352c008d
:1054a000e101070041c0b300e0c7b300a2ff07005d
:1054b00040062000dc01070000c3b3009e01070086
:1054c00040192100d801070000c3b3009a0107006a
:1054d00060092000d401070000c3b3009601070053
:1054e00060092000d001070000c2b300920107004c
:1054f00060092000cc01070080c0b30022e8b7009b
:1055000022c8bf000054a000210107002468ef005a
:10551000830007008b00070020c0b30023e8b7001a
:1055200023c8bf000024a0001901070024c8bf0041
:105530000034a0001601070080c0b30025e8b700c2
:1055400025c8bf000044a000110107003300070078
:105550000080fa00000006000200fa00004f780008
:105560001e407800160107001e4078000080fb00f6
:1055700080007800a00120005dfe07000080fa0096
:10558000000006000600fa0020079800ae00900018
:10559000010f7800040037001e00780010407800ea
:1055a0001e0fe800060107001e007800104078007a
:1055b0000004e000f8ff3a000000eb00100798003c
:1055c0000b0037001e009000ae00900000804000ed
:1055d000104078000080fb0080007800a0012000cf
:1055e00043fe07001e0090000000e800100798002e
:1055f0001e009000ae009000008040001040780037
:105600000004e000030032001e009000ef0f500085
:10561000ecff34000080fa00000006000000fa00f1
:1056200010c0b300da000700005327007e01070016
:1056300001022000900120002dfe07000080fa00ea
:10564000000006000000fa0020c0b300d0000700f0
:105650000053270074010700010220009001200080
:1056600023fe07000080fa00000006000c00fa008c
:10567000204f9800314f98000000eb001007980071
:105680000004200020079800400120003007980007
:10569000400520004007980026c8bf00be48900083
:1056a00080cf50000300390026c8bf000040e90049
:1056b000304f98003e4890000080fb000000400002
:1056c0000000470010009000804078002e489000b5
:1056d00000c040008040780000c8b30000c07000e7
:1056e000ab0007002e4890000080fb006f006000b8
:1056f00000004000800078003e4890000080fb00e1
:1057000061006000010070007f0f60009e00780063
:1057100090012000f6fd07000080fa00000006005e
:105720000000fa0024c8bf000024a10024e8b7004c
:1057300024c8bf000034a000950007000080fa00d4
:10574000000006000000fa0024c8bf000024a000ea
:1057500024e8b70024c8bf000034a0008c00070074
:105760000080fa00000006000000fa0024c8bf0014
:105770000014a10024e8b70024c8bf000034a00032
:10578000830007000080fa00000006000000fa0015
:1057900024c8bf000014a00024e8b70024c8bf003c
:1057a0000034a0007a0007000080fa000000060024
:1057b0000000fa0024c8bf000004a10024e8b700dc
:1057c00024c8bf000034a000710007000080fa0068
:1057d000000006000000fa0024c8bf000004a0007a
:1057e00024e8b70024c8bf000034a0006800070008
:1057f0000080fa00000006000000fa0025c8bf0083
:105800000024a10025e8b70025c8bf000034a0008f
:1058100025e8b70025c8bf000044a0005c000700d1
:105820000080fa00000006000000fa0025c8bf0052
:105830000024a00025e8b70025c8bf000034a00060
:1058400025e8b70025c8bf000044a00050000700ad
:105850000080fa00000006000000fa0023c8bf0024
:105860000014a00023e8b70023c8bf000024a00054
:10587000470007000080fa00000006000000fa0060
:1058800023c8bf000014a10023e8b70023c8bf004d
:105890000024a0003e0007000080fa00000006007f
:1058a0000000fa0023c8bf000004a00023e8b700ee
:1058b00023c8bf000024a000350007000080fa00c4
:1058c000000006000000fa0023c8bf000004a10089
:1058d00023e8b70023c8bf000024a0002c00070065
:1058e0000080fa00000006000600fa002047980039
:1058f000210798002e4090006740600020479800e4
:105900002e4090000080fb004300dd000040780046
:105910000064a0001e0007000000eb00000f7800ec
:10592000060037001e007800ae00900000804000a6
:1059300010407800220007001e0fe8001e007800cb
:10594000e70f5000f7ff34000080fa000000060067
:105950000000fa0027c8bf000034a10027e8b70004
:10596000c3000700a70007000080fa00000006003f
:105970000000fa0027c8bf000034a00027e8b700e5
:10598000bb0007009f0007000080fa00000006002f
:105990000200fa00004f78008040eb001e407800c3
:1059a0002f0007000080fa00000006000000fa0047
:1059b0000040eb00430007000080fa0000000600f2
:1059c0000200fa00004f780011c0b3001e407800ba
:1059d000230007000080fa00000006000000fa0023
:1059e00010c0b300370007000080fa000000060076
:1059f0000000fa00edff070001c8b300014060009d
:105a00000080fa00000006000000fa00e7ff07002f
:105a10000074a1000080fa00000006000200fa00f5
:105a2000004f780000c8b3001e407000d8ff070088
:105a3000eaff07000080fa00000006000200fa00fa
:105a4000004f78001e407800f043b2000064a000d0
:105a5000cfff0700e1ff07000080fa00000006000a
:105a60000400fa002047980031479800ae409000ab
:105a700000cfb30000cf6000ae4090004000200097
:105a80000008dd00104798009e40900000cfb30052
:105a900000c06000104798003e4090001e4070001b
:105aa0000024a000240007009e4090003e4090008b
:105ab00000c070000024a0001f0007000080fa0052
:105ac000000006000400fa0020479800ae40900055
:105ad00000cfb30000c070004a000700ae40900045
:105ae00040cfb30000c070001d000700004f7800d9
:105af000ae40900040cfb30000c070001800070017
:105b0000104798002e4090000024a0003d000700a0
:105b10009e40780000cfb30080c060001e4090001f
:105b20000080fb004400de000040780000c07000f0
:105b30000080fa00000006000200fa00004f780022
:105b40001e4078000014a1002e0007001e407800bf
:105b50000014a1000f0007000080fa0000000600fa
:105b60000400fa00204798002e4090000014a00086
:105b7000160007003e000700004f78002e409000fe
:105b80000014a000030007001e4078000080fa0007
:105b9000000006000200fa00004f78001e40780066
:105ba0000024a00017000700100020001e000700be
:105bb0001e4078000024a1001200070020032000ee
:105bc000190007000080fa00000006000200fa0039
:105bd000004f78001e4078000024a1000900070053
:105be00010002000100007001e4078000024a000d4
:105bf00004000700200320000b0007000080fa00cb
:105c0000000006000200fa00004f780027c8bf001d
:105c10001e40700080407800e0c7b300c6fd07005a
:105c20000080fa00000006000400fa001007980047
:105c30000000eb00000f78000700370000000000b4
:105c40000000000000000000000000000000000054
:105c5000000000001e0fe8001e0090009e0078006b
:105c6000808f5000f5ff39000080fa000000060028
:105c70000000fa00e0c7b300d8fd07000080fa007a
:105c8000000006001200fa006007980071079800f3
:105c9000020f98006e01900070a321000090b900df
:105ca000ca88de004f90de00008050001007980088
:105cb000ee00900070a321000089b9004a99de002f
:105cc0004f88de0000005100027122000281b900fd
:105cd0000200780000805000813e20000101780021
:105ce000110009000200d80020079800ee00900083
:105cf000803e200000017800110009008200d800d9
:105d00008000fd0000017800b04721000090b9003c
:105d1000c388de004f90de000080500030079800fe
:105d2000ee009000b04721000089b9004399de00e1
:105d30004f88de0000005100420620000281b900b9
:105d40000200780000805000716626000181b900d1
:105d5000c298de004f80de000080500040079800af
:105d60006e009000716626000181b9004299de0044
:105d7000cf80de00810051006a09b90082007800fe
:105d800001005000500798000000eb00000f780061
:105d90000e089000804078007e009000004078005f
:105da00032fe07001e0090000000e0000e003200ee
:105db0001e009000004078000043b000e6fd0700a0
:105dc0000e089000804078007e0090000000e800ff
:105dd000700798007e0090000040780023fe0700c6
:105de00010002000000f78002e0090000000e0005e
:105df00003003a001e0078000000e0000e003200b0
:105e00002e009000004078000043b000d2fd070053
:105e10000e089000804078007e0090000000e800ae
:105e2000700798007e009000004078000ffe070089
:105e300010002000000f78003e0090000000e000fd
:105e400003003a001e0078000000e0000e0032005f
:105e50003e009000004078000043b000befd070007
:105e60000e089000804078007e0090000000e8005e
:105e7000700798007e00900000407800fbfd07004e
:105e800010002000000f78004e0090000000e0009d
:105e900003003a001e0078000000e0000c00320011
:105ea0004e009000004078000043b000aafd0700bb
:105eb0000e089000804078007e0090000000e8000e
:105ec000700798007e00900000407800e7fd070012
:105ed0005e009000004078000043b0009efd070087
:105ee0000080fa00000006000400fa00000f7800ad
:105ef00011079800d3fd0700c8fd07001e007800b9
:105f0000a0fd070011c0b3000040eb00d7fd070063
:105f10001e0090009bfd070010002000d1fb070031
:105f20000080fa00000006001200fa00889fbe0000
:105f300070079800010f98000f0478000f00780098
:105f4000800478007e0090008000e90051079800ee
:105f5000000040000000e8000000e8000000d10060
:105f6000800040000f007800818747000000e800b3
:105f70000000d10000004000600798000000eb0026
:105f8000000f7800a5fd0700aefd07000e08900089
:105f90007cfd07000000eb001007980009003700a7
:105fa000ee0090001e0090000000400000804000c5
:105fb000a1ff2f00010878001e0090000000e800fb
:105fc000100798009e0090007e009000808f500087
:105fd000f3ff35000000eb00100798003300370096
:105fe0000000eb00300798000e0037003e009000e4
:105ff0000040780011c0b3009cfd0700ee00900047
:106000003e009000000040006100780000407800f1
:106010000043b00050fd07003e0090000000e80083
:1060200030079800be0090007e009000808f5000e6
:10603000eeff35000d003700404180000000e00019
:106040000a0034004041800001fd2f0080804000a4
:106050006e0190001e009000000040000000410012
:10606000010878000080eb0040418800ee009000bd
:106070001e00900000004000610078000000e00079
:10608000edff3500ee0090001e0090000000400083
:1060900061007800800078001000200094fb070069
:1060a0001e0090000000e800100798009e0090007d
:1060b0007e009000808f5000c9ff35000000eb008b
:1060c000400798000e0037004e0090000040780016
:1060d00011c0b30065fd0700ee0090004e00900077
:1060e0000000400061007800004078000043b000ec
:1060f00019fd07004e0090000000e80040079800de
:10610000ce0090007e009000808f5000eeff3500a2
:106110000000eb00200798000b0037001e007800fd
:106120006a00b900800078006e0190002e00900097
:106130000000400062007800008f40002e009000b8
:106140000000e80020079800ae0090007e0090005c
:10615000808f5000f1ff35001e007800890778001d
:10616000880778004f04be000080fa000000060097
:106170000200fa00000f78001e007800004078004e
:10618000614060000080fb00610060004e00dd00a7
:106190001116800001e0a1000100700010168800b7
:1061a0000080fa00000006000400fa0010079800c2
:1061b0001e019000b04721000090b900c388de00a6
:1061c0004f90de0000805000004f78009e0090004d
:1061d000b04721000089b9004399de004f88de00f6
:1061e00000005100420620000281b9000200780040
:1061f00000805000104798001e00fb0080007800cf
:10620000700120003afb07001e4090000000fb00d8
:10621000800078008001200035fb07000080fa0034
:10622000000006000a00fa003007980041079800b5
:106230004e0090000000e000370032004e00900059
:10624000e10f5000360032000000eb00000f780034
:10625000070037001e00780000004000be009000dc
:10626000008040009e007800010878001e0fe800c2
:106270009e0078004e009000808f5000f5ff39009e
:106280004e0090000000e900000f78001e0037006b
:1062900013ed07009e00e8000101780011000900dd
:1062a0000200d8008000fd00100798001e0090003a
:1062b00000004000be009000008040001000780008
:1062c000200798001e00900000004000be009000d3
:1062d000808040001e007800000040003e019000d9
:1062e0000000410010007800800878001e0078004f
:1062f00000004000be00900000804000ae00900012
:10630000010878001e0fe9001e0078000000e00080
:10631000dfff3c00030037000000000001003700f1
:10632000000000000080fa00000006000400fa00ef
:1063300010079800f0478000000f78001e009000c2
:106340006101b800404080005140800002004000e0
:1063500083804800404088005140880000000000d1
