:020000040000fa
:080000000007040000000000ed
:020000040000fa
:0400080040090000ab
:020000040000fa
:04000c0040090000a7
:020000040000fa
:0400100040090000a3
:020000040000fa
:04001400400900009f
:020000040000fa
:04001800400900009b
:020000040000fa
:04001c004009000097
:020000040000fa
:040020004009000093
:020000040000fa
:04002400400900008f
:020000040000fa
:04002800400900008b
:020000040000fa
:04002c004009000087
:020000040000fa
:040030004009000083
:020000040000fa
:04003400c8070000f9
:020000040000fa
:04003800400900007b
:020000040000fa
:04003c004009000077
:020000040000fa
:040040004009000073
:020000040000fa
:04004400400900006f
:020000040000fa
:04004800400900006b
:020000040000fa
:04004c004009000067
:020000040000fa
:040050004009000063
:020000040000fa
:04005400ee080000b2
:020000040000fa
:04005800400900005b
:020000040000fa
:04005c004009000057
:020000040000fa
:040060004009000053
:020000040000fa
:04006400400900004f
:020000040000fa
:04006800400900004b
:020000040000fa
:04006c004009000047
:020000040000fa
:040070004009000043
:020000040000fa
:04007400400900003f
:020000040000fa
:04007800400900003b
:020000040000fa
:04007c004009000037
:020000040000fa
:040080004009000033
:020000040000fa
:04008400400900002f
:020000040000fa
:040088000209000069
:020000040000fa
:04008c004009000027
:020000040000fa
:040090004009000023
:020000040000fa
:04009400400900001f
:020000040000fa
:04009800400900001b
:020000040000fa
:04009c004009000017
:020000040000fa
:0400a0004009000013
:020000040000fa
:0400a400400900000f
:020000040000fa
:0400a800400900000b
:020000040000fa
:0400ac004009000007
:020000040000fa
:0400b0004009000003
:020000040000fa
:0400b40040090000ff
:020000040000fa
:0400b80040090000fb
:020000040000fa
:0400bc0040090000f7
:020000040000fa
:0400c00040090000f3
:020000040000fa
:0400c40040090000ef
:020000040000fa
:0400c80040090000eb
:020000040000fa
:0400cc0040090000e7
:020000040000fa
:0400d00040090000e3
:020000040000fa
:0400d40040090000df
:020000040000fa
:0400d80040090000db
:020000040000fa
:0401080040090000aa
:020000040000fa
:04010c0040090000a6
:020000040000fa
:0401100040090000a2
:020000040000fa
:04011400400900009e
:020000040000fa
:04011800400900009a
:020000040000fa
:04011c004009000096
:020000040000fa
:040120004009000092
:020000040000fa
:04012400400900008e
:020000040000fa
:04012800400900008a
:020000040000fa
:04012c004009000086
:020000040000fa
:040130004009000082
:020000040000fa
:04013400400900007e
:020000040000fa
:04013800400900007a
:020000040000fa
:04013c004009000076
:020000040000fa
:040140004009000072
:020000040000fa
:04014400400900006e
:020000040000fa
:04014800400900006a
:020000040000fa
:04014c004009000066
:020000040000fa
:040150004009000062
:020000040000fa
:04015400400900005e
:020000040000fa
:04015800400900005a
:020000040000fa
:04015c004009000056
:020000040000fa
:040160004009000052
:020000040000fa
:04016400400900004e
:020000040000fa
:04016800400900004a
:020000040000fa
:04016c004009000046
:020000040000fa
:040170004009000042
:020000040000fa
:04017400400900003e
:020000040000fa
:04017800400900003a
:020000040000fa
:04017c004009000036
:020000040000fa
:040180004009000032
:020000040000fa
:04018400400900002e
:020000040000fa
:04018800400900002a
:020000040000fa
:04018c004009000026
:020000040000fa
:040190004009000022
:020000040000fa
:04019400400900001e
:020000040000fa
:04019800400900001a
:020000040000fa
:04019c004009000016
:020000040000fa
:0401a0004009000012
:020000040000fa
:0401a400400900000e
:020000040000fa
:0401a800400900000a
:020000040000fa
:0401ac004009000006
:020000040000fa
:0401b0004009000002
:020000040000fa
:0401b40040090000fe
:020000040000fa
:0401b80040090000fa
:020000040000fa
:0401bc0040090000f6
:020000040000fa
:0401c00040090000f2
:020000040000fa
:0401c40040090000ee
:020000040000fa
:0401c80040090000ea
:020000040000fa
:0401cc0040090000e6
:020000040000fa
:0401d00040090000e2
:020000040000fa
:0401d40040090000de
:020000040000fa
:0401d80040090000da
:020000040000fa
:100e00002fb220000e7f22000e018800000000009b
:100e1000000020000000e00002003200000120007d
:100e200020028800140007009e0107000000e00077
:100e300003003a00e06a24000100200002003700ad
:100e40000000200001002000810f7000010032002e
:100e500014000700000020000000e0000200320043
:100e6000000002000000000002100200000000006c
:100e70000040da000000fe004440a900403b200092
:100e80000000e0000300320000002000a001880004
:100e90004440a800000006008a1f78008b1f7800dd
:100ea0000000060091018800800478000000eb003b
:100eb0001a003700e284440032a0b4009905ba0059
:100ec000e284440032a0b4009906ba00e2844400ef
:100ed00032a0b4000006eb00476fde00fd07b20051
:100ee000636ce10003003a00ebff07000000eb0039
:100ef0000a003700606ce10004003a00005deb007e
:100f00008b05e900fdff3e00040037006168e10049
:100f1000010032000086eb000b00070019c7ba0081
:100f20001905ba000e04e00003003a000a00e000d0
:100f3000e0ff3a0000000600fe07b2009e018800b4
:100f40008a047800f5ff3700395dba008b05e900a7
:100f50000c003200295dba008b05e9000800320060
:100f60000c00e00003003a00e284440032a0b40028
:100f7000f5ff370019ddba008b05e900faff3a00ea
:100f80008904e800e184440032a0b40000000600b7
:100f90003600f800809fbe00829fbe00849fbe0086
:100fa000869fbe000400fa00500020005d15070077
:100fb000ab1b07002ae8b7002ac8bf00e14f40007a
:100fc0000c00320014c8bf000004e00009003a0021
:100fd000a182200091407800014f780000c0eb0012
:100fe0002ae8b7001e00fb0080007800f004200013
:100ff000d3150700808d200010407800614060000c
:101000000080fb00610060004900dd00d216800016
:10101000f1df2f008100610001007000d016880010
:1010200080408000100798009e0090006041800082
:10103000808f50000a003c009e009000b04080006d
:10104000808f5000060035000000eb00304888001b
:101050000000eb0040488800e702a9003800370094
:10106000304880000000e00007003a002040800087
:1010700031408000504888006148880020002000ee
:10108000304888002e00370030488000e20f5000c2
:101090002b003a0050488000614880006a014000ff
:1010a000e08148002040800031408000800f5100e6
:1010b000818f590022003100e702a8009e009000b5
:1010c00060418000808f500008003400804880001c
:1010d0000000e80080488800c0c4b30015e8b700ed
:1010e000c004200040488800070037009048800076
:1010f0000000e80090488800200520004048880053
:1011000020c5b30015e8b7008000200030488800f3
:1011100014c8bf000004e00009003a00518120001b
:1011200091407800114798001568ef001e4090002c
:101130000000fb00800078000000eb008015070035
:101140002040800031408000421f2000030020002a
:1011500063020700e00f5000e08f580017003a00cc
:1011600014c8bf000004e00014003a00a04880004a
:101170000000e000030032001e0090008000eb0041
:10118000b11a07009e00900060418000808f5000df
:1011900003003400110020007004200068150700cf
:1011a0009e009000b0408000808f500003003d0002
:1011b0002100200070042000611507008460a90050
:1011c0000080fa004f03be004f02be004f01be0078
:1011d0004f00be003600f90000400600801f780076
:1011e0000000fa0000148000904088001014800075
:1011f000804088008560a9000080fa004f007800d8
:10120000004006003600f800809fbe00829fbe00ae
:10121000849fbe00869fbe000000fa00c0108000c0
:10122000620060000000e000010032001822a90006
:10123000e01080004041880041418000a002200071
:10124000808f500006003a008000eb00d0032000a1
:101250003b15070020032000071507000000fe00d3
:101260008700a9000080fa004f03be004f02be00b5
:101270004f01be004f00be003600f90000400600de
:101280000040da000000fe00889fbe008004780065
:10129000004980000000e00004003a000e00070052
:1012a0000084eb000000e0000800350008498000e1
:1012b0000900e000050032000900440006000700b4
:1012c0000000e00001003d000084eb000800780011
:1012d0004f04be0000000600800078000100e0001e
:1012e00003003a0020922000004988000000050019
:1012f0000080eb0022b22000828f500002003e00ee
:10130000014988000000eb00000006000602ab0067
:10131000feff3a000642ab00fcff3a000662ab005b
:10132000faff3a000682ab00f8ff3a0009c2ab00b0
:10133000f6ff3a00000006000662a8000662ab0055
:10134000feff3a0008c2a90000108000000006005d
:101350008040780000c0eb008180fb001110880005
:1013600008e2ab0007003a0009c2ab00feff3a00fa
:10137000e6ff07000040eb000802e20001003d002c
:10138000e0cfb30000000600211088003010880074
:10139000000006000602a800000006000642a800a1
:1013a000000006008460a900e7006000f2ff28004a
:1013b000cc08dd00a3048000030161006800600028
:1013c0000281700071ff2f00a20488006204800077
:1013d00082806000810070006104880000000600c7
:1013e000001020001802b6000000e9004f00de00e7
:1013f0000000060017e2a9008f00a9008f20a900b5
:101400008700a9008720a900000006008700a90026
:10141000e70060008720a9000001780083ff2f000b
:101420000207b2000405800084816100838170009e
:10143000e800600003058800c308de00f3f82f0011
:10144000e18060000405800084816100c808dd003f
:10145000830171000008b20003058800f2ef2f003d
:101460004700de007304800003016100610060003a
:10147000028170004900dd0072048800f1df2f0056
:101480007404800084806000810070007104880012
:1014900000000600f2108800b0108800c11088001b
:1014a00000000600000005003200f80091018800ed
:1014b0000008bb00410424006210e1000400320077
:1014c000000220000010e1000a003a00510424004c
:1014d000013b88000500fc0051052000313b8800dd
:1014e000a10a2000313b880061e7a800000000004d
:1014f000000000003200f900000006003200f80091
:1015000060042400003b8800f2ff37003200f8003e
:101510009101880041002400013b88000208bb00c3
:10152000ecff37003200f8009101880051002400e0
:10153000013b8800030120003218bb008301e90051
:10154000fdff3a00e3ff37003200f8009101880008
:1015500080027800620040003549ba00e08048000f
:101560003204e0000410a700100032008301e900fb
:101570000e0032002549ba003204e0000410a70032
:101580000a0032008301e900080032000408a300c9
:10159000eeff320015c9ba003204e0000410a700c3
:1015a000020032008301e900e8ff3a003200f9004e
:1015b0000000060003f0a200889fbe008a9fbe00c4
:1015c0008c1f7800fa000700010133006450e1002d
:1015d0004f0032006420e1005200320003826c00b0
:1015e00007003b000905d0000306d000820f54001d
:1015f0000c065d000200390002003200890178000b
:10160000030678008582550004003d000003fd00bc
:101610008103fd008502ea008b854200840f720081
:1016200002003b0060001000e08018006011b8006c
:101630000005eb007a28e1000a0039000600780076
:10164000c75ddd00f707b200878075002d00370009
:10165000828171000a017800610560008180d100fb
:101660000080d3008502e900f9ff3b00060440003a
:101670008784480002003b0060041400e0841c00e2
:101680000988a300070032008a81710082817100fd
:10169000610164008904d1000884d3008b05e8004f
:1016a000170037000978a30013003a000b00e00090
:1016b000130034008b05e9000804440089844c00c1
:1016c0000a4474000978a3000d003a000b00e00002
:1016d000070034008b05e9000804440089844c00ad
:1016e00001003a000b0020000978a300f7ff320048
:1016f0000001eb0002003700828171000a017800ce
:10170000700007000cf0a70001f0a000b90037003e
:101710006420e10002003a00838f6c00b9003300be
:101720000801be000200be00b2003700889fbe0064
:101730008a9fbe008c1f78009d000700a400330024
:1017400003866c006450e1002e0032006420e1004a
:10175000330032006150e1002f0032006120e100cf
:101760003100320085855500eb07b00009002000ec
:1017700008042000050037000804440089844c0058
:101780000a0031000603430087834b000001530029
:1017900081815b00f8ff33000203be000800a00057
:1017a0000804440089844c00f6ff3900c639dd0086
:1017b0008301730001003200130020008904d1006e
:1017c0000884d3000998a300050032000800a70090
:1017d0000300a0008904d1000884d3008b05e80031
:1017e0008904d1000884d3000001eb000281d200fb
:1017f0003400070001f0a1000cf0a70001f0a000e8
:101800007c0037006420e1007e0032000801be0049
:101810000200be00f7ff37006120e10079003200ce
:101820006000b800f3ff37000000200001f8270037
:10183000f0ff37000001be00480007000470a70059
:1018400003f0a1006509b100160032000d0035005b
:101850006828e10006003500f0ff2f00f1ff2700a7
:101860000300e00013003b00010028000000050019
:1018700000004000818048008502e900fcff3a003a
:1018800008003700f88f420002003c008000eb00a7
:10189000000005008100d1000080d3008502e8002f
:1018a000fcff3a000300e00002003b006000100073
:1018b000e0801800000006004f89de0082017800f9
:1018c0008a00370081002000618055000b003d0038
:1018d0000b00200061fe2f000100e1001d0034001c
:1018e00082817100610164008904d1000884d30001
:1018f0000000e800faff3a00710020006100640077
:10190000030070000200600009003200610444001e
:10191000e0844c000988a500050032008b05e80032
:101920006808e10002003a008904d1000884d3006d
:10193000f20f20000258e10005003d00c75ddd0008
:10194000f907b200898075000800780000000600e1
:101950000bf827008b00780000000500c70ade00a6
:10196000f107b200f50fb20008003200e1cf4200eb
:10197000020032000170a00024000500810f7000f9
:10198000010032000408050044000500810f7000ca
:1019900002003a00140005008502e9000000400042
:1019a00081c04800fcff3b000170a000240005003e
:1019b0000004be00e9ff07000003be000405be00ee
:1019c0000200be00e5ff0700844f7500000006001e
:1019d0000200be006450e100050036006420e10012
:1019e000020036000968a30001003a000800be00aa
:1019f0000160a0004f0678004f05be004f04be00f6
:101a000000000600f0ff2f00f1ff2700f9ff37006c
:101a1000889fbe008a9fbe008c1f7800e4ff0700ed
:101a2000ebff330003866c006450e10024003200b9
:101a30006420e100270032006150e1002200320002
:101a40006120e100210032008b854200eb07b100ec
:101a50000134b800003ab8000804420089844a0002
:101a6000013ab8000030b8008880400009014a00ff
:101a7000040033000000400081804800020149005a
:101a80008b05e900c909dd00830170000100320007
:101a900013002000c814de004814dd004709de00f2
:101aa0001200b200c808de000884700085ff07003d
:101ab00001f0a1000cf0a70001f0a000cdff37005d
:101ac0006120e100cfff32000801be000200be002d
:101ad000f7ff37006150e100fcff3a00c9ff370013
:101ae000410007000400be0000000600881f7800c7
:101af000030478000300e00007003d0060001000d0
:101b0000e080180060011900e081190002003b002c
:101b100001f02d00030037000400070008f0a700c3
:101b200001f0a0004f04780000000600889fbe006e
:101b30008a9fbe000082700004027100048271005e
:101b4000260032000004be000200be006011b80092
:101b50006b092000950220000182cf000a003900a5
:101b60000541b1000082cf00070039000541b100f6
:101b70000982cf00040039000541b1000882cf007e
:101b8000010039000541b100054252001200320047
:101b90000a003b0082817100610164008100d10074
:101ba0000080d3008984d3000884d3008b05e8002b
:101bb0000442e800f7ff3a00070037000804440039
:101bc00089844c0000004800818048008b05e900b2
:101bd0000442e900f9ff3a003aff07004f05be0052
:101be0004f04be00000006006022b800060220007c
:101bf0000000d0008180d2000482d2008582d20011
:101c00000000a0000202520083825a00030031004b
:101c10000202420083824a000000a1000603e9009c
:101c2000f3ff3a00000006000000e0002f00320041
:101c3000c0017800e38f51002c0036000308a30098
:101c40002a003a00c14880000100e0000200320092
:101c5000810f50000400310011009800c048880036
:101c60001600370082007800110190000200e000a9
:101c700002003200800f5100faff39001102780093
:101c800084824000850f500018003900808f520078
:101c900003003a0083084200010078000700370083
:101ca0000200e0000300320083014000830f510076
:101cb0000e003900120098009000980090009000eb
:101cc0000100e0000900320010014000828f500046
:101cd00006003a00629120000009eb001001780034
:101ce00011084100910090001100980000000600ca
:101cf000889fbe0000047800b14880000100e00029
:101d000002003200010078000d003700c148800059
:101d10008091200004003700910f54002500360008
:101d20000180e800910090000100e000faff3a0015
:101d300010003700920f54001e0036000280e800a9
:101d4000100178000200e000faff3a00110178006b
:101d5000c14880008091200004003700910f54009a
:101d6000140036000180e80091009000828f50003e
:101d7000faff3a00f9488000888f540001003100d2
:101d800088047800090078008e0007000000e00059
:101d900004003a00888f5400050032008904d10005
:101da000f5ff3700091878009fff0700d2ff3700c2
:101db0000000eb004f04be0000000600881f780002
:101dc000630440000800a1008000eb00800f540075
:101dd00021003600e30f540001003e0048002000bf
:101de00008007800c2ff07008000eb000000e00060
:101df0001900320090007800910178006481510050
:101e0000880f510003003100110190000208780092
:101e10000700370008814000020878009101900017
:101e20001301980010017800110914008808780047
:101e3000100178000000eb000200e0000400320016
:101e4000920190000300e000010032000280e800ef
:101e5000b04888008180e800010078004f047800d5
:101e600000000600889fbe00304280000000e000b5
:101e70000100320000000100404280000000e0004c
:101e80000100320000000100408420001004e00046
:101e900022003a00d0488000e148800088002000fd
:101ea000d26026009301200050000700f2352f0079
:101eb000e3c6230000004100818049000804e900d6
:101ec000f7ff3a00a8842000090820008884440015
:101ed000d26026009301200044000700f2352f0055
:101ee000e3c62300000041008180490000acbe0031
:101ef000890f5400f6ff3a00d0488800e148880076
:101f0000504680006146800050428800614288004f
:101f100011c0b3004084200001487800d260260040
:101f200093012000d0488000e14880002f00070086
:101f3000f2352f00e3c623000002410081824900f0
:101f4000d4488800e5488800a0842000100078006c
:101f50007f0160004211dd00e084200002014000aa
:101f60001200be0050428800614288000489be0011
:101f70000100780000f0a1004f04be000000060040
:101f8000889fbe0000047800304280000000e0001e
:101f90000100320000000100408420000048eb00f6
:101fa000404280000000e00001003200000001001b
:101fb0008004eb00d8488800e94888004f04be0040
:101fc00000000600800078000000eb000100e00047
:101fd0000500340001007800abfc0700e10f400071
:101fe00001003a000000eb0000000600020ab90000
:101ff000001bb9000200b8008100420081004300cc
:10200000000006000000fa001d1107008e120700f4
:1020100034110700b711070005130700d610070099
:102020002ee8b7005f13070021312c00b0312c00df
:102030000016070071322c00200020000d1607004a
:10204000e9000700fbff37000200fa0021332c00f3
:102050001000200007160700000f78001e0078000f
:10206000e10f500002003a00d482a80004003700bb
:102070001e007800e20f500001003a00d4a2a80030
:102080000080fa00000006000200fa00000f78004d
:102090001e007800e60f5000090032001e00780094
:1020a000f00f5000060032001e007800f10f5000c3
:1020b000030032001e007800e30f500002003a00d7
:1020c00010002000010037000000eb000080fa0043
:1020d000000006000400fa00f04680000000e00066
:1020e00031003400f04680000000400033ff07005c
:1020f000d0468800e141800070032000808f5000ae
:1021000007003200e0418000fe0f50000400320062
:10211000f04680000000400028ff0700e0468800ed
:102120000000eb00000f78001c003700a1332c00ea
:1021300020002000cf15070010079800d14680002e
:102140001e00780000004000008040009e009000cb
:1021500001087800e141800070032000808f50006a
:102160000d003200e0418000fe0f50000a003200f6
:1021700081342c0020002000be15070010079800b5
:10218000e14680001e007800000040000080400012
:102190009e009000010878001e0fe800f0468000c5
:1021a0009e0f5000e1ff3c00204780000000e0004f
:1021b000230034002047800000004000fffe07009d
:1021c000004788002047800000004000fbfe070019
:1021d000104788000000eb00000f78001500370062
:1021e00041352c0020002000a215070010079800a0
:1021f000014780001e007800000040000080400081
:102200009e0090000108780031362c00200020004c
:102210009815070010079800114780001e007800ed
:1022200000004000008040009e00900001087800ff
:102230001e0fe800204780009e0f5000e8ff3c0082
:10224000404780000000e000150034004047800057
:1022500000004000d9fe0700304788000000eb0076
:10226000000f78000b00370001372c002000200001
:102270008015070010079800314780001e00780085
:1022800000004000008040009e009000010878009f
:102290001e0fe800404780009e0f5000f2ff3c00f8
:1022a0000080fa00000006000200fa0001382c004d
:1022b000100020006f150700000f78001e00780046
:1022c000e20f500008003200e30f50000a00320015
:1022d000e10f500013003a001100200040002000e0
:1022e000031607000f003700110020003000200007
:1022f000ff1507000b0037001100200040002000f0
:10230000fb150700000000000000000000000000b6
:10231000000000001100200030002000f41507002c
:10232000000000000080fa00000006000800fa002b
:1023300020079800310798003e0090000000e00060
:1023400004003a00f1382c00100020004915070065
:10235000300798003e009000e10f500003003a0063
:102360004000200010079800050037003e00900054
:10237000e20f500002003a003000200010079800e1
:102380000000eb00000f7800110037001100200062
:102390001e009000d615070000428000b61007000e
:1023a0008000eb001e009000d11507000142800064
:1023b000401f2000808f500004003c00004280003d
:1023c000411f200000805000ab1007001e0fe800e6
:1023d0002e0090009e007800808f5000ebff3500ab
:1023e0000080fa00000006008400fa0010879800c0
:1023f0000000eb00e31107004200dd0060418800af
:10240000a0002000df1107004200dd00b04088007e
:1024100020002000db11070000428800c0002000df
:10242000d811070010428800204080003140800011
:1024300000007800d2fe07001e8090006101b90004
:10244000b0fe2f00f1ff2f00020040008380480003
:102450000205200003002000820f5000838f5800e7
:10246000da053e0000600100500037005f003700d1
:1024700060003700640037006500370070003700e7
:1024800099003700c6003700c7003700ca00370080
:10249000cb003700cd053700ce003700f9003700fc
:1024a000240137004f0137007e013700ab013700b0
:1024b000d8013700030237002c02370057023700db
:1024c00080023700a0023700a1023700e202370085
:1024d000fc023700230337004c033700bb053700ed
:1024e000740337007503370078033700a4033700ff
:1024f000f6033700b5053700b4053700b3053700dc
:10250000b2053700b10537003404370069043700dd
:10251000a8043700db0437000e05370041053700fb
:1025200074053700a9053700a8053700a70537004f
:10253000a6053700a5053700a4053700a305370019
:10254000a2053700a1053700a00537009f05370019
:102550009e0537009d0537009c0537009b05370019
:102560009a05370099053700980537009705370019
:102570009605370095053700940537009305370019
:102580009205370091053700900537008f05370019
:102590008e0537008d0537008c0537008b05370019
:1025a0008a0537008905370042033700e1392c00de
:1025b00010002000af14070050079800513a2c007b
:1025c00020002000ab14070060079800c13a2c00df
:1025d00010002000a7140700700798007e019000eb
:1025e000ee0090005e009000900507007406070062
:1025f00086053700213b2c00100020009d140700a9
:10260000f041880081053700350807007f05370055
:1026100010002000a0488800313c2c002000200041
:1026200094140700000f98008e08900040062000c8
:102630000088b900000078003607070073053700ee
:10264000013d2c00103d2c007a140700a13d2c0008
:102650001000200087140700100f98001e0890003b
:102660000000e000020032002000200001003700de
:10267000a000200070468800b0002000804688003e
:1026800060062000e0418800413e2c001000200040
:1026900078140700a047880020002000f04688003a
:1026a0008cfe0700513f2c00200020007114070011
:1026b000d047880041402c00200020006d14070006
:1026c000e047880011412c00200020006914070019
:1026d000200f98002e0990004101200040012000a9
:1026e000570c070049053700c1062000810047004c
:1026f00042692c000a000900b21878000000eb00c3
:10270000000f7800080037001e007800000040002d
:10271000000047006030900012002000a10020005f
:10272000630507001e0fe8001e007800ea0f500046
:10273000f5ff36000000eb00000f780011003700b5
:102740001100200040002000e91407000042800032
:10275000c90f07008000eb0040002000e4140700d0
:1027600001428000401f2000808f500004003c0088
:1027700000428000411f200000805000be0f070073
:102780001e0fe8001e007800f30f5000ecff34002d
:10279000808d200011c0b300014878001b05370070
:1027a000c1fe0700190537008000eb00400620003d
:1027b000defe070015053700fa0b0700130537008a
:1027c00011422c00100020002a140700790e070087
:1027d0000e053700f1422c0070432c001514070041
:1027e000a13d2c001000200022140700300f98009b
:1027f0003e0890000000e0000200320020002000af
:1028000001003700300020007046880030062000ac
:10281000e04188001000200020488800413e2c0044
:102820001000200013140700a0478800200020009b
:10283000f04688000000eb004047880025fe0700b6
:10284000513f2c00200020000a140700d0478800c8
:1028500041402c002000200006140700e0478800bb
:1028600011412c002000200002140700400f9800a6
:102870004e0990004101200040012000f00b0700ac
:10288000e2043700013d2c0070432c00e9130700df
:10289000a13d2c0010002000f6130700500f9800f7
:1028a0005e0890000000e0000200320020002000de
:1028b000010037003000200070468800b000200082
:1028c00080468800e0062000e0418800413e2c0060
:1028d00010002000e7130700a04788002000200018
:1028e000f04688000000eb0040478800f9fd070033
:1028f000513f2c0020002000de130700d047880045
:1029000041402c0020002000da130700e047880037
:1029100011412c0020002000d6130700600f980002
:102920006e0990004101200040012000c40b070007
:10293000b6043700c1432c0050442c00bd130700df
:10294000a13d2c0010002000ca130700700f980052
:102950007e0890000000e00002003200200020000d
:1029600001003700a000200070468800b000200061
:102970008046880060062000e0418800413e2c002f
:1029800010002000bb130700a04788004000200073
:10299000f04688000000eb0040478800cdfd0700ae
:1029a000513f2c0020002000b2130700d0478800c0
:1029b00041402c0020002000ae130700e0478800b3
:1029c00011412c0020002000aa13070000179800d6
:1029d0000e1190004101200080022000980b07009a
:1029e0008a04370051452c00a0452c0091130700a4
:1029f000a13d2c00100020009e1307001017980026
:102a00001e1090000000e0000200320020002000b4
:102a1000010037001000200070468800b000200040
:102a200080468800e0012000e041880021462c001b
:102a3000100020008f13070040478800c1462c007b
:102a4000100020008b130700204888000000eb00d6
:102a5000a047880020002000f04688009dfd070068
:102a6000513f2c002000200082130700d04788002f
:102a700041402c00200020007e130700e047880022
:102a800011412c00200020007a1307002017980025
:102a90002e1190004101200040012000680b07002a
:102aa0005a04370061472c0050482c00611307007e
:102ab000a13d2c00100020006e1307003017980075
:102ac0003e1090000000e0000200320020002000d4
:102ad00001003700a000200070468800b0002000f0
:102ae0008046880000032000e0418800100020009c
:102af000204888000000eb00404788000000eb0001
:102b0000a047880060002000f04688006000200098
:102b1000004888006ffd0700513f2c002000200076
:102b200054130700d047880041402c0020002000ab
:102b300050130700e047880011412c0020002000be
:102b40004c130700401798004e11900041012000df
:102b5000c00320003a0b07002c043700e1482c008a
:102b600050442c0033130700a13d2c00100020001e
:102b700040130700501798005e1090000000e0001e
:102b8000020032002000200001003700a0002000d9
:102b900070468800b0002000804688006006200053
:102ba000e0418800413e2c00100020003113070056
:102bb000a047880060002000f046880060002000e8
:102bc000004888000000eb004047880041fd0700f6
:102bd000513f2c002000200026130700d04788001a
:102be00041402c002000200022130700e04788000d
:102bf00011412c00200020001e13070060179800d0
:102c00006e11900041012000c00320000c0b070052
:102c1000fe03370061472c0050482c0005130700c5
:102c2000a13d2c001000200012130700701798001f
:102c30007e1090000000e000020032002000200022
:102c4000010037001000200070468800b00020000e
:102c50008046880000032000e04188000000eb006f
:102c6000404788000000eb00a0478800600020007b
:102c7000f0468800600020000048880015fd07002d
:102c8000513f2c0020002000fa120700d047880096
:102c900041402c0020002000f6120700e047880089
:102ca00011412c0020002000f2120700001f9800a4
:102cb0000e19900041012000c0032000e00a070027
:102cc000d203370061472c0070492c00d91207004d
:102cd000a13d2c0010002000e6120700101f9800f4
:102ce0001e1890000000e0000200320020002000ca
:102cf000010037001000200070468800b00020005e
:102d00008046880000032000e04188000000eb00be
:102d1000404788000000eb00a047880060002000ca
:102d2000f046880010002000204788006000200046
:102d300000488800e7fc0700c0002000d04788005a
:102d400050002000e047880011412c0020002000a6
:102d5000c8120700201f98002e1990004101200082
:102d6000c0032000b60a0700a803370061472c0003
:102d7000804a2c00af120700a13d2c00100020005b
:102d8000bc120700301f98003e1890000000e000c1
:102d90000200320020002000010037001000200057
:102da00070468800b00020008046880000032000a4
:102db000e041880010002000204888000000eb005f
:102dc000404788000000eb00a0478800600020001a
:102dd000f046880020002000204788006000200086
:102de00000488800bbfc0700c0002000d0478800d6
:102df00050002000e047880011412c0020002000f6
:102e00009c120700401f98004e19900041012000bd
:102e1000c00320008a0a07007c03370061472c00aa
:102e2000804a2c0083120700a13d2c0010002000d6
:102e300090120700501f98005e1890000000e000fc
:102e400002003200200020000100370010002000a6
:102e500070468800b00020008046880000032000f3
:102e6000e04188000000eb00404788000000eb00d4
:102e7000a047880060002000f04688002000200065
:102e800020478800600020000048880091fc07006f
:102e9000c0002000d047880050002000e047880094
:102ea00011412c002000200072120700601f9800c2
:102eb0006e19900041012000c0032000600a070045
:102ec00052033700514b2c002000200069120700ec
:102ed000701f9800114c2c00200020006512070084
:102ee00000279800914c2c00200020006112070060
:102ef00010279800114d2c00200020005d120700c3
:102f000020279800fe18900011079800070037004e
:102f10001e219000ae2090001e0090006403070068
:102f20001e0090000000e80010079800fe189000b6
:102f30000e209000808040001e009000808f500086
:102f4000f3ff3c00310337003ffc07002f0337003d
:102f5000614d2c0050482c0036120700a13d2c007a
:102f60001000200043120700302798003e219000f7
:102f7000224888003e2090000000e000020032005d
:102f8000200020000100370010002000704688005b
:102f9000b00020008046880000032000e041880047
:102fa0000000eb00404788000000eb00a0478800cd
:102fb000714e2c00100020002e120700f0468800f1
:102fc00044fc07000000eb0020079800f04680005a
:102fd000e40f500007003200e60f500008003200f6
:102fe000e20f50000b003a0040012000200798003b
:102ff00008003700800220002007980005003700f5
:103000006000200000488800c003200020079800ce
:1030100000000000513f2c00200020001512070086
:10302000d047880041402c002000200011120700ea
:10303000e047880011412c00200020000d120700fd
:10304000402798004e219000410120002e00900062
:10305000fb090700ed023700214f2c0050482c00df
:10306000f4110700f00020007046880000032000e3
:10307000e04188000000eb00404788000000eb00c2
:10308000a047880060002000f04688006000200013
:10309000004888000ffc070080002000d04788000f
:1030a00050002000e0478800e001200050279800f1
:1030b0005e21900041012000c0032000e0090700cc
:1030c000d2023700d14f2c0060502c00d9110700dc
:1030d000a13d2c0010002000e61107006027980099
:1030e0006e2090000000e00002003200200020006e
:1030f000010037003000200070468800b00020003a
:1031000080468800d0052000e04188000000eb00e8
:10311000a047880020002000f04688002000200002
:10312000204788000000eb0040478800e9fb0700cb
:10313000a0002000d0478800f0002000e047880071
:1031400011412c0020002000ca11070070279800b0
:103150007e2190008102200040012000b809070074
:10316000aa023700d14f2c0060502c00b11107008b
:10317000a13d2c0010002000be110700002f980078
:103180000e2890000000e000020032002000200025
:1031900001003700a000200070468800b000200029
:1031a00080468800e0052000e04188000000eb0038
:1031b000a047880020002000f04688001000200072
:1031c000204788000000eb004047880010002000e6
:1031d00020488800bffb0700a0002000d0478800df
:1031e000f0002000e047880011412c002000200062
:1031f000a0110700102f98001e29900081022000c6
:10320000400120008e09070080023700513a2c004f
:103210002000200097110700202f98002e289000f2
:10322000ef0f5000030034002e2890007000500073
:10323000010037002e289000840d07002e289000f2
:10324000ef0f500002003c00e0ff2f0001003700ac
:10325000b0ff2f00bc0d0700401f2000060d070027
:103260002e289000ef0f500002003c00c0ff2f00fe
:103270000100370030ff2f00b30d070000a62e001d
:10328000fd0c07002e289000ef0f500002003c00bc
:10329000d0ff2f000100370070ff2f00aa0d07009c
:1032a000800c2000f40c0700f0002000a60d0700a1
:1032b00056023700dc0b07005402370010002000d4
:1032c000a04888005b04070050023700100020006f
:1032d000a0488800013d2c0000512c00551107002a
:1032e000200020007046880070032000e041880024
:1032f00091512c00100020005e110700204888002a
:10330000a1522c00100020005a110700f04788003d
:10331000413e2c001000200056110700a0478800f5
:1033200020002000f0468800100020004047880060
:1033300068fb0700513f2c00200020004d110700c2
:10334000d047880041402c00200020004911070090
:10335000e047880011412c002000200045110700a3
:10336000302f98003e2990004106200040012000a7
:10337000330907000000eb00a04888002302370053
:1033800010002000a0488800013d2c00a0532c0014
:1033900028110700200020007046880070032000dc
:1033a000e041880091512c001000200031110700ed
:1033b00020488800a1522c00100020002d11070089
:1033c000f0478800413e2c00100020002911070022
:1033d000a04788000000eb00a047880020002000e4
:1033e000f04688001000200040478800513f2c0024
:1033f000200020001f110700d047880041402c000a
:10340000200020001b110700e047880011412c001c
:103410002000200017110700402f980081542c0035
:10342000200020001311070030079800f0468000ac
:103430000000400061fa0700d04688004047800045
:10344000000040005dfa07003047880030478000e8
:103450008000eb0001087800160037003e00900065
:10346000610060000000e00002003a0060002000ff
:103470000100370070002000502f9800d0468000d7
:10348000de28900001087800d04680000080e80027
:103490005e299000020878004e2990004106200025
:1034a00040002000e60807003e0090000000e90010
:1034b000300798003e0090000000e000e7ff3c006d
:1034c0000000eb00a0488800d0013700013d2c002f
:1034d00080552c00d710070020002000704688007f
:1034e00070032000e0418800600020000048880050
:1034f000200020002048880010002000f0478800ad
:103500000000eb00a047880060002000f046880023
:103510001000200040478800f04680000000400076
:1035200026fa0700d046880040478000000040008f
:1035300022fa070030478800304780008000eb0007
:1035400001087800d0468000610020000108780062
:10355000d04680000080e80071002000010878005b
:10356000d04680006400400001012000010878007e
:10357000d04680006600400011012000010878005c
:10358000d04680006800400021012000010878003a
:10359000d04680006a004000310120000108780018
:1035a00020002000d047880080002000e0478800ed
:1035b00011412c0020002000ae100700602f980061
:1035c0006e29900081012000800120009c080700e6
:1035d0000000eb00a04888008c013700f1422c006d
:1035e00050562c00931007002000200070468800e1
:1035f000a0002000e0418800100020002048880042
:103600000000eb00a047880020002000f046880062
:10361000f046800000004000e8f90700d04688002e
:10362000f046800000004000e4f90700e046880012
:10363000d04680002100200001087800d04680009c
:103640000080e8003100200001087800e04680009a
:103650002100200001087800e04680000080e8009a
:1036600031002000010878000000eb00404788008e
:10367000513f2c00200020007e100700d04788001a
:1036800041402c00200020007a100700e04788000d
:1036900011412c002000200076100700702f9800a8
:1036a0007e29900021032000c0002000640807004c
:1036b00056013700a1562c0050562c005d10070013
:1036c000200020007046880040012000e041880072
:1036d000f1562c00100020006610070020488800da
:1036e0000000eb00a047880020002000f046880082
:1036f000f046800000004000b0f90700d046880086
:10370000f046800000004000acf90700e046880069
:10371000d04680002100200001087800d0468000bb
:103720000080e8003100200001087800e0468000b9
:103730002100200001087800e04680000080e800b9
:1037400031002000010878000000eb0040478800ad
:10375000513f2c002000200046100700d047880071
:1037600041402c002000200042100700e047880064
:1037700011412c00200020003e1007000037980067
:10378000d0478000f30f5000050034000042800055
:103790008080d1000042800000804000004288000c
:1037a0000e31900021032000c000200024080700f3
:1037b00016013700c1572c0090582c001d1007002f
:1037c000200320007046880050012000e04188005e
:1037d0000000eb00204888000000eb00a0478800b4
:1037e00020002000f0468800f046800000004000e5
:1037f00072f90700d0468800f046800000004000c3
:103800006ef90700e0468800d046800021002000c5
:1038100001087800d04680000080e80031002000d8
:1038200001087800e04680002100200001087800af
:10383000e04680000080e8003100200001087800a8
:103840000000eb0040478800c0002000d0478800ff
:1038500080012000e04788008002200000488800a6
:1038600011412c00200020000210070010379800a2
:103870001e3190002103200080022000f007070085
:10388000e2003700c1572c0020592c00e90f070037
:10389000200320007046880050012000e04188008d
:1038a0000000eb00204888000000eb00a0478800e3
:1038b00020002000f0468800f04680000000400014
:1038c0003ef90700d0468800f04680000000400026
:1038d0003af90700e0468800d04680002100200029
:1038e00001087800d04680000080e8003100200008
:1038f00001087800e04680002100200001087800df
:10390000e04680000080e8003100200001087800d7
:103910000000eb0040478800c0002000d04788002e
:1039200080012000e04788008002200000488800d5
:1039300011412c0020002000ce0f070020379800f6
:103940002e3190002103200080022000bc070700d8
:10395000ae003700c1572c0090582c00b50f07005f
:10396000200320007046880050012000e0418800bc
:103970000000eb00204888000000eb00a047880012
:1039800020002000f0468800f04680000000400043
:103990000af90700d0468800f04680000000400089
:1039a00006f90700e0468800d0468000210020008c
:1039b00001087800d04680000080e8003100200037
:1039c00001087800e046800021002000010878000e
:1039d000e04680000080e800310020000108780007
:1039e0000000eb0040478800c0002000d04788005e
:1039f00080012000e0478800800220000048880005
:103a000011412c00200020009a0f07003037980049
:103a10003e3190002103200080022000880707002b
:103a20007a003700c1572c0020592c00810f070065
:103a3000300320007046880050012000e0418800db
:103a40000000eb00204888000000eb00a047880041
:103a500020002000f0468800f04680000000400072
:103a6000d6f80700d0468800f046800000004000ed
:103a7000d2f80700e0468800d046800021002000f0
:103a800001087800d04680000080e8003100200066
:103a900001087800e046800021002000010878003d
:103aa000e04680000080e800310020000108780036
:103ab0000000eb004047880040012000d04788000c
:103ac00080022000e04788000003200000488800b2
:103ad00011412c0020002000660f0700403798009d
:103ae0004e319000210320000003200054070700fe
:103af00046003700c1572c00e0592c004d0f07003d
:103b0000400320007046880060012000e0418800ea
:103b10000000eb00204888000000eb00a047880070
:103b200020002000f0468800f046800000004000a1
:103b3000a2f80700d0468800f04680000000400050
:103b40009ef80700e0468800d04680002100200053
:103b500001087800d04680000080e8003100200095
:103b600001087800e046800021002000010878006c
:103b7000e04680000080e800310020000108780065
:103b80000000eb004047880040012000d04788003b
:103b9000114d2c0020002000360f0700e047880060
:103ba000000220000048880011412c002000200065
:103bb000300f070050379800004880005e319000b9
:103bc000210320001e070700100037009e80900090
:103bd0004107980007003700a20020008100200064
:103be0004e009000320007004e0090000000e800f8
:103bf000400798001e809000e40040004e009000b6
:103c0000808f5000f4ff3c0000000000d046800090
:103c100005f80700e046800003f807003047800001
:103c200001f807000080fa00000006000600fa0014
:103c3000000f78001107980022079800bf0c0700ba
:103c4000c80c0700c05a2c00960c07000001eb00be
:103c5000610020001e0078005d0e070012002000a9
:103c6000610020001e009000590e07001e00900009
:103c70000000e900f50a070001003700000000001d
:103c80001e80ea00300b07002e0090000000e000cc
:103c9000faff3a00401f2000770a0700f0002000da
:103ca000290b0700401f2000730a0700f4ff3700ac
:103cb0001400fa0070079800010f9800120f980086
:103cc000401f200010079800803e20002007980029
:103cd000300c2000300798000000eb00000f780047
:103ce000b1003700950c07009e0c0700a05b2c006c
:103cf0006c0c070011c0b3000040eb00a30c0700e0
:103d0000005c2c00670c07001e00e8001200200079
:103d1000710020002e0e07000001eb006100200062
:103d20007e0090002a0e07007e009000ef0f5000ea
:103d3000030034007e009000700050000100370046
:103d40007e009000400798007e009000ef0f50002a
:103d500002003c001000200001003700400020005d
:103d6000500798007e009000ef0f500002003c00ca
:103d7000200020000100370080002000600798002c
:103d8000fe009000300020006d0a07004e009000f9
:103d9000ae0a07005e0090000080ea00ea0a070011
:103da0001e009000340a0700e702a800de00900021
:103db0006e009000010070000080ea00e20a070037
:103dc0007e009000700060004480de0000407800bb
:103dd000614060000080fb00610060004900dd0080
:103de00032178000f1df2f008100610001007000b8
:103df000301788002e019000706626000090b900f0
:103e00008180d1004f90de00008050001a0a070028
:103e10007e009000680060004380de000040780073
:103e2000614060000080fb00610060004900dd002f
:103e300032178000f1df2f00810061000100700067
:103e4000301788002e019000706626000090b9009f
:103e50008180d1004f90de0000805000060a0700ec
:103e60007e009000640060004280de000040780028
:103e7000614060000080fb00610060004900dd00df
:103e800032178000f1df2f00810061000100700017
:103e9000301788002e019000706626000090b9004f
:103ea0008180d1004f90de0000805000f2090700b1
:103eb0007e009000620060000080d1000040780029
:103ec000614060000080fb00610060004900dd008f
:103ed00032178000f1df2f008100610001007000c7
:103ee000301788002e019000706626000090b900ff
:103ef0008180d1004f90de0000805000de09070075
:103f00007e009000004078006140600061406000e9
:103f1000614060000080fb00610060004900dd003e
:103f200032178000f1df2f00810061000100700076
:103f3000301788002e019000706626000090b900ae
:103f40008180d1004f90de00808050003e009000c4
:103f500000805000c80907006e0090000080ea0051
:103f6000790a07003e009000c3090700e722a90074
:103f7000f0002000740a07008000eb0030002000f1
:103f8000ef090700e702a9008e089000803e20009c
:103f90000088b900800078001e009000008050006a
:103fa000b50907001e0fe8001e0890009e0078006b
:103fb000808f50004bff35000080fa0000000600a3
:103fc0000800fa00715c2c0010002000290e070088
:103fd000000f78001e0078000000e00002003a00a8
:103fe000804080000100370090408000300798003a
:103ff0003e019000b04721000090b900c388de0068
:104000004f90de0000805000100798003e009000a6
:10401000b14721000181b9004399de00cf80de0065
:1040200001015100410620000191b9008200780091
:1040300001005000200798009e00900070012000b1
:10404000bf090700ae00900080012000bc090700f6
:104050002003200088090700deff37000600fa0071
:10406000889fbe008140800090408000008050000a
:10407000cf80de0010f607000004be008140800003
:104080009040800000804000cf80de000af60700ec
:104090000001be000800be00a4f5070002002000d9
:1040a00003f8230044f50700020020000340240029
:1040b00057f60700dff5070000007800200798009a
:1040c0002e019000b04721000090b900c388de00a7
:1040d0004f90de00008f50002e009000b14721006d
:1040e0000181b9004399de00cf80de00010151005b
:1040f000410620000191b9008200780001005000c3
:10410000100798009e007800700120008c090700bd
:104110009e00900080012000890907009001200086
:10412000550907002e0090008000eb00c60e070026
:104130009001200050090700caff37000200fa0072
:10414000f0f32f00f01688000000eb00000f78005d
:104150001e00a2001e007800004078006140600050
:104160000080fb00610060004600dd000217800057
:10417000f1fb2f0081006100010070000017880032
:104180000000000000000000000000001e00780099
:1041900000407800614060000080fb00610060002a
:1041a0004800dd0042168000f1ef2f008100610021
:1041b00001007000401688000000000000000000b0
:1041c000000000001e0078000040780061406000a0
:1041d0000080fb00610060004900dd0042168000a5
:1041e000f1df2f008100610001007000401688009f
:1041f0000000000000000000000000001e00780029
:1042000000407800614060000080fb0061006000b9
:104210004700dd0002178000f1f72f0081006100e8
:10422000010070000017880000000000000000007e
:10423000000000001e00780000407800614060002f
:104240000080fb00610060004600dd000217800076
:10425000f1fb2f0081006100010070000017880051
:104260000000000000000000000000001e007800b8
:1042700000407800614060000080fb006100600049
:104280004e00dd0012168000f1ff2b00810061005e
:1042900001007000101688000000000000000000ff
:1042a000000000001e0078000040780061406000bf
:1042b0000080fb00610060004c00dd00a216800061
:1042c000f1ff2e008100610001007000a01688003f
:1042d0000000000000000000000000001e00780048
:1042e00000407800614060000080fb0061006000d9
:1042f0004d00dd00a2168000f1ff2d00810061005d
:1043000001007000a0168800a00f2000da08070046
:104310008fff37000600fa00200798000000eb002e
:104320008048880060418000280e07000000eb00f4
:10433000000f78000000eb0010079800ff0a07004c
:10434000080b0700305d2c00d60a0700803e2000d5
:104350000100200000408800114088000100370063
:1043600000000000814880001e009000808f5000f7
:10437000170036002e0090006101b9000040800057
:1043800011408000800f5100818f59000a003e00cb
:104390001100200040002000d50d07000028ef008c
:1043a0000228ef001e0fe8001e0078001200200017
:1043b000c1002000860c070081488000110798008a
:1043c0001e0090000001eb00b1002000800c0700ef
:1043d000004280006101b90000408000114080006f
:1043e000800f5100818f590003003e008000eb00d8
:1043f00040002000be0d0700414180001003200056
:10440000808f5000d6ff3a001100200040002000ad
:10441000b70d070000428000970807008000eb00fe
:1044200040002000b20d07000080eb0040418800f2
:10443000ccff37000a00fa0020032000e04188008a
:104440000000eb00000f78000000eb0080488800bf
:104450000000eb00904888000000eb001007980077
:104460000000eb00200798000000eb0030079800e8
:10447000e15d2c0020002000fe0c070040079800a2
:10448000f15e2c00105f2c00ea0c0700ce009000bb
:10449000400620000088b90000007800cf80de00d0
:1044a0000040880011408800010037000000000033
:1044b000814880002e009000808f50002a00360036
:1044c000ce009000400620000088b900000078006f
:1044d0006101b9000040800011408000800f510050
:1044e000818f5900190031001e007800e40f500040
:1044f0001600320011002000600120009008070023
:104500001100200040002000790d0700400020002d
:10451000000f78000028ef000228ef008040eb0039
:10452000f0c0b300990a0700c0c4b300520a0700e4
:104530001e0090000000e800100798001e00900088
:104540001200200021002000210c0700804880007c
:104550000001eb00210020001d0c070081488000b5
:10456000210798002d003700914880003e00900000
:10457000808f500029003600ce00900040062000b9
:104580000088b900000078006101b9000040800097
:1045900011408000800f5100818f590019003100b7
:1045a0001e007800e30f50001600320021002000aa
:1045b0006001200062080700110020003000200088
:1045c0004b0d070030002000000f78000028ef009e
:1045d0000228ef008040eb00f0c0b3006b0a070038
:1045e00020c5b300240a07001e0090000000e80068
:1045f000100798001e0090001200200021002000eb
:10460000f30b0700904880000001eb00a1002000a0
:10461000ef0b0700914880003107980000428000ae
:104620006101b9000040800011408000800f5100fe
:10463000818f5900030031008000eb004000200012
:104640002b0d0700104280006101b900004080007e
:1046500011408000800f5100818f5900030031000c
:104660008000eb0030002000210d07004141800058
:1046700010032000808f50000a003a001100200033
:10468000400020001a0d070000428000fa070700d2
:104690008000eb0040002000150d07000080eb00bb
:1046a000404188004141800020032000808f50005d
:1046b0007eff3a0011002000300020000c0d0700a2
:1046c00010428000ec0707008000eb003000200063
:1046d000070d07000080eb004041880074ff3700a1
:1046e0000400fa0060418000380d0700b0408000ef
:1046f000360d0700b15f2c00100020005d0c070094
:10470000000f7800a1602c0030002000590c070039
:10471000100798001e0090002c0d07001e00780066
:10472000e10f500006003a001e0090004280de00bb
:10473000800078000000eb00f30807000800370055
:104740001e007800e20f500005003a001e009000a5
:104750004280de0080007800a0002000ea08070008
:104760000000000000000000000000000000eb005e
:10477000040907004200dd0060418800a00020001d
:10478000000907004200dd00b04088000080fa0008
:10479000000006000800fa001007980021079800a2
:1047a000320798002e009000ef0f500003003400f5
:1047b0002e00900070005000010037002e00900085
:1047c000220807001e009000e10f50000600320092
:1047d0001e009000e20f5000030032001e00900007
:1047e000e60f500009003a002e009000ef0f500035
:1047f00002003c00e0ff2f0001003700b0ff2f0057
:1048000051080700401f2000720d07001e00900095
:10481000e30f500001003200e722a8001e009000c4
:10482000e30f500012003a002e0090000000e0005c
:1048300003003c002e0090004006b000010037004d
:104840002e0090008000780030002000bc07070098
:104850002e009000ef0f500002003c00e0ff2f0000
:1048600001003700b0ff2f0037080700b100370004
:104870002e009000ef0f500002003c00c0ff2f0000
:104880000100370030ff2f002f0807001e009000a6
:10489000e40f500017003200e40f500004003c0009
:1048a0000000e900e10f50001e003e000700370045
:1048b000e60f500015003200e60f500010003500e2
:1048c000e70f500014003200160037002e00900051
:1048d000edf507000000e00003003200900020002a
:1048e000000f78000f003700a0002000000f7800b4
:1048f0000c00370030052000000f78000900370059
:1049000050052000000f780006003700b00020009e
:10491000000f780003003700c0002000000f78006f
:10492000000000002e0090000000e00003003a00ac
:104930002e0090004006b000010037002e009000cd
:10494000800078001e0078007d0707008040eb00a3
:1049500030c0b3008d0907001e009000e40f500026
:104960001a003200e40f500005003c00e10f500037
:104970000a003200e20f50000e003200290037001a
:10498000e60f50001b003200e60f50001500350006
:10499000e70f50001d0032002200370010c3b300a3
:1049a0003509070050478000800cb100090d070051
:1049b0001c00370020c3b3002f0907007047800098
:1049c000800cb100030d07001600370030c3b300a0
:1049d0002909070090478000800cb100fd0c0700fa
:1049e00010003700c0478000800cb100f90c0700b0
:1049f0000c00370050c7b3001f0907006047800054
:104a0000800cb100f30c07000600370050c5b3005e
:104a10001909070080478000800cb100ed0c0700e9
:104a2000000000002e009000ef0f500002003c003c
:104a3000d0ff2f000100370070ff2f00c2070700d2
:104a4000800c2000e30c0700f0002000be070700e8
:104a50008000eb001e007800390707008040eb0063
:104a600030c0b300490907001e009000e40f500059
:104a700024003200e40f500005003c00e10f50001c
:104a800008003200e20f5000120032002900370007
:104a9000e60f50001e003200e70f50001f003200ea
:104aa0002400370040c6b300f308070050478000d9
:104ab00080007800703e2000808f50001a003e0079
:104ac00050478000813e200000805000c10c07004c
:104ad0001800370040c4b300e708070070478000a3
:104ae00080007800703e2000808f500010003e0053
:104af00070478000813e200000805000b50c070008
:104b00000c00370020c5b300db08070009003700a0
:104b100040c6b300d80807000600370040c6b300ff
:104b2000d50807000300370000000000010037002f
:104b30000000000000000000000000000000000075
:104b400000000000e722a9000080fa000000060033
:104b50000400fa00000f78001107980011002000ef
:104b600060012000f606070071488000c0042000a4
:104b7000808f500009003a00110020004000200002
:104b8000db0b070000428000920c07008000eb0066
:104b900040002000d60b07000c0037007148800051
:104ba00020052000808f500008003a0011002000ee
:104bb00030002000ce0b070010428000850c07005b
:104bc0008000eb0030002000c90b07002228ef0016
:104bd0009e00780070002000d9060700c0408000c9
:104be0000000e800c0408800c04080000001eb00e9
:104bf00051002000760a07000080fa00000006003d
:104c00000200fa00000f78002228ef009e007800d2
:104c100040002000ca060700e04080000000e800d5
:104c2000e0408800e0408000120020005100200099
:104c3000670a07000080fa00000006000200fa0080
:104c4000000f7800104180000000e800104188004b
:104c50009e00780060002000b9060700d040800068
:104c60000000e800d0408800d04080000001eb0048
:104c700091002000560a0700a04780000000e000d5
:104c80000200340080382100520c07000080fa0036
:104c9000000006000c00fa00881f7800200798002a
:104ca0003107980042079800530798000000eb0076
:104cb000000f78000000eb00100798000000eb00e8
:104cc00070488800e0418000fe0f50000400320070
:104cd00071032000810f500053003200d2003700d2
:104ce0000028ef000228ef00020037004048800053
:104cf000704888005e0090006101b90000408000ab
:104d000011408000800f5100818f59000300360050
:104d1000704880000000e000f4ff32002040800076
:104d20003140800040408800514088007048800039
:104d30000000e00031003a002e009000d2f407009d
:104d40000000e0000b003a0011002000500020009d
:104d50007b060700f04080000000e800f04088007b
:104d6000f04080001200200091002000180a070087
:104d70002001370010002000b0ff070039f40700c1
:104d8000f141800001017800110009000200d80003
:104d90008000fd000000e00005003a00204880008f
:104da00061006000004078000004e00004003a0068
:104db0004141800010032000808f50000c013a0018
:104dc00011002000600120005d0607001100200096
:104dd00040002000460b070011002000800020004a
:104de0005706070000428000fa0b07008000eb0026
:104df000400020003e0b0700fe0037002e00900010
:104e0000a1f407000000e00003003a0010002000b9
:104e10007bff0700f7003700110020001000200082
:104e20004bff0700f30037000028ef000228ef00d7
:104e3000400037005e009000cf00de0000804000a0
:104e40000080d1006101b900004080001140800065
:104e5000800f5100818f590034003a001e009000ed
:104e60000000e00031003a00100020001007980018
:104e7000fcf30700f14180000101780011000900f6
:104e80000200d8008000fd000000e00005003a00ac
:104e90002048800061006000004078000004e000cd
:104ea00004003a004141800010032000808f500030
:104eb0001e003a00110020006001200020060700bb
:104ec000ce009000800020001d0607002e009000fc
:104ed0006df407000000e00009003200110020001e
:104ee00040002000020b070000428000e20507009e
:104ef0008000eb0040002000fd0a0700080037009a
:104f00001100200030002000f90a07001042800044
:104f1000d90507008000eb0030002000f40a0700ec
:104f20000080eb00404188000c00370040488000c2
:104f3000704888005e0090006101b9000040800068
:104f400011408000800f5100818f5900030036000e
:104f5000704880000000e000b6ff32002040800072
:104f60003140800040408800514088002e00900071
:104f700045f407000000e0000200320010002000ad
:104f80000100370020002000400798007048800092
:104f90000000e00006003a004e00900027ff0700e6
:104fa000a04780000000a000a047880091003700c3
:104fb0002e00900034f407000000e00004003200ee
:104fc0007148800020052000808f500008003200ca
:104fd00071488000c0042000808f50000a003a0011
:104fe0002e00900028f407000000e00006003a00c0
:104ff0004e00900002ff0700a04780000000a000c4
:10500000a04788007b003700110020004e00900070
:10501000cffe0700a1478000e00f20000080600065
:10502000a0478800730037000028ef000228ef0037
:10503000330037005e009000cf00de0000804000ab
:105040000080d1006101b900004080001140800063
:10505000800f5100818f590027003a001e009000f8
:105060000000e00024003a00100020001007980023
:105070007cf30700f1418000010178001100090074
:105080000200d8008000fd000000e00005003a00aa
:105090002048800061006000004078000004e000cb
:1050a00004003a004141800010032000808f50002e
:1050b00011003a001100200060012000a005070047
:1050c000ce009000800020009d0507001100200008
:1050d00040002000860a07000042800066050700a5
:1050e0008000eb0040002000810a07000080eb00f8
:1050f000404188000c00370040488000704888001c
:105100005e0090006101b900004080001140800005
:10511000800f5100818f59000300360070488000d5
:105120000000e000c3ff32002040800031408000da
:105130004040880051408800704880000000e00036
:1051400019003a002e009000cff307000004780009
:105150003e009000ccf30700800f54000d003a0091
:10516000ce0090005000200075050700f040800040
:105170000000e800f0408800f040800012002000ad
:10518000910020001209070050002000000f780055
:10519000180037004e009000a8fe070060002000b5
:1051a000000f7800130037002e009000b6f30700c0
:1051b000000478003e009000b3f30700800f540015
:1051c00005003a004e0090008dfe070040002000d0
:1051d000000f780007003700110020004e009000fb
:1051e0005bfe070070002000000f78000100370010
:1051f000000000001e0078004f0478000080fa00d4
:10520000000006000800fa00100798002107980027
:10521000320798001e019000ae0090006000200050
:105220005cfd07008040eb0030c0b300570707006b
:1052300040c4b300100707003e0090000000e000eb
:1052400003003a0080bb2000e20a07002e0037006e
:10525000803e2000df0a0700000f78003e0090002b
:10526000ef0f5000030034003e009000700050002b
:10527000010037003e009000740507003e009000da
:10528000ef0f500002003c00e0ff2f00010037004c
:10529000b0ff2f00ac050700401f2000cd0a07001b
:1052a0001e0f70001e0078000000e0000a003a00a7
:1052b0001e019000be0090007000200035fd070028
:1052c000431f200032002000be0090002e009000fe
:1052d00070fe07000c003700f00020009a05070060
:1052e0003100200040052000150507008040eb003c
:1052f00030c0b3002507070010c4b300de06070066
:10530000c05d2000b30a07000080fa00000006001c
:105310000600fa00100798002107980091478000c6
:10532000700c2000808f5000400034000000eb0023
:10533000000f7800d0478000e10f500013003400c8
:10534000d04780008000e900803e20000088b9003e
:10535000000078009f0a07001e0f7000d0478000f1
:1053600080007800803e20000088b900800078002e
:1053700000832f0000804000960a07001e0f700077
:10538000401f2000930a07001e0f70003047800066
:10539000100078001e01900080007800300020008e
:1053a000fcfc0700401f20008a0a07001e0f700047
:1053b0008040eb0030c0b300f406070020488000b6
:1053c000e10f50000f003c001e0078000000e000dc
:1053d0000c003200f00020005b050700ae009000da
:1053e00040052000d604070010c4b300a206070041
:1053f000004180000000e800004188000000eb0050
:105400000b00370020c5b3009b0607003047800023
:10541000100078001e0190008000780040002000fd
:10542000dcfc070010002000010037000000eb004a
:105430000080fa00000006001000fa003007980013
:105440004107980052079800630798007407980076
:10545000204080003140800040408800514088005a
:10546000e0478000cf80de00823e20000289b90044
:10547000020178006002b900840178000301410054
:10548000833e20000300b800010141008200780043
:1054900022408000334080000000410081804900ac
:1054a000803eb0000180b0006040880071408800fc
:1054b000fe009000a0032000a10407007e009000e1
:1054c00000f0a7000000ea000000ea004f00de0044
:1054d0008000780010042000990407008040eb0051
:1054e00030c0b300a906070090c4b30062060700ed
:1054f000e0478000e30f500010003600e0478000d6
:10550000640f50000400370000a62e00310a070087
:1055100041fc2f001e8f4000c00320009e00780039
:10552000808f5000f8ff3e009e007800803e2000f3
:105530000088b90000007800260a0700c0da2000c1
:10554000240a07008000eb00b00320007c04070061
:105550007e019000be009000100020008dfc07002e
:10556000e0418000fe0f500029003200710320004e
:10557000810f500028003200d04780000000e0007a
:105580001e003400204780000000e00012003200be
:10559000409c20000f0a07006e019000de00900082
:1055a0007e00900017ff0700d0478000e70f5000f3
:1055b00010003600d047800080007800803e200038
:1055c0000088b90080007800000c2e0000804000a8
:1055d000000a070007003700d047800080007800ed
:1055e000803e20000088b90000007800803eb100b5
:1055f000f8090700401f2000f60907007e0190000f
:10560000ce0090002000200062fc0700030037005d
:105610000000000001003700000000000000eb0067
:1056200010079800404780000000e00003003200af
:10563000e10f500013003200260037008040eb00dd
:1056400030c0b3005106070020c5b3000a060700aa
:10565000204880000000e00002003200007d2000b1
:1056600001003700803e20008001780012002000f9
:10567000ce0090003e00900086fd070010079800c5
:10568000140037003e0090007ff207000000e000a9
:10569000020032001000200001003700200020002e
:1056a000800078007e00900019ff07000000e000f5
:1056b0000700320003fa200022002000ce009000f4
:1056c0003e00900073fd07001007980001003700ae
:1056d00000000000c1408000f04080008080400059
:1056e000d040800080804000e0408000808040000a
:1056f0000041800000804000200798001200200038
:10570000d10020002e009000b1070700c1408000aa
:10571000f0408000008040000000e00012003400f3
:10572000c1408000f04080008080400040062000a2
:105730000088b900800078002e00900000017800f9
:10574000110009008200d80020418800204180001b
:1057500031062000810f5000010034003006200087
:1057600020418800010037002428ef0020418000fc
:10577000e90f500002003400d00020000100370083
:10578000e0002000234180000001eb008000780051
:10579000030078008e0707006a0b07000080fa00fc
:1057a000000006000400fa0000428000070907001c
:1057b0001042800005090700a1612c0010002000a4
:1057c0002c080700000f7800a1622c003000200098
:1057d00028080700100798001e009000fb0807002b
:1057e0001e007800e10f500004003a009e00900077
:1057f00020002000c4040700060037001e007800c7
:10580000e20f500003003a009e009000c00020000c
:10581000bd04070020002000da04070000428800d1
:10582000c0002000d7040700104288008000eb0071
:10583000d0032000c20307000080fa000000060029
:105840002000fa00500f9800610f9800720f980026
:105850000000eb00000f78003228ef008146800046
:1058600061079800004880000000400053f10700e5
:1058700070079800e041800080007800300320002d
:10588000af0307003402370011002000d0032000ce
:10589000ab03070091632c00a0642c00e507070010
:1058a00090418000120020001100200048070700ee
:1058b0002028ef0000418000f0408800f040800088
:1058c000e0408800e0408000d0408800d040800068
:1058d000c04088000000eb00300798000000eb009b
:1058e000400798000000eb00000f7800fd01370032
:1058f00000488000800078007e009000f3080700d8
:105900000000eb0050079800ee0137005e009000a9
:1059100000004000fe009000008040001000780071
:10592000000f9800e04180006101b80060ff2f0087
:10593000f1ff2f0002004000838048004206200053
:1059400003002000820f5000838f58006e013e003c
:1059500000600100bd0037006b0137006a013700ad
:1059600069013700680137006701370066013700b9
:105970006501370064013700630137005a003700c2
:1059800074003700730037005f0137005e01370095
:105990005d0137005c0137005b0137005a013700b9
:1059a00059013700c400370057013700560137004e
:1059b00055013700540137005301370052013700b9
:1059c00051013700500137004f0137004e013700b9
:1059d0004d0137004c0137004b0137004a013700b9
:1059e00049013700480137004701370046013700b9
:1059f00045013700440137004301370042013700b9
:105a00004101370040013700ab0037003e0137004d
:105a10003d0137003c0137003b0137003a013700b8
:105a200039013700380137003701370036013700b8
:105a300035013700340137003301370032013700b8
:105a400031013700300137002f0137002e013700b8
:105a50002d0137002c0137002b0137002a013700b8
:105a600029013700280137002701370026013700b8
:105a700025013700240137002301370022013700b8
:105a800021013700200137001f0137001e013700b8
:105a90001d0137001c0137001b0137001a013700b8
:105aa000fd003700e200370017013700160137000c
:105ab0001501370014013700c30037001201370009
:105ac00011013700100137000f0137000e013700b8
:105ad0000d0137000c0137000b0137000a013700b8
:105ae000090137009d0037000e0890000000e0001b
:105af000030032000e089000e20f500003003a004d
:105b0000d04680001000780003003700d0468000a7
:105b10000080e80010007800100798000e08900040
:105b2000e10f5000030032000e089000e20f500019
:105b300003003a00e04680001000780003003700c0
:105b4000e04680000080e800100078002007980000
:105b5000ed0037000e089000610060000040780002
:105b60000004e00003003200d046800010007800fe
:105b700003003700d04680000080e8001000780065
:105b8000100798000e089000620060000000e0001e
:105b900003003200d0468000100078000300370078
:105ba000d04680000080e8001000780020079800b0
:105bb000e0418000f60f5000d2003a00e04780003c
:105bc000cf80de00823e20000289b9000201780009
:105bd0006002b9008401780003014100833e200087
:105be0000300b800010141008200780022408000db
:105bf000334080000000410081804900803eb000b9
:105c00000180b00060408800714088005000200092
:105c1000100f980080002000200f9800c000200086
:105c2000300f980040012000400f98000e089000af
:105c30006c0060004280de00000040000000470071
:105c400010089000d0478800af0037000e08900081
:105c50000000e000030032000e089000e20f500048
:105c600003003a00d046800010007800030037009f
:105c7000d04680000080e8001000780010079800ef
:105c80000e0890000000e000030032000e089000b3
:105c9000e20f500004003a00e04680000080e80077
:105ca0001000780002003700e04680001000780005
:105cb00020079800940037000000eb0020079800b0
:105cc000a047800063006000e30f500003003a002b
:105cd00080418000e90f50001c003400f046800035
:105ce000e20f50000e003a000e0890000000e000a5
:105cf000030032000e089000e20f500003003a004b
:105d0000d04680001000780003003700d0468000a5
:105d10000080e800100078001007980009003700a4
:105d2000f0468000e40f500006003400d1468000a9
:105d30000e08900000004000008040001001780034
:105d4000120798003028ef006f0037008041800074
:105d50000000e800804188006b0037000e089000ca
:105d60000000e000030032000e089000e20f500037
:105d700003003a00d046800010007800030037008e
:105d8000d04680000080e8001000780010079800de
:105d90000e089000e10f5000030032000e08900042
:105da000e20f500003003a00e04680001000780047
:105db00003003700e04680000080e8001000780013
:105dc00020079800500037000e0890000000e00007
:105dd000030032000e089000e20f500003003a006a
:105de000d04680001000780003003700d0468000c5
:105df0000080e8001000780010079800d04680006e
:105e0000900078001e009000808f500004003a003f
:105e1000e04680000080e8001000780002003700b3
:105e2000e046800010007800200798003600370018
:105e30000e0890000000e000030032000e08900001
:105e4000e20f500003003a00d046800010007800b6
:105e500003003700d04680000080e8001000780082
:105e600010079800d0468000900078001e00900037
:105e7000808f500004003a00e04680000080e80077
:105e80001000780002003700e04680001000780023
:105e9000200798001c0037000e0890000000e0006a
:105ea000030032000e089000e20f500003003a0099
:105eb000d04680001000780003003700d0468000f4
:105ec0000080e80010007800100798000e0890008d
:105ed000e10f5000030032000e089000e20f500066
:105ee00003003a00e046800010007800030037000d
:105ef000e04680000080e80010007800200798004d
:105f000001003700000000008040eb000040eb0083
:105f10001e040700a12f2c001e00900000804000ee
:105f200010407800d4030700a12f2c002e00900011
:105f30000080400010407800cf0307002047800019
:105f4000e10f500003003200e20f50000800320061
:105f50001700370000478000900078003107980054
:105f600010478000100178004207980010003700a9
:105f7000bcef070061006000004078000004e00012
:105f80000300320000478000100078000300370053
:105f9000004780000080e80010007800300798007b
:105fa0001047800090007800410798000000000032
:105fb00070468000e30f500036003200e30f5000bf
:105fc00005003c00e10f500010003200e20f5000cd
:105fd0000b0032003000370031032000810f5000e9
:105fe0001b00320041032000810f500020003200ce
:105ff00021032000810f50000d00320026003700e1
:106000000000eb0080468800230037001e00780067
:10601000610060000000e000020032006e009000ad
:10602000010037000000eb00804688001a003700ae
:106030000e0890004280de008000400080662c0048
:106040000080400010007800804688001200370071
:106050000e0890004280de0080004000c0672c00e7
:106060000080400010007800804688000a00370059
:106070000e089000ef0f500003003400a002200033
:1060800080468800040037000000eb00804688004e
:106090000100370000000000804680000002780008
:1060a000ce0190003e019000ae0090001e009000d6
:1060b000e1fc07001e0fe8005e0090000000e80011
:1060c00050079800014880005e009000808f5000cb
:1060d00004003400114180006e089000808f500051
:1060e0000afe35005e0890009e007800808f500008
:1060f00004003d00114180006e089000808f500028
:10610000fbfd35008000eb00d00320008c01070070
:10611000a04880000000e0000f003a00204180000d
:106120008000eb00c8060700d14080004006200038
:106130000088b90080007800d2408000c040800014
:106140000000410000017800110009008200d80021
:1061500011002000bc060700114180006e0890006d
:10616000808f50000a003d009141800010c0b300b4
:106170007e099000828f5000010035000040eb0046
:106180008100e800914188000004e000befd3a0073
:106190008000eb00e0032000690107000080eb00b5
:1061a000404188007e0090009fee07000080fa00ca
:1061b000000006000400fa001007980020002000ec
:1061c000804688001e009000e10f50000b00320056
:1061d0000000eb00000f78001e00a2001e007800f7
:1061e00080407800808d200001487800b1652c0047
:1061f000100020009f050700f7ff3700808d20006a
:1062000011c0b300014878005000200029010700a8
:10621000808d20008040eb00014878005000200075
:1062200024010700f5ff37000600fa00c3e2a800ca
:10623000000000000000000000000000d4a2a80040
:10624000000000000000000000000000d4e2a900ef
:106250002003200008010700c3e2a900000000009d
:106260000000000000000000d4a2a900000000000f
:106270000000000000000000d4c2a80000000000e0
:1062800000000000000000009040800020079800ff
:106290002e019000b04721000090b900c388de00b5
:1062a0004f90de00008f50002e009000b14721007b
:1062b0000181b9004399de00cf80de000101510069
:1062c000410620000191b9008200780001005000d1
:1062d000100798009e007800700120001801070048
:1062e0009e0090008001200015010700401f200043
:1062f000e1000700d4c2a900000000000000000077
:1063000000000000d4e2a800904080002007980020
:106310002e019000b04721000090b900c388de0034
:106320004f90de00008f50002e009000b1472100fa
:106330000181b9004399de00cf80de0001015100e8
:10634000410620000191b900820078000100500050
:10635000100798009e00780070012000f8000700e8
