:020000040000fa
:080000000007040000000000ed
:020000040000fa
:0400080044090000a7
:020000040000fa
:04000c0044090000a3
:020000040000fa
:04001000440900009f
:020000040000fa
:04001400440900009b
:020000040000fa
:040018004409000097
:020000040000fa
:04001c004409000093
:020000040000fa
:04002000440900008f
:020000040000fa
:04002400440900008b
:020000040000fa
:040028004409000087
:020000040000fa
:04002c004409000083
:020000040000fa
:04003000440900007f
:020000040000fa
:04003400c8070000f9
:020000040000fa
:040038004409000077
:020000040000fa
:04003c004409000073
:020000040000fa
:04004000440900006f
:020000040000fa
:04004400440900006b
:020000040000fa
:040048004409000067
:020000040000fa
:04004c004409000063
:020000040000fa
:04005000440900005f
:020000040000fa
:04005400f2080000ae
:020000040000fa
:040058004409000057
:020000040000fa
:04005c004409000053
:020000040000fa
:04006000440900004f
:020000040000fa
:04006400440900004b
:020000040000fa
:040068004409000047
:020000040000fa
:04006c004409000043
:020000040000fa
:04007000440900003f
:020000040000fa
:04007400440900003b
:020000040000fa
:040078004409000037
:020000040000fa
:04007c004409000033
:020000040000fa
:04008000440900002f
:020000040000fa
:04008400440900002b
:020000040000fa
:040088000609000065
:020000040000fa
:04008c004409000023
:020000040000fa
:04009000440900001f
:020000040000fa
:04009400440900001b
:020000040000fa
:040098004409000017
:020000040000fa
:04009c004409000013
:020000040000fa
:0400a000440900000f
:020000040000fa
:0400a400440900000b
:020000040000fa
:0400a8004409000007
:020000040000fa
:0400ac004409000003
:020000040000fa
:0400b00044090000ff
:020000040000fa
:0400b40044090000fb
:020000040000fa
:0400b80044090000f7
:020000040000fa
:0400bc0044090000f3
:020000040000fa
:0400c00044090000ef
:020000040000fa
:0400c40044090000eb
:020000040000fa
:0400c80044090000e7
:020000040000fa
:0400cc0044090000e3
:020000040000fa
:0400d00044090000df
:020000040000fa
:0400d40044090000db
:020000040000fa
:0400d80044090000d7
:020000040000fa
:0401080044090000a6
:020000040000fa
:04010c0044090000a2
:020000040000fa
:04011000440900009e
:020000040000fa
:04011400440900009a
:020000040000fa
:040118004409000096
:020000040000fa
:04011c004409000092
:020000040000fa
:04012000440900008e
:020000040000fa
:04012400440900008a
:020000040000fa
:040128004409000086
:020000040000fa
:04012c004409000082
:020000040000fa
:04013000440900007e
:020000040000fa
:04013400440900007a
:020000040000fa
:040138004409000076
:020000040000fa
:04013c004409000072
:020000040000fa
:04014000440900006e
:020000040000fa
:04014400440900006a
:020000040000fa
:040148004409000066
:020000040000fa
:04014c004409000062
:020000040000fa
:04015000440900005e
:020000040000fa
:04015400440900005a
:020000040000fa
:040158004409000056
:020000040000fa
:04015c004409000052
:020000040000fa
:04016000440900004e
:020000040000fa
:04016400440900004a
:020000040000fa
:040168004409000046
:020000040000fa
:04016c004409000042
:020000040000fa
:04017000440900003e
:020000040000fa
:04017400440900003a
:020000040000fa
:040178004409000036
:020000040000fa
:04017c004409000032
:020000040000fa
:04018000440900002e
:020000040000fa
:04018400440900002a
:020000040000fa
:040188004409000026
:020000040000fa
:04018c004409000022
:020000040000fa
:04019000440900001e
:020000040000fa
:04019400440900001a
:020000040000fa
:040198004409000016
:020000040000fa
:04019c004409000012
:020000040000fa
:0401a000440900000e
:020000040000fa
:0401a400440900000a
:020000040000fa
:0401a8004409000006
:020000040000fa
:0401ac004409000002
:020000040000fa
:0401b00044090000fe
:020000040000fa
:0401b40044090000fa
:020000040000fa
:0401b80044090000f6
:020000040000fa
:0401bc0044090000f2
:020000040000fa
:0401c00044090000ee
:020000040000fa
:0401c40044090000ea
:020000040000fa
:0401c80044090000e6
:020000040000fa
:0401cc0044090000e2
:020000040000fa
:0401d00044090000de
:020000040000fa
:0401d40044090000da
:020000040000fa
:0401d80044090000d6
:020000040000fa
:100e0000efb120000e7f22000e01880000000000dc
:100e1000000020000000e00002003200000120007d
:100e20002002880014000700a00107000000e00075
:100e300003003a0020b8240001002000020037001f
:100e40000000200001002000810f7000010032002e
:100e500014000700000020000000e0000200320043
:100e60000000020000000000061002000000000068
:100e70000040da000000fe004440a900803120005c
:100e80000000e0000300320000002000a001880004
:100e90004440a800000006008a1f78008b1f7800dd
:100ea0000000060091018800800478000000eb003b
:100eb0001a003700e284440032a0b4009905ba0059
:100ec000e284440032a0b4009906ba00e2844400ef
:100ed00032a0b4000006eb00476fde00fd07b20051
:100ee000636ce10003003a00ebff07000000eb0039
:100ef0000a003700606ce10004003a00005deb007e
:100f00008b05e900fdff3e00040037006168e10049
:100f1000010032000086eb000b00070019c7ba0081
:100f20001905ba000e04e00003003a000a00e000d0
:100f3000e0ff3a0000000600fe07b2009e018800b4
:100f40008a047800f5ff3700395dba008b05e900a7
:100f50000c003200295dba008b05e9000800320060
:100f60000c00e00003003a00e284440032a0b40028
:100f7000f5ff370019ddba008b05e900faff3a00ea
:100f80008904e800e184440032a0b40000000600b7
:100f90003600f800809fbe00829fbe00849fbe0086
:100fa000869fbe00889fbe000400fa00500020000b
:100fb00028170700904680000000e0000200320081
:100fc000db22a80001003700db22a900614080007d
:100fd0007040800000805000cf80de0038020700a3
:100fe0000004be006140800070408000008040002e
:100ff000cf80de00320207000001be000800be0004
:10100000cc0107000200200003f823006c01070058
:1010100002002000034024007f02070007020700af
:1010200000007800100798009e009000704180003a
:10103000808f50000a003c009e009000a04080007d
:10104000808f5000060035000000eb00104888003b
:101050000000eb0020488800e702a90039003700b3
:10106000104880000000e00007003a0020408000a7
:10107000314080003048880041488800200020002e
:10108000104888002f00370010488000e20f500001
:101090002c003a0030488000414880006a0140003e
:1010a000e08148002040800031408000800f5100e6
:1010b000818f590023003100e702a80020c0b3004f
:1010c000004f78009e00900070418000808f50009b
:1010d00008003400604880000000e8006048880094
:1010e000c0c4b300004f7800c0042000204888002e
:1010f00007003700704880000000e8007048880052
:10110000200520002048880020c5b300004f78004b
:101110008000200010488800804080000000e0002f
:10112000030032001e00fb009040880005003700dd
:101130001e00fb00800078000000eb004c17070049
:101140001228ef002040800031408000421f200024
:101150000300200064020700e00f5000e08f5800f9
:1011600017003a00804080000000e00014003a00c0
:10117000804880000000e000030032001e00900064
:101180008000eb006a1c07009e0090007041800008
:10119000808f5000030034001100200070042000f4
:1011a000331707009e009000a0408000808f500001
:1011b00003003d0021002000700420002c170700d0
:1011c0008460a9000080fa004f04be004f03be00f7
:1011d0004f02be004f01be004f00be003600f900b6
:1011e00000400600801f78000000fa000014800014
:1011f0007040880010148000604088008560a9005d
:101200000080fa004f007800004006003600f80029
:10121000809fbe00829fbe00849fbe00869fbe004e
:101220000000fa00c0108000620060000000e000d2
:10123000010032001822a900e010800060418800ff
:1012400061418000a0022000808f500006003a001b
:101250008000eb00d00320000517070020032000ca
:10126000d11607000000fe008700a9000080fa00e8
:101270004f03be004f02be004f01be004f00be0034
:101280003600f900004006000040da000000fe00d1
:10129000889fbe0080047800e04880000000e000e5
:1012a00004003a000e0007000084eb000000e0009c
:1012b00008003500e84880000900e0000500320021
:1012c00009004400060007000000e00001003d00a6
:1012d0000084eb00080078004f04be000000060008
:1012e000800078000100e00003003a00e091200057
:1012f000e0488800000005000080eb00e2b120001b
:10130000828f500002003e00e14888000000eb00a0
:10131000000006000602ab00feff3a000642ab00ea
:10132000fcff3a000662ab00faff3a000682ab000f
:10133000f8ff3a0009c2ab00f6ff3a0000000600d1
:101340000662a8000662ab00feff3a0008c2a900d0
:1013500000108000000006008040780000c0eb0014
:101360008180fb001110880008e2ab0007003a0002
:1013700009c2ab00feff3a00e6ff07000040eb00a9
:101380000802e20001003d00e0cfb30000000600cb
:101390002110880030108800000006000602a80016
:1013a000000006000642a800000006008460a900b4
:1013b000e7006000f2ff2800cc08dd00a3048000f5
:1013c00003016100680060000281700071ff2f005e
:1013d000a2048800620480008280600081007000a6
:1013e0006104880000000600001020001802b6000a
:1013f0000000e9004f00de000000060017e2a9002f
:101400008f00a9008f20a9008700a9008720a900cc
:10141000000006008700a900e70060008720a900ff
:101420000001780083ff2f000207b200040580004e
:101430008481610083817000e800600003058800fa
:10144000c308de00f3f82f00e1806000040580008f
:1014500084816100c808dd00830171000008b200ca
:1014600003058800f2ef2f004700de0073048000c0
:101470000301610061006000028170004900dd002d
:1014800072048800f1df2f00740480008480600003
:10149000810070007104880000000600f2108800ce
:1014a000b0108800c1108800000006000000050090
:1014b0003200f800910188000008bb0041042400bc
:1014c0006210e10004003200000220000010e10080
:1014d0000a003a0051042400013b88000500fc008a
:1014e00051052000313b8800a10a2000313b8800d3
:1014f00061e7a80000000000000000003200f900d1
:10150000000006003200f80060042400003b880060
:10151000f2ff37003200f8009101880041002400fa
:10152000013b88000208bb00ecff37003200f800e6
:101530009101880051002400013b88000301200034
:101540003218bb008301e900fdff3a00e3ff3700da
:101550003200f800910188008002780062004000ab
:101560003549ba00e08048003204e0000410a700ca
:10157000100032008301e9000e0032002549ba0054
:101580003204e0000410a7000a0032008301e900e1
:10159000080032000408a300eeff320015c9ba00ab
:1015a0003204e0000410a700020032008301e900c9
:1015b000e8ff3a003200f9000000060003f0a20044
:1015c000889fbe008a9fbe008c1f7800fa0007002b
:1015d000010133006450e1004f0032006420e1005b
:1015e0005200320003826c0007003b000905d00066
:1015f0000306d000820f54000c065d000200390083
:1016000002003200890178000306780085825500c7
:1016100004003d000003fd008103fd008502ea0097
:101620008b854200840f720002003b0060001000b6
:10163000e08018006011b8000005eb007a28e10096
:101640000a00390006007800c75ddd00f707b20028
:10165000878075002d003700828171000a017800b3
:10166000610560008180d1000080d3008502e9001f
:10167000f9ff3b00060440008784480002003b005d
:1016800060041400e0841c000988a30007003200f5
:101690008a81710082817100610164008904d10036
:1016a0000884d3008b05e800170037000978a300f1
:1016b00013003a000b00e000130034008b05e90032
:1016c0000804440089844c000a4474000978a3008b
:1016d0000d003a000b00e000070034008b05e90024
:1016e0000804440089844c0001003a000b002000eb
:1016f0000978a300f7ff32000001eb000200370079
:10170000828171000a017800700007000cf0a700c8
:1017100001f0a000b90037006420e10002003a00a7
:10172000838f6c00b90033000801be000200be00c8
:10173000b2003700889fbe008a9fbe008c1f7800d1
:101740009d000700a400330003866c006450e10094
:101750002e0032006420e100330032006150e100cd
:101760002f0032006120e1003100320085855500f4
:10177000eb07b00009002000080420000500370036
:101780000804440089844c000a0031000603430029
:1017900087834b000001530081815b00f8ff330019
:1017a0000203be000800a0000804440089844c0025
:1017b000f6ff3900c639dd008301730001003200f5
:1017c000130020008904d1000884d3000998a300e5
:1017d000050032000800a7000300a0008904d10022
:1017e0000884d3008b05e8008904d1000884d30065
:1017f0000001eb000281d2003400070001f0a100db
:101800000cf0a70001f0a0007c0037006420e1008c
:101810007e0032000801be000200be00f7ff370064
:101820006120e100790032006000b800f3ff37006a
:101830000000200001f82700f0ff37000001be0083
:10184000480007000470a70003f0a1006509b1007b
:10185000160032000d0035006828e1000600350052
:10186000f0ff2f00f1ff27000300e00013003b0012
:1018700001002800000005000000400081804800b1
:101880008502e900fcff3a0008003700f88f4200ab
:1018900002003c008000eb00000005008100d10048
:1018a0000080d3008502e800fcff3a000300e0005e
:1018b00002003b0060001000e080180000000600fd
:1018c0004f89de00820178008a0037008100200005
:1018d000618055000b003d000b00200061fe2f00d1
:1018e0000100e1001d00340082817100610164008b
:1018f0008904d1000884d3000000e800faff3a0010
:1019000071002000610064000300700002006000ac
:101910000900320061044400e0844c000988a500fd
:10192000050032008b05e8006808e10002003a007b
:101930008904d1000884d300f20f20000258e1008e
:1019400005003d00c75ddd00f907b2008980750024
:1019500008007800000006000bf827008b007800d4
:1019600000000500c70ade00f107b200f50fb20063
:1019700008003200e1cf4200020032000170a000f6
:1019800024000500810f70000100320004080500ea
:1019900044000500810f700002003a0014000500a9
:1019a0008502e9000000400081c04800fcff3b00c8
:1019b0000170a000240005000004be00e9ff07003c
:1019c0000003be000405be000200be00e5ff0700e4
:1019d000844f7500000006000200be006450e10064
:1019e000050036006420e100020036000968a3000b
:1019f00001003a000800be000160a0004f06780018
:101a00004f05be004f04be0000000600f0ff2f008f
:101a1000f1ff2700f9ff3700889fbe008a9fbe00b4
:101a20008c1f7800e4ff0700ebff330003866c0097
:101a30006450e100240032006420e10027003200fd
:101a40006150e100220032006120e10021003200fb
:101a50008b854200eb07b1000134b800003ab800b2
:101a60000804420089844a00013ab8000030b800f6
:101a70008880400009014a00040033000000400053
:101a800081804800020149008b05e900c909dd0099
:101a9000830170000100320013002000c814de0032
:101aa0004814dd004709de001200b200c808de005d
:101ab0000884700085ff070001f0a1000cf0a7006a
:101ac00001f0a000cdff37006120e100cfff320020
:101ad0000801be000200be00f7ff37006150e100c0
:101ae000fcff3a00c9ff3700410007000400be00b8
:101af00000000600881f7800030478000300e0005f
:101b000007003d0060001000e0801800600119002f
:101b1000e081190002003b0001f02d0003003700b6
:101b20000400070008f0a70001f0a0004f047800af
:101b300000000600889fbe008a9fbe0000827000e1
:101b40000402710004827100260032000004be000d
:101b50000200be006011b8006b0920009502200051
:101b60000182cf000a0039000541b1000082cf0098
:101b7000070039000541b1000982cf000400390097
:101b80000541b1000882cf00010039000541b100d4
:101b900005425200120032000a003b0082817100af
:101ba000610164008100d1000080d3008984d300ea
:101bb0000884d3008b05e8000442e800f7ff3a00f0
:101bc000070037000804440089844c0000004800e6
:101bd000818048008b05e9000442e900f9ff3a00e2
:101be0003aff07004f05be004f04be00000006008c
:101bf0006022b800060220000000d0008180d200e0
:101c00000482d2008582d2000000a00002025200ad
:101c100083825a00030031000202420083824a009c
:101c20000000a1000603e900f3ff3a0000000600ef
:101c30000000e0002f003200c0017800e38f510067
:101c40002c0036000308a3002a003a00a1488000b7
:101c50000100e00002003200810f5000040031005a
:101c600011009800a0488800160037008200780014
:101c7000110190000200e00002003200800f5100cc
:101c8000faff39001102780084824000850f50006d
:101c900018003900808f520003003a008308420088
:101ca00001007800070037000200e0000300320066
:101cb00083014000830f51000e003900120098008c
:101cc00090009800900090000100e00009003200b0
:101cd00010014000828f500006003a00229120003f
:101ce0000009eb00100178001108410091009000fc
:101cf0001100980000000600889fbe0000047800d4
:101d0000914880000100e0000200320001007800ec
:101d10000d003700a14880004091200004003700ea
:101d2000910f5400250036000180e80091009000da
:101d30000100e000faff3a0010003700920f540053
:101d40001e0036000280e800100178000200e0006a
:101d5000faff3a0011017800a1488000409120006c
:101d600004003700910f5400140036000180e80091
:101d700091009000828f5000faff3a00d94880000d
:101d8000888f540001003100880478000900780031
:101d90008e0007000000e00004003a00888f540025
:101da000050032008904d100f5ff370009187800da
:101db0009fff0700d2ff37000000eb004f04be007a
:101dc00000000600881f7800630440000800a1009e
:101dd0008000eb00800f540021003600e30f540018
:101de00001003e004800200008007800c2ff070004
:101df0008000eb000000e000190032009000780045
:101e00009101780064815100880f51000300310076
:101e10001101900002087800070037000881400097
:101e200002087800910190001301980010017800d9
:101e30001109140088087800100178000000eb00f8
:101e40000200e00004003200920190000300e00074
:101e5000010032000280e800904888008180e8009c
:101e6000010078004f04780000000600889fbe0043
:101e7000004280000000e00001003200000001008c
:101e8000104280000000e00001003200000001006c
:101e9000e08320001004e00022003a00b0488000f7
:101ea000c148800088002000d260260093012000f5
:101eb00050000700f2352f00e3c623000000410068
:101ec000818049000804e900f7ff3a0048842000b7
:101ed0000908200088844400d26026009301200075
:101ee00044000700f2352f00e3c623000000410044
:101ef0008180490000acbe00890f5400f6ff3a0013
:101f0000b0488800c14888002046800031468000e3
:101f1000204288003142880011c0b300e0832000d5
:101f200001487800d260260093012000b04880006c
:101f3000c14880002f000700f2352f00e3c62300c0
:101f40000002410081824900b4488800c5488800e9
:101f500040842000100078007f0160004211dd0005
:101f600080842000020140001200be002042880050
:101f7000314288000489be000100780000f0a10011
:101f80004f04be0000000600889fbe0000047800d9
:101f9000004280000000e00001003200000001006b
:101fa000e08320000048eb00104280000000e000c9
:101fb00001003200000001008004eb00b8488800f6
:101fc000c94888004f04be00000006008000780069
:101fd0000000eb000100e000050034000100780083
:101fe000abfc0700e10f400001003a000000eb00ed
:101ff00000000600020ab900001bb9000200b80088
:102000008100420081004300000006000000fa0049
:10201000e712070046140700fe12070081130700ad
:10202000bd140700a012070030e8b700171507001d
:1020300021882c00b0882c00b817070071892c006b
:1020400020002000c5170700e5000700fbff370050
:102050000200fa00218a2c0010002000bf170700a0
:10206000000f78001e007800e10f500002003a00d7
:10207000d482a800040037001e007800e20f500050
:1020800001003a00d4a2a8000080fa000000060077
:102090000200fa00000f78001e007800e60f5000e2
:1020a000090032001e007800f00f500006003200d8
:1020b0001e007800f10f5000030032001e0078006f
:1020c000e30f500002003a0010002000010037002a
:1020d0000000eb000080fa00000006000400fa0097
:1020e000d04680000000e00031003400d04680007f
:1020f0000000400033ff0700b0468800e141800047
:1021000070032000808f500007003200e041800003
:10211000fe0f500004003200d04680000000400056
:1021200028ff0700c04688000000eb00000f780081
:102130001c003700a18a2c00200020008717070010
:1021400010079800b14680001e0078000000400093
:10215000008040009e00900001087800e14180006e
:1021600070032000808f50000d003200e04180009d
:10217000fe0f50000a003200818b2c00200020004e
:102180007617070010079800c14680001e007800ef
:1021900000004000008040009e0090000108780090
:1021a0001e0fe800d04680009e0f5000e1ff3c006b
:1021b000004780000000e00023003400004780005a
:1021c00000004000fffe0700e04688000047800056
:1021d00000004000fbfe0700f04688000000eb0016
:1021e000000f780015003700418c2c0020002000e3
:1021f0005a17070010079800e14680001e0078007b
:1022000000004000008040009e009000010878001f
:10221000318d2c0020002000501707001007980077
:10222000f14680001e007800000040000080400061
:102230009e009000010878001e0fe8000047800013
:102240009e0f5000e8ff3c00204780000000e000a7
:10225000150034002047800000004000d9fe070030
:10226000104788000000eb00000f78000b003700db
:10227000018e2c002000200038170700100798005e
:10228000114780001e0078000000400000804000e0
:102290009e009000010878001e0fe8002047800093
:1022a0009e0f5000f2ff3c000080fa000000060084
:1022b0000200fa00018f2c001000200027170700f1
:1022c000000f78001e007800e20f50000800320076
:1022d000e30f50000a003200e10f500013003a00f3
:1022e0001100200040002000bb1707000f0037003e
:1022f0001100200030002000b71707000b00370046
:102300001100200040002000b3170700000000006b
:10231000000000000000000000000000110020008c
:1023200030002000ac170700000000000080fa0019
:10233000000006000800fa00200798003107980006
:102340003e0090000000e00004003a00f18f2c00f5
:102350001000200001170700300798003e00900091
:10236000e10f500003003a004000200010079800e1
:10237000050037003e009000e20f500002003a00d6
:1023800030002000100798000000eb00000f7800dc
:102390000d003700110020001e0090008e1707006e
:1023a000c0418000801207008000eb001e009000fa
:1023b00089170700c0418000411f200000805000a5
:1023c000791207001e0fe8002e0090009e00780092
:1023d000808f5000efff35000080fa0000000600fb
:1023e0007600fa00203f98000000eb009f130700e2
:1023f0004200dd0070418800a00020009b13070010
:102400004200dd00a0408800200020009713070054
:10241000c0418800c000200094130700d04188000c
:10242000204080003140800000007800d6fe070088
:102430002e3890006101b900b0fe2f00f1ff2f008f
:1024400002004000838048000205200003002000b5
:10245000820f5000838f580079043e000060010015
:10246000500037005f003700750437005f00370009
:10247000600037006500370095003700bd00370069
:10248000be003700c1003700c20037006c043700bf
:10249000c2003700f400370026013700580137002a
:1024a00087013700bb013700ef01370021023700f9
:1024b0004a023700750237009e023700be0237001d
:1024c000bf023700000337001a0337004803370004
:1024d00078033700a1033700d3033700d403370054
:1024e000d70337000304370055043700540437007e
:1024f00053043700520437005104370050043700aa
:102500004f0437004e0437004d0437004c043700a9
:102510004b0437004a0437004904370048043700a9
:1025200047043700460437004504370044043700a9
:1025300043043700420437004104370040043700a9
:102540003f0437003e0437003d0437003c043700a9
:102550003b0437003a0437003904370038043700a9
:1025600037043700360437003504370034043700a9
:1025700033043700320437003104370030043700a9
:102580002f0437002e0437002d0437002c043700a9
:102590002b0437002a0437002904370028043700a9
:1025a000a1033700e1902c00100020006b160700fb
:1025b0005007980051912c0020002000671607005a
:1025c00060079800c1912c001000200063160700de
:1025d000700798007e019000ee0090005e00900071
:1025e0002f0407001305070025043700ca0607005b
:1025f0002304370041002000a00020004dff070009
:10260000c0418000e00507001d04370021922c0026
:1026100030922c0041160700c1922c0010002000bf
:102620004e160700000f98000e0890000000e00012
:10263000020032002000200001003700a00020002e
:1026400040468800b0002000504688006006200008
:10265000e041880061932c00100020003f16070025
:102660008047880020002000d04688009bfe07009d
:1026700071942c002000200038160700b047880015
:1026800061952c002000200034160700c047880008
:1026900031962c001000200030160700c141800048
:1026a0000180b90000007800c0418800f1962c003c
:1026b0002000200029160700100f98001e09900026
:1026c0004101200040012000c80b0700ec03370047
:1026d000e10520008100470082b62c000a000900b5
:1026e000b21878000000eb00000f780008003700f7
:1026f0001e00780000004000000047007028900095
:1027000012002000a1002000060407001e0fe800b0
:102710001e007800ea0f5000f5ff36000000eb00c5
:10272000000f78000d00370011002000400020004d
:10273000a9160700c04180009b1107008000eb0034
:1027400040002000a4160700c0418000411f200067
:1027500000805000941107001e0fe8001e00780052
:10276000f30f5000f0ff3400100020009046880066
:10277000c3033700cefe0700c10337008000eb0023
:1027800040062000ebfe0700bd033700700b07007a
:10279000bb0337004b100700b903370021922c0010
:1027a000f0972c00dd150700c1922c0010002000ce
:1027b000ea150700200f98002e0890000000e000a6
:1027c000020032002000200001003700300020000d
:1027d0004046880030062000e041880010002000bc
:1027e0000048880061932c0010002000db150700d2
:1027f0008047880020002000d04688000000eb00c1
:102800002047880035fe070071942c00200020002e
:10281000d2150700b047880061952c0020002000e9
:10282000ce150700c047880031962c00100020000c
:10283000ca150700c14180000180b900000078007e
:10284000c0418800f1962c0020002000c31507002d
:10285000300f98003e099000410120004001200007
:10286000620b07008603370021922c00f0972c00a2
:10287000aa150700c1922c0010002000b715070010
:10288000400f98004e0890000000e0000200320067
:102890002000200001003700300020004046880062
:1028a000a000200050468800e0062000e04188009b
:1028b00061932c0010002000a815070080478800b5
:1028c00020002000d04688000000eb002047880050
:1028d00002fe070071942c00200020009f150700c5
:1028e000b047880061952c00200020009b15070050
:1028f000c047880031962c00100020009715070073
:10290000c14180000180b90000007800c04188000a
:10291000f1962c002000200090150700500f980021
:102920005e09900041012000400120002f0b0700ac
:102930005303370041982c00d0982c0077150700de
:10294000c1922c001000200084150700600f980031
:102950006e0890000000e00002003200200020001d
:1029600001003700a000200040468800b000200091
:102970005046880060062000e041880061932c00ea
:1029800010002000751507008047880040002000d7
:10299000d04688000000eb0020478800cffd0700ec
:1029a00071942c00200020006c150700b0478800af
:1029b00061952c002000200068150700c0478800a2
:1029c00031962c001000200064150700c1418000e2
:1029d0000180b90000007800c0418800f1962c0009
:1029e000200020005d150700700f98007e09900000
:1029f0004101200080022000fc0a0700200337006c
:102a0000d1992c00209a2c0044150700c1922c006b
:102a10001000200051150700001798000e109000bc
:102a20000000e0000200320020002000010037001a
:102a30001000200040468800b0002000504688006a
:102a4000e0012000e0418800a19a2c001000200045
:102a50004215070020478800419b2c0010002000f1
:102a60003e150700004888000000eb008047880002
:102a700020002000d046880098fd070071942c00ab
:102a80002000200035150700b047880061952c0014
:102a90002000200031150700c0478800f1962c0067
:102aa000200020002d150700101798001e1190001f
:102ab0004101200040012000cc0a0700f00237004d
:102ac000e19b2c00d09c2c0014150700c1922c0017
:102ad0001000200021150700201798002e109000ec
:102ae0000000e0000200320020002000010037005a
:102af000a000200040468800b0002000504688001a
:102b000000032000e04188001000200000488800f9
:102b10000000eb00204788000000eb0080478800a1
:102b200060002000d046880060002000e047880058
:102b30006afd070071942c00200020000715070093
:102b4000b047880061952c00200020000315070085
:102b5000c047880031962c0010002000ff140700a9
:102b6000c14180000180b90000007800c0418800a8
:102b7000f1962c0020002000f81407003017980070
:102b80003e11900041012000c0032000970a070079
:102b9000bb023700619d2c00d0982c00df14070089
:102ba000c1922c0010002000ec1407004017980080
:102bb0004e1090000000e0000200320020002000d3
:102bc00001003700a000200040468800b00020002f
:102bd0005046880060062000e041880061932c0088
:102be00010002000dd1407008047880060002000ee
:102bf000d046880060002000e04788000000eb001d
:102c00002047880035fd070071942c00200020002b
:102c1000d2140700b047880061952c0020002000e6
:102c2000ce140700c047880031962c001000200009
:102c3000ca140700c14180000180b900000078007b
:102c4000c0418800f1962c0020002000c31407002a
:102c5000501798005e11900041012000c003200031
:102c6000620a070086023700e19b2c00d09c2c00f2
:102c7000aa140700c1922c0010002000b71407000e
:102c8000601798006e1090000000e0000200320013
:102c9000200020000100370010002000404688007e
:102ca000b00020005046880000032000e04188006a
:102cb0000000eb00204788000000eb008047880000
:102cc00060002000d046880060002000e0478800b7
:102cd00002fd070071942c00200020009f140700c3
:102ce000b047880061952c00200020009b1407004d
:102cf000c047880031962c00100020009714070070
:102d0000c14180000180b90000007800c041880006
:102d1000f1962c00200020009014070070179800f6
:102d20007e11900041012000c00320002f0a0700ff
:102d300053023700e19b2c00f09d2c007714070014
:102d4000c1922c001000200084140700001f98007e
:102d50000e1890000000e000020032002000200069
:102d6000010037001000200040468800b00020001d
:102d70005046880000032000e04188000000eb007e
:102d8000204788000000eb0080478800600020009a
:102d9000d046880010002000004788006000200016
:102da000e0478800cdfc0700c0002000b047880045
:102db00050002000c0478800f1962c002000200021
:102dc00066140700101f98001e1990004101200092
:102dd000c0032000050a070029023700e19b2c00f0
:102de000009f2c004d140700c1922c001000200001
:102df0005a140700201f98002e1890000000e000d1
:102e000002003200200020000100370010002000e6
:102e100040468800b0002000504688000003200093
:102e2000e041880010002000004888000000eb000e
:102e3000204788000000eb008047880060002000e9
:102e4000d046880020002000004788006000200055
:102e5000e0478800a1fc0700c0002000b0478800c0
:102e600050002000c0478800f1962c002000200070
:102e70003a140700301f98003e19900041012000cd
:102e8000c0032000d9090700fd013700e19b2c0099
:102e9000009f2c0021140700c1922c00100020007c
:102ea0002e140700401f98004e1890000000e0000c
:102eb0000200320020002000010037001000200036
:102ec00040468800b00020005046880000032000e3
:102ed000e04188000000eb00204788000000eb0084
:102ee0008047880060002000d04688002000200035
:102ef0000047880060002000e047880077fc07005a
:102f0000c0002000b047880050002000c047880063
:102f1000f1962c002000200010140700501f98008c
:102f20005e19900041012000c0032000af09070096
:102f3000d3013700d19f2c00200020000714070088
:102f4000601f980091a02c002000200003140700af
:102f5000701f980011a12c0020002000ff13070013
:102f60000027980091a12c0020002000fb130700ef
:102f700010279800ee1890001107980007003700fe
:102f80000e2190009e2090001e009000e501070099
:102f90001e0090000000e80010079800ee18900056
:102fa0007e189000808040001e009000808f5000ae
:102fb000f3ff3c00b201370025fc0700b0013700e9
:102fc000e1a12c00d09c2c00d4130700c1922c004e
:102fd00010002000e1130700202798002e21900008
:102fe000024888002e2090000000e000020032001d
:102ff000200020000100370010002000404688001b
:10300000b00020005046880000032000e041880006
:103010000000eb00204788000000eb00804788009c
:10302000f1a22c0010002000cc130700d04688002d
:103030002afc07000000eb0020079800d046800023
:10304000e40f500007003200e60f50000800320085
:10305000e20f50000b003a004001200020079800ca
:103060000800370080022000200798000500370084
:1030700060002000e0478800c0032000200798007f
:103080000000000071942c0020002000b313070002
:10309000b047880061952c0020002000af13070086
:1030a000c0478800f1962c0020002000ab130700d9
:1030b000302798003e219000410120002e00900012
:1030c0004a0907006e013700a1a32c00d09c2c00f8
:1030d00092130700f0002000404688000003200003
:1030e000e04188000000eb00204788000000eb0072
:1030f0008047880060002000d046880060002000e3
:10310000e0478800f5fb070080002000b0478800fa
:1031100050002000c0478800e001200040279800b0
:103120004e21900041012000c00320002f0907001c
:103130005301370051a42c00e0a42c0077130700a2
:10314000c1922c0010002000841307005027980023
:103150005e2090000000e00002003200200020000d
:10316000010037003000200040468800a000200009
:1031700050468800d0052000e04188000000eb00a8
:103180008047880020002000d046880020002000d2
:10319000004788000000eb0020478800cffb0700b5
:1031a000a0002000b0478800f0002000c047880041
:1031b00031962c001000200068130700c1418000e8
:1031c0000180b90000007800c0418800f1962c0011
:1031d0002000200061130700602798006e219000f6
:1031e000810220004001200000090700240137006f
:1031f00051a42c00e0a42c0048130700c1922c001d
:103200001000200055130700702798007e209000c2
:103210000000e00002003200200020000100370022
:10322000a000200040468800b000200050468800e2
:10323000e0052000e04188000000eb0080478800a6
:1032400020002000d04688001000200000478800a1
:103250000000eb0020478800100020000048880094
:103260009efb0700a0002000b0478800f00020006f
:10327000c047880031962c0010002000371307004b
:10328000c14180000180b90000007800c041880081
:10329000f1962c002000200030130700002f98002a
:1032a0000e2990008102200040012000cf08070075
:1032b000f300370051912c00200020002713070055
:1032c000102f98001e289000ef0f500003003400cc
:1032d0001e28900070005000010037001e2890004a
:1032e000140f07001e289000ef0f500002003c0052
:1032f000e0ff2f0001003700b0ff2f004c0f070048
:10330000401f2000a80e07001e289000ef0f50005d
:1033100002003c00c0ff2f000100370030ff2f00eb
:10332000430f070000a62e009f0e07001e289000e6
:10333000ef0f500002003c00d0ff2f0001003700cb
:1033400070ff2f003a0f0700800c2000960e070038
:10335000f0002000360f0700c9003700619d2c00e7
:1033600080a52c00ed120700c1922c001000200057
:10337000fa120700202f98002e2890000000e0008d
:10338000020032002000200001003700a0002000d1
:1033900040468800b00020005046880030082000d9
:1033a000e04188000000eb008047880060002000ba
:1033b000d0468800c0002000e04788000000eb00f5
:1033c0002047880045fb070071942c002000200056
:1033d000e2120700b047880061952c002000200011
:1033e000de120700c047880031962c001000200034
:1033f000da120700c14180000180b90000007800a6
:10340000c0418800f1962c0020002000d312070054
:10341000302f98003e2990000106200080012000f6
:1034200072080700960037004b0d07009400370024
:1034300010002000804888008c02070090003700b0
:10344000100020008048880021922c0030a62c001b
:10345000b2120700200020004046880070032000c0
:10346000e0418800c1a62c0010002000bb1207001c
:1034700000488800d1a72c0010002000b7120700d8
:10348000d047880061932c0010002000b312070081
:103490008047880020002000d046880010002000cf
:1034a000204788000dfb070071942c0020002000ad
:1034b000aa120700b047880061952c002000200068
:1034c000a6120700c0478800f1962c0020002000bb
:1034d000a2120700402f98004e29900041062000bc
:1034e00040012000410807000000eb0080488800f0
:1034f00063003700100020008048880021922c00d3
:10350000d0a82c008512070020002000404688002b
:1035100070032000e0418800c1a62c0010002000ac
:103520008e12070000488800d1a72c001000200050
:103530008a120700d047880061932c0010002000f9
:1035400086120700804788000000eb008047880053
:1035500020002000d046880010002000204788006e
:1035600071942c00200020007c120700b0478800d6
:1035700061952c002000200078120700c0478800c9
:10358000f1962c002000200074120700502f9800a4
:10359000b1a92c002000200070120700300798000d
:1035a000d04680000000400006fa0700b0468800c0
:1035b000204780000000400002fa07001047880002
:1035c000104780008000eb000108780016003700eb
:1035d0003e009000610060000000e00002003a0040
:1035e000600020000100370070002000602f98006c
:1035f000b0468000ee28900001087800b0468000b8
:103600000080e8006e299000020878005e29900092
:103610004106200040002000f40707003e00900013
:103620000000e900300798003e0090000000e00034
:10363000e7ff3c000000eb008048880010003700e6
:10364000ae3890004107980007003700a200200024
:10365000810020004e009000320007004e009000d4
:103660000000e800400798002e389000e400400079
:103670004e009000808f5000f4ff3c0000000000de
:10368000b04680006af90700c046800068f907006c
:103690001047800066f907000080fa00000006006d
:1036a0000600fa00000f7800110798002207980022
:1036b000dc0f0700e50f0700b0aa2c00b30f0700ce
:1036c0000001eb00610020001e0078007a11070065
:1036d00012002000610020001e00900076110700fb
:1036e0001e0090000000e900120e070001003700e4
:1036f000000000001e80ea004d0e07002e00900022
:103700000000e000faff3a00401f2000a60d07006d
:10371000f0002000460e0700401f2000a20d070009
:10372000f4ff37001400fa0070079800010f9800aa
:10373000120f9800401f200010079800803e2000c4
:1037400020079800300c2000300798000000eb00a4
:10375000000f7800b1003700b20f0700bb0f070061
:1037600090ab2c00890f070011c0b3000040eb00a4
:10377000c00f0700f0ab2c00840f07001e00e8000c
:1037800012002000710020004b1107000001eb0027
:10379000610020007e009000471107007e0090002d
:1037a000ef0f5000030034007e00900070005000c6
:1037b000010037007e009000400798007e009000d6
:1037c000ef0f500002003c00100020000100370005
:1037d00040002000500798007e009000ef0f50003e
:1037e00002003c0020002000010037008000200083
:1037f00060079800fe009000300020009c0d07003c
:103800004e009000cb0d07005e0090000080ea00a3
:10381000070e07001e009000630d0700e702a800d6
:10382000de0090006e009000010070000080ea0051
:10383000ff0d07007e009000700060004480de00f5
:1038400000407800614060000080fb006100600083
:103850004900dd0032178000f1df2f008100610098
:1038600001007000301788002e019000706626005d
:103870000090b9008180d1004f90de0000805000a0
:10388000490d07007e009000680060004380de0064
:1038900000407800614060000080fb006100600033
:1038a0004900dd0032178000f1df2f008100610048
:1038b00001007000301788002e019000706626000d
:1038c0000090b9008180d1004f90de000080500050
:1038d000350d07007e009000640060004280de002d
:1038e00000407800614060000080fb0061006000e3
:1038f0004900dd0032178000f1df2f0081006100f8
:1039000001007000301788002e01900070662600bc
:103910000090b9008180d1004f90de0000805000ff
:10392000210d07007e009000620060000080d10041
:1039300000407800614060000080fb006100600092
:103940004900dd0032178000f1df2f0081006100a7
:1039500001007000301788002e019000706626006c
:103960000090b9008180d1004f90de0000805000af
:103970000d0d07007e00900000407800614060005f
:1039800061406000614060000080fb0061006000f9
:103990004900dd0032178000f1df2f008100610057
:1039a00001007000301788002e019000706626001c
:1039b0000090b9008180d1004f90de0080805000df
:1039c0003e00900000805000f70c07006e00900051
:1039d0000080ea00960d07003e009000f20c070000
:1039e000e722a900f0002000910d07008000eb0005
:1039f000300020001e0d0700e702a9008e0890008d
:103a0000803e20000088b900800078001e009000f1
:103a100000805000e40c07001e0fe8001e08900014
:103a20009e007800808f50004bff35000080fa0028
:103a3000000006000800fa0061ac2c001000200015
:103a400046110700000f78001e0078000000e0001b
:103a500002003a00604080000100370070408000a2
:103a6000300798003e019000b04721000090b90057
:103a7000c388de004f90de000080500010079800e1
:103a80003e009000b14721000181b9004399de005a
:103a9000cf80de0001015100410620000191b900f4
:103aa0008200780001005000200798009e009000de
:103ab00070012000ee0c0700ae0090008001200095
:103ac000eb0c070020032000b70c0700deff3700d7
:103ad0000600fa00889fbe006140800070408000b0
:103ae00000805000cf80de0075f707000004be00a4
:103af000614080007040800000804000cf80de0088
:103b00006ff707000001be000800be0009f70700bc
:103b10000200200003f82300a9f60700020020009d
:103b200003402400bcf7070044f7070000007800ba
:103b3000200798002e019000b04721000090b900a6
:103b4000c388de004f90de00008f50002e009000f2
:103b5000b14721000181b9004399de00cf80de002a
:103b600001015100410620000191b9008200780056
:103b700001005000100798009e007800700120009e
:103b8000bb0c07009e00900080012000b80c0700cd
:103b900090012000840c07002e0090008000eb00b4
:103ba000e3110700900120007f0c0700caff3700d7
:103bb0000200fa00f0f32f00f01688000000eb007e
:103bc000000f78001e00a2001e0078000040780060
:103bd000614060000080fb00610060004600dd0085
:103be00002178000f1fb2f008100610001007000ce
:103bf0000017880000000000000000000000000026
:103c00001e00780000407800614060000080fb00ea
:103c1000610060004800dd0042168000f1ef2f00d7
:103c20008100610001007000401688000000000063
:103c300000000000000000001e0078000040780036
:103c4000614060000080fb00610060004900dd0011
:103c500042168000f1df2f0081006100010070003a
:103c60004016880000000000000000000000000076
:103c70001e00780000407800614060000080fb007a
:103c8000610060004700dd0002178000f1f72f009f
:103c90008100610001007000001788000000000032
:103ca00000000000000000001e00780000407800c6
:103cb000614060000080fb00610060004600dd00a4
:103cc00002178000f1fb2f008100610001007000ed
:103cd0000017880000000000000000000000000045
:103ce0001e00780000407800614060000080fb000a
:103cf000610060004e00dd0012168000f1ff2b0015
:103d000081006100010070001016880000000000b2
:103d100000000000000000001e0078000040780055
:103d2000614060000080fb00610060004c00dd002d
:103d3000a2168000f1ff2e008100610001007000da
:103d4000a016880000000000000000000000000035
:103d50001e00780000407800614060000080fb0099
:103d6000610060004d00dd00a2168000f1ff2d0013
:103d70008100610001007000a0168800a00f2000e3
:103d8000090c07008fff37000400fa000000eb0069
:103d90006048880070418000461107000000eb0079
:103da000000f78000000eb00100798001d0e0700c0
:103db000260e070020ad2c00f40d0700803e2000e9
:103dc00001002000004088001140880001003700f9
:103dd00000000000614880001e009000808f5000ad
:103de000170036000240800013408000301f200082
:103df00001002000800f5100818f59000a00360019
:103e00001100200040002000f31007000028ef0000
:103e10000228ef001e0fe8001e00780012002000ac
:103e2000c1002000a40f070061488000110798001e
:103e30001e0090000001eb00b10020009e0f070063
:103e4000c04180006101b900004080001140800045
:103e5000800f5100818f5900ddff3e008000eb0094
:103e600040002000dc100700daff37000a00fa00eb
:103e700020032000e04188000000eb00000f7800e4
:103e80000000eb00604888000000eb0070488800ec
:103e90000000eb00100798000000eb0020079800de
:103ea0000000eb0030079800d1ad2c00200020006e
:103eb0002a10070040079800e1ae2c0000af2c004c
:103ec00016100700ce009000400620000088b900c0
:103ed00000007800cf80de0000408800114088009c
:103ee0000100370000000000614880002e009000b3
:103ef000808f50002a003600ce009000400620003f
:103f00000088b900000078006101b900004080001d
:103f100011408000800f5100818f5900190031003d
:103f20001e007800e40f500016003200110020003f
:103f300060012000ce0b070011002000400020008f
:103f4000a510070040002000000f78000028ef00b7
:103f50000228ef008040eb00f0c0b300c50d070061
:103f6000c0c4b3007e0d07001e0090000000e800f2
:103f7000100798001e009000120020002100200071
:103f80004d0f0700604880000001eb002100200079
:103f9000490f070061488000210798002d00370075
:103fa000714880003e009000808f5000290036004c
:103fb000ce009000400620000088b9000000780084
:103fc0006101b9000040800011408000800f510065
:103fd000818f5900190031001e007800e30f500056
:103fe000160032002100200060012000a00b070015
:103ff0001100200030002000771007003000200062
:10400000000f78000028ef000228ef008040eb004e
:10401000f0c0b300970d070020c5b300500d070096
:104020001e0090000000e800100798001e0090009d
:1040300012002000210020001f0f070070488000a0
:104040000001eb00a10020001b0f07007148800059
:1040500031079800c04180006101b9000040800034
:1040600011408000800f5100818f59000300310002
:104070008000eb004000200057100700d041800076
:104080006101b9000040800011408000800f5100a4
:10409000818f5900030031008000eb0030002000c8
:1040a0004d1007006141800010032000808f5000f8
:1040b0000a003a00110020004000200046100700ce
:1040c000c0418000380b07008000eb00400020005a
:1040d000411007000080eb006041880061418000d2
:1040e00020032000808f50007eff3a001100200046
:1040f0003000200038100700d04180002a0b070054
:104100008000eb0030002000331007000080eb003f
:104110006041880074ff37000400fa00704180009d
:1041200064100700a040800062100700a1af2c00bf
:1041300010002000890f0700000f780091b02c00bc
:1041400030002000850f0700100798001e00900027
:10415000581007001e007800e10f500006003a00da
:104160001e0090004280de00800078000000eb001e
:104170001f0c0700080037001e007800e20f5000f7
:1041800005003a001e0090004280de0080007800aa
:10419000a0002000160c0700000000000000000036
:1041a000000000000000eb00300c07004200dd00c2
:1041b00070418800a00020002c0c07004200dd00a8
:1041c000a04088000080fa00000006000800fa0005
:1041d0001007980021079800320798002e009000e1
:1041e000ef0f5000030034002e00900070005000cc
:1041f000010037002e0090004e0b07001e009000bb
:10420000e10f5000060032001e009000e20f500047
:10421000030032001e009000e60f500009003a0033
:104220002e009000ef0f500002003c00e0ff2f0036
:1042300001003700b0ff2f007d0b0700401f20005a
:104240009e1007001e009000e30f50000100320096
:10425000e722a8001e009000e30f500012003a0071
:104260002e0090000000e00003003c002e009000b3
:104270004006b000010037002e009000800078005a
:1042800030002000fa0a07002e009000ef0f5000c7
:1042900002003c00e0ff2f0001003700b0ff2f00bc
:1042a000630b0700d60037001e009000e40f50009b
:1042b00012003200e40f500005003c00e10f5000f6
:1042c00006003200e20f50000800320012003700f2
:1042d000e60f50000c0032000f00370041012000b3
:1042e0003e009000981007000b003700610420008a
:1042f0003e0090009410070007003700a105200041
:104300003e00900090100700c10d20003e0090007c
:104310008d100700000000002e009000ef0f5000ed
:1043200002003c00c0ff2f000100370030ff2f00cb
:104330003f0b07001e009000e40f500017003200f2
:10434000e40f500004003c000000e900e10f5000c1
:104350001e003e0007003700e60f50001500320037
:10436000e60f500010003500e70f50001400320037
:10437000160037002e00900045f707000000e0000f
:104380000300320090002000000f78000f0037007b
:10439000a0002000000f78000c003700300520003e
:1043a000000f78000900370050052000000f78004a
:1043b00006003700b0002000000f7800030037002f
:1043c000c0002000000f7800000000002e009000c8
:1043d0000000e00003003a002e0090004006b0000c
:1043e000010037002e009000800078001e00780049
:1043f0009f0a07008040eb0030c0b3009d0c07000f
:104400001e009000e40f50001a003200e40f50002c
:1044100005003c00e10f50000a003200e20f50009e
:104420000e00320029003700e60f50001b0032005a
:10443000e60f500015003500e70f50001d00320058
:104440002200370010c3b300450c0700304780003e
:10445000800cb100191007001c00370020c3b30006
:104460003f0c070050478000800cb100131007007c
:104470001600370030c3b300390c070070478000c6
:10448000800cb1000d10070010003700a04780001d
:10449000800cb100091007000c00370050c7b300b2
:1044a0002f0c070040478000800cb100031007006c
:1044b0000600370050c5b300290c07006047800094
:1044c000800cb100fd0f0700000000002e009000de
:1044d000ef0f500002003c00d0ff2f00010037001a
:1044e00070ff2f00d20a0700800c2000f30f070096
:1044f000f0002000ce0a07008000eb001e007800cc
:104500005b0a07008040eb0030c0b300590c070085
:104510001e009000e40f50002a003200e40f50000b
:1045200005003c00e10f500008003200e20f50008f
:104530001500320032003700e60f5000270032002d
:10454000e70f5000280032002d003700e101200065
:104550003e009000fc0f070040c6b300000c0700af
:104560003047800080007800703e2000808f50002f
:1045700020003e0030478000813e20000080500037
:10458000ce0f07001e003700010520003e009000fe
:10459000ed0f070040c4b300f10b07005047800047
:1045a00080007800703e2000808f500013003e0095
:1045b00050478000813e200000805000bf0f070060
:1045c0000f003700f10520003e009000de0f0700cd
:1045d00020c5b300e20b07000900370040c6b30056
:1045e000df0b07000600370040c6b300dc0b0700f6
:1045f0000300370000000000010037000000000049
:1046000000000000000000000000000000000000aa
:10461000e722a9000080fa00000006000400fa006a
:10462000000f7800110798001100200060012000a1
:104630000f0a07001e0090000000e00008003c0088
:104640001e0090000000e00022003a0007f607007c
:1046500061006000004078000004e0001d003200ae
:104660009107200020002000010a07005148800027
:10467000c0042000808f500009003a001100200083
:1046800040002000d40e0700c04180008b0f0700bf
:104690008000eb0040002000cf0e07001400370020
:1046a0005148800020052000808f50000f003a0004
:1046b0001100200030002000c70e0700d04180000c
:1046c0007e0f07008000eb0030002000c20e0700c4
:1046d000070037008107200020002000e4090700c0
:1046e000c0418000750f0700010037000000000086
:1046f0001e009000e20f50000d003a00a1072000bc
:1047000020002000da090700401f20006b0f07007f
:104710001100200040002000af0e0700c0418000c3
:10472000660f07008000eb0040002000aa0e070083
:104730002028ef009e00780070002000cc090700c0
:10474000b04080000000e800b0408800b040800029
:104750000001eb0051002000570d07000080fa0017
:10476000000006000200fa00000f78002028ef0089
:104770009e00780040002000bd090700d040800066
:104780000000e800d0408800d040800012002000e7
:1047900051002000480d07000080fa0000000600cc
:1047a0000200fa00000f7800004180000000e800dd
:1047b000004188009e00780060002000ac090700de
:1047c000c04080000000e800c0408800c040800079
:1047d0000001eb0091002000370d070080478000aa
:1047e0000000e0000200340080382100330f070091
:1047f0000080fa00000006000c00fa00881f780014
:104800002007980031079800420798005307980046
:104810000000eb00000f78000000eb00100798008c
:104820000000eb0050488800e0418000fe0f50007f
:104830000400320071032000810f50004f0032004d
:10484000ca0037000028ef000228ef0002003700fe
:1048500020488000504888005e0090006101b90047
:104860000040800011408000800f5100818f59006e
:1048700003003600504880000000e000f4ff3200e2
:104880002040800031408000404088005140880036
:10489000504880000000e0002d003a002e009000fb
:1048a000fbf507000000e0000b003a0011002000bb
:1048b000500020006e090700e04080000000e80082
:1048c000e0408800e04080001200200091002000bd
:1048d000f90c07002b01370010002000b0ff070083
:1048e0000048800061006000004078000004e000a3
:1048f0001d0132005df50700310020000101780044
:10490000110009000200d8008000fd000000e00056
:1049100017013a001100200060012000540907002f
:1049200011002000400020002b0e07001100200085
:10493000800020004e090700c0418000df0e070004
:104940008000eb0040002000230e07000d0137001f
:104950002e009000cef507000000e00003003a00b2
:10496000100020007fff0700060137001100200023
:104970001000200029ff0700020137000028ef0087
:104980000228ef003c0037005e009000cf00de0000
:10499000008040000080d1006101b900004080002b
:1049a00011408000800f5100818f590030003a0083
:1049b0001e0090000000e0002d003a0010002000d2
:1049c0001007980029f50700630060000000e00070
:1049d00005003a0000488000610060000040780057
:1049e0000004e00004003a00614180001003200050
:1049f000808f50001e003a0011002000600120004e
:104a00001b090700ce009000800020001809070055
:104a10002e0090009ef507000000e0000900320023
:104a20001100200040002000eb0d0700c041800075
:104a3000dd0807008000eb0040002000e60d0700c5
:104a4000080037001100200030002000e20d0700b0
:104a5000d0418000d40807008000eb003000200027
:104a6000dd0d07000080eb00604188000c0037007e
:104a700020488000504888005e0090006101b90025
:104a80000040800011408000800f5100818f59004c
:104a900003003600504880000000e000baff3200fa
:104aa0002040800031408000404088005140880014
:104ab0002e00900076f507000000e00002003200b2
:104ac000100020000100370020002000400798005f
:104ad000504880000000e00006003a004e009000c0
:104ae0002fff0700804780000000a000804788005b
:104af000a40037002e00900065f507000000e000dc
:104b0000040032005148800020052000808f5000b2
:104b10000800320051488000c0042000808f5000ff
:104b20000a003a002e00900059f507000000e0004e
:104b300006003a004e0090000aff07008047800000
:104b40000000a000804788008e0037001100200080
:104b50004e009000b1fe070081478000e00f20006a
:104b60000080600080478800860037000028ef0042
:104b70000228ef00020037002048800050488800db
:104b80005e0090006101b90000408000114080008b
:104b9000800f5100818f590003003600504880007b
:104ba0000000e000f4ff320020408000314080002f
:104bb0004040880051408800504880000000e000dc
:104bc00030003a002e00900031f507000004780014
:104bd0003e0090002ef50700800f54000d003a00b3
:104be000ce00900050002000a1080700e0408000a7
:104bf0000000e800e0408800e04080001200200053
:104c0000910020002c0c070050002000000f7800bd
:104c10005c0037004e009000e1fe070060002000bd
:104c2000000f7800004880006100600000407800bc
:104c30000004e000500032008cf4070063006000c4
:104c40000000e0004e003a0011002000600120004a
:104c50008708070011002000400020005e0d0700bb
:104c6000110020008000200081080700c041800062
:104c7000120e07008000eb0040002000560d0700d8
:104c8000400037002e00900001f507000004780076
:104c90003e009000fef40700800f540005003a002b
:104ca0004e009000affe070040002000000f78008b
:104cb00034003700e141800000032000808f500065
:104cc00023003a00b0468000900078002e0090004b
:104cd000808f500006003200b04680000080e8005f
:104ce000900078002e009000808f500004003a0061
:104cf000110020004e00900048fe0700170037000a
:104d0000b046800064004000900078002e009000c3
:104d1000808f500006003200b046800066004000e0
:104d2000900078002e009000808f500004003a0020
:104d3000210020004e00900038fe070007003700d9
:104d40008000eb004e00900034fe070003003700a7
:104d5000110020004e00900030fe0700700020007f
:104d6000000f780007003700000000000500370042
:104d700000000000030037000000000001003700c1
:104d8000000000001e0078004f0478000080fa0048
:104d9000000006000800fa0010079800210798009c
:104da000320798001e019000ae00900060002000c5
:104db00006fd07008040eb0030c0b3002d0a07005d
:104dc00040c4b300e60907003e0090000000e00088
:104dd00003003a0080bb2000b80d07002e0037000a
:104de000803e2000b50d0700000f78003e009000c7
:104df000ef0f5000030034003e00900070005000a0
:104e0000010037003e0090004a0807003e00900075
:104e1000ef0f500002003c00e0ff2f0001003700c0
:104e2000b0ff2f0082080700401f2000a30d0700dd
:104e30001e0f70001e0078000000e0000a003a001b
:104e40001e019000be00900070002000dffc0700f3
:104e5000431f200032002000be0090002e00900072
:104e600065fe07000c003700f00020007008070006
:104e70003100200040052000fd0707008040eb00c6
:104e800030c0b300fb09070010c4b300b409070029
:104e9000c05d2000890d07000080fa0000000600b8
:104ea0000600fa001007980021079800714780005b
:104eb000700c2000808f5000490034000000eb008f
:104ec000000f7800b0478000e10f50001900340057
:104ed000b04780008000e900803e20000088b900d3
:104ee00000007800750d07001e0f7000810c200077
:104ef0001e009000940d0700b047800080007800ed
:104f0000803e20000088b9008000780000832f00d8
:104f100000804000690d07001e0f7000f1032000a3
:104f20001e009000880d0700401f2000630d070041
:104f30001e0f700010478000100078001e019000c6
:104f40008000780030002000a0fc0700401f2000f7
:104f50005a0d07001e0f70008040eb0030c0b300f8
:104f6000c409070000488000e10f50000f003c001a
:104f70001e0078000000e0000c003200f00020006d
:104f80002b080700ae00900040052000b80707007e
:104f900010c4b30072090700f04080000000e80070
:104fa000f04088000000eb000e00370020c5b30081
:104fb0006b090700410620001e009000620d0700eb
:104fc00010478000100078001e01900080007800db
:104fd000400020007dfc0700100020000100370089
:104fe0000000eb000080fa00000006001200fa004a
:104ff00040079800510798006207980073079800cf
:10500000040f98002040800031408000404088001c
:10501000514088008e089000a003200094070700ec
:105020000e08900000f0a7000000ea000000ea006f
:105030004f00de0080007800100420008c0707007d
:10504000410020000e0890003f0d0700803e200028
:105050001a0d0700510020000e0890003a0d0700bd
:10506000007d2000150d0700a10020000e08900013
:10507000350d0700401f2000100d07002101200002
:105080000e089000300d07000e099000ce00900031
:10509000100020004dfc0700e0418000fe0f500092
:1050a0008700320071032000810f5000860032001b
:1050b000b04780000000e00003003a00800c2000b0
:1050c000fe0c070079003700b0478000e40f500065
:1050d00008003c00b047800080007800803e20003f
:1050e0000088b90000007800803eb100f30c070092
:1050f00066003700004780000000e0001500320025
:10510000810220000e0890000f0d0700409c200037
:10511000ea0c07007e019000ee0090000e0890005f
:105120001cff0700b0478000e70f50005700360013
:10513000b047800080007800803e20000088b900e1
:1051400080007800000c2e0000804000db0c07007f
:105150004e003700810220000e089000fa0c070074
:10516000401f2000d50c0700a10220000e0890006f
:10517000f50c0700401f2000d00c0700810c200018
:105180000e089000f00c0700803e2000cb0c0700ba
:10519000210d20000e089000eb0c0700b0478000a6
:1051a00080007800401f20000088b900800078004f
:1051b00000832f0000804000c00c0700610e20001b
:1051c0000e089000e00c0700b0478000eb0f500085
:1051d00017003400007d2000b80c0700b10e20003d
:1051e0000e089000d80c0700401f2000b30c0700e9
:1051f000010f20000e089000d30c0700401f200074
:10520000ae0c0700510f20000e089000ce0c0700d6
:10521000b1478000401f20000088b900800078005e
:1052200040a82e0000804000a40c070008003700b2
:10523000b047800080007800401f20000088b9003f
:1052400080007800c0632f00008040009b0c0700a6
:10525000a10f20000e089000bb0c0700401f20008b
:10526000960c0700f10f20000e089000b60c070006
:10527000401f2000910c0700d10320000e08900071
:10528000b10c0700401f20008c0c0700f103200028
:105290000e089000ac0c0700401f2000870c070090
:1052a000110420000e089000a70c07000e099000c2
:1052b000de00900020002000c4fb07000300370040
:1052c0000000000001003700000000000000eb00bb
:1052d00010079800204780000000e0000300320023
:1052e000e10f5000350032004c0037008040eb00e9
:1052f00030c0b300df08070020c5b30098080700de
:10530000833e200012002000de0090004e0090003e
:1053100039fd070010079800e141800000032000dc
:10532000808f500038003a001e009000e50f5000ba
:10533000030032001e009000e60f500034003a00d7
:10534000c0468000900078005e009000808f500082
:1053500004003a00c04680000080e8001000780099
:1053600002003700c0468000100078002007980037
:10537000803e2000510c07000e099000ae00900006
:105380003000200091fb0700401f20004b0c07005d
:105390000e099000ae009000400020008bfb07003b
:1053a000833e200022002000ae0090004e009000be
:1053b00011fd070010079800180037004e009000fc
:1053c00033f307000000e00002003200100020006c
:1053d0000100370020002000800078000e089000b7
:1053e000affe07000000e0000b00320003fa2000cf
:1053f00022002000de0090004e009000fefc07001e
:105400001007980005003700000000000300370077
:10541000000000000100370000000000b1408000e3
:10542000e040800080804000c040800080804000dc
:10543000d040800080804000f0408000008040002c
:105440003007980012002000d10020003e0090009c
:10545000190a0700b1408000e04080000080400051
:105460000000e0001c003400b1408000e0408000fb
:1054700080804000400620000088b900800078004d
:105480003e00900000017800110009008200d80061
:10549000104188001041800031062000810f50002b
:1054a00001003400300620001041880010418000c7
:1054b000e90f500002003400d00020000100370046
:1054c000e0002000134180000001eb008000780024
:1054d00003007800f80907008040eb0030c0b300fb
:1054e0006408070090c4b3001d080700c04780008f
:1054f000e30f500010003600c0478000640f5000da
:105500000400370000a62e00ec0b070041fc2f0022
:105510001e8f4000c00320009e007800808f500046
:10552000f8ff3e009e007800803e20000088b90011
:1055300000007800e10b07008000eb00b0032000c2
:105540004b0607008b0e07000080fa0000000600e3
:105550000400fa00c0418000560b0700d0418000d3
:10556000540b070091b12c00100020007b0a0700ab
:10557000000f780091b22c0030002000770a07005d
:10558000100798001e0090004a0b07001e007800cc
:10559000e10f500004003a009e009000200020001f
:1055a00013070700060037001e007800e20f5000c6
:1055b00003003a009e009000c00020000c07070086
:1055c0002000200029070700c0418800c0002000fb
:1055d00026070700d04188008000eb00d0032000a0
:1055e000230607000080fa00000006001a00fa00f7
:1055f000200f9800310f9800420f98000000eb0038
:10560000000f78002828ef005046800060079800bf
:10561000e047800000004000eaf1070070079800b2
:10562000e041800080007800300320001006070071
:105630008d04370011002000d00320000c06070065
:1056400081b32c0090b42c00340a07004041800044
:105650001200200011002000970907001e28ef000b
:10566000f0408000e0408800e0408000d0408800aa
:10567000d0408000c0408800c0408000b04088001a
:105680000000eb00300798000000eb004007980096
:105690000000eb00000f780056043700e047800060
:1056a000800078007e009000420b07000000eb00b5
:1056b00050079800470437005e009000000040004b
:1056c000fe0090000080400010007800000f98005d
:1056d000e0418000e1052000810f500038013200d8
:1056e000e1052000810f500012003e000103200060
:1056f000810f5000b100320001032000810f5000e3
:1057000005003e00f40f50001e003200fe0f500056
:10571000370032005b02370071032000810f500018
:1057200033003200d1052000810f50003e013200cd
:105730005402370061062000810f50009f003200a4
:1057400061062000810f500007003e003106200056
:10575000810f50005d00320041062000810f500093
:105760007400320047023700e1062000810f50002c
:105770003b00320031082000810f5000450132000b
:10578000400237000e0890000000e00003003200e5
:105790000e089000e20f500003003a00b04680006f
:1057a0001000780003003700b04680000080e80059
:1057b00010007800100798000e089000e10f5000cc
:1057c000030032000e089000e20f500003003a0080
:1057d000c04680001000780003003700c0468000fb
:1057e0000080e800100078002007980025023700ac
:1057f0000000eb00200798008047800063006000f5
:10580000e30f500003003a0030418000e90f5000e0
:105810000f0034000e0890000000e000030032008a
:105820000e089000e20f500003003a00b0468000de
:105830001000780003003700b04680000080e800c8
:1058400010007800100798002628ef000d0237009e
:10585000304180000000e800304188000902370034
:105860000e0890000000e000030032000e089000d7
:10587000e20f500003003a00b046800010007800ac
:1058800003003700b04680000080e8001000780078
:10589000100798000e089000e10f5000030032003e
:1058a0000e089000e20f500003003a00c04680004e
:1058b0001000780003003700c04680000080e80038
:1058c0001000780020079800ee0137000e089000c5
:1058d0000000e000030032000e089000e20f5000cc
:1058e00003003a00b0468000100078000300370043
:1058f000b04680000080e800100078001007980093
:10590000b0468000900078001e009000808f50000c
:1059100004003a00c04680000080e80010007800d3
:1059200002003700c0468000100078002007980071
:10593000d40137000e0890000000e00003003200a0
:105940000e089000e20f500003003a00b0468000bd
:105950001000780003003700b04680000080e800a7
:105960001000780010079800b04680009000780082
:105970001e009000808f500004003a00c046800056
:105980000080e8001000780002003700c046800068
:1059900010007800200798001e007800ef0f5000dc
:1059a00003003400b000200050468800b5013700e5
:1059b0000000eb0050468800b201370080478000ad
:1059c00063006000e30f500003003a0030418000a4
:1059d000e20f5000a8013400d0468000e40f5000d0
:1059e0001f003200e60f50004e003200e20f500060
:1059f00071003a000e0890000000e0000300320041
:105a00000e089000e20f500003003a00b0468000fc
:105a10001000780003003700b04680000080e800e6
:105a200010007800100798000e089000e10f500059
:105a3000030032000e089000e20f500003003a000d
:105a4000c04680001000780003003700c046800088
:105a50000080e8001000780020079800560037000a
:105a6000b14680000e089000000040000080400019
:105a700090007800110798000e089000e10f500088
:105a8000030032000e089000e20f50000b003a00b5
:105a90009e00780070002800008060000000e00098
:105aa00004003d000000e90081ff2f00008070002d
:105ab0000000e800e30f5000110034000e089000d1
:105ac0000000e000030032000e089000e30f5000d9
:105ad0000f003a009e0078007000280000806000ef
:105ae0000000e00004003d000000e90081ff2f00fd
:105af000008070000000e800e30f50000400340054
:105b0000c046800010017800220798002a00370064
:105b1000c04680000080e8009000780021079800cf
:105b200025003700b14680000e08900000004000bc
:105b30000080400010017800120798000e089000c5
:105b4000e20f500008003c009e007800c0002000da
:105b500000017800110009008200d8008000fd00db
:105b6000e50f50000b0034000e089000e20f5000cb
:105b70000c0034009e007800c00020000001780076
:105b8000110009008200d8008000fd00e50f5000e0
:105b900004003400c046800090007800210798007f
:105ba00005003700c04680000080e8001001780042
:105bb00022079800000000002628ef00310137007e
:105bc0000e0890000000e000030032000e08900074
:105bd000e20f500003003a00b04680001000780049
:105be00003003700b04680000080e8001000780015
:105bf00010079800b0468000900078001e009000ca
:105c0000808f500004003a00c04680000080e80009
:105c10001000780002003700c046800010007800b5
:105c200020079800170137000e0890000000e000e0
:105c3000030032000e089000e20f500003003a000b
:105c4000b04680001000780003003700b0468000a6
:105c50000080e80010007800100798000e089000ff
:105c6000e10f5000030032000e089000e20f5000d8
:105c700003003a00c046800010007800030037009f
:105c8000c04680000080e8001000780020079800df
:105c9000fc00370040418000e20f500024003c002f
:105ca0000e089000e50f500003003c00b046800055
:105cb0001000780003003700b04680006600400006
:105cc00010007800100798000e0890000000e00017
:105cd0000f0032000e089000e20f50000c0032005e
:105ce0000e089000e40f5000090032000e089000ea
:105cf000e60f5000060032000e089000e80f50003a
:105d0000030032000e089000ea0f500003003a0032
:105d1000c04680001000780003003700c0468000b5
:105d2000660040001000780020079800d50037007a
:105d30000e0890000000e000030032000e08900002
:105d4000e10f50001c003a00b0468000900078003f
:105d5000110798000e0890000000e0000f003200cc
:105d60000e089000e20f50000c0032000e08900068
:105d7000e40f5000090032000e089000e60f5000ba
:105d8000060032000e089000e80f500003003200b9
:105d90000e089000ea0f500003003a00c046800051
:105da0001000780003003700c04680006600400005
:105db00010007800200798000e089000e20f5000b5
:105dc000030032000e089000e30f50001d003a005f
:105dd000b04680000080e8001001780012079800ab
:105de0000e0890000000e0000f0032000e08900046
:105df000e20f50000c0032000e089000e40f50003b
:105e0000090032000e089000e60f50000600320034
:105e10000e089000e80f5000030032000e089000ba
:105e2000ea0f500003003a00c046800010007800de
:105e300003003700c0468000660040001000780074
:105e4000200798000e089000e40f50000300320075
:105e50000e089000e50f50001d003a00b04680008b
:105e60006400400090007800110798000e08900030
:105e70000000e0000f0032000e089000e20f50001a
:105e80000c0032000e089000e40f500009003200b0
:105e90000e089000e60f5000060032000e08900039
:105ea000e80f5000030032000e089000ea0f500087
:105eb00003003a00c046800010007800030037005d
:105ec000c04680006600400010007800200798005f
:105ed0000e089000e60f5000030032000e089000fc
:105ee000e70f50001d003a00b046800066004000f9
:105ef00010017800120798000e0890000000e000e2
:105f00000f0032000e089000e20f50000c0032002b
:105f10000e089000e40f5000090032000e089000b7
:105f2000e60f5000060032000e089000e80f500007
:105f3000030032000e089000ea0f500003003a0000
:105f4000c04680001000780003003700c046800083
:105f50006600400010007800200798000e089000ae
:105f6000e80f5000030032000e089000e90f5000c7
:105f70001d003a00b04680006800400090007800a4
:105f8000110798000e0890000000e0000f0032009a
:105f90000e089000e20f50000c0032000e08900036
:105fa000e40f5000090032000e089000e60f500088
:105fb000060032000e089000e80f50000300320087
:105fc0000e089000ea0f500003003a00c04680001f
:105fd0001000780003003700c046800066004000d3
:105fe00010007800200798000e089000ea0f50007b
:105ff000030032000e089000eb0f500020003a0022
:10600000b04680006a004000100178001207980036
:106010000e0890000000e0000f0032000e08900013
:10602000e20f50000c0032000e089000e40f500008
:10603000090032000e089000e60f50000600320002
:106040000e089000e80f5000030032000e08900088
:10605000ea0f500003003a00c046800010007800ac
:1060600003003700c0468000660040001000780042
:1060700020079800030037000000000001003700ef
:10608000000000008040eb000040eb0079050700b5
:10609000a1862c001e009000008040001040780077
:1060a0002f050700a1862c002e00900000804000e4
:1060b000104078002a05070000478000e10f5000db
:1060c00003003200e20f50000800320017003700d2
:1060d000e04680009000780031079800f04680008c
:1060e0001001780042079800100037005fef0700aa
:1060f00061006000004078000004e000030032000e
:10610000e04680001000780003003700e046800081
:106110000080e8001000780030079800f04680000a
:106120009000780041079800000000004046800081
:106130006101b8000080eb008080eb0002004000ad
:1061400083804800f204200003002000820f5000ea
:10615000838f580094013e00006001005200370018
:106160004e003700900137008f0137008e01370055
:106170008d0137008c0137008b0137008a01370011
:106180005200370088013700870137008601370049
:1061900085013700dc0037008301370082013700ba
:1061a00081013700800137005b0037006200370053
:1061b0007d0137007c0137007b013700820037000a
:1061c0008900370078013700770137007601370002
:1061d000a9003700740137007301370072013700de
:1061e00071013700700137006f0137006e01370011
:1061f0006d0137006c013700e10037006a0137009c
:10620000e80037006801370067013700f600370003
:106210006501370064013700630137006201370010
:1062200061013700600137005f0137005e01370010
:106230005d0137005c0137005b0137005a01370010
:106240005901370058013700570137003001370036
:106250005501370054013700530137005201370010
:1062600051013700500137004f0137004e01370010
:106270004d0137004c0137004b0137004a01370010
:106280004901370048013700470137004601370010
:106290004501370044013700250137000000eb00bd
:1062a00050468800400137001e0078006100600001
:1062b0000000e000020032006e0090000100370094
:1062c0000000eb0050468800370137002e08900090
:1062d0000000400000017800706626000090b900c0
:1062e000c288de004f90de0000805000100f980042
:1062f0002e0890009e0050001e089000808f5000d5
:1063000002003c006e009000010037000000eb002e
:1063100050468800240137001e0090005cef070003
:106320000000e000020032001000200001003700f1
:1063300020002000a04688009e0078005000200029
:1063400000017800110009008200d8008000fd00e3
:10635000e20f500012003200e20f500005003c0036
