:020000040000fa
:080000000007040000000000ed
:020000040000fa
:0400080040090000ab
:020000040000fa
:04000c0040090000a7
:020000040000fa
:0400100040090000a3
:020000040000fa
:04001400400900009f
:020000040000fa
:04001800400900009b
:020000040000fa
:04001c004009000097
:020000040000fa
:040020004009000093
:020000040000fa
:04002400400900008f
:020000040000fa
:04002800400900008b
:020000040000fa
:04002c004009000087
:020000040000fa
:040030004009000083
:020000040000fa
:04003400c8070000f9
:020000040000fa
:04003800400900007b
:020000040000fa
:04003c004009000077
:020000040000fa
:040040004009000073
:020000040000fa
:04004400400900006f
:020000040000fa
:04004800400900006b
:020000040000fa
:04004c004009000067
:020000040000fa
:040050004009000063
:020000040000fa
:04005400ee080000b2
:020000040000fa
:04005800400900005b
:020000040000fa
:04005c004009000057
:020000040000fa
:040060004009000053
:020000040000fa
:04006400400900004f
:020000040000fa
:04006800400900004b
:020000040000fa
:04006c004009000047
:020000040000fa
:040070004009000043
:020000040000fa
:04007400400900003f
:020000040000fa
:04007800400900003b
:020000040000fa
:04007c004009000037
:020000040000fa
:040080004009000033
:020000040000fa
:04008400400900002f
:020000040000fa
:040088000209000069
:020000040000fa
:04008c004009000027
:020000040000fa
:040090004009000023
:020000040000fa
:04009400400900001f
:020000040000fa
:04009800400900001b
:020000040000fa
:04009c004009000017
:020000040000fa
:0400a0004009000013
:020000040000fa
:0400a400400900000f
:020000040000fa
:0400a800400900000b
:020000040000fa
:0400ac004009000007
:020000040000fa
:0400b0004009000003
:020000040000fa
:0400b40040090000ff
:020000040000fa
:0400b80040090000fb
:020000040000fa
:0400bc0040090000f7
:020000040000fa
:0400c00040090000f3
:020000040000fa
:0400c40040090000ef
:020000040000fa
:0400c80040090000eb
:020000040000fa
:0400cc0040090000e7
:020000040000fa
:0400d00040090000e3
:020000040000fa
:0400d40040090000df
:020000040000fa
:0400d80040090000db
:020000040000fa
:0401080040090000aa
:020000040000fa
:04010c0040090000a6
:020000040000fa
:0401100040090000a2
:020000040000fa
:04011400400900009e
:020000040000fa
:04011800400900009a
:020000040000fa
:04011c004009000096
:020000040000fa
:040120004009000092
:020000040000fa
:04012400400900008e
:020000040000fa
:04012800400900008a
:020000040000fa
:04012c004009000086
:020000040000fa
:040130004009000082
:020000040000fa
:04013400400900007e
:020000040000fa
:04013800400900007a
:020000040000fa
:04013c004009000076
:020000040000fa
:040140004009000072
:020000040000fa
:04014400400900006e
:020000040000fa
:04014800400900006a
:020000040000fa
:04014c004009000066
:020000040000fa
:040150004009000062
:020000040000fa
:04015400400900005e
:020000040000fa
:04015800400900005a
:020000040000fa
:04015c004009000056
:020000040000fa
:040160004009000052
:020000040000fa
:04016400400900004e
:020000040000fa
:04016800400900004a
:020000040000fa
:04016c004009000046
:020000040000fa
:040170004009000042
:020000040000fa
:04017400400900003e
:020000040000fa
:04017800400900003a
:020000040000fa
:04017c004009000036
:020000040000fa
:040180004009000032
:020000040000fa
:04018400400900002e
:020000040000fa
:04018800400900002a
:020000040000fa
:04018c004009000026
:020000040000fa
:040190004009000022
:020000040000fa
:04019400400900001e
:020000040000fa
:04019800400900001a
:020000040000fa
:04019c004009000016
:020000040000fa
:0401a0004009000012
:020000040000fa
:0401a400400900000e
:020000040000fa
:0401a800400900000a
:020000040000fa
:0401ac004009000006
:020000040000fa
:0401b0004009000002
:020000040000fa
:0401b40040090000fe
:020000040000fa
:0401b80040090000fa
:020000040000fa
:0401bc0040090000f6
:020000040000fa
:0401c00040090000f2
:020000040000fa
:0401c40040090000ee
:020000040000fa
:0401c80040090000ea
:020000040000fa
:0401cc0040090000e6
:020000040000fa
:0401d00040090000e2
:020000040000fa
:0401d40040090000de
:020000040000fa
:0401d80040090000da
:020000040000fa
:100e00002fb220000e7f22000e018800000000009b
:100e1000000020000000e00002003200000120007d
:100e200020028800140007009e0107000000e00077
:100e300003003a00e05224000100200002003700c5
:100e40000000200001002000810f7000010032002e
:100e500014000700000020000000e0000200320043
:100e6000000002000000000002100200000000006c
:100e70000040da000000fe004440a900603a200073
:100e80000000e0000300320000002000a001880004
:100e90004440a800000006008a1f78008b1f7800dd
:100ea0000000060091018800800478000000eb003b
:100eb0001a003700e284440032a0b4009905ba0059
:100ec000e284440032a0b4009906ba00e2844400ef
:100ed00032a0b4000006eb00476fde00fd07b20051
:100ee000636ce10003003a00ebff07000000eb0039
:100ef0000a003700606ce10004003a00005deb007e
:100f00008b05e900fdff3e00040037006168e10049
:100f1000010032000086eb000b00070019c7ba0081
:100f20001905ba000e04e00003003a000a00e000d0
:100f3000e0ff3a0000000600fe07b2009e018800b4
:100f40008a047800f5ff3700395dba008b05e900a7
:100f50000c003200295dba008b05e9000800320060
:100f60000c00e00003003a00e284440032a0b40028
:100f7000f5ff370019ddba008b05e900faff3a00ea
:100f80008904e800e184440032a0b40000000600b7
:100f90003600f800809fbe00829fbe00849fbe0086
:100fa000869fbe000400fa0050002000a71407002e
:100fb000f51a07002ae8b7002ac8bf00e14f400031
:100fc0000c00320014c8bf000004e00009003a0021
:100fd000a182200091407800014f780000c0eb0012
:100fe0002ae8b7001e00fb0080007800f004200013
:100ff0001d150700808d20001040780061406000c2
:101000000080fb00610060004900dd00d216800016
:10101000f1df2f008100610001007000d016880010
:1010200080408000100798009e0090006041800082
:10103000808f50000a003c009e009000b04080006d
:10104000808f5000060035000000eb00304888001b
:101050000000eb0040488800e702a9003800370094
:10106000304880000000e00007003a002040800087
:1010700031408000504888006148880020002000ee
:10108000304888002e00370030488000e20f5000c2
:101090002b003a0050488000614880006a014000ff
:1010a000e08148002040800031408000800f5100e6
:1010b000818f590022003100e702a8009e009000b5
:1010c00060418000808f500008003400804880001c
:1010d0000000e80080488800c0c4b30015e8b700ed
:1010e000c004200040488800070037009048800076
:1010f0000000e80090488800200520004048880053
:1011000020c5b30015e8b7008000200030488800f3
:1011100014c8bf000004e00009003a00518120001b
:1011200091407800114798001568ef001e4090002c
:101130000000fb00800078000000eb00ca140700ec
:101140002040800031408000421f2000030020002a
:1011500063020700e00f5000e08f580017003a00cc
:1011600014c8bf000004e00014003a00a04880004a
:101170000000e000030032001e0090008000eb0041
:10118000fb1907009e00900060418000808f500096
:10119000030034001100200070042000b214070086
:1011a0009e009000b0408000808f500003003d0002
:1011b0002100200070042000ab1407008460a90007
:1011c0000080fa004f03be004f02be004f01be0078
:1011d0004f00be003600f90000400600801f780076
:1011e0000000fa0000148000904088001014800075
:1011f000804088008560a9000080fa004f007800d8
:10120000004006003600f800809fbe00829fbe00ae
:10121000849fbe00869fbe000000fa00c0108000c0
:10122000620060000000e000010032001822a90006
:10123000e01080004041880041418000a002200071
:10124000808f500006003a008000eb00d0032000a1
:101250008514070020032000511407000000fe0041
:101260008700a9000080fa004f03be004f02be00b5
:101270004f01be004f00be003600f90000400600de
:101280000040da000000fe00889fbe008004780065
:10129000004980000000e00004003a000e00070052
:1012a0000084eb000000e0000800350008498000e1
:1012b0000900e000050032000900440006000700b4
:1012c0000000e00001003d000084eb000800780011
:1012d0004f04be0000000600800078000100e0001e
:1012e00003003a0020922000004988000000050019
:1012f0000080eb0022b22000828f500002003e00ee
:10130000014988000000eb00000006000602ab0067
:10131000feff3a000642ab00fcff3a000662ab005b
:10132000faff3a000682ab00f8ff3a0009c2ab00b0
:10133000f6ff3a00000006000662a8000662ab0055
:10134000feff3a0008c2a90000108000000006005d
:101350008040780000c0eb008180fb001110880005
:1013600008e2ab0007003a0009c2ab00feff3a00fa
:10137000e6ff07000040eb000802e20001003d002c
:10138000e0cfb30000000600211088003010880074
:10139000000006000602a800000006000642a800a1
:1013a000000006008460a900e7006000f2ff28004a
:1013b000cc08dd00a3048000030161006800600028
:1013c0000281700071ff2f00a20488006204800077
:1013d00082806000810070006104880000000600c7
:1013e000001020001802b6000000e9004f00de00e7
:1013f0000000060017e2a9008f00a9008f20a900b5
:101400008700a9008720a900000006008700a90026
:10141000e70060008720a9000001780083ff2f000b
:101420000207b2000405800084816100838170009e
:10143000e800600003058800c308de00f3f82f0011
:10144000e18060000405800084816100c808dd003f
:10145000830171000008b20003058800f2ef2f003d
:101460004700de007304800003016100610060003a
:10147000028170004900dd0072048800f1df2f0056
:101480007404800084806000810070007104880012
:1014900000000600f2108800b0108800c11088001b
:1014a00000000600000005003200f80091018800ed
:1014b0000008bb00410424006210e1000400320077
:1014c000000220000010e1000a003a00510424004c
:1014d000013b88000500fc0051052000313b8800dd
:1014e000a10a2000313b880061e7a800000000004d
:1014f000000000003200f900000006003200f80091
:1015000060042400003b8800f2ff37003200f8003e
:101510009101880041002400013b88000208bb00c3
:10152000ecff37003200f8009101880051002400e0
:10153000013b8800030120003218bb008301e90051
:10154000fdff3a00e3ff37003200f8009101880008
:1015500080027800620040003549ba00e08048000f
:101560003204e0000410a700100032008301e900fb
:101570000e0032002549ba003204e0000410a70032
:101580000a0032008301e900080032000408a300c9
:10159000eeff320015c9ba003204e0000410a700c3
:1015a000020032008301e900e8ff3a003200f9004e
:1015b0000000060003f0a200889fbe008a9fbe00c4
:1015c0008c1f7800fa000700010133006450e1002d
:1015d0004f0032006420e1005200320003826c00b0
:1015e00007003b000905d0000306d000820f54001d
:1015f0000c065d000200390002003200890178000b
:10160000030678008582550004003d000003fd00bc
:101610008103fd008502ea008b854200840f720081
:1016200002003b0060001000e08018006011b8006c
:101630000005eb007a28e1000a0039000600780076
:10164000c75ddd00f707b200878075002d00370009
:10165000828171000a017800610560008180d100fb
:101660000080d3008502e900f9ff3b00060440003a
:101670008784480002003b0060041400e0841c00e2
:101680000988a300070032008a81710082817100fd
:10169000610164008904d1000884d3008b05e8004f
:1016a000170037000978a30013003a000b00e00090
:1016b000130034008b05e9000804440089844c00c1
:1016c0000a4474000978a3000d003a000b00e00002
:1016d000070034008b05e9000804440089844c00ad
:1016e00001003a000b0020000978a300f7ff320048
:1016f0000001eb0002003700828171000a017800ce
:10170000700007000cf0a70001f0a000b90037003e
:101710006420e10002003a00838f6c00b9003300be
:101720000801be000200be00b2003700889fbe0064
:101730008a9fbe008c1f78009d000700a400330024
:1017400003866c006450e1002e0032006420e1004a
:10175000330032006150e1002f0032006120e100cf
:101760003100320085855500eb07b00009002000ec
:1017700008042000050037000804440089844c0058
:101780000a0031000603430087834b000001530029
:1017900081815b00f8ff33000203be000800a00057
:1017a0000804440089844c00f6ff3900c639dd0086
:1017b0008301730001003200130020008904d1006e
:1017c0000884d3000998a300050032000800a70090
:1017d0000300a0008904d1000884d3008b05e80031
:1017e0008904d1000884d3000001eb000281d200fb
:1017f0003400070001f0a1000cf0a70001f0a000e8
:101800007c0037006420e1007e0032000801be0049
:101810000200be00f7ff37006120e10079003200ce
:101820006000b800f3ff37000000200001f8270037
:10183000f0ff37000001be00480007000470a70059
:1018400003f0a1006509b100160032000d0035005b
:101850006828e10006003500f0ff2f00f1ff2700a7
:101860000300e00013003b00010028000000050019
:1018700000004000818048008502e900fcff3a003a
:1018800008003700f88f420002003c008000eb00a7
:10189000000005008100d1000080d3008502e8002f
:1018a000fcff3a000300e00002003b006000100073
:1018b000e0801800000006004f89de0082017800f9
:1018c0008a00370081002000618055000b003d0038
:1018d0000b00200061fe2f000100e1001d0034001c
:1018e00082817100610164008904d1000884d30001
:1018f0000000e800faff3a00710020006100640077
:10190000030070000200600009003200610444001e
:10191000e0844c000988a500050032008b05e80032
:101920006808e10002003a008904d1000884d3006d
:10193000f20f20000258e10005003d00c75ddd0008
:10194000f907b200898075000800780000000600e1
:101950000bf827008b00780000000500c70ade00a6
:10196000f107b200f50fb20008003200e1cf4200eb
:10197000020032000170a00024000500810f7000f9
:10198000010032000408050044000500810f7000ca
:1019900002003a00140005008502e9000000400042
:1019a00081c04800fcff3b000170a000240005003e
:1019b0000004be00e9ff07000003be000405be00ee
:1019c0000200be00e5ff0700844f7500000006001e
:1019d0000200be006450e100050036006420e10012
:1019e000020036000968a30001003a000800be00aa
:1019f0000160a0004f0678004f05be004f04be00f6
:101a000000000600f0ff2f00f1ff2700f9ff37006c
:101a1000889fbe008a9fbe008c1f7800e4ff0700ed
:101a2000ebff330003866c006450e10024003200b9
:101a30006420e100270032006150e1002200320002
:101a40006120e100210032008b854200eb07b100ec
:101a50000134b800003ab8000804420089844a0002
:101a6000013ab8000030b8008880400009014a00ff
:101a7000040033000000400081804800020149005a
:101a80008b05e900c909dd00830170000100320007
:101a900013002000c814de004814dd004709de00f2
:101aa0001200b200c808de000884700085ff07003d
:101ab00001f0a1000cf0a70001f0a000cdff37005d
:101ac0006120e100cfff32000801be000200be002d
:101ad000f7ff37006150e100fcff3a00c9ff370013
:101ae000410007000400be0000000600881f7800c7
:101af000030478000300e00007003d0060001000d0
:101b0000e080180060011900e081190002003b002c
:101b100001f02d00030037000400070008f0a700c3
:101b200001f0a0004f04780000000600889fbe006e
:101b30008a9fbe000082700004027100048271005e
:101b4000260032000004be000200be006011b80092
:101b50006b092000950220000182cf000a003900a5
:101b60000541b1000082cf00070039000541b100f6
:101b70000982cf00040039000541b1000882cf007e
:101b8000010039000541b100054252001200320047
:101b90000a003b0082817100610164008100d10074
:101ba0000080d3008984d3000884d3008b05e8002b
:101bb0000442e800f7ff3a00070037000804440039
:101bc00089844c0000004800818048008b05e900b2
:101bd0000442e900f9ff3a003aff07004f05be0052
:101be0004f04be00000006006022b800060220007c
:101bf0000000d0008180d2000482d2008582d20011
:101c00000000a0000202520083825a00030031004b
:101c10000202420083824a000000a1000603e9009c
:101c2000f3ff3a00000006000000e0002f00320041
:101c3000c0017800e38f51002c0036000308a30098
:101c40002a003a00c14880000100e0000200320092
:101c5000810f50000400310011009800c048880036
:101c60001600370082007800110190000200e000a9
:101c700002003200800f5100faff39001102780093
:101c800084824000850f500018003900808f520078
:101c900003003a0083084200010078000700370083
:101ca0000200e0000300320083014000830f510076
:101cb0000e003900120098009000980090009000eb
:101cc0000100e0000900320010014000828f500046
:101cd00006003a00629120000009eb001001780034
:101ce00011084100910090001100980000000600ca
:101cf000889fbe0000047800b14880000100e00029
:101d000002003200010078000d003700c148800059
:101d10008091200004003700910f54002500360008
:101d20000180e800910090000100e000faff3a0015
:101d300010003700920f54001e0036000280e800a9
:101d4000100178000200e000faff3a00110178006b
:101d5000c14880008091200004003700910f54009a
:101d6000140036000180e80091009000828f50003e
:101d7000faff3a00f9488000888f540001003100d2
:101d800088047800090078008e0007000000e00059
:101d900004003a00888f5400050032008904d10005
:101da000f5ff3700091878009fff0700d2ff3700c2
:101db0000000eb004f04be0000000600881f780002
:101dc000630440000800a1008000eb00800f540075
:101dd00021003600e30f540001003e0048002000bf
:101de00008007800c2ff07008000eb000000e00060
:101df0001900320090007800910178006481510050
:101e0000880f510003003100110190000208780092
:101e10000700370008814000020878009101900017
:101e20001301980010017800110914008808780047
:101e3000100178000000eb000200e0000400320016
:101e4000920190000300e000010032000280e800ef
:101e5000b04888008180e800010078004f047800d5
:101e600000000600889fbe00304280000000e000b5
:101e70000100320000000100404280000000e0004c
:101e80000100320000000100408420001004e00046
:101e900022003a00d0488000e148800088002000fd
:101ea000d26026009301200050000700f2352f0079
:101eb000e3c6230000004100818049000804e900d6
:101ec000f7ff3a00a8842000090820008884440015
:101ed000d26026009301200044000700f2352f0055
:101ee000e3c62300000041008180490000acbe0031
:101ef000890f5400f6ff3a00d0488800e148880076
:101f0000504680006146800050428800614288004f
:101f100011c0b3004084200001487800d260260040
:101f200093012000d0488000e14880002f00070086
:101f3000f2352f00e3c623000002410081824900f0
:101f4000d4488800e5488800a0842000100078006c
:101f50007f0160004211dd00e084200002014000aa
:101f60001200be0050428800614288000489be0011
:101f70000100780000f0a1004f04be000000060040
:101f8000889fbe0000047800304280000000e0001e
:101f90000100320000000100408420000048eb00f6
:101fa000404280000000e00001003200000001001b
:101fb0008004eb00d8488800e94888004f04be0040
:101fc00000000600800078000000eb000100e00047
:101fd0000500340001007800abfc0700e10f400071
:101fe00001003a000000eb0000000600020ab90000
:101ff000001bb9000200b8008100420081004300cc
:10200000000006000000fa0067100700d811070062
:102010007e100700011107004f1207002010070073
:102020002ee8b700a9120700011a2c00901a2c0004
:102030004a150700511b2c002000200057150700ef
:10204000e9000700fbff37000200fa00011c2c002a
:102050001000200051150700000f78001e007800c6
:10206000e10f500002003a00d482a80004003700bb
:102070001e007800e20f500001003a00d4a2a80030
:102080000080fa00000006000200fa00000f78004d
:102090001e007800e60f5000090032001e00780094
:1020a000f00f5000060032001e007800f10f5000c3
:1020b000030032001e007800e30f500002003a00d7
:1020c00010002000010037000000eb000080fa0043
:1020d000000006000400fa00f04680000000e00066
:1020e00031003400f04680000000400033ff07005c
:1020f000d0468800e141800070032000808f5000ae
:1021000007003200e0418000fe0f50000400320062
:10211000f04680000000400028ff0700e0468800ed
:102120000000eb00000f78001c003700811c2c0021
:10213000200020001915070010079800d1468000e4
:102140001e00780000004000008040009e009000cb
:1021500001087800e141800070032000808f50006a
:102160000d003200e0418000fe0f50000a003200f6
:10217000611d2c00200020000815070010079800a2
:10218000e14680001e007800000040000080400012
:102190009e009000010878001e0fe800f0468000c5
:1021a0009e0f5000e1ff3c00204780000000e0004f
:1021b000230034002047800000004000fffe07009d
:1021c000004788002047800000004000fbfe070019
:1021d000104788000000eb00000f78001500370062
:1021e000211e2c0020002000ec140700100798008e
:1021f000014780001e007800000040000080400081
:102200009e00900001087800111f2c002000200083
:10221000e214070010079800114780001e007800a4
:1022200000004000008040009e00900001087800ff
:102230001e0fe800204780009e0f5000e8ff3c0082
:10224000404780000000e000150034004047800057
:1022500000004000d9fe0700304788000000eb0076
:10226000000f78000b003700e11f2c002000200039
:10227000ca14070010079800314780001e0078003c
:1022800000004000008040009e009000010878009f
:102290001e0fe800404780009e0f5000f2ff3c00f8
:1022a0000080fa00000006000200fa00e1202c0085
:1022b00010002000b9140700000f78001e007800fd
:1022c000e20f500008003200e30f50000a00320015
:1022d000e10f500013003a001100200040002000e0
:1022e0004d1507000f0037001100200030002000be
:1022f000491507000b0037001100200040002000a6
:10230000451507000000000000000000000000006c
:102310000000000011002000300020003e150700e2
:10232000000000000080fa00000006000800fa002b
:1023300020079800310798003e0090000000e00060
:1023400004003a00d1212c00100020009314070053
:10235000300798003e009000e10f500003003a0063
:102360004000200010079800050037003e00900054
:10237000e20f500002003a003000200010079800e1
:102380000000eb00000f7800110037001100200062
:102390001e0090002015070000428000001007007a
:1023a0008000eb001e0090001b150700014280001a
:1023b000401f2000808f500004003c00004280003d
:1023c000411f200000805000f50f07001e0fe8009d
:1023d0002e0090009e007800808f5000ebff3500ab
:1023e0000080fa00000006008200fa0000879800d2
:1023f0000000eb002d1107004200dd006041880065
:10240000a0002000291107004200dd00b040880034
:10241000200020002511070000428800c000200095
:1024200022110700104288002040800031408000c7
:1024300000007800d2fe07000e8090006101b90014
:10244000b0fe2f00f1ff2f00020040008380480003
:102450000205200003002000820f5000838f5800e7
:10246000a4053e0000600100500037005f00370007
:1024700060003700640037006500370070003700e7
:1024800099003700c6003700c7003700ca00370080
:10249000cb00370097053700ce003700f900370032
:1024a000240137004f0137007e013700ab013700b0
:1024b000d8013700030237002c02370057023700db
:1024c00080023700a0023700a1023700e202370085
:1024d000fc023700230337004c0337008505370023
:1024e000740337007503370078033700a4033700ff
:1024f000f60337007f0537007e0537007d0537007e
:102500007c0537007b053700340437006904370049
:10251000a8043700db0437000e05370041053700fb
:1025200074053700730537007205370071053700f1
:10253000700537006f0537006e0537006d053700f1
:102540006c0537006b0537006a05370069053700f1
:1025500068053700670537006605370065053700f1
:1025600064053700630537006205370061053700f1
:10257000600537005f0537005e0537005d053700f1
:102580005c0537005b0537005a05370059053700f1
:1025900058053700570537005605370055053700f1
:1025a000540537005305370042033700c1222c0081
:1025b00010002000f91307005007980031232c0069
:1025c00020002000f513070060079800a1232c00cd
:1025d00010002000f1130700700798007e019000a2
:1025e000ee0090005e0090005a0507003e060700ce
:1025f0005005370001242c0010002000e7130700cd
:10260000f04188004b053700ff07070049053700f8
:1026100010002000a048880011252c002000200078
:10262000de130700000f98008e089000400620007f
:102630000088b90000007800000707003d0537005a
:10264000e1252c00f0252c00c413070081262c0066
:1026500010002000d1130700100f98001e089000f2
:102660000000e000020032002000200001003700de
:10267000a000200070468800b0002000804688003e
:1026800060062000e041880021272c001000200077
:10269000c2130700a047880020002000f0468800f1
:1026a0008cfe070031282c0020002000bb130700ff
:1026b000d047880021292c0020002000b7130700f4
:1026c000e0478800f1292c0020002000b313070008
:1026d000200f98002e0990004101200040012000a9
:1026e000210c070013053700a106200081004700d8
:1026f00042512c000a000900b21878000000eb00db
:10270000000f7800080037001e007800000040002d
:10271000000047005030900012002000a10020006f
:102720002d0507001e0fe8001e007800ea0f50007c
:10273000f5ff36000000eb00000f780011003700b5
:1027400011002000400020003314070000428000e8
:10275000130f07008000eb00400020002e1407003c
:1027600001428000401f2000808f500004003c0088
:1027700000428000411f200000805000080f070029
:102780001e0fe8001e007800f30f5000ecff34002d
:10279000808d200011c0b30001487800e5043700a7
:1027a000c1fe0700e30437008000eb004006200074
:1027b000defe0700df043700c40b0700dd0437002e
:1027c000f12a2c001000200074130700c30d07002d
:1027d000d8043700d12b2c00502c2c005f1307009d
:1027e00081262c00100020006c130700300f980089
:1027f0003e0890000000e0000200320020002000af
:1028000001003700300020007046880030062000ac
:10281000e0418800100020002048880021272c007b
:10282000100020005d130700a04788002000200052
:10283000f04688000000eb004047880025fe0700b6
:1028400031282c002000200054130700d0478800b6
:1028500021292c002000200050130700e0478800a9
:10286000f1292c00200020004c130700400f980095
:102870004e0990004101200040012000ba0b0700e2
:10288000ac043700e1252c00502c2c00331307003a
:1028900081262c001000200040130700500f9800e4
:1028a0005e0890000000e0000200320020002000de
:1028b000010037003000200070468800b000200082
:1028c00080468800e0062000e041880021272c0097
:1028d0001000200031130700a047880020002000ce
:1028e000f04688000000eb0040478800f9fd070033
:1028f00031282c002000200028130700d047880032
:1029000021292c002000200024130700e047880024
:10291000f1292c002000200020130700600f9800f0
:102920006e09900041012000400120008e0b07003d
:1029300080043700a12c2c00302d2c000713070039
:1029400081262c001000200014130700700f98003f
:102950007e0890000000e00002003200200020000d
:1029600001003700a000200070468800b000200061
:102970008046880060062000e041880021272c0066
:102980001000200005130700a04788004000200029
:10299000f04688000000eb0040478800cdfd0700ae
:1029a00031282c0020002000fc120700d0478800ae
:1029b00021292c0020002000f8120700e0478800a1
:1029c000f1292c0020002000f412070000179800c5
:1029d0000e1190004101200080022000620b0700d0
:1029e00054043700312e2c00802e2c00db120700ff
:1029f00081262c0010002000e81207001017980014
:102a00001e1090000000e0000200320020002000b4
:102a1000010037001000200070468800b000200040
:102a200080468800e0012000e0418800012f2c0052
:102a300010002000d912070040478800a12f2c0069
:102a400010002000d5120700204888000000eb008d
:102a5000a047880020002000f04688009dfd070068
:102a600031282c0020002000cc120700d04788001d
:102a700021292c0020002000c8120700e047880010
:102a8000f1292c0020002000c41207002017980014
:102a90002e1190004101200040012000320b070060
:102aa0002404370041302c0030312c00ab120700d9
:102ab00081262c0010002000b81207003017980063
:102ac0003e1090000000e0000200320020002000d4
:102ad00001003700a000200070468800b0002000f0
:102ae0008046880000032000e0418800100020009c
:102af000204888000000eb00404788000000eb0001
:102b0000a047880060002000f04688006000200098
:102b1000004888006ffd070031282c0020002000ad
:102b20009e120700d047880021292c002000200099
:102b30009a120700e0478800f1292c0020002000ad
:102b400096120700401798004e1190004101200096
:102b5000c0032000040b0700f6033700c1312c002e
:102b6000302d2c007d12070081262c001000200043
:102b70008a120700501798005e1090000000e000d5
:102b8000020032002000200001003700a0002000d9
:102b900070468800b0002000804688006006200053
:102ba000e041880021272c00100020007b12070044
:102bb000a047880060002000f046880060002000e8
:102bc000004888000000eb004047880041fd0700f6
:102bd00031282c002000200070120700d047880008
:102be00021292c00200020006c120700e0478800fb
:102bf000f1292c00200020006812070060179800bf
:102c00006e11900041012000c0032000d60a070089
:102c1000c803370041302c0030312c004f12070020
:102c200081262c00100020005c120700701798000d
:102c30007e1090000000e000020032002000200022
:102c4000010037001000200070468800b00020000e
:102c50008046880000032000e04188000000eb006f
:102c6000404788000000eb00a0478800600020007b
:102c7000f0468800600020000048880015fd07002d
:102c800031282c002000200044120700d047880083
:102c900021292c002000200040120700e047880076
:102ca000f1292c00200020003c120700001f980092
:102cb0000e19900041012000c0032000aa0a07005d
:102cc0009c03370041302c0050322c0023120700a7
:102cd00081262c001000200030120700101f9800e1
:102ce0001e1890000000e0000200320020002000ca
:102cf000010037001000200070468800b00020005e
:102d00008046880000032000e04188000000eb00be
:102d1000404788000000eb00a047880060002000ca
:102d2000f046880010002000204788006000200046
:102d300000488800e7fc0700c0002000d04788005a
:102d400050002000e0478800f1292c0020002000de
:102d500012120700201f98002e1990004101200038
:102d6000c0032000800a07007203370041302c00a6
:102d700060332c00f911070081262c001000200080
:102d800006120700301f98003e1890000000e00077
:102d90000200320020002000010037001000200057
:102da00070468800b00020008046880000032000a4
:102db000e041880010002000204888000000eb005f
:102dc000404788000000eb00a0478800600020001a
:102dd000f046880020002000204788006000200086
:102de00000488800bbfc0700c0002000d0478800d6
:102df00050002000e0478800f1292c00200020002e
:102e0000e6110700401f98004e1990004101200074
:102e1000c0032000540a07004603370041302c004d
:102e200060332c00cd11070081262c0010002000fb
:102e3000da110700501f98005e1890000000e000b3
:102e400002003200200020000100370010002000a6
:102e500070468800b00020008046880000032000f3
:102e6000e04188000000eb00404788000000eb00d4
:102e7000a047880060002000f04688002000200065
:102e800020478800600020000048880091fc07006f
:102e9000c0002000d047880050002000e047880094
:102ea000f1292c0020002000bc110700601f9800b1
:102eb0006e19900041012000c00320002a0a07007b
:102ec0001c03370031342c0020002000b311070010
:102ed000701f9800f1342c0020002000af11070073
:102ee0000027980071352c0020002000ab1107004e
:102ef00010279800f1352c0020002000a7110700b2
:102f000020279800fe18900011079800070037004e
:102f10001e219000ae2090001e0090002e0307009e
:102f20001e0090000000e80010079800fe189000b6
:102f30000e209000808040001e009000808f500086
:102f4000f3ff3c00fb0237003ffc0700f9023700ab
:102f500041362c0030312c008011070081262c00d6
:102f6000100020008d110700302798003e219000ae
:102f7000224888003e2090000000e000020032005d
:102f8000200020000100370010002000704688005b
:102f9000b00020008046880000032000e041880047
:102fa0000000eb00404788000000eb00a0478800cd
:102fb00051372c001000200078110700f0468800df
:102fc00044fc07000000eb0020079800f04680005a
:102fd000e40f500007003200e60f500008003200f6
:102fe000e20f50000b003a0040012000200798003b
:102ff00008003700800220002007980005003700f5
:103000006000200000488800c003200020079800ce
:103010000000000031282c00200020005f11070074
:10302000d047880021292c00200020005b110700d8
:10303000e0478800f1292c002000200057110700ec
:10304000402798004e219000410120002e00900062
:10305000c5090700b702370001382c0030312c00b9
:103060003e110700f0002000704688000003200099
:10307000e04188000000eb00404788000000eb00c2
:10308000a047880060002000f04688006000200013
:10309000004888000ffc070080002000d04788000f
:1030a00050002000e0478800e001200050279800f1
:1030b0005e21900041012000c0032000aa09070002
:1030c0009c023700b1382c0040392c002311070036
:1030d00081262c0010002000301107006027980086
:1030e0006e2090000000e00002003200200020006e
:1030f000010037003000200070468800b00020003a
:1031000080468800d0052000e04188000000eb00e8
:10311000a047880020002000f04688002000200002
:10312000204788000000eb0040478800e9fb0700cb
:10313000a0002000d0478800f0002000e047880071
:10314000f1292c002000200014110700702798009e
:103150007e219000810220004001200082090700aa
:1031600074023700b1382c0040392c00fb100700e6
:1031700081262c001000200008110700002f980065
:103180000e2890000000e000020032002000200025
:1031900001003700a000200070468800b000200029
:1031a00080468800e0052000e04188000000eb0038
:1031b000a047880020002000f04688001000200072
:1031c000204788000000eb004047880010002000e6
:1031d00020488800bffb0700a0002000d0478800df
:1031e000f0002000e0478800f1292c00200020009a
:1031f000ea100700102f98001e299000810220007d
:1032000040012000580907004a02370031232c00f2
:1032100020002000e1100700202f98002e289000a9
:10322000ef0f5000030034002e2890007000500073
:10323000010037002e289000ce0c07002e289000a9
:10324000ef0f500002003c00e0ff2f0001003700ac
:10325000b0ff2f00060d0700401f2000500c070094
:103260002e289000ef0f500002003c00c0ff2f00fe
:103270000100370030ff2f00fd0c070000a62e00d4
:10328000470c07002e289000ef0f500002003c0072
:10329000d0ff2f000100370070ff2f00f40c070053
:1032a000800c20003e0c0700f0002000f00c07000e
:1032b00020023700260b07001e02370010002000f6
:1032c000a0488800250407001a02370010002000db
:1032d000a0488800e1252c00e0392c009f10070051
:1032e000200020007046880070032000e041880024
:1032f000713a2c0010002000a81007002048880018
:10330000813b2c0010002000a4100700f04788002b
:1033100021272c0010002000a0100700a0478800e3
:1033200020002000f0468800100020004047880060
:1033300068fb070031282c002000200097100700b0
:10334000d047880021292c0020002000931007007e
:10335000e0478800f1292c00200020008f10070092
:10336000302f98003e2990004106200040012000a7
:10337000fd0807000000eb00a0488800ed013700c1
:1033800010002000a0488800e1252c00803c2c0083
:103390007210070020002000704688007003200093
:1033a000e0418800713a2c00100020007b100700db
:1033b00020488800813b2c00100020007710070077
:1033c000f047880021272c00100020007310070010
:1033d000a04788000000eb00a047880020002000e4
:1033e000f0468800100020004047880031282c005b
:1033f0002000200069100700d047880021292c00f8
:103400002000200065100700e0478800f1292c000b
:103410002000200061100700402f9800613d2c0023
:10342000200020005d10070030079800f046800063
:103430000000400061fa0700d04688004047800045
:10344000000040005dfa07003047880030478000e8
:103450008000eb0001087800160037003e00900065
:10346000610060000000e00002003a0060002000ff
:103470000100370070002000502f9800d0468000d7
:10348000de28900001087800d04680000080e80027
:103490005e299000020878004e2990004106200025
:1034a00040002000b00807003e0090000000e90046
:1034b000300798003e0090000000e000e7ff3c006d
:1034c0000000eb00a04888009a013700e1252c009d
:1034d000603e2c002110070020002000704688006c
:1034e00070032000e0418800600020000048880050
:1034f000200020002048880010002000f0478800ad
:103500000000eb00a047880060002000f046880023
:103510001000200040478800f04680000000400076
:1035200026fa0700d046880040478000000040008f
:1035300022fa070030478800304780008000eb0007
:1035400001087800d0468000610020000108780062
:10355000d04680000080e80071002000010878005b
:10356000d04680006400400001012000010878007e
:10357000d04680006600400011012000010878005c
:10358000d04680006800400021012000010878003a
:10359000d04680006a004000310120000108780018
:1035a00020002000d047880080002000e0478800ed
:1035b000f1292c0020002000f80f0700602f980050
:1035c0006e2990008101200080012000660807001c
:1035d0000000eb00a048880056013700d12b2c00da
:1035e000303f2c00dd0f07002000200070468800cf
:1035f000a0002000e0418800100020002048880042
:103600000000eb00a047880020002000f046880062
:10361000f046800000004000e8f90700d04688002e
:10362000f046800000004000e4f90700e046880012
:10363000d04680002100200001087800d04680009c
:103640000080e8003100200001087800e04680009a
:103650002100200001087800e04680000080e8009a
:1036600031002000010878000000eb00404788008e
:1036700031282c0020002000c80f0700d047880008
:1036800021292c0020002000c40f0700e0478800fb
:10369000f1292c0020002000c00f0700702f980097
:1036a0007e29900021032000c00020002e08070082
:1036b00020013700813f2c00303f2c00a70f07006e
:1036c000200020007046880040012000e041880072
:1036d000d13f2c0010002000b00f070020488800c8
:1036e0000000eb00a047880020002000f046880082
:1036f000f046800000004000b0f90700d046880086
:10370000f046800000004000acf90700e046880069
:10371000d04680002100200001087800d0468000bb
:103720000080e8003100200001087800e0468000b9
:103730002100200001087800e04680000080e800b9
:1037400031002000010878000000eb0040478800ad
:1037500031282c0020002000900f0700d04788005f
:1037600021292c00200020008c0f0700e047880052
:10377000f1292c0020002000880f07000037980056
:10378000d0478000f30f5000050034000042800055
:103790008080d1000042800000804000004288000c
:1037a0000e31900021032000c0002000ee0707002a
:1037b000e0003700a1402c0070412c00670f07008b
:1037c000200320007046880050012000e04188005e
:1037d0000000eb00204888000000eb00a0478800b4
:1037e00020002000f0468800f046800000004000e5
:1037f00072f90700d0468800f046800000004000c3
:103800006ef90700e0468800d046800021002000c5
:1038100001087800d04680000080e80031002000d8
:1038200001087800e04680002100200001087800af
:10383000e04680000080e8003100200001087800a8
:103840000000eb0040478800c0002000d0478800ff
:1038500080012000e04788008002200000488800a6
:10386000f1292c00200020004c0f07001037980091
:103870001e3190002103200080022000ba070700bb
:10388000ac003700a1402c0000422c00330f070091
:10389000200320007046880050012000e04188008d
:1038a0000000eb00204888000000eb00a0478800e3
:1038b00020002000f0468800f04680000000400014
:1038c0003ef90700d0468800f04680000000400026
:1038d0003af90700e0468800d04680002100200029
:1038e00001087800d04680000080e8003100200008
:1038f00001087800e04680002100200001087800df
:10390000e04680000080e8003100200001087800d7
:103910000000eb0040478800c0002000d04788002e
:1039200080012000e04788008002200000488800d5
:10393000f1292c0020002000180f070020379800e4
:103940002e3190002103200080022000860707000e
:1039500078003700a1402c0070412c00ff0e0700ba
:10396000200320007046880050012000e0418800bc
:103970000000eb00204888000000eb00a047880012
:1039800020002000f0468800f04680000000400043
:103990000af90700d0468800f04680000000400089
:1039a00006f90700e0468800d0468000210020008c
:1039b00001087800d04680000080e8003100200037
:1039c00001087800e046800021002000010878000e
:1039d000e04680000080e800310020000108780007
:1039e0000000eb0040478800c0002000d04788005e
:1039f00080012000e0478800800220000048880005
:103a0000f1292c0020002000e40e07003037980038
:103a10003e31900021032000800220005207070061
:103a200044003700a1402c0000422c00cb0e0700c0
:103a3000300320007046880050012000e0418800db
:103a40000000eb00204888000000eb00a047880041
:103a500020002000f0468800f04680000000400072
:103a6000d6f80700d0468800f046800000004000ed
:103a7000d2f80700e0468800d046800021002000f0
:103a800001087800d04680000080e8003100200066
:103a900001087800e046800021002000010878003d
:103aa000e04680000080e800310020000108780036
:103ab0000000eb004047880040012000d04788000c
:103ac00080022000e04788000003200000488800b2
:103ad000f1292c0020002000b00e0700403798008c
:103ae0004e31900021032000000320001e07070034
:103af000100037008e8090004107980007003700c3
:103b0000a2002000810020004e009000320007003b
:103b10004e0090000000e800400798000e809000e2
:103b2000e40040004e009000808f5000f4ff3c0005
:103b300000000000d04680003bf80700e04680000f
:103b400039f807003047800037f807000080fa0096
:103b5000000006000600fa00000f78001107980028
:103b6000220798003f0c0700480c0700c0422c00b9
:103b7000160c07000001eb00610020001e00780019
:103b8000dd0d070012002000610020001e009000e3
:103b9000d90d07001e0090000000e900750a07001b
:103ba00001003700000000001e80ea00b00a070094
:103bb0002e0090000000e000faff3a00401f2000b5
:103bc000f7090700f0002000a90a0700401f2000a5
:103bd000f3090700f4ff37001400fa00700798009b
:103be000010f9800120f9800401f20001007980046
:103bf000803e200020079800300c200030079800fd
:103c00000000eb00000f7800b1003700150c070032
:103c10001e0c0700a0432c00ec0b070011c0b300e2
:103c20000040eb00230c070000442c00e70b0700ca
:103c30001e00e8001200200071002000ae0d0700f9
:103c40000001eb00610020007e009000aa0d07003b
:103c50007e009000ef0f5000030034007e009000c3
:103c600070005000010037007e009000400798006f
:103c70007e009000ef0f500002003c00100020007a
:103c80000100370040002000500798007e0090009f
:103c9000ef0f500002003c00200020000100370020
:103ca0008000200060079800fe0090003000200097
:103cb000ed0907004e0090002e0a07005e009000fc
:103cc0000080ea006a0a07001e009000b40907009d
:103cd000e702a800de0090006e0090000100700076
:103ce0000080ea00620a07007e0090007000600019
:103cf0004480de0000407800614060000080fb00ee
:103d0000610060004900dd0032178000f1df2f0004
:103d10008100610001007000301788002e019000c2
:103d2000706626000090b9008180d1004f90de00bf
:103d3000008050009a0907007e0090006800600033
:103d40004380de0000407800614060000080fb009e
:103d5000610060004900dd0032178000f1df2f00b4
:103d60008100610001007000301788002e01900072
:103d7000706626000090b9008180d1004f90de006f
:103d800000805000860907007e00900064006000fb
:103d90004280de0000407800614060000080fb004f
:103da000610060004900dd0032178000f1df2f0064
:103db0008100610001007000301788002e01900022
:103dc000706626000090b9008180d1004f90de001f
:103dd00000805000720907007e00900062006000c1
:103de0000080d10000407800614060000080fb004e
:103df000610060004900dd0032178000f1df2f0014
:103e00008100610001007000301788002e019000d1
:103e1000706626000090b9008180d1004f90de00ce
:103e2000008050005e0907007e009000004078008e
:103e30006140600061406000614060000080fb0004
:103e4000610060004900dd0032178000f1df2f00c3
:103e50008100610001007000301788002e01900081
:103e6000706626000090b9008180d1004f90de007e
:103e7000808050003e0090000080500048090700fc
:103e80006e0090000080ea00f90907003e009000f3
:103e900043090700e722a900f0002000f409070009
:103ea0008000eb00300020006f090700e702a90046
:103eb0008e089000803e20000088b90080007800c5
:103ec0001e00900000805000350907001e0fe8001a
:103ed0001e0890009e007800808f50004bff350038
:103ee0000080fa00000006000800fa0071442c006f
:103ef00010002000a90d0700000f78001e007800b8
:103f00000000e00002003a0080408000010037001d
:103f100090408000300798003e019000b04721009b
:103f20000090b900c388de004f90de000080500092
:103f3000100798003e009000b14721000181b900b0
:103f40004399de00cf80de000101510041062000d0
:103f50000191b9008200780001005000200798000c
:103f60009e009000700120003f090700ae00900005
:103f7000800120003c0907002003200008090700f9
:103f8000deff37000600fa00889fbe0081408000f7
:103f90009040800000805000cf80de0046f6070091
:103fa0000004be00814080009040800000804000fe
:103fb000cf80de0040f607000001be000800be0012
:103fc000daf507000200200003f823007af5070065
:103fd00002002000034024008df6070015f60700bc
:103fe00000007800200798002e019000b0472100c3
:103ff0000090b900c388de004f90de00008f5000b3
:104000002e009000b14721000181b9004399de00e4
:10401000cf80de0001015100410620000191b9006e
:104020008200780001005000100798009e00780080
:10403000700120000c0907009e0090008001200004
:104040000909070090012000d50807002e00900004
:104050008000eb00460e070090012000d00807000a
:10406000caff37000200fa00f0f32f00f0168800b4
:104070000000eb00000f78001e00a2001e00780078
:1040800000407800614060000080fb00610060003b
:104090004600dd0002178000f1fb2f008100610067
:1040a0000100700000178800000000000000000000
:1040b000000000001e0078000040780061406000b1
:1040c0000080fb00610060004800dd0042168000b7
:1040d000f1ef2f00810061000100700040168800a0
:1040e0000000000000000000000000001e0078003a
:1040f00000407800614060000080fb0061006000cb
:104100004900dd0042168000f1df2f0081006100d0
:104110000100700040168800000000000000000050
:10412000000000001e007800004078006140600040
:104130000080fb00610060004700dd000217800086
:10414000f1f72f0081006100010070000017880066
:104150000000000000000000000000001e007800c9
:1041600000407800614060000080fb00610060005a
:104170004600dd0002178000f1fb2f008100610086
:10418000010070000017880000000000000000001f
:10419000000000001e0078000040780061406000d0
:1041a0000080fb00610060004e00dd001216800000
:1041b000f1ff2b00810061000100700010168800e3
:1041c0000000000000000000000000001e00780059
:1041d00000407800614060000080fb0061006000ea
:1041e0004c00dd00a2168000f1ff2e00810061006e
:1041f00001007000a0168800000000000000000010
:10420000000000001e00780000407800614060005f
:104210000080fb00610060004d00dd00a216800000
:10422000f1ff2d008100610001007000a0168800e0
:10423000a00f20005a0807008fff37000600fa0081
:10424000200798000000eb00804888006041800053
:10425000a80d07000000eb00000f78000000eb0045
:10426000100798007f0a0700880a070030452c00d5
:10427000560a0700803e2000010020000040880010
:1042800011408800010037000000000081488000d4
:104290001e009000808f5000170036002e00900006
:1042a0006101b9000040800011408000800f510082
:1042b000818f59000a003e001100200040002000bc
:1042c000550d07000028ef000228ef001e0fe80040
:1042d0001e00780012002000c1002000060c07001c
:1042e00081488000110798001e0090000001eb003b
:1042f000b1002000000c0700004280006101b900fd
:104300000040800011408000800f5100818f5900d3
:1043100003003e008000eb00400020003e0d07003f
:104320004141800010032000808f5000d6ff3a00ea
:104330001100200040002000370d070000428000df
:10434000170807008000eb0040002000320d070036
:104350000080eb0040418800ccff37000a00fa00e3
:1043600020032000e04188000000eb00000f7800ef
:104370000000eb00804888000000eb0090488800b7
:104380000000eb00100798000000eb0020079800e9
:104390000000eb0030079800e1452c0020002000d1
:1043a0007e0c070040079800f1462c0010472c00b7
:1043b0006a0c0700ce009000400620000088b9007b
:1043c00000007800cf80de000040880011408800a7
:1043d0000100370000000000814880002e0090009e
:1043e000808f50002a003600ce009000400620004a
:1043f0000088b900000078006101b9000040800029
:1044000011408000800f5100818f59001900310048
:104410001e007800e40f500016003200110020004a
:10442000600120001008070011002000400020005b
:10443000f90c070040002000000f78000028ef0072
:104440000228ef008040eb00f0c0b300190a07001b
:10445000c0c4b300d20907001e0090000000e800ad
:10446000100798001e00900012002000210020007c
:10447000a10b0700804880000001eb002100200014
:104480009d0b070081488000210798002d00370010
:10449000914880003e009000808f50002900360037
:1044a000ce009000400620000088b900000078008f
:1044b0006101b9000040800011408000800f510070
:1044c000818f5900190031001e007800e30f500061
:1044d000160032002100200060012000e2070700e2
:1044e0001100200030002000cb0c0700300020001d
:1044f000000f78000028ef000228ef008040eb005a
:10450000f0c0b300eb09070020c5b300a409070001
:104510001e0090000000e800100798001e009000a8
:104520001200200021002000730b0700904880003b
:104530000001eb00a10020006f0b070091488000f4
:1045400031079800004280006101b90000408000fe
:1045500011408000800f5100818f5900030031000d
:104560008000eb0040002000ab0c070010428000f0
:104570006101b9000040800011408000800f5100af
:10458000818f5900030031008000eb0030002000d3
:10459000a10c07004141800010032000808f5000d3
:1045a0000a003a0011002000400020009a0c070089
:1045b000004280007a0707008000eb0040002000e6
:1045c000950c07000080eb004041880041418000cd
:1045d00020032000808f50007eff3a001100200051
:1045e000300020008c0c0700104280006c07070090
:1045f0008000eb0030002000870c07000080eb00fb
:104600004041880074ff37000400fa0060418000d8
:10461000b80c0700b0408000b60c0700b1472c0072
:1046200010002000dd0b0700000f7800a1482c00cf
:1046300030002000d90b0700100798001e009000e2
:10464000ac0c07001e007800e10f500006003a0095
:104650001e0090004280de00800078000000eb0029
:1046600073080700080037001e007800e20f5000b2
:1046700005003a001e0090004280de0080007800b5
:10468000a00020006a0807000000000000000000f1
:10469000000000000000eb00840807004200dd007d
:1046a00060418800a0002000800807004200dd0073
:1046b000b04088000080fa00000006000800fa0000
:1046c0001007980021079800320798002e009000ec
:1046d000ef0f5000030034002e00900070005000d7
:1046e000010037002e009000a20707001e00900076
:1046f000e10f5000060032001e009000e20f500053
:10470000030032001e009000e60f500009003a003e
:104710002e009000ef0f500002003c00e0ff2f0041
:1047200001003700b0ff2f00d1070700401f200015
:10473000f20c07001e009000e30f50000100320051
:10474000e722a8001e009000e30f500012003a007c
:104750002e0090000000e00003003c002e009000be
:104760004006b000010037002e0090008000780065
:10477000300020003c0707002e009000ef0f500093
:1047800002003c00e0ff2f0001003700b0ff2f00c7
:10479000b7070700b10037002e009000ef0f500060
:1047a00002003c00c0ff2f000100370030ff2f0047
:1047b000af0707001e009000e40f50001700320002
:1047c000e40f500004003c000000e900e10f50003d
:1047d0001e003e0007003700e60f500015003200b3
:1047e000e60f500010003500e70f500014003200b3
:1047f000160037002e00900023f607000000e000ae
:104800000300320090002000000f78000f003700f6
:10481000a0002000000f78000c00370030052000b9
:10482000000f78000900370050052000000f7800c5
:1048300006003700b0002000000f780003003700aa
:10484000c0002000000f7800000000002e00900043
:104850000000e00003003a002e0090004006b00087
:10486000010037002e009000800078001e007800c4
:10487000fd0607008040eb0030c0b3000d090700c3
:104880001e009000e40f50001a003200e40f5000a8
:1048900005003c00e10f50000a003200e20f50001a
:1048a0000e00320029003700e60f50001b003200d6
:1048b000e60f500015003500e70f50001d003200d4
:1048c0002200370010c3b300b5080700504780002e
:1048d000800cb100890c07001c00370020c3b30016
:1048e000af08070070478000800cb100830c070000
:1048f0001600370030c3b300a908070090478000b6
:10490000800cb1007d0c070010003700c04780000c
:10491000800cb100790c07000c00370050c7b300c1
:104920009f08070060478000800cb100730c0700ef
:104930000600370050c5b300990807008047800083
:10494000800cb1006d0c0700000000002e009000ec
:10495000ef0f500002003c00d0ff2f000100370095
:1049600070ff2f0042070700800c2000630c070037
:10497000f00020003e0707008000eb001e007800da
:10498000b90607008040eb0030c0b300c90807003b
:104990001e009000e40f500024003200e40f50008d
:1049a00005003c00e10f500008003200e20f50000b
:1049b0001200320029003700e60f50001e003200be
:1049c000e70f50001f0032002400370040c6b3003c
:1049d000730807005047800080007800703e200078
:1049e000808f50001a003e0050478000813e20001a
:1049f00000805000410c07001800370040c4b3008d
:104a0000670807007047800080007800703e200033
:104a1000808f500010003e0070478000813e2000d3
:104a200000805000350c07000c00370020c5b30093
:104a30005b0807000900370040c6b30058080700ac
:104a40000600370040c6b3005508070003003700d2
:104a5000000000000100370000000000000000001e
:104a6000000000000000000000000000e722a90094
:104a70000080fa00000006000400fa00000f780031
:104a80001107980011002000600120007606070041
:104a900071488000c0042000808f500009003a0057
:104aa00011002000400020005b0b07000042800046
:104ab000120c07008000eb0040002000560b07009e
:104ac0000c0037007148800020052000808f5000c6
:104ad00008003a0011002000300020004e0b0700b3
:104ae00010428000050c07008000eb003000200021
:104af000490b07002228ef009e007800700020007c
:104b000059060700c04080000000e800c04088004f
:104b1000c04080000001eb0051002000f6090700b2
:104b20000080fa00000006000200fa00000f780082
:104b30002228ef009e007800400020004a0607006f
:104b4000e04080000000e800e0408800e040800095
:104b50001200200051002000e70907000080fa0041
:104b6000000006000200fa00000f780010418000eb
:104b70000000e800104188009e00780060002000de
:104b800039060700d04080000000e800d0408800cf
:104b9000d04080000001eb0091002000d609070002
:104ba000a04780000000e0000200340080382100af
:104bb000d20b07000080fa00000006000c00fa008b
:104bc000881f780020079800310798004207980056
:104bd000530798000000eb00000f78000000eb0086
:104be000100798000000eb0070488800e04180004a
:104bf000fe0f50000400320071032000810f5000ae
:104c000053003200d20037000028ef000228ef00e6
:104c10000200370040488000704888005e00900025
:104c20006101b9000040800011408000800f5100f8
:104c3000818f590003003600704880000000e000ba
:104c4000f4ff320020408000314080004040880066
:104c500051408800704880000000e00031003a00b8
:104c60002e00900008f507000000e0000b003a005d
:104c70001100200050002000fb050700f0408000dc
:104c80000000e800f0408800f040800012002000a2
:104c90009100200098090700200137001000200033
:104ca000b0ff07006ff40700f141800001017800b8
:104cb000110009000200d8008000fd000000e000a3
:104cc00005003a0020488000610060000040780044
:104cd0000004e00004003a0041418000100320007d
:104ce000808f50000c013a0011002000600120006c
:104cf000dd0507001100200040002000c60a070063
:104d00001100200080002000d7050700004280002d
:104d10007a0b07008000eb0040002000be0a07006d
:104d2000fe0037002e009000d7f407000000e000de
:104d300003003a00100020007bff0700f700370057
:104d400011002000100020004bff0700f300370087
:104d50000028ef000228ef00400037005e009000be
:104d6000cf00de00008040000080d1006101b9006a
:104d70000040800011408000800f5100818f590059
:104d800034003a001e0090000000e00031003a00bc
:104d9000100020001007980032f40700f141800055
:104da00001017800110009000200d8008000fd0018
:104db0000000e00005003a0020488000610060002b
:104dc000004078000004e00004003a004141800007
:104dd00010032000808f50001e003a0011002000b8
:104de00060012000a0050700ce0090008000200098
:104df0009d0507002e009000a3f407000000e000ce
:104e0000090032001100200040002000820a070043
:104e100000428000620507008000eb004000200097
:104e20007d0a070008003700110020003000200034
:104e3000790a070010428000590507008000eb0046
:104e400030002000740a07000080eb004041880019
:104e50000c00370040488000704888005e009000d9
:104e60006101b9000040800011408000800f5100b6
:104e7000818f590003003600704880000000e00078
:104e8000b6ff320020408000314080004040880062
:104e9000514088002e0090007bf407000000e000e5
:104ea0000200320010002000010037002000200026
:104eb00040079800704880000000e00006003a00bb
:104ec0004e00900027ff0700a04780000000a000d0
:104ed000a0478800910037002e0090006af4070078
:104ee0000000e0000400320071488000200520002e
:104ef000808f50000800320071488000c0042000fc
:104f0000808f50000a003a002e0090005ef40700e7
:104f10000000e00006003a004e00900002ff07008b
:104f2000a04780000000a000a04788007b00370059
:104f3000110020004e009000cffe0700a147800026
:104f4000e00f200000806000a04788007300370059
:104f50000028ef000228ef00330037005e009000c9
:104f6000cf00de00008040000080d1006101b90068
:104f70000040800011408000800f5100818f590057
:104f800027003a001e0090000000e00024003a00d4
:104f90001000200010079800b2f30700f1418000d4
:104fa00001017800110009000200d8008000fd0016
:104fb0000000e00005003a00204880006100600029
:104fc000004078000004e00004003a004141800005
:104fd00010032000808f500011003a0011002000c3
:104fe0006001200020050700ce0090008000200016
:104ff0001d0507001100200040002000060a0700e0
:1050000000428000e60407008000eb004000200022
:10501000010a07000080eb00404188000c003700c7
:1050200040488000704888005e0090006101b9002f
:105030000040800011408000800f5100818f590096
:1050400003003600704880000000e000c3ff32001b
:10505000204080003140800040408800514088005e
:10506000704880000000e00019003a002e00900017
:1050700005f40700000478003e00900002f40700e9
:10508000800f54000d003a00ce0090005000200028
:10509000f5040700f04080000000e800f0408800c0
:1050a000f0408000120020009100200092080700cc
:1050b00050002000000f7800180037004e009000cc
:1050c000a8fe070060002000000f780013003700e2
:1050d0002e009000ecf30700000478003e009000e2
:1050e000e9f30700800f540005003a004e009000dd
:1050f0008dfe070040002000000f780007003700f9
:10510000110020004e0090005bfe070070002000a0
:10511000000f780001003700000000001e0078003a
:105120004f0478000080fa00000006000800fa0032
:105130001007980021079800320798001e01900080
:10514000ae009000600020005cfd07008040eb0096
:1051500030c0b300d706070040c4b3009006070074
:105160003e0090000000e00003003a0080bb2000f9
:10517000620a07002e003700803e20005f0a070009
:10518000000f78003e009000ef0f50000300340045
:105190003e00900070005000010037003e0090007b
:1051a000f40407003e009000ef0f500002003c00a6
:1051b000e0ff2f0001003700b0ff2f002c05070093
:1051c000401f20004d0a07001e0f70001e007800cf
:1051d0000000e0000a003a001e019000be009000ae
:1051e0007000200035fd0700431f20003200200022
:1051f000be0090002e00900070fe07000c003700eb
:10520000f00020001a0507003100200040052000b2
:10521000950407008040eb0030c0b300a5060700ee
:1052200010c4b3005e060700c05d2000330a07000b
:105230000080fa00000006000600fa00100798003f
:105240002107980091478000700c2000808f50004b
:10525000400034000000eb00000f7800d0478000d1
:10526000e10f500013003400d04780008000e900b7
:10527000803e20000088b900000078001f0a070067
:105280001e0f7000d047800080007800803e200014
:105290000088b9008000780000832f000080400063
:1052a000160a07001e0f7000401f2000130a070097
:1052b0001e0f700030478000100078001e01900023
:1052c0008000780030002000fcfc0700401f200018
:1052d0000a0a07001e0f70008040eb0030c0b300c8
:1052e0007406070020488000e10f50000f003c00ca
:1052f0001e0078000000e0000c003200f0002000ea
:10530000db040700ae0090004005200056040700b3
:1053100010c4b30022060700004180000000e8002e
:10532000004188000000eb000b00370020c5b300ef
:105330001b06070030478000100078001e01900017
:105340008000780040002000dcfc070010002000f6
:10535000010037000000eb000080fa0000000600aa
:105360001000fa0030079800410798005207980093
:105370006307980074079800204080003140800047
:105380004040880051408800e0478000cf80de0028
:10539000823e20000289b900020178006002b90053
:1053a0008401780003014100833e20000300b8001f
:1053b00001014100820078002240800033408000db
:1053c0000000410081804900803eb0000180b000b3
:1053d0006040880071408800fe009000a00320001b
:1053e000210407007e00900000f0a7000000ea0002
:1053f0000000ea004f00de0080007800100420006a
:10540000190407008040eb0030c0b30029060700f4
:1054100090c4b300e2050700e0478000e30f5000ae
:1054200010003600e0478000640f50000400370091
:1054300000a62e00b109070041fc2f001e8f40007e
:10544000c00320009e007800808f5000f8ff3e00cf
:105450009e007800803e20000088b900000078009f
:10546000a6090700c0da2000a40907008000eb00ad
:10547000b0032000fc0307007e019000be009000f6
:10548000100020008dfc0700e0418000fe0f50005e
:105490002900320071032000810f500028003200e3
:1054a000d04780000000e0001e003400204780004c
:1054b0000000e00012003200409c20008f0907002d
:1054c0006e019000de0090007e00900017ff070044
:1054d000d0478000e70f500010003600d047800012
:1054e00080007800803e20000088b90080007800ad
:1054f000000c2e00008040008009070007003700e4
:10550000d047800080007800803e20000088b900ed
:1055100000007800803eb10078090700401f20009d
:10552000760907007e019000ce0090002000200048
:1055300062fc070003003700000000000100370094
:10554000000000000000eb001007980040478000ba
:105550000000e00003003200e10f500013003200b1
:10556000260037008040eb0030c0b300d1050700b3
:1055700020c5b3008a050700204880000000e00035
:1055800002003200007d200001003700803e200034
:105590008001780012002000ce0090003e009000b4
:1055a00086fd070010079800140037003e009000a9
:1055b000b5f207000000e0000200320010002000f9
:1055c0000100370020002000800078007e0090005d
:1055d00019ff07000000e0000700320003fa200076
:1055e00022002000ce0090003e00900073fd0700d6
:1055f000100798000100370000000000c140800043
:10560000f040800080804000d040800080804000da
:10561000e040800080804000004180000080400029
:105620002007980012002000d10020002e009000da
:1056300031070700c1408000f0408000008040003a
:105640000000e00012003400c1408000f040800003
:1056500080804000400620000088b900800078006b
:105660002e00900000017800110009008200d8008f
:10567000204188002041800031062000810f500029
:10568000010034003006200020418800010037006e
:105690002428ef0020418000e90f50000200340070
:1056a000d000200001003700e000200023418000ee
:1056b0000001eb0080007800030078000e0707006f
:1056c000e70a07000080fa00000006000400fa0064
:1056d000004280008708070010428000850807000c
:1056e000a1492c0010002000ac070700000f780033
:1056f000a14a2c0030002000a807070010079800de
:105700001e0090007b0807001e007800e10f50008b
:1057100004003a009e00900020002000440407008e
:10572000060037001e007800e20f500003003a0028
:105730009e009000c00020003d04070020002000d3
:105740005a04070000428800c000200057040700e8
:10575000104288008000eb00d003200042030700c5
:105760000080fa00000006001800fa00100f9800f0
:10577000210f9800320f98000000eb00000f780016
:105780003228ef00814680006107980000488000c1
:105790000000400089f1070070079800e041800098
:1057a00080007800300320002f030700b401370089
:1057b00011002000d00320002b030700914b2c0088
:1057c000a04c2c00650707009041800012002000cb
:1057d00011002000c80607002028ef0000418000cb
:1057e000f0408800f0408000e0408800e040800009
:1057f000d0408800d0408000c04088000000eb000e
:10580000300798000000eb00400798000000eb0014
:10581000000f78007d01370000488000800078008c
:105820007e009000730807000000eb00500798000e
:105830006e0137005e00900000004000fe00900006
:105840000080400010007800000f9800e0418000c8
:1058500071032000810f50006e00320071032000a0
:10586000810f50000c003e00f40f50001b0032006e
:10587000f40f500003003e00ea0f50004a003200cf
:10588000f7003700f50f50002f003200fe0f5000d8
:1058900060003200f2003700e1052000810f500067
:1058a000ba003200e1052000810f500004003e00e4
:1058b000d1052000810f5000ce003200e8003700f3
:1058c00031062000810f500096003200e1062000d2
:1058d000810f500078003200e10037000e08900080
:1058e0000000e000030032000e089000e20f5000bc
:1058f00003003a00d0468000100078000300370013
:10590000d04680000080e800100078001007980062
:105910000e089000e10f5000030032000e089000c6
:10592000e20f500003003a00e046800010007800cb
:1059300003003700e04680000080e8001000780097
:1059400020079800c60037000e0890006100600034
:10595000004078000004e00003003200d0468000e0
:105960001000780003003700d04680000080e80077
:1059700010007800100798000e0890006200600088
:105980000000e00003003200d046800010007800e4
:1059900003003700d04680000080e8001000780047
:1059a00020079800ae0037000e0890000000e000cd
:1059b000030032000e089000e20f500003003a008e
:1059c000d04680001000780003003700d0468000e9
:1059d0000080e80010007800100798000e08900082
:1059e0000000e000030032000e089000e20f5000bb
:1059f00004003a00e04680000080e80010007800d3
:105a000002003700e0468000100078002007980070
:105a1000930037000000eb0020079800a0478000ab
:105a200063006000e30f500003003a0080418000f3
:105a3000e90f50001c003400f0468000e20f5000d7
:105a40000e003a000e0890000000e0000300320053
:105a50000e089000e20f500003003a00d04680008c
:105a60001000780003003700d04680000080e80076
:105a7000100078001007980009003700f0468000f9
:105a8000e40f500006003400d14680000e0890005c
:105a900000004000008040001001780012079800cc
:105aa0003028ef006e003700804180000000e800e1
:105ab000804188006a0037000e0890000000e00076
:105ac000030032000e089000e20f500003003a007d
:105ad000d04680001000780003003700d0468000d8
:105ae0000080e80010007800100798000e08900071
:105af000e10f5000030032000e089000e20f50004a
:105b000003003a00e04680001000780003003700f0
:105b1000e04680000080e800100078002007980030
:105b20004f0037000e0890000000e0000300320034
:105b30000e089000e20f500003003a00d0468000ab
:105b40001000780003003700d04680000080e80095
:105b50001000780010079800d04680009000780070
:105b60001e009000808f500004003a00e046800044
:105b70000080e8001000780002003700e046800056
:105b80001000780020079800350037000e089000bc
:105b90000000e000030032000e089000e20f500009
:105ba00003003a00d0468000100078000300370060
:105bb000d04680000080e8001000780010079800b0
:105bc000d0468000900078001e009000808f50002a
:105bd00004003a00e04680000080e80010007800f1
:105be00002003700e046800010007800200798008f
:105bf0001b0037000e0890000000e0000300320098
:105c00000e089000e20f500003003a00d0468000da
:105c10001000780003003700d04680000080e800c4
:105c200010007800100798000e089000e10f500057
:105c3000030032000e089000e20f500003003a000b
:105c4000e04680001000780003003700e046800046
:105c50000080e80010007800200798000000000095
:105c60008040eb000040eb001204070081182c007c
:105c70001e0090000080400010407800c80307001c
:105c800081182c002e009000008040001040780009
:105c9000c303070020478000e10f500003003200db
:105ca000e20f500008003200170037000047800064
:105cb00090007800310798001047800010017800ac
:105cc000420798001000370066f00700610060008e
:105cd000004078000004e00003003200004780002c
:105ce0001000780003003700004780000080e800c3
:105cf000100078003007980010478000900078006e
:105d0000410798000000000070468000e30f50003b
:105d10002a003200e30f500005003c00e10f500064
:105d20000d003200e20f500008003200240037005e
:105d300021032000810f50001000320031032000a9
:105d4000810f5000150032001d0037000000eb00ed
:105d5000804688001a0037001e007800610060004d
:105d60000000e000020032006e00900001003700e9
:105d70000000eb0080468800110037000e089000fc
:105d80004280de0080004000804e2c0000804000f9
:105d90001000780080468800090037000e08900047
:105da0004280de0080004000c04f2c000080400098
:105db00010007800804688000100370000000000d5
:105dc0008046800000027800ce0190003e019000e5
:105dd000ae0090001e00900061fd07001e0fe8005d
:105de0005e0090000000e800500798000148800025
:105df0005e009000808f500004003400114180004c
:105e00002e089000808f50008afe35001e089000fa
:105e10009e007800808f500004003d0011418000fa
:105e20002e089000808f50007bfe35008000eb0034
:105e3000d00320008c010700a04880000000e00093
:105e40000f003a00204180008000eb00c8060700e8
:105e5000d1408000400620000088b9008000780012
:105e6000d2408000c0408000000041000001780066
:105e7000110009008200d80011002000bc060700b4
:105e8000114180002e089000808f50000a003d00d4
:105e90009141800010c0b3003e099000828f5000f5
:105ea000010035000040eb008100e80091418800ce
:105eb0000004e0003efe3a008000eb00e00320001a
:105ec000690107000080eb00404188007e009000df
:105ed00055ef07000080fa00000006000400fa00f9
:105ee0001007980020002000804688001e009000c7
:105ef000e10f50000b0032000000eb00000f7800b3
:105f00001e00a2001e00780080407800808d2000d6
:105f100001487800b14d2c00100020009f050700bb
:105f2000f7ff3700808d200011c0b30001487800d2
:105f30005000200029010700808d20008040eb00e8
:105f4000014878005000200024010700f5ff3700c9
:105f50000600fa00c3e2a8000000000000000000f4
:105f600000000000d4a2a800000000000000000013
:105f700000000000d4e2a90020032000080107006f
:105f8000c3e2a900000000000000000000000000c3
:105f9000d4a2a900000000000000000000000000e2
:105fa000d4c2a800000000000000000000000000b3
:105fb00090408000200798002e019000b0472100fb
:105fc0000090b900c388de004f90de00008f5000c3
:105fd0002e009000b14721000181b9004399de00f5
:105fe000cf80de0001015100410620000191b9007f
:105ff0008200780001005000100798009e00780091
:1060000070012000180107009e0090008001200010
:1060100015010700401f2000e1000700d4c2a900bd
:10602000000000000000000000000000d4e2a80012
:1060300090408000200798002e019000b04721007a
:106040000090b900c388de004f90de00008f500042
:106050002e009000b14721000181b9004399de0074
:10606000cf80de0001015100410620000191b900fe
:106070008200780001005000100798009e00780010
:1060800070012000f80007009e00900080012000b1
:10609000f5000700401f2000c1000700adff3700da
:1060a0000200fa00e0c7b300004f7800e0c4b3007c
:1060b0001047980095ec0700b6ec070000000000c0
:1060c00030108000610060000000e000fcff3a003a
:1060d00085c0a9001e4078009dec0700000000006c
:1060e00040108000610060000000e000fcff3a000a
:1060f00000000000210480000000240000806000f7
:106100000000e000fbff320085c0a9000028ef007e
:106110000228ef000000000041108000000028006d
:10612000008060000000e0000700320002408000b4
:10613000134080001003200001002000800f510058
:10614000818f5900f4ff3600024080001340800028
:106150001003200001002000800f5100818f5900a2
:1061600008003e008dec07000000000030108000a9
:10617000640060000000e000fcff3a001e40780070
:106180000700370085ec0700000000003010800099
:10619000640060000000e000fcff3a001e40900038
:1061a0000080fa00000006000000fa00f09f2300c3
:1061b00000168800c422ef00f0c02f0030168800bf
:1061c000f0302000501688000080eb006016880038
:1061d000d022ef0000f0200090168800000023007d
:1061e000b0168800d822ef00dc22ef000080eb0020
:1061f000f0168800e222ef00f0cf2f002017880071
:10620000e822ef000080fa00000006000000fa001b
:106210000021ef0080382100100888008460a90068
:106220008c60a80000012800200888000080eb0096
:106230005cec07000028ef000228ef000428ef00c4
:106240000628ef000080fa00000006000200fa00b5
:10625000000f78001e0078006101b8000040800047
:106260001140800002004000838048000040880008
:10627000114088001e0078006101b80020408000b5
:1062800031408000020040008380480020408800a8
:1062900031408800224080003340800000202000f0
:1062a00001002000020278000301780080017800dc
:1062b0000100780003026200000061008000eb0032
:1062c000c000dd00000020000001be006120b80019
:1062d0000001710081817100471add004910de0064
:1062e00000007200c918de000040780061406000c4
:1062f0000080fb00610060004e00dd00a2168000ff
:10630000f1ff2b008100610001007000a0168800e1
:1063100000000000000000002240800033408000a8
:106320000020200001002000020278000301780014
:106330008001780001007800030262000000610023
:106340008000eb00c000dd00000020000001be0066
:106350006120b8000001710081817100471add00e1
