:020000040000fa
:080000000007040000000000ed
:020000040000fa
:04000800bc08000030
:020000040000fa
:04000c00bc0800002c
:020000040000fa
:04001000bc08000028
:020000040000fa
:04001400bc08000024
:020000040000fa
:04001800bc08000020
:020000040000fa
:04001c00bc0800001c
:020000040000fa
:04002000bc08000018
:020000040000fa
:04002400bc08000014
:020000040000fa
:04002800bc08000010
:020000040000fa
:04002c00bc0800000c
:020000040000fa
:04003000bc08000008
:020000040000fa
:04003400c8070000f9
:020000040000fa
:04003800bc08000000
:020000040000fa
:04003c00bc080000fc
:020000040000fa
:04004000bc080000f8
:020000040000fa
:04004400bc080000f4
:020000040000fa
:04004800bc080000f0
:020000040000fa
:04004c00bc080000ec
:020000040000fa
:04005000bc080000e8
:020000040000fa
:040054006a08000036
:020000040000fa
:04005800bc080000e0
:020000040000fa
:04005c00bc080000dc
:020000040000fa
:04006000bc080000d8
:020000040000fa
:04006400bc080000d4
:020000040000fa
:04006800bc080000d0
:020000040000fa
:04006c00bc080000cc
:020000040000fa
:04007000bc080000c8
:020000040000fa
:04007400bc080000c4
:020000040000fa
:04007800bc080000c0
:020000040000fa
:04007c00bc080000bc
:020000040000fa
:04008000bc080000b8
:020000040000fa
:04008400bc080000b4
:020000040000fa
:040088007e080000ee
:020000040000fa
:04008c00bc080000ac
:020000040000fa
:04009000bc080000a8
:020000040000fa
:04009400bc080000a4
:020000040000fa
:04009800bc080000a0
:020000040000fa
:04009c00bc0800009c
:020000040000fa
:0400a000bc08000098
:020000040000fa
:0400a400bc08000094
:020000040000fa
:0400a800bc08000090
:020000040000fa
:0400ac00bc0800008c
:020000040000fa
:0400b000bc08000088
:020000040000fa
:0400b400bc08000084
:020000040000fa
:0400b800bc08000080
:020000040000fa
:0400bc00bc0800007c
:020000040000fa
:0400c000bc08000078
:020000040000fa
:0400c400bc08000074
:020000040000fa
:0400c800bc08000070
:020000040000fa
:0400cc00bc0800006c
:020000040000fa
:0400d000bc08000068
:020000040000fa
:0400d400bc08000064
:020000040000fa
:0400d800bc08000060
:020000040000fa
:04010800bc0800002f
:020000040000fa
:04010c00bc0800002b
:020000040000fa
:04011000bc08000027
:020000040000fa
:04011400bc08000023
:020000040000fa
:04011800bc0800001f
:020000040000fa
:04011c00bc0800001b
:020000040000fa
:04012000bc08000017
:020000040000fa
:04012400bc08000013
:020000040000fa
:04012800bc0800000f
:020000040000fa
:04012c00bc0800000b
:020000040000fa
:04013000bc08000007
:020000040000fa
:04013400bc08000003
:020000040000fa
:04013800bc080000ff
:020000040000fa
:04013c00bc080000fb
:020000040000fa
:04014000bc080000f7
:020000040000fa
:04014400bc080000f3
:020000040000fa
:04014800bc080000ef
:020000040000fa
:04014c00bc080000eb
:020000040000fa
:04015000bc080000e7
:020000040000fa
:04015400bc080000e3
:020000040000fa
:04015800bc080000df
:020000040000fa
:04015c00bc080000db
:020000040000fa
:04016000bc080000d7
:020000040000fa
:04016400bc080000d3
:020000040000fa
:04016800bc080000cf
:020000040000fa
:04016c00bc080000cb
:020000040000fa
:04017000bc080000c7
:020000040000fa
:04017400bc080000c3
:020000040000fa
:04017800bc080000bf
:020000040000fa
:04017c00bc080000bb
:020000040000fa
:04018000bc080000b7
:020000040000fa
:04018400bc080000b3
:020000040000fa
:04018800bc080000af
:020000040000fa
:04018c00bc080000ab
:020000040000fa
:04019000bc080000a7
:020000040000fa
:04019400bc080000a3
:020000040000fa
:04019800bc0800009f
:020000040000fa
:04019c00bc0800009b
:020000040000fa
:0401a000bc08000097
:020000040000fa
:0401a400bc08000093
:020000040000fa
:0401a800bc0800008f
:020000040000fa
:0401ac00bc0800008b
:020000040000fa
:0401b000bc08000087
:020000040000fa
:0401b400bc08000083
:020000040000fa
:0401b800bc0800007f
:020000040000fa
:0401bc00bc0800007b
:020000040000fa
:0401c000bc08000077
:020000040000fa
:0401c400bc08000073
:020000040000fa
:0401c800bc0800006f
:020000040000fa
:0401cc00bc0800006b
:020000040000fa
:0401d000bc08000067
:020000040000fa
:0401d400bc08000063
:020000040000fa
:0401d800bc0800005f
:020000040000fa
:100e00000fb120000e7f22000e01880000000000bc
:100e1000000020000000e00002003200000120007d
:100e200020028800140007005c0107000000e000b9
:100e300003003a00a0b9230001002000020037009f
:100e40000000200001002000810f7000010032002e
:100e500014000700000020000000e0000200320043
:100e60000000020000000000440c0200000000002e
:100e70000040da000000fe004440a9008025200068
:100e80000000e0000300320000002000a001880004
:100e90004440a800000006008a1f78008b1f7800dd
:100ea0000000060091018800800478000000eb003b
:100eb0001a003700e284440032a0b4009905ba0059
:100ec000e284440032a0b4009906ba00e2844400ef
:100ed00032a0b4000006eb00476fde00fd07b20051
:100ee000636ce10003003a00ebff07000000eb0039
:100ef0000a003700606ce10004003a00005deb007e
:100f00008b05e900fdff3e00040037006168e10049
:100f1000010032000086eb000b00070019c7ba0081
:100f20001905ba000e04e00003003a000a00e000d0
:100f3000e0ff3a0000000600fe07b2009e018800b4
:100f40008a047800f5ff3700395dba008b05e900a7
:100f50000c003200295dba008b05e9000800320060
:100f60000c00e00003003a00e284440032a0b40028
:100f7000f5ff370019ddba008b05e900faff3a00ea
:100f80008904e800e184440032a0b40000000600b7
:100f90003600f800809fbe00829fbe00849fbe0086
:100fa000869fbe000000fa00500020001a100700c3
:100fb000404680000000e00002003200db22a80072
:100fc00001003700db22a900614080006041800001
:100fd000808f50000d003400b04780000000e0001a
:100fe0000a003a00611007000000e000070032002c
:100ff0002040800031408000d0478800e1478800d1
:1010000020002000b04788002a003700614080009f
:1010100060418000808f50001e003400b047800087
:10102000e20f50001b003a00d0478000e1478000eb
:1010300065014000e0814800204080003140800090
:10104000800f5100818f59001a00310010002000dc
:10105000c0478800004880000000e8000048880081
:1010600080002000b0478800804080000000e00041
:101070000300320010002000904088000d0037006f
:10108000210020000000eb007a1007001228ef007a
:10109000080037006140800060418000808f500070
:1010a00004003c000000eb00b04788000000eb00ab
:1010b000c04788008460a9000080fa004f03be008a
:1010c0004f02be004f01be004f00be003600f900c7
:1010d00000400600801f78000000fa000014800025
:1010e0007040880010148000604088008560a9006e
:1010f0000080fa004f007800004006003600f8003b
:10110000809fbe00829fbe00849fbe00869fbe005f
:101110000000fa00c0108000620060000000e000e3
:10112000010032001822a900e01080005041880020
:1011300051418000a0022000808f500006003a003c
:101140008000eb00d00320004a100700200320009d
:10115000161007000000fe008700a9000080fa00ba
:101160004f03be004f02be004f01be004f00be0045
:101170003600f900004006000040da000000fe00e2
:10118000889fbe0080047800704880000000e00066
:1011900004003a000e0007000084eb000000e000ad
:1011a00008003500784880000900e00005003200a2
:1011b00009004400060007000000e00001003d00b7
:1011c0000084eb00080078004f04be000000060019
:1011d000800078000100e00003003a000091200048
:1011e00070488800000005000080eb0002b120007c
:1011f000828f500002003e00714888000000eb0022
:10120000000006000602ab00feff3a000642ab00fb
:10121000fcff3a000662ab00faff3a000682ab0020
:10122000f8ff3a0009c2ab00f6ff3a0000000600e2
:101230000662a8000662ab00feff3a0008c2a900e1
:1012400000108000000006008040780000c0eb0025
:101250008180fb001110880008e2ab0007003a0013
:1012600009c2ab00feff3a00e6ff07000040eb00ba
:101270000802e20001003d00e0cfb30000000600dc
:101280002110880030108800000006000602a80027
:10129000000006000642a800000006008460a900c5
:1012a000e7006000f2ff2800cc08dd00a304800006
:1012b00003016100680060000281700071ff2f006f
:1012c000a2048800620480008280600081007000b7
:1012d0006104880000000600001020001802b6001b
:1012e0000000e9004f00de000000060017e2a90040
:1012f0008f00a9008f20a9008700a9008720a900de
:10130000000006008700a900e70060008720a90010
:101310000001780083ff2f000207b200040580005f
:101320008481610083817000e8006000030588000b
:10133000c308de00f3f82f00e180600004058000a0
:1013400084816100c808dd00830171000008b200db
:1013500003058800f2ef2f004700de0073048000d1
:101360000301610061006000028170004900dd003e
:1013700072048800f1df2f00740480008480600014
:10138000810070007104880000000600f2108800df
:10139000b0108800c11088000000060000000500a1
:1013a0003200f800910188000008bb0041042400cd
:1013b0006210e10004003200000220000010e10091
:1013c0000a003a0051042400013b88000500fc009b
:1013d00051052000313b8800a10a2000313b8800e4
:1013e00061e7a80000000000000000003200f900e2
:1013f000000006003200f80060042400003b880072
:10140000f2ff37003200f80091018800410024000b
:10141000013b88000208bb00ecff37003200f800f7
:101420009101880051002400013b88000301200045
:101430003218bb008301e900fdff3a00e3ff3700eb
:101440003200f800910188008002780062004000bc
:101450003549ba00e08048003204e0000410a700db
:10146000100032008301e9000e0032002549ba0065
:101470003204e0000410a7000a0032008301e900f2
:10148000080032000408a300eeff320015c9ba00bc
:101490003204e0000410a700020032008301e900da
:1014a000e8ff3a003200f900000006000000e0000a
:1014b0002f003200c0017800e38f51002c0036006d
:1014c0000308a3002a003a00314880000100e00030
:1014d00002003200810f500004003100110098001a
:1014e0003048880016003700820078001101900013
:1014f0000200e00002003200800f5100faff3900c4
:101500001102780084824000850f500018003900d5
:10151000808f520003003a008308420001007800e7
:10152000070037000200e0000300320083014000a2
:10153000830f51000e0039001200980090009800af
:10154000900090000100e00009003200100140000e
:10155000828f500006003a00429020000009eb0004
:1015600010017800110841009100900011009800ce
:1015700000000600889fbe0000047800214880001b
:101580000100e00002003200010078000d00370089
:10159000314880006090200004003700910f540013
:1015a000250036000180e800910090000100e00075
:1015b000faff3a0010003700920f54001e00360068
:1015c0000280e800100178000200e000faff3a0013
:1015d000110178003148800060902000040037003d
:1015e000910f5400140036000180e8009100900033
:1015f000828f5000faff3a0069488000888f5400bb
:101600000100310088047800090078008e0007008e
:101610000000e00004003a00888f5400050032000a
:101620008904d100f5ff3700091878009fff0700f3
:10163000d2ff37000000eb004f04be0000000600a0
:10164000881f7800630440000800a1008000eb00c0
:10165000800f540021003600e30f540001003e00cb
:101660004800200008007800c2ff07008000eb005f
:101670000000e0001900320090007800910178002d
:1016800064815100880f5100030031001101900066
:10169000020878000700370008814000020878003f
:1016a00091019000130198001001780011091400b5
:1016b00088087800100178000000eb000200e000cc
:1016c00004003200920190000300e00001003200ab
:1016d0000280e800204888008180e800010078004e
:1016e0004f04780000000600889fbe00b0418000d3
:1016f0000000e0000100320000000100c041800055
:101700000000e000010032000000010040832000e2
:101710001004e00022003a00404880005148800058
:1017200088002000d26026009301200050000700ae
:10173000f2352f00e3c623000000410081804900fc
:101740000804e900f7ff3a00a883200009082000f8
:1017500088844400d26026009301200044000700e2
:10176000f2352f00e3c623000000410081804900cc
:1017700000acbe00890f5400f6ff3a0040488800d4
:1017800051488800d0458000e1458000d041880064
:10179000e141880011c0b300408320000148780077
:1017a000d26026009301200040488000514880000c
:1017b0002f000700f2352f00e3c62300000241008e
:1017c000818249004448880055488800a083200051
:1017d000100078007f0160004211dd00e0832000ee
:1017e000020140001200be00d0418800e1418800a3
:1017f0000489be000100780000f0a1004f04be0083
:1018000000000600889fbe0000047800b041800000
:101810000000e000010032000000010040832000d1
:101820000048eb00c04180000000e00001003200f1
:10183000000001008004eb004848880059488800f7
:101840004f04be0000000600800078000000eb009e
:101850000100e000050034000100780048fe0700a8
:10186000e10f400001003a000000eb00000006001c
:10187000020ab900001bb9000200b8008100420052
:1018800081004300000006000000fa00b90d0700c7
:10189000d10d0700640e0700820f0700de0f07005e
:1018a000210f0700a1952b0030962b007f12070017
:1018b0001000200005000700f1962b0020002000fa
:1018c0008a120700ea000700fbff37000200fa0057
:1018d000000f78001e007800004078006140600032
:1018e0000080fb00610060004600dd00a216800061
:1018f000f1fb2f008100610001007000a01688003c
:1019000000000000000000001e0078000040780089
:1019100000c0ea00614060000080fb0061006000e0
:101920004700dd00a2168000f1f72f008100610062
:1019300001007000a01688000080fa000000060078
:101940000200fa00a1972b00100020006712070088
:10195000000f78001e007800e10f500002003a00ee
:10196000d482a800040037001e007800e20f500067
:1019700001003a00d4a2a8000080fa00000006008e
:101980000200fa00000f78001e007800e30f5000fc
:101990000f0032001e007800e40f50000c003200ef
:1019a0001e007800e70f5000090032001e0078008a
:1019b000e60f5000060032001e007800ea0f5000cb
:1019c000030032001e007800f00f500002003a00c1
:1019d00010002000010037000000eb000080fa003a
:1019e000000006000800fa00200798003107980060
:1019f000ae00900000fc200000806000c680de0089
:101a00003e009000e10f500002003a000004200068
:101a1000010037000000eb00008f40009e007800be
:101a2000b0012000130e0700ae009000f00320006c
:101a3000808060003e009000e10f500002003a00fc
:101a400000042000010037000000eb00008040008f
:101a5000100798009e009000c0012000050e0700ae
:101a60000080fa00000006000400fa0080468000b2
:101a70000000e000230034008046800000004000a9
:101a8000effe0700604688008046800000004000ae
:101a9000ebfe0700704688000000eb00000f7800a6
:101aa0001500370021982b00200020000f1207009e
:101ab00010079800614680001e007800000040007a
:101ac000008040009e0090000108780001992b00e2
:101ad00020002000051207001007980071468000c2
:101ae0001e00780000004000008040009e00900032
:101af000010878001e0fe800804680009e0f50000d
:101b0000e8ff3c00b04680000000e0002300340005
:101b1000b046800000004000c9fe070090468800e3
:101b2000b046800000004000c5fe0700a0468800c7
:101b30000000eb00000f780015003700c1992b0062
:101b400020002000e911070010079800914680004e
:101b50001e00780000004000008040009e009000c1
:101b600001087800b19a2b0020002000df11070047
:101b700010079800a14680001e0078000000400079
:101b8000008040009e009000010878001e0fe800d1
:101b9000b04680009e0f5000e8ff3c00d046800019
:101ba0000000e00015003400d04680000000400036
:101bb000a3fe0700c04688000000eb00000f78007d
:101bc0000b003700819b2b0020002000c71107006d
:101bd00010079800c14680001e00780000004000f9
:101be000008040009e009000010878001e0fe80071
:101bf000d04680009e0f5000f2ff3c000080fa00ab
:101c0000000006000000fa00100020004912070042
:101c10000080fa00000006000400fa001007980097
:101c20000000eb00000f78000b00370010002000d0
:101c300040120700904180005c0d07000000eb009f
:101c40003c12070090418000411f2000008050009e
:101c5000560d07001e0fe8001e0090009e00780041
:101c6000808f5000f1ff35000080fa000000060070
:101c70006000fa00702f98000000eb007a0e070059
:101c80004200dd006041880020002000760e070041
:101c900090418800204080003140800000007800a2
:101ca000d8fe07007e2890006101b900b0fe2f0029
:101cb000f1ff2f00020040008380480082012000d5
:101cc00003002000820f5000838f5800e4023e0082
:101cd0000060010018003700270037002800370097
:101ce0002c0037002d00370031003700610037002d
:101cf00087003700880037008a0037008b003700e4
:101d0000d70237008b003700bd003700ef003700e7
:101d1000210137005001370084013700b801370036
:101d2000ea013700130237003e023700670237002e
:101d30008702370088023700819c2b0010002000aa
:101d40006a11070040079800f19c2b00200020003a
:101d50006611070050079800619d2b0010002000bd
:101d600062110700600798006e019000de0090008d
:101d70004e009000d0020700b4030700c8023700ed
:101d8000c19d2b001000200058110700cffe070056
:101d9000c302370081040700c1023700a000200001
:101da0009dff07009041800045040700bc023700fa
:101db000619e2b00709e2b003c110700019f2b00a1
:101dc0001000200049110700700798007e00900065
:101dd0000000e00002003200200020000100370077
:101de000a0002000f0458800b000200000468800d8
:101df0006006200070418800a19f2b001000200089
:101e00003a110700304788002000200080468800f3
:101e100015ff0700b1a02b002000200033110700a0
:101e200060478800a1a12b00200020002f1107008f
:101e30007047880071a22b00100020002b110700b2
:101e4000914180000180b900000078009041880035
:101e500031a32b002000200024110700000f980060
:101e60000e0990004101200040012000d508070024
:101e70008b0237006104200081004700e2b72b008d
:101e80000b000900b21878000000eb00000f78008a
:101e9000080037001e0078000000400000004700e6
:101ea0003020900012002000a1002000a3020700b3
:101eb0001e0fe8001e007800eb0f5000f5ff360003
:101ec0000000eb00000f78000b003700100020002e
:101ed0009811070090418000b40c07000000eb004f
:101ee0009411070090418000411f200000805000a5
:101ef000ae0c07001e0fe8001e007800f30f500024
:101f0000f2ff3400100020004046880064023700d1
:101f10003cff070062023700400620003eff07003a
:101f20005f023700950807005d023700ec0b0700e1
:101f30005b023700619e2b0030a42b00db100700f2
:101f4000019f2b0010002000e8100700100f9800e0
:101f50001e0890000000e000020032002000200077
:101f60000100370030002000f045880030062000d6
:101f70007041880010002000a0478800a19f2b001e
:101f800010002000d91007003047880020002000f2
:101f9000804688000000eb00d0468800b2fe0700b3
:101fa000b1a02b0020002000d0100700604788005f
:101fb000a1a12b0020002000cc1007007047880052
:101fc00071a22b0010002000c81007009141800072
:101fd0000180b900000078009041880031a32b00f7
:101fe00020002000c1100700200f98002e0990004b
:101ff000410120004001200072080700280237003c
:10200000619e2b0030a42b00a8100700019f2b001d
:1020100010002000b5100700300f98003e08900017
:102020000000e00002003200200020000100370024
:10203000a0002000f0458800b00020000046880085
:10204000e006200070418800a19f2b0010002000b6
:10205000a610070030478800200020008046880036
:102060000000eb00d04688007ffe0700b1a02b00e7
:10207000200020009d10070060478800a1a12b00d0
:1020800020002000991007007047880071a22b00e3
:102090001000200095100700914180000180b900d8
:1020a000000078009041880031a32b002000200020
:1020b0008e100700400f98004e099000410120004b
:1020c000400120003f080700f501370081a42b00e4
:1020d00010a52b0075100700019f2b001000200099
:1020e00082100700500f98005e0890000000e0008a
:1020f000020032002000200001003700a000200074
:10210000f0458800b00020000046880060062000ee
:1021100070418800a19f2b00100020007310070061
:102120003047880040002000804688000000eb0017
:10213000d04688004cfe0700b1a02b0020002000f4
:102140006a10070060478800a1a12b002000200032
:10215000661007007047880071a22b001000200055
:1021600062100700914180000180b90000007800f2
:102170009041880031a32b00200020005b10070055
:10218000600f98006e09900041012000800220003d
:102190000c080700c201370011a62b0060a62b0017
:1021a00042100700019f2b00100020004f10070075
:1021b000700f98007e0890000000e00002003200de
:1021c000200020000100370010002000f0458800aa
:1021d000b000200000468800e00120007041880027
:1021e000e1a62b001000200040100700d046880018
:1021f00081a72b00100020003c100700a04788009a
:102200000000eb0030478800200020008046880056
:1022100015fe0700b1a02b0020002000331007009e
:1022200060478800a1a12b00200020002f1007008c
:102230007047880031a32b00200020002b100700de
:10224000001798000e11900041012000400120006d
:10225000dc0707009201370021a82b0010a92b00f2
:1022600012100700019f2b00100020001f10070014
:10227000101798001e1090000000e00002003200cd
:102280002000200001003700a0002000f045880059
:10229000b000200000468800000320007041880044
:1022a00010002000a04788000000eb00d046880006
:1022b0000000eb0030478800600020008046880066
:1022c0006000200090478800e7fd0700b1a02b00c8
:1022d000200020000510070060478800a1a12b0006
:1022e00020002000011007007047880071a22b0019
:1022f00010002000fd0f0700914180000180b9000f
:10230000000078009041880031a32b0020002000bd
:10231000f60f0700201798002e11900041012000b1
:10232000c0032000a70707005d013700a1a92b000b
:1023300010a52b00dd0f0700019f2b0010002000cf
:10234000ea0f0700301798003e1090000000e000f0
:10235000020032002000200001003700a000200011
:10236000f0458800b000200000468800600620008c
:1023700070418800a19f2b0010002000db0f070098
:102380003047880060002000804688006000200000
:10239000904788000000eb00d0468800b2fd07009f
:1023a000b1a02b0020002000d00f0700604788005c
:1023b000a1a12b0020002000cc0f0700704788004f
:1023c00071a22b0010002000c80f0700914180006f
:1023d0000180b900000078009041880031a32b00f3
:1023e00020002000c10f0700401798004e119000f8
:1023f00041012000c00320007207070028013700b8
:1024000021a82b0010a92b00a80f0700019f2b006b
:1024100010002000b50f0700501798005e109000c4
:102420000000e00002003200200020000100370020
:1024300010002000f0458800b00020000046880011
:1024400000032000704188000000eb00d0468800a7
:102450000000eb00304788006000200080468800c4
:1024600060002000904788007ffd0700b1a02b008e
:10247000200020009d0f070060478800a1a12b00cd
:1024800020002000990f07007047880071a22b00e0
:1024900010002000950f0700914180000180b900d5
:1024a000000078009041880031a32b00200020001c
:1024b0008e0f0700601798006e11900041012000f8
:1024c000c00320003f070700f500370021a82b00bc
:1024d00030aa2b00750f0700019f2b001000200071
:1024e000820f0700701798007e1090000000e00037
:1024f0000200320020002000010037001000200000
:10250000f0458800b000200000468800000320004d
:10251000704188000000eb00d04688000000eb000e
:1025200030478800600020008046880010002000ae
:10253000b046880060002000904788004afd0700f0
:10254000c0002000604788005000200070478800cd
:1025500031a32b0020002000640f0700001f98000b
:102560000e19900041012000c0032000150707004c
:10257000cb00370021a82b0040ab2b004b0f0700ee
:10258000019f2b0010002000580f0700101f98001b
:102590001e1890000000e000020032002000200021
:1025a0000100370010002000f0458800b000200036
:1025b00000468800000320007041880010002000c1
:1025c000a04788000000eb00d04688000000eb0028
:1025d00030478800600020008046880020002000ee
:1025e000b046880060002000904788001efd07006c
:1025f000c00020006047880050002000704788001d
:1026000031a32b0020002000380f0700201f980066
:102610002e19900041012000c0032000e9060700a8
:102620009f00370021a82b0040ab2b001f0f070095
:10263000019f2b00100020002c0f0700301f980076
:102640003e1890000000e000020032002000200050
:102650000100370010002000f0458800b000200085
:102660000046880000032000704188000000eb0055
:10267000d04688000000eb00304788006000200052
:102680008046880020002000b046880060002000be
:1026900090478800f4fc0700c000200060478800d5
:1026a000500020007047880031a32b00200020003c
:1026b0000e0f0700401f98004e19900041012000a6
:1026c000c0032000bf0607007500370011ac2b00c7
:1026d00020002000050f0700501f9800d1ac2b00f0
:1026e00020002000010f0700601f980051ad2b0053
:1026f00020002000fd0e0700701f9800d1ad2b00b8
:1027000020002000f90e070000279800de18900036
:1027100011079800070037007e1990008e20900066
:102720001e009000850007001e0090000000e800d9
:1027300010079800de1890006e189000808040000e
:102740001e009000808f5000f3ff3c0054003700c3
:102750007bfc07005200370021ae2b0010a92b0094
:10276000d20e0700019f2b0010002000df0e070093
:10277000102798001e219000a24788001e2090007c
:102780000000e000020032002000200001003700bd
:1027900010002000f0458800b000200000468800ae
:1027a00000032000704188000000eb00d046880044
:1027b0000000eb003047880031af2b0010002000f4
:1027c000ca0e070080468800a7fc07000000eb0047
:1027d0002007980080468000e40f50000700320078
:1027e000e60f500008003200e20f50000b003a00e4
:1027f00040012000200798000800370080022000d8
:1028000020079800050037006000200090478800ee
:10281000c00320002007980000000000b1a02b009a
:1028200020002000b10e070060478800a1a12b0006
:1028300020002000ad0e07007047880031a32b0058
:1028400020002000a90e0700202798002e219000cc
:10285000410120002e0090005a06070010003700aa
:10286000fe2890003107980007003700a2002000e2
:10287000810020003e009000300007003e009000e4
:102880000000e800300798007e289000e400400037
:102890003e009000808f5000f4ff3c0000000000dc
:1028a0006046800001fb070070468000fffa0700c9
:1028b0000080fa00000006000600fa00000f780011
:1028c0001107980022079800390c0700420c0700f6
:1028d000e0af2b00100c07000001eb0061002000ae
:1028e0001e007800d80d07001200200061002000b3
:1028f0001e009000d40d07001e0090000000e900ab
:102900008a0a070001003700000000001e80ea006c
:10291000c50a07002e0090000000e000faff3a0010
:10292000401f2000210a0700f0002000be0a070017
:10293000401f20001d0a0700f4ff37001400fa00b2
:1029400070079800010f9800120f9800401f200098
:1029500010079800803e200020079800300c2000cf
:10296000300798000000eb00000f7800b10037003e
:102970000f0c0700180c0700c0b02b00e60b070077
:1029800011c0b3000040eb001d0c070020b12b006c
:10299000e10b07001e00e80012002000710020007b
:1029a000a90d07000001eb00610020007e009000ef
:1029b000a50d07007e009000ef0f500003003400cb
:1029c0007e00900070005000010037007e009000f3
:1029d000400798007e009000ef0f500002003c007e
:1029e0001000200001003700400020005007980030
:1029f0007e009000ef0f500002003c0020002000fd
:102a0000010037008000200060079800fe00900061
:102a100030002000170a07004e009000430a07000c
:102a20005e0090000080ea007f0a07001e00900010
:102a3000de090700e702a800de0090006e009000ab
:102a4000010070000080ea00770a07007e00900015
:102a5000700060004480de0000407800614060004b
:102a60000080fb00610060004900dd00321780003b
:102a7000f1df2f0081006100010070003017880035
:102a80002e019000706626000090b9008180d10070
:102a90004f90de0000805000c40907007e009000c7
:102aa000680060004380de00004078006140600004
:102ab0000080fb00610060004900dd0032178000eb
:102ac000f1df2f00810061000100700030178800e5
:102ad0002e019000706626000090b9008180d10020
:102ae0004f90de0000805000b00907007e0090008b
:102af000640060004280de000040780061406000b9
:102b00000080fb00610060004900dd00321780009a
:102b1000f1df2f0081006100010070003017880094
:102b20002e019000706626000090b9008180d100cf
:102b30004f90de00008050009c0907007e0090004e
:102b4000620060000080d1000040780061406000b9
:102b50000080fb00610060004900dd00321780004a
:102b6000f1df2f0081006100010070003017880044
:102b70002e019000706626000090b9008180d1007f
:102b80004f90de0000805000880907007e00900012
:102b9000004078006140600061406000614060007a
:102ba0000080fb00610060004900dd0032178000fa
:102bb000f1df2f00810061000100700030178800f4
:102bc0002e019000706626000090b9008180d1002f
:102bd0004f90de00808050003e009000008050004a
:102be000720907006e0090000080ea000e0a0700dc
:102bf0003e0090006d090700e722a900f0002000c8
:102c0000090a07008000eb00300020009909070046
:102c1000e702a9008e089000803e20000088b900dd
:102c2000800078001e009000008050005f090700bf
:102c30001e0fe8001e0890009e007800808f500054
:102c40004bff35000080fa00000006000800fa0083
:102c500091b12b0010002000a40d0700000f780098
:102c60001e0078000000e00002003a006040800092
:102c70000100370070408000300798003e0190004e
:102c8000b04721000090b900c388de004f90de00fd
:102c900000805000100798003e009000b1472100ce
:102ca0000181b9004399de00cf80de0001015100af
:102cb000410620000191b900820078000100500017
:102cc000200798009e00900070012000690907000d
:102cd000ae0090008001200066090700200320005c
:102ce00032090700deff37000200fa00f0f32f0080
:102cf000f01688000000eb00000f78001e00a20014
:102d00001e00780000407800614060000080fb00f9
:102d1000610060004600dd0002178000f1fb2f001b
:102d200081006100010070000017880000000000b1
:102d300000000000000000001e0078000040780045
:102d4000614060000080fb00610060004800dd0021
:102d500042168000f1ef2f00810061000100700039
:102d60004016880000000000000000000000000085
:102d70001e00780000407800614060000080fb0089
:102d8000610060004900dd0042168000f1df2f0085
:102d90008100610001007000401688000000000002
:102da00000000000000000001e00780000407800d5
:102db000614060000080fb00610060004700dd00b2
:102dc00002178000f1f72f00810061000100700000
:102dd0000017880000000000000000000000000054
:102de0001e00780000407800614060000080fb0019
:102df000610060004600dd0002178000f1fb2f003b
:102e000081006100010070000017880000000000d0
:102e100000000000000000001e0078000040780064
:102e2000614060000080fb00610060004e00dd003a
:102e300012168000f1ff2b0081006100010070007c
:102e400010168800000000000000000000000000d4
:102e50001e00780000407800614060000080fb00a8
:102e6000610060004c00dd00a2168000f1ff2e0022
:102e70008100610001007000a016880000000000c1
:102e800000000000000000001e00780000407800f4
:102e9000614060000080fb00610060004d00dd00cb
:102ea000a2168000f1ff2d0081006100010070007a
:102eb000a0168800a00f2000bc0807008fff370075
:102ec0000400fa000000eb00004888006041800028
:102ed000b20d07000000eb00000f78000000eb00cf
:102ee00010079800b20a0700bb0a070050b22b0077
:102ef000890a0700803e2000010020000040880071
:102f000011408800010037000000000001488000e7
:102f10001e009000808f5000160036000240800096
:102f200013408000301f200001002000800f51005e
:102f3000818f590009003600100020007d0d070028
:102f40000028ef000228ef001e0fe8001e007800a6
:102f500012002000c10020003b0c07000148800047
:102f6000110798001e0090000001eb00b100200046
:102f7000350c0700904180006101b90000408000dd
:102f800011408000800f5100818f5900deff3e000c
:102f90000000eb00670d0700dcff37000c00fa00b3
:102fa00022408000334080002207980033079800b9
:102fb000170037000000eb00000f78000000eb0066
:102fc0001007980005003700604080001e0f400089
:102fd0001e0090000000e800100798001e009000fe
:102fe000ee0f5000f8ff34009e007800f000200043
:102ff00080017800110009008300d8004007980084
:103000004e009000650d0700401f20006708070074
:103010002e019000be0190000071220001002000ee
:103020000201400083814800204080003140800040
:10303000800f5100818f5900deff3e00604180000b
:10304000560d070001b32b0030002000a70c07002d
:10305000500798005e009000500d07005e00900041
:103060004280de00800078000000eb005f0907006e
:103070008000eb00d00320007e0807000000fe0067
:103080000080fa00000006000800fa00100798000f
:1030900021079800320798002e009000ef0f500093
:1030a000030034002e009000700050000100370033
:1030b0002e0090009d0807001e009000e10f5000b8
:1030c000060032001e009000e20f500003003200a4
:1030d0001e009000e60f500009003a002e009000fc
:1030e000ef0f500002003c00e0ff2f00010037000e
:1030f000b0ff2f00cc080700401f2000880d0700fc
:103100001e009000e30f50000b003a00ae0090004c
:1031100030002000570807002e009000ef0f5000ed
:1031200002003c00e0ff2f0001003700b0ff2f003d
:10313000bd080700df0037001e009000e20f5000be
:103140000e003200e20f500003003c00e10f50007f
:103150000600320014003700e40f50000b0032006c
:10316000e60f50000c0032000f0037004101200034
:103170003e009000860d07000b0037006104200020
:103180003e009000820d070007003700a1052000d7
:103190003e0090007e0d0700c10d20003e00900013
:1031a0007b0d0700000000002e009000ef0f500084
:1031b00002003c00c0ff2f000100370030ff2f004d
:1031c000990807001e009000e40f5000190032001b
:1031d000e40f500004003c000000e900e10f500043
:1031e00020003e0007003700e60f500017003200b5
:1031f000e60f500012003500e70f500016003200b5
:10320000180037002e009000ddf907000000e000f4
:103210000400320090002000000f7800c322a800b4
:1032200010003700a0002000000f7800c342a80063
:103230000c00370030052000000f7800090037002f
:1032400050052000000f780006003700b000200075
:10325000000f780003003700c0002000000f780046
:10326000000000002e0090000000e00003003a0083
:103270002e0090004006b000010037002e009000a4
:10328000800078001e007800fa0707008040eb00fd
:1032900030c0b300da0907001e009000e40f5000b0
:1032a0001a003200e40f500005003c00e10f50000e
:1032b0000a003200e20f50000e00320029003700f1
:1032c000e60f50001b003200e60f500015003500dd
:1032d000e70f50001d0032002200370010c3b3007a
:1032e00082090700e0468000800cb1000c0d070049
:1032f0001c00370020c3b3007c0907000047800092
:10330000800cb100060d07001600370030c3b30073
:103310007609070020478000800cb100000d0700ef
:103320001000370050478000800cb100fc0c0700f3
:103330000c00370050c7b3006c090700f04680004e
:10334000800cb100f60c07000600370050c5b30032
:103350006609070010478000800cb100f00c0700e0
:10336000000000002e009000ef0f500002003c0013
:10337000d0ff2f000100370070ff2f002a08070040
:10338000800c2000e60c0700f00020002608070053
:10339000c322a9000000000000000000c342a900f1
:1033a00000000000000000008000eb001e0078001c
:1033b000b00707008040eb0030c0b3009009070061
:1033c0001e009000e40f50002a003200e40f50006d
:1033d00005003c00e10f500008003200e20f5000f1
:1033e0001500320033003700e60f5000270032008e
:1033f000e70f5000280032002e003700e1012000c6
:103400003e009000e20c070040c6b30037090700f9
:10341000e046800080007800703e2000808f5000e1
:1034200021003e00e0468000813e200000805000e8
:10343000bb0c07001f003700010520003e00900074
:10344000d30c070040c4b3002809070000478000e0
:1034500080007800703e2000808f500014003e00f5
:1034600000478000813e200000805000ac0c070027
:1034700010003700f10520003e009000c40c07004a
:1034800020c5b300190907000a00370040c6b30081
:10349000160907000700370040c6b30013090700ec
:1034a00000000000030037000000000001003700aa
:1034b000000000000080fa00000006000400fa008e
:1034c000000f780011079800110020006001200013
:1034d000680707001e0090000000e00008003c00a4
:1034e0001e0090000000e0000f003a007ef8070088
:1034f00061006000004078000004e0000a00320033
:1035000091072000200020005a070700100020002b
:10351000080c070090418000810c07000000eb00c0
:10352000040c070005003700810720002000200060
:103530005007070090418000790c07001e009000a2
:10354000e20f50000b003a00a107200020002000ed
:1035500048070700401f2000710c070010002000e2
:10356000f40b0700904180006d0c07000000eb0099
:10357000f00b07001e28ef009e007800700020006e
:103580003c070700a04080000000e800a040880041
:10359000a04080000001eb0051002000aa0a0700b3
:1035a0000080fa00000006000200fa00000f780018
:1035b0001e28ef009e007800400020002d07070025
:1035c000c04080000000e800c0408800c04080008b
:1035d00012002000510020009b0a07004047800095
:1035e0000001eb008000780050002000a6fe0700dc
:1035f0001e007800e30f50000200320000fa2000a5
:10360000470c07000080fa00000006000200fa00e4
:10361000000f7800f04080000000e800f0408800d3
:103620009e0078006000200012070700b040800074
:103630000000e800b0408800b04080000001eb00ce
:1036400091002000800a07000080fa0000000600b8
:103650000a00fa00881f78001007980021079800d8
:1036600032079800430798000000eb00000f780035
:103670000000eb00f047880070418000fe0f500012
:103680004a003a000028ef000228ef00020037004d
:10369000c0478000f04788004e0090006101b900eb
:1036a0000040800011408000800f5100818f590040
:1036b00003003600f04780000000e000f4ff320015
:1036c0002040800031408000404088005140880008
:1036d000f04780000000e00029003a001e00900042
:1036e000a7f807000000e0000b003a0011002000de
:1036f00050002000df060700d04080000000e800f6
:10370000d0408800d04080001200200091002000ae
:103710004d0a0700ab00370010002000bbff070078
:10372000a0478000e10f50009f003a00eef707002d
:103730003100200001017800110009000200d800ca
:103740008000fd000000e00099003a001100200018
:1037500060012000c706070010002000750b07005d
:103760001100200080002000c20607009041800068
:10377000eb0b07000000eb006e0b07009100370019
:103780001e0090007ef807000000e00003003a00f1
:103790001000200084ff07008a003700110020007d
:1037a0001000200045ff0700860037000028ef00ca
:1037b0000228ef0002003700c0478000f047880071
:1037c0004e0090006101b90000408000114080006f
:1037d000800f5100818f590003003600f0478000b0
:1037e0000000e000f4ff3200204080003140800003
:1037f0004040880051408800f04780000000e00011
:1038000030003a001e0090005df8070000047800c8
:103810002e0090005af80700800f54000d003a0067
:10382000be0090005000200092060700d0408000ab
:103830000000e800d0408800d04080001200200046
:1038400091002000000a070050002000000f7800bf
:103850005c0037003e0090006cff07006000200015
:10386000000f7800a04780000000e0005200320006
:103870009df70700310020000101780011000900c8
:103880000200d8008000fd000000e0004c003a007b
:1038900011002000600120007606070010002000c3
:1038a000240b070011002000800020007106070093
:1038b000904180009a0b07000000eb001d0b0700f1
:1038c000400037001e0090002df80700000478002b
:1038d0002e0090002af80700800f540005003a00df
:1038e0003e00900030ff070040002000000f7800ed
:1038f000340037007141800000032000808f5000a9
:1039000023003a0060468000900078001e0090007e
:10391000808f500006003200604680000080e80082
:10392000900078001e009000808f500004003a0044
:10393000110020003e009000e0fe07001700370055
:103940006046800064004000900078001e009000f7
:10395000808f500006003200604680006600400004
:10396000900078001e009000808f500004003a0004
:10397000210020003e009000d0fe07000700370025
:103980008000eb003e009000ccfe070003003700f3
:10399000110020003e009000c8fe070070002000cb
:1039a000000f780007003700000000000500370016
:1039b0000000000003003700000000000100370095
:1039c000000000001e0078004f0478000080fa001c
:1039d000000006000800fa00100798002107980070
:1039e000320798001e019000ae0090006000200099
:1039f000a5fd07008040eb0030c0b30000080700c1
:103a000040c4b300b90707003e0090000000e0008a
:103a100003003a0080bb2000410b07002e00370056
:103a2000803e20003e0b0700000f78003e00900013
:103a3000ef0f5000030034003e0090007000500073
:103a4000010037003e009000380607003e0090005d
:103a5000ef0f500002003c00e0ff2f000100370094
:103a6000b0ff2f0070060700401f20002c0b07003e
:103a70001e0f70001e0078000000e0000a003a00ef
:103a80001e019000be009000700020007efd070027
:103a9000431f200032002000be0090002e00900046
:103aa000ebfe07000c003700f00020005e06070068
:103ab0003100200040052000ee0507008040eb00ab
:103ac00030c0b300ce07070010c4b300870707005b
:103ad000c05d2000120b07000080fa000000060005
:103ae0000400fa001007980021478000700c2000a5
:103af000808f500045003400803e2000080b0700f6
:103b0000000f780060478000e20f50001200340080
:103b1000810c20001e0090001d0b070060478000f4
:103b200080007800803e20000088b9008000780086
:103b300000832f0000804000f90a07001e0f70006c
:103b4000f10320001e009000110b0700401f200011
:103b5000f30a07001e0f7000c046800010007800b6
:103b60001e019000800078003000200046fd070014
:103b7000401f2000ea0a07001e0f70008040eb0083
:103b800030c0b3009e0707001e0078000000e00070
:103b900011003200f0002000230607001100200071
:103ba00040052000b305070010c4b3004f0707000d
:103bb000404780000001eb008000780050002000aa
:103bc00031fd0700e04080000000e800e040880090
:103bd0000000eb000e00370020c5b30043070700cc
:103be000410620001e009000e90a0700c046800040
:103bf000100078001e019000800078004000200036
:103c000021fd070010002000010037000000eb003c
:103c10000080fa00000006001200fa004007980039
:103c2000510798006207980073079800040f9800e6
:103c30002040800031408000404088005140880092
:103c40008e089000a00320008a0507000e0890004f
:103c500000f0a7000000ea000000ea004f00de00cc
:103c60008000780010042000820507004100200039
:103c70000e089000c60a0700803e2000a80a070030
:103c8000510020000e089000c10a0700007d2000ae
:103c9000a30a0700a10020000e089000bc0a07003c
:103ca0001000200009f70700401f20009c0a0700b1
:103cb000210120000e089000b50a07000e099000af
:103cc000ce00900010002000effc07007041800043
:103cd000fe0f500084003200604780000000e000ca
:103ce00003003a00800c20008d0a0700790037009d
:103cf00060478000e40f500008003c0060478000ef
:103d000080007800803e20000088b9000000780024
:103d1000803eb100820a070066003700b04680008e
:103d20000000e00015003200401f20007c0a070060
:103d30007e019000ee0090000e08900025ff070025
:103d4000e10d20000e089000910a070060478000f6
:103d5000e70f500057003600604780008000780071
:103d6000803e20000088b9008000780000892e0085
:103d7000008040006a0a07004e00370081022000e0
:103d80000e089000820a0700401f2000640a070006
:103d9000a10220000e0890007d0a0700401f2000ad
:103da0005f0a0700810c20000e089000780a0700c7
:103db000803e20005a0a0700210d20000e089000c6
:103dc000730a07006047800080007800401f2000d1
:103dd0000088b9008000780000832f000080400038
:103de0004f0a0700610e20000e089000680a0700c5
:103df00060478000eb0f500017003400007d20006a
:103e0000470a0700b10e20000e089000600a070064
:103e1000401f2000420a0700010f20000e089000fa
:103e20005b0a0700401f20003d0a0700510f2000d9
:103e30000e089000560a070061478000401f2000ce
:103e40000088b9008000780040a82e000080400063
:103e5000330a0700080037006047800080007800c0
:103e6000401f20000088b90080007800c0632f0048
:103e7000008040002a0a0700a10f20000e089000d1
:103e8000430a0700401f2000250a0700f10f200009
:103e90000e0890003e0a0700401f2000200a07007d
:103ea000d10320000e089000390a0700401f2000af
:103eb0001b0a0700f10320000e089000340a0700d7
:103ec000401f2000160a0700110420000e08900071
:103ed0002f0a07000e099000de009000200020004d
:103ee00069fc070001003700000000000000eb0043
:103ef000000f7800d04680000000e0000300320090
:103f0000e10f500035003200440037008040eb00e4
:103f100030c0b300ba06070020c5b300730607001f
:103f2000833e200012002000de0090004e00900032
:103f3000c7fd0700000f78007141800000032000da
:103f4000808f500030003a001e007800e50f5000ce
:103f5000030032001e007800e60f50002c003a00eb
:103f600070468000900078005e009000808f5000c6
:103f700004003a00704680000080e80010007800dd
:103f8000020037007046800010007800200798007b
:103f9000803e2000e20907000e099000ae0090006c
:103fa0003000200038fc0700401f2000dc0907001b
:103fb0000e099000ae0090004000200032fc070087
:103fc000833e200022002000ae0090004e009000b2
:103fd0009ffd0700000f7800100037000e089000ca
:103fe000bffe07000000e0000b003200431f20006e
:103ff00012002000de0090004e00900094fd0700ab
:10400000000f7800050037000000000003003700b3
:10401000000000000100370000000000a140800007
:10402000d040800080804000b04080008080400010
:10403000c040800080804000e04080000080400060
:104040003007980012002000d10020003e009000b0
:10405000fd070700a1408000d040800000804000a4
:104060000000e00015003400a1408000d040800036
:1040700080804000400620000088b9008000780061
:104080003e00900000017800110009008200d80075
:10409000004188000041800031062000810f50005f
:1040a00001003400300620000041880000418000fb
:1040b0000001eb00d1002000e30707008040eb0087
:1040c00030c0b3004e06070090c4b30007060700d7
:1040d0001e007800e40f500007003a0030478000cf
:1040e0000000a00030478800804180000000e80008
:1040f000804188000400370031478000e0ff2f0036
:1041000000806000304788000000eb00eff50700fa
:1041100070478000e30f50001200360070478000a7
:1041200064005000100798000500370000a62e001c
:104130007b0907001e009000c003b1001007980023
:104140009e009000c0032000808f5000f7ff3e00cb
:104150009e009000803e20000088b900000078009a
:104160006f0907008000eb00b00320004104070046
:10417000200c07000080fa00000006000200fa0090
:10418000904180000509070001b42b003000200099
:1041900056080700000f780090418000ff080700d4
:1041a0009e00780020002000100507008000eb0032
:1041b000d00320002f0407000000fe000080fa005a
:1041c000000006001c00fa00300f9800410f980014
:1041d000520f98000000eb00000f78000000eb0089
:1041e00010079800004680007007980090478000f4
:1041f0000000400012f50700000f98007041800099
:1042000080007800300320001a04070016033700ee
:1042100011002000d003200016040700f1b42b0089
:1042200000b62b002108070012002000110020001a
:104230001e009000840707001c28ef00e04080006b
:10424000d0408800d0408000c0408800c04080003e
:10425000b0408800b0408000a04088000000eb0023
:10426000400798000000eb00500798000000eb00aa
:10427000000f7800e202370090478000800078004d
:104280000e089000e40807000000eb0060079800ab
:10429000d30237006e009000000040008e089000ae
:1042a0000080400010007800100f980070418000de
:1042b00031062000810f50005b00320031062000e3
:1042c000810f500008003e00fe0f50002b0032000e
:1042d00001032000810f50008f003200f40f5000c6
:1042e0000b0032000e01370061062000810f5000e4
:1042f00089003200e1062000810f50002f003200bb
:1043000041062000810f5000610032000401370097
:104310001e0890000000e000030032001e0890001c
:10432000e20f500003003a00604680001000780061
:1043300003003700604680000080e800100078002d
:10434000200798001e089000e10f50000300320083
:104350001e089000e20f500003003a0070468000f3
:104360001000780003003700704680000080e800ed
:104370001000780030079800e90037001e08900010
:104380000000e000030032001e089000e20f500021
:1043900003003a00604680001000780003003700f8
:1043a000604680000080e800100078002007980038
:1043b0000000eb0030079800d90037001e0890007d
:1043c0000000e000030032001e089000e20f5000e1
:1043d00003003a00604680001000780003003700b8
:1043e000604680000080e8001000780020079800f8
:1043f0001e089000e10f5000030032001e089000dc
:10440000e20f500003003a00704680001000780070
:1044100003003700704680000080e800100078003c
:1044200030079800be0037001e0890000000e00032
:10443000030032001e089000e20f500003003a0013
:10444000604680001000780003003700604680005e
:104450000080e80010007800200798006046800087
:10446000900078002e009000808f500004003a00e9
:10447000704680000080e8001000780002003700dd
:10448000704680001000780030079800a4003700c4
:104490001e0890000000e000030032001e0890009b
:1044a000e20f500003003a006046800010007800e0
:1044b00003003700604680000080e80010007800ac
:1044c0002007980060468000900078002e00900041
:1044d000808f500004003a00704680000080e800a1
:1044e000100078000200370070468000100078004d
:1044f000300798001e007800ef0f500003003400d2
:10450000b000200000468800850037000000eb0066
:10451000004688008200370030478000630060005a
:10452000e30f500003003a0080418000e20f50008a
:104530007a00340080468000e40f50001f003200f3
:10454000e60f50004e003200e20f500071003a00ba
:104550001e0890000000e000030032001e089000da
:10456000e20f500003003a0060468000100078001f
:1045700003003700604680000080e80010007800eb
:10458000200798001e089000e10f50000300320041
:104590001e089000e20f500003003a0070468000b1
:1045a0001000780003003700704680000080e800ab
:1045b00010007800300798005600370061468000f0
:1045c0001e0890000000400000804000900078002d
:1045d000210798001e089000e10f500003003200f0
:1045e0001e089000e20f50000b003a009e00780079
:1045f00070002800008060000000e00004003d0022
:104600000000e90081ff2f00008070000000e8003a
:10461000e30f5000110034001e0890000000e0007d
:10462000030032001e089000e30f50000f003a0014
:104630009e00780070002800008060000000e0000c
:1046400004003d000000e90081ff2f0000807000a1
:104650000000e800e30f50000400340070468000c2
:1046600010017800320798002a0037007046800059
:104670000080e8009000780031079800250037009e
:10468000614680001e08900000004000008040004d
:1046900010017800220798001e089000e20f5000d9
:1046a00008003c009e007800c00020000001780057
:1046b000110009008200d8008000fd00e50f5000c5
:1046c0000b0034001e089000e20f50000c00340074
:1046d0009e007800c0002000000178001100090051
:1046e0008200d8008000fd00e50f50000400340077
:1046f0007046800090007800310798000500370070
:10470000704680000080e8001001780032079800b1
:10471000000000003028ef0001003700000000001a
:104720008040eb000040eb00b504070021942b0013
:104730002e00900000804000104078006b040700bd
:1047400021942b003e009000008040001040780033
:1047500066040700b0468000e10f500003003200fd
:10476000e20f500005003200140037009046800030
:10477000900078004107980010003700daf3070036
:1047800061006000004078000004e0000300320097
:1047900090468000100078000300370090468000ab
:1047a0000080e8001000780040079800a0468000d4
:1047b000100178005207980000000000f0458000ca
:1047c0006101b8000080eb008080eb000200400037
:1047d00083804800f204200003002000820f500074
:1047e000838f580073013e000060010052003700c3
:1047f0004e0037006f0137006e0137006d01370042
:104800006c0137006b0137006a013700690137001e
:104810005200370067013700660137006501370035
:10482000640137006301370062013700610137001e
:10483000600137005f0137005b003700620037001e
:104840005c0137005b0137005a01370082003700f6
:1048500089003700570137005601370055013700ee
:10486000a9003700530137005201370051013700ca
:10487000500137004f0137004e0137004d0137001e
:104880004c0137004b013700c300370049013700a6
:10489000ca0037004701370046013700d80037000b
:1048a000440137004301370042013700410137001e
:1048b000400137003f0137003e0137003d0137001e
:1048c0003c0137003b0137003a013700390137001e
:1048d0003801370037013700360137001201370041
:1048e000340137003301370032013700310137001e
:1048f000300137002f0137002e0137002d0137001e
:104900002c0137002b0137002a013700290137001d
:10491000280137002701370026013700250137001d
:104920002401370023013700070137000000eb00a6
:10493000004688001f0137001e00780061006000fb
:104940000000e000020032007e009000010037000d
:104950000000eb0000468800160137003e0890007a
:104960000000400000017800706626000090b90049
:10497000c288de004f90de0000805000200f9800bb
:104980003e0890009e0050002e089000808f50003e
:1049900002003c007e009000010037000000eb00a8
:1049a00000468800030137002e009000f4f3070052
:1049b0000000e0000200320010002000010037007b
:1049c00020002000504688009e0078005000200003
:1049d00000017800110009008200d8008000fd006d
:1049e000e20f500012003200e20f500005003c00c0
:1049f0000000e00008003200e10f50000900320022
:104a0000ec003700e30f50000c003200e40f5000c0
:104a10000d003200e70037000000eb000046880080
:104a20000c003700b0052000004688000900370060
:104a3000c00520000046880006003700d005200091
:104a40000046880003003700e0052000004688008b
:104a500000000000d70037002e009000c8f30700c8
:104a60000000e000020032001000200001003700ca
:104a700020002000504688009e0078005000200052
:104a800000017800110009008200d8008000fd00bc
:104a9000e20f500012003200e20f500005003c000f
:104aa0000000e00008003200e10f50000900320071
:104ab000c0003700e30f50000c003200e40f50003c
:104ac0000d003200bb0037000000eb0000468800fc
:104ad0000c0037000006200000468800090037005f
:104ae000100620000046880006003700200620003f
:104af000004688000300370030062000004688008a
:104b000000000000ab0037009e007800500020003d
:104b100000017800110009008200d8008000fd002b
:104b2000e20f500012003200e20f500005003c007e
:104b30000000e00008003200e10f500009003200e0
:104b40009c003700e30f50000c003200e40f5000cf
:104b50000d003200970037000000eb00004688008f
:104b60000c0037009007200000468800090037003d
:104b7000a00720000046880006003700b00720008c
:104b80000046880003003700c00720000046880068
:104b900000000000870037002e00900078f3070027
:104ba0000000e00002003200100020000100370089
:104bb00020002000504688007e0037002e00900024
:104bc0006ff307000000e000020032001000200038
:104bd0000100370020002000504688001e007800a9
:104be000610060000000e000020032007e009000e2
:104bf000010037000000eb00004688006d00370020
:104c00001e007800e30f50000b0034001e007800f7
:104c1000e70f500008003c002e00900058f30700fa
:104c20000000e000040032003e00900054f3070052
:104c30000000e0002a003a001e007800e70f500054
:104c40000b0034001e007800eb0f500008003c0001
:104c50002e0090004af307000000e000040032003c
:104c60003e00900046f307000000e0001c00320008
:104c70001e007800eb0f50000b0034001e0078007f
:104c8000ef0f500008003c002e0090003cf307009e
:104c90000000e00004003a003e00900038f30700f6
:104ca0000000e0000e003a001e007800ef0f5000f8
:104cb000140034001e007800f30f500011003c0077
:104cc0002e0090002ef307000000e0000d003a00d7
:104cd0003e0090002af307000000e00009003a00bf
:104ce0002e00900026f307000000e00002003200d2
:104cf00020002000010037001000200050468800ee
:104d00002c0037002e0090001df307000000e0008b
:104d100002003200100020000100370020002000b7
:104d200050468800230037001e089000e10f500015
:104d300002003c000000eb000100370010092000d9
:104d4000004688001b00370067f207006100600022
:104d5000004078000004e0000b0032003e089000a4
:104d6000cf00de00008040000080d1009e0f500088
:104d700002003c007e009000010037000000eb00c4
:104d8000004688000b0037003e089000cf00de0090
:104d9000008040000080d1009e0f500002003400cf
:104da0007e009000010037000000eb000046880004
:104db000000000000046800000027800de01900044
:104dc0004e019000be0090002e00900092fb070064
:104dd0001e0fe8006e0090000000e80060079800d9
:104de000914780006e009000808f500004003400d6
:104df000f14080004e089000808f500025fd350066
:104e00003e0890009e007800808f500004003d0016
:104e1000f14080004e089000808f500016fd350054
:104e20008000eb00d0032000120107000041800049
:104e30008000eb00ebf20700b1408000400620004c
:104e40000088b90080007800b2408000a040800057
:104e50000000410000017800110009008200d80024
:104e600011002000dff20700f14080004e089000a2
:104e7000808f50000b003d0010c0b3001e01900059
:104e8000de089000810f5100010035000040eb006a
:104e90009e0090008100e800110798000004e000e7
:104ea000dbfc3a008000eb00e0032000f10007008b
:104eb0000080eb00504188000e0890007bf1070055
:104ec0006046800079f107007046800077f10700a6
:104ed000c046800075f107000080fa00000006005f
:104ee0000200fa000000eb00000f78001e00a20094
:104ef0001e0078004046880011b72b0010002000eb
:104f0000fa040700f9ff37000200fa00000f7800ea
:104f100010002000404688008040eb0030c0b30005
:104f2000b7020700c0c4b3007002070011002000e0
:104f3000f0042000cf0007000080fa000000060007
:104f40000000fa000000eb00404688008040eb00c3
:104f500030c0b300aa020700e0c2b300630207003a
:104f60008000eb00f0042000c20007000080fa007f
:104f7000000006000000fa00f09f230000168800e1
:104f8000c422ef00f0cf2f00301688000030200040
:104f9000501688000080eb0060168800d022ef00d9
:104fa00000f020009016880000002300b016880052
:104fb000d822ef00dc22ef000080eb00f016880022
:104fc000e222ef00f0cf2f0020178800e822ef0048
:104fd0000080fa00000006000000fa000021ef0047
:104fe00080382100100888008460a9008c60a80027
:104ff00000012800200888000080eb00a7f00700cf
:105000000028ef000228ef000428ef000628ef0038
:105010000080fa00000006000200fa00000f78008d
:105020001e0078006101b80000408000114080003f
:105030000200400083804800004088001140880042
:105040001e0078006101b8002040800031408000df
:1050500002004000838048002040880031408800e2
:10506000224080003340800000202000010020000a
:1050700002027800030178008001780001007800c6
:1050800003026200000061008000eb00c000dd0050
:10509000000020000001be006120b8000001710086
:1050a00081817100471add004910de0000007200a6
:1050b000c918de0000407800614060000080fb00fd
:1050c000610060004e00dd00a2168000f1ff2b00a1
:1050d0008100610001007000a0168800000000003f
:1050e00000000000224080003340800000202000ab
:1050f000010020000202780003017800800178009e
:105100000100780003026200000061008000eb00f3
:10511000c000dd00000020000001be006120b800da
:105120000001710081817100471add004910de0025
:1051300000007200c918de00004078006140600085
:105140000080fb004f00dd00a2168000f1ff270069
:105150008100610001007000a016880000000000be
:10516000000000000080fa00000006000000fa00c5
:10517000d0478000e14780000001be002203b0005c
:105180000380b000204080003140800014002000e7
:10519000800f5100818f5900010039000002eb009f
:1051a000040078000080fa00000006000600fa0003
:1051b000200798002e009000cf80de00008fbe00f8
:1051c0000028ef000228ef000000000000408000ef
:1051d00011408000be0f5000ae8f5800fbff390019
:1051e0000080fa00000006000200fa00000f7800bc
:1051f00002003700803e2000ecff07001e00780010
:1052000000f0a7000000ea000000ea004f00de0006
:10521000004078001e0fe9000004e000f5ff3a00ae
:105220000080fa00000006000600fa002ff00700d8
:1052300090f12f0033f0070000f02d00000f7800f0
:10524000d0752700100798009001200020079800d3
:105250002e0190009e0090001e0078004bf0070089
:105260008000eb00d0032000020007000080fa005d
:10527000000006000400fa00000f780011079800f3
:1052800010002000804088000000000012f007009d
:105290000004e000fdff3a001e00780000407800a6
:1052a0008080fb00f007200000806000d0108800a4
:1052b0000000000008f007000004e000fdff3a00d5
:1052c0001e009000004078000074a0000080fb00e9
:1052d000d010880000000000ffef07000004e0008d
:1052e000fdff3a00904080000000e0000b0032001b
:1052f0001a22ef0000000000f7ef07000004e000b2
:10530000fdff3a0020082000d010880000000000b7
:10531000f1ef07000004e000fdff3a001228ef0063
:105320001028ef000080fa00000006000200fa00da
:10533000000f78001e007800004078006140600097
:1053400061406000614060000080fb00610060001f
:10535000a2168000e1ff2f008100610001007000b3
:10536000a016880000000000000000009e007800e9
:10537000628060000080d1000040780061406000e1
:105380000080fb006100600000004000a216800069
:10539000d1ff2f008100610001007000a01688007d
:1053a00000000000000000009e00780064806000a3
:1053b0004280de0000407800614060000080fb0019
:1053c000610060004200dd00a2168000b1ff2f00e6
:1053d0008100610001007000a0168800000000003c
:1053e000000000009e007800688060004380de00be
:1053f00000407800614060000080fb0061006000b8
:105400004300dd00a216800071ff2f0081006100c3
:1054100001007000a01688000000000000000000dd
:105420000080fa00000006000200fa00000f780079
:105430001e0078000040780061406000614060001c
:10544000614060000080fb00610060004c00dd00f6
:10545000a2168000f1ff2e008100610001007000a3
:10546000a016880000000000000000009e007800e8
:10547000628060000080d1000040780061406000e0
:105480000080fb00610060004d00dd00a21680007e
:10549000f1ff2d008100610001007000a01688005e
:1054a00000000000000000009e00780064806000a2
:1054b0004280de0000407800614060000080fb0018
:1054c000610060004800dd0042168000f1ef2f000f
:1054d000810061000100700040168800000000009b
:1054e000000000009e007800688060004380de00bd
:1054f00000407800614060000080fb0061006000b7
:105500004900dd0042168000f1df2f0081006100bc
:10551000010070004016880000000000000000003c
:105520000080fa00000006000000fa00f0ff2300ef
:10553000401588001115800030fc2f0000806000ad
:105540000020a0001015880011158000f0cf2f005a
:105550000080600010158800a222a900a682a90080
:10556000a342a80000002c0050158800a1a2a800aa
:1055700001158000f0cf2f0000806000001588002a
:1055800001158000000e2000010070000015880049
:10559000a022a800a042a80011158000f0ff210061
:1055a0000080600010158800a222a900a202a900b4
:1055b0002115800000f021000100700020158800f6
:1055c000a4e2a9002115800000fc2f0000806000eb
:1055d000f001b300201588008560a8008d60a80048
:1055e000a1e2a8000080fa00000006000400fa0012
:1055f000000f7800110798001e0078006101b900c3
:10560000b0dc8500c1dc85000200400083804800da
:105610002200200062ef0700013b8000000028000c
:10562000008060000000e000fbff3a001e007800f0
:105630006101b900b0dc8500c1dc850002004000da
:10564000838048001e0190006eef0700013b800040
:1056500000002800008060000000e000fbff3a002e
:105660000080fa00000006000400fa00100798000d
:105670001e0090006101b900b0dc8500c1dc85002e
:1056800002004000838048000002eb00230020005d
:105690000e0178006aef07001e0078000080fa0013
:1056a000000006000400fa0080042000000f7800cb
:1056b00000222c00100798009e0078001e00900029
:1056c000efee07000080fa00000006000200fa007a
:1056d000004f780011479800caee0700ebee070074
:1056e0000000000030108000610060000000e00059
:1056f000fcff3a0085c0a9001e407800d2ee0700ea
:105700000000000040108000610060000000e00028
:10571000fcff3a000000000021048000000024008b
:10572000008060000000e000fbff320085c0a9009f
:105730000000000041108000000028000080600090
:105740000000e000fbff3a001e409000beee0700a4
:10575000d0ee070000000000301080006400600000
:105760000000e000fcff3a000080fa0000000600a4
:105770000400fa0020479800a2ee0700c3ee0700dd
:105780000000000030108000610060000000e000b8
:10579000fcff3a0085c0a9002e4090000004a00044
:1057a000a9ee0700000000004010800061006000ca
:1057b0000000e000fcff3a0000000000210480002f
:1057c00000002400008060000000e000fbff3200c9
:1057d00085c0a900000000004110800000002800e2
:1057e000008060000000e000fbff3a0090ee070040
:1057f000004f7800a7ee0700000000003010800086
:10580000640060000000e000fcff3a001e407800e9
:105810000080fa00000006000000fa0029c8bf005e
:105820000034a00029e8b70020c0b30028e8b70082
:1058300000352c00ed01070041c0b300e0c7b30004
:10584000a2ff070040062000e801070000c3b300e4
:10585000aa01070040192100e401070000c3b300ba
:10586000a601070060092000e001070000c3b300a3
:10587000a201070060092000dc01070000c2b3009c
:105880009e01070060092000d801070080c0b30016
:1058900024e8b70024c8bf000054a0002d01070071
:1058a0002668ef00810007008b00070020c0b300ce
:1058b00025e8b70025c8bf000024a0002501070087
:1058c00026c8bf000034a0002201070080c0b3003a
:1058d00027e8b70027c8bf000044a0001d0107004b
:1058e000330007000080fa00000006000200fa0002
:1058f000004f78001e407800220107001e4078000b
:105900000080fb0080007800a001200059fe070005
:105910000080fa00000006000600fa002007980048
:10592000ae009000010f7800040037001e007800e0
:10593000104078001e0fe800120107001e007800da
:10594000104078000004e000f8ff3a000000eb008f
:10595000100798000b0037001e009000ae0090006a
:1059600000804000104078000080fb00800078003c
:10597000a00120003ffe07001e0090000000e8008c
:10598000100798001e009000ae00900000804000bc
:10599000104078000004e000030032001e00900078
:1059a000ef0f5000ecff34000080fa00000006000a
:1059b0000000fa0010c0b300e60007000053270003
:1059c0008a010700010220009001200029fe070043
:1059d0000080fa00000006000000fa0020c0b300ba
:1059e000dc000700005327008001070001022000af
:1059f000900120001ffe07000080fa000000060052
:105a00000c00fa00204f9800314f98000000eb0086
:105a10001007980000042000200798004001200093
:105a200030079800400520004007980028c8bf00b4
:105a3000be48900080cf50000300390028c8bf0046
:105a40000040e900304f98003e4890000080fb0085
:105a500000004000000047001000900080407800e7
:105a60002e48900000c040000074a000b90007005c
:105a70002e4890000080fb006f0060000000400096
:105a8000800078003e4890000080fb0061006000cc
:105a9000010070007f0f60009e00780090012000e0
:105aa000f4fd07000080fa00000006000000fa0084
:105ab0006182200091407800b0cfb30000c0600048
:105ac00026e8b70026c8bf000034a000a1000700e8
:105ad0000080fa00000006000000fa0026c8bf009f
:105ae0000024a00026e8b70026c8bf000034a000ac
:105af000980007000080fa00000006000000fa008d
:105b00006182200091407800d0cfb30000c06000d7
:105b100026e8b70026c8bf000034a0008d000700ab
:105b20000080fa00000006000000fa0026c8bf004e
:105b30000014a00026e8b70026c8bf000034a0006b
:105b4000840007000080fa00000006000000fa0050
:105b50006182200091407800e0cfb30000c0600077
:105b600026e8b70026c8bf000034a000790007006f
:105b70000080fa00000006000000fa0026c8bf00fe
:105b80000004a00026e8b70026c8bf000034a0002b
:105b9000700007000080fa00000006000000fa0014
:105ba0007182200091407800b0cfb30000c0600047
:105bb00027e8b70027c8bf000034a00027e8b700d7
:105bc00027c8bf000044a000620007000080fa0060
:105bd000000006000000fa0027c8bf000024a00053
:105be00027e8b70027c8bf000034a00027e8b700a7
:105bf00027c8bf000044a000560007000080fa003c
:105c0000000006000000fa0025c8bf000014a00034
:105c100025e8b70025c8bf000024a0004d000700fc
:105c20000080fa00000006000000fa005182200007
:105c300091407800d0cfb30000c0600025e8b700e5
:105c400025c8bf000024a000420007000080fa0021
:105c5000000006000000fa0025c8bf000004a000f4
:105c600025e8b70025c8bf000024a00039000700c0
:105c70000080fa00000006000000fa0051822000b7
:105c800091407800e0cfb30000c0600025e8b70085
:105c900025c8bf000024a0002e0007000080fa00e5
:105ca000000006000600fa0020479800210798002f
:105cb0002e40900067406000204798002e409000e2
:105cc0000080fb004300dd00004078000064a0007d
:105cd000200007000000eb00000f780006003700ee
:105ce0001e007800ae009000008040001040780058
:105cf000240007001e0fe8001e007800e70f500088
:105d0000f7ff34000080fa00000006000000fa00ef
:105d1000918220009140780070cfb30000c06000f5
:105d200029e8b700c3000700a70007000080fa00b9
:105d3000000006000000fa0029c8bf000034a000df
:105d400029e8b700bb0007009f0007000080fa00a9
:105d5000000006000200fa00004f78008040eb00cf
:105d60001e4078002f0007000080fa0000000600a7
:105d70000000fa000040eb00430007000080fa003a
:105d8000000006000200fa00004f780011c0b300c6
:105d90001e407800230007000080fa000000060083
:105da0000000fa0010c0b300370007000080fa00be
:105db000000006000000fa00edff070001c8b30074
:105dc000014060000080fa00000006000000fa00b8
:105dd000e7ff07000074a1000080fa000000060041
:105de0000200fa00004f78001e4078000074a00006
:105df000d8ff0700eaff07000080fa000000060055
:105e00000200fa00004f78001e407800f043b20014
:105e10000064a000cfff0700e1ff07000080fa0048
:105e2000000006000400fa0020479800314798005f
:105e3000ae40900000cfb30000cf6000ae409000b5
:105e4000400020000008dd00104798009e409000b0
:105e500000cfb30000c06000104798003e409000a3
:105e60001e4070000024a000240007009e40900007
:105e70003e40900000c070000024a0001f000700fa
:105e80000080fa00000006000400fa002047980095
:105e9000ae40900000cfb30000c070004a00070081
:105ea000ae40900040cfb30000c070001d0007005e
:105eb000004f7800ae40900040cfb30000c07000ab
:105ec00018000700104798002e4090000024a00002
:105ed0003d0007009e40780000cfb30080c0600006
:105ee0001e4090000080fb004400de00004078006f
:105ef00000c070000080fa00000006000200fa00f6
:105f0000004f7800d0cfb3001e4060002e00070085
:105f1000d0cfb3001e4060000f0007000080fa00e1
:105f2000000006000400fa00204798002e40900070
:105f30000014a000160007003e000700004f780084
:105f40002e4090000014a000030007001e407800bf
:105f50000080fa00000006000200fa00004f7800fe
:105f60001e4078000024a000170007001000200049
:105f70001e000700b0cfb3001e40600012000700f3
:105f800020032000190007000080fa00000006002e
:105f90000200fa00004f7800b0cfb3001e4060004e
:105fa0000900070010002000100007001e407800c4
:105fb0000024a00004000700200320000b000700bd
:105fc0000080fa00000006000200fa00004f78008e
:105fd00029c8bf001e40700080407800e0c7b300b1
:105fe000bafd07000080fa00000006000400fa0075
:105ff000100798000000eb00000f78000700370042
:106000000000000000000000000000000000000090
:1060100000000000000000001e0fe8001e009000bd
:106020009e007800808f5000f5ff39000080fa0054
:10603000000006000000fa00e0c7b300ccfd070036
:106040000080fa00000006001200fa0060079800c5
:1060500071079800020f98006e01900070a3210054
:106060000090b900ca88de004f90de00008050002a
:1060700010079800ee00900070a321000089b9007d
:106080004a99de004f88de000000510002712200b4
:106090000281b9000200780000805000813e20009b
:1060a00001017800110009000200d80020079800c3
:1060b000ee009000803e20000001780011000900f1
:1060c0008200d8008000fd0000017800b047210068
:1060d0000090b900c388de004f90de0000805000c1
:1060e00030079800ee009000b04721000089b90009
:1060f0004399de004f88de00000051004206200078
:106100000281b9000200780000805000716626000c
:106110000181b900c298de004f80de00008050008f
:10612000400798006e009000716626000181b9005a
:106130004299de00cf80de00810051006a09b9007b
:106140008200780001005000500798000000eb002a
:10615000000f78000e089000804078007e009000cc
:106160000040780026fe07001e0090000000e000be
:106170000e0032001e009000004078000043b00086
:10618000dafd07000e089000804078007e00900045
:106190000000e800700798007e0090000040780042
:1061a00017fe070010002000000f78002e0090005e
:1061b0000000e00003003a001e0078000000e0004c
:1061c0000e0032002e009000004078000043b00026
:1061d000c6fd07000e089000804078007e00900009
:1061e0000000e800700798007e00900000407800f2
:1061f00003fe070010002000000f78003e00900012
:106200000000e00003003a001e0078000000e000fb
:106210000e0032003e009000004078000043b000c5
:10622000b2fd07000e089000804078007e009000cc
:106230000000e800700798007e00900000407800a1
:10624000effd070010002000000f78004e009000c6
:106250000000e00003003a001e0078000000e000ab
:106260000c0032004e009000004078000043b00067
:106270009efd07000e089000804078007e00900090
:106280000000e800700798007e0090000040780051
:10629000dbfd07005e009000004078000043b00086
:1062a00092fd07000080fa00000006000400fa00da
:1062b000000f780011079800c7fd0700bcfd07001c
:1062c0001e00780094fd070011c0b3000040eb00f1
:1062d000cbfd07001e0090008ffd0700100020007e
:1062e000c1fb07000080fa00000006001200fa005f
:1062f000889fbe0070079800010f98000f04780077
:106300000f007800800478007e0090008000e90093
:1063100051079800000040000000e8000000e8007d
:106320000000d100800040000f0078008187470006
:106330000000e8000000d100000040006007980065
:106340000000eb00000f780099fd0700a2fd070098
:106350000e08900070fd07000000eb001007980089
