:020000040000fa
:080000000007040000000000ed
:020000040000fa
:0400080014090000d7
:020000040000fa
:04000c0014090000d3
:020000040000fa
:0400100014090000cf
:020000040000fa
:0400140014090000cb
:020000040000fa
:0400180014090000c7
:020000040000fa
:04001c0014090000c3
:020000040000fa
:0400200014090000bf
:020000040000fa
:0400240014090000bb
:020000040000fa
:0400280014090000b7
:020000040000fa
:04002c0014090000b3
:020000040000fa
:0400300014090000af
:020000040000fa
:04003400c8070000f9
:020000040000fa
:0400380014090000a7
:020000040000fa
:04003c0014090000a3
:020000040000fa
:04004000140900009f
:020000040000fa
:04004400140900009b
:020000040000fa
:040048001409000097
:020000040000fa
:04004c001409000093
:020000040000fa
:04005000140900008f
:020000040000fa
:04005400c2080000de
:020000040000fa
:040058001409000087
:020000040000fa
:04005c001409000083
:020000040000fa
:04006000140900007f
:020000040000fa
:04006400140900007b
:020000040000fa
:040068001409000077
:020000040000fa
:04006c001409000073
:020000040000fa
:04007000140900006f
:020000040000fa
:04007400140900006b
:020000040000fa
:040078001409000067
:020000040000fa
:04007c001409000063
:020000040000fa
:04008000140900005f
:020000040000fa
:04008400140900005b
:020000040000fa
:04008800d608000096
:020000040000fa
:04008c001409000053
:020000040000fa
:04009000140900004f
:020000040000fa
:04009400140900004b
:020000040000fa
:040098001409000047
:020000040000fa
:04009c001409000043
:020000040000fa
:0400a000140900003f
:020000040000fa
:0400a400140900003b
:020000040000fa
:0400a8001409000037
:020000040000fa
:0400ac001409000033
:020000040000fa
:0400b000140900002f
:020000040000fa
:0400b400140900002b
:020000040000fa
:0400b8001409000027
:020000040000fa
:0400bc001409000023
:020000040000fa
:0400c000140900001f
:020000040000fa
:0400c400140900001b
:020000040000fa
:0400c8001409000017
:020000040000fa
:0400cc001409000013
:020000040000fa
:0400d000140900000f
:020000040000fa
:0400d400140900000b
:020000040000fa
:0400d8001409000007
:020000040000fa
:0401080014090000d6
:020000040000fa
:04010c0014090000d2
:020000040000fa
:0401100014090000ce
:020000040000fa
:0401140014090000ca
:020000040000fa
:0401180014090000c6
:020000040000fa
:04011c0014090000c2
:020000040000fa
:0401200014090000be
:020000040000fa
:0401240014090000ba
:020000040000fa
:0401280014090000b6
:020000040000fa
:04012c0014090000b2
:020000040000fa
:0401300014090000ae
:020000040000fa
:0401340014090000aa
:020000040000fa
:0401380014090000a6
:020000040000fa
:04013c0014090000a2
:020000040000fa
:04014000140900009e
:020000040000fa
:04014400140900009a
:020000040000fa
:040148001409000096
:020000040000fa
:04014c001409000092
:020000040000fa
:04015000140900008e
:020000040000fa
:04015400140900008a
:020000040000fa
:040158001409000086
:020000040000fa
:04015c001409000082
:020000040000fa
:04016000140900007e
:020000040000fa
:04016400140900007a
:020000040000fa
:040168001409000076
:020000040000fa
:04016c001409000072
:020000040000fa
:04017000140900006e
:020000040000fa
:04017400140900006a
:020000040000fa
:040178001409000066
:020000040000fa
:04017c001409000062
:020000040000fa
:04018000140900005e
:020000040000fa
:04018400140900005a
:020000040000fa
:040188001409000056
:020000040000fa
:04018c001409000052
:020000040000fa
:04019000140900004e
:020000040000fa
:04019400140900004a
:020000040000fa
:040198001409000046
:020000040000fa
:04019c001409000042
:020000040000fa
:0401a000140900003e
:020000040000fa
:0401a400140900003a
:020000040000fa
:0401a8001409000036
:020000040000fa
:0401ac001409000032
:020000040000fa
:0401b000140900002e
:020000040000fa
:0401b400140900002a
:020000040000fa
:0401b8001409000026
:020000040000fa
:0401bc001409000022
:020000040000fa
:0401c000140900001e
:020000040000fa
:0401c400140900001a
:020000040000fa
:0401c8001409000016
:020000040000fa
:0401cc001409000012
:020000040000fa
:0401d000140900000e
:020000040000fa
:0401d400140900000a
:020000040000fa
:0401d8001409000006
:020000040000fa
:100e00002fb220000e7f22000e018800000000009b
:100e1000000020000000e00002003200000120007d
:100e20002002880014000700880107000000e0008d
:100e300003003a00e0172400010020000200370000
:100e40000000200001002000810f7000010032002e
:100e500014000700000020000000e0000200320043
:100e60000000020000000000d60f02000000000099
:100e70000040da000000fe004440a900a037200036
:100e80000000e0000300320000002000a001880004
:100e90004440a800000006008a1f78008b1f7800dd
:100ea0000000060091018800800478000000eb003b
:100eb0001a003700e284440032a0b4009905ba0059
:100ec000e284440032a0b4009906ba00e2844400ef
:100ed00032a0b4000006eb00476fde00fd07b20051
:100ee000636ce10003003a00ebff07000000eb0039
:100ef0000a003700606ce10004003a00005deb007e
:100f00008b05e900fdff3e00040037006168e10049
:100f1000010032000086eb000b00070019c7ba0081
:100f20001905ba000e04e00003003a000a00e000d0
:100f3000e0ff3a0000000600fe07b2009e018800b4
:100f40008a047800f5ff3700395dba008b05e900a7
:100f50000c003200295dba008b05e9000800320060
:100f60000c00e00003003a00e284440032a0b40028
:100f7000f5ff370019ddba008b05e900faff3a00ea
:100f80008904e800e184440032a0b40000000600b7
:100f90003600f800809fbe00829fbe00849fbe0086
:100fa000869fbe000200fa00500020003e14070099
:100fb0008c1a07002ae8b70080408000000f7800f4
:100fc0009e00780060418000808f50000a003c0045
:100fd0009e007800b0408000808f500006003500f1
:100fe0000000eb00304888000000eb00404888001b
:100ff000e702a9003c003700304880000000e00014
:1010000007003a00204080003140800050488800ae
:1010100061488800200020003048880032003700f6
:1010200030488000e20f50002f003a005048800006
:10103000614880006a014000e08148002040800053
:1010400031408000800f5100818f5900260031000f
:10105000e702a8009e00780060418000808f500069
:1010600008003400804880000000e80080488800c4
:10107000c0c4b30015e8b700c00420004048880091
:1010800007003700904880000000e8009048880082
:10109000200520004048880020c5b30015e8b700af
:1010a000800020003048880014c8bf000004e00021
:1010b0000d003a0015c8bf000000fb00800078005a
:1010c0000000eb007f1407001568ef002ac8bf007e
:1010d0000000fb0080007800f00420007914070075
:1010e00000c0eb002ae8b7002040800031408000bb
:1010f000421f20000300200063020700e00f5000a1
:10110000e08f580017003a0014c8bf000004e00048
:1011100014003a00a04880000000e0000300320004
:101120001e0078008000eb00a81907009e007800e0
:1011300060418000808f50000300340011002000c7
:10114000700420005f1407009e007800b04080000b
:10115000808f500003003d0021002000700420001b
:10116000581407008460a9000080fa004f03be00f5
:101170004f02be004f01be004f00be003600f90016
:1011800000400600801f78000000fa000014800074
:101190009040880010148000804088008560a9007d
:1011a0000080fa004f007800004006003600f8008a
:1011b000809fbe00829fbe00849fbe00869fbe00af
:1011c0000000fa00c0108000620060000000e00033
:1011d000010032001822a900e01080004041880080
:1011e00041418000a0022000808f500006003a009c
:1011f0008000eb00d0032000321407002003200001
:10120000fe1307000000fe008700a9000080fa001e
:101210004f03be004f02be004f01be004f00be0094
:101220003600f900004006000040da000000fe0031
:10123000889fbe0080047800004980000000e00024
:1012400004003a000e0007000084eb000000e000fc
:1012500008003500084980000900e0000500320060
:1012600009004400060007000000e00001003d0006
:101270000084eb00080078004f04be000000060068
:10128000800078000100e00003003a002092200076
:1012900000498800000005000080eb0022b2200019
:1012a000828f500002003e00014988000000eb00e0
:1012b000000006000602ab00feff3a000642ab004b
:1012c000fcff3a000662ab00faff3a000682ab0070
:1012d000f8ff3a0009c2ab00f6ff3a000000060032
:1012e0000662a8000662ab00feff3a0008c2a90031
:1012f00000108000000006008040780000c0eb0075
:101300008180fb001110880008e2ab0007003a0062
:1013100009c2ab00feff3a00e6ff07000040eb0009
:101320000802e20001003d00e0cfb300000006002b
:101330002110880030108800000006000602a80076
:10134000000006000642a800000006008460a90014
:10135000e7006000f2ff2800cc08dd00a304800055
:1013600003016100680060000281700071ff2f00be
:10137000a204880062048000828060008100700006
:101380006104880000000600001020001802b6006a
:101390000000e9004f00de000000060017e2a9008f
:1013a0008f00a9008f20a9008700a9008720a9002d
:1013b000000006008700a900e70060008720a90060
:1013c0000001780083ff2f000207b20004058000af
:1013d0008481610083817000e8006000030588005b
:1013e000c308de00f3f82f00e180600004058000f0
:1013f00084816100c808dd00830171000008b2002b
:1014000003058800f2ef2f004700de007304800020
:101410000301610061006000028170004900dd008d
:1014200072048800f1df2f00740480008480600063
:10143000810070007104880000000600f21088002e
:10144000b0108800c11088000000060000000500f0
:101450003200f800910188000008bb00410424001c
:101460006210e10004003200000220000010e100e0
:101470000a003a0051042400013b88000500fc00ea
:1014800051052000313b8800a10a2000313b880033
:1014900061e7a80000000000000000003200f90031
:1014a000000006003200f80060042400003b8800c1
:1014b000f2ff37003200f80091018800410024005b
:1014c000013b88000208bb00ecff37003200f80047
:1014d0009101880051002400013b88000301200095
:1014e0003218bb008301e900fdff3a00e3ff37003b
:1014f0003200f8009101880080027800620040000c
:101500003549ba00e08048003204e0000410a7002a
:10151000100032008301e9000e0032002549ba00b4
:101520003204e0000410a7000a0032008301e90041
:10153000080032000408a300eeff320015c9ba000b
:101540003204e0000410a700020032008301e90029
:10155000e8ff3a003200f9000000060003f0a200a4
:10156000889fbe008a9fbe008c1f7800fa0007008b
:10157000010133006450e1004f0032006420e100bb
:101580005200320003826c0007003b000905d000c6
:101590000306d000820f54000c065d0002003900e3
:1015a0000200320089017800030678008582550028
:1015b00004003d000003fd008103fd008502ea00f8
:1015c0008b854200840f720002003b006000100017
:1015d000e08018006011b8000005eb007a28e100f7
:1015e0000a00390006007800c75ddd00f707b20089
:1015f000878075002d003700828171000a01780014
:10160000610560008180d1000080d3008502e9007f
:10161000f9ff3b00060440008784480002003b00bd
:1016200060041400e0841c000988a3000700320055
:101630008a81710082817100610164008904d10096
:101640000884d3008b05e800170037000978a30051
:1016500013003a000b00e000130034008b05e90092
:101660000804440089844c000a4474000978a300eb
:101670000d003a000b00e000070034008b05e90084
:101680000804440089844c0001003a000b0020004b
:101690000978a300f7ff32000001eb0002003700d9
:1016a000828171000a017800700007000cf0a70029
:1016b00001f0a000b90037006420e10002003a0008
:1016c000838f6c00b90033000801be000200be0029
:1016d000b2003700889fbe008a9fbe008c1f780032
:1016e0009d000700a400330003866c006450e100f5
:1016f0002e0032006420e100330032006150e1002e
:101700002f0032006120e100310032008585550054
:10171000eb07b00009002000080420000500370096
:101720000804440089844c000a0031000603430089
:1017300087834b000001530081815b00f8ff330079
:101740000203be000800a0000804440089844c0085
:10175000f6ff3900c639dd00830173000100320055
:10176000130020008904d1000884d3000998a30045
:10177000050032000800a7000300a0008904d10082
:101780000884d3008b05e8008904d1000884d300c5
:101790000001eb000281d2003400070001f0a1003b
:1017a0000cf0a70001f0a0007c0037006420e100ed
:1017b0007e0032000801be000200be00f7ff3700c5
:1017c0006120e100790032006000b800f3ff3700cb
:1017d0000000200001f82700f0ff37000001be00e4
:1017e000480007000470a70003f0a1006509b100dc
:1017f000160032000d0035006828e10006003500b3
:10180000f0ff2f00f1ff27000300e00013003b0072
:101810000100280000000500000040008180480011
:101820008502e900fcff3a0008003700f88f42000b
:1018300002003c008000eb00000005008100d100a8
:101840000080d3008502e800fcff3a000300e000be
:1018500002003b0060001000e0801800000006005d
:101860004f89de00820178008a0037008100200065
:10187000618055000b003d000b00200061fe2f0031
:101880000100e1001d0034008281710061016400eb
:101890008904d1000884d3000000e800faff3a0070
:1018a000710020006100640003007000020060000d
:1018b0000900320061044400e0844c000988a5005e
:1018c000050032008b05e8006808e10002003a00dc
:1018d0008904d1000884d300f20f20000258e100ef
:1018e00005003d00c75ddd00f907b2008980750085
:1018f00008007800000006000bf827008b00780035
:1019000000000500c70ade00f107b200f50fb200c3
:1019100008003200e1cf4200020032000170a00056
:1019200024000500810f700001003200040805004a
:1019300044000500810f700002003a001400050009
:101940008502e9000000400081c04800fcff3b0028
:101950000170a000240005000004be00e9ff07009c
:101960000003be000405be000200be00e5ff070044
:10197000844f7500000006000200be006450e100c4
:10198000050036006420e100020036000968a3006b
:1019900001003a000800be000160a0004f06780078
:1019a0004f05be004f04be0000000600f0ff2f00f0
:1019b000f1ff2700f9ff3700889fbe008a9fbe0015
:1019c0008c1f7800e4ff0700ebff330003866c00f8
:1019d0006450e100240032006420e100270032005e
:1019e0006150e100220032006120e100210032005c
:1019f0008b854200eb07b1000134b800003ab80013
:101a00000804420089844a00013ab8000030b80056
:101a10008880400009014a000400330000004000b3
:101a200081804800020149008b05e900c909dd00f9
:101a3000830170000100320013002000c814de0092
:101a40004814dd004709de001200b200c808de00bd
:101a50000884700085ff070001f0a1000cf0a700ca
:101a600001f0a000cdff37006120e100cfff320080
:101a70000801be000200be00f7ff37006150e10020
:101a8000fcff3a00c9ff3700410007000400be0018
:101a900000000600881f7800030478000300e000bf
:101aa00007003d0060001000e08018006001190090
:101ab000e081190002003b0001f02d000300370017
:101ac0000400070008f0a70001f0a0004f04780010
:101ad00000000600889fbe008a9fbe000082700042
:101ae0000402710004827100260032000004be006e
:101af0000200be006011b8006b09200095022000b2
:101b00000182cf000a0039000541b1000082cf00f8
:101b1000070039000541b1000982cf0004003900f7
:101b20000541b1000882cf00010039000541b10034
:101b300005425200120032000a003b00828171000f
:101b4000610164008100d1000080d3008984d3004a
:101b50000884d3008b05e8000442e800f7ff3a0050
:101b6000070037000804440089844c000000480046
:101b7000818048008b05e9000442e900f9ff3a0042
:101b80003aff07004f05be004f04be0000000600ec
:101b90006022b800060220000000d0008180d20040
:101ba0000482d2008582d2000000a000020252000e
:101bb00083825a00030031000202420083824a00fd
:101bc0000000a1000603e900f3ff3a000000060050
:101bd0000000e0002f003200c0017800e38f5100c8
:101be0002c0036000308a3002a003a00c1488000f8
:101bf0000100e00002003200810f500004003100bb
:101c000011009800c0488800160037008200780054
:101c1000110190000200e00002003200800f51002c
:101c2000faff39001102780084824000850f5000cd
:101c300018003900808f520003003a0083084200e8
:101c400001007800070037000200e00003003200c6
:101c500083014000830f51000e00390012009800ec
:101c600090009800900090000100e0000900320010
:101c700010014000828f500006003a00629120005f
:101c80000009eb001001780011084100910090005c
:101c90001100980000000600889fbe000004780034
:101ca000b14880000100e00002003200010078002d
:101cb0000d003700c14880008091200004003700eb
:101cc000910f5400250036000180e800910090003b
:101cd0000100e000faff3a0010003700920f5400b4
:101ce0001e0036000280e800100178000200e000cb
:101cf000faff3a0011017800c1488000809120006d
:101d000004003700910f5400140036000180e800f1
:101d100091009000828f5000faff3a00f94880004d
:101d2000888f540001003100880478000900780091
:101d30008e0007000000e00004003a00888f540085
:101d4000050032008904d100f5ff3700091878003a
:101d50009fff0700d2ff37000000eb004f04be00da
:101d600000000600881f7800630440000800a100fe
:101d70008000eb00800f540021003600e30f540078
:101d800001003e004800200008007800c2ff070064
:101d90008000eb000000e0001900320090007800a5
:101da0009101780064815100880f510003003100d7
:101db00011019000020878000700370008814000f8
:101dc000020878009101900013019800100178003a
:101dd0001109140088087800100178000000eb0059
:101de0000200e00004003200920190000300e000d5
:101df000010032000280e800b04888008180e800dd
:101e0000010078004f04780000000600889fbe00a3
:101e1000304280000000e0000100320000000100bc
:101e2000404280000000e00001003200000001009c
:101e3000408420001004e00022003a00d0488000d6
:101e4000e148800088002000d26026009301200035
:101e500050000700f2352f00e3c6230000004100c8
:101e6000818049000804e900f7ff3a00a8842000b7
:101e70000908200088844400d260260093012000d5
:101e800044000700f2352f00e3c6230000004100a4
:101e90008180490000acbe00890f5400f6ff3a0073
:101ea000d0488800e14888005046800061468000a4
:101eb000504288006142880011c0b3004084200075
:101ec00001487800d260260093012000d0488000ad
:101ed000e14880002f000700f2352f00e3c6230001
:101ee0000002410081824900d4488800e54888000a
:101ef000a0842000100078007f0160004211dd0006
:101f0000e0842000020140001200be005042880020
:101f1000614288000489be000100780000f0a10041
:101f20004f04be0000000600889fbe000004780039
:101f3000304280000000e00001003200000001009b
:101f4000408420000048eb00404280000000e00098
:101f500001003200000001008004eb00d848880036
:101f6000e94888004f04be000000060080007800a9
:101f70000000eb000100e0000500340001007800e3
:101f8000abfc0700e10f400001003a000000eb004d
:101f900000000600020ab900001bb9000200b800e8
:101fa0008100420081004300000006000000fa00aa
:101fb00014100700851107002b100700ae10070052
:101fc000fc110700cd0f07002ee8b70056120700de
:101fd000c1e12b0050e22b00f714070011e32b00a6
:101fe0002000200004150700e5000700fbff370074
:101ff0000200fa00c1e32b0010002000fe140700cd
:10200000000f78001e007800e10f500002003a0037
:10201000d482a800040037001e007800e20f5000b0
:1020200001003a00d4a2a8000080fa0000000600d7
:102030000200fa00000f78001e007800e60f500042
:10204000090032001e007800f00f50000600320038
:102050001e007800f10f5000030032001e007800cf
:10206000e30f500002003a0010002000010037008a
:102070000000eb000080fa00000006000400fa00f7
:10208000f04680000000e00031003400f04680009f
:102090000000400033ff0700d0468800e141800087
:1020a00070032000808f500007003200e041800064
:1020b000fe0f500004003200f04680000000400097
:1020c00028ff0700e04688000000eb00000f7800c2
:1020d0001c00370041e42b0020002000c61407003c
:1020e00010079800d14680001e00780000004000d4
:1020f000008040009e00900001087800e1418000cf
:1021000070032000808f50000d003200e0418000fd
:10211000fe0f50000a00320021e52b0020002000b5
:10212000b514070010079800e14680001e007800f3
:1021300000004000008040009e00900001087800f0
:102140001e0fe800f04680009e0f5000e1ff3c00ab
:10215000204780000000e00023003400204780007a
:1021600000004000fffe0700004788002047800075
:1021700000004000fbfe0700104788000000eb0055
:10218000000f780015003700e1e52b00200020004b
:102190009914070010079800014780001e0078007e
:1021a00000004000008040009e0090000108780080
:1021b000d1e62b00200020008f14070010079800a4
:1021c000114780001e0078000000400000804000a1
:1021d0009e009000010878001e0fe8002047800054
:1021e0009e0f5000e8ff3c00404780000000e000e8
:1021f000150034004047800000004000d9fe070071
:10220000304788000000eb00000f78000b0037001b
:10221000a1e72b002000200077140700100798008a
:10222000314780001e007800000040000080400020
:102230009e009000010878001e0fe80040478000d3
:102240009e0f5000f2ff3c000080fa0000000600e4
:102250000200fa00a1e82b0010002000661407001d
:10226000000f78001e007800e20f500008003200d6
:10227000e30f50000a003200e10f500013003a0053
:102280001100200040002000fa1407000f00370062
:102290001100200030002000f61407000b0037006a
:1022a0001100200040002000f21407000000000090
:1022b00000000000000000000000000011002000ed
:1022c00030002000eb140700000000000080fa003e
:1022d000000006000800fa00200798003107980067
:1022e0003e0090000000e00004003a0091e92b005d
:1022f0001000200040140700300798003e009000b6
:10230000e10f500003003a00400020001007980041
:10231000050037003e009000e20f500002003a0036
:1023200030002000100798000000eb00000f78003c
:102330000d003700110020001e009000cd14070092
:1023400000428000ad0f07008000eb001e009000ef
:10235000c814070000428000411f20000080500088
:10236000a60f07001e0fe8002e0090009e007800c8
:10237000808f5000efff35000080fa00000006005b
:102380007c00fa00503f98000000eb00de100700d0
:102390004200dd0060418800a0002000da10070044
:1023a0004200dd00b040880020002000d610070069
:1023b00000428800c0002000d310070010428800af
:1023c000204080003140800000007800d6fe0700e9
:1023d0005e3890006101b900b0fe2f00f1ff2f00c0
:1023e0000200400083804800020520000300200016
:1023f000820f5000838f580039053e0000600100b5
:10240000500037005f00370060003700640037007d
:102410006500370070003700a0003700c9003700a2
:10242000ca003700cd003700ce0037002c0537003a
:10243000d10037000301370035013700670137004d
:1024400096013700ca013700fe013700300237001d
:102450005902370084023700ad023700cd02370041
:10246000ce0237000f033700290337005703370028
:10247000870337001a053700af033700b003370072
:10248000b3033700df03370031043700140537008a
:102490001305370012053700110537001005370006
:1024a0006f043700a4043700db0437000c05370045
:1024b0000b0537000a053700090537000805370006
:1024c0000705370006053700050537000405370006
:1024d0000305370002053700010537000005370006
:1024e000ff043700fe043700fd043700fc0437000a
:1024f000fb043700fa043700f9043700f80437000a
:10250000f7043700f6043700f5043700f404370009
:10251000f3043700f2043700f1043700f004370009
:10252000ef043700ee043700ed043700ec04370009
:10253000eb043700ea043700e9043700e804370009
:102540007d03370081ea2b0010002000aa1307004a
:1025500050079800f1ea2b0020002000a613070086
:102560006007980061eb2b0010002000a213070009
:10257000700798007e019000ee0090005e009000d1
:10258000ef040700d3050700e5043700c1eb2b007b
:102590001000200098130700f0418800e004370085
:1025a00094070700de04370010002000a0488800d0
:1025b000d1ec2b00200020008f130700000f9800a3
:1025c0008e089000400620000088b90000007800c6
:1025d00095060700d2043700a1ed2b00b0ed2b00cb
:1025e0007513070041ee2b00100020008213070036
:1025f000100f98001e0890000000e000020032005a
:102600002000200001003700a00020007046880054
:10261000b00020008046880060062000e04188006d
:10262000e1ee2b001000200073130700a047880084
:1026300020002000f046880090fe0700f1ef2b00fc
:10264000200020006c130700d0478800e1f02b0029
:102650002000200068130700e0478800b1f12b003c
:102660001000200064130700014280000180b900bf
:10267000000078000042880071f22b00200020004a
:102680005d130700200f98002e09900041012000e3
:1026900040012000d70b0700a104370041062000ad
:1026a0008100470042162c000a000900b218780089
:1026b0000000eb00000f7800080037001e007800d3
:1026c0000000400000004700203090001200200071
:1026d000a1002000bb0407001e0fe8001e007800c8
:1026e000ea0f5000f5ff36000000eb00000f780005
:1026f0000d0037001100200040002000dd1307000e
:1027000000428000bd0e07008000eb00400020006a
:10271000d813070000428000411f200000805000b5
:10272000b60e07001e0fe8001e007800f30f5000e1
:10273000f0ff3400808d200011c0b3000148780004
:1027400077043700c2fe0700750437008000eb00f5
:1027500040062000dffe0700710437007e0b0700f3
:102760006f04370071f32b001000200022130700c4
:10277000730d07006a04370041f42b00c0f42b00ee
:102780000d13070041ee2b00100020001a13070064
:10279000300f98003e0890000000e0000200320078
:1027a0002000200001003700300020007046880023
:1027b00030062000e04188001000200020488800fa
:1027c000e1ee2b00100020000b130700a04788004b
:1027d00020002000f04688000000eb004047880001
:1027e00026fe0700f1ef2b00200020000213070057
:1027f000d0478800e1f02b0020002000fe120700e7
:10280000e0478800b1f12b0010002000fa12070009
:10281000014280000180b900000078000042880079
:1028200071f22b0020002000f3120700400f9800e7
:102830004e09900041012000400120006d0b07006f
:1028400037043700a1ed2b00c0f42b00da1207008b
:1028500041ee2b0010002000e7120700500f9800f7
:102860005e0890000000e00002003200200020001e
:10287000010037003000200070468800b0002000c2
:1028800080468800e0062000e0418800e1ee2b0051
:1028900010002000d8120700a04788002000200068
:1028a000f04688000000eb0040478800f3fd070079
:1028b000f1ef2b0020002000cf120700d047880046
:1028c000e1f02b0020002000cb120700e047880039
:1028d000b1f12b0010002000c71207000142800058
:1028e0000180b900000078000042880071f22b00de
:1028f00020002000c0120700600f98006e099000b1
:1029000041012000400120003a0b07000404370079
:1029100011f52b00a0f52b00a712070041ee2b00ac
:1029200010002000b4120700700f98007e0890007d
:102930000000e0000200320020002000010037000b
:10294000a000200070468800b0002000804688006b
:1029500060062000e0418800e1ee2b00100020001e
:10296000a5120700a047880040002000f04688001c
:102970000000eb0040478800c0fd0700f1ef2b008e
:10298000200020009c120700d0478800e1f02b00b7
:102990002000200098120700e0478800b1f12b00ca
:1029a0001000200094120700014280000180b9004d
:1029b000000078000042880071f22b002000200007
:1029c0008d120700001798000e11900041012000a1
:1029d00080022000070b0700d1033700a1f62b006f
:1029e000f0f62b007412070041ee2b0010002000bf
:1029f00081120700101798001e1090000000e000e0
:102a000002003200200020000100370010002000ea
:102a100070468800b000200080468800e001200059
:102a2000e041880071f72b001000200072120700af
:102a30004047880011f82b00100020006e1207009c
:102a4000204888000000eb00a047880020002000fc
:102a5000f046880089fd0700f1ef2b0020002000e0
:102a600065120700d0478800e1f02b00200020000d
:102a700061120700e047880071f22b00200020005f
:102a80005d120700201798002e11900041012000d0
:102a900040012000d70a0700a1033700b1f82b003e
:102aa000a0f92b004412070041ee2b00100020007b
:102ab00051120700301798003e1090000000e0000f
:102ac000020032002000200001003700a00020009a
:102ad00070468800b0002000804688000003200077
:102ae000e041880010002000204888000000eb0032
:102af000404788000000eb00a047880060002000ed
:102b0000f046880060002000004888005bfd070058
:102b1000f1ef2b002000200037120700d04788007b
:102b2000e1f02b002000200033120700e04788006e
:102b3000b1f12b00100020002f120700014280008d
:102b40000180b900000078000042880071f22b007b
:102b50002000200028120700401798004e11900016
:102b600041012000c0032000a20a07006c033700c7
:102b700031fa2b00a0f52b000f12070041ee2b00bd
:102b8000100020001c120700501798005e109000e3
:102b90000000e000020032002000200001003700a9
:102ba000a000200070468800b00020008046880009
:102bb00060062000e0418800e1ee2b0010002000bc
:102bc0000d120700a047880060002000f046880032
:102bd00060002000004888000000eb0040478800ab
:102be00026fd0700f1ef2b00200020000212070055
:102bf000d0478800e1f02b0020002000fe110700e4
:102c0000e0478800b1f12b0010002000fa11070006
:102c1000014280000180b900000078000042880075
:102c200071f22b0020002000f311070060179800bc
:102c30006e11900041012000c00320006d0a0700c2
:102c400037033700b1f82b00a0f92b00da11070089
:102c500041ee2b0010002000e711070070179800cc
:102c60007e1090000000e0000200320020002000f2
:102c7000010037001000200070468800b0002000de
:102c80008046880000032000e04188000000eb003f
:102c9000404788000000eb00a0478800600020004b
:102ca000f04688006000200000488800f3fc070020
:102cb000f1ef2b0020002000cf110700d047880043
:102cc000e1f02b0020002000cb110700e047880036
:102cd000b1f12b0010002000c71107000142800055
:102ce0000180b900000078000042880071f22b00da
:102cf00020002000c0110700001f98000e1990004e
:102d000041012000c00320003a0a070004033700f5
:102d1000b1f82b00c0fa2b00a711070041ee2b00e1
:102d200010002000b4110700101f98001e1890001a
:102d30000000e00002003200200020000100370007
:102d40001000200070468800b000200080468800f7
:102d500000032000e04188000000eb0040478800ad
:102d60000000eb00a047880060002000f0468800cb
:102d700010002000204788006000200000488800e4
:102d8000befc0700c0002000d04788005000200093
:102d9000e047880071f22b00200020009611070008
:102da000201f98002e19900041012000c003200030
:102db000100a0700da023700b1f82b00d0fb2b0015
:102dc0007d11070041ee2b00100020008a11070042
:102dd000301f98003e1890000000e0000200320012
:102de00020002000010037001000200070468800fd
:102df000b00020008046880000032000e0418800e9
:102e000010002000204888000000eb0040478800a8
:102e10000000eb00a047880060002000f04688001a
:102e20002000200020478800600020000048880023
:102e300092fc0700c0002000d0478800500020000e
:102e4000e047880071f22b00200020006a11070083
:102e5000401f98004e19900041012000c00320003f
:102e6000e4090700ae023700b1f82b00d0fb2b00bd
:102e70005111070041ee2b00100020005e110700e9
:102e8000501f98005e1890000000e0000200320021
:102e9000200020000100370010002000704688004c
:102ea000b00020008046880000032000e041880038
:102eb0000000eb00404788000000eb00a0478800be
:102ec00060002000f0468800200020002047880095
:102ed000600020000048880068fc0700c000200057
:102ee000d047880050002000e047880071f22b0096
:102ef0002000200040110700601f98006e1990000c
:102f000041012000c0032000ba09070084023700f5
:102f1000a1fc2b002000200037110700701f980033
:102f200061fd2b00200020003311070000279800ce
:102f3000e1fd2b00200020002f1107001027980032
:102f400061fe2b00200020002b1107002027980095
:102f5000fe18900011079800070037001e2190000e
:102f6000ae2090001e009000960207001e00900008
:102f70000000e80010079800fe1890000e20900056
:102f8000808040001e009000808f5000f3ff3c00c6
:102f90006302370016fc070061023700b1fe2b0008
:102fa000a0f92b000411070041ee2b0010002000b7
:102fb00011110700302798003e2190002248880018
:102fc0003e2090000000e0000200320020002000bf
:102fd000010037001000200070468800b00020007b
:102fe0008046880000032000e04188000000eb00dc
:102ff000404788000000eb00a0478800c1ff2b007d
:1030000010002000fc100700f04688001bfc0700a1
:103010000000eb0020079800f0468000e40f50000d
:1030200007003200e60f500008003200e20f5000a7
:103030000b003a00400120002007980008003700ec
:103040008002200020079800050037006000200063
:1030500000488800c00320002007980000000000fe
:10306000f1ef2b0020002000e3100700d04788007c
:10307000e1f02b0020002000df100700e04788006f
:1030800071f22b0020002000db1007004027980081
:103090004e219000410120002e00900055090700ac
:1030a0001f02370071002c00a0f92b00c21007008e
:1030b000f00020007046880000032000e0418800f6
:1030c0000000eb00404788000000eb00a0478800ac
:1030d00060002000f0468800600020000048880062
:1030e000e6fb070080002000d04788005000200049
:1030f000e0478800e0012000502798005e21900002
:1031000041012000c00320003a09070004023700f3
:1031100021012c00b0012c00a710070041ee2b006c
:1031200010002000b4100700602798006e20900067
:103130000000e00002003200200020000100370003
:103140003000200070468800b000200080468800d3
:10315000d0052000e04188000000eb00a047880077
:1031600020002000f0468800200020002047880032
:103170000000eb0040478800c0fb0700a0002000d3
:10318000d0478800f0002000e0478800b1f12b0014
:103190001000200098100700014280000180b90053
:1031a000000078000042880071f22b00200020000f
:1031b00091100700702798007e2190008102200066
:1031c000400120000b090700d501370021012c0028
:1031d000b0012c007810070041ee2b0010002000f9
:1031e00085100700002f98000e2890000000e000d6
:1031f000020032002000200001003700a000200063
:1032000070468800b000200080468800e00520005d
:10321000e04188000000eb00a0478800200020006b
:10322000f046880010002000204788000000eb00d6
:103230004047880010002000204888008ffb0700ce
:10324000a0002000d0478800f0002000e047880060
:10325000b1f12b0010002000671007000142800030
:103260000180b900000078000042880071f22b0054
:103270002000200060100700102f98001e299000e9
:103280008102200040012000da080700a401370075
:10329000f1ea2b002000200057100700202f980093
:1032a0002e289000ef0f5000030034002e289000cd
:1032b00070005000010037002e289000440c0700d9
:1032c0002e289000ef0f500002003c00e0ff2f007e
:1032d00001003700b0ff2f007c0c0700401f2000ca
:1032e000c60b07002e289000ef0f500002003c0094
:1032f000c0ff2f000100370030ff2f00730c0700c4
:1033000000a62e00bd0b07002e289000ef0f5000e6
:1033100002003c00d0ff2f000100370070ff2f009b
:103320006a0c0700800c2000b40b0700f00020009e
:10333000660c07007a0137009c0a07007801370005
:1033400010002000a04888007f03070074013700a8
:1033500010002000a0488800a1ed2b0050022c0096
:103360001510070020002000704688007003200020
:10337000e0418800e1022c00100020001e10070030
:1033800020488800f1032c00100020001a100700cc
:10339000f0478800e1ee2b00100020001610070017
:1033a000a047880020002000f04688001000200080
:1033b0004047880031fb0700f1ef2b002000200080
:1033c0000d100700d0478800e1f02b0020002000fe
:1033d00009100700e047880071f22b002000200050
:1033e00005100700302f98003e299000410620006c
:1033f000400120007f0807000000eb00a048880083
:103400004701370010002000a0488800a1ed2b00e4
:10341000f0042c00e80f0700200020007046880010
:1034200070032000e0418800e1022c001000200021
:10343000f10f070020488800f1032c001000200045
:10344000ed0f0700f0478800e1ee2b001000200090
:10345000e90f0700a04788000000eb00a0478800a4
:1034600020002000f046880010002000404788001f
:10347000f1ef2b0020002000df0f0700d04788006d
:10348000e1f02b0020002000db0f0700e047880060
:1034900071f22b0020002000d70f0700402f98006a
:1034a000d1052c0020002000d30f07003007980022
:1034b000f0468000000040002afa0700d04688004d
:1034c000404780000000400026fa0700304788008f
:1034d000304780008000eb000108780016003700bc
:1034e0003e009000610060000000e00002003a0031
:1034f000600020000100370070002000502f98006d
:10350000d0468000de28900001087800d046800078
:103510000080e8005e299000020878004e299000a3
:103520004106200040002000320807003e009000c5
:103530000000e900300798003e0090000000e00025
:10354000e7ff3c000000eb00a0488800f4003700d3
:10355000a1ed2b00d0062c00970f070020002000c3
:103560007046880070032000e04188006000200061
:10357000004888002000200020488800100020001b
:10358000f04788000000eb00a047880060002000a2
:10359000f04688001000200040478800f046800078
:1035a00000004000eff90700d04688004047800047
:1035b00000004000ebf907003047880030478000ea
:1035c0008000eb0001087800d046800061002000f8
:1035d00001087800d04680000080e80071002000db
:1035e00001087800d04680006400400001012000fe
:1035f00001087800d04680006600400011012000dc
:1036000001087800d04680006800400021012000b9
:1036100001087800d04680006a0040003101200097
:103620000108780020002000d0478800800020009a
:10363000e047880071f22b00200020006e0f070089
:10364000602f98006e2990008101200080012000e9
:10365000e80707000000eb00a0488800b000370032
:1036600041f42b00a0072c00530f0700200020007e
:1036700070468800a0002000e04188001000200073
:10368000204888000000eb00a047880020002000b0
:10369000f0468800f046800000004000b1f90700c5
:1036a000d0468800f046800000004000adf90700d9
:1036b000e0468800d0468000210020000108780004
:1036c000d04680000080e80031002000010878002a
:1036d000e04680002100200001087800e0468000dc
:1036e0000080e80031002000010878000000eb00b5
:1036f00040478800f1ef2b00200020003e0f07001c
:10370000d0478800e1f02b00200020003a0f07008e
:10371000e047880071f22b0020002000360f0700e0
:10372000702f98007e29900021032000c000200007
:10373000b00707007a003700f1072c00a0072c0023
:103740001d0f070020002000704688004001200067
:10375000e041880041082c0010002000260f0700df
:10376000204888000000eb00a047880020002000cf
:10377000f0468800f04680000000400079f907001c
:10378000d0468800f04680000000400075f9070030
:10379000e0468800d0468000210020000108780023
:1037a000d04680000080e800310020000108780049
:1037b000e04680002100200001087800e0468000fb
:1037c0000080e80031002000010878000000eb00d4
:1037d00040478800f1ef2b0020002000060f070073
:1037e000d0478800e1f02b0020002000020f0700e6
:1037f000e047880071f22b0020002000fe0e070039
:10380000003798000e31900021032000c0002000f6
:10381000780707004200370011092c00e0092c004e
:10382000e50e0700200320007046880050012000ac
:10383000e04188000000eb00204888000000eb0019
:10384000a047880020002000f0468800f046800055
:103850000000400043f90700d0468800f046800091
:10386000000040003ff90700e0468800d046800095
:103870002100200001087800d04680000080e80088
:103880003100200001087800e0468000210020007f
:1038900001087800e04680000080e8003100200048
:1038a000010878000000eb0040478800c0002000bd
:1038b000d047880080012000e047880071f22b008b
:1038c00020002000cc0e0700103798001e31900019
:1038d00021032000c0002000460707001000370029
:1038e000de3890004107980007003700a200200052
:1038f000810020004e009000320007004e00900032
:103900000000e800400798005e389000e4004000a6
:103910004e009000808f5000f4ff3c00000000003b
:10392000d0468000aaf80700e0468000a8f807000b
:1039300030478000a6f807000080fa00000006006b
:103940000600fa00000f780011079800220798007f
:103950005b0c0700640c0700700a2c00320c070097
:103960000001eb00610020001e007800f90d070047
:1039700012002000610020001e009000f50d0700dd
:103980001e0090000000e900910a070001003700c6
:10399000000000001e80ea00cc0a07002e00900004
:1039a0000000e000faff3a00401f2000130a070061
:1039b000f0002000c50a0700401f20000f0a070082
:1039c000f4ff37001400fa0070079800010f980008
:1039d000120f9800401f200010079800803e200022
:1039e00020079800300c2000300798000000eb0002
:1039f000000f7800b1003700310c07003a0c0700c7
:103a0000500b2c00080c070011c0b3000040eb0065
:103a10003f0c0700b00b2c00030c07001e00e80051
:103a20001200200071002000ca0d07000001eb0009
:103a3000610020007e009000c60d07007e0090000f
:103a4000ef0f5000030034007e0090007000500023
:103a5000010037007e009000400798007e00900033
:103a6000ef0f500002003c00100020000100370062
:103a700040002000500798007e009000ef0f50009b
:103a800002003c00200020000100370080002000e0
:103a900060079800fe00900030002000090a07002f
:103aa0004e0090004a0a07005e0090000080ea0085
:103ab000860a07001e009000d0090700e702a80050
:103ac000de0090006e009000010070000080ea00af
:103ad0007e0a07007e009000700060004480de00d7
:103ae00000407800614060000080fb0061006000e1
:103af0004900dd0032178000f1df2f0081006100f6
:103b000001007000301788002e01900070662600ba
:103b10000090b9008180d1004f90de0000805000fd
:103b2000b60907007e009000680060004380de0058
:103b300000407800614060000080fb006100600090
:103b40004900dd0032178000f1df2f0081006100a5
:103b500001007000301788002e019000706626006a
:103b60000090b9008180d1004f90de0000805000ad
:103b7000a20907007e009000640060004280de0021
:103b800000407800614060000080fb006100600040
:103b90004900dd0032178000f1df2f008100610055
:103ba00001007000301788002e019000706626001a
:103bb0000090b9008180d1004f90de00008050005d
:103bc0008e0907007e009000620060000080d10036
:103bd00000407800614060000080fb0061006000f0
:103be0004900dd0032178000f1df2f008100610005
:103bf00001007000301788002e01900070662600ca
:103c00000090b9008180d1004f90de00008050000c
:103c10007a0907007e009000004078006140600053
:103c200061406000614060000080fb006100600056
:103c30004900dd0032178000f1df2f0081006100b4
:103c400001007000301788002e0190007066260079
:103c50000090b9008180d1004f90de00808050003c
:103c60003e00900000805000640907006e00900044
:103c70000080ea00150a07003e0090005f09070077
:103c8000e722a900f0002000100a07008000eb00e6
:103c9000300020008b090700e702a9008e08900081
:103ca000803e20000088b900800078001e0090004f
:103cb00000805000510907001e0fe8001e08900008
:103cc0009e007800808f50004bff35000080fa0086
:103cd000000006000800fa00210c2c001000200053
:103ce000c50d0700000f78001e0078000000e000fe
:103cf00002003a00804080000100370090408000c0
:103d0000300798003e019000b04721000090b900b4
:103d1000c388de004f90de0000805000100798003e
:103d20003e009000b14721000181b9004399de00b7
:103d3000cf80de0001015100410620000191b90051
:103d40008200780001005000200798009e0090003b
:103d5000700120005b090700ae0090008001200088
:103d6000580907002003200024090700deff370060
:103d70000600fa00889fbe008140800090408000cd
:103d800000805000cf80de00b5f607000004be00c2
:103d9000814080009040800000804000cf80de00a5
:103da000aff607000001be000800be0049f607009c
:103db0000200200003f82300e9f5070002002000bc
:103dc00003402400fcf6070084f60700000078009a
:103dd000200798002e019000b04721000090b90004
:103de000c388de004f90de00008f50002e00900050
:103df000b14721000181b9004399de00cf80de0088
:103e000001015100410620000191b90082007800b3
:103e100001005000100798009e00780070012000fb
:103e2000280907009e009000800120002509070056
:103e300090012000f10807002e0090008000eb00a8
:103e4000620e070090012000ec080700caff37004f
:103e50000200fa00f0f32f00f01688000000eb00db
:103e6000000f78001e00a2001e00780000407800bd
:103e7000614060000080fb00610060004600dd00e2
:103e800002178000f1fb2f0081006100010070002b
:103e90000017880000000000000000000000000083
:103ea0001e00780000407800614060000080fb0048
:103eb000610060004800dd0042168000f1ef2f0035
:103ec00081006100010070004016880000000000c1
:103ed00000000000000000001e0078000040780094
:103ee000614060000080fb00610060004900dd006f
:103ef00042168000f1df2f00810061000100700098
:103f000040168800000000000000000000000000d3
:103f10001e00780000407800614060000080fb00d7
:103f2000610060004700dd0002178000f1f72f00fc
:103f3000810061000100700000178800000000008f
:103f400000000000000000001e0078000040780023
:103f5000614060000080fb00610060004600dd0001
:103f600002178000f1fb2f0081006100010070004a
:103f700000178800000000000000000000000000a2
:103f80001e00780000407800614060000080fb0067
:103f9000610060004e00dd0012168000f1ff2b0072
:103fa0008100610001007000101688000000000010
:103fb00000000000000000001e00780000407800b3
:103fc000614060000080fb00610060004c00dd008b
:103fd000a2168000f1ff2e00810061000100700038
:103fe000a016880000000000000000000000000093
:103ff0001e00780000407800614060000080fb00f7
:10400000610060004d00dd00a2168000f1ff2d0070
:104010008100610001007000a0168800a00f200040
:10402000760807008fff37000600fa002007980087
:104030000000eb008048880060418000c40d07004c
:104040000000eb00000f78000000eb001007980064
:104050009b0a0700a40a0700e00c2c00720a070064
:10406000803e2000010020000040880011408800b0
:104070000100370000000000814880001e00900011
:10408000808f5000170036002e0090006101b900ab
:104090000040800011408000800f5100818f590046
:1040a0000a003e001100200040002000710d0700b2
:1040b0000028ef000228ef001e0fe8001e00780025
:1040c00012002000c1002000220c0700814880005f
:1040d000110798001e0090000001eb00b1002000c5
:1040e0001c0c0700004280006101b9000040800004
:1040f00011408000800f5100818f590003003e0065
:104100008000eb00400020005a0d07004141800074
:1041100010032000808f5000d6ff3a0011002000cd
:1041200040002000530d07000042800033080700c4
:104130008000eb00400020004e0d07000080eb00e7
:1041400040418800ccff37000a00fa00200320001d
:10415000e04188000000eb00000f78000000eb0059
:10416000804888000000eb00904888000000eb00c9
:10417000100798000000eb00200798000000eb00fb
:1041800030079800910d2c00200020009a0c0700a9
:1041900040079800a10e2c00c00e2c00860c0700d2
:1041a000ce009000400620000088b9000000780092
:1041b000cf80de00004088001140880001003700f9
:1041c00000000000814880002e009000808f500089
:1041d0002a003600ce009000400620000088b9007a
:1041e000000078006101b9000040800011408000ab
:1041f000800f5100818f5900190031001e00780096
:10420000e40f500016003200110020006001200071
:104210002c0807001100200040002000150d0700a9
:1042200040002000000f78000028ef000228ef0077
:104230008040eb00f0c0b300350a0700c0c4b300f3
:10424000ee0907001e0090000000e800100798002b
:104250001e0090001200200021002000bd0b07006e
:10426000804880000001eb0021002000b90b07000e
:1042700081488000210798002d0037009148800078
:104280003e009000808f500029003600ce00900044
:10429000400620000088b900000078006101b900e4
:1042a0000040800011408000800f5100818f590034
:1042b000190031001e007800e30f50001600320094
:1042c0002100200060012000fe07070011002000ef
:1042d00030002000e70c070030002000000f7800bd
:1042e0000028ef000228ef008040eb00f0c0b30090
:1042f000070a070020c5b300c00907001e00900090
:104300000000e800100798001e0090001200200036
:10431000210020008f0b0700904880000001eb0077
:10432000a10020008b0b0700914880003107980006
:10433000004280006101b90000408000114080000f
:10434000800f5100818f5900030031008000eb0085
:1043500040002000c70c0700104280006101b90036
:104360000040800011408000800f5100818f590073
:10437000030031008000eb0030002000bd0c07007e
:104380004141800010032000808f50000a003a0055
:104390001100200040002000b60c07000042800001
:1043a000960707008000eb0040002000b10c0700da
:1043b0000080eb0040418800414180002003200044
:1043c000808f50007eff3a00110020003000200056
:1043d000a80c070010428000880707008000eb004f
:1043e00030002000a30c07000080eb004041880053
:1043f00074ff37000400fa0060418000d40c07000d
:10440000b0408000d20c0700610f2c00100020008b
:10441000f90b0700000f780051102c00300020002d
:10442000f50b0700100798001e009000c80c07004d
:104430001e007800e10f500006003a001e009000b8
:104440004280de00800078000000eb008f0807004b
:10445000080037001e007800e20f500005003a0007
:104460001e0090004280de0080007800a000200046
:1044700086080700000000000000000000000000a7
:104480000000eb00a00807004200dd00604188004a
:10449000a00020009c0807004200dd00b04088001a
:1044a0000080fa00000006000800fa0010079800db
:1044b00021079800320798002e009000ef0f50005f
:1044c000030034002e0090007000500001003700ff
:1044d0002e009000be0707001e009000e10f500064
:1044e000060032001e009000e20f50000300320070
:1044f0001e009000e60f500009003a002e009000c8
:10450000ef0f500002003c00e0ff2f0001003700d9
:10451000b0ff2f00ed070700401f20000e0d070021
:104520001e009000e30f500001003200e722a800b7
:104530001e009000e30f500012003a002e00900081
:104540000000e00003003c002e0090004006b00098
:10455000010037002e00900080007800300020001d
:10456000580707002e009000ef0f500002003c009b
:10457000e0ff2f0001003700b0ff2f00d307070036
:10458000b10037002e009000ef0f500002003c00f9
:10459000c0ff2f000100370030ff2f00cb070700be
:1045a0001e009000e40f500017003200e40f50008e
:1045b00004003c000000e900e10f50001e003e0036
:1045c00007003700e60f500015003200e60f5000dc
:1045d00010003500e70f50001400320016003700bd
:1045e0002e00900092f607000000e0000300320069
:1045f00090002000000f78000f003700a00020007e
:10460000000f78000c00370030052000000f780004
:104610000900370050052000000f78000600370021
:10462000b0002000000f780003003700c000200019
:10463000000f7800000000002e0090000000e00055
:1046400003003a002e0090004006b0000100370041
:104650002e009000800078001e00780019070700e7
:104660008040eb0030c0b300290907001e00900015
:10467000e40f50001a003200e40f500005003c0027
:10468000e10f50000a003200e20f50000e0032002d
:1046900029003700e60f50001b003200e60f5000e3
:1046a00015003500e70f50001d00320022003700d2
:1046b00010c3b300d108070050478000800cb10040
:1046c000a50c07001c00370020c3b300cb0807006f
:1046d00070478000800cb1009f0c07001600370067
:1046e00030c3b300c508070090478000800cb100bc
:1046f000990c070010003700c0478000800cb10003
:10470000950c07000c00370050c7b300bb0807002a
:1047100060478000800cb1008f0c07000600370056
:1047200050c5b300b508070080478000800cb10079
:10473000890c0700000000002e009000ef0f5000d1
:1047400002003c00d0ff2f000100370070ff2f0057
:104750005e070700800c20007f0c0700f00020009f
:104760005a0707008000eb001e007800d5060700fe
:104770008040eb0030c0b300e50807001e00900049
:10478000e40f500024003200e40f500005003c000c
:10479000e10f500008003200e20f5000120032001a
:1047a00029003700e60f50001e003200e70f5000ce
:1047b0001f0032002400370040c6b3008f080700f6
:1047c0005047800080007800703e2000808f5000ad
:1047d0001a003e0050478000813e200000805000bb
:1047e0005d0c07001800370040c4b30083080700c1
:1047f0007047800080007800703e2000808f50005d
:1048000010003e0070478000813e20000080500074
:10481000510c07000c00370020c5b30077080700d3
:104820000900370040c6b3007408070006003700cf
:1048300040c6b30071080700030037000000000005
:104840000100370000000000000000000000000030
:104850000000000000000000e722a9000080fa002c
:10486000000006000400fa00000f7800110798000d
:1048700011002000600120009206070071488000ae
:10488000c0042000808f500009003a001100200071
:1048900040002000770b0700004280002e0c07002c
:1048a0008000eb0040002000720b07000c00370076
:1048b0007148800020052000808f500008003a00d9
:1048c00011002000300020006a0b07001042800019
:1048d000210c07008000eb0030002000650b070072
:1048e0002228ef009e007800700020007506070067
:1048f000c04080000000e800c0408800c040800048
:104900000001eb0051002000120a07000080fa00ad
:10491000000006000200fa00000f78002228ef00d5
:104920009e0078004000200066060700e0408000fe
:104930000000e800e0408800e04080001200200015
:1049400051002000030a07000080fa000000060062
:104950000200fa00000f7800104180000000e8001b
:10496000104188009e007800600020005506070076
:10497000d04080000000e800d0408800d040800097
:104980000001eb0091002000f2090700a047800021
:104990000000e0000200340080382100ee0b070028
:1049a0000080fa00000006000c00fa00881f780062
:1049b0002007980031079800420798005307980095
:1049c0000000eb00000f78000000eb0010079800db
:1049d0000000eb0070488800e0418000fe0f5000ae
:1049e0000400320071032000810f50005300320098
:1049f000d20037000028ef000228ef000200370045
:104a000040488000704888005e0090006101b90055
:104a10000040800011408000800f5100818f5900bc
:104a200003003600704880000000e000f4ff320010
:104a30002040800031408000404088005140880084
:104a4000704880000000e00031003a002e00900025
:104a500077f507000000e0000b003a00110020008d
:104a60005000200017060700f04080000000e8001a
:104a7000f0408800f04080001200200091002000eb
:104a8000b40907002001370010002000b0ff070024
:104a9000def40700f14180000101780011000900f7
:104aa0000200d8008000fd000000e00005003a0090
:104ab0002048800061006000004078000004e000b1
:104ac00004003a004141800010032000808f500014
:104ad0000c013a001100200060012000f9050700d8
:104ae0001100200040002000e20a07001100200011
:104af00080002000f305070000428000960b0700ad
:104b00008000eb0040002000da0a0700fe003700ba
:104b10002e00900046f507000000e00003003a0078
:104b2000100020007bff0700f70037001100200075
:104b3000100020004bff0700f30037000028ef00b3
:104b40000228ef00400037005e009000cf00de003a
:104b5000008040000080d1006101b9000040800069
:104b600011408000800f5100818f590034003a00bd
:104b70001e0090000000e00031003a00100020000c
:104b800010079800a1f40700f141800001017800ae
:104b9000110009000200d8008000fd000000e000c4
:104ba00005003a0020488000610060000040780065
:104bb0000004e00004003a0041418000100320009e
:104bc000808f50001e003a0011002000600120007c
:104bd000bc050700ce00900080002000b90507004a
:104be0002e00900012f507000000e00009003200de
:104bf00011002000400020009e0a070000428000b3
:104c00007e0507008000eb0040002000990a0700a5
:104c1000080037001100200030002000950a07002e
:104c200010428000750507008000eb003000200076
:104c3000900a07000080eb00404188000c0037001c
:104c400040488000704888005e0090006101b90013
:104c50000040800011408000800f5100818f59007a
:104c600003003600704880000000e000b6ff32000c
:104c70002040800031408000404088005140880042
:104c80002e009000eaf407000000e000020032006d
:104c9000100020000100370020002000400798008d
:104ca000704880000000e00006003a004e009000ce
:104cb00027ff0700a04780000000a000a047880051
:104cc000910037002e009000d9f407000000e000aa
:104cd000040032007148800020052000808f5000c1
:104ce0000800320071488000c0042000808f50000e
:104cf0000a003a002e009000cdf407000000e0000a
:104d000006003a004e00900002ff0700a047800016
:104d10000000a000a04788007b00370011002000a1
:104d20004e009000cffe0700a1478000e00f20005a
:104d300000806000a0478800730037000028ef0063
:104d40000228ef00330037005e009000cf00de0045
:104d5000008040000080d1006101b9000040800067
:104d600011408000800f5100818f590027003a00c8
:104d70001e0090000000e00024003a001000200017
:104d80001007980021f40700f1418000010178002c
:104d9000110009000200d8008000fd000000e000c2
:104da00005003a0020488000610060000040780063
:104db0000004e00004003a0041418000100320009c
:104dc000808f500011003a00110020006001200087
:104dd0003c050700ce009000800020003905070048
:104de0001100200040002000220a0700004280003d
:104df000020507008000eb00400020001d0a0700ac
:104e00000080eb00404188000c00370040488000e3
:104e1000704888005e0090006101b9000040800089
:104e200011408000800f5100818f5900030036002f
:104e3000704880000000e000c3ff32002040800086
:104e40003140800040408800514088007048800018
:104e50000000e00019003a002e00900074f40700f2
:104e6000000478003e00900071f40700800f5400a9
:104e70000d003a00ce009000500020001105070000
:104e8000f04080000000e800f0408800f040800022
:104e90001200200091002000ae0807005000200002
:104ea000000f7800180037004e009000a8fe0700a1
:104eb00060002000000f7800130037002e009000e3
:104ec0005bf40700000478003e00900058f40700ef
:104ed000800f540005003a004e0090008dfe070040
:104ee00040002000000f780007003700110020006c
:104ef0004e0090005bfe070070002000000f78005d
:104f000001003700000000001e0078004f04780008
:104f10000080fa00000006000800fa001007980060
:104f200021079800320798001e019000ae00900003
:104f3000600020005cfd07008040eb0030c0b30043
:104f4000f306070040c4b300ac0607003e00900023
:104f50000000e00003003a0080bb20007e0a07004a
:104f60002e003700803e20007b0a0700000f7800eb
:104f70003e009000ef0f5000030034003e00900010
:104f800070005000010037003e009000100507003f
:104f90003e009000ef0f500002003c00e0ff2f00a9
:104fa00001003700b0ff2f0048050700401f200018
:104fb000690a07001e0f70001e0078000000e00064
:104fc0000a003a001e019000be0090007000200010
:104fd00035fd0700431f200032002000be00900076
:104fe0002e00900070fe07000c003700f00020003b
:104ff000360507003100200040052000b1040700fd
:105000008040eb0030c0b300c106070010c4b300fd
:105010007a060700c05d20004f0a07000080fa00f2
:10502000000006000600fa0010079800210798000b
:1050300091478000700c2000808f500040003400a9
:105040000000eb00000f7800d0478000e10f500017
:1050500013003400d04780008000e900803e20002b
:105060000088b900000078003b0a07001e0f70009e
:10507000d047800080007800803e20000088b90082
:105080008000780000832f0000804000320a070073
:105090001e0f7000401f20002f0a07001e0f700017
:1050a00030478000100078001e01900080007800da
:1050b00030002000fcfc0700401f2000260a0700eb
:1050c0001e0f70008040eb0030c0b3009006070058
:1050d00020488000e10f50000f003c001e007800c7
:1050e0000000e0000c003200f0002000f704070090
:1050f000ae009000400520007204070010c4b30009
:105100003e060700004180000000e80000418800e2
:105110000000eb000b00370020c5b3003706070086
:1051200030478000100078001e0190008000780059
:1051300040002000dcfc07001000200001003700c8
:105140000000eb000080fa00000006001000fa00ea
:1051500030079800410798005207980063079800ad
:105160007407980020408000314080004040880053
:10517000514088002040800031408000604088001d
:1051800071408800fe009000a00320004d0407003d
:105190007e00900000f0a7000000ea000000ea0096
:1051a0004f00de0080007800100420004504070056
:1051b0008040eb0030c0b3005506070090c4b30038
:1051c0000e060700e0478000e30f50001000360095
:1051d000e0478000640f50000400370000a62e0056
:1051e000dd09070041fc2f001e8f4000c003200096
:1051f0009e007800808f5000f8ff3e009e007800ef
:10520000803e20000088b90000007800d209070025
:105210008000eb00b00320002a040700803e20003d
:10522000cd090700007d2000cb090700401f2000aa
:10523000c90907007e019000be0090001000200008
:1052400099fc0700e0418000fe0f50005d00320035
:1052500071032000810f50005c003200d0478000b5
:105260000000e00003003a00800c2000ba090700ab
:105270004f003700d0478000e40f500008003c008a
:10528000d047800080007800803e20000088b90070
:1052900000007800803eb100af09070042003700ef
:1052a000204780000000e00012003200409c2000f7
:1052b000a90907006e019000de0090007e009000ba
:1052c00015ff0700d0478000e70f5000360036007a
:1052d000d047800080007800803e20000088b90020
:1052e00080007800000c2e00008040009a09070022
:1052f0002d003700401f200097090700401f2000a5
:1053000095090700803e200093090700d0478000e0
:1053100080007800401f20000088b90080007800dd
:1053200000832f00008040008b090700d0478000d9
:10533000eb0f50000e003400007d200086090700ae
:10534000401f200084090700401f20008209070039
:10535000d1478000401f20000088b90080007800fd
:1053600040a82e00008040007b090700080037009d
:10537000d047800080007800401f20000088b900de
:1053800080007800c0632f00008040007209070091
:10539000401f200070090700401f20006e09070011
:1053a000401f20006c090700401f20006a09070009
:1053b0007e019000ce009000200020003afc070003
:1053c000030037000000000001003700000000006b
:1053d0000000eb0010079800404780000000e0004c
:1053e00003003200e10f50001300320026003700a6
:1053f0008040eb0030c0b300c505070020c5b300f6
:105400007e050700204880000000e0000200320016
:10541000007d200001003700803e200080017800e0
:1054200012002000ce0090003e0090005efd0700bc
:1054300010079800140037003e009000fcf20700af
:105440000000e000020032001000200001003700e0
:1054500020002000800078007e009000f1fe070010
:105460000000e0000700320003fa200022002000c4
:10547000ce0090003e0090004bfd07001007980002
:105480000100370000000000c1408000f0408000b3
:1054900080804000d040800080804000e04080005c
:1054a000808040000041800000804000200798007c
:1054b00012002000d10020002e00900025070700d8
:1054c000c1408000f0408000008040000000e0000b
:1054d00012003400c1408000f04080008080400015
:1054e000400620000088b900800078002e0090005f
:1054f00000017800110009008200d80020418800d6
:105500002041800031062000810f5000010034004e
:105510003006200020418800010037002428ef00d9
:1055200020418000e90f500002003400d00020002c
:1055300001003700e0002000234180000001eb0063
:105540008000780003007800020707006509070063
:105550000080fa00000006000400fa00004280000b
:105560007b080700104280007908070051112c00c9
:1055700010002000a0070700000f780051122c0037
:10558000300020009c070700100798001e009000c4
:105590006f0807001e007800e10f500004003a0079
:1055a0009e0090002000200038040700060037000d
:1055b0001e007800e20f500003003a009e009000a9
:1055c000c000200031040700200020004e04070026
:1055d00000428800c00020004b04070010428800f1
:1055e0008000eb00d0032000360307000080fa00a3
:1055f000000006001800fa00100f9800210f980014
:10560000320f98000000eb00000f78003228ef0006
:10561000804680006007980000488000000040003d
:10562000d0f1070070079800e0418000800078000a
:105630003003200023030700aa01370011002000d7
:10564000d00320001f03070041132c0050142c002e
:10565000590707009041800012002000110020002f
:10566000bc0607002028ef0000418000f0408800c1
:10567000f0408000e0408800e0408000d04088009a
:10568000d0408000c04088000000eb003007980048
:105690000000eb00400798000000eb00000f7800ce
:1056a0007301370000488000800078007e00900081
:1056b000670807000000eb005007980064013700fe
:1056c0005e00900000004000fe009000008040005e
:1056d00010007800000f9800e04180007103200066
:1056e000810f50006e00320071032000810f5000c6
:1056f0000c003e00f40f50001b003200f40f50006d
:1057000003003e00ea0f50004a003200f700370065
:10571000f50f50002f003200fe0f500060003200e5
:10572000f2003700e1052000810f5000ba0032007e
:10573000e1052000810f500004003e00d10520004b
:10574000810f5000ce003200e80037003106200003
:10575000810f500096003200e1062000810f5000ba
:1057600078003200e10037000e0890000000e000f1
:10577000030032000e089000e20f500003003a00d0
:10578000d04680001000780003003700d04680002b
:105790000080e80010007800100798000e089000c4
:1057a000e10f5000030032000e089000e20f50009d
:1057b00003003a00e0468000100078000300370044
:1057c000e04680000080e800100078002007980084
:1057d000c60037009e0078006180600000407800bd
:1057e0000004e00003003200d04680001000780082
:1057f00003003700d04680000080e80010007800e9
:10580000100798001e017800620061000000e000af
:1058100003003200d04680001000780003003700fb
:10582000d04680000080e800100078002007980033
:10583000ae0037000e0890000000e00003003200c8
:105840000e089000e20f500003003a00d04680009e
:105850001000780003003700d04680000080e80088
:1058600010007800100798000e0890000000e0007b
:10587000030032000e089000e20f500004003a00ce
:10588000e04680000080e800100078000200370049
:10589000e046800010007800200798009300370051
:1058a0000000eb0020079800a04780006300600024
:1058b000e30f500003003a0080418000e90f5000e0
:1058c0001c003400f0468000e20f50000e003a0049
:1058d0000e0890000000e000030032000e08900067
:1058e000e20f500003003a00d0468000100078001c
:1058f00003003700d04680000080e80010007800e8
:105900001007980009003700f0468000e40f5000af
:1059100006003400d14680000e08900000004000d0
:105920000080400090007800110798003028ef00b8
:105930006e003700804180000000e8008041880050
:105940006a0037000e0890000000e00003003200fb
:105950000e089000e20f500003003a00d04680008d
:105960001000780003003700d04680000080e80077
:1059700010007800100798000e089000e10f50000a
:10598000030032000e089000e20f500003003a00be
:10599000e04680001000780003003700e0468000f9
:1059a0000080e80010007800200798004f003700c2
:1059b0000e0890000000e000030032000e08900086
:1059c000e20f500003003a00d0468000100078003b
:1059d00003003700d04680000080e8001000780007
:1059e00010079800d0468000900078001e009000bc
:1059f000808f500004003a00e04680000080e800fc
:105a00001000780002003700e046800010007800a7
:105a100020079800350037000e0890000000e000d5
:105a2000030032000e089000e20f500003003a001d
:105a3000d04680001000780003003700d046800078
:105a40000080e8001000780010079800d046800021
:105a5000900078001e009000808f500004003a00f3
:105a6000e04680000080e800100078000200370067
:105a7000e046800010007800200798001b003700e7
:105a80000e0890000000e000030032000e089000b5
:105a9000e20f500003003a00d0468000100078006a
:105aa00003003700d04680000080e8001000780036
:105ab000100798000e089000e10f5000030032001c
:105ac0000e089000e20f500003003a00e04680000c
:105ad0001000780003003700e04680000080e800f6
:105ae0001000780020079800000000008040eb00c4
:105af0000040eb000604070041e02b001e00900070
:105b00000080400010407800bc03070041e02b00fb
:105b10002e0090000080400010407800b70307007e
:105b200020478000e10f500003003200e20f5000d8
:105b3000080032001700370000478000100178008d
:105b400032079800104780009000780041079800c5
:105b500010003700adf007006100600000407800e1
:105b60000004e000030032000047800010007800cd
:105b700003003700004780000080e8001000780034
:105b80003007980010478000100178004207980005
:105b90000000000070468000e20f50000b00320051
:105ba000e20f500003003e00e10f50000a003200f7
:105bb0001c003700e30f50001900320021032000c1
:105bc000810f50000d003200160037000000eb007e
:105bd00080468800130037001e00780061006000d6
:105be0000000e000020032006e009000010037006b
:105bf0000000eb00804688000a0037001e00780095
:105c00004280de00e50f50000200340080022000d8
:105c1000010037000000eb008046880001003700db
:105c2000000000008046800000027800ce01900055
:105c30003e019000ae0090001e00900043fd070062
:105c40001e0fe8005e0090000000e800500798007a
:105c5000014880005e009000808f500004003400f6
:105c6000114180002e089000808f500094fe350076
:105c70001e0890009e007800808f500004003d00b8
:105c8000114180002e089000808f500085fe350065
:105c90008000eb00d00320008a010700a0488000ac
:105ca0000000e0000f003a00204180008000eb007f
:105cb000c6060700d1408000400620000088b900d9
:105cc00080007800d2408000c04080000000410089
:105cd00000017800110009008200d80011002000a6
:105ce000ba060700114180002e089000808f5000f6
:105cf0000a003d009141800010c0b3003e099000b1
:105d0000828f5000010035000040eb008100e80068
:105d1000914188000004e00048fe3a008000eb005a
:105d2000e0032000670107000080eb00404188008d
:105d30007e009000a6ef07000080fa000000060039
:105d40000400fa00100798001e009000e10f5000b8
:105d50000b0032000000eb00000f78001e00a200d4
:105d60001e00780080407800808d20000148780077
:105d700061152c00100020009f050700f7ff370079
:105d8000808d200011c0b300014878005000200031
:105d900029010700808d20008040eb000148780039
:105da0005000200024010700f5ff37000600fa002c
:105db000c3e2a80000000000000000000000000096
:105dc000d4a2a800000000000000000000000000b5
:105dd000d4e2a9002003200008010700c3e2a900c3
:105de000000000000000000000000000d4a2a90094
:105df000000000000000000000000000d4c2a80065
:105e00000000000000000000000000009040800042
:105e1000200798002e019000b04721000090b900a3
:105e2000c388de004f90de00008f50002e009000ef
:105e3000b14721000181b9004399de00cf80de0027
:105e400001015100410620000191b9008200780053
:105e500001005000100798009e007800700120009b
:105e6000180107009e009000800120001501070026
:105e7000401f2000e1000700d4c2a900000000007c
:105e80000000000000000000d4e2a8009040800064
:105e9000200798002e019000b04721000090b90023
:105ea000c388de004f90de00008f50002e0090006f
:105eb000b14721000181b9004399de00cf80de00a7
:105ec00001015100410620000191b90082007800d3
:105ed00001005000100798009e007800700120001b
:105ee000f80007009e00900080012000f5000700e8
:105ef000401f2000c1000700adff37000200fa007c
:105f0000e0c7b300004f7800e0c4b300104798002a
:105f1000e8ec070009ed07000000000030108000e9
:105f2000610060000000e000fcff3a0085c0a900ad
:105f30001e407800f0ec07000000000040108000d8
:105f4000610060000000e000fcff3a00000000007b
:105f50002104800000002400008060000000e000b8
:105f6000fbff320085c0a9000028ef000228ef00e7
:105f70000000000041108000000028000080600048
:105f80000000e00007003200024080001340800063
:105f90001003200001002000800f5100818f590064
:105fa000f4ff360002408000134080001003200000
:105fb00001002000800f5100818f590008003e0031
:105fc000e0ec07000000000030108000640060007a
:105fd0000000e000fcff3a001e4078000700370098
:105fe000d8ec070000000000301080006400600062
:105ff0000000e000fcff3a001e4090000080fa0024
:10600000000006000000fa00f09f23000016880040
:10601000c422ef00f0c02f0030168800f0302000be
:10602000501688000080eb0060168800d022ef0038
:1060300000f020009016880000002300b0168800b1
:10604000d822ef00dc22ef000080eb00f016880081
:10605000e222ef00f0cf2f0020178800e822ef00a7
:106060000080fa00000006000000fa000021ef00a6
:1060700080382100100888008460a9008c60a80086
:1060800000012800200888000080eb00afec07002a
:106090000028ef000228ef000428ef000628ef0098
:1060a0000080fa00000006000200fa00000f7800ed
:1060b0001e0078006101b80000408000114080009f
:1060c00002004000838048000040880011408800a2
:1060d0001e0078006101b80020408000314080003f
:1060e0000200400083804800204088003140880042
:1060f000224080003340800000202000010020006a
:106100000202780003017800800178000100780025
:1061100003026200000061008000eb00c000dd00af
:10612000000020000001be006120b80000017100e5
:1061300081817100471add004910de000000720005
:10614000c918de0000407800614060000080fb005c
:10615000610060004e00dd00a2168000f1ff2b0000
:106160008100610001007000a0168800000000009e
:10617000000000002240800033408000002020000a
:1061800001002000020278000301780080017800fd
:106190000100780003026200000061008000eb0053
:1061a000c000dd00000020000001be006120b8003a
:1061b0000001710081817100471add004910de0085
:1061c00000007200c918de000040780061406000e5
:1061d0000080fb004f00dd00a2168000f1ff2700c9
:1061e0008100610001007000a0168800000000001e
:1061f000000000000080fa00000006000600fa001f
:10620000200798002e009000cf80de00008fbe0097
:106210000028ef000228ef0000000000004080008e
:1062200011408000be0f5000ae8f5800fbff3900b8
:106230000080fa00000006000200fa00000f78005b
:1062400002003700803e2000ecff07001e007800af
:1062500000f0a7000000ea000000ea004f00de00a6
:10626000004078001e0fe9000004e000f5ff3a004e
:106270000080fa00000006000600fa0047ec070064
:1062800090f12f004bec070000f02d00000f78007c
:10629000d075270010079800900120002007980073
:1062a0002e0190009e0090001e00780063ec070015
:1062b0008000eb00d0032000020007000080fa00fd
:1062c000000006000400fa00000f78001107980093
:1062d00010c0b30014e8b700000000002aec07006b
:1062e0000004e000fdff3a001e0078000040780046
:1062f0008080fb00f007200000806000d010880044
:106300000000000020ec07000004e000fdff3a0060
:106310001e009000004078000074a0000080fb0088
:10632000d01088000000000017ec07000004e00017
:10633000fdff3a0015c8bf000004e0000d00340066
:106340001a22ef00000000000fec07000004e0003c
:10635000fdff3a0015c8bf000074a0000080fb00dc
