:020000040000fa
:080000000007040000000000ed
:020000040000fa
:0400080044090000a7
:020000040000fa
:04000c0044090000a3
:020000040000fa
:04001000440900009f
:020000040000fa
:04001400440900009b
:020000040000fa
:040018004409000097
:020000040000fa
:04001c004409000093
:020000040000fa
:04002000440900008f
:020000040000fa
:04002400440900008b
:020000040000fa
:040028004409000087
:020000040000fa
:04002c004409000083
:020000040000fa
:04003000440900007f
:020000040000fa
:0400340008080000b8
:020000040000fa
:040038004409000077
:020000040000fa
:04003c004409000073
:020000040000fa
:04004000440900006f
:020000040000fa
:04004400440900006b
:020000040000fa
:040048004409000067
:020000040000fa
:04004c004409000063
:020000040000fa
:04005000440900005f
:020000040000fa
:04005400c8070000d9
:020000040000fa
:040058004409000057
:020000040000fa
:04005c004409000053
:020000040000fa
:04006000440900004f
:020000040000fa
:04006400440900004b
:020000040000fa
:040068004409000047
:020000040000fa
:04006c004409000043
:020000040000fa
:04007000440900003f
:020000040000fa
:04007400440900003b
:020000040000fa
:040078004409000037
:020000040000fa
:04007c004409000033
:020000040000fa
:04008000440900002f
:020000040000fa
:04008400440900002b
:020000040000fa
:04008800d407000099
:020000040000fa
:04008c004409000023
:020000040000fa
:04009000440900001f
:020000040000fa
:04009400440900001b
:020000040000fa
:040098004409000017
:020000040000fa
:04009c004409000013
:020000040000fa
:0400a000440900000f
:020000040000fa
:0400a400440900000b
:020000040000fa
:0400a8004409000007
:020000040000fa
:0400ac004409000003
:020000040000fa
:0400b00044090000ff
:020000040000fa
:0400b40044090000fb
:020000040000fa
:0400b80044090000f7
:020000040000fa
:0400bc0044090000f3
:020000040000fa
:0400c00044090000ef
:020000040000fa
:0400c40044090000eb
:020000040000fa
:0400c80044090000e7
:020000040000fa
:0400cc0044090000e3
:020000040000fa
:0400d00044090000df
:020000040000fa
:0400d40044090000db
:020000040000fa
:0400d80044090000d7
:020000040000fa
:0401080044090000a6
:020000040000fa
:04010c0044090000a2
:020000040000fa
:04011000440900009e
:020000040000fa
:04011400440900009a
:020000040000fa
:040118004409000096
:020000040000fa
:04011c004409000092
:020000040000fa
:04012000440900008e
:020000040000fa
:04012400440900008a
:020000040000fa
:040128004409000086
:020000040000fa
:04012c004409000082
:020000040000fa
:04013000440900007e
:020000040000fa
:04013400440900007a
:020000040000fa
:040138004409000076
:020000040000fa
:04013c004409000072
:020000040000fa
:04014000440900006e
:020000040000fa
:04014400440900006a
:020000040000fa
:040148004409000066
:020000040000fa
:04014c004409000062
:020000040000fa
:04015000440900005e
:020000040000fa
:04015400440900005a
:020000040000fa
:040158004409000056
:020000040000fa
:04015c004409000052
:020000040000fa
:04016000440900004e
:020000040000fa
:04016400440900004a
:020000040000fa
:040168004409000046
:020000040000fa
:04016c004409000042
:020000040000fa
:04017000440900003e
:020000040000fa
:04017400440900003a
:020000040000fa
:040178004409000036
:020000040000fa
:04017c004409000032
:020000040000fa
:04018000440900002e
:020000040000fa
:04018400440900002a
:020000040000fa
:040188004409000026
:020000040000fa
:04018c004409000022
:020000040000fa
:04019000440900001e
:020000040000fa
:04019400440900001a
:020000040000fa
:040198004409000016
:020000040000fa
:04019c004409000012
:020000040000fa
:0401a000440900000e
:020000040000fa
:0401a400440900000a
:020000040000fa
:0401a8004409000006
:020000040000fa
:0401ac004409000002
:020000040000fa
:0401b00044090000fe
:020000040000fa
:0401b40044090000fa
:020000040000fa
:0401b80044090000f6
:020000040000fa
:0401bc0044090000f2
:020000040000fa
:0401c00044090000ee
:020000040000fa
:0401c40044090000ea
:020000040000fa
:0401c80044090000e6
:020000040000fa
:0401cc0044090000e2
:020000040000fa
:0401d00044090000de
:020000040000fa
:0401d40044090000da
:020000040000fa
:0401d80044090000d6
:020000040000fa
:100e00004fb220000e7f22000e018800000000007b
:100e1000000020000000e00002003200000120007d
:100e20002002880014000700a00107000000e00075
:100e300003003a00a0d62300010020000200370082
:100e40000000200001002000810f7000010032002e
:100e500014000700000020000000e0000200320043
:100e60000000020000000000ec2c02000000000066
:100e70000040da000000fe004440a900003c2000d1
:100e80000000e0000300320000002000a001880004
:100e90004440a800000006008a1f78008b1f7800dd
:100ea0000000060091018800800478000000eb003b
:100eb0001a003700e284440032a0b4009905ba0059
:100ec000e284440032a0b4009906ba00e2844400ef
:100ed00032a0b4000006eb00476fde00fd07b20051
:100ee000636ce10003003a00ebff07000000eb0039
:100ef0000a003700606ce10004003a00005deb007e
:100f00008b05e900fdff3e00040037006168e10049
:100f1000010032000086eb000b00070019c7ba0081
:100f20001905ba000e04e00003003a000a00e000d0
:100f3000e0ff3a0000000600fe07b2009e018800b4
:100f40008a047800f5ff3700395dba008b05e900a7
:100f50000c003200295dba008b05e9000800320060
:100f60000c00e00003003a00e284440032a0b40028
:100f7000f5ff370019ddba008b05e900faff3a00ea
:100f80008904e800e184440032a0b40000000600b7
:100f90008002f8001408f9008202f8001208f90033
:100fa0008560a900004006003600f800809fbe0062
:100fb000829fbe00849fbe00869fbe001822ab00a9
:100fc000010032001822a900e01080004041880092
:100fd000a1022000810f500006003a008000eb00c3
:100fe000d003200022130700200320000c13070069
:100ff0000000fe008700a9004f03be004f02be00a4
:101000004f01be004f00be003600f9000040060050
:101010003600f800809fbe00829fbe00849fbe0005
:10102000869fbe00889fbe008a9fbe000200fa0015
:1010300050002000ca1207002e1707002ae8b70048
:101040002ac8bf00e14f4000080032001648e20005
:1010500006003a00a1822000914078002ae8ef00c3
:101060008100fb00f004200001130700a08d200088
:101070001040780061406000610060004900dd00c0
:10108000f1df2f0012168000828060008100700066
:101090001116880091408000a04080009b40800095
:1010a000aa40800000805000cf80de0004020700cc
:1010b0000004be000b004500cf80de0000020700e8
:1010c0000001be000800be009a01070002002000d7
:1010d00003f823003a010700020020000340240027
:1010e0004d020700d5010700f0bf9f00604180005e
:1010f000ffb89700808f50000a003c0081408000bc
:101100007fb99700810f5100060035000000eb0009
:101110004048880050488800f00f2000e822b600c0
:1011200031003700414880000100e00007003a002c
:10113000204080003140800060488800714888006d
:1011400020002000404888002700370041488000e8
:10115000e28f500024003a00644880007548800007
:1011600022408000334080006a024200e0824a0050
:10117000820f5200838f5a001b003100ffb8970086
:10118000810f500008003d00e702a80020912000d8
:101190001008e800c0c4b30017e8b700c00420007e
:1011a0005048880006003700e722a8004091200040
:1011b0001008e800200520005048880017e8b70014
:1011c00080002000404888001648e20006003a00ef
:1011d00071812000914078001768ef008100fb00ca
:1011e0000000eb00a2120700204080003140800088
:1011f000421f2000030020003b020700e00f5000c8
:10120000e08f580016003a001648e20014003a0039
:10121000b04880000000e000030032007fb8970073
:101220008000eb0062160700604180007fb99700e4
:10123000800f5100030034001100200070042000d2
:101240008b12070080408000ffb89700808f50000d
:1012500003003d00210020007004200084120700dc
:101260008460a9000080fa004f05be004f04be0054
:101270004f03be004f02be004f01be004f00be0034
:101280003600f900004006000040da000000fe00d1
:10129000889fbe0080047800104980000000e000b4
:1012a00004003a000e0007000084eb000000e0009c
:1012b00008003500184980000900e00005003200f0
:1012c00009004400060007000000e00001003d00a6
:1012d0000084eb00080078004f04be000000060008
:1012e000800078000100e00003003a0040922000f6
:1012f00010498800000005000080eb0042b2200089
:10130000828f500002003e00114988000000eb006f
:10131000000006000602ab00feff3a000642ab00ea
:10132000fcff3a000662ab00faff3a000682ab000f
:10133000f8ff3a0009c2ab00f6ff3a0000000600d1
:101340000662a8000662ab00feff3a0008c2a900d0
:1013500000108000000006008040780000c0eb0014
:101360008180fb001110880008e2ab0007003a0002
:1013700009c2ab00feff3a00e6ff07000040eb00a9
:101380000802e20001003d00e0cfb30000000600cb
:101390002110880030108800000006000602a80016
:1013a000000006000642a800000006008460a900b4
:1013b000e7006000f2ff2800cc08dd00a3048000f5
:1013c00003016100680060000281700071ff2f005e
:1013d000a2048800620480008280600081007000a6
:1013e0006104880000000600001020001802b6000a
:1013f0000000e9004f00de000000060017e2a9002f
:101400008f00a9008f20a9008700a9008720a900cc
:10141000000006008700a900e70060008720a900ff
:101420000001780083ff2f000207b200040580004e
:101430008481610083817000e800600003058800fa
:10144000c308de00f3f82f00e1806000040580008f
:1014500084816100c808dd00830171000008b200ca
:1014600003058800f2ef2f004700de0073048000c0
:101470000301610061006000028170004900dd002d
:1014800072048800f1df2f00740480008480600003
:10149000810070007104880000000600f2108800ce
:1014a000b0108800c1108800000006000000050090
:1014b0003200f800910188000008bb0041042400bc
:1014c0006210e10004003200000220000010e10080
:1014d0000a003a0051042400013b88000500fc008a
:1014e00051052000313b8800a10a2000313b8800d3
:1014f00061e7a80000000000000000003200f900d1
:10150000000006003200f80060042400003b880060
:10151000f2ff37003200f8009101880041002400fa
:10152000013b88000208bb00ecff37003200f800e6
:101530009101880051002400013b88000301200034
:101540003218bb008301e900fdff3a00e3ff3700da
:101550003200f800910188008002780062004000ab
:101560003549ba00e08048003204e0000410a700ca
:10157000100032008301e9000e0032002549ba0054
:101580003204e0000410a7000a0032008301e900e1
:10159000080032000408a300eeff320015c9ba00ab
:1015a0003204e0000410a700020032008301e900c9
:1015b000e8ff3a003200f9000000060003f0a20044
:1015c000889fbe008a9fbe008c1f7800fa0007002b
:1015d000010133006450e1004f0032006420e1005b
:1015e0005200320003826c0007003b000905d00066
:1015f0000306d000820f54000c065d000200390083
:1016000002003200890178000306780085825500c7
:1016100004003d000003fd008103fd008502ea0097
:101620008b854200840f720002003b0060001000b6
:10163000e08018006011b8000005eb007a28e10096
:101640000a00390006007800c75ddd00f707b20028
:10165000878075002d003700828171000a017800b3
:10166000610560008180d1000080d3008502e9001f
:10167000f9ff3b00060440008784480002003b005d
:1016800060041400e0841c000988a30007003200f5
:101690008a81710082817100610164008904d10036
:1016a0000884d3008b05e800170037000978a300f1
:1016b00013003a000b00e000130034008b05e90032
:1016c0000804440089844c000a4474000978a3008b
:1016d0000d003a000b00e000070034008b05e90024
:1016e0000804440089844c0001003a000b002000eb
:1016f0000978a300f7ff32000001eb000200370079
:10170000828171000a017800700007000cf0a700c8
:1017100001f0a000b90037006420e10002003a00a7
:10172000838f6c00b90033000801be000200be00c8
:10173000b2003700889fbe008a9fbe008c1f7800d1
:101740009d000700a400330003866c006450e10094
:101750002e0032006420e100330032006150e100cd
:101760002f0032006120e1003100320085855500f4
:10177000eb07b00009002000080420000500370036
:101780000804440089844c000a0031000603430029
:1017900087834b000001530081815b00f8ff330019
:1017a0000203be000800a0000804440089844c0025
:1017b000f6ff3900c639dd008301730001003200f5
:1017c000130020008904d1000884d3000998a300e5
:1017d000050032000800a7000300a0008904d10022
:1017e0000884d3008b05e8008904d1000884d30065
:1017f0000001eb000281d2003400070001f0a100db
:101800000cf0a70001f0a0007c0037006420e1008c
:101810007e0032000801be000200be00f7ff370064
:101820006120e100790032006000b800f3ff37006a
:101830000000200001f82700f0ff37000001be0083
:10184000480007000470a70003f0a1006509b1007b
:10185000160032000d0035006828e1000600350052
:10186000f0ff2f00f1ff27000300e00013003b0012
:1018700001002800000005000000400081804800b1
:101880008502e900fcff3a0008003700f88f4200ab
:1018900002003c008000eb00000005008100d10048
:1018a0000080d3008502e800fcff3a000300e0005e
:1018b00002003b0060001000e080180000000600fd
:1018c0004f89de00820178008a0037008100200005
:1018d000618055000b003d000b00200061fe2f00d1
:1018e0000100e1001d00340082817100610164008b
:1018f0008904d1000884d3000000e800faff3a0010
:1019000071002000610064000300700002006000ac
:101910000900320061044400e0844c000988a500fd
:10192000050032008b05e8006808e10002003a007b
:101930008904d1000884d300f20f20000258e1008e
:1019400005003d00c75ddd00f907b2008980750024
:1019500008007800000006000bf827008b007800d4
:1019600000000500c70ade00f107b200f50fb20063
:1019700008003200e1cf4200020032000170a000f6
:1019800024000500810f70000100320004080500ea
:1019900044000500810f700002003a0014000500a9
:1019a0008502e9000000400081c04800fcff3b00c8
:1019b0000170a000240005000004be00e9ff07003c
:1019c0000003be000405be000200be00e5ff0700e4
:1019d000844f7500000006000200be006450e10064
:1019e000050036006420e100020036000968a3000b
:1019f00001003a000800be000160a0004f06780018
:101a00004f05be004f04be0000000600f0ff2f008f
:101a1000f1ff2700f9ff3700889fbe008a9fbe00b4
:101a20008c1f7800e4ff0700ebff330003866c0097
:101a30006450e100240032006420e10027003200fd
:101a40006150e100220032006120e10021003200fb
:101a50008b854200eb07b1000134b800003ab800b2
:101a60000804420089844a00013ab8000030b800f6
:101a70008880400009014a00040033000000400053
:101a800081804800020149008b05e900c909dd0099
:101a9000830170000100320013002000c814de0032
:101aa0004814dd004709de001200b200c808de005d
:101ab0000884700085ff070001f0a1000cf0a7006a
:101ac00001f0a000cdff37006120e100cfff320020
:101ad0000801be000200be00f7ff37006150e100c0
:101ae000fcff3a00c9ff3700410007000400be00b8
:101af00000000600881f7800030478000300e0005f
:101b000007003d0060001000e0801800600119002f
:101b1000e081190002003b0001f02d0003003700b6
:101b20000400070008f0a70001f0a0004f047800af
:101b300000000600889fbe008a9fbe0000827000e1
:101b40000402710004827100260032000004be000d
:101b50000200be006011b8006b0920009502200051
:101b60000182cf000a0039000541b1000082cf0098
:101b7000070039000541b1000982cf000400390097
:101b80000541b1000882cf00010039000541b100d4
:101b900005425200120032000a003b0082817100af
:101ba000610164008100d1000080d3008984d300ea
:101bb0000884d3008b05e8000442e800f7ff3a00f0
:101bc000070037000804440089844c0000004800e6
:101bd000818048008b05e9000442e900f9ff3a00e2
:101be0003aff07004f05be004f04be00000006008c
:101bf0006022b800060220000000d0008180d200e0
:101c00000482d2008582d2000000a00002025200ad
:101c100083825a00030031000202420083824a009c
:101c20000000a1000603e900f3ff3a0000000600ef
:101c30000000e0002f003200c0017800e38f510067
:101c40002c0036000308a3002a003a00d148800087
:101c50000100e00002003200810f5000040031005a
:101c600011009800d04888001600370082007800e4
:101c7000110190000200e00002003200800f5100cc
:101c8000faff39001102780084824000850f50006d
:101c900018003900808f520003003a008308420088
:101ca00001007800070037000200e0000300320066
:101cb00083014000830f51000e003900120098008c
:101cc00090009800900090000100e00009003200b0
:101cd00010014000828f500006003a0082912000df
:101ce0000009eb00100178001108410091009000fc
:101cf0001100980000000600889fbe0000047800d4
:101d0000c14880000100e0000200320001007800bc
:101d10000d003700d1488000a0912000040037005a
:101d2000910f5400250036000180e80091009000da
:101d30000100e000faff3a0010003700920f540053
:101d40001e0036000280e800100178000200e0006a
:101d5000faff3a0011017800d1488000a0912000dc
:101d600004003700910f5400140036000180e80091
:101d700091009000828f5000faff3a0009498000dc
:101d8000888f540001003100880478000900780031
:101d90008e0007000000e00004003a00888f540025
:101da000050032008904d100f5ff370009187800da
:101db0009fff0700d2ff37000000eb004f04be007a
:101dc00000000600881f7800630440000800a1009e
:101dd0008000eb00800f540021003600e30f540018
:101de00001003e004800200008007800c2ff070004
:101df0008000eb000000e000190032009000780045
:101e00009101780064815100880f51000300310076
:101e10001101900002087800070037000881400097
:101e200002087800910190001301980010017800d9
:101e30001109140088087800100178000000eb00f8
:101e40000200e00004003200920190000300e00074
:101e5000010032000280e800c04888008180e8006c
:101e6000010078004f04780000000600889fbe0043
:101e7000404280000000e00001003200000001004c
:101e8000504280000000e00001003200000001002c
:101e9000608420001004e00022003a00e048800046
:101ea000f148800088002000d260260093012000c5
:101eb00050000700f2352f00e3c623000000410068
:101ec000818049000804e900f7ff3a00c884200037
:101ed0000908200088844400d26026009301200075
:101ee00044000700f2352f00e3c623000000410044
:101ef0008180490000acbe00890f5400f6ff3a0013
:101f0000e0488800f1488800604680007146800003
:101f1000604288007142880011c0b30060842000d4
:101f200001487800d260260093012000e04880003c
:101f3000f14880002f000700f2352f00e3c6230090
:101f40000002410081824900e4488800f548880089
:101f5000c0842000100078007f0160004211dd0085
:101f600000852000020140001200be00604288008f
:101f7000714288000489be000100780000f0a100d1
:101f80004f04be0000000600889fbe0000047800d9
:101f9000404280000000e00001003200000001002b
:101fa000608420000048eb00504280000000e00008
:101fb00001003200000001008004eb00e8488800c6
:101fc000f94888004f04be00000006008000780039
:101fd0000000eb000100e000050034000100780083
:101fe000abfc0700e10f400001003a000000eb00ed
:101ff00000000600020ab900001bb9000200b80088
:10200000810042008100430000000600800078004b
:1020100010002000e68f50000b003200f08f5000bf
:1020200009003200f18f500007003200e38f5000aa
:1020300005003200e580680001f0a7008100ea0099
:102040000100e9004f00de00000006001828ef0044
:102050008000780040002000050f07002008ec00f9
:10206000004188001200200051002000c911070023
:10207000000006001828ec008000780060002000b6
:10208000fb0e07001e08ec00f04088000001eb008a
:1020900091002000bf110700b04780000000e00061
:1020a0000200340080382100fa1207000000060008
:1020b000881f7800000478001100200060012000d3
:1020c000eb0e070080488000c1042000810f500003
:1020d00009003a0011002000400020008312070090
:1020e00010428000eb1207008000eb00400020004f
:1020f0007e1207000b00370021052000810f5000e1
:1021000008003a001100200030002000771207007c
:1021100020428000df1207008000eb00300020002a
:10212000721207001828ef00880078007000200065
:10213000cf0e07001c08ec00e04088000001eb0017
:1021400051002000931107004f04780000000600a2
:10215000e6874700889fbe008a9fbe008c9fbe0016
:102160008e1f780000077800f1b79f0082bf9f00a4
:10217000009120000008eb00f0418000fe0f5000ad
:102180000400320071032000810f5000cb003a00a0
:10219000570037000028ef000228ef00611ab9004d
:1021a0000040800011408000800f5200818f5a0053
:1021b0000c003600a1902000110078000240800041
:1021c00013408000840f5100858f590004003100b6
:1021d0000000e000f8ff320080488800010037006e
:1021e00080488800204080003140800040408800c6
:1021f00051408800804880000000e0002f003a0035
:102200000e00780081ff07000000e0000a003a009d
:102210001100200050002000950e07002208ec005d
:102220001041880012002000910020005911070081
:102230000000eb000a013700100020008dff0700ae
:102240000aff070002428000110009000200d800c6
:102250000100e00004003a006090200010007800c7
:102260006100600005003a000000eb00110320004f
:1022700042418000810f5100f9003a001100200016
:10228000600120007a0e07001100200040002000ad
:10229000161207001100200080002000740e0700b5
:1022a000104280007b1207008000eb0040002000fd
:1022b0000e1207000000eb00e90037000e00780066
:1022c00052ff07000000e00004003a001000200068
:1022d0005eff07000000eb00e10037001100200066
:1022e0001000200072ff07000000eb00dc00370048
:1022f0000028ef000228ef00611db90000408000b7
:1023000011408000800f5500818f5d004200360033
:102310004f1ede00030646000c86d100cfe6de002d
:102320000001eb00a8902000e6044400004080007b
:1023300011408000800f5600818f5e002d003a0012
:102340000200e0002b003a00c8fe070002428000b5
:10235000110009000200d8000100e00004003a006a
:1023600061902000910078006180600003003a00d5
:10237000100320002808e3001d003a00110020008f
:10238000600120003a0e07008fb8970080002000ff
:10239000370e07000e0078001cff07000000e00069
:1023a000090032001100200040002000cf1107007a
:1023b000104280001a0e07008000eb004000200051
:1023c000ca1107000800370011002000300020006b
:1023d000c611070020428000110e07008000eb00ac
:1023e00030002000c111070028a8ef000a003700c4
:1023f0001200200018007800800c78000440800053
:10240000154080008a0f52008b8f5a000200310065
:102410000000e000c5ff3200204080003140800015
:1024200040408800514088000e007800f7fe070009
:1024300080007800200020000100e0000100320050
:1024400010002000824880000200e00005003a00f1
:1024500008ff0700608f20001000a0000000eb00c4
:102460007f0037000100e000030032002305200058
:10247000830f510005003200c3042000830f510078
:1024800007003a000100e00005003a00effe0700f7
:10249000608f20001000a0000000eb0070003700eb
:1024a0001100200002ff0700608f2000e10f2000d4
:1024b000108860000000eb00690037000028ef0082
:1024c0000228ef00611db90000408000114080002b
:1024d0008a0f50008b8f5800360031004f1ede00ef
:1024e000030646000c86d100cfe6de008000eb003c
:1024f000a8902000e604440001027800004080001b
:1025000011408000800f5600818f5e0020003a004d
:102510000400e0001e003a0054fe07000242800062
:10252000110009000200d8000100e00004003a0098
:1025300061902000910078006180600003003a0003
:10254000100320002808e30010003a0011002000ca
:1025500060012000c60d07008fb8970080002000a2
:10256000c30d070011002000400020005f1107008c
:1025700010428000aa0d07008000eb004000200000
:102580005a11070028a8ef000a00370014002000a5
:1025900018007800800c7800024080001340800012
:1025a000820f5500838f5d00020036000000e000be
:1025b000d2ff32002040800031408000404088003f
:1025c00051408800804880000000e00015003a007b
:1025d0000e0078008dfe0700000478007fb09700a1
:1025e0008afe0700800f54000a003a008fb8970057
:1025f000500020009e0d07002208ec0010418800ca
:1026000012002000910020006210070050002000fe
:10261000130037000fb8970096fe070060002000f7
:102620000f0037000e00780078fe070000047800e5
:102630007fb0970075fe0700800f540004003a0039
:102640000fb8970081fe070040002000040037000b
:10265000110020000fb8970095fe070070002000c1
:102660004f0778004f06be004f05be004f04be0066
:102670006f00b100000006000400fa00889fbe0051
:102680008a9fbe008c9fbe0020032000f04188007e
:102690000000eb0090488800a0488800a19a2b0019
:1026a00020002000ae10070000047800b19b2b0032
:1026b000d09b2b009a1007004006200000c4b900f0
:1026c0006140b90080bf9f0091bf9f00004088001b
:1026d000114088008005eb008004eb006066b800c4
:1026e000289120000885e800988f540022003100ce
:1026f00000408000114080000fb997009fb99700fb
:10270000800f5100818f590015003100e48f560071
:10271000130032001100200060012000540d07005a
:102720001100200040002000f01007000028ef00fa
:102730000228ef008040eb00f0c0b300b20f0700aa
:10274000c0c4b3002f0f07000c06e80012002000e1
:10275000210020000c0078000e1007004d00200022
:10276000180078000001eb0021002000091007008c
:1027700098047800230037009a8f5500210031001b
:1027800000408000114080000fb997009fb997006a
:10279000800f5100818f590015003100e38f5600e2
:1027a000130032002100200060012000300d0700de
:1027b0001100200030002000cc1007000028ef009e
:1027c0000228ef008040eb00f0c0b3008e0f07003e
:1027d00020c5b3000b0f07000c06e8001200200014
:1027e000210020000c007800ea0f07003d002000c7
:1027f0001a0078000001eb00a1002000e50f07009f
:102800009a0578000040800011408000124280004c
:10281000cf91de00800f5100818f590003003100fd
:102820008000eb0040002000b01007000040800056
:102830001140800022428000cf91de00800f5100c5
:10284000818f5900030031008000eb003000200030
:10285000a61007004041800011032000810f5000a6
:102860000a003a0011002000400020009f100700dd
:1028700010428000ea0c07008000eb0040002000be
:102880009a10070028a8ef0097ff370021032000c7
:10289000810f500094ff3a0011002000300020000a
:1028a0009210070020428000dd0c07008000eb0042
:1028b000300020008d10070028a8ef008aff3700a5
:1028c000719c2b001000200025100700e10f500024
:1028d00002003a00d482a80003003700e20f500043
:1028e00001003a00d4a2a80000000600889fbe00a4
:1028f0008a9fbe00084780000800e00026003400e0
:1029000008044400080078002efd0700e046880017
:10291000f041800071032000810f5000050032005b
:10292000fe0f5000030032000800780025fd07006c
:10293000f0468800004780000000e00016003400e8
:102940000004eb007a0320000b8e2000f19c2b008a
:10295000200020000210070088044400e1468000a7
:1029600080b07c00f04180008a0f500007003200e8
:10297000fe0f500005003200d19d2b0020002000ea
:10298000f70f0700f146800080b07c000804e800e3
:102990009b0f1400edff3c00384780000800e0006a
:1029a00018003400080444000800780005fd070002
:1029b000104788000800780002fd070020478800c3
:1029c0000004eb009a9e2b006b8e20008a0078009a
:1029d00020002000e20f0700880444001147800017
:1029e00080b07c00819f2b0020002000dc0f0700be
:1029f0002147800080b07c000804e8009b0f140091
:102a0000f2ff3c00504780000000e0000f0034005f
:102a100000004000ebfc0700404788000004eb008a
:102a200059a02b00aa8e20008900780020002000e9
:102a3000cb0f0700880044004247800000b17800b7
:102a40000804e8009a0f1400f7ff3c004f05be0091
:102a50004f04be000000060051a12b001000200012
:102a6000bf0f0700e20f500008003200e30f5000d4
:102a70000a003200e10f500012003a00110020005d
:102a800040002000191007000e0037001100200040
:102a900030002000151007000a0037001100200048
:102aa000400020001110070000000000000000009e
:102ab0000000000000000000110020003000200095
:102ac0000a10070000000600889fbe008a9fbe0013
:102ad0008c9fbe008e1f7800800678000100e00009
:102ae00004003a0041a22b00100020009c0f0700b8
:102af00080007800e18f500003003a001b42800004
:102b00004c002000060037008005eb000006eb00bb
:102b1000e28f500002003a002b4280003c0020006f
:102b20000d00e000170034000005eb004e1f2000f0
:102b3000087d20000b0454008b0457001100200076
:102b40000c007800e90f07000b007800340c070038
:102b50008000eb000c007800e40f07008e8f55001a
:102b600003003c00090078002d0c0700020037002c
:102b7000080078002a0c07000a05e8008a8f560032
:102b8000eeff3c004f0778004f06be004f05be0029
:102b90004f04be0000000600889fbe008a1f780018
:102ba000800478000104780002057800bd0e07005b
:102bb000b40e070030a32b00f60d07000001eb0058
:102bc0006100200009007800f20e070012002000ca
:102bd0006100200008007800ee0e07000800e90000
:102be000600c07000984ea00080078007e0c0700ea
:102bf0000a00e0000b003a00481f20008984ea0028
:102c000008007800060c0700f0002000760c070092
:102c100008007800020c070009007800720c070019
:102c2000f7ff3700080078006f0c0700fdff370042
:102c3000ec874700889fbe008a9fbe008c9fbe0025
:102c40008e1f780080047800820678000d00e00076
:102c500077003400708264004422de00e881640062
:102c6000c319de00648164004211de0062806400ea
:102c70000000d100863e2000068bb900cee02f0078
:102c8000060747000005eb00e1006200c908dd000f
:102c900081bf9f00e1806100c908dd00f1b79f009e
:102ca000e1006100c908dd00e1b79f00610060003c
:102cb0004900dd00d0b79f00618064004900dd005d
:102cc000c0b79f00770e07006e0e070010a42b0000
:102cd000b00d070011c0b3000040eb004a0e070022
:102ce00070a42b00ab0d07000a05e80012002000bd
:102cf000710020000a007800a60e07000001eb001a
:102d00006100200009007800a20e0700ef8f540038
:102d10000400340070865400480020008b0020001e
:102d20000300370009067800180020002b0020005f
:102d30008900780030002000cd0b07000c007800df
:102d4000080c07000880ea00270c0700401f20003d
:102d5000b30b0700e702a800088475000880ea00aa
:102d6000210c0700f8df2f003117800001006400fc
:102d70008fb897000080700030178800800c20000a
:102d8000a70b07003117800001006400ffb0970017
:102d90000080700030178800800c2000a00b070016
:102da0003117800001006400efb0970000807000d0
:102db00030178800800c2000990b07003117800025
:102dc00001006400dfb097000080700030178800b9
:102dd000800c2000920b0700301780000004640074
:102de000cfb097000884700038178800500020008a
:102df0008b0b07000b80ea00fb0b0700300c200058
:102e0000870b0700e722a900f0002000f60b07005f
:102e10008000eb0030002000950b0700e702a900be
:102e20000e0078007e0b07008a8f5600a5ff3c003d
:102e30004f0778004f06be004f05be004f04be008e
:102e4000cf00b100000006000200fa00889fbe001b
:102e50008a9fbe00e1a42b0010002000c00e0700d6
:102e600000057800b94721004b0620000a00e00069
:102e700002003a009040800001003700a04080002e
:102e8000b0bf9f003fb897003fbc97000981b900d1
:102e9000c398de004f80de0080805000700120006b
:102ea000730b070009c0b900c388de004fc0de0005
:102eb000008050000b80b900800054008001200089
:102ec0006b0b070020032000550b0700e7ff3700be
:102ed0000200fa00889fbe008a9fbe008c9fbe0041
:102ee000bc4721004d06200091408000a04080009a
:102ef0009b408000aa40800000805000cf80de0010
:102f00006ffa07000004be000b004500cf80de0012
:102f10006bfa07000001be000800be0005fa0700ba
:102f20000200200003f82300a5f90700020020009a
:102f300003402400b8fa070040fa070090bf9f0042
:102f40001fb897001fbc97000c81b900c398de0022
:102f50004f80de008080500070012000440b07008d
:102f60000cc0b900c388de004fc0de0000805000f6
:102f70000d80b90080005400800120003c0b070048
:102f800090012000260b07001fb897008000eb007f
:102f9000070f070090012000210b0700d2ff370028
:102fa000889fbe008a9fbe008c9fbe00f0f32f005a
:102fb000f01688000004eb00f9fb2f00faef2f0059
:102fc000fbff2b00fcff2e00fdff2d000800a200e0
:102fd00061006400c600dd00031780000381640007
:102fe000028170000217880000000000000000004d
:102ff000000000004801dd004416800084016500e7
:1030000083017100431688000000000000000000ea
:10301000000000004901dd00f3df2f0044168000ae
:103020008481610083017100431688000000000064
:1030300000000000000000004701dd00f3f72f0052
:1030400004178000848161008301710003178800e8
:1030500000000000000000000000000003178000d6
:1030600003816400028170000217880000000000e4
:103070000000000000000000ce00dd0014168000fb
:1030800004816500028170001216880000000000b3
:103090000000000000000000cc00dd00a31680004e
:1030a0000301660002817000a21688000000000083
:1030b00000000000000000004d00dd00a4168000ac
:1030c0008480660081007000a1168800a00f200097
:1030d000d30a0700bdff3700889fbe008a1f780013
:1030e0008c9fbe0000067800209120000008eb00b5
:1030f000604180009c0e07006a0d0700610d07000b
:10310000a0a52b00a30c0700803e200000408800f3
:103110000228ef000004eb000005eb0029912000dd
:10312000cfe6de00990f540014003100004080000b
:1031300011408000800f5600818f5e000a003e0023
:103140001100200040002000680e07000028ef005a
:103150000228ef000a05e80012002000c10020004c
:103160000a0078008b0d0700190478000001eb00bd
:10317000b100200008007800860d070000408000a4
:103180001140800012428000cf91de00800f51007c
:10319000818f590003003e008000eb0040002000ba
:1031a000520e0700100320002808e300ddff3a005c
:1031b00011002000400020004c0e0700104280004b
:1031c000970a07008000eb0040002000470e070030
:1031d00028a8ef00d3ff3700889fbe006041800021
:1031e000610e0700804080005f0e070051a62b0093
:1031f00010002000da0d07008004780041a72b00a2
:1032000030002000d60d0700000478000800780088
:10321000550e0700e18f540004003a00c2c0de00e2
:103220000000eb003c0b070005003700e28f540064
:1032300003003a00c2c0de00a0002000360b0700e9
:103240000000000000000000000000000000eb0093
:103250004a0b07004200dd0060418800a00020000a
:10326000460b07004200dd00804088004f04be008e
:1032700000000600889fbe008a9fbe000004be00ba
:10328000ef8f5400020034007080540001003700ba
:1032900009007800b30a07000800e900e10f5000b8
:1032a00002003600e60f540007003a00b0ff2f007e
:1032b000ef8f540001003c00e0ff2f00ca0a070016
:1032c000401f2000730e0700e30f54000e003a0069
:1032d0000900e00003003c00410620008980400016
:1032e000010037008900780030002000600a0700e4
:1032f000b0ff2f00ef8f540001003c00e0ff2f00d3
:10330000b90a070099003700090078003ffb070061
:10331000800578000b00e00002003200db02a8000c
:1033200001003700db22a80030ff2f00ef8f540090
:1033300001003c00c0ff2f00ab0a07003a05200047
:10334000e40f54001300320004003c000800e900c0
:10335000e10f500009003e000a003700ba002000cb
:10336000e60f54000b0032005a052000090035001a
:10337000ca002000e70f5400060032000005eb00f1
:1033800004003700aa0020000b00e000010032001a
:103390009a002000410620000900e00001003200f0
:1033a000890078000a007800310a07008040eb00ad
:1033b00030c0b300940c0700e40f54001a00320030
:1033c00005003c00e10f540009003200e20f5400f8
:1033d0002e003a000d003700e60f54001e003200a8
:1033e00018003500e70f540028003a00210037008c
:1033f00010c3b300030c0700c08e200081f32f0020
:1034000010804000230e07002000370020c3b300c7
:10341000fc0b0700008f200081f32f00108040007c
:103420001c0e07001900370030c3b300f50b07006e
:10343000408f200081f32f0010804000150e070000
:1034400012003700a08f200081f32f001080400071
:10345000100e07000d00370050c7b300e90b07003e
:10346000e08e200081f32f0010804000090e07003d
:103470000600370050c5b300e20b0700208f200084
:1034800081f32f0010804000020e070070ff2f0014
:10349000ef8f540001003c00d0ff2f00520a0700bc
:1034a000800c2000fb0d0700f00020004e0a0700f2
:1034b0008000eb000a007800ed0907008040eb0077
:1034c00030c0b300500c0700e40f54001f0032005e
:1034d00005003c00e10f540008003200e20f5400e8
:1034e00022003a000f003700e60f54001a003200a5
:1034f000e70f54001d003a001a00370040c6b30021
:10350000c00b070060478000713e2000810f500013
:1035100016003e008100e80000805000dd0d07002d
:103520001200370040c4b300b60b0700804780008c
:10353000713e2000810f50000c003e008100e80029
:1035400000805000d30d07000800370020c5b300ed
:10355000ac0b07000500370040c6b300a90b0700fd
:103560000200370040c6b300a60b070000000000b1
:10357000000000000000000000000000db02a900c5
:10358000db22a9004f05be004f04be00000006006c
:10359000889fbe008a9fbe000005780081047800e5
:1035a000020478000a017800890078006000200099
:1035b00030ff07008040eb0030c0b300120c070062
:1035c00040c4b3008f0b07000800e00003003a007e
:1035d00080bb2000af0d070028003700803e200090
:1035e000ac0d070080057800ef0f54001f00340079
:1035f00070005400db090700b0ff2f00fa09070034
:10360000401f2000a30d0700808575000a003a00c6
:103610000a017800880078007000200015ff07007c
:10362000431f200032002000880078000900780045
:10363000c7fa070011003700f0002000ea09070070
:103640003100200040052000890907008040eb0080
:1036500030c0b300ec0b070010c4b300690b0700c7
:10366000c05d20008b0d07000400370008007800c3
:10367000bc090700e0ff2f00e0ff37004f05be0048
:103680004f04be0000000600889fbe008a9fbe0057
:1036900000047800010578000000eb00a2478000dc
:1036a000710c2000810f510034003400e04780008d
:1036b0008004eb00e10f50000e0034000000e90030
:1036c000893e20000980b900720d0700800578004e
:1036d000e04780000980b90009832f000080440082
:1036e0006c0d070080847500401f2000690d0700e5
:1036f000890470000801780040478000900078003d
:1037000030002000dbfe0700401f2000610d070095
:10371000800578008040eb0030c0b300ba0b070092
:1037200030488000e10f50000c003c008b84740096
:103730000a003200f0002000ab0907008a00780080
:10374000400520004a09070010c4b3002d0b0700f4
:103750002428ec000000eb000800370020c5b3006f
:10376000280b07000801780040478000900078008f
:1037700040002000bffe0700100020004f05be00e3
:103780004f04be0000000600e4874700889fbe008b
:103790008a9fbe008c9fbe008e1f78000006be0070
:1037a00082bf9f00030778008405780020408000d6
:1037b0003140800040408800514088002240800015
:1037c00033408000823eb0000380b000e88f2000cc
:1037d00098007800803e20000088b9000202400076
:1037e0008382480064408800754088008b00780020
:1037f000a00320001e0907008b00780001f0a7003d
:103800008100ea008100ea00cf08de0010042000f9
:10381000170907008040eb0030c0b3007a0b0700a7
:1038200090c4b300f70a070018057800e30f5500ad
:103830000e00360064055500c0032000800f5500bf
:103840000700360008a62e008004780008007800e3
:10385000100d0700ca03b100890f5500fbff3e00a1
:10386000803e200000d0b9000a0d0700c0da200019
:10387000080d07008000eb00b0032000fc080700e3
:103880000b0178008c0078001000200079fe070002
:10389000f0418000fe0f5000220032007103200032
:1038a000810f50001f003200e04780000000e00060
:1038b00018003400314780000100e0000f003200a2
:1038c000409c2000f30c07000e0178008fb8970091
:1038d0000b0078002eff0700e0478000e70f500044
:1038e0000a003600813e20000180b900020c2e0043
:1038f00000004100e70c070004003700813e200073
:103900000180b900803eb100e20c0700401f20009a
:10391000e00c07000b0178008d00780020002000eb
:1039200054fe0700504780000000e0000300320012
:10393000e10f50001d003a000e0037008040eb0000
:1039400030c0b300300b070020c5b300ad0a07003c
:10395000833e2000304880000000e000010032007b
:10396000833eb000120020000c00be00f8f90700f2
:103970000e0037000c007800a4f907002100200099
:103980000000e00001003200110020000b00780070
:103990003dff07000000e0000400320003fa2000b1
:1039a000220020000c00be00e9f90700e040800082
:1039b0002208b400f1408000010440000141800071
:1039c0000104440020418000000444001200200053
:1039d000d1002000080078006e0b0700e040800056
:1039e0002208b4004240a9000d0034004106200026
:1039f0000180b900110009000800d800310620003c
:103a0000810f50000100340001007800d040880090
:103a1000d1002000e90f500004003c0002003700f4
:103a20001a28ef000000eb00e10020000001eb008d
:103a3000580b0700eb0d07004f0778004f06be003c
:103a40004f05be004f04be004f00b100000006004d
:103a5000889fbe0010428000430c07002042800077
:103a6000410c070041a82b0010002000bc0b0700f0
:103a70008004780041a92b0030002000b80b07001b
:103a80000004780008007800370c0700e18f54002c
:103a900004003a0088007800200020001e0907007a
:103aa00005003700e28f540003003a0088007800d8
:103ab000c000200018090700200020002f0907007f
:103ac00010428800c00020002c0907002042880016
:103ad0008000eb00d0032000650807004f04be0003
:103ae00000000600fc874700889fbe008a9fbe003a
:103af0008c9fbe008e1f7800b0b79f00e1b79f007b
:103b000082b79f003a28ef0090468000c0b79f0020
:103b10001048800000004000aaf8070090b79f00fe
:103b200080007800a1b79f00f141800030032000a1
:103b30004f0807003fb297004f20de00040040000e
:103b40000080d100d0b79f00d701370011002000be
:103b5000d00320004608070031aa2b0040ab2b0001
:103b60006f0b07001200200011002000d0418000e0
:103b7000080b07002428ef002228ef002028ef0080
:103b80001e28ef001c28ef00bfb297000500e000e0
:103b9000b30134006fb097001808e300b0013d0096
:103ba0008000eb00f1b79f0081bf9f008005eb0014
:103bb0008004eb008006eb00249020009400780045
:103bc0002fb09700100c0700259020001500e00092
:103bd0009d0134006fb097001808e3009a013d0082
:103be0001fb797000005eb003e0178000206780041
:103bf000f341800060ff2f00f1ff2f0000804100a3
:103c0000e080480044062000840f5000e08f5800f8
:103c10001e013e0000600100a20037001b013700ba
:103c20001a01370019013700180137001701370052
:103c30001601370015013700140137001301370052
:103c40005a0037006b0037006a0037000f01370059
:103c50000e0137000d0137000c0137000b01370052
:103c60000a013700090137009f00370007013700bc
:103c70000601370005013700040137000301370052
:103c8000020137000101370000013700ff00370053
:103c9000fe003700fd003700fc003700fb00370056
:103ca000fa003700f9003700f8003700f700370056
:103cb000f6003700f5003700f4003700f300370056
:103cc000f2003700f1003700f000370086003700bf
:103cd000ee003700ed003700ec003700eb00370056
:103ce000ea003700e9003700e8003700e700370056
:103cf000e6003700e5003700e4003700e300370056
:103d0000e2003700e1003700e0003700df00370055
:103d1000de003700dd003700dc003700db00370055
:103d2000da003700d9003700d8003700d700370055
:103d3000d6003700d5003700d4003700d300370055
:103d4000d2003700d1003700d0003700cf00370055
:103d5000ce003700cd003700cc003700cb00370055
:103d6000ca003700b8003700a5003700c700370089
:103d7000c6003700c5003700c40037008e0037008a
:103d8000c2003700c1003700c0003700bf00370055
:103d9000be003700bd003700bc003700bb00370055
:103da000ba003700b9003700710037000200e000a8
:103db00002003200e20f510003003a00e0468000aa
:103dc0009004780002003700e046800090049000e4
:103dd0000201e900e10f510003003e00f0468000bf
:103de00090057800a9003700f0468000900590000b
:103df000a60037000208a30003003200e04680005e
:103e00009004780002003700e046800090049000a3
:103e10000c18a30003003200e046800090057800f3
:103e200002003700e046800090059000f68f5100b8
:103e300096003a002240800033408000823eb0006d
:103e40000380b000e58f200095007800803e2000c0
:103e50000088b90002024000838248006440880064
:103e60007540880050002000c0af9f0080002000f7
:103e7000d0af9f00c0002000e0af9f0040012000b5
:103e8000f0af9f006c0066000000d10085fd2f00a0
:103e90008f82420065007800c58f2000800a78007c
:103ea0007a0037000200e00003003200e20f510008
:103eb00004003a0011013700e046800090047800c9
:103ec00003003700e04680009004900003003700b4
:103ed000f0468000900590006c003700f0468000ae
:103ee0009005780069003700618f2000910078000c
:103ef00063806000e30f500003003a00c04180007f
:103f0000e90f500016003400048e200014007800e1
:103f1000e20f50000a003a000c00e00002003200fc
:103f2000e20f560003003a00e0468000900478005b
:103f300008003700e046800090049000050037003c
:103f4000e40f50000300340002014100e04680000d
:103f5000e00479003828ef008005eb004b003700c3
:103f60000000e800c04188008005eb0047003700f2
:103f70000200e00002003200e20f510003003a00ac
:103f8000e04680009004780002003700e0468000a0
:103f9000900490000201e900e10f510003003e008f
:103fa000f04680009005780038003700f046800029
:103fb00090059000350037000200e000020032005a
:103fc000e20f510003003a00e046800090047800c0
:103fd00005003700c58d2000150078009004900082
:103fe000908f540003003a00f04680009005900046
:103ff00026003700f0468000900578002300370047
:104000000200e00002003200e20f510003003a001b
:10401000e04680009004780005003700c18d200044
:104020001100780090049000908f540003003a0033
:10403000f04680009005900014003700f0468000a4
:1040400090057800110037000200e0000200320005
:10405000e20f510003003a00e0468000900478002f
:1040600002003700e0468000900490000201e90061
:10407000e10f510003003e00f046800090057800fb
:1040800002003700f0468000900590008040eb0071
:10409000014078005c090700c8d02b0068c07c0094
:1040a000d808070068c07d00d608070030478000a8
:1040b000e10f500003003200e20f500015003a00fb
:1040c00007003700104780001000780080bf9f0075
:1040d0002047800010007800f0b79f000d003700e7
:1040e00062f707000008a3000400320010478000b8
:1040f0001000780080bf9f00030037001047800049
:104100001000900080bf9f002047800010007800c2
:10411000f0b79f008046800021032000810f5000ef
:104120001700320005003c00e10f50000e00320085
:10413000e20f500036003a0008003700410320002b
:10414000810f50001a00320013003500fc8040003f
:10415000810f50002e003a001d003700208d2000f6
:104160000008eb002a0037000000eb000d08a30058
:10417000010032004fb097009046880024003700bd
:1041800042e6de000c064600c0d32b0060007e0035
:10419000904688001e00370042e6de000c0646000e
:1041a00040d22b0060007e00904688001800370047
:1041b000ef0f560003003400a00220009046880054
:1041c00013003700208d20000008eb00100037009e
:1041d00026f707000008a300070032005fb297002f
:1041e0000000eb008d0f520001003c004fb0970023
:1041f0009046880006003700dfb297000000eb0011
:104200008d8f5200010034004fb097009046880017
:1042100094468000ffb197000fb997008b0078009b
:104220000900780058fd07008d06e8000a05e8003f
:1042300020902000900f1500030034006fb097000d
:104240001808e30068fe3500bfb09700818f560064
:1042500003003d006fb097001808e30056fe3500dc
:104260008000eb00d003200081060700b0488000ea
:104270000000e0000c003a008000eb00d04080001d
:104280004b0a0700f2408000400620000090b90071
:10429000e340800003014100110009000200d80042
:1042a00011002000420a07006fb097001808e300d1
:1042b00006003d00d04180008000e800d141880028
:1042c0008fb09700810f500020fe35008000eb007a
:1042d000e00320006606070028a8ef002fb0970033
:1042e00053f607004f0778004f06be004f05be008b
:1042f0004f04be00cf01b10000000600e046800080
:1043000090047800e20f5100f1fe3200f3fe370016
:10431000889fbe008a1f78002100200091468800f7
:10432000e10f50000d003200810f500014003200e8
:104330000005eb000000e00021003a00a88d2000fd
:1043400059ac2b000a00a2000a4c780089007800c2
:104350001000200082090700faff3700a88d200016
:1043600019c0b300094c7800500020003506070042
:10437000004ceb005000200032060700f9ff370028
:104380000004eb00a98d20001ac0b3008a4c78000d
:10439000300020002b060700804ceb0010012000ad
:1043a000280607008800780020002000300607005b
:1043b0000804e80020032000800f5400f3ff3a00b7
:1043c0004f0578004f04be00000006000200fa000e
:1043d000889fbe008a1f7800b94721004a06200046
:1043e000c3e2a80000000000000000000000000080
:1043f000d4a2a8000000000000000000000000009f
:10440000d4e2a9002003200005060700c3e2a900aa
:10441000000000000000000000000000d4a2a9007d
:10442000000000000000000000000000d4c2a8004e
:10443000000000000000000000000000a04080001c
:10444000c0bf9f004fb897004fbc97000981b900cb
:10445000c398de004f80de00808050007001200095
:104460000306070009c0b900c388de004fc0de00a4
:10447000008050000a80b9008000540080012000b4
:10448000fb050700401f2000e5050700d4c2a90076
:10449000000000000000000000000000d4e2a800be
:1044a000a0408000c0bf9f004fb897004fbc97004e
:1044b0000981b900c398de004f80de008080500083
:1044c00070012000ea05070009c0b900c388de00ba
:1044d0004fc0de00008050000a80b9008000540008
:1044e00080012000e2050700401f2000cc050700e6
:1044f000bbff37001600fa00889fbe008a9fbe00ef
:104500008c1f7800000478000000eb009b06070079
:104510004200dd0060418800a000200097060700ef
:104520004200dd0080408800200020009306070044
:1045300010428800c000200090060700204288003a
:1045400020408000314080008ff60700b0fe2f0031
:10455000f1ff2f004fc1de00000044008100490040
:1045600002052000820f5000e08f580052003e00ec
:10457000006001005400370062003700630037001c
:10458000670037006800370070003700950037007b
:10459000ba003700bb003700be003700bf0037004d
:1045a00045003700c2003700eb0037001301370029
:1045b0003a013700650137008c013700b40137003c
:1045c000d9013700fc0137002102370044023700cf
:1045d0005e0237005f02370095023700ab023700fa
:1045e000cc023700ef0237003300370003033700f7
:1045f0000403370007033700300337007803370020
:104600002d0037002c0037002b0037002a00370020
:1046100029003700a6033700cf0337000204370014
:104620002904370050043700770437009e04370010
:1046300021003700200037001f0037001e00370020
:104640001d0037001c0037001b0037001a00370020
:104650001900370018003700170037001600370020
:104660001500370014003700130037001200370020
:1046700011003700100037000f0037000e00370020
:104680000d0037000c0037000b0037000a00370020
:104690000900370008003700070037000600370020
:1046a0000500370004003700030037000200370020
:1046b00001003700d102370064004400800f54002d
:1046c000a4043500ae04370021ad2b0010002000fb
:1046d000a30807008004780091ad2b002000200083
:1046e0009f0807000004780001ae2b001000200096
:1046f0009b08070000017800880078000900780016
:1047000025f90700d0f907009d04370061ae2b00a2
:10471000100020009208070000428800980437002b
:10472000adfa07009604370010002000b04888005a
:1047300071af2b00200020008908070041062000ef
:104740000180b90064fa07008d04370041b02b00e6
:1047500050b02b0072080700e1b02b0010002000c1
:104760007f080700a10020000000e00001003200e7
:104770002100200081468800b0002000904688007b
:1047800060062000f041880081b12b00100020005d
:1047900073080700b04788002800200008478800f9
:1047a00052f8070091b22b00080078006c0807004f
:1047b000e047880081b32b000800780068080700f4
:1047c000f047880051b42b00080078006408070007
:1047d000000178004101200040012000c1fc0700d9
:1047e0006704370000fe2f000080470001d52b0032
:1047f0000a00090031187800eafd2f000f05450076
:10480000ec85570018002000a9002000080178005e
:10481000890078005a00780005f907008b0f5500d1
:10482000faff3a00480120001a002000491f20002a
:104830008a00780040002000ac0807001042800089
:10484000f70407008000eb0040002000a7080700e5
:1048500010428000890f500002003c00008054008c
:10486000ef0407000804e900f1ff3a0011c0b300ab
:10487000a08d2000014878004104370076f8070039
:104880003f0437008000eb00400620008ef8070050
:104890003b0437006efc07003904370051b52b008c
:1048a000100020002e08070099fe0700340437008e
:1048b00061b62b00e0b62b00190807002900200084
:1048c0008946880030062000f04188001000200052
:1048d000304888000000eb00b04788000947880096
:1048e000504788004000200036f50700000478009b
:1048f000e84688004000200032f50700f0468800b6
:1049000061002000010c7800710020001104980063
:104910005100200001087800c2002000f04680000d
:1049200012009800e1478800a0002000f0478800ae
:10493000400020001048880051b42b000900780086
:104940000708070000017800410120004001200015
:1049500064fc07000a04370031b72b00e0b62b00d7
:10496000ef0707002900200089468800e0062000a4
:10497000f04188000000eb0030488800b047880014
:104980000947880050478800400020000df50700c7
:1049900000047800e84688004000200009f5070080
:1049a000f046880061002000010c780071002000b2
:1049b000110498005100200001087800c200200076
:1049c000f046800012009800e1478800a000200017
:1049d000f0478800400020001048880051b42b00a8
:1049e00009007800de07070000017800410120007f
:1049f000400120003bfc0700e1033700c1b72b005a
:104a000050b82b00c6070700e1b02b0010002000b3
:104a1000d3070700a10020000000e00001003200e1
:104a20002100200081468800b000200090468800c8
:104a300060062000f041880081b12b0010002000aa
:104a4000c7070700b04788004000200000478800e3
:104a5000a08e20000008eb00a4f7070091b22b0005
:104a600020002000be070700e047880081b32b002c
:104a700020002000ba070700f047880051b42b003f
:104a800020002000b6070700000178004101200047
:104a90008002200013fc0700b903370051b92b0036
:104aa000a0b92b009e070700e1b02b0010002000ea
:104ab000ab070700110020000000e00001003200f9
:104ac0002100200081468800b00020009046880028
:104ad000e0012000f041880021ba2b0010002000e6
:104ae0009f07070050478800c1ba2b001000200024
:104af0009b07070030488800608f20000008eb000b
:104b0000280020000847880078f7070091b22b00a2
:104b10000800780092070700e047880081b32b0067
:104b2000080078008e070700f047880051b42b007a
:104b3000080078008a070700000178004101200082
:104b400040012000e7fb07008d03370061bb2b000d
:104b500050bc2b0072070700e1b02b0010002000b2
:104b60007f070700a10020000000e00001003200e4
:104b70002100200081468800b00020009046880077
:104b800000032000f0418800100020003048880019
:104b90000000eb0050478800b0478800600020000c
:104ba000004788001048880050f7070091b22b009a
:104bb000200020006a070700e047880081b32b002f
:104bc0002000200066070700f047880051b42b0042
:104bd000200020006207070000017800410120004a
:104be000c0032000bffb070065033700e1bc2b00ba
:104bf00050b82b004a070700e1b02b00100020003e
:104c000057070700a10020000000e000010032006b
:104c10002100200081468800b000200090468800d6
:104c200060062000f041880081b12b0010002000b8
:104c30004b070700b047880060002000004788004d
:104c400010488800a08e20000008eb0027f707001e
:104c500091b22b002000200041070700e0478800a8
:104c600081b32b00200020003d070700f04788009b
:104c700051b42b0020002000390707000001780004
:104c800041012000c003200096fb07003c033700d1
:104c900061bb2b0050bc2b0021070700e1b02b00ab
:104ca000100020002e070700110020000000e00087
:104cb000010032002100200081468800b000200061
:104cc0009046880000032000f04188000000eb00bf
:104cd00050478800b04788006000200000478800e7
:104ce0001048880001f7070091b22b002000200037
:104cf0001b070700e047880081b32b00200020003d
:104d000017070700f047880051b42b00200020004f
:104d1000130707000001780041012000c0032000b4
:104d200070fb07001603370061bb2b0070bd2b0022
:104d3000fb060700e1b02b00100020000807070069
:104d4000110020000000e0000100320021002000de
:104d500081468800b00020009046880000032000b3
:104d6000f04188000000eb0050478800b047880001
:104d700060002000004788001100200031478800b3
:104d800010488800d9f60700c0002000e0478800de
:104d900050002000f047880051b42b002000200074
:104da000ef0607000001780041012000c003200049
:104db0004cfb0700f202370061bb2b0080be2b00ca
:104dc000d7060700e1b02b0010002000e406070022
:104dd000110020000000e00001003200210020004e
:104de00081468800b0002000904688000003200023
:104df000f041880010002000304888000000eb00df
:104e000050478800b04788006000200000478800b5
:104e1000280020003847880010488800b3f60700b3
:104e2000c0002000e047880050002000f0478800c4
:104e300051b42b0008007800c90607000001780073
:104e400041012000c003200026fb0700cc023700f0
:104e500061bb2b0080be2b00b1060700e1b02b0028
:104e600010002000be060700110020000000e00036
:104e7000010032002100200081468800b00020009f
:104e80009046880000032000f04188000000eb00fd
:104e900050478800b0478800600020000047880025
:104ea0002800200038478800104888008ff6070047
:104eb000c0002000e047880050002000f047880034
:104ec00051b42b0008007800a50607000001780007
:104ed00041012000c003200002fb0700a8023700a8
:104ee00051bf2b00200020009d0607000004780021
:104ef00011c02b00200020009906070080047800d4
:104f000091c02b0020002000950607008005780046
:104f100011c12b0020002000910607000005780039
:104f200088844400890f540095023d000b017800ed
:104f30008a007800080078003df707000804e800c0
:104f4000890f5400f9ff35008d0237005cf6070029
:104f50008b02370061c12b0050bc2b00700607008c
:104f6000e1b02b00100020007d06070030488800cb
:104f7000110020000000e0000100320021002000ac
:104f800081468800b0002000904688000003200081
:104f9000f04188000000eb0050478800b0478800cf
:104fa00071c22b00100020006d060700088e200043
:104fb000000c78004df607001800780088022000e9
:104fc000e40f50000a003200e60f500005003200e6
:104fd00048012000e20f5000050032000004eb0001
:104fe000030037006000200010488800c80320003c
:104ff00091b22b002000200059060700e0478800ee
:1050000081b32b002000200055060700f0478800e0
:1050100051b42b0020002000510607000001780049
:105020004101200008007800aefa07005402370062
:1050300021c32b0050bc2b0039060700f0002000d4
:105040008046880000032000f04188000000eb004b
:1050500050478800b0478800600020000047880063
:105060001048880021f6070080002000e0478800f3
:1050700050002000f0478800e2012000410120009c
:10508000c003200097fa07003d023700d1c32b0070
:1050900060c42b0022060700e1b02b0010002000a6
:1050a0002f060700310020000000e0000100320060
:1050b0002100200081468800b00020009046880032
:1050c000d0052000f04188000000eb00b0478800c8
:1050d000280020000847880038478800504788008b
:1050e00002f60700a0002000e0478800f000200042
:1050f000f047880051b42b0008007800180607001c
:1051000000017800810220004001200075fa0700ac
:105110001b023700d1c32b0060c42b000006070020
:10512000e1b02b00100020000d060700a1002000b8
:105130000000e000010032002100200081468800cc
:10514000b000200090468800e0052000f041880073
:105150008000eb00b1478800280020000847880045
:1051600010002000304788005147880030488800f0
:10517000def50700a0002000e0478800f0002000d6
:10518000f047880051b42b0008007800f4050700b0
:1051900000017800810220004001200051fa070040
:1051a000f701370091ad2b0020002000ec0507002f
:1051b000ef0f5000fd01340070005000e9020700bd
:1051c000b0ff2f0008030700401f200094020700d3
:1051d00030ff2f000403070000a62e0090020700f6
:1051e00070ff2f0000030700800c20008c020700d6
:1051f000f0002000fc020700e101370073fc07000b
:10520000df01370010002000b04888001af50700c1
:10521000db0137006a91200018002000080d78009b
:1052200041b02b0000c52b00bd0507002900200060
:105230008946880070032000f041880091c52b004a
:1052400008007800c605070030488800a1c62b007a
:1052500008007800c20507000048880081b12b00d3
:1052600008007800be050700b0478800094788009d
:10527000584788009df5070091b22b00090078007f
:10528000b7050700e047880081b32b0009007800cc
:10529000b3050700f047880051b42b0009007800df
:1052a000af05070000017800410620004001200002
:1052b0000cfa0700000deb00b101370019002000c7
:1052c000b948880041b02b00a0c72b009405070007
:1052d000280020008846880070032000f0418800e4
:1052e00091c52b00090078009d0507003048880013
:1052f000a1c62b0009007800990507000048880026
:1053000081b12b0009007800950507000006eb002d
:10531000bc4788000a8e2000080d7800ea05450089
:10532000890d780091b22b00080078008c050700e9
:10533000e047880081b32b0008007800880507004b
:10534000f047880051b42b0008007800840507005e
:105350008004780081c82b000800780080050700d1
:10536000000478001a0078000000400095f2070061
:10537000e04688001b0078000000400091f2070022
:10538000404788000c0878000800e0001100340055
:105390007a0020006b0020000a0078000808a300b3
:1053a00001003a000b007800e14680008008780098
:1053b000e146800090009800090178004106200035
:1053c00040002000c7f907000804e9004240a90096
:1053d000f1ff3c00609120000008eb0068013700fd
:1053e00041b02b0080c92b004d050700280020008c
:1053f0008846880070032000f04188006900200082
:1054000019488800384888001000200000488800ab
:105410000005eb00ba47880009478800504788001c
:10542000c000200067f2070080057800eb46880086
:105430000800780063f20700404788000a087800f7
:10544000890d780071002000e0468000110098006e
:1054500001012000e0468000210098001101200099
:10546000e04680003100980021012000e0468000e5
:105470004100980031012000e04680005100980072
:10548000e847880080002000f047880051b42b00d6
:105490000800780032050700000178008101200033
:1054a000800120008ff90700ba48880034013700d6
:1054b00061b62b0050ca2b001905070028002000f8
:1054c00088468800a0002000f041880010002000dd
:1054d000304888000005eb00ba478800084788007c
:1054e0004000200037f2070080047800e946880079
:1054f0004000200033f20700f0468800880c780056
:10550000310020009104980008087800f0468000df
:10551000110098005a47880091b22b0008007800cb
:105520000f050700e047880081b32b0008007800d2
:105530000b050700f047880051b42b0008007800e5
:10554000070507000001780021032000c0002000ab
:1055500064f907000a013700a1ca2b0050ca2b00ca
:10556000ef04070028002000884688004001200042
:10557000f0418800f1ca2b0010002000f804070059
:10558000304888000005eb00ba47880008478800cb
:10559000400020000bf2070080047800e9468800f4
:1055a0004000200007f20700f0468800880c7800d1
:1055b000310020009104980008087800f04680002f
:1055c000110098005a47880091b22b00080078001b
:1055d000e3040700c98f2000800c780081b32b0002
:1055e00008007800de040700f047880051b42b0063
:1055f00008007800da04070032012000990f11003a
:1056000004003400114280000181d100810041007a
:10561000114288000001780021032000c000200012
:1056200030f90700d6003700c1cb2b0090cc2b00ff
:10563000bb0407002b0320008b468800500120008c
:10564000f04188000005eb003a488800ba4788001e
:10565000280020000847880040002000d9f10700fa
:1056600080047800e946880040002000d5f107005a
:10567000f0468800880c78003100200091049800e2
:1056800008087800f0468000110098005a4788000a
:10569000c0002000e047880080012000f04788001b
:1056a000890220001948880051b42b0008007800b6
:1056b000ab040700000178008b0078000900780037
:1056c00008f90700ae003700c1cb2b0020cd2b001e
:1056d000930407002b0320008b4688005001200014
:1056e000f04188000005eb003a488800ba4788007e
:1056f000280020000847880040002000b1f1070082
:1057000080047800e946880040002000adf10700e1
:10571000f0468800880c7800310020009104980041
:1057200008087800f0468000110098005a47880069
:10573000c0002000e047880080012000f04788007a
:10574000890220001948880051b42b000800780015
:1057500083040700000178008b00780009007800be
:10576000e0f8070086003700c1cb2b0090cc2b005f
:105770006b0407002b0320008b468800500120009b
:10578000f04188000005eb003a488800ba478800dd
:1057900028002000084788004000200089f1070009
:1057a00080047800e94688004000200085f1070069
:1057b000f0468800880c78003100200091049800a1
:1057c00008087800f0468000110098005a478800c9
:1057d000c0002000e047880080012000f0478800da
:1057e000890220001948880051b42b000800780075
:1057f0005b040700000178008b0078000900780046
:10580000b8f807005e003700c1cb2b0020cd2b007d
:105810004304070030032000804688005001200028
:10582000f04188000005eb003a488800ba4788003c
:1058300028002000084788004000200061f1070090
:1058400080047800e9468800400020005df10700f0
:10585000f0468800880c7800310020009104980000
:1058600008087800f0468000110098005a47880028
:1058700040012000e047880074004000f0478800a5
:10588000090320001948880051b42b000800780053
:10589000330407000001780021032000090078008c
:1058a00090f8070036003700c1cb2b00e0cd2b006d
:1058b0001b04070040032000804688006001200090
:1058c000f04188000005eb003a488800ba4788009c
:1058d00028002000084788004000200039f1070018
:1058e00080047800e94688004000200035f1070078
:1058f000f0468800880c7800310020009104980060
:1059000008087800f0468000110098005a47880087
:1059100040012000e047880011c12b0008007800fa
:105920000f040700f04788002990200000022000a3
:10593000800c780051b42b000800780008040700a0
:1059400000017800210320001900780065f80700a5
:105950000b003700e405440008057800a80020008b
:105960008900200008017800890078000a0078008a
:10597000aff407000a05e8008b0f5500f9ff3a0065
:10598000e0468000aaf00700f0468000a8f007007b
:1059900040478000a6f007004f0678004f05be0084
:1059a0004f04be000080fa0000000600ed00070072
:1059b000e0ff2f000c010700401f200098000700a7
:1059c000c0ff2f000801070000a62e00940007006a
:1059d000d0ff2f0003fe3700889fbe003c00070069
:1059e0002c01070050000700d30007007d010700cd
:1059f0000c0007002ee8b70032030700c1ce2b00d1
:105a000050cf2b00c603070018d02b002900200020
:105a10008800780009007800d1030700b5fa070074
:105a2000fbff37003bee07005cee07000602ab0011
:105a3000feff3a0085c0a900e0c7b30046ee0700ac
:105a40000802ab00feff3a0001002400220480009f
:105a500002806000fdff320085c0a9000028ef0031
:105a60000228ef0002002800140320000500200097
:105a700041108000010061000500320000408000fc
:105a800011408000840f5000858f5800f8ff3600c9
:105a9000004080001140800012032000820f50005f
:105aa000e08f580005003e003eee07000642ab00c6
:105ab000feff3a00e0c7b3000400370039ee0700ec
:105ac0000642ab00feff3a00e0c4b300000006004f
:105ad000f09f230000168800c422ef00f0c02f00c2
:105ae00030168800f0302000501688000080eb004f
:105af00060168800d022ef0001f020009116880087
:105b000001002300b1168800d822ef00dc22ef004c
:105b1000f0168800e222ef00f0cf2f002017880057
:105b2000e822ef00000006000021ef00803821008d
:105b3000100888008460a9008c60a800000128007b
:105b4000200888000080eb0018ee07000028ef0016
:105b50000228ef000428ef000628ef0000000600ee
:105b60008000eb00024080001340800000024100f2
:105b7000818249000440880015408800224080004e
:105b800033408000000241008182490024408800a7
:105b900035408800224080003340800000202000f3
:105ba000020160008001eb00c71add004911de0030
:105bb00002817200c919de00e1006100ce08dd003b
:105bc000f2ff2b00a3168000030161000281700028
:105bd000a2168800000000000000000022408000a3
:105be00033408000020060008000eb00470add00c7
:105bf0004900de0000007200c908de004f00dd0031
:105c0000f1ff2700a51680008580600081007000ec
:105c1000a11688000000000000000000000006003f
:105c2000cf80de000028ef000228ef000240800055
:105c300013408000820f5000838f5800fbff3e000e
:105c400000000600889fbe000000e0000600320051
:105c500000047800893e200009007800f0ff07006a
:105c60000804e900fcff3a004f04be0000000600f3
:105c7000889fbe000004be0010c0b30016e8b70045
:105c8000d9ed07000004e000fdff3a00f807b2007c
:105c9000d8108800d4ed07000004e000fdff3a00b2
:105ca0000974a0008984fb00d9108800ceed07009c
:105cb0000004e000fdff3a001748e2000b0034004a
:105cc0001a22ef00c8ed07000004e000fdff3a00d3
:105cd00017c8bf000074a0000080fb00d01088002f
:105ce000c1ed07000004e000fdff3a002a48e20091
:105cf0000c003500f0042000d0108800baed070039
:105d00000004e000fdff3a002ac8bf000074a000b4
:105d10000080fb00d0108800b3ed07000004e00015
:105d2000fdff3a001768ef002ae8ef001668ef0061
:105d30004f04be0000000600b0ed070090f12f00f8
:105d4000b4ed070092012000d175270000f02d006e
:105d5000d2ed07008000eb00d0032000c4ff070055
:105d600000000600e1006000e2ff2f00a3168000a3
:105d70000301610002817000a2168800000000008b
:105d800000000000e2006000d2ff2f00a316800098
:105d90000301610002817000a2168800000000006b
:105da00000000000e4006000b2ff2f00a316800096
:105db0000301610002817000a2168800000000004b
:105dc000000000006800600071ff2f00a216800034
:105dd0008280600081007000a11688000000000031
:105de0000000000000000600e1006000cc08dd00bb
:105df000f2ff2e00a31680000301610002817000f3
:105e0000a21688000000000000000000e200600010
:105e10008100d100e1806000cd08dd00f2ff2d009f
:105e2000a31680000301610002817000a2168800a1
:105e30000000000000000000e4006000c208de0076
:105e4000e1806000c808dd00f2ef2f0043168000fb
:105e5000030161000281700042168800000000000a
:105e600000000000680060004300de006100600088
:105e70004900dd00f1df2f004216800082806000c3
:105e80008100700041168800000000000000000042
:105e900000000600f0ff23004015880030fc2f00b2
:105ea000a202b6000020a00010158800f0cf2f003d
:105eb000a222b600a222a900a682a900a342a8009d
:105ec00001002c0051158800a1a2a800a022b60054
:105ed000000e2000a022b700a022a800a042a80027
:105ee000f0ff2100a222b600a202a900f00fb1002b
:105ef000a422b700a4e2a90000fc2f00a402b6006f
:105f0000f001b300201588008560a8008d60a8000e
:105f1000a1e2a80000000600889fbe008a1f78004a
:105f20000105780008002f00f9072000cf80de006f
:105f30000804400089844800220020000800be00b8
:105f40005bed070001002800023b8000028060003a
:105f5000fdff3a000a0178000800be006ded070061
:105f600001002800023b800002806000fdff3a0033
:105f70004f0578004f04be00000006000200fa0042
:105f800002002f00f30720004f82de0002004000d5
:105f900083004a000002eb00230020000f81e9008b
:105fa0006bed07007fb897000080fa000000060044
:105fb00040168000610060000000a200c822ab0013
:105fc00001003a000080e800c842ab0001003a003e
:105fd00064004000c862ab0001003a006800400065
:105fe000000006008104200000222c00e8ec0700dd
:105ff00000000600889fbe008a9fbe000045780012
:10600000814578003008e2003b003a0028408000db
:1060100039408000880cb0000980b000bdec07005a
:10602000deec07000602ab000500320020408000d5
:1060300031408000800f5400818f5c00f9ff3e00ea
:1060400085c0a9000a407800c3ec07000802ab0035
:10605000050032002040800031408000800f540055
:10606000818f5c00f9ff3e000200240021048000c3
:106070000100610005003a002040800031408000ae
:10608000800f5400818f5c00f8ff3e0085c0a9009e
:10609000020028004110800001006100050032006c
:1060a0002040800031408000800f5400818f5c00d0
:1060b000f8ff3e000b407800a7ec0700b9ec0700a2
:1060c0000642ab00050032002040800031408000d5
:1060d000800f5400818f5c00f9ff3e00204080005b
:1060e00031408000800f5400818f5c0002003e0030
:1060f00010002000804188004f05be004f04be0004
:106100000000060022832000924070002ec8bf00cd
:10611000b8ff070000000600881f780000447800e0
:106120007cec07009dec07000602ab00feff3a0086
:1061300085c0a900084078000004a00086ec070094
:106140000802ab00feff3a00010024002204800098
:1061500002806000fdff320085c0a9000100280018
:106160004210800002806000fdff3a0074ec0700de
:10617000004478008bec07000642ab00feff3a00bb
:10618000084078004f047800000006002ec8bf00c9
:10619000e1ff0700000006003268a900fbff0700ce
:1061a000d8ff0700000006003268a800f7ff0700cc
:1061b000d4ff0700000006000000e0000a003200e3
:1061c0008000eb0000000000000000000000000064
:1061d0000000000000000000000000008100e80056
:1061e000810f5000f7ff3e0000000600881f780076
:1061f00000447800084078000024a100c1ff070097
:1062000010002000ecff0700084078000024a000e8
:10621000bcff070020032000e7ff07004f047800c1
:1062200000000600881f78000044780008407800cd
:106230000024a000b3ff070010002000deff0700cd
:10624000084078000024a100aeff070020032000d2
:10625000d9ff07004f04780000000600889fbe00a9
:10626000004478000814a00008407800dfff070011
:10627000c6ff07008044780008407800e9ff070067
:10628000094078004f04be0000000600889fbe0051
:106290008a9fbe00004478000acfb3000a40740011
:1062a00098ff070049cfb300894474000940780083
:1062b000eaff07008045780009407800e7ff070003
:1062c00080447800084078000024a0008dff07007b
:1062d0008984fb00c44cde000ac5650009407500d6
:1062e0004f05be004f04be000000060010c0b30002
:1062f000e6ff0700000006000040eb00e3ff070098
:1063000000000600fcff07000074a100000006006a
:10631000f9ff070001c8b30001406000000006005b
:10632000881f7800004478000814a1000840780015
:1063300074ff070008407800baff07004f04780098
:1063400000000600889fbe008a1f78000144780084
:106350004a0020000a05dd0009cfb30009406000b3
