:020000040000fa
:080000000007040000000000ed
:020000040000fa
:04000800b808000034
:020000040000fa
:04000c00b808000030
:020000040000fa
:04001000b80800002c
:020000040000fa
:04001400b808000028
:020000040000fa
:04001800b808000024
:020000040000fa
:04001c00b808000020
:020000040000fa
:04002000b80800001c
:020000040000fa
:04002400b808000018
:020000040000fa
:04002800b808000014
:020000040000fa
:04002c00b808000010
:020000040000fa
:04003000b80800000c
:020000040000fa
:04003400c8070000f9
:020000040000fa
:04003800b808000004
:020000040000fa
:04003c00b808000000
:020000040000fa
:04004000b8080000fc
:020000040000fa
:04004400b8080000f8
:020000040000fa
:04004800b8080000f4
:020000040000fa
:04004c00b8080000f0
:020000040000fa
:04005000b8080000ec
:020000040000fa
:040054006a08000036
:020000040000fa
:04005800b8080000e4
:020000040000fa
:04005c00b8080000e0
:020000040000fa
:04006000b8080000dc
:020000040000fa
:04006400b8080000d8
:020000040000fa
:04006800b8080000d4
:020000040000fa
:04006c00b8080000d0
:020000040000fa
:04007000b8080000cc
:020000040000fa
:04007400b8080000c8
:020000040000fa
:04007800b8080000c4
:020000040000fa
:04007c00b8080000c0
:020000040000fa
:04008000b8080000bc
:020000040000fa
:04008400b8080000b8
:020000040000fa
:040088007a080000f2
:020000040000fa
:04008c00b8080000b0
:020000040000fa
:04009000b8080000ac
:020000040000fa
:04009400b8080000a8
:020000040000fa
:04009800b8080000a4
:020000040000fa
:04009c00b8080000a0
:020000040000fa
:0400a000b80800009c
:020000040000fa
:0400a400b808000098
:020000040000fa
:0400a800b808000094
:020000040000fa
:0400ac00b808000090
:020000040000fa
:0400b000b80800008c
:020000040000fa
:0400b400b808000088
:020000040000fa
:0400b800b808000084
:020000040000fa
:0400bc00b808000080
:020000040000fa
:0400c000b80800007c
:020000040000fa
:0400c400b808000078
:020000040000fa
:0400c800b808000074
:020000040000fa
:0400cc00b808000070
:020000040000fa
:0400d000b80800006c
:020000040000fa
:0400d400b808000068
:020000040000fa
:0400d800b808000064
:020000040000fa
:04010800b808000033
:020000040000fa
:04010c00b80800002f
:020000040000fa
:04011000b80800002b
:020000040000fa
:04011400b808000027
:020000040000fa
:04011800b808000023
:020000040000fa
:04011c00b80800001f
:020000040000fa
:04012000b80800001b
:020000040000fa
:04012400b808000017
:020000040000fa
:04012800b808000013
:020000040000fa
:04012c00b80800000f
:020000040000fa
:04013000b80800000b
:020000040000fa
:04013400b808000007
:020000040000fa
:04013800b808000003
:020000040000fa
:04013c00b8080000ff
:020000040000fa
:04014000b8080000fb
:020000040000fa
:04014400b8080000f7
:020000040000fa
:04014800b8080000f3
:020000040000fa
:04014c00b8080000ef
:020000040000fa
:04015000b8080000eb
:020000040000fa
:04015400b8080000e7
:020000040000fa
:04015800b8080000e3
:020000040000fa
:04015c00b8080000df
:020000040000fa
:04016000b8080000db
:020000040000fa
:04016400b8080000d7
:020000040000fa
:04016800b8080000d3
:020000040000fa
:04016c00b8080000cf
:020000040000fa
:04017000b8080000cb
:020000040000fa
:04017400b8080000c7
:020000040000fa
:04017800b8080000c3
:020000040000fa
:04017c00b8080000bf
:020000040000fa
:04018000b8080000bb
:020000040000fa
:04018400b8080000b7
:020000040000fa
:04018800b8080000b3
:020000040000fa
:04018c00b8080000af
:020000040000fa
:04019000b8080000ab
:020000040000fa
:04019400b8080000a7
:020000040000fa
:04019800b8080000a3
:020000040000fa
:04019c00b80800009f
:020000040000fa
:0401a000b80800009b
:020000040000fa
:0401a400b808000097
:020000040000fa
:0401a800b808000093
:020000040000fa
:0401ac00b80800008f
:020000040000fa
:0401b000b80800008b
:020000040000fa
:0401b400b808000087
:020000040000fa
:0401b800b808000083
:020000040000fa
:0401bc00b80800007f
:020000040000fa
:0401c000b80800007b
:020000040000fa
:0401c400b808000077
:020000040000fa
:0401c800b808000073
:020000040000fa
:0401cc00b80800006f
:020000040000fa
:0401d000b80800006b
:020000040000fa
:0401d400b808000067
:020000040000fa
:0401d800b808000063
:020000040000fa
:100e0000cfb020000e7f22000e01880000000000fd
:100e1000000020000000e00002003200000120007d
:100e200020028800140007005a0107000000e000bb
:100e300003003a00609d23000100200002003700fb
:100e40000000200001002000810f7000010032002e
:100e500014000700000020000000e0000200320043
:100e60000000020000000000400c02000000000032
:100e70000040da000000fe004440a900e01f20000e
:100e80000000e0000300320000002000a001880004
:100e90004440a800000006008a1f78008b1f7800dd
:100ea0000000060091018800800478000000eb003b
:100eb0001a003700e284440032a0b4009905ba0059
:100ec000e284440032a0b4009906ba00e2844400ef
:100ed00032a0b4000006eb00476fde00fd07b20051
:100ee000636ce10003003a00ebff07000000eb0039
:100ef0000a003700606ce10004003a00005deb007e
:100f00008b05e900fdff3e00040037006168e10049
:100f1000010032000086eb000b00070019c7ba0081
:100f20001905ba000e04e00003003a000a00e000d0
:100f3000e0ff3a0000000600fe07b2009e018800b4
:100f40008a047800f5ff3700395dba008b05e900a7
:100f50000c003200295dba008b05e9000800320060
:100f60000c00e00003003a00e284440032a0b40028
:100f7000f5ff370019ddba008b05e900faff3a00ea
:100f80008904e800e184440032a0b40000000600b7
:100f90003600f800809fbe00829fbe00849fbe0086
:100fa000869fbe000000fa00500020006d0f070071
:100fb000304680000000e00002003200db22a80082
:100fc00001003700db22a900614080005041800011
:100fd000808f50000d003400904780000000e0003a
:100fe0000a003a00b40f07000000e00007003200da
:100ff0002040800031408000b0478800c147880011
:1010000020002000904788002a00370061408000bf
:1010100050418000808f50001e00340090478000b7
:10102000e20f50001b003a00b0478000c14780002b
:1010300065014000e0814800204080003140800090
:10104000800f5100818f59001a00310010002000dc
:10105000a0478800e04780000000e800e0478800e3
:101060008000200090478800704080000000e00071
:101070000300320010002000804088000d0037007f
:10108000210020000000eb00cd0f07001028ef002a
:10109000080037006140800050418000808f500080
:1010a00004003c000000eb00904788000000eb00cb
:1010b000a04788008460a9000080fa004f03be00aa
:1010c0004f02be004f01be004f00be003600f900c7
:1010d00000400600801f78000000fa000014800025
:1010e000604088008560a9000080fa004f00780009
:1010f000004006003600f800809fbe00829fbe00c0
:10110000849fbe00869fbe000000fa00c0108000d1
:10111000620060000000e000010032001822a90017
:10112000e01080004041880041418000a002200082
:10113000808f500006003a008000eb00d0032000b2
:101140009f0f0700200320006b0f07000000fe0028
:101150008700a9000080fa004f03be004f02be00c6
:101160004f01be004f00be003600f90000400600ef
:101170000040da000000fe00889fbe008004780076
:10118000504880000000e00004003a000e00070014
:101190000084eb000000e0000800350058488000a3
:1011a0000900e000050032000900440006000700c5
:1011b0000000e00001003d000084eb000800780022
:1011c0004f04be0000000600800078000100e0002f
:1011d00003003a00c090200050488800000005003d
:1011e0000080eb00c2b02000828f500002003e0061
:1011f000514888000000eb00000006000602ab002a
:10120000feff3a000642ab00fcff3a000662ab006c
:10121000faff3a000682ab00f8ff3a0009c2ab00c1
:10122000f6ff3a00000006000662a8000662ab0066
:10123000feff3a0008c2a90000108000000006006e
:101240008040780000c0eb008180fb001110880016
:1012500008e2ab0007003a0009c2ab00feff3a000b
:10126000e6ff07000040eb000802e20001003d003d
:10127000e0cfb30000000600211088003010880085
:10128000000006000602a800000006000642a800b2
:10129000000006008460a900e7006000f2ff28005b
:1012a000cc08dd00a3048000030161006800600039
:1012b0000281700071ff2f00a20488006204800088
:1012c00082806000810070006104880000000600d8
:1012d000001020001802b6000000e9004f00de00f8
:1012e0000000060017e2a9008f00a9008f20a900c6
:1012f0008700a9008720a900000006008700a90038
:10130000e70060008720a9000001780083ff2f001c
:101310000207b200040580008481610083817000af
:10132000e800600003058800c308de00f3f82f0022
:10133000e18060000405800084816100c808dd0050
:10134000830171000008b20003058800f2ef2f004e
:101350004700de007304800003016100610060004b
:10136000028170004900dd0072048800f1df2f0067
:101370007404800084806000810070007104880023
:1013800000000600f2108800b0108800c11088002c
:1013900000000600000005003200f80091018800fe
:1013a0000008bb00410424006210e1000400320088
:1013b000000220000010e1000a003a00510424005d
:1013c000013b88000500fc0051052000313b8800ee
:1013d000a10a2000313b880061e7a800000000005e
:1013e000000000003200f900000006003200f800a2
:1013f00060042400003b8800f2ff37003200f80050
:101400009101880041002400013b88000208bb00d4
:10141000ecff37003200f8009101880051002400f1
:10142000013b8800030120003218bb008301e90062
:10143000fdff3a00e3ff37003200f8009101880019
:1014400080027800620040003549ba00e080480020
:101450003204e0000410a700100032008301e9000c
:101460000e0032002549ba003204e0000410a70043
:101470000a0032008301e900080032000408a300da
:10148000eeff320015c9ba003204e0000410a700d4
:10149000020032008301e900e8ff3a003200f9005f
:1014a000000006000000e0002f003200c0017800bc
:1014b000e38f51002c0036000308a3002a003a00f5
:1014c000114880000100e00002003200810f50004e
:1014d0000400310011009800104888001600370001
:1014e00082007800110190000200e000020032004a
:1014f000800f5100faff3900110278008482400009
:10150000850f500018003900808f520003003a0008
:101510008308420001007800070037000200e00065
:101520000300320083014000830f51000e00390098
:101530001200980090009800900090000100e000d8
:101540000900320010014000828f500006003a006e
:10155000029020000009eb00100178001108410002
:10156000910090001100980000000600889fbe00c6
:1015700000047800014880000100e0000200320011
:10158000010078000d0037001148800020902000f5
:1015900004003700910f5400250036000180e80058
:1015a000910090000100e000faff3a0010003700bf
:1015b000920f54001e0036000280e80010017800ef
:1015c0000200e000faff3a001101780011488000a3
:1015d0002090200004003700910f540014003600c2
:1015e0000180e80091009000828f5000faff3a00dd
:1015f00049488000888f5400010031008804780039
:10160000090078008e0007000000e00004003a00a6
:10161000888f5400050032008904d100f5ff37009f
:10162000091878009fff0700d2ff37000000eb0089
:101630004f04be0000000600881f780063044000cd
:101640000800a1008000eb00800f5400210036004c
:10165000e30f540001003e0048002000080078001d
:10166000c2ff07008000eb000000e000190032001c
:10167000900078009101780064815100880f51003a
:1016800003003100110190000208780007003700c4
:101690000881400002087800910190001301980031
:1016a00010017800110914008808780010017800f2
:1016b0000000eb000200e000040032009201900004
:1016c0000300e000010032000280e80000488800ca
:1016d0008180e800010078004f04780000000600d7
:1016e000889fbe00a04180000000e00001003200a1
:1016f00000000100b04180000000e0000100320065
:1017000000000100208320001004e00022003a00c5
:10171000204880003148800088002000d2602600e8
:101720009301200050000700f2352f00e3c623008c
:1017300000004100818049000804e900f7ff3a00f9
:10174000888320000908200088844400d260260095
:101750009301200044000700f2352f00e3c6230068
:10176000000041008180490000acbe00890f540098
:10177000f6ff3a002048880031488800c0458000c4
:10178000d1458000c0418800d141880011c0b3001c
:101790002083200001487800d260260093012000b9
:1017a00020488000314880002f000700f2352f00cc
:1017b000e3c62300000241008182490024488800da
:1017c0003548880080832000100078007f01600089
:1017d0004211dd00c0832000020140001200be0063
:1017e000c0418800d14188000489be000100780012
:1017f00000f0a1004f04be0000000600889fbe005c
:1018000000047800a04180000000e00001003200e8
:1018100000000100208320000048eb00b041800060
:101820000000e00001003200000001008004eb0035
:1018300028488800394888004f04be000000060090
:10184000800078000000eb000100e000050034009b
:101850000100780048fe0700e10f400001003a0057
:101860000000eb0000000600020ab900001bb900ee
:101870000200b80081004200810043000000060021
:101880000000fa000e0d0700260d0700b90d070035
:10189000da0e0700360f0700760e0700017f2b00d7
:1018a000907f2b00d711070051802b0020002000d3
:1018b000e4110700b9000700fbff37000200fa003f
:1018c000000f78001e007800e30f50000c0032007b
:1018d0001e007800e40f5000090032001e0078005e
:1018e000e70f5000060032001e007800e60f50009f
:1018f000030032001e007800ea0f500002003a0098
:1019000010002000010037000000eb000080fa000a
:10191000000006000800fa00200798003107980030
:10192000ae00900000fc200000806000c680de0059
:101930003e009000e10f500002003a000004200039
:10194000010037000000eb00008f40009e0078008f
:10195000b00120009a0d0700ae009000f0032000b7
:10196000808060003e009000e10f500002003a00cd
:1019700000042000010037000000eb000080400060
:10198000100798009e009000c00120008c0d0700f9
:101990000080fa00000006000400fa007046800093
:1019a0000000e0002300340070468000000040008a
:1019b00021ff07005046880070468000000040006c
:1019c0001dff0700604688000000eb00000f780054
:1019d0001500370001812b0020002000991107001d
:1019e00010079800514680001e007800000040005b
:1019f000008040009e00900001087800e1812b00eb
:101a0000200020008f110700100798006146800019
:101a10001e00780000004000008040009e00900002
:101a2000010878001e0fe800704680009e0f5000ed
:101a3000e8ff3c00a04680000000e00023003400e6
:101a4000a046800000004000fbfe070080468800a2
:101a5000a046800000004000f7fe07009046880086
:101a60000000eb00000f780015003700a1822b006a
:101a700020002000731107001007980081468000a5
:101a80001e00780000004000008040009e00900092
:101a90000108780091832b002000200069110700c5
:101aa00010079800914680001e007800000040005a
:101ab000008040009e009000010878001e0fe800a2
:101ac000a04680009e0f5000e8ff3c00c04680000a
:101ad0000000e00015003400c04680000000400017
:101ae000d5fe0700b04688000000eb00000f78002c
:101af0000b00370061842b002000200051110700eb
:101b000010079800b14680001e00780000004000d9
:101b1000008040009e009000010878001e0fe80041
:101b2000c04680009e0f5000f2ff3c000080fa008b
:101b3000000006000000fa0010002000d31107008a
:101b40000080fa00000006000200fa000000eb002e
:101b5000000f78000b00370010002000cb110700a9
:101b600080418000e40c07000000eb00c711070073
:101b700080418000411f200000805000de0c0700e3
:101b80001e0fe800300620009e007800808f500075
:101b9000f1ff34000080fa00000006004800fa005f
:101ba000302798000000eb00050e07004200dd0022
:101bb0005041880020002000010e0700804188006d
:101bc0002040800031408000000078000bff0700bb
:101bd0003e2090006101b900b0fe2f00f1ff2f0000
:101be00002004000838048003201200003002000f2
:101bf000820f5000838f58000e023e0000600100eb
:101c0000130037002200370023003700240037007c
:101c100025003700260037005600370069003700de
:101c20006a0037006b0037006c0037006d0037002a
:101c300085003700b5003700e7003700190137008d
:101c400037013700690137009d013700cf013700a8
:101c500061852b0010002000fa1007002007980073
:101c6000d1852b0020002000f610070030079800d7
:101c700041862b0010002000f2100700400798005a
:101c80004e019000be0090002e009000ff01070062
:101c9000e3020700f7013700fe020700f5013700f5
:101ca000a9030700f3013700804180006f0307009c
:101cb000a1862b00b0862b00d210070041872b0095
:101cc00010002000df100700500798005e00900011
:101cd0000000e00002003200200020000100370078
:101ce000a0002000e0458800b0002000f0458800fa
:101cf0006006200060418800e1872b001000200072
:101d0000d01007002047880020002000704688007f
:101d100021ff0700f1882b0020002000c9100700d8
:101d200050478800e1892b0020002000c5100700e3
:101d300060478800b18a2b0010002000c110070006
:101d4000814180000180b900000078008041880056
:101d5000718b2b0020002000ba100700600798004c
:101d60006e0190004101200040012000f6070700ad
:101d7000c0013700e102200081004700a29b2b0038
:101d80000b000900b21878000000eb00000f78008b
:101d9000080037001e0078000000400000004700e7
:101da0007010900012002000a1002000d801070050
:101db0001e0fe8001e007800eb0f5000f5ff360004
:101dc000ac0137005bff0700aa0137005eff070088
:101dd000a8013700ca070700a6013700930b0700c8
:101de000a4013700718c2b00b0862b0085100700f2
:101df00040062000e0458800400620006041880041
:101e00000000eb002047880020002000704688007a
:101e1000e1fe0700500020005047880080002000ad
:101e200060478800e18c2b0020002000851007000f
:101e3000700798007e0190004106200040012000bc
:101e4000c10707008b013700a1862b00e08d2b0016
:101e50006c10070041872b0010002000791007004c
:101e6000000f98000e0890000000e0000200320011
:101e7000200020000100370030002000e0458800ed
:101e80003006200060418800e1872b001000200010
:101e90006c10070020478800200020007046880052
:101ea0000000eb00c0468800bbfe0700f1882b0055
:101eb000200020006310070050478800e1892b00b4
:101ec000200020005f10070060478800b18a2b00c7
:101ed000100020005b100700814180000180b900e4
:101ee0000000780080418800718b2b0020002000ca
:101ef00054100700100f98001e09900041012000a7
:101f000040012000900707005a013700a1862b00ee
:101f1000e08d2b003b10070041872b0010002000b4
:101f200048100700200f98002e0890000000e000e5
:101f3000020032002000200001003700a000200035
:101f4000e0458800b0002000f0458800e006200051
:101f500060418800e1872b00100020003910070045
:101f60002047880020002000704688000000eb0019
:101f7000c046880088fe0700f1882b002000200062
:101f80003010070050478800e1892b002000200016
:101f90002c10070060478800b18a2b001000200039
:101fa00028100700814180000180b90000007800fe
:101fb00080418800718b2b00200020002110070039
:101fc000300f98003e0990004101200040012000a0
:101fd0005d07070027013700318e2b00c08e2b00d4
:101fe0000810070041872b00100020001510070083
:101ff000400f98004e0890000000e0000200320000
:102000002000200001003700a0002000e0458800eb
:10201000b0002000f0458800600620006041880084
:10202000e1872b00100020000610070020478800e1
:1020300040002000704688000000eb00c046880089
:1020400055fe0700f1882b0020002000fd0f07003f
:1020500050478800e1892b0020002000f90f07007d
:1020600060478800b18a2b0010002000f50f0700a0
:10207000814180000180b900000078008041880023
:10208000718b2b0020002000ee0f0700500f9800ee
:102090005e09900041012000800220002a0707000d
:1020a000f4003700c18f2b0010902b00d50f0700d4
:1020b00020002000e04588000000eb00f04588008b
:1020c000e00120006041880091902b00100020006a
:1020d000dc0f0700c04688000000eb0020478800a6
:1020e00020002000704688002bfe07000000eb0057
:1020f000504788004000200060478800718b2b000b
:1021000020002000cf0f0700600f98006e0990009c
:1021100041012000400120000b070700d5003700d7
:1021200031912b0020922b00b60f070041872b0026
:1021300010002000c30f0700700f98007e08900069
:102140000000e00002003200200020000100370003
:10215000a0002000e0458800b0002000f045880085
:1021600010032000604188000000eb00c04688009a
:102170000000eb00204788006000200070468800c7
:10218000600020008047880003fe0700f1882b00d4
:1021900020002000ab0f070050478800e1892b008a
:1021a00020002000a70f070060478800b18a2b009d
:1021b00010002000a30f0700814180000180b900ba
:1021c0000000780080418800718b2b0020002000e7
:1021d0009c0f0700001798000e119000410120008d
:1021e000c0032000d8060700a2003700b1922b00e0
:1021f000c08e2b00830f070041872b0010002000aa
:10220000900f0700101798001e1090000000e000cb
:10221000020032002000200001003700a000200052
:10222000e0458800b0002000f045880060062000ee
:1022300060418800e1872b0010002000810f07001b
:102240002047880060002000704688006000200061
:10225000804788000000eb00c0468800cefd0700e4
:10226000f1882b0020002000760f070050478800df
:10227000e1892b0020002000720f070060478800d2
:10228000b18a2b00100020006e0f070081418000f2
:102290000180b9000000780080418800718b2b001c
:1022a00020002000670f0700201798002e119000d3
:1022b00041012000c0032000a30607006d00370085
:1022c00031912b0020922b004e0f070041872b00ed
:1022d000100020005b0f0700301798003e109000a0
:1022e0000000e00002003200200020000100370062
:1022f00010002000e0458800b0002000f045880074
:1023000000032000604188000000eb00c046880008
:102310000000eb0020478800600020007046880025
:1023200060002000804788009bfd0700f1882b009b
:1023300020002000430f070050478800e1892b0050
:10234000200020003f0f070060478800b18a2b0063
:10235000100020003b0f0700814180000180b90080
:102360000000780080418800718b2b002000200045
:10237000340f0700401798004e11900041012000d3
:10238000c0032000700607003a00370031912b008f
:1023900040932b001b0f070041872b0010002000eb
:1023a000280f0700501798005e1090000000e00012
:1023b0000200320020002000010037001000200041
:1023c000e0458800b0002000f045880000032000b0
:1023d000604188000000eb00c04688000000eb0070
:1023e0002047880060002000704688001000200010
:1023f000a0468800600020008047880066fd070036
:10240000c00020005047880050002000604788002e
:10241000718b2b00200020000a0f07006017980026
:102420006e11900041012000c00320004606070005
:1024300010003700be2090001107980007003700f9
:10244000a2002000810020001e0090003000070044
:102450001e0090000000e800100798003e20900049
:10246000e40040001e009000808f5000f4ff3c000c
:1024700000000000504680000afc07006046800013
:1024800008fc07000080fa00000006000600fa00c1
:10249000000f780011079800220798009a0c070097
:1024a000a30c070050942b00710c07000001eb00f7
:1024b000610020001e007800390e07001200200085
:1024c000610020001e009000350e07001e009000e5
:1024d0000000e900e80a07000100370000000000e2
:1024e0001e80ea00230b07002e0090000000e00091
:1024f000faff3a00401f20007f0a0700f00020008a
:102500001c0b0700401f20007b0a0700f4ff370068
:102510001400fa0070079800010f9800120f98003d
:10252000401f200010079800803e200020079800e0
:10253000300c2000300798000000eb00000f7800fe
:10254000b1003700700c0700790c070030952b00a4
:10255000470c070011c0b3000040eb007e0c0700e1
:1025600090952b00420c07001e00e800120020008e
:10257000710020000a0e07000001eb00610020003e
:102580007e009000060e07007e009000ef0f5000c6
:10259000030034007e0090007000500001003700fe
:1025a0007e009000400798007e009000ef0f5000e2
:1025b00002003c0010002000010037004000200015
:1025c000500798007e009000ef0f500002003c0082
:1025d00020002000010037008000200060079800e4
:1025e000fe00900030002000750a07004e009000a9
:1025f000a10a07005e0090000080ea00dd0a0700e3
:102600001e0090003c0a0700e702a800de009000d0
:102610006e009000010070000080ea00d50a0700fb
:102620007e009000700060004480de000040780072
:10263000614060000080fb00610060004900dd0037
:1026400032178000f1df2f0081006100010070006f
:10265000301788002e019000706626000090b900a7
:102660008180d1004f90de0000805000220a0700d8
:102670007e009000680060004380de00004078002b
:10268000614060000080fb00610060004900dd00e7
:1026900032178000f1df2f0081006100010070001f
:1026a000301788002e019000706626000090b90057
:1026b0008180d1004f90de00008050000e0a07009c
:1026c0007e009000640060004280de0000407800e0
:1026d000614060000080fb00610060004900dd0097
:1026e00032178000f1df2f008100610001007000cf
:1026f000301788002e019000706626000090b90007
:102700008180d1004f90de0000805000fa09070060
:102710007e009000620060000080d10000407800e0
:10272000614060000080fb00610060004900dd0046
:1027300032178000f1df2f0081006100010070007e
:10274000301788002e019000706626000090b900b6
:102750008180d1004f90de0000805000e609070024
:102760007e009000004078006140600061406000a1
:10277000614060000080fb00610060004900dd00f6
:1027800032178000f1df2f0081006100010070002e
:10279000301788002e019000706626000090b90066
:1027a0008180d1004f90de00808050003e0090007c
:1027b00000805000d00907006e0090000080ea0001
:1027c0006c0a07003e009000cb090700e722a90031
:1027d000f0002000670a07008000eb0030002000b6
:1027e000f7090700e702a9008e089000803e20004c
:1027f0000088b900800078001e0090000080500022
:10280000bd0907001e0fe8001e0890009e0078001a
:10281000808f50004bff35000080fa00000006005a
:102820000600fa0060408000200798002e0190000a
:10283000b04721000090b900c388de004f90de0051
:10284000008f50002e009000b14721000181b90097
:102850004399de00cf80de000101510041062000d7
:102860000191b90082007800010050001007980023
:102870009e00780070012000d10907009e009000a2
:1028800080012000ce090700200320009a090700dc
:10289000e4ff37000200fa00f0f32f00f016880082
:1028a0000000eb00000f78001e00a2001e00780060
:1028b00000407800614060000080fb006100600023
:1028c0004600dd0002178000f1fb2f00810061004f
:1028d00001007000001788000000000000000000e8
:1028e000000000001e007800004078006140600099
:1028f0000080fb00610060004800dd00421680009f
:10290000f1ef2f0081006100010070004016880087
:102910000000000000000000000000001e00780021
:1029200000407800614060000080fb0061006000b2
:102930004900dd0042168000f1df2f0081006100b8
:102940000100700040168800000000000000000038
:10295000000000001e007800004078006140600028
:102960000080fb00610060004700dd00021780006e
:10297000f1f72f008100610001007000001788004e
:102980000000000000000000000000001e007800b1
:1029900000407800614060000080fb006100600042
:1029a0004600dd0002178000f1fb2f00810061006e
:1029b0000100700000178800000000000000000007
:1029c000000000001e0078000040780061406000b8
:1029d0000080fb00610060004e00dd0012168000e8
:1029e000f1ff2b00810061000100700010168800cb
:1029f0000000000000000000000000001e00780041
:102a000000407800614060000080fb0061006000d1
:102a10004c00dd00a2168000f1ff2e008100610055
:102a200001007000a01688000000000000000000f7
:102a3000000000001e007800004078006140600047
:102a40000080fb00610060004d00dd00a2168000e8
:102a5000f1ff2d008100610001007000a0168800c8
:102a6000a00f2000240907008fff37000400fa00a0
:102a70000000eb00e047880050418000120e070084
:102a80000000eb00000f78000000eb00100798003a
:102a90001d0b0700260b070000962b00f40a070009
:102aa000803e200001002000004088001140880086
:102ab0000100370000000000e14780001e00900088
:102ac000808f5000160036000240800013408000c6
:102ad000301f200001002000800f5100818f59001d
:102ae0000900360010002000e80d07000028ef0064
:102af0000228ef001e0fe8001e00780012002000e0
:102b0000c1002000a60c0700e147800011079800d3
:102b10001e0090000001eb00b1002000a00c070097
:102b2000804180006101b9000040800011408000b8
:102b3000800f5100818f5900deff3e000000eb0046
:102b4000d20d0700dcff37000c00fa0022408000a5
:102b500033408000220798003307980017003700a1
:102b60000000eb00000f78000000eb001007980059
:102b700005003700604080001e0f40001e009000de
:102b80000000e800100798001e009000ee0f5000b3
:102b9000f8ff34009e007800f000200080017800eb
:102ba000110009008300d800400798004e009000f3
:102bb000c50d0700401f2000cf0807002e01900020
:102bc000be019000007122000100200002014000bf
:102bd000838148002040800031408000800f5100f8
:102be000818f5900deff3e0050418000b60d070086
:102bf000b1962b0030002000120d070050079800fe
:102c00005e009000b00d07005e0090004280de0084
:102c1000800078000000eb00ca0907008000eb008c
:102c2000d0032000e60807000000fe000080fa0044
:102c3000000006000800fa0010079800210798001d
:102c4000320798001e009000e10f5000060032008d
:102c50001e009000e20f5000030032001e009000a2
:102c6000e60f500011003a002e009000ef0f5000c8
:102c7000030034002e009000700050000100370067
:102c80002e009000fc0807002e009000ef0f50006f
:102c900002003c00e0ff2f0001003700b0ff2f00d2
:102ca00034090700401f2000e80d07001e009000b7
:102cb000e30f500013003a00ae00900030002000f7
:102cc000bf0807002e009000ef0f500003003400f3
:102cd0002e00900070005000010037002e00900080
:102ce000e50807002e009000ef0f500002003c00a6
:102cf000e0ff2f0001003700b0ff2f001d09070083
:102d0000d60037001e009000e20f5000080032008d
:102d1000e40f50000a003200e10f50000c003a00ae
:102d2000410120003e009000e40d0700080037003c
:102d3000610420003e009000e00d07000400370011
:102d4000a10520003e009000dc0d070000000000ff
:102d50002e009000ef0f500002003c00c0ff2f003b
:102d60000100370030ff2f00020907001e0090000d
:102d7000e40f500019003200e40f500004003c0042
:102d80000000e900e10f500020003e00070037007e
:102d9000e60f500017003200e60f50001200350019
:102da000e70f500016003200180037002e00900088
:102db000c2fa07000000e00004003200900020008a
:102dc000000f7800c322a80010003700a0002000e8
:102dd000000f7800c342a8000c0037003005200027
:102de000000f78000900370050052000000f780020
:102df00006003700b0002000000f78000300370005
:102e0000c0002000000f7800000000002e0090009d
:102e10000000e00003003a002e0090004006b000e1
:102e2000010037002e009000800078001e0078001e
:102e3000630807008040eb0030c0b300460a07007b
:102e40001e009000e40f50001a003200e40f500002
:102e500005003c00e10f50000a003200e20f500074
:102e60000e00320029003700e60f50001b00320030
:102e7000e60f500015003500e70f50001d0032002e
:102e80002200370010c3b300ee090700d0468000cf
:102e9000800cb1006d0d07001c00370020c3b3008b
:102ea000e8090700f0468000800cb100670d0700bc
:102eb0001600370030c3b300e20907001047800056
:102ec000800cb100610d0700100037004047800002
:102ed000800cb1005d0d07000c00370050c7b30037
:102ee000d8090700e0468000800cb100570d0700ac
:102ef0000600370050c5b300d20907000047800024
:102f0000800cb100510d0700000000002e00900061
:102f1000ef0f500002003c00d0ff2f0001003700ef
:102f200070ff2f0093080700800c2000470d07005a
:102f3000f00020008f080700c322a9000000000055
:102f400000000000c342a9000000000000000000d3
:102f50008000eb001e007800190807008040eb009d
:102f600030c0b300fc0907001e009000e40f5000c1
:102f70002a003200e40f500005003c00e10f500031
:102f800008003200e20f5000150032003300370015
:102f9000e60f500027003200e70f500028003200f3
:102fa0002e003700e10120003e009000430d070095
:102fb00040c6b300a3090700d04680008000780017
:102fc000703e2000808f500021003e00d0468000df
:102fd000813e2000008050001c0d07001f003700bc
:102fe000010520003e009000340d070040c4b300ee
:102ff00094090700f046800080007800703e2000b1
:10300000808f500014003e00f0468000813e20007a
:10301000008050000d0d070010003700f105200062
:103020003e009000250d070020c5b300850907006c
:103030000a00370040c6b3008209070007003700c6
:1030400040c6b3007f0907000000000003003700fe
:103050000000000001003700000000000080fa00be
:10306000000006000400fa00000f78001107980025
:103070001100200060012000d10707001e00900011
:103080000000e00008003c001e0090000000e0008e
:103090000f003a0092f907006100600000407800dc
:1030a0000004e0000a003200910720002000200008
:1030b000c307070010002000740c07008041800047
:1030c000e20c07000000eb00700c07000500370061
:1030d0008107200020002000b90707008041800000
:1030e000da0c07001e009000e20f50000b003a00bf
:1030f000a107200020002000b1070700401f20008a
:10310000d20c070010002000600c070080418000f6
:10311000ce0c07000000eb005c0c07001c28ef0041
:103120009e00780070002000a507070090408000f6
:103130000000e80090408800904080000001eb0013
:1031400051002000160b07000080fa000000060066
:103150000200fa00000f78001c28ef009e007800a3
:103160004000200096070700b04080000000e80003
:10317000b0408800b04080001200200051002000c4
:10318000070b0700304780000001eb00800078004b
:1031900050002000a7fe07001e007800e30f50003b
:1031a0000200320000fa2000a80c07000080fa009c
:1031b000000006000200fa00000f7800e0408000e6
:1031c0000000e800e04088009e00780060002000d9
:1031d0007b070700a04080000000e800a0408800b6
:1031e000a04080000001eb0091002000ec0a0700e5
:1031f0000080fa00000006000a00fa00881f78002c
:10320000100798002107980032079800430798009c
:103210000000eb00000f78000000eb00d0478800b2
:1032200060418000fe0f500047003a000028ef0088
:103230000228ef0002003700a0478000d047880036
:103240004e0090006101b9000040800011408000f4
:10325000800f5100818f590003003600d047800055
:103260000000e000f4ff3200204080003140800088
:103270004040880051408800d04780000000e000b6
:1032800026003a001e0090008cf907000000e000c4
:103290000b003a00110020005000200048070700f2
:1032a000c04080000000e800c0408800c0408000ae
:1032b0001200200091002000b90a0700bf0037006b
:1032c00010002000bbff070005f9070031002000b7
:1032d00001017800110009000200d8008000fd0003
:1032e0000000e000b0003a00110020006001200062
:1032f0003307070010002000e40b07001100200036
:10330000800020002e070700804180004f0c07003e
:103310000000eb00dd0b0700a80037001e00900046
:1033200066f907000000e00003003a0010002000ea
:1033300087ff0700a10037001100200010002000c7
:1033400048ff07009d0037000028ef000228ef002b
:1033500002003700a0478000d04788004e00900050
:103360006101b9000040800011408000800f5100d1
:10337000818f590003003600d04780000000e00034
:10338000f4ff32002040800031408000404088003f
:1033900051408800d04780000000e00044003a001f
:1033a0001e00900045f90700000478002e009000f0
:1033b00042f90700800f54000d003a00be00900053
:1033c00050002000fe060700c04080000000e8001a
:1033d000c0408800c0408000120020009100200002
:1033e0006f0a070050002000000f780073003700bc
:1033f0003e0090006fff070060002000000f780083
:1034000060418000ea0f50001400320061418000ea
:1034100030062000808f5000100032006141800093
:10342000a0052000808f50000c0032006141800018
:1034300080072000808f500008003200614180002a
:1034400040062000808f500004003200614180005f
:1034500010032000808f500055003a00a0f80700ac
:103460003100200001017800110009000200d8009d
:103470008000fd000000e0004f003a001100200035
:1034800060012000ce060700100020007f0b07001f
:103490001100200080002000c90607008041800044
:1034a000ea0b07000000eb00780b07004300370031
:1034b0001e00900001f90700000478002e00900023
:1034c000fef80700800f540005003a003e0090000f
:1034d0001fff070040002000000f78003700370072
:1034e0006141800010032000808f500004003200f2
:1034f0006141800000032000808f500024003a00ca
:1035000050468000900078001e009000808f500090
:1035100006003200504680000080e80090007800ed
:103520001e009000808f500004003a00110020001f
:103530003e009000cbfe070014003700504680008c
:1035400064004000900078001e009000808f5000c2
:10355000060032005046800066004000900078006f
:103560001e009000808f500004003a0021002000cf
:103570003e009000bbfe0700040037008000eb0017
:103580003e009000b7fe070004003700030037003c
:10359000110020003e009000b2fe070070002000e5
:1035a000000f78000500370000000000030037001e
:1035b0000000000001003700000000001e0078003d
:1035c0004f0478000080fa00000006000800fa00ae
:1035d0001007980021079800320798001e019000fc
:1035e000ae0090006000200092fd07008040eb00dc
:1035f00030c0b3005808070040c4b30011080700ea
:103600003e0090000000e00003003a0080bb200074
:103610008e0b070021003700803e20008b0b070037
:10362000000f78003e009000ef0f500003003400c0
:103630003e00900070005000010037003e009000f6
:103640008d0607003e009000ef0f500002003c0086
:10365000e0ff2f0001003700b0ff2f00c506070074
:10366000401f2000790b07001e0f70001e0078001d
:103670000000e00009003a000001eb00ae009000fd
:10368000700020006bfd0700431f20003200200067
:10369000be0090002e009000d7fe07000080fa00c8
:1036a000000006000400fa0010079800114780008f
:1036b000700c2000808f50002d003400803e2000d0
:1036c000620b0700000f7800b04680001000780001
:1036d0001e019000800078003000200055fd07009a
:1036e000401f2000590b07001e0f70008040eb00a8
:1036f00030c0b300180807001e0078000000e0008a
:1037000010003200f00020009a060700110020008f
:10371000400520002a06070010c4b300c9070700af
:10372000304780000001eb0080007800500020004e
:1037300040fd0700d04080000000e800d040880035
:103740000b00370020c5b300be070700410620006c
:103750001e009000590b0700b04680001000780052
:103760001e019000800078004000200031fd07001d
:103770000080fa00000006001200fa0040079800de
:10378000510798006207980073079800040f98008b
:103790002040800031408000404088005140880037
:1037a0008e089000a0032000050607000e08900078
:1037b00000f0a7000000ea000000ea004f00de0071
:1037c0008000780010042000fd0507004100200063
:1037d0000e089000390b0700803e20001b0b0700ed
:1037e000510020000e089000340b0700007d2000df
:1037f000160b0700a10020000e0890002f0b0700f9
:10380000401f2000110b0700210120000e0890002e
:103810002a0b07000e099000ce0090001000200037
:1038200004fd070060418000fe0f50000d003a00cb
:10383000010520000e089000200b07005047800073
:10384000e10f50008b00340050478000800078006a
:10385000803e20000088b90000007800fb0a0700c5
:1038600085003700504780000000e00003003a0068
:10387000800c2000f50a07007900370050478000cf
:10388000e40f500008003c005047800080007800a2
:10389000803e20000088b90000007800803eb10022
:1038a000ea0a070066003700a04680000000e0003a
:1038b00015003200401f2000e40a07007e0190003e
:1038c000ee0090000e08900040ff0700e10d200080
:1038d0000e089000f90a070050478000e70f5000db
:1038e000570036005047800080007800803e20005e
:1038f0000088b9008000780000892e000080400018
:10390000d20a07004e003700810220000e08900006
:10391000ea0a0700401f2000cc0a0700a10220008d
:103920000e089000e50a0700401f2000c70a0700a4
:10393000810c20000e089000e00a0700803e200065
:10394000c20a0700210d20000e089000db0a0700c4
:103950005047800080007800401f20000088b90098
:103960008000780000832f0000804000b70a070025
:10397000610e20000e089000d00a0700504780001a
:10398000eb0f500017003400007d2000af0a070045
:10399000b10e20000e089000c80a0700401f20004a
:1039a000aa0a0700010f20000e089000c30a0700b2
:1039b000401f2000a50a0700510f20000e089000ac
:1039c000be0a070051478000401f20000088b90050
:1039d0008000780040a82e00008040009b0a07006d
:1039e000080037005047800080007800401f20000a
:1039f0000088b90080007800c0632f00008040007c
:103a0000920a0700a10f20000e089000ab0a0700e1
:103a1000401f20008d0a0700f10f20000e089000c3
:103a2000a60a0700401f2000880a0700d1032000d3
:103a30000e089000a10a0700401f2000830a07001b
:103a4000f10320000e0890009c0a0700401f200090
:103a50007e0a0700110420000e089000970a070054
:103a60000e099000de0090002000200071fc07008d
:103a700001003700000000000000eb00000f78009c
:103a8000c04680000000e00003003200e10f50005b
:103a900039003200440037008040eb0030c0b300f2
:103aa0002d07070020c5b300e6060700833e20006f
:103ab00012002000de0090004e009000cefd0700b6
:103ac000000f78006141800010032000808f5000bb
:103ad000040032006141800000032000808f50000c
:103ae0002e003a001e007800e50f5000030032005f
:103af0001e007800e60f50002a003a006046800061
:103b0000900078005e009000808f500004003a0022
:103b1000604680000080e800100078000200370056
:103b2000604680001000780020079800803e20004a
:103b3000460a07000e099000ae00900030002000f9
:103b40003cfc0700401f2000400a07000e099000bf
:103b5000ae0090004000200036fc0700833e2000ad
:103b600022002000ae0090004e009000a2fd070051
:103b7000000f78000c0037000e089000c9fe070007
:103b8000833e200012002000de0090004e009000d6
:103b900099fd0700000f78000300370000000000c7
:103ba000010037000000000091408000c04080000c
:103bb00080804000a040800080804000b0408000b5
:103bc00080804000d0408000008040003007980096
:103bd00012002000d10020003e0090007008070075
:103be00091408000c0408000008040000000e00064
:103bf0001500340091408000c0408000808040006b
:103c0000400620000088b900800078003e00900047
:103c100000017800110009008200d800f0408800ff
:103c2000f040800031062000810f50000100340078
:103c300030062000f0408800f04080000001eb00da
:103c4000d1002000560807008040eb0030c0b300d0
:103c5000c106070090c4b3007a0607001e00780072
:103c6000e40f500007003a00204780000000a00049
:103c700020478800704180000000e8007041880003
:103c80000400370021478000e0ff2f000080600023
:103c90002047880060478000e30f50001200360084
:103ca000604780006400500010079800050037004e
:103cb00000a62e00e50907001e009000c003b10019
:103cc000100798009e009000c0032000808f5000d5
:103cd000f7ff3e009e009000803e20000088b90063
:103ce00000007800d90907008000eb00b003200035
:103cf000b30407008a0c07000080fa0000000600e9
:103d00000200fa00804180006f090700b1972b0084
:103d100030002000cb080700000f780080418000b1
:103d2000690907009e007800200020008505070033
:103d30008000eb00d0032000a10407000000fe007b
:103d40000080fa00000006001c00fa00300f980006
:103d5000410f9800520f98000000eb00000f780010
:103d60000000eb0010079800f045800070079800f5
:103d700080478000000040002ff60700000f9800e9
:103d80006041800080007800300320008c04070030
:103d90008803370011002000d003200088040700aa
:103da000a1982b00b0992b00960807001200200064
:103db000110020001e009000f90707001a28ef00ec
:103dc000d0408000c0408800c0408000b0408800e3
:103dd000b0408000a0408800a04080009040880053
:103de0000000eb00400798000000eb00500798002f
:103df0000000eb00000f780054033700804780007c
:103e0000800078000e0890004e0907000000eb00cb
:103e100060079800450337006e00900000004000e6
:103e20008e0890000080400010007800100f98006d
:103e3000604180006101b80060ff2f00f1ff2f009a
:103e4000020040008380480042062000030020005a
:103e5000820f5000838f580084013e0000600100f3
:103e60007f00370081013700800137007f01370074
:103e70007e0137007d0137007c0137007b01370070
:103e80007a013700790137005a003700770137008f
:103e90007601370075013700740137007301370070
:103ea0007201370071013700700137006f01370070
:103eb000850037006d0137006c0137006b0137005a
:103ec0006a01370069013700680137006701370070
:103ed0006601370065013700640137006301370070
:103ee0006201370061013700600137005f01370070
:103ef0005e0137005d013700da003700d900370076
:103f00007100370059013700580137005701370059
:103f1000560137005501370054013700530137006f
:103f20005201370051013700500137004f0137006f
:103f30004e0137004d0137004c0137004b0137006f
:103f40004a0137004901370048013700470137006f
:103f5000460137004501370044013700430137006f
:103f60004201370041013700400137003f0137006f
:103f70003e0137003d0137003c0137003b0137006f
:103f80003a0137003901370038013700370137006f
:103f9000360137003501370034013700330137006f
:103fa0003201370031013700300137002f0137006f
:103fb0002e0137002d0137002c0137002b0137006f
:103fc0002a0137006b0037008400370027013700d3
:103fd000a4003700250137002401370023013700f2
:103fe0002201370021013700200137001f0137006f
:103ff000450037001e0890000000e000030032007a
:104000001e089000e20f500003003a005046800066
:104010001000780003003700504680000080e80060
:1040200010007800200798001e089000e10f500053
:10403000030032001e089000e20f500003003a0017
:104040006046800010007800030037006046800062
:104050000080e80010007800300798000301370066
:104060001e0890000000e000030032001e089000cf
:10407000e20f500003003a00504680001000780024
:1040800003003700504680000080e80010007800f0
:104090002007980050468000900078002e00900085
:1040a000808f500003003a006046800010007800c6
:1040b00003003700604680000080e80010007800b0
:1040c00030079800e90037001e0890000000e0006b
:1040d000030032001e089000e20f500003003a0077
:1040e00050468000100078000300370050468000e2
:1040f0000080e80010007800200798000000eb0026
:1041000030079800d90037001e0890000000e0003a
:10411000030032001e089000e20f500003003a0036
:1041200050468000100078000300370050468000a1
:104130000080e80010007800200798001e0890001a
:10414000e10f5000030032001e089000e20f500003
:1041500003003a006046800010007800030037003a
:10416000604680000080e80010007800300798006a
:10417000be0037001e0890000000e000030032007f
:104180001e089000e20f500003003a0050468000e5
:104190001000780003003700504680000080e800df
:1041a00010007800200798005046800090007800aa
:1041b0002e009000808f500004003a00604680007e
:1041c0000080e800100078000200370060468000a0
:1041d0001000780030079800a40037001e089000f7
:1041e0000000e000030032001e089000e20f5000c3
:1041f00003003a00504680001000780003003700aa
:10420000504680000080e8001000780020079800e9
:1042100050468000900078002e009000808f500063
:1042200004003a00604680000080e800100078003a
:1042300002003700604680001000780030079800c8
:104240001e007800ef0f500003003400b000200083
:10425000f0458800850037000000eb00f04588003d
:10426000820037002047800063006000e30f5000a9
:1042700003003a0070418000e20f50007a003400e1
:1042800070468000e40f50001f003200e60f50001f
:104290004e003200e20f500071003a001e089000fc
:1042a0000000e000030032001e089000e20f500002
:1042b00003003a00504680001000780003003700e9
:1042c000504680000080e800100078002007980029
:1042d0001e089000e10f5000030032001e089000fd
:1042e000e20f500003003a006046800010007800a2
:1042f00003003700604680000080e800100078006e
:104300003007980056003700514680001e08900084
:1043100000004000008040009000780021079800d5
:104320001e089000e10f5000030032001e089000ac
:10433000e20f50000b003a009e0078007000280049
:10434000008060000000e00004003d000000e90083
:1043500081ff2f00008070000000e800e30f500094
:10436000110034001e0890000000e000030032003d
:104370001e089000e30f50000f003a009e007800e6
:1043800070002800008060000000e00004003d0094
:104390000000e90081ff2f00008070000000e800ad
:1043a000e30f5000040034006046800010017800e4
:1043b000320798002a003700604680000080e8003d
:1043c00090007800310798002500370051468000a2
:1043d0001e0890000000400000804000100178009e
:1043e000220798001e089000e20f500008003c00d1
:1043f0009e007800c0002000000178001100090034
:104400008200d8008000fd00e50f50000b00340052
:104410001e089000e20f50000c0034009e0078004f
:10442000c000200000017800110009008200d800bf
:104430008000fd00e50f500004003400604680005d
:104440009000780031079800050037006046800032
:104450000080e8001001780032079800000000009a
:104460002e28ef0001003700000000008040eb0024
:104470000040eb00b8040700817d2b002e00900067
:1044800000804000104078006e040700817d2b0002
:104490003e00900000804000104078006904070052
:1044a000a0468000e10f500003003200e20f5000f0
:1044b000050032001400370080468000900078002c
:1044c000410798001000370085f407006100600084
:1044d000004078000004e0000300320080468000c5
:1044e0001000780003003700804680000080e8005c
:1044f0001000780040079800904680001001780076
:104500005207980000000000e04580006101b800fb
:104510000080eb008080eb000200400083804800b8
:10452000f204200003002000820f5000838f580007
:1045300073013e0000600100520037004e0037005a
:104540006f0137006e0137006d0137006c013700d5
:104550006b0137006a0137006901370052003700ec
:1045600067013700660137006501370064013700d5
:1045700063013700620137006101370060013700d5
:104580005f0137005b003700620037005c013700d5
:104590005b0137005a01370082003700890037007d
:1045a000570137005601370055013700a900370081
:1045b00053013700520137005101370050013700d5
:1045c0004f0137004e0137004d0137004c013700d5
:1045d0004b013700c300370049013700ca003700dc
:1045e0004701370046013700d80037004401370043
:1045f00043013700420137004101370040013700d5
:104600003f0137003e0137003d0137003c013700d4
:104610003b0137003a0137003901370038013700d4
:1046200037013700360137001201370034013700f7
:1046300033013700320137003101370030013700d4
:104640002f0137002e0137002d0137002c013700d4
:104650002b0137002a0137002901370028013700d4
:1046600027013700260137002501370024013700d4
:1046700023013700070137000000eb00f0458800f8
:104680001f0137001e007800610060000000e0009c
:10469000020032007e009000010037000000eb00b5
:1046a000f0458800160137003e08900000004000e9
:1046b00000017800706626000090b900c288de0014
:1046c0004f90de0000805000200f98003e089000c0
:1046d0009e0050002e089000808f500002003c0089
:1046e0007e009000010037000000eb00f0458800dc
:1046f000030137002e00900070f407000000e00076
:1047000002003200100020000100370020002000cd
:10471000404688009e00780050002000000178008c
:10472000110009008200d8008000fd00e20f500057
:1047300012003200e20f500005003c000000e000d3
:1047400008003200e10f500009003200ec00370091
:10475000e30f50000c003200e40f50000d00320057
:10476000e70037000000eb00f04588000c00370040
:10477000b0052000f045880009003700c005200082
:10478000f045880006003700d0052000f04588007d
:1047900003003700e0052000f0458800000000001d
:1047a000d70037002e00900044f407000000e0001e
:1047b000020032001000200001003700200020001d
:1047c000404688009e0078005000200000017800dc
:1047d000110009008200d8008000fd00e20f5000a7
:1047e00012003200e20f500005003c000000e00023
:1047f00008003200e10f500009003200c00037000d
:10480000e30f50000c003200e40f50000d003200a6
:10481000bb0037000000eb00f04588000c003700bb
:1048200000062000f045880009003700100620002f
:10483000f04588000600370020062000f04588007b
:104840000300370030062000f0458800000000001b
:10485000ab0037009e007800500020000001780077
:10486000110009008200d8008000fd00e20f500016
:1048700012003200e20f500005003c000000e00092
:1048800008003200e10f5000090032009c003700a0
:10489000e30f50000c003200e40f50000d00320016
:1048a000970037000000eb00f04588000c0037004f
:1048b00090072000f045880009003700a00720007d
:1048c000f045880006003700b0072000f04588005a
:1048d00003003700c0072000f045880000000000fa
:1048e000870037002e009000f4f307000000e0007e
:1048f00002003200100020000100370020002000dc
:10490000404688007e0037002e009000ebf3070041
:104910000000e0000200320010002000010037001b
:1049200020002000404688001e00780061006000e2
:104930000000e000020032007e009000010037001d
:104940000000eb00f04588006d0037001e00780085
:10495000e30f50000b0034001e007800e70f5000fa
:1049600008003c002e009000d4f307000000e00097
:10497000040032003e009000d0f307000000e00089
:104980002a003a001e007800e70f50000b003400a8
:104990001e007800eb0f500008003c002e00900035
:1049a000c6f307000000e000040032003e00900063
:1049b000c2f307000000e0001c0032001e00780077
:1049c000eb0f50000b0034001e007800ef0f50007a
:1049d00008003c002e009000b8f307000000e00043
:1049e00004003a003e009000b4f307000000e0002d
:1049f0000e003a001e007800ef0f50001400340043
:104a00001e007800f30f500011003c002e009000b3
:104a1000aaf307000000e0000d003a003e009000fd
:104a2000a6f307000000e00009003a002e00900005
:104a3000a2f307000000e000020032002000200086
:104a40000100370010002000404688002c0037008d
:104a50002e00900099f307000000e00002003200f1
:104a60001000200001003700200020004046880090
:104a7000230037001e089000e10f500002003c00a8
:104a80000000eb000100370010092000f04588000d
:104a90001b00370012f3070061006000004078003f
:104aa0000004e0000b0032003e089000cf00de0062
:104ab000008040000080d1009e0f500002003c00aa
:104ac0007e009000010037000000eb00f0458800f8
:104ad0000b0037003e089000cf00de000080400051
:104ae0000080d1009e0f5000020034007e00900034
:104af000010037000000eb00f045880000000000d6
:104b0000f045800000027800de0190004e01900028
:104b1000be0090002e00900017fb07001e0fe8005b
:104b20006e0090000000e800600798008147800058
:104b30006e009000808f500004003400e14080003f
:104b40004e089000808f5000b3fc35003e08900066
:104b50009e007800808f500004003d00e1408000fe
:104b60004e089000808f5000a4fc35008000eb00c0
:104b7000d003200012010700f04080008000eb000d
:104b800064f30700a1408000400620000088b900bf
:104b900080007800a240800090408000000041002a
:104ba00000017800110009008200d80011002000e7
:104bb00058f30700e14080004e089000808f5000bd
:104bc0000b003d0010c0b3001e019000de089000f5
:104bd000810f5100010035000040eb009e00900065
:104be0008100e800110798000004e00069fc3a0029
:104bf0008000eb00e0032000f10007000080eb00e4
:104c0000404188000e08900026f2070050468000c0
:104c100024f207006046800022f20700b0468000c0
:104c200020f207000080fa00000006000200fa00ef
:104c30000000eb00000f78001e00a2001e007800ac
:104c400030468800c19a2b0010002000fd040700a8
:104c5000f9ff37000200fa00000f78001000200072
:104c6000304688008040eb0030c0b300ba02070035
:104c7000c0c4b3007302070011002000f00420003c
:104c8000cf0007000080fa00000006000000fa00d4
:104c90000000eb00304688008040eb0030c0b300dd
:104ca000ad020700e0c2b300660207008000eb001f
:104cb000f0042000c20007000080fa000000060097
:104cc0000000fa00f09f230000168800c422ef00c5
:104cd000f0cf2f00301688000030200050168800da
:104ce0000080eb0060168800d022ef0000ff20005b
:104cf0009016880000002300b0168800d822ef002c
:104d0000dc22ef000080eb00f0168800e222ef00ca
:104d1000f0cf2f0020178800e822ef000080fa0073
:104d2000000006000000fa000021ef00803821009a
:104d3000100888008460a9008c60a8000001280089
:104d4000200888000080eb0052f107000028ef00e7
:104d50000228ef000428ef000628ef000080fa0088
:104d6000000006000200fa00000f78001e00780024
:104d70006101b80000408000114080000200400046
:104d80008380480000408800114088001e007800a1
:104d90006101b800204080003140800002004000e6
:104da00083804800204088003140880022408000f5
:104db0003340800000202000010020000202780023
:104dc000030178008001780001007800030262008e
:104dd000000061008000eb00c000dd00000020004a
:104de0000001be006120b8000001710081817100e6
:104df000471add004910de0000007200c918de000d
:104e000000407800614060000080fb0061006000ad
:104e10004e00dd00a2168000f1ff2b008100610032
:104e200001007000a01688000000000000000000d3
:104e3000224080003340800000202000010020003c
:104e400002027800030178008001780001007800f8
:104e500003026200000061008000eb00c000dd0082
:104e6000000020000001be006120b80000017100b8
:104e700081817100471add004910de0000007200d8
:104e8000c918de0000407800614060000080fb002f
:104e90004f00dd00a2168000f1ff270081006100b5
:104ea00001007000a0168800000000000000000053
:104eb0000080fa00000006000000fa00b047800001
:104ec000c14780000001be002203b0000380b00093
:104ed000204080003140800014002000800f5100ed
:104ee000818f5900010039000002eb0004007800b6
:104ef0000080fa00000006000600fa002007980073
:104f00002e009000cf80de00008fbe000028ef0052
:104f10000228ef00000000000040800011408000e7
:104f2000be0f5000ae8f5800fbff39000080fa0022
:104f3000000006000200fa00000f780002003700af
:104f4000803e2000ecff07001e00780000f0a70064
:104f50000000ea000000ea004f00de000040780098
:104f60001e0fe9000004e000f5ff3a000080fa009f
:104f7000000006000600fa00daf0070090f12f00aa
:104f8000def0070000f02d00000f7800d07527003c
:104f90001007980090012000200798002e01900033
:104fa0009e0090001e007800f6f007008000eb00e5
:104fb000d0032000020007000080fa000000060075
:104fc0000400fa00000f780011079800100020007c
:104fd0007040880000000000bdf007000004e00001
:104fe000fdff3a001e007800004078008080fb0042
:104ff000f007200000806000d01088000000000052
:10500000b3f007000004e000fdff3a001e0090002e
:10501000004078000074a0000080fb00d0108800e1
:1050200000000000aaf007000004e000fdff3a00c5
:10503000804080000000e0000b0032001a22ef00e8
:1050400000000000a2f007000004e000fdff3a00ad
:1050500020082000d0108800000000009cf007000d
:105060000004e000fdff3a001028ef000e28ef00da
:105070000080fa00000006000200fa00000f78002d
:105080001e007800004078006140600061406000d0
:10509000614060000080fb0061006000a21680009b
:1050a000e1ff2f008100610001007000a016880060
:1050b00000000000000000009e0078006280600098
:1050c0000080d10000407800614060000080fb005b
:1050d0006100600000004000a2168000d1ff2f0098
:1050e0008100610001007000a0168800000000002f
:1050f000000000009e007800648060004280de00b6
:1051000000407800614060000080fb0061006000aa
:105110004200dd00a2168000b1ff2f008100610077
:1051200001007000a01688000000000000000000d0
:105130009e007800688060004380de0000407800b8
:10514000614060000080fb00610060004300dd0002
:10515000a216800071ff2f00810061000100700025
:10516000a016880000000000000000000080fa0087
:10517000000006000200fa00000f78001e00780010
:105180000040780061406000614060006140600064
:105190000080fb00610060004c00dd00a216800072
:1051a000f1ff2e008100610001007000a016880050
:1051b00000000000000000009e0078006280600097
:1051c0000080d10000407800614060000080fb005a
:1051d000610060004d00dd00a2168000f1ff2d008f
:1051e0008100610001007000a0168800000000002e
:1051f000000000009e007800648060004280de00b5
:1052000000407800614060000080fb0061006000a9
:105210004800dd0042168000f1ef2f0081006100a0
:10522000010070004016880000000000000000002f
:105230009e007800688060004380de0000407800b7
:10524000614060000080fb00610060004900dd00fb
:1052500042168000f1df2f00810061000100700024
:105260004016880000000000000000000080fa00e6
:10527000000006000000fa00a1a2a90001158000ac
:10528000f0cf2f000080600000158800011580001d
:10529000000e20000100700000158800a022a80068
:1052a00011158000f0ff21000080600010158800bb
:1052b000a342a8001115800030fc2f000080600080
:1052c0000030a00010158800a222a900a202a900a7
:1052d0002115800000f021000100700020158800d9
:1052e000a4e2a8002115800000fc2f0000806000cf
:1052f000f001b30020158800a782a900a682a900aa
:1053000030158000f000b3003015880031158000a2
:10531000f00f2f000080600030158800f0ff27009c
:10532000401588000000280050158800a042a80001
:105330008560a8008d60a800a1e2a8000080fa00a6
:10534000000006000400fa00000f78001107980022
:105350001e0078006101b90090ce8500a1ce8500c5
:105360000200400083804800220020000af007006d
:10537000013b800000002800008060000000e00089
:10538000fbff3a001e0078006101b90090ce850055
:10539000a1ce850002004000838048001e019000dd
:1053a00016f00700013b800000002800008060002c
:1053b0000000e000fbff3a000080fa000000060059
:1053c0000400fa00100798001e0090006101b90067
:1053d00090ce8500a1ce8500020040008380480069
:1053e0000002eb00230020000e01780012f00700fd
:1053f0001e0078000080fa00000006000400fa0099
:1054000080042000000f780000222c001007980074
:105410009e0078001e00900097ef07000080fa00c1
:10542000000006000200fa00004f780011479800c3
:1054300072ef070093ef07000000000030108000bb
:10544000610060000000e000fcff3a0085c0a90098
:105450001e4078007aef0700000000004010800036
:10546000610060000000e000fcff3a000000000066
:105470002104800000002400008060000000e000a3
:10548000fbff320085c0a900000000004110800031
:1054900000002800008060000000e000fbff3a00f0
:1054a0001e40900066ef070078ef07000000000044
:1054b00030108000640060000000e000fcff3a0053
:1054c0000080fa00000006000400fa00204798005f
:1054d0004aef07006bef070000000000301080006b
:1054e000610060000000e000fcff3a0085c0a900f8
:1054f0002e4090000004a00051ef070000000000c3
:1055000040108000610060000000e000fcff3a00f5
:1055100000000000210480000000240000806000e2
:105520000000e000fbff320085c0a9000000000081
:105530004110800000002800008060000000e000b2
:10554000fbff3a0038ef0700004f78004fef0700ed
:105550000000000030108000640060000000e000e7
:10556000fcff3a001e4078000080fa0000000600b0
:105570000000fa0027c8bf000034a00027e8b700e9
:1055800020c0b30026e8b70000352c00ed0107006d
:1055900041c0b300e0c7b300a2ff070040062000ef
:1055a000e801070000c3b300aa0107004019210069
:1055b000e401070000c3b300a60107006009200052
:1055c000e001070000c3b300a2010700600920004a
:1055d000dc01070000c2b3009e0107006009200043
:1055e000d801070080c0b30022e8b70022c8bf007e
:1055f0000054a0002d0107002468ef00810007007f
:105600008b00070020c0b30023e8b70023c8bf0009
:105610000024a0002501070024c8bf000034a0001a
:105620002201070080c0b30025e8b70025c8bf00ed
:105630000044a0001d010700330007000080fa00ad
:10564000000006000200fa00004f78001e407800bb
:10565000220107001e4078000080fb0080007800d7
:10566000a001200056fe07000080fa00000006009e
:105670000600fa0020079800ae009000010f7800a5
:10568000040037001e007800104078001e0fe8006c
:10569000120107001e007800104078000004e000ae
:1056a000f8ff3a000000eb00100798000b003700ed
:1056b0001e009000ae009000008040001040780076
:1056c0000080fb0080007800a00120003cfe070065
:1056d0001e0090000000e800100798001e009000d7
:1056e000ae00900000804000104078000004e00010
:1056f000030032001e009000ef0f5000ecff34005a
:105700000080fa00000006000000fa0010c0b3009c
:10571000e6000700005327008a010700010220006d
:105720009001200026fe07000080fa00000006001d
:105730000000fa0020c0b300dc000700005327007f
:105740008001070001022000900120001cfe0700dc
:105750000080fa00000006000c00fa00204f9800bc
:10576000314f98000000eb00100798000004200063
:1057700020079800400120003007980040052000d5
:105780004007980026c8bf00be48900080cf500058
:105790000300390026c8bf000040e900304f9800e0
:1057a0003e4890000080fb000000400000004700e1
:1057b00010009000804078002e48900000c040000b
:1057c0000074a000b90007002e4890000080fb0084
:1057d0006f00600000004000800078003e489000ac
:1057e0000080fb0061006000010070007f0f60001e
:1057f0009e00780090012000f1fd07000080fa0073
:10580000000006000000fa0041822000914078006c
:10581000b0cfb30000c0600024e8b70024c8bf00c8
:105820000034a000a10007000080fa00000006007c
:105830000000fa0024c8bf000024a00024e8b7003c
:1058400024c8bf000034a000980007000080fa00c0
:10585000000006000000fa0041822000914078001c
:10586000d0cfb30000c0600024e8b70024c8bf0058
:105870000034a0008d0007000080fa000000060040
:105880000000fa0024c8bf000014a00024e8b700fc
:1058900024c8bf000034a000840007000080fa0084
:1058a000000006000000fa004182200091407800cc
:1058b000e0cfb30000c0600024e8b70024c8bf00f8
:1058c0000034a000790007000080fa000000060004
:1058d0000000fa0024c8bf000004a00024e8b700bc
:1058e00024c8bf000034a000700007000080fa0048
:1058f000000006000000fa0051822000914078006c
:10590000b0cfb30000c0600025e8b70025c8bf00d5
:105910000034a00025e8b70025c8bf000044a0005f
:10592000620007000080fa00000006000000fa0094
:1059300025c8bf000024a00025e8b70025c8bf0087
:105940000034a00025e8b70025c8bf000044a0002f
:10595000560007000080fa00000006000000fa0070
:1059600023c8bf000014a00023e8b70023c8bf006d
:105970000024a0004d0007000080fa00000006008f
:105980000000fa003182200091407800d0cfb300af
:1059900000c0600023e8b70023c8bf000024a000b7
:1059a000420007000080fa00000006000000fa0034
:1059b00023c8bf000004a00023e8b70023c8bf002d
:1059c0000024a000390007000080fa000000060053
:1059d0000000fa003182200091407800e0cfb3004f
:1059e00000c0600023e8b70023c8bf000024a00067
:1059f0002e0007000080fa00000006000600fa00f2
:105a000020479800210798002e40900067406000d2
:105a1000204798002e4090000080fb004300dd00ee
:105a2000004078000064a000200007000000eb00a8
:105a3000000f7800060037001e007800ae009000ce
:105a40000080400010407800240007001e0fe8008e
:105a50001e007800e70f5000f7ff34000080fa00c6
:105a6000000006000000fa007182200091407800da
:105a700070cfb30000c0600027e8b700c300070084
:105a8000a70007000080fa00000006000000fa00ee
:105a900027c8bf000034a00027e8b700bb000700fc
:105aa0009f0007000080fa00000006000200fa00d4
:105ab000004f78008040eb001e4078002f00070068
:105ac0000080fa00000006000000fa000040eb0031
:105ad000430007000080fa00000006000200fa0000
:105ae000004f780011c0b3001e407800230007006b
:105af0000080fa00000006000000fa0010c0b300a9
:105b0000370007000080fa00000006000000fa00dd
:105b1000edff070001c8b300014060000080fa00fb
:105b2000000006000000fa00e7ff07000074a10073
:105b30000080fa00000006000200fa00004f780022
:105b40001e4078000074a000d8ff0700eaff07009d
:105b50000080fa00000006000200fa00004f780002
:105b60001e407800f043b2000064a000cfff0700a1
:105b7000e1ff07000080fa00000006000400fa00c0
:105b80002047980031479800ae40900000cfb30006
:105b900000cf6000ae409000400020000008dd0013
:105ba000104798009e40900000cfb30000c06000f6
:105bb000104798003e4090001e4070000024a00056
:105bc000240007009e4090003e40900000c07000fe
:105bd0000024a0001f0007000080fa00000006005b
:105be0000400fa0020479800ae40900000cfb300b8
:105bf00000c070004a000700ae40900040cfb300e4
:105c000000c070001d000700004f7800ae409000fb
:105c100040cfb30000c07000180007001047980084
:105c20002e4090000024a0003d0007009e40780018
:105c300000cfb30080c060001e4090000080fb00d9
:105c40004400de000040780000c070000080fa00d0
:105c5000000006000200fa00004f7800d0cfb30029
:105c60001e4060002e000700d0cfb3001e40600031
:105c70000f0007000080fa00000006000400fa0090
:105c8000204798002e4090000014a0001600070046
:105c90003e000700004f78002e4090000014a00046
:105ca000030007001e4078000080fa000000060094
:105cb0000200fa00004f78001e4078000024a00087
:105cc00017000700100020001e000700b0cfb3002f
:105cd0001e4060001200070020032000190007008a
:105ce0000080fa00000006000200fa00004f780071
:105cf000b0cfb3001e406000090007001000200074
:105d0000100007001e4078000024a00004000700d7
:105d1000200320000b0007000080fa0000000600ae
:105d20000200fa00004f780027c8bf001e40700034
:105d300080407800e0c7b300bafd07000080fa0099
:105d4000000006000400fa00100798000000eb00b5
:105d5000000f78000700370000000000000000007e
:105d60000000000000000000000000000000000033
:105d70001e0fe8001e0090009e007800808f5000eb
:105d8000f5ff39000080fa00000006000000fa006c
:105d9000e0c7b300ccfd07000080fa000000060059
:105da0001200fa006007980071079800020f98002f
:105db0006e01900070a321000090b900ca88de0037
:105dc0004f90de000080500010079800ee00900019
:105dd00070a321000089b9004a99de004f88de00d7
:105de00000005100027122000281b9000200780017
:105df00000805000813e2000010178001100090060
:105e00000200d80020079800ee009000803e20009d
:105e100000017800110009008200d8008000fd0018
:105e200000017800b04721000090b900c388de006f
:105e30004f90de000080500030079800ee00900088
:105e4000b04721000089b9004399de004f88de0089
:105e500000005100420620000281b90002007800d3
:105e600000805000716626000181b900c298de00f2
:105e70004f80de0000805000400798006e009000c8
:105e8000716626000181b9004299de00cf80de00f4
:105e9000810051006a09b9008200780001005000b9
:105ea000500798000000eb00000f78000e089000eb
:105eb000804078007e0090000040780026fe0700b9
:105ec0001e0090000000e0000e0032001e00900056
:105ed000004078000043b000dafd07000e08900093
:105ee000804078007e0090000000e8007007980075
:105ef0007e0090000040780017fe07001000200090
:105f0000000f78002e0090000000e00003003a002f
:105f10001e0078000000e0000e0032002e0090000d
:105f2000004078000043b000c6fd07000e08900056
:105f3000804078007e0090000000e8007007980024
:105f40007e0090000040780003fe07001000200053
:105f5000000f78003e0090000000e00003003a00cf
:105f60001e0078000000e0000e0032003e009000ad
:105f7000004078000043b000b2fd07000e0890001a
:105f8000804078007e0090000000e80070079800d4
:105f90007e00900000407800effd07001000200018
:105fa000000f78004e0090000000e00003003a006f
:105fb0001e0078000000e0000c0032004e0090004f
:105fc000004078000043b0009efd07000e089000de
:105fd000804078007e0090000000e8007007980084
:105fe0007e00900000407800dbfd07005e0090001e
:105ff000004078000043b00092fd07000080fa00e6
:10600000000006000400fa00000f78001107980055
:10601000c7fd0700bcfd07001e00780094fd0700c7
:1060200011c0b3000040eb00cbfd07001e00900044
:106030008ffd070010002000befb07000080fa0063
:10604000000006001200fa00889fbe00700798004a
:10605000010f98000f0478000f007800800478008a
:106060007e0090008000e900510798000000400089
:106070000000e8000000e8000000d10080004000bf
:106080000f007800818747000000e8000000d10081
:1060900000004000600798000000eb00000f78004f
:1060a00099fd0700a2fd07000e08900070fd070093
:1060b0000000eb001007980009003700ee00900088
:1060c0001e0090000000400000804000a1ff2f0053
:1060d000010878001e0090000000e80010079800fa
:1060e0009e0090007e009000808f5000f3ff3500ee
:1060f0000000eb0010079800330037000000eb00b1
:10610000300798000e0037003e00900000407800f5
:1061100011c0b30090fd0700ee0090003e0090001b
:106120000000400061007800004078000043b000ab
:1061300044fd07003e0090000000e8003007980092
:10614000be0090007e009000808f5000eeff350072
:106150000d003700404180000000e0000a003400dc
:106160004041800001fd2f00808040006e019000c2
:106170001e0090000000400000004100010878006f
:106180000080eb0040418800ee0090001e0090006f
:1061900000004000610078000000e000edff3500e5
:1061a000ee0090001e0090000000400061007800aa
:1061b000800078001000200081fb07001e00900086
:1061c0000000e800100798009e0090007e009000fc
:1061d000808f5000c9ff35000000eb004007980099
:1061e0000e0037004e0090000040780011c0b30050
:1061f00059fd0700ee0090004e00900000004000a6
:1062000061007800004078000043b0000dfd0700f9
:106210004e0090000000e80040079800ce0090007b
:106220007e009000808f5000eeff35000000eb00f4
:10623000200798000b0037001e0078006a00b900a4
:10624000800078006e0190002e0090000000400059
:1062500062007800008f40002e0090000000e800ef
:1062600020079800ae0090007e009000808f5000c4
:10627000f1ff35001e007800890778008807780054
:106280004f04be000080fa00000006000200fa0081
:10629000000f78001e007800004078006140600028
:1062a0000080fb00610060004e00dd0012168000df
:1062b000f1ff2b00810061000100700010168800c2
:1062c0000080fa00000006000400fa0010079800a1
:1062d0001e019000b04721000090b900c388de0085
:1062e0004f90de0000805000004f78009e0090002c
:1062f000b04721000089b9004399de004f88de00d5
:1063000000005100420620000281b900020078001e
:1063100000805000104798001e00fb0080007800ad
:106320007001200026fb07001e4090000000fb00cb
:10633000800078008001200021fb07000080fa0027
:10634000000006000a00fa00300798004107980094
:106350004e0090000000e000370032004e00900038
