:020000040000fa
:080000000007040000000000ed
:020000040000fa
:04000800b808000034
:020000040000fa
:04000c00b808000030
:020000040000fa
:04001000b80800002c
:020000040000fa
:04001400b808000028
:020000040000fa
:04001800b808000024
:020000040000fa
:04001c00b808000020
:020000040000fa
:04002000b80800001c
:020000040000fa
:04002400b808000018
:020000040000fa
:04002800b808000014
:020000040000fa
:04002c00b808000010
:020000040000fa
:04003000b80800000c
:020000040000fa
:04003400c8070000f9
:020000040000fa
:04003800b808000004
:020000040000fa
:04003c00b808000000
:020000040000fa
:04004000b8080000fc
:020000040000fa
:04004400b8080000f8
:020000040000fa
:04004800b8080000f4
:020000040000fa
:04004c00b8080000f0
:020000040000fa
:04005000b8080000ec
:020000040000fa
:040054006a08000036
:020000040000fa
:04005800b8080000e4
:020000040000fa
:04005c00b8080000e0
:020000040000fa
:04006000b8080000dc
:020000040000fa
:04006400b8080000d8
:020000040000fa
:04006800b8080000d4
:020000040000fa
:04006c00b8080000d0
:020000040000fa
:04007000b8080000cc
:020000040000fa
:04007400b8080000c8
:020000040000fa
:04007800b8080000c4
:020000040000fa
:04007c00b8080000c0
:020000040000fa
:04008000b8080000bc
:020000040000fa
:04008400b8080000b8
:020000040000fa
:040088007a080000f2
:020000040000fa
:04008c00b8080000b0
:020000040000fa
:04009000b8080000ac
:020000040000fa
:04009400b8080000a8
:020000040000fa
:04009800b8080000a4
:020000040000fa
:04009c00b8080000a0
:020000040000fa
:0400a000b80800009c
:020000040000fa
:0400a400b808000098
:020000040000fa
:0400a800b808000094
:020000040000fa
:0400ac00b808000090
:020000040000fa
:0400b000b80800008c
:020000040000fa
:0400b400b808000088
:020000040000fa
:0400b800b808000084
:020000040000fa
:0400bc00b808000080
:020000040000fa
:0400c000b80800007c
:020000040000fa
:0400c400b808000078
:020000040000fa
:0400c800b808000074
:020000040000fa
:0400cc00b808000070
:020000040000fa
:0400d000b80800006c
:020000040000fa
:0400d400b808000068
:020000040000fa
:0400d800b808000064
:020000040000fa
:04010800b808000033
:020000040000fa
:04010c00b80800002f
:020000040000fa
:04011000b80800002b
:020000040000fa
:04011400b808000027
:020000040000fa
:04011800b808000023
:020000040000fa
:04011c00b80800001f
:020000040000fa
:04012000b80800001b
:020000040000fa
:04012400b808000017
:020000040000fa
:04012800b808000013
:020000040000fa
:04012c00b80800000f
:020000040000fa
:04013000b80800000b
:020000040000fa
:04013400b808000007
:020000040000fa
:04013800b808000003
:020000040000fa
:04013c00b8080000ff
:020000040000fa
:04014000b8080000fb
:020000040000fa
:04014400b8080000f7
:020000040000fa
:04014800b8080000f3
:020000040000fa
:04014c00b8080000ef
:020000040000fa
:04015000b8080000eb
:020000040000fa
:04015400b8080000e7
:020000040000fa
:04015800b8080000e3
:020000040000fa
:04015c00b8080000df
:020000040000fa
:04016000b8080000db
:020000040000fa
:04016400b8080000d7
:020000040000fa
:04016800b8080000d3
:020000040000fa
:04016c00b8080000cf
:020000040000fa
:04017000b8080000cb
:020000040000fa
:04017400b8080000c7
:020000040000fa
:04017800b8080000c3
:020000040000fa
:04017c00b8080000bf
:020000040000fa
:04018000b8080000bb
:020000040000fa
:04018400b8080000b7
:020000040000fa
:04018800b8080000b3
:020000040000fa
:04018c00b8080000af
:020000040000fa
:04019000b8080000ab
:020000040000fa
:04019400b8080000a7
:020000040000fa
:04019800b8080000a3
:020000040000fa
:04019c00b80800009f
:020000040000fa
:0401a000b80800009b
:020000040000fa
:0401a400b808000097
:020000040000fa
:0401a800b808000093
:020000040000fa
:0401ac00b80800008f
:020000040000fa
:0401b000b80800008b
:020000040000fa
:0401b400b808000087
:020000040000fa
:0401b800b808000083
:020000040000fa
:0401bc00b80800007f
:020000040000fa
:0401c000b80800007b
:020000040000fa
:0401c400b808000077
:020000040000fa
:0401c800b808000073
:020000040000fa
:0401cc00b80800006f
:020000040000fa
:0401d000b80800006b
:020000040000fa
:0401d400b808000067
:020000040000fa
:0401d800b808000063
:020000040000fa
:100e0000afb020000e7f22000e018800000000001d
:100e1000000020000000e00002003200000120007d
:100e200020028800140007005a0107000000e000bb
:100e300003003a0080642300010020000200370014
:100e40000000200001002000810f7000010032002e
:100e500014000700000020000000e0000200320043
:100e60000000020000000000400c02000000000032
:100e70000040da000000fe004440a900401b2000b2
:100e80000000e0000300320000002000a001880004
:100e90004440a800000006008a1f78008b1f7800dd
:100ea0000000060091018800800478000000eb003b
:100eb0001a003700e284440032a0b4009905ba0059
:100ec000e284440032a0b4009906ba00e2844400ef
:100ed00032a0b4000006eb00476fde00fd07b20051
:100ee000636ce10003003a00ebff07000000eb0039
:100ef0000a003700606ce10004003a00005deb007e
:100f00008b05e900fdff3e00040037006168e10049
:100f1000010032000086eb000b00070019c7ba0081
:100f20001905ba000e04e00003003a000a00e000d0
:100f3000e0ff3a0000000600fe07b2009e018800b4
:100f40008a047800f5ff3700395dba008b05e900a7
:100f50000c003200295dba008b05e9000800320060
:100f60000c00e00003003a00e284440032a0b40028
:100f7000f5ff370019ddba008b05e900faff3a00ea
:100f80008904e800e184440032a0b40000000600b7
:100f90003600f800809fbe00829fbe00849fbe0086
:100fa000869fbe000000fa0050002000060e0700d9
:100fb000104680000000e00002003200db22a800a2
:100fc00001003700db22a900c140800030418000d1
:100fd000808f50000d003400804780000000e0004a
:100fe0000a003a002a0e07000000e0000700320065
:100ff000a0408000b1408000a0478800b147880031
:1010000020002000804788002a003700c14080006f
:1010100030418000808f50001e00340080478000e7
:10102000e20f50001b003a00a0478000b14780004b
:1010300065014000e0814800a0408000b140800090
:10104000800f5100818f59001a00310010002000dc
:1010500090478800d04780000000e800d047880013
:101060008000200080478800d04080000000e00021
:101070000300320010002000e04088000d0037001f
:10108000210020000000eb00430e07001c28ef00a9
:1010900008003700c140800030418000808f500040
:1010a00004003c000000eb00804788000000eb00db
:1010b000904788008460a9000080fa004f03be00ba
:1010c0004f02be004f01be004f00be003600f900c7
:1010d00000400600801f78000000fa000014800025
:1010e000c04088008560a9000080fa004f007800a9
:1010f000004006003600f800809fbe00829fbe00c0
:10110000849fbe00869fbe000000fa00c0108000d1
:10111000620060000000e000010032001822a90017
:10112000e01080002041880021418000a0022000c2
:10113000808f500006003a008000eb00d0032000b2
:10114000150e070020032000e10d07000000fe003f
:101150008700a9000080fa004f03be004f02be00c6
:101160004f01be004f00be003600f90000400600ef
:101170000040da000000fe00889fbe008004780076
:10118000404880000000e00004003a000e00070024
:101190000084eb000000e0000800350048488000b3
:1011a0000900e000050032000900440006000700c5
:1011b0000000e00001003d000084eb000800780022
:1011c0004f04be0000000600800078000100e0002f
:1011d00003003a00a090200040488800000005006d
:1011e0000080eb00a2b02000828f500002003e0081
:1011f000414888000000eb00000006000602ab003a
:10120000feff3a000642ab00fcff3a000662ab006c
:10121000faff3a000682ab00f8ff3a0009c2ab00c1
:10122000f6ff3a00000006000662a8000662ab0066
:10123000feff3a0008c2a90000108000000006006e
:101240008040780000c0eb008180fb001110880016
:1012500008e2ab0007003a0009c2ab00feff3a000b
:10126000e6ff07000040eb000802e20001003d003d
:10127000e0cfb30000000600211088003010880085
:10128000000006000602a800000006000642a800b2
:10129000000006008460a900e7006000f2ff28005b
:1012a000cc08dd00a3048000030161006800600039
:1012b0000281700071ff2f00a20488006204800088
:1012c00082806000810070006104880000000600d8
:1012d000001020001802b6000000e9004f00de00f8
:1012e0000000060017e2a9008f00a9008f20a900c6
:1012f0008700a9008720a900000006008700a90038
:10130000e70060008720a9000001780083ff2f001c
:101310000207b200040580008481610083817000af
:10132000e800600003058800c308de00f3f82f0022
:10133000e18060000405800084816100c808dd0050
:10134000830171000008b20003058800f2ef2f004e
:101350004700de007304800003016100610060004b
:10136000028170004900dd0072048800f1df2f0067
:101370007404800084806000810070007104880023
:1013800000000600f2108800b0108800c11088002c
:1013900000000600000005003200f80091018800fe
:1013a0000008bb00410424006210e1000400320088
:1013b000000220000010e1000a003a00510424005d
:1013c000013b88000500fc0051052000313b8800ee
:1013d000a10a2000313b880061e7a800000000005e
:1013e000000000003200f900000006003200f800a2
:1013f00060042400003b8800f2ff37003200f80050
:101400009101880041002400013b88000208bb00d4
:10141000ecff37003200f8009101880051002400f1
:10142000013b8800030120003218bb008301e90062
:10143000fdff3a00e3ff37003200f8009101880019
:1014400080027800620040003549ba00e080480020
:101450003204e0000410a700100032008301e9000c
:101460000e0032002549ba003204e0000410a70043
:101470000a0032008301e900080032000408a300da
:10148000eeff320015c9ba003204e0000410a700d4
:10149000020032008301e900e8ff3a003200f9005f
:1014a000000006000000e0002f003200c0017800bc
:1014b000e38f51002c0036000308a3002a003a00f5
:1014c000014880000100e00002003200810f50005e
:1014d0000400310011009800004888001600370011
:1014e00082007800110190000200e000020032004a
:1014f000800f5100faff3900110278008482400009
:10150000850f500018003900808f520003003a0008
:101510008308420001007800070037000200e00065
:101520000300320083014000830f51000e00390098
:101530001200980090009800900090000100e000d8
:101540000900320010014000828f500006003a006e
:10155000e28f20000009eb00100178001108410023
:10156000910090001100980000000600889fbe00c6
:1015700000047800f14780000100e0000200320022
:10158000010078000d003700014880000090200025
:1015900004003700910f5400250036000180e80058
:1015a000910090000100e000faff3a0010003700bf
:1015b000920f54001e0036000280e80010017800ef
:1015c0000200e000faff3a001101780001488000b3
:1015d0000090200004003700910f540014003600e2
:1015e0000180e80091009000828f5000faff3a00dd
:1015f00039488000888f5400010031008804780049
:10160000090078008e0007000000e00004003a00a6
:10161000888f5400050032008904d100f5ff37009f
:10162000091878009fff0700d2ff37000000eb0089
:101630004f04be0000000600881f780063044000cd
:101640000800a1008000eb00800f5400210036004c
:10165000e30f540001003e0048002000080078001d
:10166000c2ff07008000eb000000e000190032001c
:10167000900078009101780064815100880f51003a
:1016800003003100110190000208780007003700c4
:101690000881400002087800910190001301980031
:1016a00010017800110914008808780010017800f2
:1016b0000000eb000200e000040032009201900004
:1016c0000300e000010032000280e800f0478800db
:1016d0008180e800010078004f04780000000600d7
:1016e000889fbe00804180000000e00001003200c1
:1016f00000000100904180000000e0000100320085
:1017000000000100e08220001004e00022003a0006
:10171000104880002148800088002000d260260008
:101720009301200050000700f2352f00e3c623008c
:1017300000004100818049000804e900f7ff3a00f9
:10174000488320000908200088844400d2602600d5
:101750009301200044000700f2352f00e3c6230068
:10176000000041008180490000acbe00890f540098
:10177000f6ff3a001048880021488800a045800004
:10178000b1458000a0418800b141880011c0b3007c
:10179000e082200001487800d260260093012000fa
:1017a00010488000214880002f000700f2352f00ec
:1017b000e3c62300000241008182490014488800ea
:1017c0002548880040832000100078007f016000d9
:1017d0004211dd0080832000020140001200be00a3
:1017e000a0418800b14188000489be000100780052
:1017f00000f0a1004f04be0000000600889fbe005c
:1018000000047800804180000000e0000100320008
:1018100000000100e08220000048eb0090418000c1
:101820000000e00001003200000001008004eb0035
:1018300018488800294888004f04be0000000600b0
:10184000800078000000eb000100e000050034009b
:101850000100780048fe0700e10f400001003a0057
:101860000000eb0000000600020ab900001bb900ee
:101870000200b80081004200810043000000060021
:101880000000fa00a70b0700bf0b07002f0c070092
:10189000490d0700a50d0700e50c0700c14a2b0004
:1018a000504b2b003a100700114c2b002000200059
:1018b0004710070090000700fbff37000200fa0006
:1018c000000f78001e007800e30f5000090032007e
:1018d0001e007800e40f5000060032001e00780061
:1018e000e70f5000030032001e007800e60f5000a2
:1018f00002003a0010002000010037000000eb0059
:101900000080fa00000006000800fa002007980096
:1019100031079800ae00900000fc200000806000bd
:10192000c680de003e009000e10f500002003a0049
:1019300000042000010037000000eb00008f400091
:101940009e007800b0012000130c0700ae0090004c
:10195000f0032000808060003e009000e10f500006
:1019600002003a0000042000010037000000eb00f4
:1019700000804000100798009e009000c0012000e9
:10198000050c07000080fa00000006000600fa00bf
:1019900051468000110798001e0090000000400092
:1019a00025ff0700304688001e0090000000400020
:1019b00021ff07004046880090468000000040005c
:1019c0001dff0700804688000000eb00000f780034
:1019d00015003700c14c2b0020002000fc0f070031
:1019e00020079800314680001e007800000040006b
:1019f00000804000ae00900001087800a14d2b004f
:101a000020002000f20f07002007980041468000c8
:101a10001e0078000000400000804000ae009000f2
:101a2000010878001e0fe8001e0090009e0078005c
:101a3000808f5000e7ff3500904680000000e000f6
:101a4000110034000000eb00000f78000b0037009d
:101a5000614e2b0020002000dd0f070020079800ba
:101a6000814680001e007800000040000080400099
:101a7000ae009000010878001e0fe800904680003c
:101a80009e0f5000f2ff3c000080fa0000000600ac
:101a90000000fa00100020005f1007000080fa002c
:101aa000000006000200fa000000eb00000f7800c2
:101ab0000b00370010002000571007006041800025
:101ac000830b07000000eb0053100700604180000b
:101ad000411f2000008050007d0b07001e0fe80012
:101ae000300620009e007800808f5000f1ff340007
:101af0000080fa00000006003200fa00001f980083
:101b00000000eb009d0c07004200dd003041880022
:101b100020002000990c070060418800a040800050
:101b2000b14080000000780034ff07000e189000dc
:101b30006101b900b0fe2f00f1ff2f00020040004c
:101b4000838048001201200003002000820f500013
:101b5000838f5800b3013e00006001001100370080
:101b60002000370021003700220037002300370013
:101b700024003700540037006f0037007000370032
:101b80007100370072003700730037008b00370098
:101b9000bb003700ed0037001f013700440137005c
:101ba0006b013700614f2b0010002000880f0700e9
:101bb00020079800d14f2b0020002000840f070041
:101bc0003007980041502b0010002000800f0700c4
:101bd000400798004e019000be0090002e0090003b
:101be000a5010700860207009d013700a10207003a
:101bf0009b013700440307009901370060418000d2
:101c00000a030700a1502b00b0502b00600f070003
:101c100041512b00100020006d0f07005007980065
:101c20005e0090000000e000020032002000200072
:101c300001003700a0002000c0458800b00020004f
:101c4000d04588006006200040418800e1512b000b
:101c5000100020005e0f0700f046880020002000e2
:101c60005046880049ff0700f1522b002000200059
:101c7000570f070020478800e1532b002000200069
:101c8000530f070050478800b1542b00100020006c
:101c90004f0f0700614180000180b900000078000b
:101ca0006041880071552b0020002000480f07007c
:101cb000600798006e019000410120004001200063
:101cc000380707006601370071562b0020002000fe
:101cd0003f0f0700700798000000eb0030179800d6
:101ce0001000200040179800200020005017980096
:101cf00030002000601798007000200070179800d6
:101d00000000eb00000f7800070037001e0078008d
:101d1000000040000000470030109000fe009000de
:101d2000760107001e0fe8001e007800e40f500047
:101d3000f6ff34004a01370055ff0700480137001d
:101d400058ff070046013700040707004401370029
:101d50004f0a07004201370011572b00b0502b00eb
:101d60000b0f070040062000c045880040062000f9
:101d7000404188000000eb00f04688002000200071
:101d80005046880001ff07005000200020478800cf
:101d9000800020005047880081572b002000200041
:101da0000b0f0700000f98000e099000410620005d
:101db00040012000fb06070029013700a1502b003d
:101dc00080582b00f20e070041512b00100020001c
:101dd000ff0e0700100f98001e0890000000e000a2
:101de00002003200200020000100370030002000f7
:101df000c04588003006200040418800e1512b009a
:101e000010002000f20e0700f0468800200020009d
:101e1000504688000000eb0090468800dbfe07007b
:101e2000f1522b0020002000e90e07002047880017
:101e3000e1532b0020002000e50e070050478800ea
:101e4000b1542b0010002000e10e0700614180001a
:101e50000180b900000078006041880071552b00b6
:101e600020002000da0e0700200f98002e099000b5
:101e70004101200040012000ca060700f800370099
:101e8000a1502b0080582b00c10e070041512b00a0
:101e900010002000ce0e0700300f98003e08900082
:101ea0000000e000020032002000200001003700a6
:101eb000a0002000c0458800b0002000d045880068
:101ec000e006200040418800e1512b001000200076
:101ed000bf0e0700f0468800200020005046880012
:101ee0000000eb0090468800a8fe0700f1522b008e
:101ef00020002000b60e070020478800e1532b0089
:101f000020002000b20e070050478800b1542b007b
:101f100010002000ae0e0700614180000180b90072
:101f2000000078006041880071552b0020002000df
:101f3000a70e0700400f98004e09900041012000b5
:101f40004001200097060700c5003700d1582b003c
:101f500060592b008e0e070041512b00100020000d
:101f60009b0e0700500f98005e0890000000e000f4
:101f7000020032002000200001003700a0002000f5
:101f8000c0458800b0002000d045880060062000d1
:101f900040418800e1512b00100020008c0e07000a
:101fa000f046880040002000504688000000eb000a
:101fb0009046880075fe0700f1522b00200020009b
:101fc000830e070020478800e1532b0020002000eb
:101fd0007f0e070050478800b1542b0010002000ee
:101fe0007b0e0700614180000180b900000078008d
:101ff0006041880071552b0020002000740e0700fe
:10200000600f98006e0990004101200080022000be
:102010006406070092003700615a2b00b05a2b006b
:102020005b0e070020002000c04588000000eb0088
:10203000d0458800e001200040418800315b2b0042
:1020400010002000620e0700904688000000eb00a0
:10205000f046880020002000504688004bfe070014
:102060000000eb0020478800400020005047880017
:10207000b1542b0010002000550e07006141800074
:102080000180b900000078006041880071552b0084
:10209000200020004e0e0700700f98007e0990006f
:1020a00041012000400120003e0607006c0037007f
:1020b000a1502b00d05b2b00350e07002000200024
:1020c000c04588000000eb00d045880010032000c8
:1020d0004041880020002000904688000000eb006e
:1020e000f0468800200020005046880027fe0700a8
:1020f000f1522b0020002000350e070020478800f9
:10210000e1532b0020002000310e070050478800cb
:10211000b1542b00100020002d0e070061418000fb
:102120000180b900000078006041880071552b00e3
:1021300020002000260e0700001798000e119000c6
:102140004106200040012000160607004400370029
:10215000615c2b0060592b000d0e070041512b00d4
:10216000100020001a0e0700101798001e10900093
:102170000000e000020032002000200001003700d3
:10218000a0002000c0458800b0002000d045880095
:102190006006200040418800e1512b001000200023
:1021a0000b0e0700f04688006000200050468800b3
:1021b00060002000704788000000eb009046880017
:1021c000f2fd0700f1522b0020002000000e070056
:1021d00020478800e1532b0020002000fc0d070061
:1021e00050478800b1542b0010002000f80d070064
:1021f000614180000180b9000000780060418800e2
:1022000071552b0020002000f10d070020179800c9
:102210002e11900041012000c0032000e1050700bd
:102220000f0037008e189000110798000600370045
:10223000810020001e009000300007001e0090006a
:102240000000e800100798000e189000e40040001d
:102250001e009000808f5000f5ff3c000000000041
:10226000304680008ffc0700404680008dfc070050
:102270000080fa00000006000600fa00000f780057
:1022800011079800220798008e0b0700970b070094
:10229000f05c2b00650b07000001eb0061002000e3
:1022a0001e007800210d07001200200061002000b0
:1022b0001e0090001d0d07001e0090000000e900a8
:1022c000e409070001003700000000001e80ea005a
:1022d0001b0a07002e0090000000e000faff3a0001
:1022e000401f20007a090700f0002000140a0700b0
:1022f000401f200076090700f4ff37001400fa00a1
:10230000000f9800110f9800401f20001007980040
:10231000a000200020079800803e20003007980091
:10232000300c2000400798000000eb00000f780000
:10233000ad003700630b07006c0b0700d05d2b006e
:102340003a0b070011c0b3000040eb00710b07000f
:10235000305e2b00350b07001e00e8001200200045
:1023600071002000f10c07001e00e80080007800da
:1023700030002000880907000001eb006100200008
:102380000e089000e90c07008e0890002000200045
:10239000810907000e089000ef0f50000300340081
:1023a0000e08900070005000010037000e089000e9
:1023b000500798000e089000ef0f500002003c00fc
:1023c0001000200001003700400020006007980046
:1023d0000e089000ef0f500002003c00200020008b
:1023e0000100370080002000700798005e00900018
:1023f000980907006e0090000080ea00d0090700ed
:102400001e00900032090700e702a800ee009000cd
:102410007e009000010070000080ea00c8090700fb
:102420000e089000700060004480de0000407800dc
:10243000614060000080fb00610060004900dd0039
:10244000311780000190a100010070003017880052
:102450003e019000706626000090b9008180d10096
:102460004f90de0000805000190907000e08900010
:10247000680060004380de0000407800614060003a
:102480000080fb00610060004900dd003117800022
:102490000190a10001007000301788003e019000fb
:1024a000706626000090b9008180d1004f90de0058
:1024b00000805000060907000e08900064006000cc
:1024c0004280de0000407800614060000080fb0038
:1024d000610060004900dd00311780000190a1001b
:1024e00001007000301788003e01900070662600e1
:1024f0000090b9008180d1004f90de000080500034
:10250000f30807000e089000620060000080d10010
:1025100000407800614060000080fb0061006000c6
:102520004900dd00311780000190a100010070001a
:10253000301788003e019000706626000090b900b8
:102540008180d1004f90de0000805000e00807003d
:102550000e0890000040780061406000614060001b
:10256000614060000080fb00610060004900dd0008
:10257000311780000190a100010070003017880021
:102580003e019000706626000090b9008180d10065
:102590004f90de00808050004e0090000080500080
:1025a000cb0807007e0090000080ea006409070065
:1025b0004e009000c6080700e722a900f0002000a6
:1025c0005f090700e702a9009e089000803e2000f6
:1025d0000088b900800078001e0090000080500044
:1025e000bb0807001e0fe8002e0090009e00780038
:1025f000808f50004fff35000080fa000000060079
:102600000600fa00c0408000200798002e019000cc
:10261000b04721000090b900c388de004f90de0073
:10262000008f50002e009000b14721000181b900b9
:102630004399de00cf80de000101510041062000f9
:102640000191b90082007800010050001007980045
:102650009e00780070012000cf0807009e009000c7
:1026600080012000cc080700200320009808070004
:10267000e4ff37000200fa00f0f32f00f0168800a4
:102680000000eb00000f78001e00a2001e00780082
:1026900000407800614060000080fb006100600045
:1026a0004600dd00011780000160a10001007000fc
:1026b000001788000000000000000000000000007b
:1026c0001e00780000407800614060000080fb0040
:1026d000610060004800dd00411680000180a1001b
:1026e000010070004016880000000000000000009b
:1026f000000000001e00780000407800614060008b
:102700000080fb00610060004900dd004116800090
:102710000190a10001007000401688000000000038
:1027200000000000000000001e007800004078005b
:10273000614060000080fb00610060004700dd0038
:10274000011780000170a1000100700000178800cf
:102750000000000000000000000000001e007800e3
:1027600000407800614060000080fb006100600074
:102770004600dd00011780000160a100010070002b
:1027800000178800000000000000000000000000aa
:102790001e00780000407800614060000080fb006f
:1027a000610060004e00dd001116800001e0a10014
:1027b00001007000101688000000000000000000fa
:1027c000000000001e0078000040780061406000ba
:1027d0000080fb00610060004c00dd00a11680005d
:1027e00001c0a10001007000a016880000000000d8
:1027f00000000000000000001e007800004078008b
:10280000614060000080fb00610060004d00dd0061
:10281000a116800001d0a10001007000a016880060
:10282000a00f20002a08070097ff37000400fa00d5
:102830000000eb00d047880030418000040d070005
:102840000000eb00000f78000000eb00100798007c
:102850001c0a0700250a0700a05e2b00f3090700e9
:10286000803e2000010020008040880091408800c8
:102870000100370000000000d14780001e009000da
:10288000808f500016003600824080009340800008
:10289000301f200001002000800f5100818f59005f
:1028a0000900360010002000db0c07001028ef00a4
:1028b0001228ef001e0fe8001e0078001200200012
:1028c000c1002000990b0700d14780001107980034
:1028d0001e0090000001eb00b1002000930b0700e8
:1028e000604180006101b90080408000914080001b
:1028f000800f5100818f5900deff3e000000eb0089
:10290000c50c0700dcff37000c00fa00a240800075
:10291000b340800022079800330798001700370063
:102920000000eb00000f78000000eb00100798009b
:1029300005003700c04080001e0f40001e009000c0
:102940000000e800100798001e009000ee0f5000f5
:10295000f8ff34009e007800f0002000800178002d
:10296000110009008300d800400798004e00900035
:10297000b70c0700401f2000d50707002e0190006c
:10298000be01900000712200010020000201400001
:1029900083814800a0408000b1408000800f51003a
:1029a000818f5900deff3e0030418000a80c0700f7
:1029b000515f2b0030002000050c070050079800e5
:1029c0005e009000a20c07005e0090004280de00d6
:1029d000800078000000eb00c90807008000eb00d1
:1029e000d0032000ec0707000000fe000080fa0082
:1029f000000006000800fa00100798002107980060
:102a0000320798001e009000e10f500003003200d2
:102a10001e009000e20f500011003a002e009000be
:102a2000ef0f5000030034002e00900070005000a3
:102a3000010037002e009000060807002e009000cd
:102a4000ef0f500002003c00e0ff2f0001003700b4
:102a5000b0ff2f003a080700401f20009c07070026
:102a60001e009000e30f500010003a002e0090006e
:102a7000ef0f5000030034002e0090007000500053
:102a8000010037002e009000f20707002e00900092
:102a9000ef0f500002003c00e0ff2f000100370064
:102aa000b0ff2f0026080700af0037001e0090007f
:102ab000e20f500008003200e40f50000a0032001c
:102ac000e10f50000c003a00410120003e00900050
:102ad000dc0c070008003700610420003e00900075
:102ae000d80c070004003700a10520003e0090002c
:102af000d40c0700000000002e009000ef0f5000e3
:102b000002003c00c0ff2f000100370030ff2f0003
:102b10000b0807001e009000e40f50001800320060
:102b2000e40f500004003c000000e900e10f5000f9
:102b300021003e0003003700e50f50001600320070
:102b40001d0037002e0090005cfb07000000e00035
:102b50000400320090002000000f7800e722a80057
:102b600003003700a0002000000f7800db02a8005f
:102b7000ae0090001e007800870707000e003700a7
:102b800030052000000f7800ae0090001e00780095
:102b9000810707000800370050052000000f78006b
:102ba0002e0090004006b000800078001e007800e3
:102bb00079070700000000008040eb0030c0b30040
:102bc000540907001e009000e20f50001000320070
:102bd000e20f500003003c00e10f500006003200fd
:102be0001b003700e40f50000f003200e50f5000cb
:102bf000130032001600370010c3b30000090700ad
:102c0000a0468000800cb100720c07001000370055
:102c100020c3b300fa080700c0468000800cb10052
:102c20006c0c07000a00370030c3b300f40807003b
:102c3000e0468000800cb100660c070004003700fd
:102c400010478000800cb100620c070000000000fb
:102c50002e009000ef0f500002003c00d0ff2f002c
:102c60000100370070ff2f00b5070700800c20001f
:102c7000580c0700f0002000b1070700e722a90068
:102c80000000000000000000db02a90000000000be
:102c9000000000008000eb001e0078003e070700e7
:102ca0008040eb0030c0b3001a0907001e009000fe
:102cb000e20f500013003200e40f500020003200f9
:102cc000e10f500028003a00e10120003e00900092
:102cd0005c0c070040c6b300c9080700a04680008e
:102ce00080007800703e2000808f50001b003e0066
:102cf000a0468000813e200000805000350c070077
:102d000019003700010520003e0090004d0c07001f
:102d100040c4b300ba080700c046800080007800b5
:102d2000703e2000808f50000e003e00c0468000a4
:102d3000813e200000805000260c07000a0037006a
:102d4000f10520003e0090003e0c070020c5b300b6
:102d5000ab0807000000000003003700000000007f
:102d600001003700000000000080fa0000000600ab
:102d70000200fa00000f780011002000600120001e
:102d80000507070010002000a30b0700604180002a
:102d9000100c07000000eb009f0b07000a28ef0053
:102da0009e00780070002000fb06070000408000b5
:102db0000000e80000408800004080000001eb00b7
:102dc00051002000590a07000080fa0000000600a8
:102dd0000200fa00000f78000a28ef009e00780039
:102de00040002000ec060700204080000000e800c2
:102df0002040880020408000120020005100200068
:102e00004a0a0700004780000001eb0080007800bc
:102e100050002000f7fe070000fa2000ed0b07002d
:102e20000080fa00000006000200fa00000f78009f
:102e3000504080000000e800504088009e0078006c
:102e400060002000d4060700104080000000e80069
:102e500010408800104080000001eb00910020002d
:102e6000320a07000080fa00000006000a00fa009b
:102e7000881f7800200798003107980042079800c3
:102e80000000eb00000f7800414180004006200068
:102e9000808f500004003200414180006006200015
:102ea000808f500002003a00803e20000100370071
:102eb000401f2000100798000000eb00c04788006a
:102ec00040418000fe0f500042003a001028ef0001
:102ed0001228ef000200370090478000c0478800aa
:102ee0008240800093408000301f200001002000bd
:102ef000800f5100818f590003003e00c0478000c1
:102f00000000e000f4ff3200c04780000000e00055
:102f100026003a002e00900068fa07000000e0004a
:102f20000b003a0011002000500020009a06070014
:102f3000304080000000e8003040880030408000d1
:102f40001200200091002000f80907008d003700d2
:102f500010002000b4ff0700e1f907003100200055
:102f600001017800110009000200d8008000fd0076
:102f70000000e0007e003a00110020006001200007
:102f80008506070010002000230b07001100200019
:102f90008000200080060700604180008d0b070044
:102fa0000000eb001c0b0700760037002e0090009d
:102fb00042fa07000000e00003003a001000200081
:102fc00083ff07006f0037001000200068ff070034
:102fd0006c0037001028ef001228ef0002003700c5
:102fe00090478000c04788001e0090006101b90032
:102ff0008040800091408000800f5100818f5900f7
:1030000003003600c04780000000e000f4ff3200fb
:10301000c04780000000e00044003a002e0090000d
:1030200026fa0700000478003e00900023fa07000b
:10303000800f54000d003a00ce0090005000200098
:1030400055060700304080000000e800304088004e
:10305000304080001200200091002000b3090700da
:1030600050002000000f7800460037004e0090000e
:103070006dff070060002000000f780040418000d5
:10308000ea0f500014003200414180003006200059
:10309000808f50001000320041418000a0052000c8
:1030a000808f50000c0032004141800080072000da
:1030b000808f50000800320041418000400620000f
:1030c000808f500004003200414180001003200036
:1030d000808f500028003a0081f90700310020005d
:1030e00001017800110009000200d8008000fd00f5
:1030f0000000e00022003a001100200060012000e2
:103100002506070010002000c30a07001100200058
:103110008000200020060700604180002d0b070082
:103120000000eb00bc0a0700160037002e009000dc
:10313000e2f90700000478003e009000dff9070084
:10314000800f540005003a004e00900020ff070059
:1031500040002000000f78000a0037004e00900069
:1031600003ff070070002000000f78000500370003
:1031700000000000030037000000000001003700dd
:10318000000000001e0078004f0478000080fa0064
:10319000000006000a00fa00300798004107980076
:1031a0004141800010032000808f500055003a00fc
:1031b0000000eb0010079800100020002007980086
:1031c00047f9070061006000004078000004e0005b
:1031d0000400320010002000100798000000eb00ef
:1031e00020079800401f2000fa0a0700814680004f
:1031f0001e00900000004000008040001000780099
:103200004e0190008000780030002000f9fd07009a
:10321000401f2000ef0a0700814680001e0090003a
:103220000000400000804000100078004e01900037
:103230008000780040002000eefd07008040eb0099
:1032400030c0b300b3070700814680001e00900025
:103250000000400000804000100078004200200084
:10326000800078003e00900000ff0700000f78000b
:10327000401f2000d70a07001e007800e50f50000d
:10328000030032001e007800e60f50001d003a00d7
:10329000814680002e009000000040000080400029
:1032a000100078004e01900080007800300020006f
:1032b000d0fd0700401f2000c60a0700814680009d
:1032c0002e009000000040000080400010007800b8
:1032d0004e0190008000780040002000c5fd0700ee
:1032e000814680002e0090000000400000804000d9
:1032f0001000780052002000800078003e0090000e
:10330000dafe07000080fa00000006000600fa005e
:10331000000f780011079800220798000080fa003b
:10332000000006000400fa0010079800e146800043
:10333000700c2000808f50002d003400803e200053
:10334000a40a0700000f7800804680001000780073
:103350001e0190008000780030002000a5fd0700cd
:10336000401f20009b0a07001e0f70008040eb00ea
:1033700030c0b300670707001e0078000000e000bf
:1033800010003200f0002000ed05070011002000c1
:10339000400520008005070010c4b300180707008f
:1033a000004780000001eb00800078005000200002
:1033b00090fd0700404080000000e8004040880089
:1033c0000b00370020c5b3000d07070041062000a1
:1033d0001e0090009b0a07008046800010007800c5
:1033e0001e019000800078004000200081fd070051
:1033f0000080fa00000006001000fa003007980074
:1034000041079800520798006307980074079800d6
:10341000fe009000a00320005f0507007e009000e2
:1034200000f0a7000000ea000000ea004f00de0004
:10343000800078001004200057050700410020009c
:103440007e0090007f0a0700803e2000610a07008e
:10345000510020007e0090007a0a0700007d2000c5
:103460005c0a0700a10020007e009000750a07009a
:10347000401f2000570a0700210120007e00900015
:10348000700a07007e019000be009000100020002e
:1034900058fd070040418000fe0f5000030032003d
:1034a00011032000810f50000d003a00010520009b
:1034b0007e009000630a070020478000e10f500063
:1034c000ac0034002047800080007800803e20005f
:1034d0000088b900000078003e0a0700a600370007
:1034e000204780000000e00003003a00800c20002c
:1034f000380a07009a003700810220007e00900001
:10350000500a0700401f2000320a0700a1022000d5
:103510007e0090004b0a0700401f20002d0a070084
:10352000810c20007e009000460a070020478000a2
:10353000e40f500009003c00204780008000780024
:10354000803e20000088b9008000780000832f00b2
:10355000008040001f0a07007900370041418000c9
:10356000a0052000808f50001800320041418000eb
:10357000d0052000808f50001400320041418000af
:10358000f0052000808f5000100032004141800083
:1035900000062000808f50000c0032004141800066
:1035a00080072000808f50000800320041418000d9
:1035b000d0072000808f500004003200414180007d
:1035c00020082000808f50001c003a00401f20007f
:1035d000000a070061468000704680000101780003
:1035e000800078007e00900048ff0700e10d200079
:1035f0007e009000130a070020478000e70f50006c
:103600004f0036002047800080007800803e200078
:103610000088b9008000780080c72e00008040003c
:10362000ec090700f10320007e009000050a070066
:10363000401f2000e709070041003700803e2000be
:10364000e4090700210d20007e009000fd0907001d
:103650002047800080007800401f20000088b900cb
:103660008000780000832f0000804000d909070007
:10367000610e20007e009000f209070020478000c4
:10368000eb0f500017003400007d2000d109070027
:10369000b10e20007e009000ea090700401f2000c4
:1036a000cc090700010f20007e009000e50907000b
:1036b000401f2000c7090700510f20007e00900026
:1036c000e009070021478000401f20000088b90062
:1036d0008000780040a82e0000804000bd0907004f
:1036e000080037002047800080007800401f20003d
:1036f0000088b90080007800c0632f00008040007f
:10370000b4090700a10f20007e009000cd0907003a
:10371000401f2000af090700f10f20007e0090003d
:10372000c8090700401f2000aa090700d103200094
:103730007e009000c3090700401f2000a509070074
:10374000f10320007e009000be090700401f20000a
:10375000a0090700110420007e009000b9090700ad
:103760007e019000ce00900020002000a1fc070008
:1037700001003700000000000000eb00000f78009f
:1037800090468000e10f500011003200e20f50001f
:10379000170032000000e00019003a00803e2000cf
:1037a0008c0907008040eb0030c0b30059060700c9
:1037b00020c5b3001206070012002000ce009000c2
:1037c0003e009000a9fd0700000f78000c003700b4
:1037d0007e009000d3fe070012002000ce00900073
:1037e0003e009000a1fd0700000f780004003700a4
:1037f000fe0090003e00900066fe07000000000002
:10380000803e2000730907000140800030408000a6
:103810008080400010408000808040002040800078
:1038200080804000404080000080400020079800d9
:1038300012002000d10020002e009000bb070700de
:103840000140800030408000008040000000e00027
:10385000150034000140800030408000808040002e
:10386000400620000088b900800078002e009000fb
:1038700000017800110009008200d8006040880033
:103880006040800031062000810f500001003400ac
:103890003006200060408800604080000001eb009e
:1038a000d1002000a10707008040eb0030c0b3002a
:1038b0001806070090c4b300d10507001e00780069
:1038c000e40f500007003a00f04680000000a0001e
:1038d000f0468800504180000000e8005041880018
:1038e00003003700f04680000000a100f046880089
:1038f00050478000e30f5000120036005047800010
:1039000064005000100798000500370000a62e0044
:10391000300907001e009000c003b1001007980096
:103920009e009000c0032000808f5000f7ff3e00f3
:103930009e009000803e20000088b90000007800c2
:10394000240907008000eb00b003200012040700e8
:10395000d10b07000080fa00000006000200fa0008
:1039600060418000ba08070051602b003000200041
:1039700017080700000f780060418000b4080700b6
:103980009e00780020002000dd0407008000eb008e
:10399000d0032000000407000000fe000080fa00b1
:1039a000000006001c00fa00300f9800410f98003c
:1039b000520f98000000eb00000f78000000eb00b1
:1039c00010079800d04580005007980040418000c3
:1039d0008000780030032000ef0307001603370053
:1039e00011002000d0032000eb03070041612b00f1
:1039f00050622b00e6070700120020001100200093
:103a00001e009000490707000828ef004040800092
:103a100030408800304080002040880020408000f6
:103a200010408800104080000040880070478000ef
:103a30000000400000f70700600798000000eb005e
:103a4000700798000000eb00000f98000000eb00ea
:103a5000000f7800ed023700410020006e0090005a
:103a60009a0807000000eb0040079800d9023700d1
:103a70004e00900000004000ee00900000804000ea
:103a800010007800100f98004041800021032000b2
:103a9000810f50000a003e0011032000810f5000ea
:103aa0004d003100f40f500016003200fe0f5000a0
:103ab00049003200ea0f50002d0032002f0137007c
:103ac00041062000810f500088003200410620008e
:103ad000810f500004003e0031062000810f50008d
:103ae000680032002501370061062000810f500078
:103af000a0003200e1062000810f50004600320095
:103b00001e0137001e0890000000e0000300320094
:103b10001e089000e20f500003003a00304680007b
:103b20001000780003003700304680000080e80075
:103b300010007800200798001e089000e10f500048
:103b4000030032001e089000e20f500003003a000c
:103b50004046800010007800030037004046800097
:103b60000080e8001000780030079800030137005b
:103b70001e0890000000e000030032001e089000c4
:103b8000e20f500003003a00304680001000780039
:103b900003003700304680000080e8001000780005
:103ba0002007980030468000900078002e0090009a
:103bb000808f500003003a004046800010007800db
:103bc00003003700404680000080e80010007800c5
:103bd00030079800e90037001e0890000000e00060
:103be000030032001e089000e20f500003003a006c
:103bf0003046800010007800030037003046800017
:103c00000080e80010007800200798000000eb001a
:103c100030079800d90037001e0890000000e0002f
:103c2000030032001e089000e20f500003003a002b
:103c300030468000100078000300370030468000d6
:103c40000080e80010007800200798001e0890000f
:103c5000e10f5000030032001e089000e20f5000f8
:103c600003003a004046800010007800030037004f
:103c7000404680000080e80010007800300798007f
:103c8000be0037001e0890000000e0000300320074
:103c90001e089000e20f500003003a0030468000fa
:103ca0001000780003003700304680000080e800f4
:103cb00010007800200798003046800090007800bf
:103cc0002e009000808f500004003a004046800093
:103cd0000080e800100078000200370040468000b5
:103ce0001000780030079800a40037001e089000ec
:103cf0000000e000030032001e089000e20f5000b8
:103d000003003a00304680001000780003003700be
:103d1000304680000080e8001000780020079800fe
:103d200030468000900078002e009000808f500078
:103d300004003a00404680000080e800100078004f
:103d400002003700404680001000780030079800dd
:103d50001e007800ef0f500003003400b000200078
:103d6000d0458800850037000000eb00d045880072
:103d700082003700f046800063006000e30f5000cf
:103d800003003a0050418000e20f50007a003400f6
:103d900050468000e40f50001f003200e60f500034
:103da0004e003200e20f500071003a001e089000f1
:103db0000000e000030032001e089000e20f5000f7
:103dc00003003a00304680001000780003003700fe
:103dd000304680000080e80010007800200798003e
:103de0001e089000e10f5000030032001e089000f2
:103df000e20f500003003a004046800010007800b7
:103e000003003700404680000080e8001000780082
:103e10003007980056003700314680001e08900099
:103e200000004000008040009000780021079800ca
:103e30001e089000e10f5000030032001e089000a1
:103e4000e20f50000b003a009e007800700028003e
:103e5000008060000000e00004003d000000e90078
:103e600081ff2f00008070000000e800e30f500089
:103e7000110034001e0890000000e0000300320032
:103e80001e089000e30f50000f003a009e007800db
:103e900070002800008060000000e00004003d0089
:103ea0000000e90081ff2f00008070000000e800a2
:103eb000e30f5000040034004046800010017800f9
:103ec000320798002a003700404680000080e80052
:103ed00090007800310798002500370031468000b7
:103ee0001e08900000004000008040001001780093
:103ef000220798001e089000e20f500008003c00c6
:103f00009e007800c0002000000178001100090028
:103f10008200d8008000fd00e50f50000b00340047
:103f20001e089000e20f50000c0034009e00780044
:103f3000c000200000017800110009008200d800b4
:103f40008000fd00e50f5000040034004046800072
:103f50009000780031079800050037004046800047
:103f60000080e8001001780032079800000000008f
:103f70002a28ef0001003700000000008040eb001d
:103f80000040eb006304070041492b002e00900025
:103f900000804000104078001904070041492b00c0
:103fa0003e0090000080400010407800140407009c
:103fb000c04580006101b8000080eb008080eb000c
:103fc0000200400083804800f2042000030020002b
:103fd000820f5000838f580073013e000060010083
:103fe000520037004e0037006f0137006e01370076
:103ff0006d0137006c0137006b0137006a01370033
:104000006901370052003700670137006601370049
:104010006501370064013700630137006201370032
:1040200061013700600137005f0137005b00370036
:10403000620037005c0137005b0137005a0137002e
:1040400082003700890037005701370056013700da
:1040500055013700a90037005301370052013700de
:1040600051013700500137004f0137004e01370032
:104070004d0137004c0137004b013700c3003700ba
:1040800049013700ca0037004701370046013700b1
:10409000d8003700440137004301370042013700a0
:1040a00041013700400137003f0137003e01370032
:1040b0003d0137003c0137003b0137003a01370032
:1040c0003901370038013700370137003601370032
:1040d0001201370034013700330137003201370055
:1040e00031013700300137002f0137002e01370032
:1040f0002d0137002c0137002b0137002a01370032
:104100002901370028013700270137002601370031
:10411000250137002401370023013700070137004c
:104120000000eb00d04588001f0137001e0078001a
:10413000610060000000e000020032005e009000bc
:10414000010037000000eb00d04588001601370061
:104150003e089000000040000001780070662600d4
:104160000090b900c288de004f90de000080500051
:10417000200f98003e0890009e0050002e089000ee
:10418000808f500002003c005e009000010037006c
:104190000000eb00d0458800030137002e0090009e
:1041a000c6f507000000e000020032001000200009
:1041b0000100370020002000204688009e00780083
:1041c0005000200000017800110009008200d80092
:1041d0008000fd00e20f500012003200e20f50009c
:1041e00005003c000000e00008003200e10f500034
:1041f00009003200ec003700e30f50000c003200e1
:10420000e40f50000d003200e70037000000eb0023
:10421000d04588000c003700b0052000d04588004c
:1042200009003700c0052000d0458800060037008f
:10423000d0052000d045880003003700e0052000ad
:10424000d045880000000000d70037002e00900005
:104250009af507000000e000020032001000200084
:104260000100370020002000204688009e007800d2
:104270005000200000017800110009008200d800e1
:104280008000fd00e20f500012003200e20f5000eb
:1042900005003c000000e00008003200e10f500083
:1042a00009003200c0003700e30f50000c0032005c
:1042b000e40f50000d003200bb0037000000eb009f
:1042c000d04588000c00370000062000d04588004b
:1042d0000900370010062000d0458800060037008e
:1042e00020062000d045880003003700300620005b
:1042f000d045880000000000ab0037009e00780029
:104300005000200000017800110009008200d80050
:104310008000fd00e20f500012003200e20f50005a
:1043200005003c000000e00008003200e10f5000f2
:10433000090032009c003700e30f50000c003200ef
:10434000e40f50000d003200970037000000eb0032
:10435000d04588000c00370090072000d045880029
:1043600009003700a0072000d0458800060037006c
:10437000b0072000d045880003003700c0072000a8
:10438000d045880000000000870037002e00900014
:104390004af507000000e000020032001000200093
:1043a0000100370020002000204688007e003700f2
:1043b0002e00900041f507000000e00002003200ee
:1043c0001000200001003700200020002046880057
:1043d0001e007800610060000000e0000200320072
:1043e0005e009000010037000000eb00d04588001f
:1043f0006d0037001e007800e30f50000b00340002
:104400001e007800e70f500008003c002e009000ce
:104410002af507000000e000040032003e00900092
:1044200026f507000000e0002a003a001e00780090
:10443000e70f50000b0034001e007800eb0f500017
:1044400008003c002e0090001cf507000000e00072
:10445000040032003e00900018f507000000e00064
:104460001c0032001e007800eb0f50000b003400df
:104470001e007800ef0f500008003c002e00900056
:104480000ef507000000e00004003a003e00900036
:104490000af507000000e0000e003a001e00780058
:1044a000ef0f5000140034001e007800f30f50008e
:1044b00011003c002e00900000f507000000e00015
:1044c0000d003a003e009000fcf407000000e00000
:1044d00009003a002e009000f8f407000000e00008
:1044e00002003200200020000100370010002000f0
:1044f000204688002c0037002e009000eff40700c3
:104500000000e0000200320010002000010037002f
:104510002000200020468800230037001e0890005d
:10452000e10f500002003c000000eb0001003700ea
:1045300010092000d04588001b00370068f40700f0
:1045400061006000004078000004e0000b003200d1
:104550003e089000cf00de00008040000080d100c7
:104560009e0f500002003c005e00900001003700ea
:104570000000eb00d04588000b0037003e0890009b
:10458000cf00de00008040000080d1009e0f500070
:10459000020034005e009000010037000000eb00d4
:1045a000d045880000000000d0458000000278005f
:1045b0008e0990007e019000be0090002e009000b9
:1045c0008dfb07001e0fe8004e0090000000e80081
:1045d00040079800714780004e009000808f500087
:1045e00004003400514080004e089000808f50003d
:1045f0001ffd3500604080008000eb00c2f4070022
:104600001040800011002000bff407003e08900019
:104610009e007800808f500004003d0051408000d3
:104620004e089000808f50000bfd35008000eb009d
:10463000d0032000d8000700514080004e089000b1
:10464000808f50000b003d0010c0b3001e01900091
:10465000de089000810f5100010035000040eb00a2
:104660009e0090008100e800110798000004e0001f
:10467000dbfc3a008000eb00e0032000c6000700ee
:104680000080eb00204188000080fa000000060056
:104690000200fa000000eb00000f78001e00a200ec
:1046a0001e0078001046880061632b001000200077
:1046b000c7040700f9ff37000200fa00000f780076
:1046c00010002000104688008040eb0030c0b3008e
:1046d00090020700c0c4b300490207001100200087
:1046e000f0042000ac0007000080fa000000060083
:1046f0000000fa000000eb00104688008040eb004c
:1047000030c0b30083020700e0c2b3003c020700e0
:104710008000eb00f00420009f0007000080fa00fa
:10472000000006000000fa00f09f23000016880039
:10473000c422ef00f0cf2f00301688000030200098
:10474000501688000080eb0060168800d022ef0031
:1047500000ff2c009016880000002300b01688008f
:10476000d822ef00dc22ef000080eb00f01688007a
:10477000e222ef00f0cf2f0020178800e822ef00a0
:104780000080fa00000006000000fa000021ef009f
:1047900080382100100888008460a9008c60a8007f
:1047a00000012800200888000080eb00b9f2070013
:1047b0001028ef001228ef001428ef001628ef0051
:1047c0000080fa00000006000200fa00000f7800e6
:1047d0001e0078006101b800804080009140800098
:1047e000020040008380480080408800914088009b
:1047f0001e0078006101b800a0408000b140800038
:104800000200400083804800a0408800b14088003a
:10481000a2408000b3408000001020000100200072
:10482000020278000301780080017800010078001e
:1048300003026200000061008000eb00c000dd00a8
:10484000000020000001be006120b80000017100de
:1048500081817100481add004810de0000007200fe
:10486000c818de0000407800614060000080fb0056
:104870004f00dd0012168000f1ff2700810061006b
:1048800001007000101688000080fa000000060089
:104890000000fa00a0478000b14780000001be0080
:1048a0002203b0000380b000a0408000b14080002f
:1048b00014002000800f5100818f59000100390041
:1048c0000002eb00040078000080fa0000000600ff
:1048d0000600fa00200798002e009000cf80de002e
:1048e000008fbe001028ef001228ef00000000002b
:1048f0008040800091408000be0f5000ae8f580075
:10490000fbff39000080fa00000006000200fa00f8
:10491000000f780002003700803e2000ecff070007
:104920001e00780000f0a7000000ea000000ea0086
:104930004f00de00004078001e0fe9000004e00098
:10494000f5ff3a000080fa00000006000600fa00b9
:1049500064f2070090f12f0068f2070000f02d00cc
:10496000000f7800d07527001007980090012000f4
:10497000200798002e0190009e0090001e007800f5
:1049800080f207008000eb00d00320000200070047
:104990000080fa00000006000400fa00000f780012
:1049a0001107980010002000d0408800000000008f
:1049b00047f207000004e000fdff3a001e00780007
:1049c000004078008080fb00f0072000008060003d
:1049d000d0108800000000003df207000004e00055
:1049e000fdff3a001e0090008040780000c8b30030
:1049f00000c070000080fb00d010880000000000a4
:104a000033f207000004e000fdff3a00e0408000c0
:104a10000000e0000b0032001a22ef00000000004e
:104a20002bf207000004e000fdff3a002008200000
:104a3000d01088000000000025f207000004e0000c
:104a4000fdff3a001c28ef001a28ef000080fa0052
:104a5000000006000200fa00000f78001e00780037
:104a6000004078006140600061406000614060008b
:104a70000080fb0061006000a11680000100a10021
:104a800001007000a0168800000000000000000077
:104a90009e007800628060000080d10000407800b5
:104aa000614060000080fb00610060000000400089
:104ab000a11680000110a10001007000a01688005e
:104ac00000000000000000009e007800648060008c
:104ad0004280de0000407800614060000080fb0002
:104ae000610060004200dd00a11680000120a100ed
:104af00001007000a0168800000000000000000007
:104b00009e007800688060004380de0000407800ee
:104b1000614060000080fb00610060004300dd0038
:104b2000a11680000130a10001007000a0168800cd
:104b300000000000000000000080fa0000000600f5
:104b40000200fa00000f78001e0078000040780094
:104b50006140600061406000614060000080fb00d7
:104b6000610060004c00dd00a116800001c0a100c2
:104b700001007000a0168800000000000000000086
:104b80009e007800628060000080d10000407800c4
:104b9000614060000080fb00610060004d00dd00ae
:104ba000a116800001d0a10001007000a0168800ad
:104bb00000000000000000009e007800648060009b
:104bc0004280de0000407800614060000080fb0011
:104bd000610060004800dd00411680000180a100f6
:104be0000100700040168800000000000000000076
:104bf0009e007800688060004380de0000407800fe
:104c0000614060000080fb00610060004900dd0041
:104c1000411680000190a10001007000401688003c
:104c200000000000000000000080fa000000060004
:104c30000000fa00a1a2a90001158000f0cf2f000a
:104c4000008060000015880001158000000e200023
:104c50000100700000158800a022a8001115800036
:104c6000f0ff21000080600010158800a342a8001a
:104c70001115800030fc2f00008060000030a00083
:104c800010158800a222a900a202a9002115800007
:104c900000f021000100700020158800a4e2a800a7
:104ca0002115800000fc2f0000806000f001b3009f
:104cb00020158800a782a900a682a90030158000cf
:104cc000f000b3003015880031158000f00f2f0080
:104cd0000080600030158800f0ff27004015880034
:104ce0000000280050158800a042a8008560a80098
:104cf0008d60a800a1e2a8000080fa000000060074
:104d00000400fa00000f7800110798001e007800d8
:104d10006101b90020b2850031b285000200400077
:104d200083804800220020009bf10700013b8000a7
:104d300000002800008060000000e000fbff3a0057
:104d40001e0078006101b90020b2850031b28500f3
:104d500002004000838048001e019000a7f1070078
:104d6000013b800000002800008060000000e0009f
:104d7000fbff3a000080fa00000006000400fa0081
:104d8000100798001e0090006101b90020b2850054
:104d900031b2850002004000838048000002eb0031
:104da000230020000e017800a3f107001e00780008
:104db0000080fa00000006000400fa0080042000d1
:104dc000000f780000222c00100798009e00780049
:104dd0001e00900028f107000080fa000000060085
:104de0000200fa00004f78001147980003f1070015
:104df00024f1070000000000301080006100600016
:104e00000000e000fcff3a0085c0a9001e407800c9
:104e10000bf10700000000004010800061006000fe
:104e20000000e000fcff3a000000000021048000c8
:104e300000002400008060000000e000fbff320062
:104e400085c0a9000000000041108000000028007b
:104e5000008060000000e000fbff3a001e40900070
:104e6000f7f0070009f10700000000003010800093
:104e7000640060000000e000fcff3a000080fa00df
:104e8000000006000400fa0020479800dbf007004d
:104e9000fcf007000000000030108000610060009e
:104ea0000000e000fcff3a0085c0a9002e40900001
:104eb0000004a000e2f007000000000040108000a5
:104ec000610060000000e000fcff3a00000000000c
:104ed0002104800000002400008060000000e00049
:104ee000fbff320085c0a9000000000041108000d7
:104ef00000002800008060000000e000fbff3a0096
:104f0000c9f00700004f7800e0f007000000000043
:104f100030108000640060000000e000fcff3a00f8
:104f20001e4078000080fa00000006000000fa0031
:104f300023c8bf000034a00023e8b70020c0b3009e
:104f400022e8b70000352c00e101070041c0b300a2
:104f5000e0c7b300a2ff070040062000dc01070005
:104f600000c3b3009e01070040192100d8010700cb
:104f700000c3b3009a01070060092000d4010700b4
:104f800000c3b3009601070060092000d0010700ac
:104f900000c2b3009201070060092000cc010700a5
:104fa00080c0b3001ee8b7001ec8bf000054a000b8
:104fb000210107002068ef00830007008b00070035
:104fc00020c0b3001fe8b7001fc8bf000024a00026
:104fd0001901070020c8bf000034a0001601070017
:104fe00080c0b30021e8b70021c8bf000044a00082
:104ff00011010700330007000080fa0000000600de
:105000000200fa00004f78001e40780016010700e9
:105010001e4078000080fb0080007800a001200086
:105020005dfe07000080fa00000006000600fa009e
:1050300020079800ae009000010f780004003700b0
:105040001e007800104078001e0fe80006010700df
:105050001e007800104078000004e000f8ff3a00dd
:105060000000eb00100798000b0037001e009000b6
:10507000ae00900000804000104078000080fb00ef
:1050800080007800a001200043fe07001e00900071
:105090000000e800100798001e009000ae0090008d
:1050a00000804000104078000004e000030032005f
:1050b0001e009000ef0f5000ecff34000080fa005b
:1050c000000006000000fa0010c0b300da0007007c
:1050d000005327007e0107000102200090012000fc
:1050e0002dfe07000080fa00000006000000fa0014
:1050f00020c0b300d0000700005327007401070050
:10510000010220009001200023fe07000080fa0029
:10511000000006000c00fa00204f9800314f980064
:105120000000eb0010079800000420002007980002
:1051300040012000300798004005200040079800fb
:1051400022c8bf00be48900080cf50000300390045
:1051500022c8bf000040e900304f98003e48900050
:105160000080fb000000400000004700100090009d
:10517000804078002e48900000c0400080407800b9
:1051800000c8b30000c07000ab0007002e489000bc
:105190000080fb006f00600000004000800078008d
:1051a0003e4890000080fb0061006000010070003c
:1051b0007f0f60009e00780090012000f6fd070040
:1051c0000080fa00000006000000fa0020c8bf00be
:1051d0000024a10020e8b70020c8bf000034a000d0
:1051e000950007000080fa00000006000000fa00a9
:1051f00020c8bf000024a00020e8b70020c8bf00de
:105200000034a0008c0007000080fa0000000600b7
:105210000000fa0020c8bf000014a10020e8b70079
:1052200020c8bf000034a000830007000080fa00ff
:10523000000006000000fa0020c8bf000014a00013
:1052400020e8b70020c8bf000034a0007a000700a3
:105250000080fa00000006000000fa0020c8bf002d
:105260000004a10020e8b70020c8bf000034a0005f
:10527000710007000080fa00000006000000fa003c
:1052800020c8bf000004a00020e8b70020c8bf006d
:105290000034a000680007000080fa00000006004b
:1052a0000000fa0021c8bf000024a10021e8b700d7
:1052b00021c8bf000034a00021e8b70021c8bf000a
:1052c0000044a0005c0007000080fa000000060017
:1052d0000000fa0021c8bf000024a00021e8b700a8
:1052e00021c8bf000034a00021e8b70021c8bf00da
:1052f0000044a000500007000080fa0000000600f3
:105300000000fa001fc8bf000014a0001fe8b7008b
:105310001fc8bf000024a000470007000080fa005b
:10532000000006000000fa001fc8bf000014a10022
:105330001fe8b7001fc8bf000024a0003e00070000
:105340000080fa00000006000000fa001fc8bf003d
:105350000004a0001fe8b7001fc8bf000024a00081
:10536000350007000080fa00000006000000fa0087
:105370001fc8bf000004a1001fe8b7001fc8bf007e
:105380000024a0002c0007000080fa0000000600a6
:105390000600fa0020479800210798002e40900050
:1053a00067406000204798002e4090000080fb007e
:1053b0004300dd00004078000064a0001e000700ec
:1053c0000000eb00000f7800060037001e00780098
:1053d000ae009000008040001040780022000700de
:1053e0001e0fe8001e007800e70f5000f7ff3400a2
:1053f0000080fa00000006000000fa0023c8bf0089
:105400000034a10023e8b700c3000700a70007008d
:105410000080fa00000006000000fa0023c8bf0068
:105420000034a00023e8b700bb0007009f0007007e
:105430000080fa00000006000200fa00004f780029
:105440008040eb001e4078002f0007000080fa002b
:10545000000006000000fa000040eb0043000700d7
:105460000080fa00000006000200fa00004f7800f9
:1054700011c0b3001e407800230007000080fa002e
:10548000000006000000fa0010c0b300370007005b
:105490000080fa00000006000000fa00edff07009f
:1054a00001c8b300014060000080fa00000006005f
:1054b0000000fa00e7ff07000074a1000080fa0076
:1054c000000006000200fa00004f780000c8b30098
:1054d0001e407000d8ff0700eaff07000080fa00b6
:1054e000000006000200fa00004f78001e4078001d
:1054f000f043b2000064a000cfff0700e1ff070007
:105500000080fa00000006000400fa00204798001e
:1055100031479800ae40900000cfb30000cf60004c
:10552000ae409000400020000008dd0010479800c9
:105530009e40900000cfb30000c06000104798006c
:105540003e4090001e4070000024a0002400070090
:105550009e4090003e40900000c070000024a000db
:105560001f0007000080fa00000006000400fa0097
:1055700020479800ae40900000cfb30000c07000fc
:105580004a000700ae40900040cfb30000c070005a
:105590001d000700004f7800ae40900040cfb300e0
:1055a00000c0700018000700104798002e409000bf
:1055b0000024a0003d0007009e40780000cfb3000b
:1055c00080c060001e4090000080fb004400de00b0
:1055d0000040780000c070000080fa000000060063
:1055e0000200fa00004f78001e4078000014a1006d
:1055f0002e0007001e4078000014a1000f000700d5
:105600000080fa00000006000400fa00204798001d
:105610002e4090000014a000160007003e00070076
:10562000004f78002e4090000014a00003000700f7
:105630001e4078000080fa00000006000200fa0018
:10564000004f78001e4078000024a00017000700db
:10565000100020001e0007001e4078000024a1005a
:105660001200070020032000190007000080fa0044
:10567000000006000200fa00004f78001e4078008b
:105680000024a100090007001000200010000700fe
:105690001e4078000024a000040007002003200022
:1056a0000b0007000080fa00000006000200fa006c
:1056b000004f780023c8bf001e4070008040780073
:1056c000e0c7b300c6fd07000080fa000000060036
:1056d0000400fa00100798000000eb00000f7800ab
:1056e000070037000000000000000000000000007c
:1056f0000000000000000000000000001e0fe80095
:105700001e0090009e007800808f5000f5ff390049
:105710000080fa00000006000000fa00e0c7b300b5
:10572000d8fd07000080fa00000006001200fa0011
:105730006007980071079800020f98006e019000b2
:1057400070a321000090b900ca88de004f90de00ef
:105750000080500010079800ee00900070a3210018
:105760000089b9004a99de004f88de000000510030
:10577000027122000281b90002007800008050000e
:10578000813e200001017800110009000200d800cc
:1057900020079800ee009000803e20000001780075
:1057a000110009008200d8008000fd00000178008f
:1057b000b04721000090b900c388de004f90de00a2
:1057c0000080500030079800ee009000b0472100a4
:1057d0000089b9004399de004f88de0000005100c7
:1057e000420620000281b9000200780000805000cb
:1057f000716626000181b900c298de004f80de008c
:1058000000805000400798006e00900071662600ee
:105810000181b9004299de00cf80de008100510095
:105820006a09b90082007800010050005007980012
:105830000000eb00000f78000e0890008040780018
:105840007e0090000040780032fe07001e009000ad
:105850000000e0000e0032001e00900000407800c2
:105860000043b000e6fd07000e089000804078007d
:105870007e0090000000e800700798007e00900015
:105880000040780023fe070010002000000f780081
:105890002e0090000000e00003003a001e00780097
:1058a0000000e0000e0032002e0090000040780062
:1058b0000043b000d2fd07000e0890008040780041
:1058c0007e0090000000e800700798007e009000c5
:1058d000004078000ffe070010002000000f780045
:1058e0003e0090000000e00003003a001e00780037
:1058f0000000e0000e0032003e0090000040780002
:105900000043b000befd07000e0890008040780004
:105910007e0090000000e800700798007e00900074
:1059200000407800fbfd070010002000000f780009
:105930004e0090000000e00003003a001e007800d6
:105940000000e0000c0032004e00900000407800a3
:105950000043b000aafd07000e08900080407800c8
:105960007e0090000000e800700798007e00900024
:1059700000407800e7fd07005e00900000407800de
:105980000043b0009efd07000080fa000000060002
:105990000400fa00000f780011079800d3fd0700fb
:1059a000c8fd07001e007800a0fd070011c0b3006d
:1059b0000040eb00d7fd07001e0090009bfd070094
:1059c00010002000d1fb07000080fa000000060054
:1059d0001200fa00889fbe0070079800010f98001f
:1059e0000f0478000f007800800478007e0090009b
:1059f0008000e90051079800000040000000e80026
:105a00000000e8000000d100800040000f00780096
:105a1000818747000000e8000000d100000040003e
:105a2000600798000000eb00000f7800a5fd07005c
:105a3000aefd07000e0890007cfd07000000eb00a3
:105a40001007980009003700ee0090001e0090003b
:105a50000000400000804000a1ff2f0001087800f6
:105a60001e0090000000e800100798009e009000c3
:105a70007e009000808f5000f3ff35000000eb00a7
:105a800010079800330037000000eb003007980043
:105a90000e0037003e0090000040780011c0b300b7
:105aa0009cfd0700ee0090003e00900000004000ca
:105ab00061007800004078000043b00050fd07000e
:105ac0003e0090000000e80030079800be00900003
:105ad0007e009000808f5000eeff35000d003700f3
:105ae000204180000000e0000a00340020418000d6
:105af00001fd2f00808040006e0190001e0090008c
:105b00000000400000004100010878000080eb0028
:105b100020418800ee0090001e0090000000400030
:105b2000610078000000e000edff3500ee0090001d
:105b30001e009000000040006100780080007800a6
:105b40001000200094fb07001e0090000000e800f9
:105b5000100798009e0090007e009000808f5000fb
:105b6000c9ff35000000eb00400798000e00370029
:105b70004e0090000040780011c0b30065fd0700a2
:105b8000ee0090004e0090000000400061007800a0
:105b9000004078000043b00019fd07004e0090005f
:105ba0000000e80040079800ce0090007e009000c2
:105bb000808f5000eeff35000000eb0020079800ba
:105bc0000b0037001e0078006a00b90080007800e2
:105bd0006e0190002e0090000000400062007800ee
:105be000008f40002e0090000000e8002007980081
:105bf000ae0090007e009000808f5000f1ff3500d5
:105c00001e00780089077800880778004f04be00de
:105c10000080fa00000006000200fa00000f780081
:105c20001e00780000407800614060000080fb00aa
:105c3000610060004e00dd001116800001e0a1004f
:105c400001007000101688000080fa0000000600b5
:105c50000400fa00100798001e019000b0472100d0
:105c60000090b900c388de004f90de000080500035
:105c7000004f78009e009000b04721000089b900d5
:105c80004399de004f88de000000510042062000ec
:105c90000281b9000200780000805000104798008f
:105ca0001e00fb0080007800700120003afb070016
:105cb0001e4090000000fb00800078008001200062
:105cc00035fb07000080fa00000006000a00fa0019
:105cd00030079800410798004e0090000000e00057
:105ce000370032004e009000e10f500036003200c5
:105cf0000000eb00000f7800070037001e0078005e
:105d000000004000be009000008040009e0078002f
:105d1000010878001e0fe8009e0078004e009000f9
:105d2000808f5000f5ff39004e0090000000e90020
:105d3000000f78001e00370069ee07009e00e800a3
:105d400001017800110009000200d8008000fd0068
:105d5000100798001e00900000004000be00900058
:105d60000080400010007800200798001e0090007e
:105d700000004000be009000808040001e007800bf
:105d8000000040003e01900000004100100078003b
:105d9000800878001e00780000004000be009000df
:105da00000804000ae009000010878001e0fe9005e
:105db0001e0078000000e000dfff3c000300370019
:105dc0000000000001003700000000000080fa0021
:105dd000000006000800fa0030079800d047800055
:105de000000f78003e0090006101b800a0408000e4
:105df000b1408000020040008380480010079800f6
:105e00002107980000000000a2408000b3408000fd
:105e10001e009000ae009000800f5100818f59004d
:105e2000f9ff3900d24780009e0078001000200062
:105e3000810f510001003e000000eb000080fa00dd
:105e4000000006000400fa00000f78001107980017
:105e50001e007800cf80de00020a20000300200030
:105e6000820f5000838f580089023e0000600100bd
:105e7000870237008602370085023700b4013700f9
:105e8000be013700a7013700b4003700c601370054
:105e90007f023700be00370096003700a2003700af
:105ea0007b0237007a02370006023700780237009b
:105eb0007702370076023700750237007402370028
:105ec000c6003700d8003700e20037007002370004
:105ed0006f0237006e0237006d0237006c02370028
:105ee0006b0237006a023700690237006802370028
:105ef0006702370066023700650237006402370028
:105f00006302370062023700610237006002370027
:105f10005f0237005e0237005d0237005c02370027
:105f20005b0237005a023700590237005802370027
:105f30005702370056023700550237005402370027
:105f40005302370052023700510237005002370027
:105f50004f0237004e0237004d0237004c02370027
:105f60004b0237004a023700490237004802370027
:105f70004702370046023700450237004402370027
:105f8000430237005b0137004e0137004002370003
:105f90003f0237003e0237003d0237003c02370027
:105fa0003b0237003a023700390237003802370027
:105fb000b5003700360237003502370034023700ab
:105fc0003302370032023700310237003002370027
:105fd0002f0237002e023700b8003700c400370008
:105fe000d0003700dc003700e80037002801370018
:105ff000f3003700ff0037000b01370017013700af
:106000002302370022023700210237002002370026
:106010001f0237001e0237001d0237001c02370026
:106020001b0237001a023700190237001802370026
:106030001702370016023700150237001402370026
:106040001302370012023700110237001002370026
:106050000f02370067013700730137007f013700f7
:106060008b0137000a0237000902370008023700a7
:106070000702370006023700050237000402370026
:106080000302370002023700010237000002370026
:10609000ff013700fe013700fd013700fc0137002a
:1060a000fb013700fa013700f9013700f80137002a
:1060b000f701370090013700f5013700f401370090
:1060c000f3013700f2013700f10137009701370083
:1060d000ef013700ee013700ed013700ec0137002a
:1060e000eb013700ea013700e9013700e80137002a
:1060f0009b0137009e009000800c2000808f500094
:1061000003003a00300020006bf90700e00137007f
:106110009e00900010042000808f50009d013a00e6
:1061200073f90700da0137009e009000800c200010
:10613000808f500003003a00300020005ef9070015
:10614000d30137009e009000f0032000808f5000a4
:1061500092013a0066f90700cd0137009e009000d9
:10616000800c2000808f500003003a003000200097
:1061700051f90700c60137009e009000000520007d
:10618000808f500087013a0059f90700c00137009d
:106190009e009000800c2000808f50000300320091
:1061a0001e009000e50f500003003a003000200070
:1061b00041f90700b60137009e009000f00320006f
:1061c000808f5000030032001e009000f20f50003c
:1061d00076013a0046f90700ad0137001e00900035
:1061e000f40f5000040032009e0090006004200074
:1061f000808f500003003a00300020002ef9070085
:10620000a30137001e009000fe0f50000400320072
:106210009e00900000052000808f500065013a002c
:1062200033f907009a0137001e009000f40f500068
:1062300003003a00204680001ff907009401370050
:106240001e009000fe0f50005c013a0028f9070084
:106250008f0137009e00900060042000808f500066
:1062600003003a003000200013f9070088013700ce
:106270009e00900000052000808f500051013a00e0
:106280001bf90700820137009e0090008002200069
:10629000808f500003003a003000200006f907000c
:1062a0007b0137009e009000600e2000808f500020
:1062b00046013a000ef90700750137009e00900074
:1062c000600e2000808f500003003a003000200054
:1062d000f9f807006e0137009e00900010042000be
:1062e000808f50003b013a0001f907006801370038
:1062f0009e00900080022000808f500003003a0032
:1063000020468000ecf80700610137009e009000f5
:10631000d00c2000808f500030013a00f4f80700c4
:106320005b0137009e009000200d2000808f500000
:1063300003003a0020468000dff8070054013700d0
:106340009e009000100e2000808f500025013a0022
:10635000e7f807004e0137009e009000600e200015
