:020000040000fa
:080000000007040000000000ed
:020000040000fa
:04000800b808000034
:020000040000fa
:04000c00b808000030
:020000040000fa
:04001000b80800002c
:020000040000fa
:04001400b808000028
:020000040000fa
:04001800b808000024
:020000040000fa
:04001c00b808000020
:020000040000fa
:04002000b80800001c
:020000040000fa
:04002400b808000018
:020000040000fa
:04002800b808000014
:020000040000fa
:04002c00b808000010
:020000040000fa
:04003000b80800000c
:020000040000fa
:04003400c8070000f9
:020000040000fa
:04003800b808000004
:020000040000fa
:04003c00b808000000
:020000040000fa
:04004000b8080000fc
:020000040000fa
:04004400b8080000f8
:020000040000fa
:04004800b8080000f4
:020000040000fa
:04004c00b8080000f0
:020000040000fa
:04005000b8080000ec
:020000040000fa
:040054006a08000036
:020000040000fa
:04005800b8080000e4
:020000040000fa
:04005c00b8080000e0
:020000040000fa
:04006000b8080000dc
:020000040000fa
:04006400b8080000d8
:020000040000fa
:04006800b8080000d4
:020000040000fa
:04006c00b8080000d0
:020000040000fa
:04007000b8080000cc
:020000040000fa
:04007400b8080000c8
:020000040000fa
:04007800b8080000c4
:020000040000fa
:04007c00b8080000c0
:020000040000fa
:04008000b8080000bc
:020000040000fa
:04008400b8080000b8
:020000040000fa
:040088007a080000f2
:020000040000fa
:04008c00b8080000b0
:020000040000fa
:04009000b8080000ac
:020000040000fa
:04009400b8080000a8
:020000040000fa
:04009800b8080000a4
:020000040000fa
:04009c00b8080000a0
:020000040000fa
:0400a000b80800009c
:020000040000fa
:0400a400b808000098
:020000040000fa
:0400a800b808000094
:020000040000fa
:0400ac00b808000090
:020000040000fa
:0400b000b80800008c
:020000040000fa
:0400b400b808000088
:020000040000fa
:0400b800b808000084
:020000040000fa
:0400bc00b808000080
:020000040000fa
:0400c000b80800007c
:020000040000fa
:0400c400b808000078
:020000040000fa
:0400c800b808000074
:020000040000fa
:0400cc00b808000070
:020000040000fa
:0400d000b80800006c
:020000040000fa
:0400d400b808000068
:020000040000fa
:0400d800b808000064
:020000040000fa
:04010800b808000033
:020000040000fa
:04010c00b80800002f
:020000040000fa
:04011000b80800002b
:020000040000fa
:04011400b808000027
:020000040000fa
:04011800b808000023
:020000040000fa
:04011c00b80800001f
:020000040000fa
:04012000b80800001b
:020000040000fa
:04012400b808000017
:020000040000fa
:04012800b808000013
:020000040000fa
:04012c00b80800000f
:020000040000fa
:04013000b80800000b
:020000040000fa
:04013400b808000007
:020000040000fa
:04013800b808000003
:020000040000fa
:04013c00b8080000ff
:020000040000fa
:04014000b8080000fb
:020000040000fa
:04014400b8080000f7
:020000040000fa
:04014800b8080000f3
:020000040000fa
:04014c00b8080000ef
:020000040000fa
:04015000b8080000eb
:020000040000fa
:04015400b8080000e7
:020000040000fa
:04015800b8080000e3
:020000040000fa
:04015c00b8080000df
:020000040000fa
:04016000b8080000db
:020000040000fa
:04016400b8080000d7
:020000040000fa
:04016800b8080000d3
:020000040000fa
:04016c00b8080000cf
:020000040000fa
:04017000b8080000cb
:020000040000fa
:04017400b8080000c7
:020000040000fa
:04017800b8080000c3
:020000040000fa
:04017c00b8080000bf
:020000040000fa
:04018000b8080000bb
:020000040000fa
:04018400b8080000b7
:020000040000fa
:04018800b8080000b3
:020000040000fa
:04018c00b8080000af
:020000040000fa
:04019000b8080000ab
:020000040000fa
:04019400b8080000a7
:020000040000fa
:04019800b8080000a3
:020000040000fa
:04019c00b80800009f
:020000040000fa
:0401a000b80800009b
:020000040000fa
:0401a400b808000097
:020000040000fa
:0401a800b808000093
:020000040000fa
:0401ac00b80800008f
:020000040000fa
:0401b000b80800008b
:020000040000fa
:0401b400b808000087
:020000040000fa
:0401b800b808000083
:020000040000fa
:0401bc00b80800007f
:020000040000fa
:0401c000b80800007b
:020000040000fa
:0401c400b808000077
:020000040000fa
:0401c800b808000073
:020000040000fa
:0401cc00b80800006f
:020000040000fa
:0401d000b80800006b
:020000040000fa
:0401d400b808000067
:020000040000fa
:0401d800b808000063
:020000040000fa
:100e0000efb020000e7f22000e01880000000000dd
:100e1000000020000000e00002003200000120007d
:100e200020028800140007005a0107000000e000bb
:100e300003003a00c08723000100200002003700b1
:100e40000000200001002000810f7000010032002e
:100e500014000700000020000000e0000200320043
:100e60000000020000000000400c02000000000032
:100e70000040da000000fe004440a900201e2000cf
:100e80000000e0000300320000002000a001880004
:100e90004440a800000006008a1f78008b1f7800dd
:100ea0000000060091018800800478000000eb003b
:100eb0001a003700e284440032a0b4009905ba0059
:100ec000e284440032a0b4009906ba00e2844400ef
:100ed00032a0b4000006eb00476fde00fd07b20051
:100ee000636ce10003003a00ebff07000000eb0039
:100ef0000a003700606ce10004003a00005deb007e
:100f00008b05e900fdff3e00040037006168e10049
:100f1000010032000086eb000b00070019c7ba0081
:100f20001905ba000e04e00003003a000a00e000d0
:100f3000e0ff3a0000000600fe07b2009e018800b4
:100f40008a047800f5ff3700395dba008b05e900a7
:100f50000c003200295dba008b05e9000800320060
:100f60000c00e00003003a00e284440032a0b40028
:100f7000f5ff370019ddba008b05e900faff3a00ea
:100f80008904e800e184440032a0b40000000600b7
:100f90003600f800809fbe00829fbe00849fbe0086
:100fa000869fbe000000fa0050002000e30e0700fc
:100fb000304680000000e00002003200db22a80082
:100fc00001003700db22a900614080005041800011
:100fd000808f50000d003400a04780000000e0002a
:100fe0000a003a00290f07000000e0000700320065
:100ff0002040800031408000c0478800d1478800f1
:1010000020002000a04788002a00370061408000af
:1010100050418000808f50001e003400a0478000a7
:10102000e20f50001b003a00c0478000d14780000b
:1010300065014000e0814800204080003140800090
:10104000800f5100818f59001a00310010002000dc
:10105000b0478800f04780000000e800f0478800b3
:1010600080002000a0478800704080000000e00061
:101070000300320010002000804088000d0037007f
:10108000210020000000eb00420f07001028ef00b5
:10109000080037006140800050418000808f500080
:1010a00004003c000000eb00a04788000000eb00bb
:1010b000b04788008460a9000080fa004f03be009a
:1010c0004f02be004f01be004f00be003600f900c7
:1010d00000400600801f78000000fa000014800025
:1010e000604088008560a9000080fa004f00780009
:1010f000004006003600f800809fbe00829fbe00c0
:10110000849fbe00869fbe000000fa00c0108000d1
:10111000620060000000e000010032001822a90017
:10112000e01080004041880041418000a002200082
:10113000808f500006003a008000eb00d0032000b2
:10114000140f070020032000e00e07000000fe003f
:101150008700a9000080fa004f03be004f02be00c6
:101160004f01be004f00be003600f90000400600ef
:101170000040da000000fe00889fbe008004780076
:10118000604880000000e00004003a000e00070004
:101190000084eb000000e000080035006848800093
:1011a0000900e000050032000900440006000700c5
:1011b0000000e00001003d000084eb000800780022
:1011c0004f04be0000000600800078000100e0002f
:1011d00003003a00e090200060488800000005000d
:1011e0000080eb00e2b02000828f500002003e0041
:1011f000614888000000eb00000006000602ab001a
:10120000feff3a000642ab00fcff3a000662ab006c
:10121000faff3a000682ab00f8ff3a0009c2ab00c1
:10122000f6ff3a00000006000662a8000662ab0066
:10123000feff3a0008c2a90000108000000006006e
:101240008040780000c0eb008180fb001110880016
:1012500008e2ab0007003a0009c2ab00feff3a000b
:10126000e6ff07000040eb000802e20001003d003d
:10127000e0cfb30000000600211088003010880085
:10128000000006000602a800000006000642a800b2
:10129000000006008460a900e7006000f2ff28005b
:1012a000cc08dd00a3048000030161006800600039
:1012b0000281700071ff2f00a20488006204800088
:1012c00082806000810070006104880000000600d8
:1012d000001020001802b6000000e9004f00de00f8
:1012e0000000060017e2a9008f00a9008f20a900c6
:1012f0008700a9008720a900000006008700a90038
:10130000e70060008720a9000001780083ff2f001c
:101310000207b200040580008481610083817000af
:10132000e800600003058800c308de00f3f82f0022
:10133000e18060000405800084816100c808dd0050
:10134000830171000008b20003058800f2ef2f004e
:101350004700de007304800003016100610060004b
:10136000028170004900dd0072048800f1df2f0067
:101370007404800084806000810070007104880023
:1013800000000600f2108800b0108800c11088002c
:1013900000000600000005003200f80091018800fe
:1013a0000008bb00410424006210e1000400320088
:1013b000000220000010e1000a003a00510424005d
:1013c000013b88000500fc0051052000313b8800ee
:1013d000a10a2000313b880061e7a800000000005e
:1013e000000000003200f900000006003200f800a2
:1013f00060042400003b8800f2ff37003200f80050
:101400009101880041002400013b88000208bb00d4
:10141000ecff37003200f8009101880051002400f1
:10142000013b8800030120003218bb008301e90062
:10143000fdff3a00e3ff37003200f8009101880019
:1014400080027800620040003549ba00e080480020
:101450003204e0000410a700100032008301e9000c
:101460000e0032002549ba003204e0000410a70043
:101470000a0032008301e900080032000408a300da
:10148000eeff320015c9ba003204e0000410a700d4
:10149000020032008301e900e8ff3a003200f9005f
:1014a000000006000000e0002f003200c0017800bc
:1014b000e38f51002c0036000308a3002a003a00f5
:1014c000214880000100e00002003200810f50003e
:1014d00004003100110098002048880016003700f1
:1014e00082007800110190000200e000020032004a
:1014f000800f5100faff3900110278008482400009
:10150000850f500018003900808f520003003a0008
:101510008308420001007800070037000200e00065
:101520000300320083014000830f51000e00390098
:101530001200980090009800900090000100e000d8
:101540000900320010014000828f500006003a006e
:10155000229020000009eb001001780011084100e2
:10156000910090001100980000000600889fbe00c6
:1015700000047800114880000100e0000200320001
:10158000010078000d0037002148800040902000c5
:1015900004003700910f5400250036000180e80058
:1015a000910090000100e000faff3a0010003700bf
:1015b000920f54001e0036000280e80010017800ef
:1015c0000200e000faff3a00110178002148800093
:1015d0004090200004003700910f540014003600a2
:1015e0000180e80091009000828f5000faff3a00dd
:1015f00059488000888f5400010031008804780029
:10160000090078008e0007000000e00004003a00a6
:10161000888f5400050032008904d100f5ff37009f
:10162000091878009fff0700d2ff37000000eb0089
:101630004f04be0000000600881f780063044000cd
:101640000800a1008000eb00800f5400210036004c
:10165000e30f540001003e0048002000080078001d
:10166000c2ff07008000eb000000e000190032001c
:10167000900078009101780064815100880f51003a
:1016800003003100110190000208780007003700c4
:101690000881400002087800910190001301980031
:1016a00010017800110914008808780010017800f2
:1016b0000000eb000200e000040032009201900004
:1016c0000300e000010032000280e80010488800ba
:1016d0008180e800010078004f04780000000600d7
:1016e000889fbe00a04180000000e00001003200a1
:1016f00000000100b04180000000e0000100320065
:1017000000000100208320001004e00022003a00c5
:10171000304880004148800088002000d2602600c8
:101720009301200050000700f2352f00e3c623008c
:1017300000004100818049000804e900f7ff3a00f9
:10174000888320000908200088844400d260260095
:101750009301200044000700f2352f00e3c6230068
:10176000000041008180490000acbe00890f540098
:10177000f6ff3a003048880041488800c0458000a4
:10178000d1458000c0418800d141880011c0b3001c
:101790002083200001487800d260260093012000b9
:1017a00030488000414880002f000700f2352f00ac
:1017b000e3c62300000241008182490034488800ca
:1017c0004548880080832000100078007f01600079
:1017d0004211dd00c0832000020140001200be0063
:1017e000c0418800d14188000489be000100780012
:1017f00000f0a1004f04be0000000600889fbe005c
:1018000000047800a04180000000e00001003200e8
:1018100000000100208320000048eb00b041800060
:101820000000e00001003200000001008004eb0035
:1018300038488800494888004f04be000000060070
:10184000800078000000eb000100e000050034009b
:101850000100780048fe0700e10f400001003a0057
:101860000000eb0000000600020ab900001bb900ee
:101870000200b80081004200810043000000060021
:101880000000fa00840c07009c0c07002e0d0700d6
:10189000480e0700a40e0700e40d0700216b2b0083
:1018a000b06b2b0039110700716c2b002000200059
:1018b0004611070090000700fbff37000200fa0006
:1018c000000f78001e007800e30f5000090032007e
:1018d0001e007800e40f5000060032001e00780061
:1018e000e70f5000030032001e007800e60f5000a2
:1018f00002003a0010002000010037000000eb0059
:101900000080fa00000006000800fa002007980096
:1019100031079800ae00900000fc200000806000bd
:10192000c680de003e009000e10f500002003a0049
:1019300000042000010037000000eb00008f400091
:101940009e007800b0012000120d0700ae0090004c
:10195000f0032000808060003e009000e10f500006
:1019600002003a0000042000010037000000eb00f4
:1019700000804000100798009e009000c0012000e9
:10198000040d07000080fa00000006000600fa00bf
:1019900071468000110798001e0090000000400072
:1019a00025ff0700504688001e0090000000400000
:1019b00021ff070060468800b0468000000040001c
:1019c0001dff0700a04688000000eb00000f780014
:1019d00015003700216d2b0020002000fb100700b0
:1019e00020079800514680001e007800000040004b
:1019f00000804000ae00900001087800016e2b00ce
:101a000020002000f11007002007980061468000a8
:101a10001e0078000000400000804000ae009000f2
:101a2000010878001e0fe8001e0090009e0078005c
:101a3000808f5000e7ff3500b04680000000e000d6
:101a4000110034000000eb00000f78000b0037009d
:101a5000c16e2b0020002000dc100700200798003a
:101a6000a14680001e007800000040000080400079
:101a7000ae009000010878001e0fe800b04680001c
:101a80009e0f5000f2ff3c000080fa0000000600ac
:101a90000000fa00100020005e1107000080fa002c
:101aa000000006000200fa000000eb00000f7800c2
:101ab0000b00370010002000561107008041800005
:101ac000820c07000000eb005211070080418000eb
:101ad000411f2000008050007c0c07001e0fe80012
:101ae000300620009e007800808f5000f1ff340007
:101af0000080fa00000006004800fa003027980035
:101b00000000eb009c0d07004200dd005041880002
:101b100020002000980d07008041880020408000b0
:101b2000314080000000780034ff07003e20900024
:101b30006101b900b0fe2f00f1ff2f00020040004c
:101b4000838048003201200003002000820f5000f3
:101b5000838f58000e023e00006001001300370022
:101b6000220037002300370024003700250037000b
:101b70002600370056003700690037006a0037003a
:101b80006b0037006c0037006d00370085003700b0
:101b9000b5003700e700370019013700370137007b
:101ba000690137009d013700cf013700c16f2b005d
:101bb00010002000851007002007980031702b00ce
:101bc000200020008110070030079800a1702b0032
:101bd000100020007d100700400798004e01900083
:101be000be0090002e009000ff010700de020700fb
:101bf000f7013700f9020700f50137009c030700e1
:101c0000f3013700804180006203070001712b005f
:101c100010712b005d100700a1712b001000200037
:101c20006a100700500798005e0090000000e00076
:101c3000020032002000200001003700a000200038
:101c4000e0458800b0002000f045880060062000d4
:101c50006041880041722b00100020005b100700db
:101c600010478800200020007046880047ff0700ca
:101c700051732b00200020005410070040478800bb
:101c800041742b002000200050100700704788008e
:101c900011752b00100020004c10070081418000be
:101ca0000180b9000000780080418800d1752b00c8
:101cb0002000200045100700600798006e0190008a
:101cc0004101200040012000b5070700c001370096
:101cd000e10220008100470002862b000b00090072
:101ce000b21878000000eb00000f78000800370001
:101cf0001e007800000040000000470070109000b7
:101d000012002000a1002000d80107001e0fe800eb
:101d10001e007800eb0f5000f5ff3600ac013700d5
:101d20005bff0700aa0137005eff0700a80137002c
:101d300089070700a6013700320b0700a40137000e
:101d4000d1762b0010712b001010070040062000e8
:101d5000e045880040062000604188000000eb005c
:101d600010478800200020007046880007ff070009
:101d70005000200040478800800020007047880005
:101d800041772b00200020001010070070079800fa
:101d90007e019000410620004001200080070700de
:101da0008b01370001712b0040782b00f70f0700e3
:101db000a1712b001000200004100700000f9800f4
:101dc0000e0890000000e000020032002000200019
:101dd0000100370030002000e04588003006200078
:101de0006041880041722b0010002000f70f0700af
:101df0001047880020002000704688000000eb009b
:101e0000b0468800e1fe070051732b00200020003f
:101e1000ee0f07004047880041742b00200020008f
:101e2000ea0f07007047880011752b001000200092
:101e3000e60f0700814180000180b90000007800b2
:101e400080418800d1752b0020002000df0f0700a3
:101e5000100f98001e099000410120004001200051
:101e60004f0707005a01370001712b0040782b0003
:101e7000c60f0700a1712b0010002000d30f070030
:101e8000200f98002e0890000000e00002003200b1
:101e90002000200001003700a0002000e04588005d
:101ea000b0002000f0458800e00620006041880076
:101eb00041722b0010002000c40f0700104788005b
:101ec00020002000704688000000eb00b04688002b
:101ed000aefe070051732b0020002000bb0f07004f
:101ee0004047880041742b0020002000b70f0700f6
:101ef0007047880011752b0010002000b30f0700f9
:101f0000814180000180b900000078008041880094
:101f1000d1752b0020002000ac0f0700300f980077
:101f20003e09900041012000400120001c070700ed
:101f30002701370091782b0020792b00930f0700a1
:101f4000a1712b0010002000a00f0700400f980087
:101f50004e0890000000e000020032002000200047
:101f600001003700a0002000e0458800b0002000fc
:101f7000f0458800600620006041880041722b0017
:101f800010002000910f070010478800400020003b
:101f9000704688000000eb00b04688007bfe07001a
:101fa00051732b0020002000880f07004047880055
:101fb00041742b0020002000840f07007047880028
:101fc00011752b0010002000800f07008141800058
:101fd0000180b9000000780080418800d1752b0095
:101fe00020002000790f0700500f98005e09900034
:101ff0004101200080022000e9060700f4003700bc
:10200000217a2b00707a2b00600f0700200020003f
:10201000e04588000000eb00f0458800e00120006a
:1020200060418800f17a2b0010002000670f070044
:10203000b04688000000eb00104788002000200018
:102040007046880051fe07000000eb004047880002
:102050004000200070478800d1752b002000200030
:102060005a0f0700600f98006e0990004101200090
:1020700040012000ca060700d5003700917b2b00e5
:10208000807c2b00410f0700a1712b001000200065
:102090004e0f0700700f98007e0890000000e000cf
:1020a000020032002000200001003700a0002000c4
:1020b000e0458800b0002000f045880010032000b3
:1020c000604188000000eb00b04688000000eb0093
:1020d00010478800600020007046880060002000e3
:1020e0009047880029fe070051732b002000200034
:1020f000360f07004047880041742b002000200065
:10210000320f07007047880011752b001000200067
:102110002e0f0700814180000180b9000000780087
:1021200080418800d1752b0020002000270f070078
:10213000001798000e11900041012000c0032000fc
:1021400097060700a2003700117d2b0020792b0095
:102150000e0f0700a1712b00100020001b0f0700bd
:10216000101798001e1090000000e00002003200de
:102170002000200001003700a0002000e04588007a
:10218000b0002000f0458800600620006041880013
:1021900041722b00100020000c0f07001047880030
:1021a0006000200070468800600020009047880092
:1021b0000000eb00b0468800f4fd070051732b00cf
:1021c00020002000010f07004047880041742b00c9
:1021d00020002000fd0e07007047880011752b00bd
:1021e00010002000f90e0700814180000180b90035
:1021f0000000780080418800d1752b00200020006d
:10220000f20e0700201798002e11900041012000c7
:10221000c0032000620607006d003700917b2b0091
:10222000807c2b00d90e0700a1712b00100020002c
:10223000e60e0700301798003e1090000000e00006
:1022400002003200200020000100370010002000b2
:10225000e0458800b0002000f04588000003200021
:10226000604188000000eb00b04688000000eb00f1
:102270001047880060002000704688006000200041
:1022800090478800c1fd070051732b0020002000fb
:10229000ce0e07004047880041742b00200020002c
:1022a000ca0e07007047880011752b00100020002f
:1022b000c60e0700814180000180b900000078004f
:1022c00080418800d1752b0020002000bf0e070040
:1022d000401798004e11900041012000c0032000db
:1022e0002f0607003a003700917b2b00a07d2b00c2
:1022f000a60e0700a1712b0010002000b30e0700ee
:10230000501798005e1090000000e00002003200bc
:10231000200020000100370010002000e045880068
:10232000b0002000f04588000003200060418800d4
:102330000000eb00b04688000000eb00104788006a
:1023400060002000704688006000200090478800f0
:102350008efd07008000200080468800c00020001d
:10236000404788005000200070478800d1752b003e
:1023700020002000950e0700601798006e11900055
:1023800041012000c00320000506070010003700af
:10239000be2090001107980007003700a20020001f
:1023a000810020001e009000300007001e009000f9
:1023b0000000e800100798003e209000e400400074
:1023c0001e009000808f5000f4ff3c0000000000d1
:1023d0005046800033fc07006046800031fc070057
:1023e0000080fa00000006000600fa00000f7800e6
:1023f0001107980022079800310c07003a0c0700db
:10240000b07e2b00080c07000001eb0061002000eb
:102410001e007800c40d070012002000610020009b
:102420001e009000c00d07001e0090000000e90093
:10243000870a070001003700000000001e80ea0044
:10244000be0a07002e0090000000e000faff3a00ec
:10245000401f20001d0a0700f0002000b70a0700f7
:10246000401f2000190a0700f4ff37001400fa008b
:1024700070079800010f9800120f9800401f20006d
:1024800010079800803e200020079800300c2000a4
:10249000300798000000eb00000f7800ac00370018
:1024a000070c0700100c0700907f2b00de0b0700c5
:1024b00011c0b3000040eb00150c0700f07f2b00ab
:1024c000d90b07001e00e800120020007100200058
:1024d000950d07000001eb00610020007e009000d8
:1024e000910d07007e009000ef0f500003003400b4
:1024f0007e00900070005000010037007e009000c8
:10250000400798007e009000ef0f500002003c0052
:102510001000200001003700400020005007980004
:102520007e009000ef0f500002003c0020002000d1
:10253000010037008000200060079800fe00900036
:1025400030002000130a07004e009000400a0700e8
:102550005e0090000080ea00780a07001e009000ec
:10256000da090700e702a800de0090006e00900084
:10257000010070000080ea00700a07007e009000f1
:10258000700060004480de00004078006140600020
:102590000080fb00610060004900dd003117800011
:1025a0000190a10001007000301788002e019000fa
:1025b000706626000090b9008180d1004f90de0047
:1025c00000805000c10907007e0090006800600094
:1025d0004380de0000407800614060000080fb0026
:1025e000610060004900dd00311780000190a1000a
:1025f00001007000301788002e01900070662600e0
:102600000090b9008180d1004f90de000080500022
:10261000ae0907007e009000640060004280de008a
:1026200000407800614060000080fb0061006000b5
:102630004900dd00311780000190a1000100700009
:10264000301788002e019000706626000090b900b7
:102650008180d1004f90de00008050009b09070070
:102660007e009000620060000080d1000040780091
:10267000614060000080fb00610060004900dd00f7
:10268000311780000190a100010070003017880010
:102690002e019000706626000090b9008180d10064
:1026a0004f90de0000805000880907007e009000f7
:1026b000004078006140600061406000614060005f
:1026c0000080fb00610060004900dd0031178000e0
:1026d0000190a10001007000301788002e019000c9
:1026e000706626000090b9008180d1004f90de0016
:1026f000808050003e009000008050007309070069
:102700006e0090000080ea000c0a07003e00900076
:102710006e090700e722a900f0002000070a070061
:102720008000eb00300020009a090700e702a900b2
:102730008e089000803e20000088b900800078005c
:102740001e00900000805000600907001e0fe80086
:102750001e0890009e007800808f500050ff3500ca
:102760000080fa00000006000600fa0060408000c9
:10277000200798002e019000b04721000090b9007a
:10278000c388de004f90de00008f50002e009000c6
:10279000b14721000181b9004399de00cf80de00fe
:1027a00001015100410620000191b900820078002a
:1027b00001005000100798009e0078007001200072
:1027c000740907009e009000800120007109070035
:1027d000200320003d090700e4ff37000200fa0053
:1027e000f0f32f00f01688000000eb00000f7800d7
:1027f0001e00a2001e0078000040780061406000ca
:102800000080fb00610060004600dd0001178000d1
:102810000160a100010070000017880000000000a6
:1028200000000000000000001e007800004078005a
:10283000614060000080fb00610060004800dd0036
:10284000411680000180a100010070004016880040
:102850000000000000000000000000001e007800e2
:1028600000407800614060000080fb006100600073
:102870004900dd00411680000190a10001007000b8
:10288000401688000000000000000000000000006a
:102890001e00780000407800614060000080fb006e
:1028a000610060004700dd00011780000170a10099
:1028b0000100700000178800000000000000000008
:1028c000000000001e0078000040780061406000b9
:1028d0000080fb00610060004600dd000117800001
:1028e0000160a100010070000017880000000000d6
:1028f00000000000000000001e007800004078008a
:10290000614060000080fb00610060004e00dd005f
:102910001116800001e0a10001007000101688006f
:102920000000000000000000000000001e00780011
:1029300000407800614060000080fb0061006000a2
:102940004c00dd00a116800001c0a1000100700054
:10295000a016880000000000000000000000000039
:102960001e00780000407800614060000080fb009d
:10297000610060004d00dd00a116800001d0a100c3
:1029800001007000a0168800a00f2000cf080700eb
:1029900097ff37000400fa000000eb00f0478800c2
:1029a00050418000a90d07000000eb00000f7800e7
:1029b0000000eb0010079800c10a0700ca0a0700d0
:1029c00060802b00980a0700803e20000100200054
:1029d000004088001140880001003700000000001e
:1029e000f14780001e009000808f500016003600d6
:1029f0000240800013408000301f200001002000b2
:102a0000800f5100818f590009003600100020000e
:102a1000800d07000028ef000228ef001e0fe800dd
:102a20001e00780012002000c10020003e0c0700ac
:102a3000f1478000110798001e0090000001eb0094
:102a4000b1002000380c0700804180006101b9000e
:102a50000040800011408000800f5100818f59009c
:102a6000deff3e000000eb006a0d0700dcff3700d0
:102a70000c00fa00224080003340800022079800ba
:102a800033079800170037000000eb00000f7800b4
:102a90000000eb0010079800050037006040800040
:102aa0001e0f40001e0090000000e8001007980074
:102ab0001e009000ee0f5000f8ff34009e007800da
:102ac000f000200080017800110009008300d80088
:102ad000400798004e0090005c0d0700401f20004a
:102ae0007a0807002e019000be01900000712200bc
:102af0000100200002014000838148002040800046
:102b000031408000800f5100818f5900deff3e0070
:102b1000504180004d0d070011812b003000200036
:102b2000aa0c0700500798005e009000470d0700b0
:102b30005e0090004280de00800078000000eb0024
:102b40006e0907008000eb00d00320009108070009
:102b50000000fe000080fa00000006000800fa00f5
:102b60001007980021079800320798001e00900077
:102b7000e10f5000060032001e009000e20f5000ee
:102b8000030032001e009000e60f500011003a00d2
:102b90002e009000ef0f5000030034002e00900034
:102ba00070005000010037002e009000a8080700b8
:102bb0002e009000ef0f500002003c00e0ff2f00bd
:102bc00001003700b0ff2f00dc080700401f200085
:102bd0007f0d07001e009000e30f500013003a0025
:102be000ae009000300020006a0807002e00900020
:102bf000ef0f5000030034002e00900070005000d2
:102c0000010037002e009000910807002e00900070
:102c1000ef0f500002003c00e0ff2f0001003700e2
:102c2000b0ff2f00c5080700c80037001e00900045
:102c3000e20f500008003200e40f50000a0032009a
:102c4000e10f50000c003a00410120003e009000ce
:102c50007b0d070008003700610420003e00900053
:102c6000770d070004003700a10520003e0090000a
:102c7000730d0700000000002e009000ef0f5000c1
:102c800002003c00c0ff2f000100370030ff2f0082
:102c9000aa0807001e009000e40f50001a0032003e
:102ca000e40f500004003c000000e900e10f500078
:102cb00029003e0005003700e50f500018003200e3
:102cc000e60f50001e003200230037002e00900057
:102cd000fafa07000000e000040032009000200033
:102ce000000f7800c322a80003003700a0002000d6
:102cf000000f7800c342a800ae0090001e007800cc
:102d0000240807001400370030052000000f780069
:102d1000ae0090001e0078001e0807000e0037006d
:102d200050052000000f78002e0090004006b000f3
:102d3000800078001e0078001608070006003700a3
:102d4000b0002000000f7800ae0090001e00780058
:102d500010080700000000008040eb0030c0b30006
:102d6000eb0907001e009000e40f5000180032002d
:102d7000e40f500005003c00e10f50000800320055
:102d8000e20f50000c00320021003700e50f500028
:102d900015003200e60f5000170032001c0037000b
:102da00010c3b30095090700c0468000800cb10035
:102db000070d07001600370020c3b3008f09070076
:102dc000e0468000800cb100010d070010003700c4
:102dd00030c3b3008909070000478000800cb100b0
:102de000fb0c07000a00370030478000800cb10060
:102df000f70c07000600370050c7b3007f09070033
:102e0000d0468000800cb100f10c070000000000eb
:102e10002e009000ef0f500002003c00d0ff2f006a
:102e20000100370070ff2f0044080700800c2000cd
:102e3000e70c0700f000200040080700c322a900ab
:102e40000000000000000000c342a90000000000d4
:102e5000000000008000eb001e007800cd07070096
:102e60008040eb0030c0b300a90907001e009000ad
:102e7000e20f500019003200e20f500003003c0046
:102e8000e10f50000600320030003700e40f500020
:102e900021003200e60f5000250032002b003700e1
:102ea000e10120003e009000e50c070040c6b300a1
:102eb00052090700c046800080007800703e200064
:102ec000808f50001e003e00c0468000813e2000e2
:102ed00000805000be0c07001c00370001052000d8
:102ee0003e009000d60c070040c4b3004309070021
:102ef000e046800080007800703e2000808f500007
:102f000011003e00e0468000813e2000008050001d
:102f1000af0c07000d003700f10520003e009000c7
:102f2000c70c070020c5b3003409070007003700ad
:102f300040c6b3003109070000000000030037005d
:102f40000000000001003700000000000080fa00cf
:102f5000000006000400fa00000f78001107980036
:102f600011002000600120008a0707001e00900069
:102f70000000e00008003c001e0090000000e0009f
:102f80000f003a00d6f907006100600000407800a9
:102f90000004e0000a003200910720002000200019
:102fa0007c070700100020001a0c070080418000f9
:102fb000870c07000000eb00160c07000500370027
:102fc0008107200020002000720707008041800058
:102fd0007f0c07001e009000e20f50000b003a002b
:102fe000a1072000200020006a070700401f2000e2
:102ff000770c070010002000060c070080418000bd
:10300000730c07000000eb00020c07001c28ef0007
:103010009e007800700020005e070700904080004e
:103020000000e80090408800904080000001eb0024
:1030300051002000bc0a07000080fa0000000600d2
:103040000200fa00000f78001c28ef009e007800b4
:10305000400020004f070700b04080000000e8005b
:10306000b0408800b04080001200200051002000d5
:10307000ad0a0700204780000001eb0080007800c7
:1030800050002000b5fe070000fa2000500c070099
:103090000080fa00000006000200fa00000f78002d
:1030a000e04080000000e800e04088009e007800da
:1030b0006000200037070700a04080000000e80003
:1030c000a0408800a04080000001eb00910020009b
:1030d000950a07000080fa00000006000a00fa00c6
:1030e000881f780010079800210798003207980081
:1030f000430798000000eb00000f78000000eb0091
:10310000e047880060418000fe0f500047003a0011
:103110000028ef000228ef0002003700b0478000cf
:10312000e04788000240800013408000301f2000ec
:1031300001002000800f5100818f590003003e00e4
:10314000e04780000000e000f4ff320020408000f3
:10315000314080004040880051408800e0478000b6
:103160000000e00026003a001e009000d3f907009e
:103170000000e0000b003a00110020005000200089
:1031800004070700c04080000000e800c04088003d
:10319000c04080001200200091002000620a070059
:1031a000bf00370010002000bbff07004cf90700ec
:1031b0003100200001017800110009000200d80050
:1031c0008000fd000000e000b0003a001100200087
:1031d00060012000ef060700100020008d0b0700a3
:1031e0001100200080002000ea06070080418000d6
:1031f000f70b07000000eb00860b0700a800370064
:103200001e009000adf907000000e00003003a0046
:10321000100020008aff0700a100370011002000e5
:10322000100020004bff07009d0037000028ef0032
:103230000228ef0002003700b0478000e047880016
:103240004e0090006101b9000040800011408000f4
:10325000800f5100818f590003003600e047800045
:103260000000e000f4ff3200204080003140800088
:103270004040880051408800e04780000000e000a6
:1032800044003a001e0090008cf90700000478000a
:103290002e00900089f90700800f54000d003a00bd
:1032a000be00900050002000ba060700c040800019
:1032b0000000e800c0408800c040800012002000ec
:1032c00091002000180a070050002000000f78002d
:1032d000730037003e0090006fff07006000200081
:1032e000000f780060418000ea0f500014003200a7
:1032f0006141800030062000808f500010003200b5
:1033000061418000a0052000808f50000c00320039
:103310006141800080072000808f5000080032004b
:103320006141800040062000808f50000400320080
:103330006141800010032000808f500055003a004a
:10334000e7f80700310020000101780011000900b2
:103350000200d8008000fd000000e0004f003a00ad
:1033600011002000600120008a06070010002000e4
:10337000280b0700110020008000200085060700b0
:1033800080418000920b07000000eb00210b07003a
:10339000430037001e00900048f907000004780041
:1033a0002e00900045f90700800f540005003a00f8
:1033b0003e00900022ff070040002000000f780030
:1033c000370037006141800010032000808f5000db
:1033d000040032006141800000032000808f500013
:1033e00024003a0050468000900078001e009000b3
:1033f000808f500006003200504680000080e800b8
:10340000900078001e009000808f500004003a0069
:10341000110020003e009000cefe0700140037008f
:103420005046800064004000900078001e0090002c
:10343000808f500006003200504680006600400039
:10344000900078001e009000808f500004003a0029
:10345000210020003e009000befe0700040037005f
:103460008000eb003e009000bafe07000400370029
:1034700003003700110020003e009000b5fe070059
:1034800070002000000f78000500370000000000e9
:1034900003003700000000000100370000000000ba
:1034a0001e0078004f0478000080fa00000006003b
:1034b0000600fa00000f7800110798002207980014
:1034c0001e0178009e00900060002000a3fd070010
:1034d0008040eb0030c0b3000d08070040c4b300cb
:1034e000c60707002e0090000000e00002003a002e
:1034f00080bb2000360b07000080fa0000000600a9
:103500000400fa001007980001478000700c2000aa
:10351000808f50002d003400803e20002c0b0700cf
:10352000000f7800a0468000100078001e01900077
:10353000800078003000200088fd0700401f200038
:10354000230b07001e0f70008040eb0030c0b3005b
:10355000ef0707001e0078000000e00010003200b6
:10356000f000200075060700110020004005200033
:103570000806070010c4b300a0070700204780001a
:103580000001eb00800078005000200073fd070070
:10359000d04080000000e800d04088000b003700d9
:1035a00020c5b30095070700410620001e009000cb
:1035b000230b0700a0468000100078001e01900039
:1035c000800078004000200064fd07000080fa00c1
:1035d000000006000e00fa0040079800510798000e
:1035e0006207980020408000314080004040880001
:1035f00051408800ee009000a0032000e505070080
:103600006e00900000f0a7000000ea000000ea0051
:103610004f00de008000780010042000dd05070068
:10362000410020006e009000050b0700803e200046
:10363000e70a0700510020006e009000000b070011
:10364000007d2000e20a0700a10020006e0090002b
:10365000fb0a0700401f2000dd0a070021012000af
:103660006e009000f60a07006e019000ce009000f8
:103670001000200039fd070060418000fe0f50005f
:103680000d003a00010520006e009000ec0a0700d2
:1036900040478000e10f50008d003400404780001b
:1036a00080007800803e20000088b900000078008b
:1036b000c70a070087003700404780000000e0008d
:1036c00003003a00800c2000c10a07007b0037008d
:1036d00040478000e40f500008003c004047800055
:1036e00080007800803e20000088b900000078004b
:1036f000803eb100b60a07006800370080468000af
:103700000000e00017003200401f2000b00a070050
:10371000914680008046800001017800800078009a
:103720006e00900062ff0700e10d20006e00900027
:10373000c30a070040478000e70f500057003600db
:103740004047800080007800803e20000088b9005b
:103750008000780000892e00008040009c0a07004d
:103760004e003700810220006e009000b40a07006e
:10377000401f2000960a0700a10220006e00900062
:10378000af0a0700401f2000910a0700810c2000ab
:103790006e009000aa0a0700803e20008c0a0700f5
:1037a000210d20006e009000a50a07004047800010
:1037b00080007800401f20000088b9008000780059
:1037c00000832f0000804000810a0700610e200066
:1037d0006e0090009a0a070040478000eb0f5000ef
:1037e00017003400007d2000790a0700b10e200088
:1037f0006e009000920a0700401f2000740a070024
:10380000010f20006e0090008d0a0700401f20006d
:103810006f0a0700510f20006e009000880a070011
:1038200041478000401f20000088b90080007800d8
:1038300040a82e0000804000650a070008003700fd
:103840004047800080007800401f20000088b900b9
:1038500080007800c0632f00008040005c0a0700f1
:10386000a10f20006e009000750a0700401f200085
:10387000570a0700f10f20006e009000700a070041
:10388000401f2000520a0700d10320006e00900064
:103890006b0a0700401f20004d0a0700f1032000bb
:1038a0006e009000660a0700401f2000480a0700cb
:1038b000110420006e009000610a07006e01900064
:1038c000de00900020002000a4fc0700010037006b
:1038d000000000000000eb00000f7800b046800000
:1038e0000000e00003003200e10f50003900320018
:1038f000440037008040eb0030c0b30004070700ed
:1039000020c5b300bd060700833e20001200200042
:10391000de0090004e009000f0fd0700000f7800e0
:103920006141800010032000808f500004003200ad
:103930006141800000032000808f50002e003a007b
:103940001e007800e50f5000030032001e007800d2
:10395000e60f50002a003a00604680009000780090
:103960005e009000808f500004003a0060468000a6
:103970000080e800100078000200370060468000f8
:103980001000780020079800803e2000100a0700f1
:103990006e019000ae009000300020006ffc070028
:1039a000401f20000a0a07006e019000ae00900040
:1039b0004000200069fc0700833e20003200200008
:1039c000ae0090004e009000c4fd0700000f78008c
:1039d0000c0037006e009000c9fe0700833e2000f7
:1039e00012002000de0090004e009000bbfd07009a
:1039f000000f7800030037000000000001003700ce
:103a00000000000091408000c040800080804000a5
:103a1000a040800080804000b04080008080400056
:103a2000d040800000804000300798001200200045
:103a3000d10020003e0090003b080700914080002c
:103a4000c0408000008040000000e000150034000d
:103a500091408000c04080008080400040062000ef
:103a60000088b900800078003e00900000017800d6
:103a7000110009008200d800f0408800f04080006a
:103a800031062000810f5000010034003006200074
:103a9000f0408800f04080000001eb00d1002000e1
:103aa000210807008040eb0030c0b30098060700f3
:103ab00090c4b300510607001e007800e40f5000c8
:103ac00007003a00104780000000a000104788005f
:103ad000704180000000e80070418800030037005a
:103ae000104780000000a100104788007047800048
:103af000e30f500012003600704780006400500051
:103b0000100798000500370000a62e00b009070036
:103b10001e009000c003b100100798009e009000a6
:103b2000c0032000808f5000f7ff3e009e009000f1
:103b3000803e20000088b90000007800a40907003a
:103b40008000eb00b003200092040700550c070032
:103b50000080fa00000006000200fa0080418000a8
:103b60003a09070011822b00300020009708070057
:103b7000000f780080418000340907009e00780023
:103b8000200020005d0507008000eb00d00320002e
:103b9000800407000000fe000080fa00000006001c
:103ba0001800fa00100f9800210f9800320f9800ab
:103bb0000000eb00000f78000000eb0010079800f9
:103bc000f0458000500798009047800000004000ba
:103bd00099f6070060079800604180008000780037
:103be000300320006b040700680337001100200039
:103bf000d00320006704070001832b0010842b00f2
:103c00006208070012002000110020001e00900032
:103c1000c50707001a28ef00d0408000c040880088
:103c2000c0408000b0408800b0408000a0408800c4
:103c3000a0408000904088000000eb00000f78005a
:103c40003803370090478000800078006e009000b5
:103c50001d0907000000eb0040079800290337000a
:103c60004e00900000004000ee00900000804000f8
:103c70001000780070079800604180006101b80072
:103c800060ff2f00f1ff2f000200400083804800fa
:103c90004206200003002000820f5000838f58004e
:103ca00084013e00006001007f0037008101370081
:103cb000800137007f0137007e0137007d0137002a
:103cc0007c0137007b0137007a013700790137002a
:103cd0005a00370077013700760137007501370049
:103ce000740137007301370072013700710137002a
:103cf000700137006f013700850037006d01370014
:103d00006c0137006b0137006a0137006901370029
:103d10006801370067013700660137006501370029
:103d20006401370063013700620137006101370029
:103d3000600137005f0137005e0137005d01370029
:103d4000da003700d9003700710037005901370019
:103d50005801370057013700560137005501370029
:103d60005401370053013700520137005101370029
:103d7000500137004f0137004e0137004d01370029
:103d80004c0137004b0137004a0137004901370029
:103d90004801370047013700460137004501370029
:103da0004401370043013700420137004101370029
:103db000400137003f0137003e0137003d01370029
:103dc0003c0137003b0137003a0137003901370029
:103dd0003801370037013700360137003501370029
:103de0003401370033013700320137003101370029
:103df000300137002f0137002e0137002d01370029
:103e00002c0137002b0137002a0137006b003700e7
:103e10008400370027013700a40037002501370050
:103e20002401370023013700220137002101370028
:103e3000200137001f013700450037007e00900049
:103e40000000e000030032007e009000e20f50000e
:103e500003003a005046800010007800030037004d
:103e6000504680000080e80010007800200798008d
:103e70007e009000e10f5000030032007e009000b1
:103e8000e20f500003003a00604680001000780006
:103e900003003700604680000080e80010007800d2
:103ea00030079800030137007e0090000000e0001a
:103eb000030032007e009000e20f500003003a0041
:103ec0005046800010007800030037005046800004
:103ed0000080e8001000780020079800504680001d
:103ee000900078002e009000808f500003003a0070
:103ef00060468000100078000300370060468000b4
:103f00000080e8001000780030079800e9003700d2
:103f10007e0090000000e000030032007e00900070
:103f2000e20f500003003a00504680001000780075
:103f300003003700504680000080e8001000780041
:103f4000200798000000eb0030079800d9003700e8
:103f50007e0090000000e000030032007e00900030
:103f6000e20f500003003a00504680001000780035
:103f700003003700504680000080e8001000780001
:103f8000200798007e009000e10f500003003200ef
:103f90007e009000e20f500003003a00604680006f
:103fa0001000780003003700604680000080e800c1
:103fb0001000780030079800be0037007e009000a7
:103fc0000000e000030032007e009000e20f50008d
:103fd00003003a00504680001000780003003700cc
:103fe000504680000080e80010007800200798000c
:103ff00050468000900078002e009000808f500086
:1040000004003a00604680000080e800100078005c
:1040100002003700604680001000780030079800ea
:10402000a40037007e0090000000e0000300320092
:104030007e009000e20f500003003a0050468000de
:104040001000780003003700504680000080e80030
:1040500010007800200798005046800090007800fb
:104060002e009000808f500004003a0060468000cf
:104070000080e800100078000200370060468000f1
:1040800010007800300798001e007800ef0f5000f5
:1040900003003400b0002000f045880085003700a0
:1040a0000000eb00f04588008200370010478000d8
:1040b00063006000e30f500003003a00704180008d
:1040c000e20f50007a00340070468000e40f500088
:1040d0001f003200e60f50004e003200e20f500089
:1040e00071003a007e0090000000e0000300320002
:1040f0007e009000e20f500003003a00504680001e
:104100001000780003003700504680000080e8006f
:1041100010007800200798007e009000e10f50000a
:10412000030032007e009000e20f500003003a00ce
:104130006046800010007800030037006046800071
:104140000080e80010007800300798005600370023
:10415000514680007e00900000004000008040003a
:1041600090007800210798007e009000e10f500039
:10417000030032007e009000e20f50000b003a0076
:104180009e00780070002800008060000000e000c1
:1041900004003d000000e90081ff2f000080700056
:1041a0000000e800e30f5000110034007e00900092
:1041b0000000e000030032007e009000e30f50009a
:1041c0000f003a009e007800700028000080600018
:1041d0000000e00004003d000000e90081ff2f0026
:1041e000008070000000e800e30f5000040034007d
:1041f0006046800010017800320798002a003700de
:10420000604680000080e800900078003107980048
:1042100025003700514680007e00900000004000dd
:104220000080400010017800220798007e00900076
:10423000e20f500008003c009e007800c000200003
:1042400000017800110009008200d8008000fd0004
:10425000e50f50000b0034007e009000e20f50008c
:104260000c0034009e007800c0002000000178009f
:10427000110009008200d8008000fd00e50f500009
:1042800004003400604680009000780031079800f8
:1042900005003700604680000080e80010017800cb
:1042a00032079800000000002e28ef0001003700c0
:1042b000000000008040eb000040eb009404070089
:1042c000a1692b002e009000008040001040780073
:1042d0004a040700a1692b003e00900000804000c6
:1042e0001040780045040700e04580006101b800f7
:1042f0000080eb008080eb000200400083804800db
:10430000f204200003002000820f5000838f580029
:1043100073013e0000600100520037004e0037007c
:104320006f0137006e0137006d0137006c013700f7
:104330006b0137006a01370069013700520037000e
:1043400067013700660137006501370064013700f7
:1043500063013700620137006101370060013700f7
:104360005f0137005b003700620037005c013700f7
:104370005b0137005a01370082003700890037009f
:10438000570137005601370055013700a9003700a3
:1043900053013700520137005101370050013700f7
:1043a0004f0137004e0137004d0137004c013700f7
:1043b0004b013700c300370049013700ca003700fe
:1043c0004701370046013700d80037004401370065
:1043d00043013700420137004101370040013700f7
:1043e0003f0137003e0137003d0137003c013700f7
:1043f0003b0137003a0137003901370038013700f7
:104400003701370036013700120137003401370019
:1044100033013700320137003101370030013700f6
:104420002f0137002e0137002d0137002c013700f6
:104430002b0137002a0137002901370028013700f6
:1044400027013700260137002501370024013700f6
:1044500023013700070137000000eb00f04588001a
:104460001f0137001e007800610060000000e000be
:10447000020032005e009000010037000000eb00f7
:10448000f0458800160137001e089000000040002b
:1044900000017800706626000090b900c288de0036
:1044a0004f90de0000805000000f98001e08900022
:1044b0009e0050000e089000808f500002003c00cb
:1044c0005e009000010037000000eb00f04588001e
:1044d000030137002e009000f8f407000000e00010
:1044e00002003200100020000100370020002000f0
:1044f000404688009e0078005000200000017800af
:10450000110009008200d8008000fd00e20f500079
:1045100012003200e20f500005003c000000e000f5
:1045200008003200e10f500009003200ec003700b3
:10453000e30f50000c003200e40f50000d00320079
:10454000e70037000000eb00f04588000c00370062
:10455000b0052000f045880009003700c0052000a4
:10456000f045880006003700d0052000f04588009f
:1045700003003700e0052000f0458800000000003f
:10458000d70037002e009000ccf407000000e000b8
:10459000020032001000200001003700200020003f
:1045a000404688009e0078005000200000017800fe
:1045b000110009008200d8008000fd00e20f5000c9
:1045c00012003200e20f500005003c000000e00045
:1045d00008003200e10f500009003200c00037002f
:1045e000e30f50000c003200e40f50000d003200c9
:1045f000bb0037000000eb00f04588000c003700de
:1046000000062000f0458800090037001006200051
:10461000f04588000600370020062000f04588009d
:104620000300370030062000f0458800000000003d
:10463000ab0037009e007800500020000001780099
:10464000110009008200d8008000fd00e20f500038
:1046500012003200e20f500005003c000000e000b4
:1046600008003200e10f5000090032009c003700c2
:10467000e30f50000c003200e40f50000d00320038
:10468000970037000000eb00f04588000c00370071
:1046900090072000f045880009003700a00720009f
:1046a000f045880006003700b0072000f04588007c
:1046b00003003700c0072000f0458800000000001c
:1046c000870037002e0090007cf407000000e00017
:1046d00002003200100020000100370020002000fe
:1046e000404688007e0037002e00900073f40700db
:1046f0000000e0000200320010002000010037003e
:1047000020002000404688001e0078006100600004
:104710000000e000020032005e009000010037005f
:104720000000eb00f04588006d0037001e007800a7
:10473000e30f50000b0034001e007800e70f50001c
:1047400008003c002e0090005cf407000000e00030
:10475000040032003e00900058f407000000e00022
:104760002a003a001e007800e70f50000b003400ca
:104770001e007800eb0f500008003c002e00900057
:104780004ef407000000e000040032003e009000fc
:104790004af407000000e0001c0032001e00780010
:1047a000eb0f50000b0034001e007800ef0f50009c
:1047b00008003c002e00900040f407000000e000dc
:1047c00004003a003e0090003cf407000000e000c6
:1047d0000e003a001e007800ef0f50001400340065
:1047e0001e007800f30f500011003c002e009000d6
:1047f00032f407000000e0000d003a003e00900097
:104800002ef407000000e00009003a002e0090009e
:104810002af407000000e00002003200200020001f
:104820000100370010002000404688002c003700af
:104830002e00900021f407000000e000020032008a
:1048400010002000010037002000200040468800b2
:10485000230037007e009000e10f500002003c0072
:104860000000eb000100370010092000f04588002f
:104870001b0037009af307006100600000407800d9
:104880000004e0000b0032001e089000cf00de00a4
:10489000008040000080d1009e0f500002003c00cc
:1048a0005e009000010037000000eb00f04588003a
:1048b0000b0037001e089000cf00de000080400093
:1048c0000080d1009e0f5000020034005e00900076
:1048d000010037000000eb00f045880000000000f8
:1048e000f045800000017800be0090002e0090008e
:1048f00038fb07001e0fe8004e0090000000e800a3
:1049000040079800914780004e009000808f500033
:1049100004003400e14080002e089000808f500099
:10492000cffc35001e0890009e007800808f50005c
:1049300004003d00e14080002e089000808f500070
:10494000c0fc35008000eb00d003200011010700ff
:10495000f04080008000eb00ebf30700a1408000f6
:10496000400620000088b90080007800a240800046
:104970009040800000004100000178001100090013
:104980008200d80011002000dff30700e140800022
:104990002e089000808f50000b003d0010c0b30027
:1049a0001e019000be089000810f510001003500eb
:1049b0000040eb009e0090008100e8001107980085
:1049c0000004e00089fc3a008000eb00e0032000d6
:1049d000f00007000080eb00404188006e0090006e
:1049e000b0f2070050468000aef20700604680003b
:1049f000acf20700a0468000aaf207000080fa008f
:104a0000000006000200fa000000eb00000f780032
:104a10001e00a2001e0078003046880021852b0071
:104a200010002000e9040700f9ff37000200fa0037
:104a3000000f780010002000304688008040eb0016
:104a400030c0b300b2020700c0c4b3006b0207005d
:104a500011002000f0042000ce0007000080fa00c2
:104a6000000006000000fa000000eb00304688005d
:104a70008040eb0030c0b300a5020700e0c2b300e5
:104a80005e0207008000eb00f0042000c100070078
:104a90000080fa00000006000000fa00f09f2300ea
:104aa00000168800c422ef00f0cf2f0030168800d7
:104ab00000302000501688000080eb00601688004f
:104ac000d022ef0000ff2000901688000000230095
:104ad000b0168800d822ef00dc22ef000080eb0047
:104ae000f0168800e222ef00f0cf2f002017880098
:104af000e822ef000080fa00000006000000fa0043
:104b00000021ef0080382100100888008460a9008f
:104b10008c60a80000012800200888000080eb00bd
:104b2000dcf107000028ef000228ef000428ef0066
:104b30000628ef000080fa00000006000200fa00dc
:104b4000000f78001e0078006101b800004080006e
:104b5000114080000200400083804800004088002f
:104b6000114088001e0078006101b80020408000dc
:104b700031408000020040008380480020408800cf
:104b80003140880022408000334080000004200033
:104b90000100200002027800030178008001780003
:104ba0000100780003026200000061008000eb0059
:104bb000c000dd00000020000001be006120b80040
:104bc00000017100818171004a1add004610de008b
:104bd00000007200c618de000040780061406000ee
:104be0000080fb00610060004e00dd00a116800027
:104bf00001e0a10001007000a01688000000000084
:104c000000000000224080003340800000042000ab
:104c10000100200002027800030178008001780082
:104c20000100780003026200000061008000eb00d8
:104c3000c000dd00000020000001be006120b800bf
:104c400000017100818171004a1add004610de000a
:104c500000007200c618de0000407800614060006d
:104c60000080fb004f00dd00a2168000f1ff27004e
:104c70008100610001007000a016880000000000a3
:104c8000000000000080fa00000006000000fa00aa
:104c9000c0478000d14780000001be002203b00061
:104ca0000380b000204080003140800014002000cc
:104cb000800f5100818f5900010039000002eb0084
:104cc000040078000080fa00000006000600fa00e8
:104cd000200798002e009000cf80de00008fbe00dd
:104ce0000028ef000228ef000000000000408000d4
:104cf00011408000be0f5000ae8f5800fbff3900fe
:104d00000080fa00000006000200fa00000f7800a0
:104d100002003700803e2000ecff07001e007800f4
:104d200000f0a7000000ea000000ea004f00de00eb
:104d3000004078001e0fe9000004e000f5ff3a0093
:104d40000080fa00000006000600fa0065f1070086
:104d500090f12f0069f1070000f02d00000f78009e
:104d6000d0752700100798009001200020079800b8
:104d70002e0190009e0090001e00780081f1070037
:104d80008000eb00d0032000020007000080fa0042
:104d9000000006000400fa00000f780011079800d8
:104da00010002000704088000000000048f107005b
:104db0000004e000fdff3a001e007800004078008b
:104dc0008080fb00f007200000806000d010880089
:104dd000000000003ef107000004e000fdff3a0083
:104de0001e0090008040780000c8b30000c0700032
:104df0000080fb00d01088000000000034f10700a4
:104e00000004e000fdff3a00804080000000e00068
:104e10000b0032001a22ef00000000002cf1070006
:104e20000004e000fdff3a0020082000d0108800b8
:104e30000000000026f107000004e000fdff3a003a
:104e40001028ef000e28ef000080fa000000060096
:104e50000200fa00000f78001e0078000040780081
:104e60006140600061406000614060000080fb00c4
:104e700061006000a11680000100a1000100700027
:104e8000a016880000000000000000009e007800ce
:104e9000628060000080d1000040780061406000c6
:104ea0000080fb006100600000004000a11680004f
:104eb0000110a10001007000a01688000000000091
:104ec000000000009e007800648060004280de00e8
:104ed00000407800614060000080fb0061006000dd
:104ee0004200dd00a11680000120a1000100700039
:104ef000a016880000000000000000009e0078005e
:104f0000688060004380de000040780061406000ff
:104f10000080fb00610060004300dd00a1168000fe
:104f20000130a10001007000a01688000000000000
:104f3000000000000080fa00000006000200fa00f5
:104f4000000f78001e00780000407800614060008b
:104f500061406000614060000080fb006100600013
:104f60004c00dd00a116800001c0a100010070000e
:104f7000a016880000000000000000009e007800dd
:104f8000628060000080d1000040780061406000d5
:104f90000080fb00610060004d00dd00a116800074
:104fa00001d0a10001007000a016880000000000e0
:104fb000000000009e007800648060004280de00f7
:104fc00000407800614060000080fb0061006000ec
:104fd0004800dd00411680000180a1000100700042
:104fe0004016880000000000000000009e007800cd
:104ff000688060004380de0000407800614060000f
:105000000080fb00610060004900dd004116800067
:105010000190a1000100700040168800000000000f
:10502000000000000080fa00000006000000fa0006
:10503000a1a2a90001158000f0cf2f000080600020
:105040000015880001158000000e2000010070008e
:1050500000158800a022a80011158000f0ff210093
:105060000080600010158800a342a8001115800080
:1050700030fc2f00008060000030a0001015880078
:10508000a222a900a202a9002115800000f021009f
:105090000100700020158800a4e2a80021158000fe
:1050a00000fc2f0000806000f001b3002015880094
:1050b000a782a900a682a90030158000f000b300e5
:1050c0003015880031158000f00f2f00008060003f
:1050d00030158800f0ff27004015880000002800e8
:1050e00050158800a042a8008560a8008d60a80027
:1050f000a1e2a8000080fa00000006000400fa0007
:10510000000f7800110798001e0078006101b900b7
:10511000c0c38500d1c385000200400083804800e1
:10512000220020009cf00700013b800000002800c6
:10513000008060000000e000fbff3a001e007800e5
:105140006101b900c0c38500d1c3850002004000e1
:10515000838048001e019000a8f00700013b8000fa
:1051600000002800008060000000e000fbff3a0023
:105170000080fa00000006000400fa001007980002
:105180001e0090006101b900c0c38500d1c3850035
:1051900002004000838048000002eb002300200052
:1051a0000e017800a4f007001e0078000080fa00cd
:1051b000000006000400fa0080042000000f7800c0
:1051c00000222c00100798009e0078001e0090001e
:1051d00029f007000080fa00000006000200fa0033
:1051e000004f78001147980004f0070025f00700f1
:1051f0000000000030108000610060000000e0004e
:10520000fcff3a0085c0a9001e4078000cf00700a2
:105210000000000040108000610060000000e0001d
:10522000fcff3a0000000000210480000000240080
:10523000008060000000e000fbff320085c0a90094
:105240000000000041108000000028000080600085
:105250000000e000fbff3a001e409000f8ef07005e
:105260000af00700000000003010800064006000b9
:105270000000e000fcff3a000080fa000000060099
:105280000400fa0020479800dcef0700fdef07005c
:105290000000000030108000610060000000e000ad
:1052a000fcff3a0085c0a9002e4090000004a00039
:1052b000e3ef070000000000401080006100600084
:1052c0000000e000fcff3a00000000002104800024
:1052d00000002400008060000000e000fbff3200be
:1052e00085c0a900000000004110800000002800d7
:1052f000008060000000e000fbff3a00caef0700fa
:10530000004f7800e1ef070000000000301080003f
:10531000640060000000e000fcff3a001e407800de
:105320000080fa00000006000000fa0027c8bf0055
:105330000034a00027e8b70020c0b30026e8b7007b
:1053400000352c00e101070041c0b300e0c7b30005
:10535000a2ff070040062000dc01070000c3b300e5
:105360009e01070040192100d801070000c3b300c7
:105370009a01070060092000d401070000c3b300b0
:105380009601070060092000d001070000c2b300a9
:105390009201070060092000cc01070080c0b30023
:1053a00022e8b70022c8bf000054a0002101070076
:1053b0002468ef00830007008b00070020c0b300c3
:1053c00023e8b70023c8bf000024a000190107008c
:1053d00024c8bf000034a0001601070080c0b3003d
:1053e00025e8b70025c8bf000044a0001101070050
:1053f000330007000080fa00000006000200fa00f7
:10540000004f78001e407800160107001e4078000b
:105410000080fb0080007800a00120005dfe0700f6
:105420000080fa00000006000600fa00200798003d
:10543000ae009000010f7800040037001e007800d5
:10544000104078001e0fe800060107001e007800db
:10545000104078000004e000f8ff3a000000eb0084
:10546000100798000b0037001e009000ae0090005f
:1054700000804000104078000080fb008000780031
:10548000a001200043fe07001e0090000000e8007d
:10549000100798001e009000ae00900000804000b1
:1054a000104078000004e000030032001e0090006d
:1054b000ef0f5000ecff34000080fa0000000600ff
:1054c0000000fa0010c0b300da0007000053270004
:1054d0007e01070001022000900120002dfe070040
:1054e0000080fa00000006000000fa0020c0b300af
:1054f000d0000700005327007401070001022000bc
:105500009001200023fe07000080fa000000060042
:105510000c00fa00204f9800314f98000000eb007b
:105520001007980000042000200798004001200088
:1055300030079800400520004007980026c8bf00ab
:10554000be48900080cf50000300390026c8bf003d
:105550000040e900304f98003e4890000080fb007a
:1055600000004000000047001000900080407800dc
:105570002e48900000c040008040780000c8b30072
:1055800000c07000ab0007002e4890000080fb00b8
:105590006f00600000004000800078003e489000ee
:1055a0000080fb0061006000010070007f0f600060
:1055b0009e00780090012000f6fd07000080fa00b0
:1055c000000006000000fa0024c8bf000024a1006b
:1055d00024e8b70024c8bf000034a00095000700ed
:1055e0000080fa00000006000000fa0024c8bf0096
:1055f0000024a00024e8b70024c8bf000034a000a5
:105600008c0007000080fa00000006000000fa008d
:1056100024c8bf000014a10024e8b70024c8bf00bc
:105620000034a000830007000080fa00000006009c
:105630000000fa0024c8bf000014a00024e8b7004e
:1056400024c8bf000034a0007a0007000080fa00e0
:10565000000006000000fa0024c8bf000004a100fa
:1056600024e8b70024c8bf000034a0007100070080
:105670000080fa00000006000000fa0024c8bf0005
:105680000004a00024e8b70024c8bf000034a00034
:10569000680007000080fa00000006000000fa0021
:1056a00025c8bf000024a10025e8b70025c8bf0019
:1056b0000034a00025e8b70025c8bf000044a000c2
:1056c0005c0007000080fa00000006000000fa00fd
:1056d00025c8bf000024a00025e8b70025c8bf00ea
:1056e0000034a00025e8b70025c8bf000044a00092
:1056f000500007000080fa00000006000000fa00d9
:1057000023c8bf000014a00023e8b70023c8bf00cf
:105710000024a000470007000080fa0000000600f7
:105720000000fa0023c8bf000014a10023e8b7005e
:1057300023c8bf000024a0003e0007000080fa003c
:10574000000006000000fa0023c8bf000004a0000b
:1057500023e8b70023c8bf000024a00035000700dd
:105760000080fa00000006000000fa0023c8bf0015
:105770000004a10023e8b70023c8bf000024a00054
:105780002c0007000080fa00000006000600fa0066
:1057900020479800210798002e4090006740600045
:1057a000204798002e4090000080fb004300dd0061
:1057b000004078000064a0001e0007000000eb001d
:1057c000000f7800060037001e007800ae00900041
:1057d0000080400010407800220007001e0fe80003
:1057e0001e007800e70f5000f7ff34000080fa0039
:1057f000000006000000fa0027c8bf000034a10026
:1058000027e8b700c3000700a70007000080fa00e0
:10581000000006000000fa0027c8bf000034a00006
:1058200027e8b700bb0007009f0007000080fa00d0
:10583000000006000200fa00004f78008040eb00f4
:105840001e4078002f0007000080fa0000000600cc
:105850000000fa000040eb00430007000080fa005f
:10586000000006000200fa00004f780011c0b300eb
:105870001e407800230007000080fa0000000600a8
:105880000000fa0010c0b300370007000080fa00e3
:10589000000006000000fa00edff070001c8b30099
:1058a000014060000080fa00000006000000fa00dd
:1058b000e7ff07000074a1000080fa000000060066
:1058c0000200fa00004f780000c8b3001e407000cc
:1058d000d8ff0700eaff07000080fa00000006007a
:1058e0000200fa00004f78001e407800f043b2003a
:1058f0000064a000cfff0700e1ff07000080fa006e
:10590000000006000400fa00204798003147980084
:10591000ae40900000cfb30000cf6000ae409000da
:10592000400020000008dd00104798009e409000d5
:1059300000cfb30000c06000104798003e409000c8
:105940001e4070000024a000240007009e4090002c
:105950003e40900000c070000024a0001f0007001f
:105960000080fa00000006000400fa0020479800ba
:10597000ae40900000cfb30000c070004a000700a6
:10598000ae40900040cfb30000c070001d00070083
:10599000004f7800ae40900040cfb30000c07000d0
:1059a00018000700104798002e4090000024a00027
:1059b0003d0007009e40780000cfb30080c060002b
:1059c0001e4090000080fb004400de000040780094
:1059d00000c070000080fa00000006000200fa001b
:1059e000004f78001e4078000014a1002e00070030
:1059f0001e4078000014a1000f0007000080fa008c
:105a0000000006000400fa00204798002e40900095
:105a10000014a000160007003e000700004f7800a9
:105a20002e4090000014a000030007001e407800e4
:105a30000080fa00000006000200fa00004f780023
:105a40001e4078000024a00017000700100020006e
:105a50001e0007001e4078000024a100120007006d
:105a600020032000190007000080fa000000060053
:105a70000200fa00004f78001e4078000024a100c8
:105a80000900070010002000100007001e407800e9
:105a90000024a00004000700200320000b000700e2
:105aa0000080fa00000006000200fa00004f7800b3
:105ab00027c8bf001e40700080407800e0c7b300d8
:105ac000c6fd07000080fa00000006000400fa008e
:105ad000100798000000eb00000f78000700370067
:105ae00000000000000000000000000000000000b6
:105af00000000000000000001e0fe8001e009000e3
:105b00009e007800808f5000f5ff39000080fa0079
:105b1000000006000000fa00e0c7b300d8fd07004f
:105b20000080fa00000006001200fa0060079800ea
:105b300071079800020f98006e01900070a3210079
:105b40000090b900ca88de004f90de00008050004f
:105b500010079800ee00900070a321000089b900a2
:105b60004a99de004f88de000000510002712200d9
:105b70000281b9000200780000805000813e2000c0
:105b800001017800110009000200d80020079800e8
:105b9000ee009000803e2000000178001100090016
:105ba0008200d8008000fd0000017800b04721008d
:105bb0000090b900c388de004f90de0000805000e6
:105bc00030079800ee009000b04721000089b9002e
:105bd0004399de004f88de0000005100420620009d
:105be0000281b90002007800008050007166260032
:105bf0000181b900c298de004f80de0000805000b5
:105c0000400798006e009000716626000181b9007f
:105c10004299de00cf80de00810051006a09b900a0
:105c20008200780001005000500798000000eb004f
:105c3000000f78000e089000804078007e009000f1
:105c40000040780032fe07001e0090000000e000d7
:105c50000e0032001e009000004078000043b000ab
:105c6000e6fd07000e089000804078007e0090005e
:105c70000000e800700798007e0090000040780067
:105c800023fe070010002000000f78002e00900077
:105c90000000e00003003a001e0078000000e00071
:105ca0000e0032002e009000004078000043b0004b
:105cb000d2fd07000e089000804078007e00900022
:105cc0000000e800700798007e0090000040780017
:105cd0000ffe070010002000000f78003e0090002b
:105ce0000000e00003003a001e0078000000e00021
:105cf0000e0032003e009000004078000043b000eb
:105d0000befd07000e089000804078007e009000e5
:105d10000000e800700798007e00900000407800c6
:105d2000fbfd070010002000000f78004e009000df
:105d30000000e00003003a001e0078000000e000d0
:105d40000c0032004e009000004078000043b0008c
:105d5000aafd07000e089000804078007e009000a9
:105d60000000e800700798007e0090000040780076
:105d7000e7fd07005e009000004078000043b0009f
:105d80009efd07000080fa00000006000400fa00f3
:105d9000000f780011079800d3fd0700c8fd070029
:105da0001e007800a0fd070011c0b3000040eb000a
:105db000d7fd07001e0090009bfd0700100020008b
:105dc000d1fb07000080fa00000006001200fa0074
:105dd000889fbe0070079800010f98000f0478009c
:105de0000f007800800478007e0090008000e900b9
:105df00051079800000040000000e8000000e800a3
:105e00000000d100800040000f007800818747002b
:105e10000000e8000000d10000004000600798008a
:105e20000000eb00000f7800a5fd0700aefd0700a5
:105e30000e0890007cfd07000000eb0010079800a2
:105e400009003700ee0090001e00900000004000a6
:105e500000804000a1ff2f00010878001e00900084
:105e60000000e800100798009e0090007e0090005f
:105e7000808f5000f3ff35000000eb001007980002
:105e8000330037000000eb00300798000e003700a9
:105e90003e0090000040780011c0b3009cfd070058
:105ea000ee0090003e00900000004000610078008d
:105eb000004078000043b00050fd07003e00900015
:105ec0000000e80030079800be0090007e009000bf
:105ed000808f5000eeff35000d00370040418000fc
:105ee0000000e0000a0034004041800001fd2f0066
:105ef000808040006e0190001e0090000000400075
:105f000000004100010878000080eb00404188005b
:105f1000ee0090001e00900000004000610078003c
:105f20000000e000edff3500ee0090001e00900044
:105f30000000400061007800800078001000200020
:105f400094fb07001e0090000000e8001007980076
:105f50009e0090007e009000808f5000c9ff3500a9
:105f60000000eb00400798000e0037004e00900044
:105f70000040780011c0b30065fd0700ee009000fe
:105f80004e00900000004000610078000040780062
:105f90000043b00019fd07004e0090000000e8002b
:105fa00040079800ce0090007e009000808f500047
:105fb000eeff35000000eb00200798000b003700d3
:105fc0001e0078006a00b900800078006e01900021
:105fd0002e0090000000400062007800008f40001a
:105fe0002e0090000000e80020079800ae0090000e
:105ff0007e009000808f5000f1ff35001e00780079
:1060000089077800880778004f04be000080fa00f6
:10601000000006000200fa00000f78001e00780061
:1060200000407800614060000080fb00610060007b
:106030004e00dd001116800001e0a100010070009b
:10604000101688000080fa00000006000400fa0024
:10605000100798001e019000b04721000090b90081
:10606000c388de004f90de0000805000004f7800b3
:106070009e009000b04721000089b9004399de00de
:106080004f88de0000005100420620000281b90066
:106090000200780000805000104798001e00fb00ae
:1060a00080007800700120003afb07001e4090003d
:1060b0000000fb00800078008001200035fb070015
:1060c0000080fa00000006000a00fa00300798007d
:1060d000410798004e0090000000e00037003200b9
:1060e0004e009000e10f5000360032000000eb003f
:1060f000000f7800070037001e0078000000400005
:10610000be009000008040009e00780001087800ea
:106110001e0fe8009e0078004e009000808f500017
:10612000f5ff39004e0090000000e900000f7800f4
:106130001e0037006aed07009e00e80001017800ac
:10614000110009000200d8008000fd00100798002f
:106150001e00900000004000be0090000080400043
:1061600010007800200798001e00900000004000fa
:10617000be009000808040001e00780000004000bb
:106180003e01900000004100100078008008780077
:106190001e00780000004000be009000008040001b
:1061a000ae009000010878001e0fe9001e00780084
:1061b0000000e000dfff3c000300370000000000ab
:1061c00001003700000000000080fa000000060017
:1061d0000400fa0010079800f0478000000f7800d4
:1061e0001e0090006101b8004040800051408000d6
:1061f00002004000838048004040880051408800f1
:1062000000000000224080003340800040408000b9
:1062100051408000800f5100818f5900f9ff3900f3
:10622000f24780009e00780010002000810f51008e
:1062300001003e000000eb000080fa0000000600b4
:106240000400fa00000f7800110798001e00780083
:10625000cf80de00020a200003002000820f5000e1
:10626000838f58008d023e00006001008b023700d2
:106270008a02370089023700b8013700c2013700af
:10628000ab013700b8003700ca013700830237007e
:10629000c200370096003700a20037007f023700a7
:1062a0007e0237000a0237007c0237007b0237008b
:1062b0007a0237007902370078023700ca003700c7
:1062c000dc003700e6003700740237007302370045
:1062d0007202370071023700700237006f02370018
:1062e0006e0237006d0237006c0237006b02370018
:1062f0006a02370069023700680237006702370018
:106300006602370065023700640237006302370017
:106310006202370061023700600237005f02370017
:106320005e0237005d0237005c0237005b02370017
:106330005a02370059023700580237005702370017
:106340005602370055023700540237005302370017
:106350005202370051023700500237004f02370017
