:020000040000fa
:080000000007040000000000ed
:020000040000fa
:04000800bc08000030
:020000040000fa
:04000c00bc0800002c
:020000040000fa
:04001000bc08000028
:020000040000fa
:04001400bc08000024
:020000040000fa
:04001800bc08000020
:020000040000fa
:04001c00bc0800001c
:020000040000fa
:04002000bc08000018
:020000040000fa
:04002400bc08000014
:020000040000fa
:04002800bc08000010
:020000040000fa
:04002c00bc0800000c
:020000040000fa
:04003000bc08000008
:020000040000fa
:04003400c8070000f9
:020000040000fa
:04003800bc08000000
:020000040000fa
:04003c00bc080000fc
:020000040000fa
:04004000bc080000f8
:020000040000fa
:04004400bc080000f4
:020000040000fa
:04004800bc080000f0
:020000040000fa
:04004c00bc080000ec
:020000040000fa
:04005000bc080000e8
:020000040000fa
:040054006a08000036
:020000040000fa
:04005800bc080000e0
:020000040000fa
:04005c00bc080000dc
:020000040000fa
:04006000bc080000d8
:020000040000fa
:04006400bc080000d4
:020000040000fa
:04006800bc080000d0
:020000040000fa
:04006c00bc080000cc
:020000040000fa
:04007000bc080000c8
:020000040000fa
:04007400bc080000c4
:020000040000fa
:04007800bc080000c0
:020000040000fa
:04007c00bc080000bc
:020000040000fa
:04008000bc080000b8
:020000040000fa
:04008400bc080000b4
:020000040000fa
:040088007e080000ee
:020000040000fa
:04008c00bc080000ac
:020000040000fa
:04009000bc080000a8
:020000040000fa
:04009400bc080000a4
:020000040000fa
:04009800bc080000a0
:020000040000fa
:04009c00bc0800009c
:020000040000fa
:0400a000bc08000098
:020000040000fa
:0400a400bc08000094
:020000040000fa
:0400a800bc08000090
:020000040000fa
:0400ac00bc0800008c
:020000040000fa
:0400b000bc08000088
:020000040000fa
:0400b400bc08000084
:020000040000fa
:0400b800bc08000080
:020000040000fa
:0400bc00bc0800007c
:020000040000fa
:0400c000bc08000078
:020000040000fa
:0400c400bc08000074
:020000040000fa
:0400c800bc08000070
:020000040000fa
:0400cc00bc0800006c
:020000040000fa
:0400d000bc08000068
:020000040000fa
:0400d400bc08000064
:020000040000fa
:0400d800bc08000060
:020000040000fa
:04010800bc0800002f
:020000040000fa
:04010c00bc0800002b
:020000040000fa
:04011000bc08000027
:020000040000fa
:04011400bc08000023
:020000040000fa
:04011800bc0800001f
:020000040000fa
:04011c00bc0800001b
:020000040000fa
:04012000bc08000017
:020000040000fa
:04012400bc08000013
:020000040000fa
:04012800bc0800000f
:020000040000fa
:04012c00bc0800000b
:020000040000fa
:04013000bc08000007
:020000040000fa
:04013400bc08000003
:020000040000fa
:04013800bc080000ff
:020000040000fa
:04013c00bc080000fb
:020000040000fa
:04014000bc080000f7
:020000040000fa
:04014400bc080000f3
:020000040000fa
:04014800bc080000ef
:020000040000fa
:04014c00bc080000eb
:020000040000fa
:04015000bc080000e7
:020000040000fa
:04015400bc080000e3
:020000040000fa
:04015800bc080000df
:020000040000fa
:04015c00bc080000db
:020000040000fa
:04016000bc080000d7
:020000040000fa
:04016400bc080000d3
:020000040000fa
:04016800bc080000cf
:020000040000fa
:04016c00bc080000cb
:020000040000fa
:04017000bc080000c7
:020000040000fa
:04017400bc080000c3
:020000040000fa
:04017800bc080000bf
:020000040000fa
:04017c00bc080000bb
:020000040000fa
:04018000bc080000b7
:020000040000fa
:04018400bc080000b3
:020000040000fa
:04018800bc080000af
:020000040000fa
:04018c00bc080000ab
:020000040000fa
:04019000bc080000a7
:020000040000fa
:04019400bc080000a3
:020000040000fa
:04019800bc0800009f
:020000040000fa
:04019c00bc0800009b
:020000040000fa
:0401a000bc08000097
:020000040000fa
:0401a400bc08000093
:020000040000fa
:0401a800bc0800008f
:020000040000fa
:0401ac00bc0800008b
:020000040000fa
:0401b000bc08000087
:020000040000fa
:0401b400bc08000083
:020000040000fa
:0401b800bc0800007f
:020000040000fa
:0401bc00bc0800007b
:020000040000fa
:0401c000bc08000077
:020000040000fa
:0401c400bc08000073
:020000040000fa
:0401c800bc0800006f
:020000040000fa
:0401cc00bc0800006b
:020000040000fa
:0401d000bc08000067
:020000040000fa
:0401d400bc08000063
:020000040000fa
:0401d800bc0800005f
:020000040000fa
:100e00000fb120000e7f22000e01880000000000bc
:100e1000000020000000e00002003200000120007d
:100e200020028800140007005c0107000000e000b9
:100e300003003a00c0a72300010020000200370091
:100e40000000200001002000810f7000010032002e
:100e500014000700000020000000e0000200320043
:100e60000000020000000000440c0200000000002e
:100e70000040da000000fe004440a900c02320002a
:100e80000000e0000300320000002000a001880004
:100e90004440a800000006008a1f78008b1f7800dd
:100ea0000000060091018800800478000000eb003b
:100eb0001a003700e284440032a0b4009905ba0059
:100ec000e284440032a0b4009906ba00e2844400ef
:100ed00032a0b4000006eb00476fde00fd07b20051
:100ee000636ce10003003a00ebff07000000eb0039
:100ef0000a003700606ce10004003a00005deb007e
:100f00008b05e900fdff3e00040037006168e10049
:100f1000010032000086eb000b00070019c7ba0081
:100f20001905ba000e04e00003003a000a00e000d0
:100f3000e0ff3a0000000600fe07b2009e018800b4
:100f40008a047800f5ff3700395dba008b05e900a7
:100f50000c003200295dba008b05e9000800320060
:100f60000c00e00003003a00e284440032a0b40028
:100f7000f5ff370019ddba008b05e900faff3a00ea
:100f80008904e800e184440032a0b40000000600b7
:100f90003600f800809fbe00829fbe00849fbe0086
:100fa000869fbe000000fa0050002000b90f070025
:100fb000404680000000e00002003200db22a80072
:100fc00001003700db22a900614080006041800001
:100fd000808f50000d003400b04780000000e0001a
:100fe0000a003a00ff0f07000000e000070032008f
:100ff0002040800031408000d0478800e1478800d1
:1010000020002000b04788002a003700614080009f
:1010100060418000808f50001e003400b047800087
:10102000e20f50001b003a00d0478000e1478000eb
:1010300065014000e0814800204080003140800090
:10104000800f5100818f59001a00310010002000dc
:10105000c0478800004880000000e8000048880081
:1010600080002000b0478800804080000000e00041
:101070000300320010002000904088000d0037006f
:10108000210020000000eb00181007001228ef00dc
:10109000080037006140800060418000808f500070
:1010a00004003c000000eb00b04788000000eb00ab
:1010b000c04788008460a9000080fa004f03be008a
:1010c0004f02be004f01be004f00be003600f900c7
:1010d00000400600801f78000000fa000014800025
:1010e0007040880010148000604088008560a9006e
:1010f0000080fa004f007800004006003600f8003b
:10110000809fbe00829fbe00849fbe00869fbe005f
:101110000000fa00c0108000620060000000e000e3
:10112000010032001822a900e01080005041880020
:1011300051418000a0022000808f500006003a003c
:101140008000eb00d0032000e80f07002003200000
:10115000b40f07000000fe008700a9000080fa001d
:101160004f03be004f02be004f01be004f00be0045
:101170003600f900004006000040da000000fe00e2
:10118000889fbe0080047800704880000000e00066
:1011900004003a000e0007000084eb000000e000ad
:1011a00008003500784880000900e00005003200a2
:1011b00009004400060007000000e00001003d00b7
:1011c0000084eb00080078004f04be000000060019
:1011d000800078000100e00003003a000091200048
:1011e00070488800000005000080eb0002b120007c
:1011f000828f500002003e00714888000000eb0022
:10120000000006000602ab00feff3a000642ab00fb
:10121000fcff3a000662ab00faff3a000682ab0020
:10122000f8ff3a0009c2ab00f6ff3a0000000600e2
:101230000662a8000662ab00feff3a0008c2a900e1
:1012400000108000000006008040780000c0eb0025
:101250008180fb001110880008e2ab0007003a0013
:1012600009c2ab00feff3a00e6ff07000040eb00ba
:101270000802e20001003d00e0cfb30000000600dc
:101280002110880030108800000006000602a80027
:10129000000006000642a800000006008460a900c5
:1012a000e7006000f2ff2800cc08dd00a304800006
:1012b00003016100680060000281700071ff2f006f
:1012c000a2048800620480008280600081007000b7
:1012d0006104880000000600001020001802b6001b
:1012e0000000e9004f00de000000060017e2a90040
:1012f0008f00a9008f20a9008700a9008720a900de
:10130000000006008700a900e70060008720a90010
:101310000001780083ff2f000207b200040580005f
:101320008481610083817000e8006000030588000b
:10133000c308de00f3f82f00e180600004058000a0
:1013400084816100c808dd00830171000008b200db
:1013500003058800f2ef2f004700de0073048000d1
:101360000301610061006000028170004900dd003e
:1013700072048800f1df2f00740480008480600014
:10138000810070007104880000000600f2108800df
:10139000b0108800c11088000000060000000500a1
:1013a0003200f800910188000008bb0041042400cd
:1013b0006210e10004003200000220000010e10091
:1013c0000a003a0051042400013b88000500fc009b
:1013d00051052000313b8800a10a2000313b8800e4
:1013e00061e7a80000000000000000003200f900e2
:1013f000000006003200f80060042400003b880072
:10140000f2ff37003200f80091018800410024000b
:10141000013b88000208bb00ecff37003200f800f7
:101420009101880051002400013b88000301200045
:101430003218bb008301e900fdff3a00e3ff3700eb
:101440003200f800910188008002780062004000bc
:101450003549ba00e08048003204e0000410a700db
:10146000100032008301e9000e0032002549ba0065
:101470003204e0000410a7000a0032008301e900f2
:10148000080032000408a300eeff320015c9ba00bc
:101490003204e0000410a700020032008301e900da
:1014a000e8ff3a003200f900000006000000e0000a
:1014b0002f003200c0017800e38f51002c0036006d
:1014c0000308a3002a003a00314880000100e00030
:1014d00002003200810f500004003100110098001a
:1014e0003048880016003700820078001101900013
:1014f0000200e00002003200800f5100faff3900c4
:101500001102780084824000850f500018003900d5
:10151000808f520003003a008308420001007800e7
:10152000070037000200e0000300320083014000a2
:10153000830f51000e0039001200980090009800af
:10154000900090000100e00009003200100140000e
:10155000828f500006003a00429020000009eb0004
:1015600010017800110841009100900011009800ce
:1015700000000600889fbe0000047800214880001b
:101580000100e00002003200010078000d00370089
:10159000314880006090200004003700910f540013
:1015a000250036000180e800910090000100e00075
:1015b000faff3a0010003700920f54001e00360068
:1015c0000280e800100178000200e000faff3a0013
:1015d000110178003148800060902000040037003d
:1015e000910f5400140036000180e8009100900033
:1015f000828f5000faff3a0069488000888f5400bb
:101600000100310088047800090078008e0007008e
:101610000000e00004003a00888f5400050032000a
:101620008904d100f5ff3700091878009fff0700f3
:10163000d2ff37000000eb004f04be0000000600a0
:10164000881f7800630440000800a1008000eb00c0
:10165000800f540021003600e30f540001003e00cb
:101660004800200008007800c2ff07008000eb005f
:101670000000e0001900320090007800910178002d
:1016800064815100880f5100030031001101900066
:10169000020878000700370008814000020878003f
:1016a00091019000130198001001780011091400b5
:1016b00088087800100178000000eb000200e000cc
:1016c00004003200920190000300e00001003200ab
:1016d0000280e800204888008180e800010078004e
:1016e0004f04780000000600889fbe00b0418000d3
:1016f0000000e0000100320000000100c041800055
:101700000000e000010032000000010040832000e2
:101710001004e00022003a00404880005148800058
:1017200088002000d26026009301200050000700ae
:10173000f2352f00e3c623000000410081804900fc
:101740000804e900f7ff3a00a883200009082000f8
:1017500088844400d26026009301200044000700e2
:10176000f2352f00e3c623000000410081804900cc
:1017700000acbe00890f5400f6ff3a0040488800d4
:1017800051488800d0458000e1458000d041880064
:10179000e141880011c0b300408320000148780077
:1017a000d26026009301200040488000514880000c
:1017b0002f000700f2352f00e3c62300000241008e
:1017c000818249004448880055488800a083200051
:1017d000100078007f0160004211dd00e0832000ee
:1017e000020140001200be00d0418800e1418800a3
:1017f0000489be000100780000f0a1004f04be0083
:1018000000000600889fbe0000047800b041800000
:101810000000e000010032000000010040832000d1
:101820000048eb00c04180000000e00001003200f1
:10183000000001008004eb004848880059488800f7
:101840004f04be0000000600800078000000eb009e
:101850000100e000050034000100780048fe0700a8
:10186000e10f400001003a000000eb00000006001c
:10187000020ab900001bb9000200b8008100420052
:1018800081004300000006000000fa00580d070028
:10189000700d0700020e0700190f0700750f0700f3
:1018a000b80e070081852b0010862b000a12070056
:1018b000d1862b002000200017120700e700070048
:1018c000fbff37000200fa0081872b001000200088
:1018d00011120700000f78001e0078000040780009
:1018e000614060000080fb00610060004600dd0098
:1018f000a11680000160a10001007000a016880000
:1019000000000000000000001e0078000040780089
:1019100000c0ea00614060000080fb0061006000e0
:101920004700dd00a11680000170a10001007000d9
:10193000a01688000080fa00000006000200fa00ed
:1019400011882b0010002000f3110700000f780011
:101950001e007800e10f500002003a00d482a80077
:10196000040037001e007800e20f500001003a002a
:10197000d4a2a8000080fa00000006000200fa00cd
:10198000000f78001e007800e30f50000c003200ba
:101990001e007800e40f5000090032001e0078009d
:1019a000e70f5000060032001e007800e60f5000de
:1019b000030032001e007800ea0f500002003a00d7
:1019c00010002000010037000000eb000080fa004a
:1019d000000006000800fa00200798003107980070
:1019e000ae00900000fc200000806000c680de0099
:1019f0003e009000e10f500002003a000004200079
:101a0000010037000000eb00008f40009e007800ce
:101a1000b0012000b50d0700ae009000f0032000db
:101a2000808060003e009000e10f500002003a000c
:101a300000042000010037000000eb00008040009f
:101a4000100798009e009000c0012000a70d07001d
:101a50000080fa00000006000400fa0080468000c2
:101a60000000e000230034008046800000004000b9
:101a7000f3fe0700604688008046800000004000ba
:101a8000effe0700704688000000eb00000f7800b2
:101a90001500370091882b00200020009e110700c0
:101aa00010079800614680001e007800000040008a
:101ab000008040009e0090000108780071892b0092
:101ac0002000200094110700100798007146800044
:101ad0001e00780000004000008040009e00900042
:101ae000010878001e0fe800804680009e0f50001d
:101af000e8ff3c00b04680000000e0002300340016
:101b0000b046800000004000cdfe070090468800ef
:101b1000b046800000004000c9fe0700a0468800d3
:101b20000000eb00000f780015003700318a2b0011
:101b300020002000781107001007980091468000cf
:101b40001e00780000004000008040009e009000d1
:101b500001087800218b2b00200020006e11070067
:101b600010079800a14680001e0078000000400089
:101b7000008040009e009000010878001e0fe800e1
:101b8000b04680009e0f5000e8ff3c00d046800029
:101b90000000e00015003400d04680000000400046
:101ba000a7fe0700c04688000000eb00000f780089
:101bb0000b003700f18b2b0020002000561107008e
:101bc00010079800c14680001e0078000000400009
:101bd000008040009e009000010878001e0fe80081
:101be000d04680009e0f5000f2ff3c000080fa00bb
:101bf000000006000000fa0010002000d8110700c5
:101c00000080fa00000006000200fa000000eb006d
:101c1000000f78000b00370010002000d0110700e3
:101c200090418000ff0c07000000eb00cc11070082
:101c300090418000411f200000805000f90c0700f7
:101c40001e0fe800300620009e007800808f5000b4
:101c5000f1ff34000080fa00000006005a00fa008c
:101c6000402f98000000eb00160e07004200dd0038
:101c70006041880020002000120e0700904188007b
:101c8000204080003140800000007800ddfe070029
:101c90004e2890006101b900b0fe2f00f1ff2f0027
:101ca00002004000838048007201200003002000f1
:101cb000820f5000838f58009a023e00006001009e
:101cc00017003700260037002700370028003700ac
:101cd000290037002a0037005a00370080003700fb
:101ce0008100370082003700830037008d02370003
:101cf00083003700b5003700e700370019013700cf
:101d0000480137007c013700b0013700e20137009d
:101d10000b023700360237005f0237007f023700c0
:101d2000f18c2b0010002000fb10070030079800fa
:101d3000618d2b0020002000f7100700400798005d
:101d4000d18d2b0010002000f310070050079800e1
:101d50005e019000ce0090003e00900087020700d8
:101d6000660307007f023700d6fe07007d023700ba
:101d70002e0407007b02370090418000f403070027
:101d8000318e2b00408e2b00d3100700d18e2b00fc
:101d900010002000e0100700600798006e0090001f
:101da0000000e000020032002000200001003700a7
:101db000a0002000f0458800b00020000046880008
:101dc0006006200070418800718f2b0010002000f9
:101dd000d11007003047880020002000804688008e
:101de0001dff070081902b0020002000ca10070073
:101df0006047880071912b0020002000c61007006a
:101e00007047880041922b0010002000c21007008c
:101e1000914180000180b900000078009041880065
:101e200001932b0020002000bb10070070079800d2
:101e30007e01900041012000400120008008070041
:101e400048023700010420008100470002a62b0051
:101e50000b000900b21878000000eb00000f7800ba
:101e6000080037001e007800000040000000470016
:101e70000020900012002000a10020006002070056
:101e80001e0fe8001e007800eb0f5000f5ff360033
:101e90000000eb00000f78000b003700100020005e
:101ea0002f110700904180005e0c07000000eb003e
:101eb0002b11070090418000411f2000008050003e
:101ec000580c07001e0fe8001e007800f30f5000aa
:101ed000f2ff340010002000404688002102370045
:101ee00044ff07001f02370047ff07001d023700ad
:101ef000410807001b023700980b07001902370042
:101f0000318e2b0000942b0073100700d18e2b0014
:101f10001000200080100700000f98000e089000ad
:101f20000000e00002003200200020000100370025
:101f300030002000f0458800300620007041880005
:101f400010002000a0478800718f2b001000200097
:101f5000711007003047880020002000804688006c
:101f60000000eb00d0468800bbfe070081902b00ec
:101f700020002000681007006047880071912b0046
:101f800020002000641007007047880041922b0059
:101f90001000200060100700914180000180b9000e
:101fa000000078009041880001932b002000200061
:101fb00059100700100f98001e09900041012000e1
:101fc000400120001e080700e6013700318e2b007b
:101fd00000942b0040100700d18e2b001000200031
:101fe0004d100700200f98002e0890000000e00020
:101ff000020032002000200001003700a000200075
:10200000f0458800b000200000468800e00620006f
:1020100070418800718f2b00100020003e100700d7
:102020003047880020002000804688000000eb0038
:10203000d046880088fe070081902b0020002000f9
:10204000351007006047880071912b0020002000a8
:10205000311007007047880041922b0010002000cb
:102060002d100700914180000180b9000000780028
:102070009041880001932b002000200026100700cb
:10208000300f98003e0990004101200040012000df
:10209000eb070700b301370051942b00e0942b00ad
:1020a0000d100700d18e2b00100020001a10070021
:1020b000400f98004e0890000000e000020032003f
:1020c0002000200001003700a0002000f04588001b
:1020d000b0002000004688006006200070418800a3
:1020e000718f2b00100020000b1007003047880074
:1020f00040002000804688000000eb00d0468800a9
:1021000055fe070081902b002000200002100700e0
:102110006047880071912b0020002000fe0f07000f
:102120007047880041922b0010002000fa0f070032
:10213000914180000180b900000078009041880042
:1021400001932b0020002000f30f0700500f980090
:102150005e0990004101200080022000b8070700be
:1021600080013700e1952b0030962b00da0f070035
:10217000d18e2b0010002000e70f0700600f9800a1
:102180006e0890000000e0000200320020002000f5
:102190000100370010002000f0458800b00020004a
:1021a00000468800e001200070418800b1962b00b5
:1021b00010002000d80f0700d046880051972b0050
:1021c00010002000d40f0700a04788000000eb009b
:1021d0003047880020002000804688001efe07004f
:1021e00081902b0020002000cb0f07006047880063
:1021f00071912b0020002000c70f07007047880056
:1022000001932b0020002000c30f0700700f9800df
:102210007e0990004101200040012000880707004e
:1022200050013700f1972b00e0982b00aa0f070010
:10223000d18e2b0010002000b70f07000017980068
:102240000e1090000000e00002003200200020008c
:1022500001003700a0002000f0458800b0002000f9
:102260000046880000032000704188001000200014
:10227000a04788000000eb00d04688000000eb007b
:102280003047880060002000804688006000200001
:1022900090478800f0fd070081902b00200020006f
:1022a0009d0f07006047880071912b0020002000df
:1022b000990f07007047880041922b001000200002
:1022c000950f0700914180000180b900000078005f
:1022d0009041880001932b00200020008e0f070002
:1022e000101798001e11900041012000c00320002b
:1022f000530707001b01370071992b00e0942b0056
:10230000750f0700d18e2b0010002000820f0700f0
:10231000201798002e1090000000e000020032000c
:102320002000200001003700a0002000f0458800b8
:10233000b000200000468800600620007041880040
:10234000718f2b0010002000730f070030478800aa
:1023500060002000804688006000200090478800d0
:102360000000eb00d0468800bbfd070081902b00e9
:1023700020002000680f07006047880071912b0043
:1023800020002000640f07007047880041922b0056
:1023900010002000600f0700914180000180b9000b
:1023a000000078009041880001932b00200020005d
:1023b000590f0700301798003e119000410120008e
:1023c000c00320001e070700e6003700f1972b002e
:1023d000e0982b00400f0700d18e2b00100020004a
:1023e0004d0f0700401798004e1090000000e000cd
:1023f0000200320020002000010037001000200001
:10240000f0458800b000200000468800000320004e
:10241000704188000000eb00d04688000000eb000f
:10242000304788006000200080468800600020005f
:102430009047880088fd070081902b002000200035
:10244000350f07006047880071912b0020002000a5
:10245000310f07007047880041922b0010002000c8
:102460002d0f0700914180000180b9000000780025
:102470009041880001932b0020002000260f0700c8
:10248000501798005e11900041012000c003200009
:10249000eb060700b3003700f1972b00009a2b00e2
:1024a0000d0f0700d18e2b00100020001a0f07001f
:1024b000601798006e1090000000e00002003200eb
:1024c000200020000100370010002000f0458800a7
:1024d000b000200000468800000320007041880002
:1024e0000000eb00d04688000000eb003047880079
:1024f000600020008046880010002000b046880060
:10250000600020009047880053fd0700c0002000b5
:1025100060478800500020007047880001932b001e
:1025200020002000fc0e0700701798007e1190001c
:1025300041012000c0032000c106070089003700c8
:10254000f1972b00109b2b00e30e0700d18e2b0080
:1025500010002000f00e0700001f98000e189000d9
:102560000000e000020032002000200001003700df
:1025700010002000f0458800b000200000468800d0
:10258000000320007041880010002000a047880050
:102590000000eb00d04688000000eb0030478800c8
:1025a000600020008046880020002000b04688009f
:1025b000600020009047880027fd0700c000200031
:1025c00060478800500020007047880001932b006e
:1025d00020002000d00e0700101f98001e19900048
:1025e00041012000c0032000950607005d00370070
:1025f000f1972b00109b2b00b70e0700d18e2b00fc
:1026000010002000c40e0700201f98002e18900014
:102610000000e0000200320020002000010037002e
:1026200010002000f0458800b0002000004688001f
:1026300000032000704188000000eb00d0468800b5
:102640000000eb00304788006000200080468800d2
:1026500020002000b04688006000200090478800dd
:10266000fdfc0700c00020006047880050002000eb
:102670007047880001932b0020002000a60e070061
:10268000301f98003e19900041012000c003200037
:102690006b06070033003700e19b2b002000200071
:1026a0009d0e0700401f9800a19c2b0020002000d9
:1026b000990e0700501f9800219d2b00200020003c
:1026c000950e0700601f9800a19d2b0020002000a0
:1026d000910e0700701f9800ce1890001107980007
:1026e000070037006e199000fe1890001e00900041
:1026f000430007001e0090000000e800100798004b
:10270000ce1890005e189000808040001e0090005f
:10271000808f5000f3ff3c001200370087fc070059
:10272000100037004e29900022079800070037005c
:10273000a2002000810020002e0090003000070041
:102740002e0090000000e800200798004e2890001e
:10275000e40040002e009000808f5000f4ff3c0009
:10276000000000006046800050fb070070468000bb
:102770004efb07000080fa00000006000600fa0089
:10278000000f780011079800220798001f0c07001f
:10279000280c0700f09d2b00f60b07000001eb0052
:1027a000610020001e007800b20d0700120020001a
:1027b000610020001e009000ae0d07001e0090007a
:1027c0000000e900780a070001003700000000005f
:1027d0001e80ea00af0a07002e0090000000e00013
:1027e000faff3a00401f20000e0a0700f000200008
:1027f000a80a0700401f20000a0a0700f4ff37005c
:102800001400fa0070079800010f9800120f98004a
:10281000401f200010079800803e200020079800ed
:10282000300c2000300798000000eb00000f78000b
:10283000ac003700f50b0700fe0b0700d09e2b0005
:10284000cc0b070011c0b3000040eb00030c0700e5
:10285000309f2b00c70b07001e00e800120020006d
:1028600071002000830d07000001eb0061002000d3
:102870007e0090007f0d07007e009000ef0f50005b
:10288000030034007e00900070005000010037000b
:102890007e009000400798007e009000ef0f5000ef
:1028a00002003c0010002000010037004000200022
:1028b000500798007e009000ef0f500002003c008f
:1028c00020002000010037008000200060079800f1
:1028d000fe00900030002000040a07004e00900027
:1028e000310a07005e0090000080ea00690a0700d4
:1028f0001e009000cb090700e702a800de00900050
:102900006e009000010070000080ea00610a07007c
:102910007e009000700060004480de00004078007f
:10292000614060000080fb00610060004900dd0044
:10293000311780000190a10001007000301788005d
:102940002e019000706626000090b9008180d100b1
:102950004f90de0000805000b20907007e0090001a
:10296000680060004380de00004078006140600045
:102970000080fb00610060004900dd00311780002d
:102980000190a10001007000301788002e01900016
:10299000706626000090b9008180d1004f90de0063
:1029a000008050009f0907007e00900064006000d6
:1029b0004280de0000407800614060000080fb0043
:1029c000610060004900dd00311780000190a10026
:1029d00001007000301788002e01900070662600fc
:1029e0000090b9008180d1004f90de00008050003f
:1029f0008c0907007e009000620060000080d1001a
:102a000000407800614060000080fb0061006000d1
:102a10004900dd00311780000190a1000100700025
:102a2000301788002e019000706626000090b900d3
:102a30008180d1004f90de000080500079090700ae
:102a40007e009000004078006140600061406000be
:102a5000614060000080fb00610060004900dd0013
:102a6000311780000190a10001007000301788002c
:102a70002e019000706626000090b9008180d10080
:102a80004f90de00808050003e009000008050009b
:102a9000640907006e0090000080ea00fd0907004d
:102aa0003e0090005f090700e722a900f000200027
:102ab000f80907008000eb00300020008b090700b8
:102ac000e702a9008e089000803e20000088b9002f
:102ad000800078001e00900000805000510907001f
:102ae0001e0fe8001e0890009e007800808f5000a6
:102af00050ff35000080fa00000006000800fa00d0
:102b0000a19f2b0010002000830d0700000f78000c
:102b10001e0078000000e00002003a0060408000e3
:102b20000100370070408000300798003e0190009f
:102b3000b04721000090b900c388de004f90de004e
:102b400000805000100798003e009000b14721001f
:102b50000181b9004399de00cf80de000101510000
:102b6000410620000191b900820078000100500068
:102b7000200798009e009000700120005b0907006c
:102b8000ae009000800120005809070020032000bb
:102b900024090700deff37000200fa00f0f32f00df
:102ba000f01688000000eb00000f78001e00a20065
:102bb0001e00780000407800614060000080fb004b
:102bc000610060004600dd00011780000160a10087
:102bd00001007000001788000000000000000000e5
:102be000000000001e007800004078006140600096
:102bf0000080fb00610060004800dd00411680009d
:102c00000180a10001007000401688000000000053
:102c100000000000000000001e0078000040780066
:102c2000614060000080fb00610060004900dd0041
:102c3000411680000190a10001007000401688003c
:102c40000000000000000000000000001e007800ee
:102c500000407800614060000080fb00610060007f
:102c60004700dd00011780000170a1000100700025
:102c700000178800000000000000000000000000b5
:102c80001e00780000407800614060000080fb007a
:102c9000610060004600dd00011780000160a100b6
:102ca0000100700000178800000000000000000014
:102cb000000000001e0078000040780061406000c5
:102cc0000080fb00610060004e00dd0011168000f6
:102cd00001e0a10001007000101688000000000053
:102ce00000000000000000001e0078000040780096
:102cf000614060000080fb00610060004c00dd006e
:102d0000a116800001c0a10001007000a01688007b
:102d10000000000000000000000000001e0078001d
:102d200000407800614060000080fb0061006000ae
:102d30004d00dd00a116800001d0a100010070004f
:102d4000a0168800a00f2000b608070097ff3700e4
:102d50000400fa000000eb00004888006041800099
:102d60008d0d07000000eb00000f78000000eb0065
:102d700010079800a50a0700ae0a070060a02b0004
:102d80007c0a0700803e20000100200000408800ef
:102d90001140880001003700000000000148800059
:102da0001e009000808f5000160036000240800008
:102db00013408000301f200001002000800f5100d0
:102dc000818f59000900360010002000640d0700b3
:102dd0000028ef000228ef001e0fe8001e00780018
:102de00012002000c1002000220c070001488000d2
:102df000110798001e0090000001eb00b1002000b8
:102e00001c0c0700904180006101b9000040800067
:102e100011408000800f5100818f5900deff3e007d
:102e20000000eb004e0d0700dcff37000c00fa003d
:102e3000224080003340800022079800330798002a
:102e4000170037000000eb00000f78000000eb00d7
:102e50001007980005003700604080001e0f4000fa
:102e60001e0090000000e800100798001e0090006f
:102e7000ee0f5000f8ff34009e007800f0002000b4
:102e800080017800110009008300d80040079800f5
:102e90004e009000400d0700401f20006108070011
:102ea0002e019000be019000007122000100200060
:102eb00002014000838148002040800031408000b2
:102ec000800f5100818f5900deff3e00604180007d
:102ed000310d070011a12b00300020008e0c0700df
:102ee000500798005e0090002b0d07005e009000d8
:102ef0004280de00800078000000eb0052090700ed
:102f00008000eb00d0032000780807000000fe00de
:102f10000080fa00000006000800fa001007980080
:102f200021079800320798002e009000ef0f500004
:102f3000030034002e0090007000500001003700a4
:102f40002e009000980807001e009000e10f50002e
:102f5000060032001e009000e20f50000300320015
:102f60001e009000e60f500009003a002e0090006d
:102f7000ef0f500002003c00e0ff2f00010037007f
:102f8000b0ff2f00c3080700401f2000630d07009b
:102f90001e009000e30f50000b003a00ae009000be
:102fa00030002000510807002e009000ef0f500065
:102fb00002003c00e0ff2f0001003700b0ff2f00af
:102fc000b4080700df0037001e009000e20f500039
:102fd0000e003200e20f500003003c00e10f5000f1
:102fe0000600320014003700e40f50000b003200de
:102ff000e60f50000c0032000f00370041012000a6
:103000003e009000610d07000b00370061042000b6
:103010003e0090005d0d070007003700a10520006d
:103020003e009000590d0700c10d20003e009000a9
:10303000560d0700000000002e009000ef0f50001a
:1030400002003c00c0ff2f000100370030ff2f00be
:10305000900807001e009000e40f50001900320095
:10306000e40f500004003c000000e900e10f5000b4
:1030700020003e0007003700e60f50001700320026
:10308000e60f500012003500e70f50001600320026
:10309000180037002e00900038fa07000000e0000a
:1030a0000400320090002000000f7800c322a80026
:1030b00010003700a0002000000f7800c342a800d5
:1030c0000c00370030052000000f780009003700a1
:1030d00050052000000f780006003700b0002000e7
:1030e000000f780003003700c0002000000f7800b8
:1030f000000000002e0090000000e00003003a00f5
:103100002e0090004006b000010037002e00900015
:10311000800078001e007800f40707008040eb0074
:1031200030c0b300cd0907001e009000e40f50002e
:103130001a003200e40f500005003c00e10f50007f
:103140000a003200e20f50000e0032002900370062
:10315000e60f50001b003200e60f5000150035004e
:10316000e70f50001d0032002200370010c3b300eb
:1031700075090700e0468000800cb100e70c0700ed
:103180001c00370020c3b3006f0907000047800010
:10319000800cb100e10c07001600370030c3b3000b
:1031a0006909070020478000800cb100db0c070094
:1031b0001000370050478000800cb100d70c07008a
:1031c0000c00370050c7b3005f090700f0468000cd
:1031d000800cb100d10c07000600370050c5b300c9
:1031e0005909070010478000800cb100cb0c070084
:1031f000000000002e009000ef0f500002003c0085
:10320000d0ff2f000100370070ff2f0021080700ba
:10321000800c2000c10c0700f00020001d080700f2
:10322000c322a9000000000000000000c342a90062
:1032300000000000000000008000eb001e0078008d
:10324000aa0707008040eb0030c0b30083090700e5
:103250001e009000e40f50002a003200e40f5000de
:1032600005003c00e10f500008003200e20f500062
:103270001500320033003700e60f500027003200ff
:10328000e70f5000280032002e003700e101200037
:103290003e009000bd0c070040c6b3002a0907009d
:1032a000e046800080007800703e2000808f500053
:1032b00021003e00e0468000813e2000008050005a
:1032c000960c07001f003700010520003e0090000b
:1032d000ae0c070040c4b3001b0907000047800084
:1032e00080007800703e2000808f500014003e0067
:1032f00000478000813e200000805000870c0700be
:1033000010003700f10520003e0090009f0c0700e0
:1033100020c5b3000c0907000a00370040c6b300ff
:10332000090907000700370040c6b3000609070077
:10333000000000000300370000000000010037001b
:10334000000000000080fa00000006000400fa00ff
:10335000000f780011079800110020006001200084
:10336000620707001e0090000000e00008003c001b
:103370001e0090000000e0000f003a00daf807009d
:1033800061006000004078000004e0000a003200a4
:1033900091072000200020005407070010002000a3
:1033a000ef0b0700904180005c0c07000000eb0071
:1033b000eb0b0700050037008107200020002000ec
:1033c0004a07070090418000540c07001e0090003f
:1033d000e20f50000b003a00a1072000200020005f
:1033e00042070700401f20004c0c0700100020007f
:1033f000db0b070090418000480c07000000eb0049
:10340000d70b07001e28ef009e00780070002000f8
:1034100036070700a04080000000e800a0408800b8
:10342000a04080000001eb0051002000910a07003d
:103430000080fa00000006000200fa00000f780089
:103440001e28ef009e00780040002000270707009c
:10345000c04080000000e800c0408800c0408000fc
:103460001200200051002000820a0700404780001f
:103470000001eb008000780050002000a6fe07004d
:103480001e007800e30f50000200320000fa200016
:10349000220c07000080fa00000006000200fa007b
:1034a000000f7800f04080000000e800f040880045
:1034b0009e007800600020000c070700b0408000ec
:1034c0000000e800b0408800b04080000001eb0040
:1034d00091002000670a07000080fa000000060043
:1034e0000a00fa00881f780010079800210798004a
:1034f00032079800430798000000eb00000f7800a7
:103500000000eb00f047880070418000fe0f500083
:103510004a003a000028ef000228ef0002003700be
:10352000c0478000f04788004e0090006101b9005c
:103530000040800011408000800f5100818f5900b1
:1035400003003600f04780000000e000f4ff320086
:103550002040800031408000404088005140880079
:10356000f04780000000e00029003a001e009000b3
:1035700002f907000000e0000b003a0011002000f3
:1035800050002000d9060700d04080000000e8006d
:10359000d0408800d0408000120020009100200020
:1035a000340a0700ab00370010002000bbff070003
:1035b000a0478000e10f50009f003a004af8070042
:1035c0003100200001017800110009000200d8003c
:1035d0008000fd000000e00099003a00110020008a
:1035e00060012000c1060700100020005c0b0700ee
:1035f0001100200080002000bc06070090418000e0
:10360000c60b07000000eb00550b070091003700c8
:103610001e009000d9f807000000e00003003a0007
:103620001000200084ff07008a00370011002000ee
:103630001000200045ff0700860037000028ef003b
:103640000228ef0002003700c0478000f0478800e2
:103650004e0090006101b9000040800011408000e0
:10366000800f5100818f590003003600f047800021
:103670000000e000f4ff3200204080003140800074
:103680004040880051408800f04780000000e00082
:1036900030003a001e009000b8f8070000047800df
:1036a0002e009000b5f80700800f54000d003a007e
:1036b000be009000500020008c060700d040800023
:1036c0000000e800d0408800d040800012002000b8
:1036d00091002000e709070050002000000f78004b
:1036e0005c0037003e0090006cff07006000200087
:1036f000000f7800a04780000000e0005200320078
:10370000f9f70700310020000101780011000900dd
:103710000200d8008000fd000000e0004c003a00ec
:10372000110020006001200070060700100020003a
:103730000b0b070011002000800020006b06070023
:1037400090418000750b07000000eb00040b0700a0
:10375000400037001e00900088f807000004780041
:103760002e00900085f80700800f540005003a00f5
:103770003e00900030ff070040002000000f78005e
:10378000340037007141800000032000808f50001a
:1037900023003a0060468000900078001e009000f0
:1037a000808f500006003200604680000080e800f4
:1037b000900078001e009000808f500004003a00b6
:1037c000110020003e009000e0fe070017003700c7
:1037d0006046800064004000900078001e00900069
:1037e000808f500006003200604680006600400076
:1037f000900078001e009000808f500004003a0076
:10380000210020003e009000d0fe07000700370096
:103810008000eb003e009000ccfe07000300370064
:10382000110020003e009000c8fe0700700020003c
:10383000000f780007003700000000000500370087
:103840000000000003003700000000000100370006
:10385000000000001e0078004f0478000080fa008d
:10386000000006000800fa001007980021079800e1
:10387000320798001e019000ae009000600020000a
:10388000a5fd07008040eb0030c0b300f307070040
:1038900040c4b300ac0707003e0090000000e00009
:1038a00003003a0080bb20001c0b07002e003700ed
:1038b000803e2000190b0700000f78003e009000aa
:1038c000ef0f5000030034003e00900070005000e5
:1038d000010037003e009000330607003e009000d4
:1038e000ef0f500002003c00e0ff2f000100370006
:1038f000b0ff2f0067060700401f2000070b0700de
:103900001e0f70001e0078000000e0000a003a0060
:103910001e019000be009000700020007efd070098
:10392000431f200032002000be0090002e009000b7
:10393000ebfe07000c003700f000200055060700e2
:103940003100200040052000e80507008040eb0022
:1039500030c0b300c107070010c4b3007a070700e6
:10396000c05d2000ed0a07000080fa00000006009c
:103970000400fa001007980021478000700c200016
:10398000808f500045003400803e2000e30a07008d
:10399000000f780060478000e20f500012003400f2
:1039a000810c20001e009000f80a0700604780008c
:1039b00080007800803e20000088b90080007800f8
:1039c00000832f0000804000d40a07001e0f700003
:1039d000f10320001e009000ec0a0700401f2000a9
:1039e000ce0a07001e0f7000c0468000100078004d
:1039f0001e019000800078003000200046fd070086
:103a0000401f2000c50a07001e0f70008040eb0019
:103a100030c0b300910707001e0078000000e000ee
:103a200011003200f00020001a06070011002000eb
:103a300040052000ad05070010c4b3004207070091
:103a4000404780000001eb0080007800500020001b
:103a500031fd0700e04080000000e800e040880001
:103a60000000eb000e00370020c5b300360707004a
:103a7000410620001e009000c40a0700c0468000d6
:103a8000100078001e0190008000780040002000a7
:103a900021fd070010002000010037000000eb00ae
:103aa0000080fa00000006001200fa0040079800ab
:103ab000510798006207980073079800040f980058
:103ac0002040800031408000404088005140880004
:103ad0008e089000a0032000840507000e089000c7
:103ae00000f0a7000000ea000000ea004f00de003e
:103af00080007800100420007c05070041002000b1
:103b00000e089000a10a0700803e2000830a0700eb
:103b1000510020000e0890009c0a0700007d200044
:103b20007e0a0700a10020000e089000970a0700f7
:103b3000401f2000790a0700210120000e08900094
:103b4000920a07000e099000ce009000100020009d
:103b5000f1fc070070418000fe0f5000840032002d
:103b6000604780000000e00003003a00800c200065
:103b70006a0a07007900370060478000e40f5000b0
:103b800008003c006047800080007800803e2000f4
:103b90000088b90000007800803eb1005f0a07008d
:103ba00066003700b04680000000e00015003200db
:103bb000401f2000590a07007e019000ee0090008f
:103bc0000e08900027ff0700e10d20000e0890006e
:103bd0006e0a070060478000e70f5000570036006c
:103be0006047800080007800803e20000088b90097
:103bf0008000780000892e0000804000470a0700fe
:103c00004e003700810220000e0890005f0a070076
:103c1000401f2000410a0700a10220000e0890006a
:103c20005a0a0700401f20003c0a0700810c2000b0
:103c30000e089000550a0700803e2000370a070052
:103c4000210d20000e089000500a070060478000f8
:103c500080007800401f20000088b90080007800b4
:103c600000832f00008040002c0a0700610e200016
:103c70000e089000450a070060478000eb0f5000d7
:103c800017003400007d2000240a0700b10e200038
:103c90000e0890003d0a0700401f20001f0a070081
:103ca000010f20000e089000380a0700401f200076
:103cb0001a0a0700510f20000e089000330a07006f
:103cc00061478000401f20000088b9008000780014
:103cd00040a82e0000804000100a070008003700ae
:103ce0006047800080007800401f20000088b900f5
:103cf00080007800c0632f0000804000070a0700a2
:103d0000a10f20000e089000200a0700401f20008d
:103d1000020a0700f10f20000e0890001b0a07009e
:103d2000401f2000fd090700d10320000e0890006d
:103d3000160a0700401f2000f8090700f1032000c1
:103d40000e089000110a0700401f2000f309070029
:103d5000110420000e0890000c0a07000e099000c4
:103d6000de009000200020006bfc070001003700ff
:103d7000000000000000eb00000f7800d04680003b
:103d80000000e00003003200e10f50003500320077
:103d9000440037008040eb0030c0b300af0607009e
:103da00020c5b30068060700833e200012002000f3
:103db000de0090004e009000c9fd0700000f780063
:103dc0007141800000032000808f500030003a00d5
:103dd0001e007800e50f5000030032001e0078003e
:103de000e60f50002c003a007046800090007800ea
:103df0005e009000808f500004003a007046800002
:103e00000080e80010007800020037007046800053
:103e10001000780020079800803e2000bf090700ae
:103e20000e099000ae009000300020003afc070020
:103e3000401f2000b90907000e099000ae00900055
:103e40004000200034fc0700833e200022002000b8
:103e5000ae0090004e009000a1fd0700000f78001a
:103e6000100037000e089000c1fe07000000e000bf
:103e70000b003200431f200012002000de009000e3
:103e80004e00900096fd0700000f780005003700f7
:103e900000000000030037000000000001003700b0
:103ea00000000000a1408000d040800080804000e1
:103eb000b040800080804000c04080008080400092
:103ec000e040800000804000300798001200200091
:103ed000d10020003e009000e6070700a1408000ce
:103ee000d0408000008040000000e0001500340059
:103ef000a1408000d040800080804000400620002b
:103f00000088b900800078003e0090000001780031
:103f1000110009008200d8000041880000418000a3
:103f200031062000810f50000100340030062000cf
:103f300000418800004180000001eb00d10020001a
:103f4000cc0707008040eb0030c0b30043060700f9
:103f500090c4b300fc0507001e007800e40f500079
:103f600007003a00304780000000a000304788007a
:103f7000804180000000e800804188000300370095
:103f8000304780000000a100304788007047800063
:103f9000e30f5000120036007047800064005000ac
:103fa000100798000500370000a62e005b090700e7
:103fb0001e009000c003b100100798009e00900002
:103fc000c0032000808f5000f7ff3e009e0090004d
:103fd000803e20000088b900000078004f090700eb
:103fe0008000eb00b003200040040700000c070035
:103ff0000080fa00000006000200fa0090418000f4
:10400000e508070011a22b0030002000420807003d
:10401000000f780090418000df0807009e007800c4
:1040200020002000080507008000eb00d0032000de
:104030002e0407000000fe000080fa0000000600c9
:104040001c00fa00300f9800410f9800520f9800a2
:104050000000eb00000f78000000eb001007980054
:1040600000468000700798009047800000004000e4
:1040700073f50700000f9800704180008000780001
:104080003003200019040700160337001100200038
:10409000d00320001504070001a32b0010a42b005f
:1040a0000d08070012002000110020001e009000e3
:1040b000700707001c28ef00e0408000d040880017
:1040c000d0408000c0408800c0408000b0408800e0
:1040d000b0408000a04088000000eb00400798003e
:1040e0000000eb00500798000000eb00000f780084
:1040f000e202370090478000800078000e089000b0
:10410000c40807000000eb0060079800d3023700e6
:104110006e009000000040008e089000008040007b
:1041200010007800100f98007041800031062000c8
:10413000810f50005b00320031062000810f5000db
:1041400008003e00fe0f50002b003200010320004b
:10415000810f50008f003200f40f50000b0032002e
:104160000e01370061062000810f500089003200e7
:10417000e1062000810f50002f0032004106200090
:10418000810f500061003200040137001e089000ca
:104190000000e000030032001e089000e20f500013
:1041a00003003a00604680001000780003003700ea
:1041b000604680000080e80010007800200798002a
:1041c0001e089000e10f5000030032001e0890000e
:1041d000e20f500003003a007046800010007800a3
:1041e00003003700704680000080e800100078006f
:1041f00030079800e90037001e0890000000e0003a
:10420000030032001e089000e20f500003003a0045
:104210006046800010007800030037006046800090
:104220000080e80010007800200798000000eb00f4
:1042300030079800d90037001e0890000000e00009
:10424000030032001e089000e20f500003003a0005
:104250006046800010007800030037006046800050
:104260000080e80010007800200798001e089000e9
:10427000e10f5000030032001e089000e20f5000d2
:1042800003003a00704680001000780003003700f9
:10429000704680000080e800100078003007980029
:1042a000be0037001e0890000000e000030032004e
:1042b0001e089000e20f500003003a0060468000a4
:1042c0001000780003003700604680000080e8009e
:1042d0001000780020079800604680009000780069
:1042e0002e009000808f500004003a00704680003d
:1042f0000080e8001000780002003700704680005f
:104300001000780030079800a40037001e089000c5
:104310000000e000030032001e089000e20f500091
:1043200003003a0060468000100078000300370068
:10433000604680000080e8001000780020079800a8
:1043400060468000900078002e009000808f500022
:1043500004003a00704680000080e80010007800f9
:104360000200370070468000100078003007980087
:104370001e007800ef0f500003003400b000200052
:1043800000468800850037000000eb0000468800ea
:10439000820037003047800063006000e30f500068
:1043a00003003a0080418000e20f50007a003400a0
:1043b00080468000e40f50001f003200e60f5000de
:1043c0004e003200e20f500071003a001e089000cb
:1043d0000000e000030032001e089000e20f5000d1
:1043e00003003a00604680001000780003003700a8
:1043f000604680000080e8001000780020079800e8
:104400001e089000e10f5000030032001e089000cb
:10441000e20f500003003a00704680001000780060
:1044200003003700704680000080e800100078002c
:104430003007980056003700614680001e08900043
:1044400000004000008040009000780021079800a4
:104450001e089000e10f5000030032001e0890007b
:10446000e20f50000b003a009e0078007000280018
:10447000008060000000e00004003d000000e90052
:1044800081ff2f00008070000000e800e30f500063
:10449000110034001e0890000000e000030032000c
:1044a0001e089000e30f50000f003a009e007800b5
:1044b00070002800008060000000e00004003d0063
:1044c0000000e90081ff2f00008070000000e8007c
:1044d000e30f5000040034007046800010017800a3
:1044e000320798002a003700704680000080e800fc
:1044f0009000780031079800250037006146800061
:104500001e0890000000400000804000100178006c
:10451000220798001e089000e20f500008003c009f
:104520009e007800c0002000000178001100090002
:104530008200d8008000fd00e50f50000b00340021
:104540001e089000e20f50000c0034009e0078001e
:10455000c000200000017800110009008200d8008e
:104560008000fd00e50f500004003400704680001c
:1045700090007800310798000500370070468000f1
:104580000080e80010017800320798000000000069
:104590003028ef0001003700000000008040eb00f1
:1045a0000040eb00ad04070001842b002e009000ba
:1045b00000804000104078006304070001842b0055
:1045c0003e00900000804000104078005e0407002c
:1045d000b0468000e10f500003003200e20f5000af
:1045e00005003200140037009046800090007800eb
:1045f00041079800100037003bf40700610060009d
:10460000004078000004e000030032009046800083
:104610001000780003003700904680000080e8001a
:104620001000780040079800a04680001001780034
:104630005207980000000000f04580006101b800ba
:104640000080eb008080eb00020040008380480087
:10465000f204200003002000820f5000838f5800d6
:1046600073013e0000600100520037004e00370029
:104670006f0137006e0137006d0137006c013700a4
:104680006b0137006a0137006901370052003700bb
:1046900067013700660137006501370064013700a4
:1046a00063013700620137006101370060013700a4
:1046b0005f0137005b003700620037005c013700a4
:1046c0005b0137005a01370082003700890037004c
:1046d000570137005601370055013700a900370050
:1046e00053013700520137005101370050013700a4
:1046f0004f0137004e0137004d0137004c013700a4
:104700004b013700c300370049013700ca003700aa
:104710004701370046013700d80037004401370011
:1047200043013700420137004101370040013700a3
:104730003f0137003e0137003d0137003c013700a3
:104740003b0137003a0137003901370038013700a3
:1047500037013700360137001201370034013700c6
:1047600033013700320137003101370030013700a3
:104770002f0137002e0137002d0137002c013700a3
:104780002b0137002a0137002901370028013700a3
:1047900027013700260137002501370024013700a3
:1047a00023013700070137000000eb0000468800b6
:1047b0001f0137001e007800610060000000e0006b
:1047c000020032007e009000010037000000eb0084
:1047d00000468800160137003e08900000004000a7
:1047e00000017800706626000090b900c288de00e3
:1047f0004f90de0000805000200f98003e0890008f
:104800009e0050002e089000808f500002003c0057
:104810007e009000010037000000eb000046880099
:10482000030137002e00900054f407000000e00060
:10483000020032001000200001003700200020009c
:10484000504688009e00780050002000000178004b
:10485000110009008200d8008000fd00e20f500026
:1048600012003200e20f500005003c000000e000a2
:1048700008003200e10f500009003200ec00370060
:10488000e30f50000c003200e40f50000d00320026
:10489000e70037000000eb00004688000c003700fe
:1048a000b00520000046880009003700c005200040
:1048b0000046880006003700d0052000004688002a
:1048c00003003700e00520000046880000000000db
:1048d000d70037002e00900028f407000000e00009
:1048e00002003200100020000100370020002000ec
:1048f000504688009e00780050002000000178009b
:10490000110009008200d8008000fd00e20f500075
:1049100012003200e20f500005003c000000e000f1
:1049200008003200e10f500009003200c0003700db
:10493000e30f50000c003200e40f50000d00320075
:10494000bb0037000000eb00004688000c00370079
:1049500000062000004688000900370010062000ed
:104960000046880006003700200620000046880028
:1049700003003700300620000046880000000000d9
:10498000ab0037009e007800500020000001780046
:10499000110009008200d8008000fd00e20f5000e5
:1049a00012003200e20f500005003c000000e00061
:1049b00008003200e10f5000090032009c0037006f
:1049c000e30f50000c003200e40f50000d003200e5
:1049d000970037000000eb00004688000c0037000d
:1049e000900720000046880009003700a00720003b
:1049f0000046880006003700b00720000046880007
:104a000003003700c00720000046880000000000b7
:104a1000870037002e009000d8f307000000e00068
:104a200002003200100020000100370020002000aa
:104a3000504688007e0037002e009000cff307001c
:104a40000000e000020032001000200001003700ea
:104a500020002000504688001e00780061006000a1
:104a60000000e000020032007e00900001003700ec
:104a70000000eb00004688006d0037001e00780043
:104a8000e30f50000b0034001e007800e70f5000c9
:104a900008003c002e009000b8f307000000e00082
:104aa000040032003e009000b4f307000000e00074
:104ab0002a003a001e007800e70f50000b00340077
:104ac0001e007800eb0f500008003c002e00900004
:104ad000aaf307000000e000040032003e0090004e
:104ae000a6f307000000e0001c0032001e00780062
:104af000eb0f50000b0034001e007800ef0f500049
:104b000008003c002e0090009cf307000000e0002d
:104b100004003a003e00900098f307000000e00017
:104b20000e003a001e007800ef0f50001400340011
:104b30001e007800f30f500011003c002e00900082
:104b40008ef307000000e0000d003a003e009000e8
:104b50008af307000000e00009003a002e009000f0
:104b600086f307000000e000020032002000200071
:104b70000100370010002000504688002c0037004c
:104b80002e0090007df307000000e00002003200dc
:104b9000100020000100370020002000504688004f
:104ba000230037001e089000e10f500002003c0077
:104bb0000000eb00010037001009200000468800cb
:104bc0001b003700c8f20700610060000040780059
:104bd0000004e0000b0032003e089000cf00de0031
:104be000008040000080d1009e0f500002003c0079
:104bf0007e009000010037000000eb0000468800b6
:104c00000b0037003e089000cf00de00008040001f
:104c10000080d1009e0f5000020034007e00900002
:104c2000010037000000eb00004688000000000093
:104c30000046800000027800de0190004e019000e6
:104c4000be0090002e00900097fb07001e0fe800aa
:104c50006e0090000000e800600798009147800017
:104c60006e009000808f500004003400f1408000fe
:104c70004e089000808f500025fd35003e089000c2
:104c80009e007800808f500004003d00f1408000bd
:104c90004e089000808f500016fd35008000eb001c
:104ca000d003200011010700004180008000eb00cc
:104cb00048f30700b1408000400620000088b9009a
:104cc00080007800b2408000a040800000004100d9
:104cd00000017800110009008200d80011002000b6
:104ce0003cf30700f14080004e089000808f500098
:104cf0000b003d0010c0b3001e019000de089000c4
:104d0000810f5100010035000040eb009e00900033
:104d10008100e800110798000004e000dbfc3a0085
:104d20008000eb00e0032000f00007000080eb00b3
:104d3000504188000e089000dcf1070060468000ba
:104d4000daf1070070468000d8f10700c046800005
:104d5000d6f107000080fa00000006000200fa0009
:104d60000000eb00000f78001e00a2001e0078007b
:104d70004046880021a52b0010002000e604070013
:104d8000f9ff37000200fa00000f78001000200041
:104d9000404688008040eb0030c0b300af020700ff
:104da000c0c4b3006802070011002000f004200016
:104db000ce0007000080fa00000006000000fa00a4
:104dc0000000eb00404688008040eb0030c0b3009c
:104dd000a2020700e0c2b3005b0207008000eb0004
:104de000f0042000c10007000080fa000000060067
:104df0000000fa00f09f230000168800c422ef0094
:104e0000f0cf2f00301688000030200050168800a8
:104e10000080eb0060168800d022ef0000f0200038
:104e20009016880000002300b0168800d822ef00fa
:104e3000dc22ef000080eb00f0168800e222ef0099
:104e4000f0cf2f0020178800e822ef000080fa0042
:104e5000000006000000fa000021ef008038210069
:104e6000100888008460a9008c60a8000001280058
:104e7000200888000080eb0008f107000028ef0000
:104e80000228ef000428ef000628ef000080fa0057
:104e9000000006000200fa00000f78001e007800f3
:104ea0006101b80000408000114080000200400015
:104eb0008380480000408800114088001e00780070
:104ec0006101b800204080003140800002004000b5
:104ed00083804800204088003140880022408000c4
:104ee00033408000002020000100200002027800f2
:104ef000030178008001780001007800030262005d
:104f0000000061008000eb00c000dd000000200018
:104f10000001be006120b8000001710081817100b4
:104f2000471add004910de0000007200c918de00db
:104f300000407800614060000080fb00610060007c
:104f40004e00dd00a116800001e0a100010070000c
:104f5000a016880000000000000000002240800031
:104f60003340800000202000010020000202780071
:104f700003017800800178000100780003026200dc
:104f8000000061008000eb00c000dd000000200098
:104f90000001be006120b800000171008181710034
:104fa000471add004910de0000007200c918de005b
:104fb00000407800614060000080fb004f00dd0091
:104fc000a2168000f1ff270081006100010070003f
:104fd000a016880000000000000000000080fa0019
:104fe000000006000000fa00d0478000e147800082
:104ff0000001be002203b0000380b000204080000a
:105000003140800014002000800f5100818f590032
:10501000010039000002eb00040078000080fa0073
:10502000000006000600fa00200798002e009000fd
:10503000cf80de00008fbe000028ef000228ef00c6
:10504000000000000040800011408000be0f5000b2
:10505000ae8f5800fbff39000080fa000000060008
:105060000200fa00000f780002003700803e2000a6
:10507000ecff07001e00780000f0a7000000ea0027
:105080000000ea004f00de00004078001e0fe9003b
:105090000004e000f5ff3a000080fa00000006007e
:1050a0000600fa0091f0070090f12f0095f007003c
:1050b00000f02d00000f7800d07527001007980031
:1050c00090012000200798002e0190009e00900083
:1050d0001e007800adf007008000eb00d003200038
:1050e000020007000080fa00000006000400fa0039
:1050f000000f780011079800100020008040880001
:105100000000000074f007000004e000fdff3a001a
:105110001e007800004078008080fb00f00720002f
:1051200000806000d0108800000000006af00700d6
:105130000004e000fdff3a001e009000804078006f
:1051400000c8b30000c070000080fb00d0108800d1
:105150000000000060f007000004e000fdff3a00de
:10516000904080000000e0000b0032001a22ef00a7
:105170000000000058f007000004e000fdff3a00c6
:1051800020082000d01088000000000052f0070026
:105190000004e000fdff3a001228ef001028ef00a5
:1051a0000080fa00000006000200fa00000f7800fc
:1051b0001e0078000040780061406000614060009f
:1051c000614060000080fb0061006000a11680006b
:1051d0000100a10001007000a0168800000000007e
:1051e000000000009e007800628060000080d10016
:1051f00000407800614060000080fb0061006000ba
:1052000000004000a11680000110a1000100700004
:10521000a016880000000000000000009e0078003a
:10522000648060004280de000040780061406000e1
:105230000080fb00610060004200dd00a1168000dc
:105240000120a10001007000a016880000000000ed
:10525000000000009e007800688060004380de004f
:1052600000407800614060000080fb006100600049
:105270004300dd00a11680000130a1000100700094
:10528000a016880000000000000000000080fa0066
:10529000000006000200fa00000f78001e007800ef
:1052a0000040780061406000614060006140600043
:1052b0000080fb00610060004c00dd00a116800052
:1052c00001c0a10001007000a016880000000000cd
:1052d000000000009e007800628060000080d10025
:1052e00000407800614060000080fb0061006000c9
:1052f0004d00dd00a116800001d0a100010070006a
:10530000a016880000000000000000009e00780049
:10531000648060004280de000040780061406000f0
:105320000080fb00610060004800dd004116800045
:105330000180a100010070004016880000000000fc
:10534000000000009e007800688060004380de005e
:1053500000407800614060000080fb006100600058
:105360004900dd00411680000190a100010070009d
:105370004016880000000000000000000080fa00d5
:10538000000006000000fa00f0ff2300401588002e
:105390001115800030fc2f00008060000020a0006c
:1053a0001015880011158000f0cf2f0000806000dc
:1053b00010158800a222a900a682a900a342a80075
:1053c00000002c0050158800a1a2a8000115800043
:1053d000f0cf2f00008060000015880001158000cc
:1053e000000e20000100700000158800a022a80017
:1053f000a042a80011158000f0ff2100008060008d
:1054000010158800a222a900a202a900211580007f
:1054100000f021000100700020158800a4e2a9001e
:105420002115800000fc2f0000806000f001b30017
:10543000201588008560a8008d60a800a1e2a80062
:105440000080fa00000006000400fa00000f780057
:10545000110798001e0078006101b900c0d38500d3
:10546000d1d3850002004000838048002200200044
:10547000cbef0700013b80000000280000806000a7
:105480000000e000fbff3a001e0078006101b90057
:10549000c0d38500d1d3850002004000838048003e
:1054a0001e019000d7ef0700013b8000000028009c
:1054b000008060000000e000fbff3a000080fa007e
:1054c000000006000400fa00100798001e0090007b
:1054d0006101b900c0d38500d1d38500020040002e
:1054e000838048000002eb00230020000e017800ba
:1054f000d3ef07001e0078000080fa0000000600cd
:105500000400fa0080042000000f780000222c0024
:10551000100798009e0078001e00900058ef0700ca
:105520000080fa00000006000200fa00004f780038
:105530001147980033ef070054ef07000000000008
:1055400030108000610060000000e000fcff3a00c5
:1055500085c0a9001e4078003bef07000000000056
:1055600040108000610060000000e000fcff3a0095
:105570000000000021048000000024000080600082
:105580000000e000fbff320085c0a9000000000021
:105590004110800000002800008060000000e00052
:1055a000fbff3a001e40900027ef070039ef07008d
:1055b0000000000030108000640060000000e00087
:1055c000fcff3a000080fa00000006000400fa0028
:1055d000204798000bef07002cef070000000000a9
:1055e00030108000610060000000e000fcff3a0025
:1055f00085c0a9002e4090000004a00012ef070013
:105600000000000040108000610060000000e00029
:10561000fcff3a000000000021048000000024008c
:10562000008060000000e000fbff320085c0a900a0
:105630000000000041108000000028000080600091
:105640000000e000fbff3a00f9ee0700004f780091
:1056500010ef0700000000003010800064006000c0
:105660000000e000fcff3a001e4078000080fa00d5
:10567000000006000000fa0029c8bf000034a000a6
:1056800029e8b70020c0b30028e8b70000352c0097
:10569000e101070041c0b300e0c7b300a2ff07006b
:1056a00040062000dc01070000c3b3009e01070094
:1056b00040192100d801070000c3b3009a01070078
:1056c00060092000d401070000c3b3009601070061
:1056d00060092000d001070000c2b300920107005a
:1056e00060092000cc01070080c0b30024e8b700a7
:1056f00024c8bf000054a000210107002668ef0065
:10570000830007008b00070020c0b30025e8b70026
:1057100025c8bf000024a0001901070026c8bf004b
:105720000034a0001601070080c0b30027e8b700ce
:1057300027c8bf000044a000110107003300070084
:105740000080fa00000006000200fa00004f780016
:105750001e407800160107001e4078000080fb0004
:1057600080007800a001200060fe07000080fa00a1
:10577000000006000600fa0020079800ae00900026
:10578000010f7800040037001e00780010407800f8
:105790001e0fe800060107001e0078001040780088
:1057a0000004e000f8ff3a000000eb00100798004a
:1057b0000b0037001e009000ae00900000804000fb
:1057c000104078000080fb0080007800a0012000dd
:1057d00046fe07001e0090000000e8001007980039
:1057e0001e009000ae009000008040001040780045
:1057f0000004e000030032001e009000ef0f500094
:10580000ecff34000080fa00000006000000fa00ff
:1058100010c0b300da000700005327007e01070024
:10582000010220009001200030fe07000080fa00f5
:10583000000006000000fa0020c0b300d0000700fe
:10584000005327007401070001022000900120008e
:1058500026fe07000080fa00000006000c00fa0097
:10586000204f9800314f98000000eb00100798007f
:105870000004200020079800400120003007980015
:10588000400520004007980028c8bf00be4890008f
:1058900080cf50000300390028c8bf000040e90055
:1058a000304f98003e4890000080fb000000400010
:1058b0000000470010009000804078002e489000c3
:1058c00000c040008040780000c8b30000c07000f5
:1058d000ab0007002e4890000080fb006f006000c6
:1058e00000004000800078003e4890000080fb00ef
:1058f00061006000010070007f0f60009e00780072
:1059000090012000f9fd07000080fa000000060069
:105910000000fa0026c8bf000024a10026e8b70056
:1059200026c8bf000034a000950007000080fa00e0
:10593000000006000000fa0026c8bf000024a000f6
:1059400026e8b70026c8bf000034a0008c0007007e
:105950000080fa00000006000000fa0026c8bf0020
:105960000014a10026e8b70026c8bf000034a0003c
:10597000830007000080fa00000006000000fa0023
:1059800026c8bf000014a00026e8b70026c8bf0044
:105990000034a0007a0007000080fa000000060032
:1059a0000000fa0026c8bf000004a10026e8b700e6
:1059b00026c8bf000034a000710007000080fa0074
:1059c000000006000000fa0026c8bf000004a00086
:1059d00026e8b70026c8bf000034a0006800070012
:1059e0000080fa00000006000000fa0027c8bf008f
:1059f0000024a10027e8b70027c8bf000034a0009a
:105a000027e8b70027c8bf000044a0005c000700db
:105a10000080fa00000006000000fa0027c8bf005e
:105a20000024a00027e8b70027c8bf000034a0006a
:105a300027e8b70027c8bf000044a00050000700b7
:105a40000080fa00000006000000fa0025c8bf0030
:105a50000014a00025e8b70025c8bf000024a0005e
:105a6000470007000080fa00000006000000fa006e
:105a700025c8bf000014a10025e8b70025c8bf0055
:105a80000024a0003e0007000080fa00000006008d
:105a90000000fa0025c8bf000004a00025e8b700f8
:105aa00025c8bf000024a000350007000080fa00d0
:105ab000000006000000fa0025c8bf000004a10095
:105ac00025e8b70025c8bf000024a0002c0007006f
:105ad0000080fa00000006000600fa002047980047
:105ae000210798002e4090006740600020479800f2
:105af0002e4090000080fb004300dd000040780055
:105b00000064a0001e0007000000eb00000f7800fa
:105b1000060037001e007800ae00900000804000b4
:105b200010407800220007001e0fe8001e007800d9
:105b3000e70f5000f7ff34000080fa000000060075
:105b40000000fa0029c8bf000034a10029e8b7000e
:105b5000c3000700a70007000080fa00000006004d
:105b60000000fa0029c8bf000034a00029e8b700ef
:105b7000bb0007009f0007000080fa00000006003d
:105b80000200fa00004f78008040eb001e407800d1
:105b90002f0007000080fa00000006000000fa0055
:105ba0000040eb00430007000080fa000000060000
:105bb0000200fa00004f780011c0b3001e407800c8
:105bc000230007000080fa00000006000000fa0031
:105bd00010c0b300370007000080fa000000060084
:105be0000000fa00edff070001c8b30001406000ab
:105bf0000080fa00000006000000fa00e7ff07003e
:105c00000074a1000080fa00000006000200fa0003
:105c1000004f780000c8b3001e407000d8ff070096
:105c2000eaff07000080fa00000006000200fa0008
:105c3000004f78001e407800f043b2000064a000de
:105c4000cfff0700e1ff07000080fa000000060018
:105c50000400fa002047980031479800ae409000b9
:105c600000cfb30000cf6000ae40900040002000a5
:105c70000008dd00104798009e40900000cfb30060
:105c800000c06000104798003e4090001e40700029
:105c90000024a000240007009e4090003e40900099
:105ca00000c070000024a0001f0007000080fa0060
:105cb000000006000400fa0020479800ae40900063
:105cc00000cfb30000c070004a000700ae40900053
:105cd00040cfb30000c070001d000700004f7800e7
:105ce000ae40900040cfb30000c070001800070025
:105cf000104798002e4090000024a0003d000700af
:105d00009e40780000cfb30080c060001e4090002d
:105d10000080fb004400de000040780000c07000fe
:105d20000080fa00000006000200fa00004f780030
:105d30001e4078000014a1002e0007001e407800cd
:105d40000014a1000f0007000080fa000000060008
:105d50000400fa00204798002e4090000014a00094
:105d6000160007003e000700004f78002e4090000c
:105d70000014a000030007001e4078000080fa0015
:105d8000000006000200fa00004f78001e40780074
:105d90000024a00017000700100020001e000700cc
:105da0001e4078000024a1001200070020032000fc
:105db000190007000080fa00000006000200fa0047
:105dc000004f78001e4078000024a1000900070061
:105dd00010002000100007001e4078000024a000e2
:105de00004000700200320000b0007000080fa00d9
:105df000000006000200fa00004f780029c8bf002a
:105e00001e40700080407800e0c7b300c6fd070068
:105e10000080fa00000006000400fa001007980055
:105e20000000eb00000f78000700370000000000c2
:105e30000000000000000000000000000000000062
:105e4000000000001e0fe8001e0090009e00780079
:105e5000808f5000f5ff39000080fa000000060036
:105e60000000fa00e0c7b300d8fd07000080fa0088
:105e7000000006001200fa00600798007107980001
:105e8000020f98006e01900070a321000090b900ed
:105e9000ca88de004f90de00008050001007980096
:105ea000ee00900070a321000089b9004a99de003d
:105eb0004f88de0000005100027122000281b9000b
:105ec0000200780000805000813e2000010178002f
:105ed000110009000200d80020079800ee00900091
:105ee000803e200000017800110009008200d800e7
:105ef0008000fd0000017800b04721000090b9004b
:105f0000c388de004f90de0000805000300798000c
:105f1000ee009000b04721000089b9004399de00ef
:105f20004f88de0000005100420620000281b900c7
:105f30000200780000805000716626000181b900df
:105f4000c298de004f80de000080500040079800bd
:105f50006e009000716626000181b9004299de0052
:105f6000cf80de00810051006a09b900820078000c
:105f700001005000500798000000eb00000f78006f
:105f80000e089000804078007e009000004078006d
:105f900032fe07001e0090000000e0000e003200fc
:105fa0001e009000004078000043b000e6fd0700ae
:105fb0000e089000804078007e0090000000e8000d
:105fc000700798007e0090000040780023fe0700d4
:105fd00010002000000f78002e0090000000e0006c
:105fe00003003a001e0078000000e0000e003200be
:105ff0002e009000004078000043b000d2fd070062
:106000000e089000804078007e0090000000e800bc
:10601000700798007e009000004078000ffe070097
:1060200010002000000f78003e0090000000e0000b
:1060300003003a001e0078000000e0000e0032006d
:106040003e009000004078000043b000befd070015
:106050000e089000804078007e0090000000e8006c
:10606000700798007e00900000407800fbfd07005c
:1060700010002000000f78004e0090000000e000ab
:1060800003003a001e0078000000e0000c0032001f
:106090004e009000004078000043b000aafd0700c9
:1060a0000e089000804078007e0090000000e8001c
:1060b000700798007e00900000407800e7fd070020
:1060c0005e009000004078000043b0009efd070095
:1060d0000080fa00000006000400fa00000f7800bb
:1060e00011079800d3fd0700c8fd07001e007800c7
:1060f000a0fd070011c0b3000040eb00d7fd070072
:106100001e0090009bfd070010002000d4fb07003c
:106110000080fa00000006001200fa00889fbe000e
:1061200070079800010f98000f0478000f007800a6
:10613000800478007e0090008000e90051079800fc
:10614000000040000000e8000000e8000000d1006e
:10615000800040000f007800818747000000e800c1
:106160000000d10000004000600798000000eb0034
:10617000000f7800a5fd0700aefd07000e08900097
:106180007cfd07000000eb001007980009003700b5
:10619000ee0090001e0090000000400000804000d3
:1061a000a1ff2f00010878001e0090000000e80009
:1061b000100798009e0090007e009000808f500095
:1061c000f3ff35000000eb001007980033003700a4
:1061d0000000eb00300798000e0037003e009000f2
:1061e0000040780011c0b3009cfd0700ee00900055
:1061f0003e00900000004000610078000040780000
:106200000043b00050fd07003e0090000000e80091
:1062100030079800be0090007e009000808f5000f4
:10622000eeff35000d003700504180000000e00017
:106230000a0034005041800001fd2f0080804000a2
:106240006e0190001e009000000040000000410020
:10625000010878000080eb0050418800ee009000bb
:106260001e00900000004000610078000000e00087
:10627000edff3500ee0090001e0090000000400091
:1062800061007800800078001000200097fb070074
:106290001e0090000000e800100798009e0090008b
:1062a0007e009000808f5000c9ff35000000eb0099
:1062b000400798000e0037004e0090000040780024
:1062c00011c0b30065fd0700ee0090004e00900085
:1062d0000000400061007800004078000043b000fa
:1062e00019fd07004e0090000000e80040079800ec
:1062f000ce0090007e009000808f5000eeff3500b1
:106300000000eb00200798000b0037001e0078000b
:106310006a00b900800078006e0190002e009000a5
:106320000000400062007800008f40002e009000c6
:106330000000e80020079800ae0090007e0090006a
:10634000808f5000f1ff35001e007800890778002b
:10635000880778004f04be000080fa0000000600a5
