:020000040000fa
:080000000007040000000000ed
:020000040000fa
:0400080016090000d5
:020000040000fa
:04000c0016090000d1
:020000040000fa
:0400100016090000cd
:020000040000fa
:0400140016090000c9
:020000040000fa
:0400180016090000c5
:020000040000fa
:04001c0016090000c1
:020000040000fa
:0400200016090000bd
:020000040000fa
:0400240016090000b9
:020000040000fa
:0400280016090000b5
:020000040000fa
:04002c0016090000b1
:020000040000fa
:0400300016090000ad
:020000040000fa
:04003400c8070000f9
:020000040000fa
:0400380016090000a5
:020000040000fa
:04003c0016090000a1
:020000040000fa
:04004000160900009d
:020000040000fa
:040044001609000099
:020000040000fa
:040048001609000095
:020000040000fa
:04004c001609000091
:020000040000fa
:04005000160900008d
:020000040000fa
:04005400c4080000dc
:020000040000fa
:040058001609000085
:020000040000fa
:04005c001609000081
:020000040000fa
:04006000160900007d
:020000040000fa
:040064001609000079
:020000040000fa
:040068001609000075
:020000040000fa
:04006c001609000071
:020000040000fa
:04007000160900006d
:020000040000fa
:040074001609000069
:020000040000fa
:040078001609000065
:020000040000fa
:04007c001609000061
:020000040000fa
:04008000160900005d
:020000040000fa
:040084001609000059
:020000040000fa
:04008800d808000094
:020000040000fa
:04008c001609000051
:020000040000fa
:04009000160900004d
:020000040000fa
:040094001609000049
:020000040000fa
:040098001609000045
:020000040000fa
:04009c001609000041
:020000040000fa
:0400a000160900003d
:020000040000fa
:0400a4001609000039
:020000040000fa
:0400a8001609000035
:020000040000fa
:0400ac001609000031
:020000040000fa
:0400b000160900002d
:020000040000fa
:0400b4001609000029
:020000040000fa
:0400b8001609000025
:020000040000fa
:0400bc001609000021
:020000040000fa
:0400c000160900001d
:020000040000fa
:0400c4001609000019
:020000040000fa
:0400c8001609000015
:020000040000fa
:0400cc001609000011
:020000040000fa
:0400d000160900000d
:020000040000fa
:0400d4001609000009
:020000040000fa
:0400d8001609000005
:020000040000fa
:0401080016090000d4
:020000040000fa
:04010c0016090000d0
:020000040000fa
:0401100016090000cc
:020000040000fa
:0401140016090000c8
:020000040000fa
:0401180016090000c4
:020000040000fa
:04011c0016090000c0
:020000040000fa
:0401200016090000bc
:020000040000fa
:0401240016090000b8
:020000040000fa
:0401280016090000b4
:020000040000fa
:04012c0016090000b0
:020000040000fa
:0401300016090000ac
:020000040000fa
:0401340016090000a8
:020000040000fa
:0401380016090000a4
:020000040000fa
:04013c0016090000a0
:020000040000fa
:04014000160900009c
:020000040000fa
:040144001609000098
:020000040000fa
:040148001609000094
:020000040000fa
:04014c001609000090
:020000040000fa
:04015000160900008c
:020000040000fa
:040154001609000088
:020000040000fa
:040158001609000084
:020000040000fa
:04015c001609000080
:020000040000fa
:04016000160900007c
:020000040000fa
:040164001609000078
:020000040000fa
:040168001609000074
:020000040000fa
:04016c001609000070
:020000040000fa
:04017000160900006c
:020000040000fa
:040174001609000068
:020000040000fa
:040178001609000064
:020000040000fa
:04017c001609000060
:020000040000fa
:04018000160900005c
:020000040000fa
:040184001609000058
:020000040000fa
:040188001609000054
:020000040000fa
:04018c001609000050
:020000040000fa
:04019000160900004c
:020000040000fa
:040194001609000048
:020000040000fa
:040198001609000044
:020000040000fa
:04019c001609000040
:020000040000fa
:0401a000160900003c
:020000040000fa
:0401a4001609000038
:020000040000fa
:0401a8001609000034
:020000040000fa
:0401ac001609000030
:020000040000fa
:0401b000160900002c
:020000040000fa
:0401b4001609000028
:020000040000fa
:0401b8001609000024
:020000040000fa
:0401bc001609000020
:020000040000fa
:0401c000160900001c
:020000040000fa
:0401c4001609000018
:020000040000fa
:0401c8001609000014
:020000040000fa
:0401cc001609000010
:020000040000fa
:0401d000160900000c
:020000040000fa
:0401d4001609000008
:020000040000fa
:0401d8001609000004
:020000040000fa
:100e00000fb220000e7f22000e01880000000000bb
:100e1000000020000000e00002003200000120007d
:100e20002002880014000700890107000000e0008c
:100e300003003a00809024000100200002003700e7
:100e40000000200001002000810f7000010032002e
:100e500014000700000020000000e0000200320043
:100e60000000020000000000d80f02000000000097
:100e70000040da000000fe004440a9006035200078
:100e80000000e0000300320000002000a001880004
:100e90004440a800000006008a1f78008b1f7800dd
:100ea0000000060091018800800478000000eb003b
:100eb0001a003700e284440032a0b4009905ba0059
:100ec000e284440032a0b4009906ba00e2844400ef
:100ed00032a0b4000006eb00476fde00fd07b20051
:100ee000636ce10003003a00ebff07000000eb0039
:100ef0000a003700606ce10004003a00005deb007e
:100f00008b05e900fdff3e00040037006168e10049
:100f1000010032000086eb000b00070019c7ba0081
:100f20001905ba000e04e00003003a000a00e000d0
:100f3000e0ff3a0000000600fe07b2009e018800b4
:100f40008a047800f5ff3700395dba008b05e900a7
:100f50000c003200295dba008b05e9000800320060
:100f60000c00e00003003a00e284440032a0b40028
:100f7000f5ff370019ddba008b05e900faff3a00ea
:100f80008904e800e184440032a0b40000000600b7
:100f90003600f800809fbe00829fbe00849fbe0086
:100fa000869fbe000400fa0050002000f9150700db
:100fb000a04680000000e00002003200db22a80012
:100fc00001003700db22a900604080001007980074
:100fd0009e00900070418000808f50000a003c000d
:100fe0009e009000a0408000808f500006003500d9
:100ff0000000eb00204888000000eb00304888002b
:10100000e702a90039003700204880000000e00016
:1010100007003a00204080003140800040488800ae
:101020005148880020002000204888002f00370009
:1010300020488000e20f50002c003a004048800019
:10104000514880006a014000e08148002040800053
:1010500031408000800f5100818f59002300310002
:10106000e702a80020c0b300004f78009e00900067
:1010700070418000808f500008003400704880006c
:101080000000e80070488800c0c4b300004f78003a
:10109000c0042000304888000700370080488000e6
:1010a0000000e800804888002005200030488800c3
:1010b00020c5b300004f7800800020002048880041
:1010c000804080000000e000030032001e00fb00b2
:1010d00090408800050037001e00fb00800078006b
:1010e0000000eb00321607001228ef0020408000bd
:1010f00031408000421f20000300200063020700ef
:10110000e00f5000e08f580017003a008040800048
:101110000000e00014003a00904880000000e00069
:10112000030032001e0090008000eb00501b0700ff
:101130009e00900070418000808f500003003400ba
:101140001100200070042000191607009e00900076
:10115000a0408000808f500003003d00210020004f
:1011600070042000121607008460a9000080fa00b5
:101170004f03be004f02be004f01be004f00be0035
:101180003600f90000400600801f78000000fa00d9
:1011900000148000704088001014800060408800b7
:1011a0008560a9000080fa004f007800004006002a
:1011b0003600f800809fbe00829fbe00849fbe0064
:1011c000869fbe000000fa00c01080006200600030
:1011d0000000e000010032001822a900e0108000a9
:1011e0006041880061418000a0022000808f500093
:1011f00006003a008000eb00d0032000ec15070049
:1012000020032000b81507000000fe008700a90099
:101210000080fa004f03be004f02be004f01be0027
:101220004f00be003600f900004006000040da0022
:101230000000fe00889fbe0080047800f048800017
:101240000000e00004003a000e0007000084eb00fc
:101250000000e00008003500f84880000900e000c8
:101260000500320009004400060007000000e0000d
:1012700001003d000084eb00080078004f04be0030
:1012800000000600800078000100e00003003a0042
:1012900000922000f0488800000005000080eb006c
:1012a00002b22000828f500002003e00f148880008
:1012b0000000eb00000006000602ab00feff3a0053
:1012c0000642ab00fcff3a000662ab00faff3a00b0
:1012d0000682ab00f8ff3a0009c2ab00f6ff3a0005
:1012e000000006000662a8000662ab00feff3a009e
:1012f00008c2a900001080000000060080407800ad
:1013000000c0eb008180fb001110880008e2ab00f8
:1013100007003a0009c2ab00feff3a00e6ff0700f3
:101320000040eb000802e20001003d00e0cfb30006
:101330000000060021108800301088000000060020
:101340000602a800000006000642a80000000600f1
:101350008460a900e7006000f2ff2800cc08dd00ef
:10136000a304800003016100680060000281700036
:1013700071ff2f00a2048800620480008280600058
:101380008100700061048800000006000010200049
:101390001802b6000000e9004f00de000000060061
:1013a00017e2a9008f00a9008f20a9008700a900db
:1013b0008720a900000006008700a900e700600060
:1013c0008720a9000001780083ff2f000207b200e8
:1013d000040580008481610083817000e800600062
:1013e00003058800c308de00f3f82f00e1806000e9
:1013f0000405800084816100c808dd00830171005c
:101400000008b20003058800f2ef2f004700de005d
:1014100073048000030161006100600002817000bc
:101420004900dd0072048800f1df2f0074048000a1
:101430008480600081007000710488000000060054
:10144000f2108800b0108800c1108800000006006b
:10145000000005003200f800910188000008bb0080
:10146000410424006210e100040032000002200068
:101470000010e1000a003a0051042400013b8800fa
:101480000500fc0051052000313b8800a10a200026
:10149000313b880061e7a800000000000000000068
:1014a0003200f900000006003200f8006004240059
:1014b000003b8800f2ff37003200f80091018800fd
:1014c00041002400013b88000208bb00ecff37000c
:1014d0003200f8009101880051002400013b88008f
:1014e000030120003218bb008301e900fdff3a0030
:1014f000e3ff37003200f800910188008002780095
:10150000620040003549ba00e08048003204e00043
:101510000410a700100032008301e9000e00320021
:101520002549ba003204e0000410a7000a00320086
:101530008301e900080032000408a300eeff320036
:1015400015c9ba003204e0000410a70002003200fe
:101550008301e900e8ff3a003200f90000000600cc
:1015600003f0a200889fbe008a9fbe008c1f7800f7
:10157000fa000700010133006450e1004f0032001f
:101580006420e1005200320003826c0007003b003f
:101590000905d0000306d000820f54000c065d0040
:1015a0000200390002003200890178000306780049
:1015b0008582550004003d000003fd008103fd000d
:1015c0008502ea008b854200840f720002003b0016
:1015d00060001000e08018006011b8000005eb000a
:1015e0007a28e1000a00390006007800c75ddd00b6
:1015f000f707b200878075002d00370082817100e7
:101600000a017800610560008180d1000080d3006c
:101610008502e900f9ff3b0006044000878448008a
:1016200002003b0060041400e0841c000988a30051
:10163000070032008a8171008281710061016400bb
:101640008904d1000884d3008b05e8001700370017
:101650000978a30013003a000b00e00013003400e7
:101660008b05e9000804440089844c000a44740096
:101670000978a3000d003a000b00e00007003400d9
:101680008b05e9000804440089844c0001003a00fd
:101690000b0020000978a300f7ff32000001eb00e7
:1016a00002003700828171000a0178007000070093
:1016b0000cf0a70001f0a000b90037006420e100a1
:1016c00002003a00838f6c00b90033000801be00ad
:1016d0000200be00b2003700889fbe008a9fbe0095
:1016e0008c1f78009d000700a400330003866c0067
:1016f0006450e1002e0032006420e100330032002b
:101700006150e1002f0032006120e1003100320021
:1017100085855500eb07b000090020000804200073
:10172000050037000804440089844c000a00310099
:101730000603430087834b000001530081815b0057
:10174000f8ff33000203be000800a00008044400b4
:1017500089844c00f6ff3900c639dd00830173002f
:1017600001003200130020008904d1000884d30056
:101770000998a300050032000800a7000300a0009c
:101780008904d1000884d3008b05e8008904d100c6
:101790000884d3000001eb000281d200340007006e
:1017a00001f0a1000cf0a70001f0a0007c003700c0
:1017b0006420e1007e0032000801be000200be008d
:1017c000f7ff37006120e100790032006000b800c7
:1017d000f3ff37000000200001f82700f0ff37007a
:1017e0000001be00480007000470a70003f0a1003c
:1017f0006509b100160032000d0035006828e100cf
:1018000006003500f0ff2f00f1ff27000300e00085
:1018100013003b000100280000000500000040000c
:10182000818048008502e900fcff3a00080037008b
:10183000f88f420002003c008000eb000000050031
:101840008100d1000080d3008502e800fcff3a004f
:101850000300e00002003b0060001000e080180080
:10186000000006004f89de00820178008a00370000
:1018700081002000618055000b003d000b0020001e
:1018800061fe2f000100e1001d0034008281710023
:10189000610164008904d1000884d3000000e800dd
:1018a000faff3a007100200061006400030070003c
:1018b000020060000900320061044400e0844c0032
:1018c0000988a500050032008b05e8006808e100e2
:1018d00002003a008904d1000884d300f20f2000ee
:1018e0000258e10005003d00c75ddd00f907b200c8
:1018f0008980750008007800000006000bf82700ba
:101900008b00780000000500c70ade00f107b20076
:10191000f50fb20008003200e1cf420002003200b1
:101920000170a00024000500810f7000010032004a
:101930000408050044000500810f700002003a0011
:10194000140005008502e9000000400081c0480045
:10195000fcff3b000170a000240005000004be0055
:10196000e9ff07000003be000405be000200be0040
:10197000e5ff0700844f7500000006000200be006e
:101980006450e100050036006420e10002003600ea
:101990000968a30001003a000800be000160a00031
:1019a0004f0678004f05be004f04be000000060041
:1019b000f0ff2f00f1ff2700f9ff3700889fbe00de
:1019c0008a9fbe008c1f7800e4ff0700ebff330006
:1019d00003866c006450e100240032006420e100c2
:1019e000270032006150e100220032006120e10056
:1019f000210032008b854200eb07b1000134b800b2
:101a0000003ab8000804420089844a00013ab8004c
:101a10000030b8008880400009014a00040033000b
:101a20000000400081804800020149008b05e90068
:101a3000c909dd008301700001003200130020009d
:101a4000c814de004814dd004709de001200b200b1
:101a5000c808de000884700085ff070001f0a100bf
:101a60000cf0a70001f0a000cdff37006120e100dd
:101a7000cfff32000801be000200be00f7ff3700b2
:101a80006150e100fcff3a00c9ff37004100070048
:101a90000400be0000000600881f780003047800e0
:101aa0000300e00007003d0060001000e080180027
:101ab00060011900e081190002003b0001f02d00d7
:101ac000030037000400070008f0a70001f0a000a1
:101ad0004f04780000000600889fbe008a9fbe0069
:101ae000008270000402710004827100260032003e
:101af0000004be000200be006011b8006b092000a7
:101b0000950220000182cf000a0039000541b10092
:101b10000082cf00070039000541b1000982cf00e3
:101b2000040039000541b1000882cf0001003900ee
:101b30000541b10005425200120032000a003b008c
:101b400082817100610164008100d1000080d300b6
:101b50008984d3000884d3008b05e8000442e800a0
:101b6000f7ff3a00070037000804440089844c005e
:101b700000004800818048008b05e9000442e9002c
:101b8000f9ff3a003aff07004f05be004f04be00c0
:101b9000000006006022b800060220000000d0000d
:101ba0008180d2000482d2008582d2000000a00091
:101bb0000202520083825a000300310002024200f6
:101bc00083824a000000a1000603e900f3ff3a0007
:101bd000000006000000e0002f003200c001780085
:101be000e38f51002c0036000308a3002a003a00be
:101bf000b14880000100e00002003200810f500077
:101c00000400310011009800b04888001600370029
:101c100082007800110190000200e0000200320012
:101c2000800f5100faff39001102780084824000d1
:101c3000850f500018003900808f520003003a00d1
:101c40008308420001007800070037000200e0002e
:101c50000300320083014000830f51000e00390061
:101c60001200980090009800900090000100e000a1
:101c70000900320010014000828f500006003a0037
:101c8000429120000009eb0010017800110841008a
:101c9000910090001100980000000600889fbe008f
:101ca00000047800a14880000100e000020032003a
:101cb000010078000d003700b148800060912000dd
:101cc00004003700910f5400250036000180e80021
:101cd000910090000100e000faff3a001000370088
:101ce000920f54001e0036000280e80010017800b8
:101cf0000200e000faff3a0011017800b1488000cc
:101d00006091200004003700910f54001400360049
:101d10000180e80091009000828f5000faff3a00a5
:101d2000e9488000888f5400010031008804780061
:101d3000090078008e0007000000e00004003a006f
:101d4000888f5400050032008904d100f5ff370068
:101d5000091878009fff0700d2ff37000000eb0052
:101d60004f04be0000000600881f78006304400096
:101d70000800a1008000eb00800f54002100360015
:101d8000e30f540001003e004800200008007800e6
:101d9000c2ff07008000eb000000e00019003200e5
:101da000900078009101780064815100880f510003
:101db000030031001101900002087800070037008d
:101dc00008814000020878009101900013019800fa
:101dd00010017800110914008808780010017800bb
:101de0000000eb000200e0000400320092019000cd
:101df0000300e000010032000280e800a0488800f3
:101e00008180e800010078004f047800000006009f
:101e1000889fbe00104280000000e00001003200f8
:101e200000000100204280000000e00001003200bc
:101e300000000100008420001004e00022003a00ad
:101e4000c0488000d148800088002000d260260071
:101e50009301200050000700f2352f00e3c6230055
:101e600000004100818049000804e900f7ff3a00c2
:101e7000688420000908200088844400d26026007d
:101e80009301200044000700f2352f00e3c6230031
:101e9000000041008180490000acbe00890f540061
:101ea000f6ff3a00c0488800d148880030468000dc
:101eb00041468000304288004142880011c0b30092
:101ec0000084200001487800d260260093012000a1
:101ed000c0488000d14880002f000700f2352f0055
:101ee000e3c623000002410081824900c448880003
:101ef000d548880060842000100078007f016000d1
:101f00004211dd00a0842000020140001200be004a
:101f100030428800414288000489be0001007800f8
:101f200000f0a1004f04be0000000600889fbe0024
:101f300000047800104280000000e0000100320040
:101f400000000100008420000048eb0020428000d7
:101f50000000e00001003200000001008004eb00fe
:101f6000c8488800d94888004f04be000000060019
:101f7000800078000000eb000100e0000500340064
:101f800001007800abfc0700e10f400001003a00bf
:101f90000000eb0000000600020ab900001bb900b7
:101fa0000200b800810042008100430000000600ea
:101fb0000000fa00ce1107002d130700e5110700fd
:101fc00068120700a41307008711070030e8b70064
:101fd000fe130700a15c2c00305d2c009f1607004b
:101fe000f15d2c0020002000ac160700e500070082
:101ff000fbff37000200fa00a15e2c001000200059
:10200000a6160700000f78001e007800e10f5000b0
:1020100002003a00d482a800040037001e007800b5
:10202000e20f500001003a00d4a2a8000080fa009c
:10203000000006000200fa00000f78001e00780081
:10204000e60f5000090032001e007800f00f50002b
:10205000060032001e007800f10f5000030032002d
:102060001e007800e30f500002003a00100020002c
:10207000010037000000eb000080fa0000000600bd
:102080000400fa00e04680000000e0003100340067
:10209000e04680000000400033ff0700c046880093
:1020a000c141800070032000808f50000700320083
:1020b000c0418000fe0f500004003200e046800066
:1020c0000000400028ff0700d04688000000eb0019
:1020d000000f78001c003700215f2c00200020003a
:1020e0006e16070010079800c14680001e00780099
:1020f00000004000008040009e0090000108780031
:10210000c141800070032000808f50000d0032001c
:10211000c0418000fe0f50000a00320001602c0018
:10212000200020005d16070010079800d1468000af
:102130001e00780000004000008040009e009000db
:10214000010878001e0fe800e04680009e0f500056
:10215000e1ff3c00104780000000e0002300340055
:102160001047800000004000fffe0700f046880096
:102170001047800000004000fbfe07000047880079
:102180000000eb00000f780015003700c1602c0044
:10219000200020004116070010079800f14680003b
:1021a0001e00780000004000008040009e0090006b
:1021b00001087800b1612c002000200037160700cc
:1021c00010079800014780001e00780000004000c2
:1021d000008040009e009000010878001e0fe8007b
:1021e000104780009e0f5000e8ff3c003047800001
:1021f0000000e0001500340030478000000040007f
:10220000d9fe0700204788000000eb00000f78008f
:102210000b00370081622c00200020001f160700f1
:1022200010079800214780001e0078000000400041
:10223000008040009e009000010878001e0fe8001a
:10224000304780009e0f5000f2ff3c000080fa00f3
:10225000000006000200fa0081632c00100020003c
:102260000e160700000f78001e007800e20f5000e5
:1022700008003200e30f50000a003200e10f500066
:1022800013003a001100200040002000a2160700b1
:102290000f00370011002000300020009e160700bc
:1022a0000b00370011002000400020009a160700a4
:1022b000000000000000000000000000000000001e
:1022c00011002000300020009316070000000000dd
:1022d0000080fa00000006000800fa0020079800bd
:1022e000310798003e0090000000e00004003a0032
:1022f00071642c0010002000e815070030079800da
:102300003e009000e10f500003003a004000200022
:1023100010079800050037003e009000e20f5000c3
:1023200002003a0030002000100798000000eb0087
:10233000000f78000d003700110020001e009000f3
:1023400075160700e0418000671107008000eb0070
:102350001e00900070160700e0418000411f200021
:1023600000805000601107001e0fe8002e00900052
:102370009e007800808f5000efff35000080fa004b
:10238000000006007a00fa00403f98000000eb00d1
:10239000861207004200dd0070418800a000200086
:1023a000821207004200dd00a040880020002000cb
:1023b0007e120700e0418800c00020007b12070069
:1023c000f04188002040800031408000000078000b
:1023d000d6fe07004e3890006101b900b0fe2f0014
:1023e000f1ff2f000200400083804800020520001a
:1023f00003002000820f5000838f580003053e0029
:1024000000600100500037005f00370060003700b7
:10241000640037006500370070003700a000370007
:10242000c8003700c9003700cc003700cd003700a6
:10243000f6043700cd003700ff00370031013700c8
:102440006301370092013700c6013700fa013700f7
:102450002c0237005502370080023700a9023700ee
:10246000c9023700ca0237000b03370025033700c3
:102470005303370083033700e4043700ab0337000e
:10248000ac033700af033700db0337002d04370000
:10249000de043700dd043700dc043700db043700de
:1024a000da0437006b043700a0043700d704370084
:1024b000d6043700d5043700d4043700d3043700de
:1024c000d2043700d1043700d0043700cf043700de
:1024d000ce043700cd043700cc043700cb043700de
:1024e000ca043700c9043700c8043700c7043700de
:1024f000c6043700c5043700c4043700c3043700de
:10250000c2043700c1043700c0043700bf043700dd
:10251000be043700bd043700bc043700bb043700dd
:10252000ba043700b9043700b8043700b7043700dd
:10253000b6043700b5043700b4043700b3043700dd
:10254000b20437007903370061652c0010002000c9
:102550005215070050079800d1652c00200020007c
:102560004e1507006007980041662c0010002000ff
:102570004a150700700798007e019000ee00900059
:102580005e009000b90407009d050700af04370006
:10259000a1662c001000200040150700d0418800e3
:1025a000aa0437005e070700a804370010002000c7
:1025b00090488800b1672c002000200037150700e4
:1025c000000f98008e089000400620000088b90097
:1025d000000078005f0607009c04370081682c002b
:1025e00090682c001d15070021692c0010002000a8
:1025f0002a150700100f98001e0890000000e00048
:10260000020032002000200001003700a00020005e
:1026100050468800b0002000604688006006200018
:10262000c0418800c1692c00100020001b15070064
:102630009047880020002000e046880090fe0700b8
:10264000d16a2c002000200014150700c047880024
:10265000c16b2c002000200010150700d047880017
:10266000916c2c00100020000c150700e141800047
:102670000180b90000007800e0418800516d2c0015
:102680002000200005150700200f98002e0990005b
:102690004101200040012000010c07006b043700bd
:1026a0002106200081004700e28e2c000a0009006c
:1026b000b21878000000eb00000f78000800370027
:1026c0001e0078000000400000004700103090001d
:1026d00012002000a1002000850407001e0fe80062
:1026e0001e007800ea0f5000f5ff36000000eb00f6
:1026f000000f78000d00370011002000400020007e
:1027000085150700e0418000771007008000eb008e
:102710004000200080150700e0418000411f20009c
:1027200000805000701007001e0fe8001e007800a7
:10273000f30f5000f0ff340010002000a046880086
:1027400042043700c3fe0700400437008000eb005e
:1027500040062000e0fe07003c043700a90b0700fc
:102760003a043700270f070038043700516e2c0059
:10277000d06e2c00b914070021692c001000200035
:10278000c6140700300f98003e0890000000e000db
:10279000020032002000200001003700300020003d
:1027a0005046880030062000c041880010002000fc
:1027b00010488800c1692c0010002000b7140700e1
:1027c0009047880020002000e04688000000eb00d1
:1027d000304788002afe0700d16a2c002000200024
:1027e000ae140700c0478800c16b2c0020002000f9
:1027f000aa140700d0478800916c2c00100020001c
:10280000a6140700e14180000180b90000007800b3
:10281000e0418800516d2c00200020009f1407002b
:10282000400f98004e099000410120004001200017
:102830009b0b07000504370081682c00d06e2c002c
:102840008614070021692c00100020009314070053
:10285000500f98005e0890000000e0000200320077
:102860002000200001003700300020005046880082
:10287000a000200060468800e0062000c0418800db
:10288000c1692c00100020008414070090478800c4
:1028900020002000e04688000000eb003047880060
:1028a000f7fd0700d16a2c00200020007b140700f0
:1028b000c0478800c16b2c0020002000771407005f
:1028c000d0478800916c2c00100020007314070082
:1028d000e14180000180b90000007800e0418800fb
:1028e000516d2c00200020006c140700600f980030
:1028f0006e0990004101200040012000680b070094
:10290000d2033700216f2c00b06f2c005314070046
:1029100021692c001000200060140700700f98003f
:102920007e0890000000e00002003200200020003d
:1029300001003700a000200050468800b0002000b1
:102940006046880060062000c0418800c1692c00f4
:10295000100020005114070090478800400020001c
:10296000e04688000000eb0030478800c4fd070007
:10297000d16a2c002000200048140700c0478800be
:10298000c16b2c002000200044140700d0478800b1
:10299000916c2c001000200040140700e1418000e1
:1029a0000180b90000007800e0418800516d2c00e2
:1029b0002000200039140700001798000e11900025
:1029c0004101200080022000350b07009f033700e3
:1029d000b1702c0000712c002014070021692c001c
:1029e000100020002d140700101798001e109000f2
:1029f0000000e0000200320020002000010037004b
:102a00001000200050468800b0002000604688007a
:102a1000e0012000c041880081712c0010002000de
:102a20001e1407003047880021722c00100020007f
:102a30001a140700104888000000eb009047880037
:102a400020002000e04688008dfd0700d16a2c00a0
:102a50002000200011140700c0478800c16b2c0023
:102a6000200020000d140700d0478800516d2c0075
:102a70002000200009140700201798002e11900054
:102a80004101200040012000050b07006f033700c3
:102a9000c1722c00b0732c00f013070021692c00c8
:102aa00010002000fd130700301798003e10900022
:102ab0000000e0000200320020002000010037008a
:102ac000a000200050468800b0002000604688002a
:102ad00000032000c041880010002000104888003a
:102ae0000000eb00304788000000eb0090478800b2
:102af00060002000e046880060002000f047880069
:102b00005ffd0700d16a2c0020002000e3130700be
:102b1000c0478800c16b2c0020002000df13070095
:102b2000d0478800916c2c0010002000db130700b8
:102b3000e14180000180b90000007800e041880098
:102b4000516d2c0020002000d4130700401798007e
:102b50004e11900041012000c0032000d00a070060
:102b60003a03370041742c00b06f2c00bb130700f0
:102b700021692c0010002000c8130700501798008e
:102b80005e1090000000e0000200320020002000f3
:102b900001003700a000200050468800b00020004f
:102ba0006046880060062000c0418800c1692c0092
:102bb00010002000b9130700904788006000200033
:102bc000e046880060002000f04788000000eb002d
:102bd000304788002afd0700d16a2c002000200021
:102be000ae130700c0478800c16b2c0020002000f6
:102bf000aa130700d0478800916c2c001000200019
:102c0000a6130700e14180000180b90000007800b0
:102c1000e0418800516d2c00200020009f13070028
:102c2000601798006e11900041012000c003200041
:102c30009b0a070005033700c1722c00b0732c00fb
:102c40008613070021692c00100020009313070051
:102c5000701798007e1090000000e0000200320023
:102c6000200020000100370010002000504688009e
:102c7000b00020006046880000032000c0418800aa
:102c80000000eb00304788000000eb009047880010
:102c900060002000e046880060002000f0478800c7
:102ca000f7fc0700d16a2c00200020007b130700ee
:102cb000c0478800c16b2c0020002000771307005c
:102cc000d0478800916c2c0010002000731307007f
:102cd000e14180000180b90000007800e0418800f7
:102ce000516d2c00200020006c130700001f98007d
:102cf0000e19900041012000c0032000680a07005f
:102d0000d2023700c1722c00d0742c00531307007c
:102d100021692c001000200060130700101f98008c
:102d20001e1890000000e000020032002000200089
:102d3000010037001000200050468800b00020003d
:102d40006046880000032000c04188000000eb00be
:102d5000304788000000eb009047880060002000aa
:102d6000e046880010002000104788006000200026
:102d7000f0478800c2fc0700c0002000c047880060
:102d800050002000d0478800516d2c00200020000a
:102d900042130700201f98002e19900041012000c7
:102da000c00320003e0a0700a8023700c1722c00b1
:102db000e0752c002913070021692c001000200069
:102dc00036130700301f98003e1890000000e00006
:102dd0000200320020002000010037001000200017
:102de00050468800b00020006046880000032000a4
:102df000c041880010002000104888000000eb004f
:102e0000304788000000eb009047880060002000f9
:102e1000e046880020002000104788006000200065
:102e2000f047880096fc0700c0002000c0478800db
:102e300050002000d0478800516d2c002000200059
:102e400016130700401f98004e1990004101200002
:102e5000c0032000120a07007c023700c1722c0058
:102e6000e0752c00fd12070021692c0010002000e5
:102e70000a130700501f98005e1890000000e00041
:102e80000200320020002000010037001000200066
:102e900050468800b00020006046880000032000f3
:102ea000c04188000000eb00304788000000eb00c4
:102eb0009047880060002000e04688002000200045
:102ec0001047880060002000f04788006cfc070075
:102ed000c0002000c047880050002000d047880074
:102ee000516d2c0020002000ec120700601f98009c
:102ef0006e19900041012000c0032000e80907007e
:102f000052023700b1762c0020002000e3120700a7
:102f1000701f980071772c0020002000df1207003e
:102f200000279800f1772c0020002000db1207001a
:102f30001027980071782c0020002000d71207007d
:102f400020279800fe18900011079800070037000e
:102f50001e219000ae2090001e0090006402070029
:102f60001e0090000000e80010079800fe18900076
:102f70000e209000808040001e009000808f500046
:102f8000f3ff3c00310237001afc07002f02370024
:102f9000c1782c00b0732c00b012070021692c00fe
:102fa00010002000bd120700302798003e2190003d
:102fb000124888003e2090000000e000020032002d
:102fc000200020000100370010002000504688003b
:102fd000b00020006046880000032000c041880047
:102fe0000000eb00304788000000eb0090478800ad
:102ff000d1792c0010002000a8120700e0468800bc
:103000001ffc07000000eb0020079800e04680004e
:10301000e40f500007003200e60f500008003200b5
:10302000e20f50000b003a004001200020079800fa
:1030300008003700800220002007980005003700b4
:1030400060002000f0478800c0032000200798009f
:1030500000000000d16a2c00200020008f12070021
:10306000c0478800c16b2c00200020008b12070095
:10307000d0478800516d2c002000200087120700e7
:10308000402798004e219000410120002e00900022
:1030900083090700ed013700817a2c00b0732c0002
:1030a0006e120700f0002000504688000003200048
:1030b000c04188000000eb00304788000000eb00b2
:1030c0009047880060002000e046880060002000f3
:1030d000f0478800eafb070080002000c047880016
:1030e00050002000d0478800e001200050279800c1
:1030f0005e21900041012000c00320006809070004
:10310000d2013700317b2c00c07b2c00531207000a
:1031100021692c0010002000601207006027980031
:103120006e2090000000e00002003200200020002d
:10313000010037003000200050468800a000200029
:1031400060468800d0052000c04188000000eb00e8
:103150009047880020002000e046880020002000e2
:10316000104788000000eb0030478800c4fb0700d0
:10317000a0002000c0478800f0002000d047880051
:10318000916c2c001000200044120700e1418000e7
:103190000180b90000007800e0418800516d2c00ea
:1031a000200020003d120700702798007e2190002b
:1031b000810220004001200039090700a3013700e7
:1031c000317b2c00c07b2c002412070021692c00cd
:1031d0001000200031120700002f98000e289000e8
:1031e0000000e00002003200200020000100370053
:1031f000a000200050468800b000200060468800f3
:10320000e0052000c04188000000eb0090478800e6
:1032100020002000e04688001000200010478800b1
:103220000000eb00304788001000200010488800a4
:1032300093fb0700a0002000c0478800f00020009a
:10324000d0478800916c2c0010002000131207005a
:10325000e14180000180b90000007800e041880071
:10326000516d2c00200020000c120700102f980038
:103270001e2990008102200040012000080907005b
:1032800072013700d1652c002000200003120700d6
:10329000202f98002e289000ef0f500003003400dc
:1032a0002e28900070005000010037002e2890005a
:1032b000f00d07002e289000ef0f500002003c0098
:1032c000e0ff2f0001003700b0ff2f00280e07009d
:1032d000401f2000840d07002e289000ef0f5000a3
:1032e00002003c00c0ff2f000100370030ff2f001c
:1032f0001f0e070000a62e007b0d07002e28900051
:10330000ef0f500002003c00d0ff2f0001003700fb
:1033100070ff2f00160e0700800c2000720d0700b2
:10332000f0002000120e0700480137005a0c070079
:103330004601370010002000904888004d03070028
:1033400042013700100020009048880081682c005e
:10335000607c2c00c111070020002000504688002e
:1033600070032000c0418800f17c2c001000200078
:10337000ca11070010488800017e2c0010002000b0
:10338000c6110700e0478800c1692c00100020002a
:10339000c21107009047880020002000e046880006
:1033a000100020003047880035fb0700d16a2c0050
:1033b00020002000b9110700c0478800c16b2c0015
:1033c00020002000b5110700d0478800516d2c0067
:1033d00020002000b1110700302f98003e299000f6
:1033e0004106200040012000ad0807000000eb006e
:1033f0009048880015013700100020009048880090
:1034000081682c00007f2c00941107002000200010
:103410005046880070032000c0418800f17c2c00d9
:10342000100020009d11070010488800017e2c002c
:103430001000200099110700e0478800c1692c00a6
:103440001000200095110700904788000000eb0055
:103450009047880020002000e046880010002000ef
:1034600030478800d16a2c00200020008b11070013
:10347000c0478800c16b2c00200020008711070086
:10348000d0478800516d2c002000200083110700d8
:10349000402f9800e17f2c00200020007f110700c2
:1034a00030079800e0468000000040002efa070038
:1034b000c046880030478000000040002afa07001c
:1034c00020478800204780008000eb00010878003a
:1034d000160037003e009000610060000000e00030
:1034e00002003a0060002000010037007000200058
:1034f000502f9800c0468000de2890000108780018
:10350000c04680000080e8005e2990000208780034
:103510004e2990004106200040002000600807006e
:103520003e0090000000e900300798003e00900047
:103530000000e000e7ff3c000000eb00904888003e
:10354000c200370081682c00e0802c004311070086
:10355000200020005046880070032000c0418800f1
:1035600060002000f04788002000200010488800fc
:1035700010002000e04788000000eb009047880022
:1035800060002000e04688001000200030478800de
:10359000e046800000004000f3f90700c0468800c4
:1035a0003047800000004000eff907002047880006
:1035b000204780008000eb0001087800c0468000b2
:1035c0006100200001087800c04680000080e8000b
:1035d0007100200001087800c046800064004000af
:1035e0000101200001087800c0468000660040000c
:1035f0001101200001087800c046800068004000ea
:103600002101200001087800c04680006a004000c7
:10361000310120000108780020002000c047880008
:1036200080002000d0478800516d2c002000200031
:103630001a110700602f98006e2990008101200068
:1036400080012000160807000000eb009048880069
:103650007e003700516e2c00b0812c00ff10070057
:103660002000200050468800a0002000c0418800b3
:1036700010002000104888000000eb0090478800f0
:1036800020002000e0468800e04680000000400066
:10369000b5f90700c0468800e04680000000400001
:1036a000b1f90700d0468800c04680002100200004
:1036b00001087800c04680000080e800310020004a
:1036c00001087800d0468000210020000108780021
:1036d000d04680000080e80031002000010878001a
:1036e0000000eb0030478800d16a2c002000200049
:1036f000ea100700c0478800c16b2c0020002000a2
:10370000e6100700d0478800516d2c0020002000f3
:10371000e2100700702f98007e29900021032000fe
:10372000c0002000de0707004800370001822c009f
:10373000b0812c00c91007002000200050468800ee
:1037400040012000c041880051822c001000200060
:10375000d2100700104888000000eb009047880056
:1037600020002000e0468800e04680000000400085
:103770007df90700c0468800e04680000000400058
:1037800079f90700d0468800c0468000210020005b
:1037900001087800c04680000080e8003100200069
:1037a00001087800d0468000210020000108780040
:1037b000d04680000080e800310020000108780039
:1037c0000000eb0030478800d16a2c002000200068
:1037d000b2100700c0478800c16b2c0020002000f9
:1037e000ae100700d0478800516d2c00200020004b
:1037f000aa100700003798000e3190002103200026
:10380000c0002000a607070010003700ce38900047
:103810004107980007003700a20020008100200027
:103820004e009000320007004e0090000000e800bb
:10383000400798004e389000e40040004e00900091
:10384000808f5000f4ff3c0000000000c046800064
:10385000e0f80700d0468000def80700204780002f
:10386000dcf807000080fa00000006000600fa00fd
:10387000000f78001107980022079800390e070002
:10388000420e070020832c00100e07000001eb0001
:10389000610020001e007800d70f070012002000f2
:1038a000610020001e009000d30f07001e00900052
:1038b0000000e9006f0c0700010037000000000065
:1038c0001e80ea00aa0c07002e0090000000e00015
:1038d000faff3a00401f2000030c0700f000200010
:1038e000a30c0700401f2000ff0b0700f4ff370068
:1038f0001400fa0070079800010f9800120f98004a
:10390000401f200010079800803e200020079800ec
:10391000300c2000300798000000eb00000f78000a
:10392000b10037000f0e0700180e070000842c00ae
:10393000e60d070011c0b3000040eb001d0e0700ac
:1039400060842c00e10d07001e00e800120020003a
:1039500071002000a80f07000001eb0061002000ab
:103960007e009000a40f07007e009000ef0f500033
:10397000030034007e00900070005000010037000a
:103980007e009000400798007e009000ef0f5000ee
:1039900002003c0010002000010037004000200021
:1039a000500798007e009000ef0f500002003c008e
:1039b00020002000010037008000200060079800f0
:1039c000fe00900030002000f90b07004e00900030
:1039d000280c07005e0090000080ea00640c0700dd
:1039e0001e009000c00b0700e702a800de00900058
:1039f0006e009000010070000080ea005c0c07007f
:103a00007e009000700060004480de00004078007e
:103a1000614060000080fb00610060004900dd0043
:103a200032178000f1df2f0081006100010070007b
:103a3000301788002e019000706626000090b900b3
:103a40008180d1004f90de0000805000a60b07005f
:103a50007e009000680060004380de000040780037
:103a6000614060000080fb00610060004900dd00f3
:103a700032178000f1df2f0081006100010070002b
:103a8000301788002e019000706626000090b90063
:103a90008180d1004f90de0000805000920b070023
:103aa0007e009000640060004280de0000407800ec
:103ab000614060000080fb00610060004900dd00a3
:103ac00032178000f1df2f008100610001007000db
:103ad000301788002e019000706626000090b90013
:103ae0008180d1004f90de00008050007e0b0700e7
:103af0007e009000620060000080d10000407800ed
:103b0000614060000080fb00610060004900dd0052
:103b100032178000f1df2f0081006100010070008a
:103b2000301788002e019000706626000090b900c2
:103b30008180d1004f90de00008050006a0b0700aa
:103b40007e009000004078006140600061406000ad
:103b5000614060000080fb00610060004900dd0002
:103b600032178000f1df2f0081006100010070003a
:103b7000301788002e019000706626000090b90072
:103b80008180d1004f90de00808050003e00900088
:103b900000805000540b07006e0090000080ea0087
:103ba000f30b07003e0090004f0b0700e722a9002f
:103bb000f0002000ee0b07008000eb00300020003a
:103bc0007b0b0700e702a9008e089000803e2000d2
:103bd0000088b900800078001e009000008050002e
:103be000410b07001e0fe8001e0890009e007800a1
:103bf000808f50004bff35000080fa000000060067
:103c00000800fa00d1842c0010002000a30f070048
:103c1000000f78001e0078000000e00002003a006b
:103c2000604080000100370070408000300798003d
:103c30003e019000b04721000090b900c388de002b
:103c40004f90de0000805000100798003e0090006a
:103c5000b14721000181b9004399de00cf80de0029
:103c600001015100410620000191b9008200780055
:103c700001005000200798009e0090007001200075
:103c80004b0b0700ae00900080012000480b07009e
:103c900020032000140b0700deff37000600fa00a7
:103ca000889fbe006140800070408000008050000e
:103cb000cf80de00ebf607000004be00614080000c
:103cc0007040800000804000cf80de00e5f60700f5
:103cd0000001be000800be007ff6070002002000c1
:103ce00003f823001ff60700020020000340240011
:103cf00032f70700baf607000000780020079800a6
:103d00002e019000b04721000090b900c388de006a
:103d10004f90de00008f50002e009000b147210030
:103d20000181b9004399de00cf80de00010151001e
:103d3000410620000191b900820078000100500086
:103d4000100798009e00780070012000180b0700f3
:103d50009e00900080012000150b070090012000bc
:103d6000e10a07002e0090008000eb0040100700e1
:103d700090012000dc0a0700caff37000200fa00a9
:103d8000f0f32f00f01688000000eb00000f780021
:103d90001e00a2001e007800004078006140600014
:103da0000080fb00610060004600dd00021780001b
:103db000f1fb2f00810061000100700000178800f6
:103dc0000000000000000000000000001e0078005d
:103dd00000407800614060000080fb0061006000ee
:103de0004800dd0042168000f1ef2f0081006100e5
:103df0000100700040168800000000000000000074
:103e0000000000001e007800004078006140600063
:103e10000080fb00610060004900dd004216800068
:103e2000f1df2f0081006100010070004016880062
:103e30000000000000000000000000001e007800ec
:103e400000407800614060000080fb00610060007d
:103e50004700dd0002178000f1f72f0081006100ac
:103e60000100700000178800000000000000000042
:103e7000000000001e0078000040780061406000f3
:103e80000080fb00610060004600dd00021780003a
:103e9000f1fb2f0081006100010070000017880015
:103ea0000000000000000000000000001e0078007c
:103eb00000407800614060000080fb00610060000d
:103ec0004e00dd0012168000f1ff2b008100610022
:103ed00001007000101688000000000000000000c3
:103ee000000000001e007800004078006140600083
:103ef0000080fb00610060004c00dd00a216800025
:103f0000f1ff2e008100610001007000a016880002
:103f10000000000000000000000000001e0078000b
:103f200000407800614060000080fb00610060009c
:103f30004d00dd00a2168000f1ff2d008100610020
:103f400001007000a0168800a00f2000660a07007c
:103f50008fff37000600fa00200798000000eb00f2
:103f60007048880070418000a20f07000000eb003d
:103f7000000f78000000eb0010079800790c070094
:103f8000820c070090852c00500c0700803e20001a
:103f90000100200000408800114088000100370027
:103fa00000000000714880001e009000808f5000cb
:103fb000170036002e0090006101b900004080001b
:103fc00011408000800f5100818f59000a003e008f
:103fd00011002000400020004f0f07000028ef00d4
:103fe0000228ef001e0fe8001e00780012002000db
:103ff000c1002000000e07007148800011079800e2
:104000001e0090000001eb00b1002000fa0d070037
:10401000e04180006101b900004080001140800053
:10402000800f5100818f590003003e008000eb009b
:1040300040002000380f070061418000100320007d
:10404000808f5000d6ff3a00110020004000200071
:10405000310f0700e0418000230a07008000eb00d9
:10406000400020002c0f07000080eb00604188001a
:10407000ccff37000a00fa0020032000c04188006e
:104080000000eb00000f78000000eb007048880093
:104090000000eb00804888000000eb00100798004b
:1040a0000000eb00200798000000eb0030079800ac
:1040b00041862c0020002000780e07004007980061
:1040c00051872c0070872c00640e0700ce009000f2
:1040d000400620000088b90000007800cf80de0094
:1040e00000408800114088000100370000000000f7
:1040f000714880002e009000808f50002a0036000a
:10410000ce009000400620000088b9000000780032
:104110006101b9000040800011408000800f510013
:10412000818f5900190031001e007800e40f500003
:104130001600320011002000600120001c0a070058
:104140001100200040002000f30e07004000200076
:10415000000f78000028ef000228ef008040eb00fd
:10416000f0c0b300130c0700c0c4b300cc0b0700b1
:104170001e0090000000e800100798001e0090004c
:1041800012002000210020009b0d070070488000d5
:104190000001eb0021002000970d0700714880000e
:1041a000210798002d003700814880003e009000d4
:1041b000808f500029003600ce009000400620007d
:1041c0000088b900000078006101b900004080005b
:1041d00011408000800f5100818f5900190031007b
:1041e0001e007800e30f500016003200210020006e
:1041f00060012000ee0907001100200030002000bf
:10420000c50e070030002000000f78000028ef00e6
:104210000228ef008040eb00f0c0b300e50b070080
:1042200020c5b3009e0b07001e0090000000e800b0
:10423000100798001e0090001200200021002000ae
:104240006d0d0700804880000001eb00a1002000f8
:10425000690d07008148800031079800e041800027
:104260006101b9000040800011408000800f5100c2
:10427000818f5900030031008000eb0040002000d6
:10428000a50e0700f04180006101b90000408000e8
:1042900011408000800f5100818f590003003100d0
:1042a0008000eb00300020009b0e07006141800081
:1042b00010032000808f50000a003a0011002000f7
:1042c00040002000940e0700e041800086090700ae
:1042d0008000eb00400020008f0e07000080eb0004
:1042e000604188006141800020032000808f5000e1
:1042f0007eff3a001100200030002000860e0700eb
:10430000f0418000780907008000eb0030002000b9
:10431000810e07000080eb006041880074ff3700c9
:104320000400fa0070418000b20e0700a040800037
:10433000b00e070011882c0010002000d70d0700d8
:10434000000f780001892c0030002000d30d0700f9
:10435000100798001e009000a60e07001e007800af
:10436000e10f500006003a001e0090004280de007f
:10437000800078000000eb006d0a0700080037009d
:104380001e007800e20f500005003a001e00900069
:104390004280de0080007800a0002000640a070050
:1043a0000000000000000000000000000000eb0022
:1043b0007e0a07004200dd0070418800a000200056
:1043c0007a0a07004200dd00a04088000080fa0061
:1043d000000006000800fa00100798002107980066
:1043e000320798002e009000ef0f500003003400b9
:1043f0002e00900070005000010037002e00900049
:104400009c0907001e009000e10f500006003200da
:104410001e009000e20f5000030032001e009000ca
:10442000e60f500009003a002e009000ef0f5000f8
:1044300002003c00e0ff2f0001003700b0ff2f001a
:10444000cb090700401f2000ec0e07001e00900063
:10445000e30f500001003200e722a8001e00900088
:10446000e30f500012003a002e0090000000e00020
:1044700003003c002e0090004006b0000100370011
:104480002e009000800078003000200048090700ce
:104490002e009000ef0f500002003c00e0ff2f00c4
:1044a00001003700b0ff2f00b1090700d600370028
:1044b0001e009000e40f500012003200e40f500084
:1044c00005003c00e10f500006003200e20f5000f2
:1044d0000800320012003700e60f50000c003200d6
:1044e0000f003700410120003e009000e60e07005b
:1044f0000b003700610420003e009000e20e070030
:1045000007003700a10520003e009000de0e0700e6
:10451000c10d20003e009000db0e070000000000ef
:104520002e009000ef0f500002003c00c0ff2f0053
:104530000100370030ff2f008d0907001e0090009a
:10454000e40f500017003200e40f500004003c005c
:104550000000e900e10f50001e003e000700370098
:10456000e60f500015003200e60f50001000350035
:10457000e70f500014003200160037002e009000a4
:10458000acf607000000e0000300320090002000bd
:10459000000f78000f003700a0002000000f780007
:1045a0000c00370030052000000f780009003700ac
:1045b00050052000000f780006003700b0002000f2
:1045c000000f780003003700c0002000000f7800c3
:1045d000000000002e0090000000e00003003a0000
:1045e0002e0090004006b000010037002e00900021
:1045f000800078001e007800ed0807008040eb0086
:1046000030c0b300eb0a07001e009000e40f50001a
:104610001a003200e40f500005003c00e10f50008a
:104620000a003200e20f50000e003200290037006d
:10463000e60f50001b003200e60f50001500350059
:10464000e70f50001d0032002200370010c3b300f6
:10465000930a070040478000800cb100670e0700f6
:104660001c00370020c3b3008d0a0700604780009c
:10467000800cb100610e07001600370030c3b30094
:10468000870a070080478000800cb1005b0e07009e
:1046900010003700b0478000800cb100570e0700b3
:1046a0000c00370050c7b3007d0a07005047800058
:1046b000800cb100510e07000600370050c5b30052
:1046c000770a070070478000800cb1004b0e07008e
:1046d000000000002e009000ef0f500002003c0090
:1046e000d0ff2f000100370070ff2f0020090700c6
:1046f000800c2000410e0700f00020001c0907007c
:104700008000eb001e007800a90807008040eb0045
:1047100030c0b300a70a07001e009000e40f50004d
:104720002a003200e40f500005003c00e10f500069
:1047300008003200e20f500015003200320037004e
:10474000e60f500027003200e70f5000280032002b
:104750002d003700e10120003e0090004a0e0700c6
:1047600040c6b3004e0a0700404780008000780032
:10477000703e2000808f500020003e0040478000a7
:10478000813e2000008050001c0e07001e003700f4
:10479000010520003e0090003b0e070040c4b3001e
:1047a0003f0a07006047800080007800703e2000cc
:1047b000808f500013003e0060478000813e200043
:1047c000008050000d0e07000f003700f10520009b
:1047d0003e0090002c0e070020c5b300300a0700f1
:1047e0000900370040c6b3002d0a07000600370055
:1047f00040c6b3002a0a070003003700000000008b
:104800000100370000000000000000000000000070
:104810000000000000000000e722a9000080fa006c
:10482000000006000400fa00000f7800110798004d
:1048300011002000600120005d0807006148800031
:10484000c0042000808f500009003a0011002000b1
:1048500040002000300d0700e0418000e70d070018
:104860008000eb00400020002b0d07000c003700fb
:104870006148800020052000808f500008003a0029
:104880001100200030002000230d0700f0418000bf
:10489000da0d07008000eb00300020001e0d07003d
:1048a0002028ef009e0078007000200040080700dc
:1048b000b04080000000e800b0408800b0408000b8
:1048c0000001eb0051002000cb0b07000080fa0034
:1048d000000006000200fa00000f78002028ef0018
:1048e0009e0078004000200031080700d040800082
:1048f0000000e800d0408800d04080001200200076
:1049000051002000bc0b07000080fa0000000600e8
:104910000200fa00000f7800004180000000e8006b
:10492000004188009e0078006000200020080700f9
:10493000c04080000000e800c0408800c040800007
:104940000001eb0091002000ab0b070090478000b6
:104950000000e0000200340080382100a70d0700ad
:104960000080fa00000006000c00fa00881f7800a2
:1049700020079800310798004207980053079800d5
:104980000000eb00000f78000000eb00100798001b
:104990000000eb0060488800c0418000fe0f50001e
:1049a0000400320071032000810f500053003200d8
:1049b000d20037000028ef000228ef000200370085
:1049c00030488000604888005e0090006101b900b6
:1049d0000040800011408000800f5100818f5900fd
:1049e00003003600604880000000e000f4ff320061
:1049f00020408000314080004040880051408800c5
:104a0000604880000000e00031003a002e00900075
:104a100088f507000000e0000b003a0011002000bc
:104a200050002000e2070700e04080000000e8009e
:104a3000e0408800e040800012002000910020004b
:104a40006d0b07002001370010002000b0ff0700a9
:104a5000eff40700d1418000010178001100090046
:104a60000200d8008000fd000000e00005003a00d0
:104a70001048800061006000004078000004e00001
:104a800004003a006141800010032000808f500034
:104a90000c013a001100200060012000c40707004b
:104aa00011002000400020009b0c07001100200096
:104ab00080002000be070700e04180004f0d070086
:104ac0008000eb0040002000930c0700fe00370040
:104ad0002e00900057f507000000e00003003a00a8
:104ae000100020007bff0700f700370011002000b6
:104af000100020004bff0700f30037000028ef00f4
:104b00000228ef00400037005e009000cf00de007a
:104b1000008040000080d1006101b90000408000a9
:104b200011408000800f5100818f590034003a00fd
:104b30001e0090000000e00031003a00100020004c
:104b400010079800b2f40700d141800001017800fd
:104b5000110009000200d8008000fd000000e00004
:104b600005003a00104880006100600000407800b5
:104b70000004e00004003a006141800010032000be
:104b8000808f50001e003a001100200060012000bc
:104b900087070700ce0090008000200084070700f0
:104ba0002e00900023f507000000e000090032000d
:104bb0001100200040002000570c0700e041800059
:104bc000490707008000eb0040002000520c07005e
:104bd0000800370011002000300020004e0c0700b4
:104be000f0418000400707008000eb00300020000b
:104bf000490c07000080eb00604188000c00370082
:104c000030488000604888005e0090006101b90073
:104c10000040800011408000800f5100818f5900ba
:104c200003003600604880000000e000b6ff32005c
:104c30002040800031408000404088005140880082
:104c40002e009000fbf407000000e000020032009c
:104c500010002000010037002000200040079800cd
:104c6000604880000000e00006003a004e0090001e
:104c700027ff0700904780000000a00090478800b1
:104c8000910037002e009000eaf407000000e000d9
:104c9000040032006148800020052000808f500011
:104ca0000800320061488000c0042000808f50005e
:104cb0000a003a002e009000def407000000e00039
:104cc00006003a004e00900002ff07009047800067
:104cd0000000a000904788007b00370011002000f2
:104ce0004e009000cffe070091478000e00f2000ab
:104cf0000080600090478800730037000028ef00b4
:104d00000228ef00330037005e009000cf00de0085
:104d1000008040000080d1006101b90000408000a7
:104d200011408000800f5100818f590027003a0008
:104d30001e0090000000e00024003a001000200057
:104d40001007980032f40700d1418000010178007b
:104d5000110009000200d8008000fd000000e00002
:104d600005003a00104880006100600000407800b3
:104d70000004e00004003a006141800010032000bc
:104d8000808f500011003a001100200060012000c7
:104d900007070700ce0090008000200004070700ee
:104da0001100200040002000db0b0700e0418000e4
:104db000cd0607008000eb0040002000d60b070066
:104dc0000080eb00604188000c0037003048800014
:104dd000604888005e0090006101b90000408000da
:104de00011408000800f5100818f59000300360070
:104df000604880000000e000c3ff320020408000d7
:104e00003140800040408800514088006048800068
:104e10000000e00019003a002e00900085f4070021
:104e2000000478003e00900082f40700800f5400d8
:104e30000d003a00ce00900050002000dc06070074
:104e4000e04080000000e800e0408800e040800092
:104e50001200200091002000670a07005000200087
:104e6000000f7800180037004e009000a8fe0700e1
:104e700060002000000f7800130037002e00900023
:104e80006cf40700000478003e00900069f407000d
:104e9000800f540005003a004e0090008dfe070080
:104ea00040002000000f78000700370011002000ac
:104eb0004e0090005bfe070070002000000f78009d
:104ec00001003700000000001e0078004f04780049
:104ed0000080fa00000006000800fa0010079800a1
:104ee00021079800320798001e019000ae00900044
:104ef0006000200037fd07008040eb0030c0b300a9
:104f0000ac08070040c4b300650807003e009000ed
:104f10000000e00003003a0080bb2000370c0700cf
:104f20002e003700803e2000340c0700000f780070
:104f30003e009000ef0f5000030034003e00900050
:104f400070005000010037003e009000c9060700c5
:104f50003e009000ef0f500002003c00e0ff2f00e9
:104f600001003700b0ff2f0001070700401f20009d
:104f7000220c07001e0f70001e0078000000e000e9
:104f80000a003a001e019000be0090007000200050
:104f900010fd0700431f200032002000be009000db
:104fa0002e00900070fe07000c003700f00020007b
:104fb000ef06070031002000400520007c060700b6
:104fc0008040eb0030c0b3007a08070010c4b30083
:104fd00033080700c05d2000080c07000080fa00bd
:104fe000000006000600fa0010079800210798004c
:104ff00081478000700c2000808f500049003400f1
:105000000000eb00000f7800c0478000e10f500067
:1050100019003400c04780008000e900803e200075
:105020000088b90000007800f40b07001e0f700024
:10503000810c20001e009000130c0700c047800068
:1050400080007800803e20000088b9008000780051
:1050500000832f0000804000e80b07001e0f700047
:10506000f10320001e009000070c0700401f2000e5
:10507000e20b07001e0f7000204780001000780030
:105080001e0190008000780030002000d1fc070055
:10509000401f2000d90b07001e0f70008040eb005e
:1050a00030c0b3004308070010488000e10f5000f3
:1050b0000f003c001e0078000000e0000c003200f1
:1050c000f0002000aa060700ae0090004005200076
:1050d0003706070010c4b300f1070700f040800056
:1050e0000000e800f04088000000eb000e003700f0
:1050f00020c5b300ea070700410620001e0090000b
:10510000e10b070020478000100078001e0190008e
:105110008000780040002000aefc07001000200056
:10512000010037000000eb000080fa0000000600dc
:105130001000fa00300798004107980052079800c5
:105140006307980074079800204080003140800079
:105150004040880051408800fe009000a0032000dd
:10516000130607007e00900000f0a7000000ea0090
:105170000000ea004f00de008000780010042000ec
:105180000b060700410020007e009000be0b0700c8
:10519000803e2000990b0700510020007e00900007
:1051a000b90b0700007d2000940b0700a100200030
:1051b0007e009000b40b0700401f20008f0b0700fb
:1051c000210120007e009000af0b07007e019000bf
:1051d000be009000100020007efc0700c04180004f
:1051e000fe0f50008700320071032000810f500035
:1051f00086003200c04780000000e00003003a0053
:10520000800c20007d0b070079003700c04780002c
:10521000e40f500008003c00c04780008000780088
:10522000803e20000088b90000007800803eb10078
:10523000720b070066003700104780000000e00096
:1052400015003200810220007e0090008e0b0700c6
:10525000409c2000690b07006e019000de0090006a
:105260007e0090001cff0700c0478000e70f500041
:1052700057003600c047800080007800803e200044
:105280000088b90080007800000c2e0000804000eb
:105290005a0b07004e003700810220007e0090006c
:1052a000790b0700401f2000540b0700a1022000cb
:1052b0007e009000740b0700401f20004f0b07007a
:1052c000810c20007e0090006f0b0700803e2000c4
:1052d0004a0b0700210d20007e0090006a0b07009a
:1052e000c047800080007800401f20000088b9007f
:1052f0008000780000832f00008040003f0b0700f3
:10530000610e20007e0090005f0b0700c047800008
:10531000eb0f500017003400007d2000370b070012
:10532000b10e20007e009000570b0700401f2000a8
:10533000320b0700010f20007e009000520b070087
:10534000401f20002d0b0700510f20007e00900011
:105350004d0b0700c1478000401f20000088b900a6
:105360008000780040a82e0000804000230b07003a
:1053700008003700c047800080007800401f2000f0
:105380000088b90080007800c0632f0000804000d2
:105390001a0b0700a10f20007e0090003a0b0700b7
:1053a000401f2000150b0700f10f20007e00900029
:1053b000350b0700401f2000100b0700d103200011
:1053c0007e009000300b0700401f20000b0b0700f1
:1053d000f10320007e0090002b0b0700401f2000ef
:1053e000060b0700110420007e009000260b07002a
:1053f0007e019000ce00900020002000f5fb070009
:10540000030037000000000001003700000000002a
:105410000000eb0010079800304780000000e0001b
:1054200003003200e10f5000130032002600370065
:105430008040eb0030c0b3005e07070020c5b3001a
:1054400017070700104880000000e000020032004b
:10545000007d200001003700803e200080017800a0
:1054600012002000ce0090003e0090003efd07009c
:1054700010079800140037003e009000edf207007e
:105480000000e000020032001000200001003700a0
:1054900020002000800078007e009000d1fe0700f0
:1054a0000000e0000700320003fa20002200200084
:1054b000ce0090003e0090002bfd070010079800e2
:1054c0000100370000000000b1408000e040800093
:1054d00080804000c040800080804000d04080003c
:1054e00080804000f040800000804000200798004d
:1054f00012002000d10020002e009000be080700fe
:10550000b1408000e0408000008040000000e000ea
:1055100012003400b1408000e040800080804000f4
:10552000400620000088b900800078002e0090001e
:1055300000017800110009008200d80010418800a5
:105540001041800031062000810f5000010034001e
:105550003006200010418800010037002228ef00ab
:1055600010418000e90f500002003400d0002000fc
:1055700001003700e0002000134180000001eb0033
:1055800080007800030078009b0807008040eb0053
:1055900030c0b3000707070090c4b300c00607007f
:1055a000d0478000e30f500010003600d047800045
:1055b000640f50000400370000a62e008f0a070079
:1055c00041fc2f001e8f4000c00320009e00780089
:1055d000808f5000f8ff3e009e007800803e200043
:1055e0000088b90000007800840a07008000eb0002
:1055f000b0032000ee0407002e0d07000080fa0023
:10560000000006000400fa00e0418000f9090700ec
:10561000f0418000f7090700018a2c0010002000eb
:105620001e090700000f7800018b2c0030002000bd
:105630001a090700100798001e009000ed090700e6
:105640001e007800e10f500004003a009e00900018
:1056500020002000b6050700060037001e00780075
:10566000e20f500003003a009e009000c0002000ae
:10567000af05070020002000cc050700e0418800ae
:10568000c0002000c9050700f04188008000eb0041
:10569000d0032000c60407000080fa0000000600c6
:1056a0001a00fa00200f9800310f9800420f98005e
:1056b0000000eb00000f78002828ef006046800013
:1056c00060079800f047800000004000a6f1070046
:1056d00070079800c04180008000780030032000ef
:1056e000b30407003003370011002000d00320006e
:1056f000af040700f18b2c00008d2c00d7080700a9
:105700004041800012002000110020003a080700ec
:105710001e28ef00f0408000e0408800e04080005c
:10572000d0408800d0408000c0408800c040800049
:10573000b04088000000eb00300798000000eb004c
:10574000400798000000eb00000f7800f9023700d6
:10575000f0478000800078007e009000e509070097
:105760000000eb0050079800ea0237005e0090004e
:1057700000004000fe009000008040001000780013
:10578000000f9800c0418000d1052000810f50001b
:10579000f1003200d1052000810f50000d003e00c5
:1057a000f40f50001c003200f40f500003003e00c4
:1057b000ea0f50003300320002013700fe0f5000a4
:1057c0004b00320071032000810f5000480032006e
:1057d000fc00370031062000810f500088003200a5
:1057e00031062000810f500004003e00e10520003a
:1057f000810f5000be003200f20037004106200049
:10580000810f500098003200e1062000810f500007
:1058100060003200eb0037000e0890000000e0004e
:10582000030032000e089000e20f500003003a001f
:10583000c04680001000780003003700c04680009a
:105840000080e80010007800100798000e08900013
:10585000e10f5000030032000e089000e20f5000ec
:1058600003003a00d04680001000780003003700a3
:10587000d04680000080e8001000780020079800e3
:10588000d00037000e0890000000e0000300320056
:105890000e089000e20f500003003a00c04680005e
:1058a0001000780003003700c04680000080e80048
:1058b00010007800100798000e0890000000e0002b
:1058c000030032000e089000e20f500004003a007e
:1058d000d04680000080e800100078000200370009
:1058e000d04680001000780020079800b5003700ef
:1058f0000000eb00200798009047800063006000e4
:10590000e30f500003003a0030418000e90f5000df
:105910001c003400e0468000e20f50000e003a0008
:105920000e0890000000e000030032000e08900016
:10593000e20f500003003a00c046800010007800db
:1059400003003700c04680000080e80010007800a7
:105950001007980009003700e0468000e40f50006f
:1059600006003400c14680000e0890000000400090
:105970000080400090007800110798002628ef0072
:1059800090003700304180000000e800304188007e
:105990008c0037000e0890000000e0000300320089
:1059a0000e089000e20f500003003a00c04680004d
:1059b0001000780003003700c04680000080e80037
:1059c00010007800100798000e089000e10f5000ba
:1059d000030032000e089000e20f500003003a006e
:1059e000d04680001000780003003700d0468000c9
:1059f0000080e80010007800200798007100370050
:105a00000e0890000000e000030032000e08900035
:105a1000e20f500003003a00c046800010007800fa
:105a200003003700c04680000080e80010007800c6
:105a300010079800c0468000900078001e0090007b
:105a4000808f500004003a00d04680000080e800bb
:105a50001000780002003700d04680001000780067
:105a600020079800570037000e0890000000e00063
:105a7000030032000e089000e20f500003003a00cd
:105a8000c04680001000780003003700c046800048
:105a90000080e8001000780010079800c0468000e1
:105aa000900078001e009000808f500004003a00a3
:105ab000d04680000080e800100078000200370027
:105ac000d046800010007800200798001e00780063
:105ad000ef0f500003003400b00020006046880043
:105ae000380037000000eb006046880035003700c2
:105af0000e0890000000e000030032000e08900045
:105b0000e20f500003003a00c04680001000780009
:105b100003003700c04680000080e80010007800d5
:105b200010079800c0468000900078001e0090008a
:105b3000808f500004003a00d04680000080e800ca
:105b40001000780002003700d04680001000780076
:105b5000200798001b0037000e0890000000e000ae
:105b6000030032000e089000e20f500003003a00dc
:105b7000c04680001000780003003700c046800057
:105b80000080e80010007800100798000e089000d0
:105b9000e10f5000030032000e089000e20f5000a9
:105ba00003003a00d0468000100078000300370060
:105bb000d04680000080e8001000780020079800a0
:105bc000000000008040eb000040eb00790507007a
:105bd000215b2c001e0090000080400010407800e7
:105be0002f050700215b2c002e0090000080400054
:105bf000104078002a05070010478000e10f500090
:105c000003003200e20f5000080032001700370096
:105c1000f0468000100178003207980000478000ad
:105c200090007800410798001000370078f00700d6
:105c300061006000004078000004e00003003200d2
:105c4000f04680001000780003003700f046800026
:105c50000080e800100078003007980000478000be
:105c600010017800420798000000000050468000b4
:105c70006101b8000080eb008080eb000200400072
:105c800083804800f204200003002000820f5000af
:105c9000838f580094013e000060010052003700dd
:105ca0004e003700900137008f0137008e0137001a
:105cb0008d0137008c0137008b0137008a013700d6
:105cc000520037008801370087013700860137000e
:105cd00085013700dc00370083013700820137007f
:105ce00081013700800137005b0037006200370018
:105cf0007d0137007c0137007b01370082003700cf
:105d000089003700780137007701370076013700c6
:105d1000a9003700740137007301370072013700a2
:105d200071013700700137006f0137006e013700d5
:105d30006d0137006c013700e10037006a01370060
:105d4000e80037006801370067013700f6003700c8
:105d500065013700640137006301370062013700d5
:105d600061013700600137005f0137005e013700d5
:105d70005d0137005c0137005b0137005a013700d5
:105d800059013700580137005701370030013700fb
:105d900055013700540137005301370052013700d5
:105da00051013700500137004f0137004e013700d5
:105db0004d0137004c0137004b0137004a013700d5
:105dc00049013700480137004701370046013700d5
:105dd0004501370044013700250137000000eb0082
:105de00060468800400137001e00780061006000b6
:105df0000000e000020032006e0090000100370059
:105e00000000eb0060468800370137002e08900044
:105e10000000400000017800706626000090b90084
:105e2000c288de004f90de0000805000100f980006
:105e30002e0890009e0050001e089000808f500099
:105e400002003c006e009000010037000000eb00f3
:105e500060468800240137001e00900075f007009e
:105e60000000e000020032001000200001003700b6
:105e700020002000b04688009e00780050002000de
:105e800000017800110009008200d8008000fd00a8
:105e9000e20f500012003200e20f500005003c00fb
:105ea0000000e00008003200e10f5000090032005d
:105eb0000d013700e30f50000c003200e40f5000da
:105ec0000d003200080137000000eb00604688003a
:105ed0000c003700b005200060468800090037003c
:105ee000c00520006046880006003700d00520006d
:105ef0006046880003003700e00520006046880007
:105f000000000000f80037001e00900049f0070074
:105f10000000e00002003200100020000100370005
:105f200020002000b04688009e007800500020002d
:105f300000017800110009008200d8008000fd00f7
:105f4000e20f500012003200e20f500005003c004a
:105f50000000e00008003200e10f500009003200ac
:105f6000e1003700e30f50000c003200e40f500056
:105f70000d003200dc0037000000eb0060468800b6
:105f80000c0037000006200060468800090037003a
:105f9000100620006046880006003700200620001a
:105fa0006046880003003700300620006046880005
:105fb00000000000cc0037009e0078005000200058
:105fc00000017800110009008200d8008000fd0067
:105fd000e20f500012003200e20f500005003c00ba
:105fe0000000e00008003200e10f5000090032001c
:105ff000bd003700e30f50000c003200e40f5000ea
:106000000d003200b80037000000eb006046880049
:106010000c00370090072000604688000900370018
:10602000a00720006046880006003700b007200067
:106030006046880003003700c007200060468800e3
:1060400000000000a80037009e00780060002000db
:1060500000017800110009008200d8008000fd00d6
:10606000e50f50009d003e00110020000008dd00fb
:10607000f40060000100e0000d003a002102200061
:10608000810060000100e00006003a006900600045
:106090000000e000930032000000eb006046880042
:1060a0000600370000052000604688000300370026
:1060b000a005200060468800000000008a0037002c
:1060c0001e009000dbef07000000e000020032003d
:1060d000100020000100370020002000b04688009a
:1060e000810037001e009000d2ef07000000e000a2
:1060f00002003200100020000100370020002000c4
:10610000b04688001e007800610060000000e000da
:10611000020032006e009000010037000000eb002a
:1061200060468800700037001e007800e30f5000c2
:106130000b0034001e007800e70f500008003c0000
:106140001e009000bbef07000000e00004003200da
:106150002e009000b7ef07000000e0002a003a0090
:106160001e007800e70f50000b0034001e0078007e
:10617000eb0f500008003c001e009000adef070040
:106180000000e000040032002e009000a9ef07009c
:106190000000e0001c0032001e007800eb0f5000f1
:1061a0000b0034001e007800ef0f500008003c0088
:1061b0001e0090009fef07000000e00004003a007e
:1061c0002e0090009bef07000000e0000e003a0058
:1061d0001e007800ef0f5000140034001e007800fd
:1061e000f30f500011003c001e00900091ef0700db
:1061f0000000e0000d003a002e0090008def070037
:106200000000e00009003a001e00900089ef07003e
:106210000000e000020032002000200001003700f2
:1062200010002000b04688002f0037001e009000ac
:1062300080ef07000000e0000200320010002000a4
:106240000100370020002000b046880026003700fb
:106250000e089000e10f500002003c000000eb002f
:106260000100370010092000604688001e0037003a
:10627000e7ee070061006000004078000004e000e5
:106280000b0032002e089000cf00de00008040009e
:106290000080d1009e0f500002003c006e00900074
:1062a000010037000000eb00604688000e00370058
:1062b0002e089000cf00de00008040000080d1005a
:1062c0009e0f5000020034006e0090000100370065
:1062d0000000eb006046880003003700000000006b
:1062e00001003700000000006046800000027800d6
:1062f000ce0190003e019000ae0090001e00900084
:106300008bfb07001e0fe8005e0090000000e80015
:1063100050079800f14780005e009000808f500089
:1063200004003400014180003e089000808f50003e
:106330000efd35002e0890009e007800808f5000e2
:1063400004003d00014180003e089000808f500015
:10635000fffc35008000eb00d00320009401070013
