:020000040000fa
:080000000007040000000000ed
:020000040000fa
:040008007409000077
:020000040000fa
:04000c007409000073
:020000040000fa
:04001000740900006f
:020000040000fa
:04001400740900006b
:020000040000fa
:040018007409000067
:020000040000fa
:04001c007409000063
:020000040000fa
:04002000740900005f
:020000040000fa
:04002400740900005b
:020000040000fa
:040028007409000057
:020000040000fa
:04002c007409000053
:020000040000fa
:04003000740900004f
:020000040000fa
:0400340008080000b8
:020000040000fa
:040038007409000047
:020000040000fa
:04003c007409000043
:020000040000fa
:04004000740900003f
:020000040000fa
:04004400740900003b
:020000040000fa
:040048007409000037
:020000040000fa
:04004c007409000033
:020000040000fa
:04005000740900002f
:020000040000fa
:04005400c8070000d9
:020000040000fa
:040058007409000027
:020000040000fa
:04005c007409000023
:020000040000fa
:04006000740900001f
:020000040000fa
:04006400740900001b
:020000040000fa
:040068007409000017
:020000040000fa
:04006c007409000013
:020000040000fa
:04007000740900000f
:020000040000fa
:04007400740900000b
:020000040000fa
:040078007409000007
:020000040000fa
:04007c007409000003
:020000040000fa
:0400800074090000ff
:020000040000fa
:0400840074090000fb
:020000040000fa
:04008800d407000099
:020000040000fa
:04008c0074090000f3
:020000040000fa
:0400900074090000ef
:020000040000fa
:0400940074090000eb
:020000040000fa
:0400980074090000e7
:020000040000fa
:04009c0074090000e3
:020000040000fa
:0400a00074090000df
:020000040000fa
:0400a40074090000db
:020000040000fa
:0400a80074090000d7
:020000040000fa
:0400ac0074090000d3
:020000040000fa
:0400b00074090000cf
:020000040000fa
:0400b40074090000cb
:020000040000fa
:0400b80074090000c7
:020000040000fa
:0400bc0074090000c3
:020000040000fa
:0400c00074090000bf
:020000040000fa
:0400c40074090000bb
:020000040000fa
:0400c80074090000b7
:020000040000fa
:0400cc0074090000b3
:020000040000fa
:0400d00074090000af
:020000040000fa
:0400d40074090000ab
:020000040000fa
:0400d80074090000a7
:020000040000fa
:040108007409000076
:020000040000fa
:04010c007409000072
:020000040000fa
:04011000740900006e
:020000040000fa
:04011400740900006a
:020000040000fa
:040118007409000066
:020000040000fa
:04011c007409000062
:020000040000fa
:04012000740900005e
:020000040000fa
:04012400740900005a
:020000040000fa
:040128007409000056
:020000040000fa
:04012c007409000052
:020000040000fa
:04013000740900004e
:020000040000fa
:04013400740900004a
:020000040000fa
:040138007409000046
:020000040000fa
:04013c007409000042
:020000040000fa
:04014000740900003e
:020000040000fa
:04014400740900003a
:020000040000fa
:040148007409000036
:020000040000fa
:04014c007409000032
:020000040000fa
:04015000740900002e
:020000040000fa
:04015400740900002a
:020000040000fa
:040158007409000026
:020000040000fa
:04015c007409000022
:020000040000fa
:04016000740900001e
:020000040000fa
:04016400740900001a
:020000040000fa
:040168007409000016
:020000040000fa
:04016c007409000012
:020000040000fa
:04017000740900000e
:020000040000fa
:04017400740900000a
:020000040000fa
:040178007409000006
:020000040000fa
:04017c007409000002
:020000040000fa
:0401800074090000fe
:020000040000fa
:0401840074090000fa
:020000040000fa
:0401880074090000f6
:020000040000fa
:04018c0074090000f2
:020000040000fa
:0401900074090000ee
:020000040000fa
:0401940074090000ea
:020000040000fa
:0401980074090000e6
:020000040000fa
:04019c0074090000e2
:020000040000fa
:0401a00074090000de
:020000040000fa
:0401a40074090000da
:020000040000fa
:0401a80074090000d6
:020000040000fa
:0401ac0074090000d2
:020000040000fa
:0401b00074090000ce
:020000040000fa
:0401b40074090000ca
:020000040000fa
:0401b80074090000c6
:020000040000fa
:0401bc0074090000c2
:020000040000fa
:0401c00074090000be
:020000040000fa
:0401c40074090000ba
:020000040000fa
:0401c80074090000b6
:020000040000fa
:0401cc0074090000b2
:020000040000fa
:0401d00074090000ae
:020000040000fa
:0401d40074090000aa
:020000040000fa
:0401d80074090000a6
:020000040000fa
:100e00004fb220000e7f22000e018800000000007b
:100e1000000020000000e00002003200000120007d
:100e20002002880014000700b80107000000e0005d
:100e300003003a00c0db230001002000020037005d
:100e40000000200001002000810f7000010032002e
:100e500014000700000020000000e0000200320043
:100e60000000020000000000362d0200000000001b
:100e70000040da000000fe004440a900803c200051
:100e80000000e0000300320000002000a001880004
:100e90004440a800000006008a1f78008b1f7800dd
:100ea0000000060091018800800478000000eb003b
:100eb0001a003700e284440032a0b4009905ba0059
:100ec000e284440032a0b4009906ba00e2844400ef
:100ed00032a0b4000006eb00476fde00fd07b20051
:100ee000636ce10003003a00ebff07000000eb0039
:100ef0000a003700606ce10004003a00005deb007e
:100f00008b05e900fdff3e00040037006168e10049
:100f1000010032000086eb000b00070019c7ba0081
:100f20001905ba000e04e00003003a000a00e000d0
:100f3000e0ff3a0000000600fe07b2009e018800b4
:100f40008a047800f5ff3700395dba008b05e900a7
:100f50000c003200295dba008b05e9000800320060
:100f60000c00e00003003a00e284440032a0b40028
:100f7000f5ff370019ddba008b05e900faff3a00ea
:100f80008904e800e184440032a0b40000000600b7
:100f90008002f8001408f9008202f8001208f90033
:100fa0008560a900004006003600f800809fbe0062
:100fb000829fbe00849fbe00869fbe001822ab00a9
:100fc000010032001822a900e01080004041880092
:100fd000a1022000810f500006003a008000eb00c3
:100fe000d00320004713070020032000311307001f
:100ff0000000fe008700a9004f03be004f02be00a4
:101000004f01be004f00be003600f9000040060050
:101010003600f800809fbe00829fbe00849fbe0005
:10102000869fbe00889fbe008a9fbe000200fa0015
:1010300050002000ef120700531707002ae8b700fe
:101040002ac8bf00e14f4000080032001648e20005
:1010500006003a00a1822000914078002ae8ef00c3
:101060008100fb00f004200026130700a08d200063
:101070001040780061406000610060004900dd00c0
:10108000f1df2f0012168000828060008100700066
:1010900011168800904080001408b4008000780089
:1010a000002020000100e000130032009140800089
:1010b000a04080009b408000aa408000008050003b
:1010c000cf80de001602070002002000034024004b
:1010d000690207000004be000b004500cf80de005f
:1010e0000f0207000001be000800be00a9010700b2
:1010f000ea0107000020b000f0bf9f0041488000d7
:1011000010002000e28f5000140032006041800087
:10111000ffb99700808f51000500340052488000cd
:101120001000200021052000810f51000b0032002b
:101130000000eb00814080007fb99700810f5100d3
:1011400006003d0050488000c084b20000f0a700b7
:101150000000ea000000e9004f00de00614180006d
:10116000ffb99700818f51000a003c008240800047
:10117000ffb99700828f5100060035000000eb0098
:101180004048880050488800f0cf2f00e822b60081
:101190002d003700424880000200e00007003a00be
:1011a00020408000314080006048880071488800fd
:1011b0002000200040488800230037000000e000a5
:1011c000210032007fb99700828f50000b003d0054
:1011d000e722a9000000000000000000e702a800cc
:1011e000209120001008e800c0c4b30017e8b70041
:1011f000c00420005048880009003700e702a90019
:101200000000000000000000e722a800409120003c
:101210001008e800200520005048880017e8b700b3
:1012200080002000404888001648e20006003a008e
:1012300071812000914078001768ef008100fb0069
:101240000000eb00af12070020408000314080001a
:10125000421f2000030020003b020700e00f500067
:10126000e08f580016003a001648e20014003a00d9
:10127000b04880000000e000030032007fb8970013
:101280008000eb006f16070060418000ffb99700f7
:10129000808f5100030034001100200070042000f2
:1012a0009812070080408000ffb89700808f5000a0
:1012b00003003d002100200070042000911207006f
:1012c0008460a9000080fa004f05be004f04be00f4
:1012d0004f03be004f02be004f01be004f00be00d4
:1012e0003600f900004006000040da000000fe0071
:1012f000889fbe0080047800104980000000e00054
:1013000004003a000e0007000084eb000000e0003b
:1013100008003500184980000900e000050032008f
:1013200009004400060007000000e00001003d0045
:101330000084eb00080078004f04be0000000600a7
:10134000800078000100e00003003a004092200095
:1013500010498800000005000080eb0042b2200028
:10136000828f500002003e00114988000000eb000f
:10137000000006000602ab00feff3a000642ab008a
:10138000fcff3a000662ab00faff3a000682ab00af
:10139000f8ff3a0009c2ab00f6ff3a000000060071
:1013a0000662a8000662ab00feff3a0008c2a90070
:1013b00000108000000006008040780000c0eb00b4
:1013c0008180fb001110880008e2ab0007003a00a2
:1013d00009c2ab00feff3a00e6ff07000040eb0049
:1013e0000802e20001003d00e0cfb300000006006b
:1013f0002110880030108800000006000602a800b6
:10140000000006000642a800000006008460a90053
:10141000e7006000f2ff2800cc08dd00a304800094
:1014200003016100680060000281700071ff2f00fd
:10143000a204880062048000828060008100700045
:101440006104880000000600001020001802b600a9
:101450000000e9004f00de000000060017e2a900ce
:101460008f00a9008f20a9008700a9008720a9006c
:10147000000006008700a900e70060008720a9009f
:101480000001780083ff2f000207b20004058000ee
:101490008481610083817000e8006000030588009a
:1014a000c308de00f3f82f00e1806000040580002f
:1014b00084816100c808dd00830171000008b2006a
:1014c00003058800f2ef2f004700de007304800060
:1014d0000301610061006000028170004900dd00cd
:1014e00072048800f1df2f007404800084806000a3
:1014f000810070007104880000000600f21088006e
:10150000b0108800c110880000000600000005002f
:101510003200f800910188000008bb00410424005b
:101520006210e10004003200000220000010e1001f
:101530000a003a0051042400013b88000500fc0029
:1015400051052000313b8800a10a2000313b880072
:1015500061e7a80000000000000000003200f90070
:10156000000006003200f80060042400003b880000
:10157000f2ff37003200f80091018800410024009a
:10158000013b88000208bb00ecff37003200f80086
:101590009101880051002400013b880003012000d4
:1015a0003218bb008301e900fdff3a00e3ff37007a
:1015b0003200f8009101880080027800620040004b
:1015c0003549ba00e08048003204e0000410a7006a
:1015d000100032008301e9000e0032002549ba00f4
:1015e0003204e0000410a7000a0032008301e90081
:1015f000080032000408a300eeff320015c9ba004b
:101600003204e0000410a700020032008301e90068
:10161000e8ff3a003200f9000000060003f0a200e3
:10162000889fbe008a9fbe008c1f7800fa000700ca
:10163000010133006450e1004f0032006420e100fa
:101640005200320003826c0007003b000905d00005
:101650000306d000820f54000c065d000200390022
:101660000200320089017800030678008582550067
:1016700004003d000003fd008103fd008502ea0037
:101680008b854200840f720002003b006000100056
:10169000e08018006011b8000005eb007a28e10036
:1016a0000a00390006007800c75ddd00f707b200c8
:1016b000878075002d003700828171000a01780053
:1016c000610560008180d1000080d3008502e900bf
:1016d000f9ff3b00060440008784480002003b00fd
:1016e00060041400e0841c000988a3000700320095
:1016f0008a81710082817100610164008904d100d6
:101700000884d3008b05e800170037000978a30090
:1017100013003a000b00e000130034008b05e900d1
:101720000804440089844c000a4474000978a3002a
:101730000d003a000b00e000070034008b05e900c3
:101740000804440089844c0001003a000b0020008a
:101750000978a300f7ff32000001eb000200370018
:10176000828171000a017800700007000cf0a70068
:1017700001f0a000b90037006420e10002003a0047
:10178000838f6c00b90033000801be000200be0068
:10179000b2003700889fbe008a9fbe008c1f780071
:1017a0009d000700a400330003866c006450e10034
:1017b0002e0032006420e100330032006150e1006d
:1017c0002f0032006120e100310032008585550094
:1017d000eb07b000090020000804200005003700d6
:1017e0000804440089844c000a00310006034300c9
:1017f00087834b000001530081815b00f8ff3300b9
:101800000203be000800a0000804440089844c00c4
:10181000f6ff3900c639dd00830173000100320094
:10182000130020008904d1000884d3000998a30084
:10183000050032000800a7000300a0008904d100c1
:101840000884d3008b05e8008904d1000884d30004
:101850000001eb000281d2003400070001f0a1007a
:101860000cf0a70001f0a0007c0037006420e1002c
:101870007e0032000801be000200be00f7ff370004
:101880006120e100790032006000b800f3ff37000a
:101890000000200001f82700f0ff37000001be0023
:1018a000480007000470a70003f0a1006509b1001b
:1018b000160032000d0035006828e10006003500f2
:1018c000f0ff2f00f1ff27000300e00013003b00b2
:1018d0000100280000000500000040008180480051
:1018e0008502e900fcff3a0008003700f88f42004b
:1018f00002003c008000eb00000005008100d100e8
:101900000080d3008502e800fcff3a000300e000fd
:1019100002003b0060001000e0801800000006009c
:101920004f89de00820178008a00370081002000a4
:10193000618055000b003d000b00200061fe2f0070
:101940000100e1001d00340082817100610164002a
:101950008904d1000884d3000000e800faff3a00af
:10196000710020006100640003007000020060004c
:101970000900320061044400e0844c000988a5009d
:10198000050032008b05e8006808e10002003a001b
:101990008904d1000884d300f20f20000258e1002e
:1019a00005003d00c75ddd00f907b20089807500c4
:1019b00008007800000006000bf827008b00780074
:1019c00000000500c70ade00f107b200f50fb20003
:1019d00008003200e1cf4200020032000170a00096
:1019e00024000500810f700001003200040805008a
:1019f00044000500810f700002003a001400050049
:101a00008502e9000000400081c04800fcff3b0067
:101a10000170a000240005000004be00e9ff0700db
:101a20000003be000405be000200be00e5ff070083
:101a3000844f7500000006000200be006450e10003
:101a4000050036006420e100020036000968a300aa
:101a500001003a000800be000160a0004f067800b7
:101a60004f05be004f04be0000000600f0ff2f002f
:101a7000f1ff2700f9ff3700889fbe008a9fbe0054
:101a80008c1f7800e4ff0700ebff330003866c0037
:101a90006450e100240032006420e100270032009d
:101aa0006150e100220032006120e100210032009b
:101ab0008b854200eb07b1000134b800003ab80052
:101ac0000804420089844a00013ab8000030b80096
:101ad0008880400009014a000400330000004000f3
:101ae00081804800020149008b05e900c909dd0039
:101af000830170000100320013002000c814de00d2
:101b00004814dd004709de001200b200c808de00fc
:101b10000884700085ff070001f0a1000cf0a70009
:101b200001f0a000cdff37006120e100cfff3200bf
:101b30000801be000200be00f7ff37006150e1005f
:101b4000fcff3a00c9ff3700410007000400be0057
:101b500000000600881f7800030478000300e000fe
:101b600007003d0060001000e080180060011900cf
:101b7000e081190002003b0001f02d000300370056
:101b80000400070008f0a70001f0a0004f0478004f
:101b900000000600889fbe008a9fbe000082700081
:101ba0000402710004827100260032000004be00ad
:101bb0000200be006011b8006b09200095022000f1
:101bc0000182cf000a0039000541b1000082cf0038
:101bd000070039000541b1000982cf000400390037
:101be0000541b1000882cf00010039000541b10074
:101bf00005425200120032000a003b00828171004f
:101c0000610164008100d1000080d3008984d30089
:101c10000884d3008b05e8000442e800f7ff3a008f
:101c2000070037000804440089844c000000480085
:101c3000818048008b05e9000442e900f9ff3a0081
:101c40003aff07004f05be004f04be00000006002b
:101c50006022b800060220000000d0008180d2007f
:101c60000482d2008582d2000000a000020252004d
:101c700083825a00030031000202420083824a003c
:101c80000000a1000603e900f3ff3a00000006008f
:101c90000000e0002f003200c0017800e38f510007
:101ca0002c0036000308a3002a003a00d148800027
:101cb0000100e00002003200810f500004003100fa
:101cc00011009800d0488800160037008200780084
:101cd000110190000200e00002003200800f51006c
:101ce000faff39001102780084824000850f50000d
:101cf00018003900808f520003003a008308420028
:101d000001007800070037000200e0000300320005
:101d100083014000830f51000e003900120098002b
:101d200090009800900090000100e000090032004f
:101d300010014000828f500006003a00829120007e
:101d40000009eb001001780011084100910090009b
:101d50001100980000000600889fbe000004780073
:101d6000c14880000100e00002003200010078005c
:101d70000d003700d1488000a091200004003700fa
:101d8000910f5400250036000180e800910090007a
:101d90000100e000faff3a0010003700920f5400f3
:101da0001e0036000280e800100178000200e0000a
:101db000faff3a0011017800d1488000a09120007c
:101dc00004003700910f5400140036000180e80031
:101dd00091009000828f5000faff3a00094980007c
:101de000888f5400010031008804780009007800d1
:101df0008e0007000000e00004003a00888f5400c5
:101e0000050032008904d100f5ff37000918780079
:101e10009fff0700d2ff37000000eb004f04be0019
:101e200000000600881f7800630440000800a1003d
:101e30008000eb00800f540021003600e30f5400b7
:101e400001003e004800200008007800c2ff0700a3
:101e50008000eb000000e0001900320090007800e4
:101e60009101780064815100880f51000300310016
:101e70001101900002087800070037000881400037
:101e80000208780091019000130198001001780079
:101e90001109140088087800100178000000eb0098
:101ea0000200e00004003200920190000300e00014
:101eb000010032000280e800c04888008180e8000c
:101ec000010078004f04780000000600889fbe00e3
:101ed000404280000000e0000100320000000100ec
:101ee000504280000000e0000100320000000100cc
:101ef000608420001004e00022003a00e0488000e6
:101f0000f148800088002000d26026009301200064
:101f100050000700f2352f00e3c623000000410007
:101f2000818049000804e900f7ff3a00c8842000d6
:101f30000908200088844400d26026009301200014
:101f400044000700f2352f00e3c6230000004100e3
:101f50008180490000acbe00890f5400f6ff3a00b2
:101f6000e0488800f14888006046800071468000a3
:101f7000604288007142880011c0b3006084200074
:101f800001487800d260260093012000e0488000dc
:101f9000f14880002f000700f2352f00e3c6230030
:101fa0000002410081824900e4488800f548880029
:101fb000c0842000100078007f0160004211dd0025
:101fc00000852000020140001200be00604288002f
:101fd000714288000489be000100780000f0a10071
:101fe0004f04be0000000600889fbe000004780079
:101ff000404280000000e0000100320000000100cb
:10200000608420000048eb00504280000000e000a7
:1020100001003200000001008004eb00e848880065
:10202000f94888004f04be000000060080007800d8
:102030000000eb000100e000050034000100780022
:10204000abfc0700e10f400001003a000000eb008c
:1020500000000600020ab900001bb9000200b80027
:1020600081004200810043000000060080007800eb
:1020700010002000e68f50000b003200f08f50005f
:1020800009003200f18f500007003200e38f50004a
:1020900005003200e580680001f0a7008100ea0039
:1020a0000100e9004f00de00000006001828ef00e4
:1020b0008000780040002000120f07002008ec008c
:1020c000004188001200200051002000d6110700b6
:1020d000000006001828ec00800078006000200056
:1020e000080f07001e08ec00f04088000001eb001c
:1020f00091002000cc110700b04780000000e000f4
:102100000200340080382100071307000000060099
:10211000881f780000047800110020006001200072
:10212000f80e070080488000c1042000810f500095
:1021300009003a0011002000400020009012070022
:1021400010428000f81207008000eb0040002000e1
:102150008b1207000b00370021052000810f500073
:1021600008003a001100200030002000841207000f
:1021700020428000ec1207008000eb0030002000bd
:102180007f1207001828ef008800780070002000f8
:10219000dc0e07001c08ec00e04088000001eb00aa
:1021a00051002000a01107004f0478000000060035
:1021b000e6874700889fbe008a9fbe008c9fbe00b6
:1021c0008e1f780000077800f1b79f0082bf9f0044
:1021d000009120000008eb00f0418000fe0f50004d
:1021e0000400320071032000810f5000cb003a0040
:1021f000570037000028ef000228ef00611ab900ed
:102200000040800011408000800f5200818f5a00f2
:102210000c003600a19020001100780002408000e0
:1022200013408000840f5100858f59000400310055
:102230000000e000f8ff320080488800010037000d
:102240008048880020408000314080004040880065
:1022500051408800804880000000e0002f003a00d4
:102260000e00780081ff07000000e0000a003a003d
:102270001100200050002000a20e07002208ec00f0
:102280001041880012002000910020006611070014
:102290000000eb000a013700100020008dff07004e
:1022a0000aff070002428000110009000200d80066
:1022b0000100e00004003a00609020001000780067
:1022c0006100600005003a000000eb0011032000ef
:1022d00042418000810f5100f9003a0011002000b6
:1022e00060012000870e0700110020004000200040
:1022f000231207001100200080002000810e07003b
:1023000010428000881207008000eb00400020008f
:102310001b1207000000eb00e90037000e007800f8
:1023200052ff07000000e00004003a001000200007
:102330005eff07000000eb00e10037001100200005
:102340001000200072ff07000000eb00dc003700e7
:102350000028ef000228ef00611db9000040800056
:1023600011408000800f5500818f5d0042003600d3
:102370004f1ede00030646000c86d100cfe6de00cd
:102380000001eb00a8902000e6044400004080001b
:1023900011408000800f5600818f5e002d003a00b2
:1023a0000200e0002b003a00c8fe07000242800055
:1023b000110009000200d8000100e00004003a000a
:1023c00061902000910078006180600003003a0075
:1023d000100320002808e3001d003a00110020002f
:1023e00060012000470e07008fb897008000200092
:1023f000440e07000e0078001cff07000000e000fc
:10240000090032001100200040002000dc1107000c
:1024100010428000270e07008000eb0040002000e3
:10242000d7110700080037001100200030002000fd
:10243000d3110700204280001e0e07008000eb0031
:1024400030002000ce11070028a8ef000a00370056
:102450001200200018007800800c780004408000f2
:10246000154080008a0f52008b8f5a000200310005
:102470000000e000c5ff32002040800031408000b5
:1024800040408800514088000e007800f7fe0700a9
:1024900080007800200020000100e00001003200f0
:1024a00010002000824880000200e00005003a0091
:1024b00008ff0700608f20001000a0000000eb0064
:1024c0007f0037000100e0000300320023052000f8
:1024d000830f510005003200c3042000830f510018
:1024e00007003a000100e00005003a00effe070097
:1024f000608f20001000a0000000eb00700037008b
:102500001100200002ff0700608f2000e10f200073
:10251000108860000000eb00690037000028ef0021
:102520000228ef00611db9000040800011408000ca
:102530008a0f50008b8f5800360031004f1ede008e
:10254000030646000c86d100cfe6de008000eb00db
:10255000a8902000e60444000102780000408000ba
:1025600011408000800f5600818f5e0020003a00ed
:102570000400e0001e003a0054fe07000242800002
:10258000110009000200d8000100e00004003a0038
:1025900061902000910078006180600003003a00a3
:1025a000100320002808e30010003a00110020006a
:1025b00060012000d30d07008fb897008000200035
:1025c000d00d070011002000400020006c11070012
:1025d00010428000b70d07008000eb004000200093
:1025e0006711070028a8ef000a0037001400200038
:1025f00018007800800c78000240800013408000b2
:10260000820f5500838f5d00020036000000e0005d
:10261000d2ff3200204080003140800040408800de
:1026200051408800804880000000e00015003a001a
:102630000e0078008dfe0700000478007fb0970040
:102640008afe0700800f54000a003a008fb89700f6
:1026500050002000ab0d07002208ec00104188005c
:1026600012002000910020006f1007005000200091
:10267000130037000fb8970096fe07006000200097
:102680000f0037000e00780078fe07000004780085
:102690007fb0970075fe0700800f540004003a00d9
:1026a0000fb8970081fe07004000200004003700ab
:1026b000110020000fb8970095fe07007000200061
:1026c0004f0778004f06be004f05be004f04be0006
:1026d0006f00b100000006000400fa00889fbe00f1
:1026e0008a9fbe008c9fbe0020032000f04188001e
:1026f0000000eb0090488800a0488800419f2b0014
:1027000020002000bb1007000004780051a02b001f
:1027100070a02b00a71007004006200000c4b900dd
:102720006140b90080bf9f0091bf9f0000408800ba
:10273000114088008005eb008004eb006066b80063
:10274000289120000885e800988f5400220031006d
:1027500000408000114080000fb997009fb997009a
:10276000800f5100818f590015003100e48f560011
:10277000130032001100200060012000610d0700ed
:102780001100200040002000fd1007000028ef008d
:102790000228ef008040eb00f0c0b300bf0f07003d
:1027a000c0c4b3003c0f07000c06e8001200200074
:1027b000210020000c0078001b1007004d002000b5
:1027c000180078000001eb0021002000161007001f
:1027d00098047800230037009a8f550021003100bb
:1027e00000408000114080000fb997009fb997000a
:1027f000800f5100818f590015003100e38f560082
:102800001300320021002000600120003d0d070070
:102810001100200030002000d91007000028ef0030
:102820000228ef008040eb00f0c0b3009b0f0700d0
:1028300020c5b300180f07000c06e80012002000a6
:10284000210020000c007800f70f07003d00200059
:102850001a0078000001eb00a1002000f20f070031
:102860009a057800004080001140800012428000ec
:10287000cf91de00800f5100818f5900030031009d
:102880008000eb0040002000bd10070000408000e9
:102890001140800022428000cf91de00800f510065
:1028a000818f5900030031008000eb0030002000d0
:1028b000b31007004041800011032000810f500039
:1028c0000a003a001100200040002000ac10070070
:1028d00010428000f70c07008000eb004000200051
:1028e000a710070028a8ef0097ff3700210320005a
:1028f000810f500094ff3a001100200030002000aa
:102900009f10070020428000ea0c07008000eb00c7
:10291000300020009a10070028a8ef008aff370037
:1029200011a12b001000200032100700e10f500011
:1029300002003a00d482a80003003700e20f5000e2
:1029400001003a00d4a2a80000000600889fbe0043
:102950008a9fbe00084780000800e000260034007f
:1029600008044400080078002efd0700e0468800b7
:10297000f041800071032000810f500005003200fb
:10298000fe0f5000030032000800780025fd07000c
:10299000f0468800004780000000e0001600340088
:1029a0000004eb007a0320000b8e200091a12b0085
:1029b000200020000f10070088044400e14680003a
:1029c00080b07c00f04180008a0f50000700320088
:1029d000fe0f50000500320071a22b0020002000e5
:1029e00004100700f146800080b07c000804e80075
:1029f0009b0f1400edff3c00384780000800e0000a
:102a000018003400080444000800780005fd0700a1
:102a1000104788000800780002fd07002047880062
:102a20000004eb003aa32b006b8e20008a00780094
:102a300020002000ef0f07008804440011478000a9
:102a400080b07c0021a42b0020002000e90f0700ab
:102a50002147800080b07c000804e8009b0f140030
:102a6000f2ff3c00504780000000e0000f003400ff
:102a700000004000ebfc0700404788000004eb002a
:102a8000f9a42b00aa8e20008900780020002000e5
:102a9000d80f0700880044004247800000b178004a
:102aa0000804e8009a0f1400f7ff3c004f05be0031
:102ab0004f04be0000000600f1a52b00100020000e
:102ac000cc0f0700e20f500008003200e30f500067
:102ad0000a003200e10f500012003a0011002000fd
:102ae00040002000261007000e00370011002000d3
:102af00030002000221007000a00370011002000db
:102b0000400020001e100700000000000000000030
:102b10000000000000000000110020003000200034
:102b20001710070000000600889fbe008a9fbe00a5
:102b30008c9fbe008e1f7800800678000100e000a8
:102b400004003a00e1a62b0010002000a90f0700a6
:102b500080007800e18f500003003a001b428000a3
:102b60004c002000060037008005eb000006eb005b
:102b7000e28f500002003a002b4280003c0020000f
:102b80000d00e000170034000005eb004e1f200090
:102b9000087d20000b0454008b0457001100200016
:102ba0000c007800f60f07000b007800410c0700be
:102bb0008000eb000c007800f10f07008e8f5500ad
:102bc00003003c00090078003a0c070002003700bf
:102bd00008007800370c07000a05e8008a8f5600c5
:102be000eeff3c004f0778004f06be004f05be00c9
:102bf0004f04be0000000600889fbe008a1f7800b8
:102c0000800478000104780002057800ca0e0700ed
:102c1000c10e0700d0a72b00030e07000001eb0038
:102c20006100200009007800ff0e0700120020005c
:102c30006100200008007800fb0e07000800e90092
:102c40006d0c07000984ea00080078008b0c07006f
:102c50000a00e0000b003a00481f20008984ea00c7
:102c600008007800130c0700f0002000830c070018
:102c7000080078000f0c0700090078007f0c07009f
:102c8000f7ff3700080078007c0c0700fdff3700d5
:102c9000ec874700889fbe008a9fbe008c9fbe00c5
:102ca0008e1f780080047800820678000d00e00016
:102cb00077003400708264004422de00e881640002
:102cc000c319de00648164004211de00628064008a
:102cd0000000d100863e2000068bb900cee02f0018
:102ce000060747000005eb00e1006200c908dd00af
:102cf00081bf9f00e1806100c908dd00f1b79f003e
:102d0000e1006100c908dd00e1b79f0061006000db
:102d10004900dd00d0b79f00618064004900dd00fc
:102d2000c0b79f00840e07007b0e0700b0a82b00e1
:102d3000bd0d070011c0b3000040eb00570e0700a7
:102d400010a92b00b80d07000a05e80012002000aa
:102d5000710020000a007800b30e07000001eb00ac
:102d60006100200009007800af0e0700ef8f5400cb
:102d70000400340070865400480020008b002000be
:102d80000300370009067800180020002b002000ff
:102d90008900780030002000da0b07000c00780072
:102da000150c07000880ea00340c0700401f2000c3
:102db000c00b0700e702a800088475000880ea003d
:102dc0002e0c0700f8df2f0031178000010064008f
:102dd0008fb897000080700030178800800c2000aa
:102de000b40b07003117800001006400ffb09700aa
:102df0000080700030178800800c2000ad0b0700a9
:102e00003117800001006400efb09700008070006f
:102e100030178800800c2000a60b070031178000b7
:102e200001006400dfb09700008070003017880058
:102e3000800c20009f0b0700301780000004640006
:102e4000cfb0970008847000381788005000200029
:102e5000980b07000b80ea00080c0700300c2000dc
:102e6000940b0700e722a900f0002000030c0700e4
:102e70008000eb0030002000a20b0700e702a90051
:102e80000e0078008b0b07008a8f5600a5ff3c00d0
:102e90004f0778004f06be004f05be004f04be002e
:102ea000cf00b100000006000200fa00889fbe00bb
:102eb0008a9fbe0081a92b0010002000cd0e0700c4
:102ec00000057800b94721004b0620000a00e00009
:102ed00002003a009040800001003700a0408000ce
:102ee000b0bf9f003fb897003fbc97000981b90071
:102ef000c398de004f80de0080805000700120000b
:102f0000800b070009c0b900c388de004fc0de0097
:102f1000008050000b80b900800054008001200028
:102f2000780b070020032000620b0700e7ff370043
:102f30000200fa00889fbe008a9fbe008c9fbe00e0
:102f4000bc4721004d06200091408000a040800039
:102f50009b408000aa40800000805000cf80de00af
:102f60006ffa07000004be000b004500cf80de00b2
:102f70006bfa07000001be000800be0005fa07005a
:102f80000200200003f82300a5f90700020020003a
:102f900003402400b8fa070040fa070090bf9f00e2
:102fa0001fb897001fbc97000c81b900c398de00c2
:102fb0004f80de008080500070012000510b070020
:102fc0000cc0b900c388de004fc0de000080500096
:102fd0000d80b9008000540080012000490b0700db
:102fe00090012000330b07001fb897008000eb0012
:102ff000140f0700900120002e0b0700d2ff3700ae
:10300000889fbe008a9fbe008c9fbe00f0f32f00f9
:10301000f01688000004eb00f9fb2f00faef2f00f8
:10302000fbff2b00fcff2e00fdff2d000800a2007f
:1030300061006400c600dd000317800003816400a6
:1030400002817000021788000000000000000000ec
:10305000000000004801dd00441680008401650086
:10306000830171004316880000000000000000008a
:10307000000000004901dd00f3df2f00441680004e
:103080008481610083017100431688000000000004
:1030900000000000000000004701dd00f3f72f00f2
:1030a0000417800084816100830171000317880088
:1030b0000000000000000000000000000317800076
:1030c0000381640002817000021788000000000084
:1030d0000000000000000000ce00dd00141680009b
:1030e0000481650002817000121688000000000053
:1030f0000000000000000000cc00dd00a3168000ee
:103100000301660002817000a21688000000000022
:1031100000000000000000004d00dd00a41680004b
:103120008480660081007000a1168800a00f200036
:10313000e00a0700bdff3700889fbe008a1f7800a5
:103140008c9fbe0000067800209120000008eb0054
:1031500060418000a90e0700770d07006e0d070083
:1031600040aa2b00b00c0700803e200000408800e1
:103170000228ef000004eb000005eb00299120007d
:10318000cfe6de00990f54001400310000408000ab
:1031900011408000800f5600818f5e000a003e00c3
:1031a0001100200040002000750e07000028ef00ed
:1031b0000228ef000a05e80012002000c1002000ec
:1031c0000a007800980d0700190478000001eb0050
:1031d000b100200008007800930d07000040800037
:1031e0001140800012428000cf91de00800f51001c
:1031f000818f590003003e008000eb00400020005a
:103200005f0e0700100320002808e300ddff3a00ee
:103210001100200040002000590e070010428000dd
:10322000a40a07008000eb0040002000540e0700b5
:1032300028a8ef00d3ff3700889fbe0060418000c0
:103240006e0e0700804080006c0e0700f1aa2b0074
:1032500010002000e70d070080047800e1ab2b0090
:1032600030002000e30d070000047800080078001b
:10327000620e0700e18f540004003a00c2c0de0075
:103280000000eb00490b070005003700e28f5400f7
:1032900003003a00c2c0de00a0002000430b07007c
:1032a0000000000000000000000000000000eb0033
:1032b000570b07004200dd0060418800a00020009d
:1032c000530b07004200dd00804088004f04be0021
:1032d00000000600889fbe008a1f78000004be0020
:1032e000ef8f54000200340070805400010037005a
:1032f00009007800c00a07000800e900e10f50004b
:1033000002003600e60f540007003a00b0ff2f001d
:10331000ef8f540001003c00e0ff2f00d70a0700a8
:10332000401f2000800e0700e30f54000e003a00fb
:103330000900e00003003c004106200089804000b5
:103340000100370089007800300020006d0a070076
:10335000b0ff2f00ef8f540001003c00e0ff2f0072
:10336000c60a0700a00037000900e00004003a0088
:1033700000302000dc22b700c0ff2f000b00370018
:103380000900780039fb07000000e000020032006d
:10339000db02a80001003700db22a80030ff2f006d
:1033a000ef8f540001003c00c0ff2f00b30a07005c
:1033b0003a052000e40f54001500320004003c00e0
:1033c0000800e900e10f500009003e000a00370044
:1033d000ba002000e60f54000d0032005a0520000c
:1033e0000b003500ca002000e70f5400080032002f
:1033f0000005eb0006003700090078001bfb070002
:10340000aa0020000000e000010032009a00200025
:10341000410620000900e000010032008900780028
:103420000a007800370a07008040eb0030c0b30084
:103430009a0c0700e40f54001a00320005003c000b
:10344000e10f540009003200e20f54002e003a0050
:103450000d003700e60f54001e0032001800350042
:10346000e70f540028003a002100370010c3b300d2
:10347000090c0700c08e200081f32f00108040004f
:10348000290e07002000370020c3b300020c0700fc
:10349000008f200081f32f0010804000220e0700d3
:1034a0001900370030c3b300fb0b0700408f20002a
:1034b00081f32f00108040001b0e07001200370020
:1034c000a08f200081f32f0010804000160e07000f
:1034d0000d00370050c7b300ef0b0700e08e20004f
:1034e00081f32f00108040000f0e07000600370008
:1034f00050c5b300e80b0700208f200081f32f0098
:1035000010804000080e070070ff2f00ef8f54005e
:1035100001003c00d0ff2f00580a0700800c20005b
:10352000010e0700f0002000540a07008000eb00a5
:103530000a007800f30907008040eb0030c0b300b8
:10354000560c0700e40f54001f00320005003c0039
:10355000e10f540008003200e20f540022003a004c
:103560000f003700e60f54001a003200e70f540036
:103570001d003a001a00370040c6b300c60b070012
:1035800060478000713e2000810f500016003e0011
:103590008100e80000805000e30d070012003700b2
:1035a00040c4b300bc0b070080478000713e200080
:1035b000810f50000c003e008100e80000805000a8
:1035c000d90d07000800370020c5b300b20b070073
:1035d0000500370040c6b300af0b070002003700fc
:1035e00040c6b300ac0b0700000000000000000064
:1035f000f0cf2f00dc22b6004f0578004f04be004c
:1036000000000600889fbe008a9fbe00000578006b
:1036100081047800020478000a01780089007800ab
:10362000600020002bff07008040eb0030c0b3009b
:103630001a0c070040c4b300970b07000800e00015
:1036400003003a0080bb2000b70d070028003700b8
:10365000803e2000b40d070080057800ef0f540075
:103660001f00340070005400e3090700b0ff2f0072
:10367000020a0700401f2000ab0d0700808575007f
:103680000a003a000a0178008800780070002000e3
:1036900010ff0700431f2000320020008800780040
:1036a00009007800c2fa070011003700f00020007e
:1036b000f2090700310020004005200091090700b1
:1036c0008040eb0030c0b300f40b070010c4b3001f
:1036d000710b0700c05d2000930d07000400370048
:1036e00008007800c4090700e0ff2f00e0ff370062
:1036f0004f05be004f04be0000000600889fbe00bc
:103700008a9fbe0000047800010578000000eb00ed
:10371000a2478000710c2000810f5100340034005a
:10372000e04780008004eb00e10f50000e00340001
:103730000000e900893e20000980b9007a0d0700e9
:1037400080057800e04780000980b90009832f00d8
:1037500000804400740d070080847500401f200025
:10376000710d07008904700008017800404780004f
:103770009000780030002000d6fe0700401f200097
:10378000690d0700800578008040eb0030c0b30071
:10379000c20b070030488000e10f50000c003c00d5
:1037a0008b8474000a003200f0002000b309070087
:1037b0008a007800400520005209070010c4b300b9
:1037c000350b07002428ec000000eb000800370050
:1037d00020c5b300300b0700080178004047800087
:1037e0009000780040002000bafe07001000200082
:1037f0004f05be004f04be0000000600e4874700ee
:10380000889fbe008a9fbe008c9fbe008e1f7800de
:103810000006be0082bf9f00030778008405780081
:1038200020408000314080004040880051408800a6
:103830002240800033408000823eb0000380b00010
:10384000e88f200098007800803e20000088b900b2
:10385000020240008382480064408800754088006e
:103860008b007800a0032000260907008b00780059
:1038700001f0a7008100ea008100ea00cf08de0025
:10388000100420001f0907008040eb0030c0b30087
:10389000820b070090c4b300ff0a070018057800e8
:1038a000e30f55000e00360064055500c0032000ec
:1038b000800f55000700360008a62e00800478000f
:1038c00008007800180d0700ca03b100890f5500e1
:1038d000fbff3e00803e200000d0b900120d070023
:1038e000c0da2000100d07008000eb00b0032000bc
:1038f000040907000b0178008c00780010002000fc
:1039000074fe0700f0418000fe0f500022003200dc
:1039100071032000810f50001f003200e04780003b
:103920000000e00018003400314780000100e00092
:103930000f003200409c2000fb0c07000e017800b5
:103940008fb897000b0078002eff0700e04780003b
:10395000e70f50000a003600813e20000180b900c8
:10396000020c2e0000004100ef0c0700040037009d
:10397000813e20000180b900803eb100ea0c0700c2
:10398000401f2000e80c07000b0178008d00780034
:10399000200020004ffe0700504780000000e0009c
:1039a00003003200e10f50001d003a000e00370006
:1039b0008040eb0030c0b300380b070020c5b300d7
:1039c000b50a0700833e2000304880000000e00078
:1039d00001003200833eb000120020000c00be0047
:1039e000f3f907000e0037000c0078009ff907007c
:1039f000210020000000e000010032001100200042
:103a00000b0078003dff07000000e00004003200da
:103a100003fa2000220020000c00be00e4f9070099
:103a2000e04080002208b400f14080000104400022
:103a30000141800001044400204180000004440052
:103a400012002000d100200008007800760b07004b
:103a5000e04080002208b4004240a9000d0034007c
:103a6000410620000180b900110009000800d800bb
:103a700031062000810f5000010034000100780061
:103a8000d0408800d1002000e90f500004003c0025
:103a9000020037001a28ef000000eb00e1002000d0
:103aa0000001eb00600b0700f30d07004f077800e3
:103ab0004f06be004f05be004f04be004f00b100d0
:103ac00000000600889fbe00104280004b0c0700db
:103ad00020428000490c0700e1ac2b0010002000c0
:103ae000c40b070080047800e1ad2b0030002000fb
:103af000c00b070000047800080078003f0c0700a6
:103b0000e18f540004003a00880078002000200073
:103b10002609070005003700e28f540003003a0031
:103b200088007800c0002000200907002000200045
:103b30003709070010428800c00020003409070040
:103b4000204288008000eb00d00320006d080700b1
:103b50004f04be0000000600fc874700889fbe009f
:103b60008a9fbe008c9fbe008e1f7800b0b79f005a
:103b7000e1b79f0082b79f003a28ef00904680008f
:103b8000c0b79f001048800000004000a5f8070063
:103b900090b79f0080007800a1b79f00f14180009e
:103ba00030032000570807003fb297004f20de0087
:103bb000040040000080d100d0b79f00d70137003b
:103bc00011002000d00320004e080700d1ae2b00ca
:103bd000e0af2b00770b070012002000110020003f
:103be000d0418000100b07002428ef002228ef00ae
:103bf0002028ef001e28ef001c28ef00bfb297001e
:103c00000500e000b30134006fb097001808e3002e
:103c1000b0013d008000eb00f1b79f0081bf9f0025
:103c20008005eb008004eb008006eb002490200070
:103c3000940078002fb09700180c07002590200002
:103c40001500e0009d0134006fb097001808e300f4
:103c50009a013d001fb797000005eb003e01780078
:103c600002067800f341800060ff2f00f1ff2f0073
:103c700000804100e080480044062000840f50008e
:103c8000e08f58001e013e0000600100a2003700d6
:103c90001b0137001a0137001901370018013700de
:103ca00017013700160137001501370014013700de
:103cb000130137005a0037006b0037006a003700e5
:103cc0000f0137000e0137000d0137000c013700de
:103cd0000b0137000a013700090137009f00370048
:103ce00007013700060137000501370004013700de
:103cf00003013700020137000101370000013700de
:103d0000ff003700fe003700fd003700fc003700e1
:103d1000fb003700fa003700f9003700f8003700e1
:103d2000f7003700f6003700f5003700f4003700e1
:103d3000f3003700f2003700f1003700f0003700e1
:103d400086003700ee003700ed003700ec0037004a
:103d5000eb003700ea003700e9003700e8003700e1
:103d6000e7003700e6003700e5003700e4003700e1
:103d7000e3003700e2003700e1003700e0003700e1
:103d8000df003700de003700dd003700dc003700e1
:103d9000db003700da003700d9003700d8003700e1
:103da000d7003700d6003700d5003700d4003700e1
:103db000d3003700d2003700d1003700d0003700e1
:103dc000cf003700ce003700cd003700cc003700e1
:103dd000cb003700ca003700b8003700a500370015
:103de000c7003700c6003700c5003700c4003700e1
:103df0008e003700c2003700c1003700c000370016
:103e0000bf003700be003700bd003700bc003700e0
:103e1000bb003700ba003700b90037007100370027
:103e20000200e00002003200e20f510003003a00fd
:103e3000e04680009004780002003700e0468000f1
:103e4000900490000201e900e10f510003003e00e0
:103e5000f046800090057800a9003700f046800009
:103e600090059000a60037000208a300030032006e
:103e7000e04680009004780002003700e0468000b1
:103e8000900490000c18a30003003200e04680006c
:103e90009005780002003700e04680009005900011
:103ea000f68f510096003a00224080003340800097
:103eb000823eb0000380b000e58f200095007800be
:103ec000803e20000088b900020240008382480042
:103ed000644088007540880050002000c0af9f00fb
:103ee00080002000d0af9f00c0002000e0af9f0006
:103ef00040012000f0af9f006c0066000000d10080
:103f000085fd2f008f82420065007800c58f20005c
:103f1000800a78007a0037000200e00003003200d7
:103f2000e20f510004003a0011013700e046800022
:103f30009004780003003700e04680009004900071
:103f400003003700f0468000900590006c003700b9
:103f5000f04680009005780069003700618f2000ee
:103f60009100780063806000e30f500003003a0086
:103f7000c0418000e90f500016003400048e20007c
:103f800014007800e20f50000a003a000c00e00034
:103f900002003200e20f560003003a00e0468000c3
:103fa0009004780008003700e046800090049000fc
:103fb00005003700e40f5000030034000201410007
:103fc000e0468000e00479003828ef008005eb002f
:103fd0004b0037000000e800c04188008005eb007e
:103fe000470037000200e00002003200e20f5100fb
:103ff00003003a00e0468000900478000200370099
:10400000e0468000900490000201e900e10f5100b9
:1040100003003e00f046800090057800380037002d
:10402000f046800090059000350037000200e00067
:1040300002003200e20f510003003a00e046800027
:104040009004780005003700c58d20001500780029
:1040500090049000908f540003003a00f0468000d6
:104060009005900026003700f0468000900578000b
:10407000230037000200e00002003200e20f51008e
:1040800003003a00e0468000900478000500370005
:10409000c18d20001100780090049000908f540092
:1040a00003003a00f04680009005900014003700ad
:1040b000f046800090057800110037000200e00013
:1040c00002003200e20f510003003a00e046800097
:1040d0009004780002003700e046800090049000d1
:1040e0000201e900e10f510003003e00f0468000ac
:1040f0009005780002003700f0468000900590009f
:104100008040eb000140780064090700d8d52b00ff
:1041100068c07c00e008070068c07d00de0807007a
:1041200030478000e10f500003003200e20f5000e2
:1041300015003a0007003700104780001000780093
:1041400080bf9f002047800010007800f0b79f00dc
:104150000d0037005df707000008a30004003200df
:10416000104780001000780080bf9f0003003700d8
:10417000104780001000900080bf9f002047800003
:1041800010007800f0b79f008046800021032000d7
:10419000810f50001700320005003c00e10f500075
:1041a0000e003200e20f500036003a0008003700df
:1041b00041032000810f50001a0032001300350027
:1041c000fc804000810f50002e003a001d00370097
:1041d000208d20000008eb002a0037000000eb00d3
:1041e0000d08a300010032004fb0970090468800f0
:1041f0002400370042e6de000c064600e0d82b0023
:1042000060007e00904688001e00370042e6de0017
:104210000c06460060d72b0060007e0090468800a8
:1042200018003700ef0f560003003400a0022000f2
:104230009046880013003700208d20000008eb0016
:104240001000370021f707000008a3000700320024
:104250005fb297000000eb008d0f520001003c00a0
:104260004fb097009046880006003700dfb29700f5
:104270000000eb008d8f5200010034004fb097001a
:104280009046880094468000ffb197000fb99700d0
:104290008b0078000900780058fd07008d06e800c3
:1042a0000a05e80020902000900f1500030034005c
:1042b0006fb097001808e30068fe3500bfb09700a4
:1042c000818f560003003d006fb097001808e3008f
:1042d00056fe35008000eb00d00320008906070061
:1042e000b04880000000e0000c003a008000eb00c5
:1042f000d0408000530a0700f240800040062000b2
:104300000090b900e3408000030141001100090062
:104310000200d800110020004a0a07006fb0970081
:104320001808e30006003d00d04180008000e8004e
:10433000d14188008fb09700810f500020fe3500da
:104340008000eb00e00320006e06070028a8ef00c5
:104350002fb097004ef607004f0778004f06be00bb
:104360004f05be004f04be00cf01b10000000600a3
:10437000e046800090047800e20f5100f1fe320028
:10438000f3fe3700889fbe008a1f780021002000be
:1043900091468800e10f50000d003200810f50005f
:1043a000140032000005eb000000e00021003a009c
:1043b000a88d2000f9b02b000a00a2000a4c78005a
:1043c00089007800100020008a090700faff3700f2
:1043d000a88d200019c0b300094c780050002000bf
:1043e0003d060700004ceb00500020003a06070095
:1043f000f9ff37000004eb00a98d20001ac0b300bc
:104400008a4c78003000200033060700804ceb0017
:1044100010012000300607008800780020002000ee
:10442000380607000804e80020032000800f54002d
:10443000f3ff3a004f0578004f04be00000006006d
:104440000200fa00889fbe008a1f7800b947210049
:104450004a062000c3e2a80000000000000000009f
:1044600000000000d4a2a80000000000000000002e
:1044700000000000d4e2a900200320000d06070080
:10448000c3e2a900000000000000000000000000de
:10449000d4a2a900000000000000000000000000fd
:1044a000d4c2a800000000000000000000000000ce
:1044b000a0408000c0bf9f004fb897004fbc97003e
:1044c0000981b900c398de004f80de008080500073
:1044d000700120000b06070009c0b900c388de0088
:1044e0004fc0de00008050000a80b90080005400f8
:1044f0008001200003060700401f2000ed05070093
:10450000d4c2a9000000000000000000000000006c
:10451000d4e2a800a0408000c0bf9f004fb8970021
:104520004fbc97000981b900c398de004f80de00c0
:104530008080500070012000f205070009c0b9001a
:10454000c388de004fc0de00008050000a80b90042
:104550008000540080012000ea050700401f200071
:10456000d4050700bbff37001600fa00889fbe0085
:104570008a9fbe008c1f7800000478000000eb00ca
:10458000a30607004200dd0060418800a000200073
:104590009f0607004200dd008040880020002000c8
:1045a0009b06070010428800c00020009806070004
:1045b0002042880020408000314080008af60700b9
:1045c000b0fe2f00f1ff2f004fc1de0000004400bd
:1045d0008100490002052000820f5000e08f580042
:1045e00052003e00006001005400370062003700b6
:1045f000630037006700370068003700700037003d
:1046000095003700ba003700bb003700be00370006
:10461000bf00370045003700c2003700eb0037000d
:10462000130137003a013700650137008c0137006c
:10463000b4013700d9013700fc01370021023700ef
:10464000440237005e0237005f02370095023700f0
:10465000ab023700cc023700ef02370033003700df
:10466000030337000403370007033700380337001c
:10467000800337002d0037002c0037002b00370057
:104680002a00370029003700ae033700d703370070
:104690000a04370031043700580437007f0437001c
:1046a000a604370021003700200037001f00370024
:1046b0001e0037001d0037001c0037001b003700ac
:1046c0001a003700190037001800370017003700ac
:1046d00016003700150037001400370013003700ac
:1046e0001200370011003700100037000f003700ac
:1046f0000e0037000d0037000c0037000b003700ac
:104700000a003700090037000800370007003700ab
:1047100006003700050037000400370003003700ab
:104720000200370001003700d10237006400440066
:10473000800f5400ac043500b6043700c1b12b0023
:1047400010002000ab0807008004780031b22b0075
:1047500020002000a708070000047800a1b22b0069
:1047600010002000a30807000001780088007800ee
:104770000900780020f90700cbf90700a5043700ed
:1047800001b32b00100020009a08070000428800a7
:10479000a0043700a8fa07009e043700100020008c
:1047a000b048880011b42b002000200091080700b9
:1047b000410620000180b9005ffa07009504370028
:1047c000e1b42b00f0b42b007a08070081b52b0070
:1047d0001000200087080700a10020000000e00072
:1047e000010032002100200081468800b000200036
:1047f0009046880060062000f041880021b62b001a
:10480000100020007b080700b04788002800200027
:10481000084788004df8070031b72b0008007800e2
:1048200074080700e047880021b82b0008007800d2
:1048300070080700f0478800f1b82b0008007800e6
:104840006c080700000178004101200040012000b1
:10485000c1fc07006f04370000fe2f0000804700f6
:1048600021da2b000a00090031187800eafd2f0038
:104870000f054500ec85570018002000a900200016
:1048800008017800890078005a00780000f90700d4
:104890008b0f5500faff3a00480120001a00200053
:1048a000491f20008a00780040002000b40807005b
:1048b00010428000ff0407008000eb004000200051
:1048c000af08070010428000890f500002003c0032
:1048d00000805400f70407000804e900f1ff3a00e3
:1048e00011c0b300a08d20000148780049043700b2
:1048f00071f80700470437008000eb0040062000f5
:1049000089f80700430437006efc070041043700b4
:10491000f1b92b00100020003608070099fe0700af
:104920003c04370001bb2b0080bb2b002108070093
:10493000290020008946880030062000f0418800c8
:1049400010002000304888000000eb00b0478800cd
:1049500009478800504788004000200031f50700d3
:1049600000047800e8468800400020002df507008c
:10497000f046880061002000010c780071002000e2
:10498000110498005100200001087800c2002000a6
:10499000f046800012009800e1478800a000200047
:1049a000f04788004000200010488800f1b82b0034
:1049b000090078000f08070000017800410120007d
:1049c0004001200064fc070012043700d1bb2b001b
:1049d00080bb2b00f70707002900200089468800cc
:1049e000e0062000f04188000000eb00304888001d
:1049f000b0478800094788005047880040002000e1
:104a000008f5070000047800e84688004000200010
:104a100004f50700f046880061002000010c7800d2
:104a20007100200011049800510020000108780056
:104a3000c2002000f046800012009800e147880084
:104a4000a0002000f04788004000200010488800a7
:104a5000f1b82b0009007800e60707000001780094
:104a600041012000400120003bfc0700e903370022
:104a700061bc2b00f0bc2b00ce07070081b52b00da
:104a800010002000db070700a10020000000e0006c
:104a9000010032002100200081468800b000200083
:104aa0009046880060062000f041880021b62b0067
:104ab00010002000cf070700b0478800400020000a
:104ac00000478800a08e20000008eb009ff7070039
:104ad00031b72b0020002000c6070700e047880000
:104ae00021b82b0020002000c2070700f0478800f3
:104af000f1b82b0020002000be070700000178005d
:104b0000410120008002200013fc0700c103370090
:104b1000f1bd2b0040be2b00a607070081b52b007e
:104b200010002000b3070700110020000000e00083
:104b3000010032002100200081468800b0002000e2
:104b400090468800e0012000f0418800c1be2b00a3
:104b500010002000a70707005047880061bf2b0006
:104b600010002000a307070030488800608f200055
:104b70000008eb00280020000847880073f70700b2
:104b800031b72b00080078009a070700e04788003b
:104b900021b82b000800780096070700f04788002e
:104ba000f1b82b0008007800920707000001780098
:104bb0004101200040012000e7fb0700950337007a
:104bc00001c02b00f0c02b007a07070081b52b0035
:104bd0001000200087070700a10020000000e0006f
:104be000010032002100200081468800b000200032
:104bf0009046880000032000f0418800100020004b
:104c0000304888000000eb0050478800b04788001b
:104c10006000200000478800104888004bf707001c
:104c200031b72b002000200072070700e047880002
:104c300021b82b00200020006e070700f0478800f5
:104c4000f1b82b00200020006a070700000178005f
:104c500041012000c0032000bffb07006d033700a7
:104c600081c12b00f0bc2b005207070081b52b003f
:104c7000100020005f070700a10020000000e000f6
:104c8000010032002100200081468800b000200091
:104c90009046880060062000f041880021b62b0075
:104ca0001000200053070700b04788006000200074
:104cb0000047880010488800a08e20000008eb0004
:104cc00022f7070031b72b0020002000490707001a
:104cd000e047880021b82b0020002000450707008e
:104ce000f0478800f1b82b002000200041070700a2
:104cf0000001780041012000c003200096fb07005e
:104d00004403370001c02b00f0c02b002907070027
:104d100081b52b001000200036070700110020008d
:104d20000000e000010032002100200081468800e0
:104d3000b00020009046880000032000f041880069
:104d40000000eb0050478800b0478800600020005a
:104d50000047880010488800fcf6070031b72b0098
:104d60002000200023070700e047880021b82b001f
:104d7000200020001f070700f0478800f1b82b0033
:104d8000200020001b0707000001780041012000df
:104d9000c003200070fb07001e03370001c02b007a
:104da00010c22b000307070081b52b001000200064
:104db00010070700110020000000e0000100320091
:104dc0002100200081468800b00020009046880025
:104dd00000032000f04188000000eb0050478800ed
:104de000b0478800600020000047880011002000c4
:104df0003147880010488800d4f60700c000200022
:104e0000e047880050002000f0478800f1b82b00f0
:104e100020002000f7060700000178004101200073
:104e2000c00320004cfb0700fa02370001c02b0032
:104e300020c32b00df06070081b52b0010002000e7
:104e4000ec060700110020000000e0000100320025
:104e50002100200081468800b00020009046880094
:104e600000032000f0418800100020003048880036
:104e70000000eb0050478800b04788006000200029
:104e80000047880028002000384788001048880024
:104e9000aef60700c0002000e04788005000200068
:104ea000f0478800f1b82b0008007800d106070011
:104eb0000001780041012000c003200026fb07000c
:104ec000d402370001c02b0020c32b00b906070015
:104ed00081b52b0010002000c6060700110020003d
:104ee0000000e0000100320021002000814688001f
:104ef000b00020009046880000032000f0418800a8
:104f00000000eb0050478800b04788006000200098
:104f10000047880028002000384788001048880093
:104f20008af60700c0002000e047880050002000fb
:104f3000f0478800f1b82b0008007800ad060700a4
:104f40000001780041012000c003200002fb07009f
:104f5000b0023700f1c32b0020002000a506070097
:104f600000047800b1c42b0020002000a106070037
:104f70008004780031c52b00200020009d0607002a
:104f800080057800b1c52b0020002000990607009d
:104f90000005780088844400890f54009d023d007c
:104fa0000b0178008a0078000800780038f70700c5
:104fb0000804e800890f5400f9ff35009502370016
:104fc00057f607009302370001c62b00f0c02b00f4
:104fd0007806070081b52b00100020008506070029
:104fe00030488800110020000000e000010032007d
:104ff0002100200081468800b000200090468800f3
:1050000000032000f04188000000eb0050478800ba
:10501000b047880011c72b0010002000750607005c
:10502000088e2000000c780048f607001800780071
:1050300088022000e40f50000a003200e60f500002
:105040000500320048012000e20f50000500320048
:105050000004eb00030037006000200010488800c7
:10506000c803200031b72b00200020006106070094
:10507000e047880021b82b00200020005d060700d3
:10508000f0478800f1b82b002000200059060700e7
:10509000000178004101200008007800aefa070006
:1050a0005c023700c1c72b00f0c02b00410607008f
:1050b000f00020008046880000032000f0418800b6
:1050c0000000eb0050478800b047880060002000d7
:1050d00000478800104888001cf607008000200068
:1050e000e047880050002000f0478800e2012000df
:1050f00041012000c003200097fa07004502370055
:1051000071c82b0000c92b002a06070081b52b00af
:105110001000200037060700310020000000e000ea
:10512000010032002100200081468800b0002000ec
:1051300090468800d0052000f04188000000eb0078
:10514000b0478800280020000847880038478800ba
:1051500050478800fdf50700a0002000e0478800c8
:10516000f0002000f0478800f1b82b00080078001c
:105170002006070000017800810220004001200085
:1051800075fa07002302370071c82b0000c92b00f5
:105190000806070081b52b00100020001506070047
:1051a000a10020000000e0000100320021002000ea
:1051b00081468800b000200090468800e00520006d
:1051c000f04188008000eb00b147880028002000f3
:1051d00008478800100020003047880051478800a9
:1051e00030488800d9f50700a0002000e04788007b
:1051f000f0002000f0478800f1b82b00080078008c
:10520000fc05070000017800810220004001200019
:1052100051fa0700ff01370031b22b0020002000b7
:10522000f4050700ef0f5000050234007000500035
:10523000f1020700b0ff2f0010030700401f2000fd
:105240009c02070030ff2f000c03070000a62e0071
:105250009802070070ff2f0008030700800c200051
:1052600094020700f000200004030700e901370062
:1052700073fc0700e701370010002000b0488800e9
:1052800015f50700e301370018002000b848880032
:10529000e1b42b00a0c92b00c605070031ca2b00c2
:1052a00008007800d3050700210020000000e0007e
:1052b0000100320011002000814688009002200089
:1052c000f0418800a1ca2b0010002000c90507008a
:1052d00030488800b1cb2b0010002000c505070026
:1052e0000048880021b62b0010002000c1050700ef
:1052f000b0478800280020000847880010002000e0
:105300005047880091f5070031b72b00080078005e
:10531000b8050700e047880021b82b000800780096
:10532000b4050700f0478800f1b82b0008007800aa
:10533000b005070000017800410620004001200070
:1053400005fa0700609120000008eb00b10137006a
:1053500019002000b9488800e1b42b00b0cc2b0024
:10536000940507002800200088468800700320006c
:10537000f0418800a1ca2b00090078009d050700b4
:1053800030488800b1cb2b00090078009905070050
:105390000048880021b62b00090078009505070019
:1053a0000006eb00bc4788000a8e2000080d78003c
:1053b000ea054500890d780031b72b000800780018
:1053c0008c050700e047880021b82b000800780012
:1053d00088050700f0478800f1b82b000800780026
:1053e000840507008004780091cd2b000800780028
:1053f00080050700000478001a00780000004000d3
:1054000088f20700e04688001b007800000040009a
:1054100084f20700404788000c0878000800e0008c
:10542000110034007a0020006b0020000a00780090
:105430000808a30001003a000b007800e146800054
:1054400080087800e146800090009800090178000b
:105450004106200040002000bff907000804e900d1
:105460004240a900f1ff3c00609120000008eb00e1
:1054700068013700e1b42b0090ce2b004d050700ea
:10548000280020008846880070032000f041880032
:105490006900200019488800384888001000200062
:1054a000004888000005eb00ba47880009478800db
:1054b00050478800c00020005af20700800578009d
:1054c000eb4688000800780056f207004047880045
:1054d0000a087800890d780071002000e0468000fd
:1054e0001100980001012000e04680002100980092
:1054f00011012000e04680003100980021012000c9
:10550000e04680004100980031012000e046800024
:1055100051009800e847880080002000f04788008c
:10552000f1b82b0008007800320507000001780070
:10553000810120008001200087f90700ba48880017
:105540003401370001bb2b0060cf2b001905070089
:105550002800200088468800a0002000f041880034
:1055600010002000304888000005eb00ba47880092
:1055700008478800400020002af2070080047800d5
:10558000e94688004000200026f20700f046880027
:10559000880c7800310020009104980008087800f9
:1055a000f0468000110098005a47880031b72b0060
:1055b000080078000f050700e047880021b82b009d
:1055c000080078000b050700f0478800f1b82b00b1
:1055d000080078000705070000017800210320007b
:1055e000c00020005cf907000a013700b1cf2b0092
:1055f00060cf2b00ef0407002800200088468800b9
:1056000040012000f041880001d02b001000200054
:10561000f8040700304888000005eb00ba4788000e
:105620000847880040002000fef107008004780051
:10563000e946880040002000faf10700f0468800a3
:10564000880c780031002000910498000808780048
:10565000f0468000110098005a47880031b72b00af
:1056600008007800e3040700c98f2000800c780050
:1056700021b82b0008007800de040700f0478800fe
:10568000f1b82b0008007800da040700320120008e
:10569000990f110004003400114280000181d100f3
:1056a00081004100114288000001780021032000a0
:1056b000c000200028f90700d6003700d1d02b0009
:1056c000a0d12b00bb0407002b0320008b468800d1
:1056d00050012000f04188000005eb003a488800a6
:1056e000ba478800280020000847880040002000b2
:1056f000ccf1070080047800e946880040002000d3
:10570000c8f10700f0468800880c780031002000be
:105710009104980008087800f04680001100980075
:105720005a478800c0002000e04788008001200020
:10573000f04788008902200019488800f1b82b0042
:1057400008007800ab040700000178008b007800a7
:105750000900780000f90700ae003700d1d02b0017
:1057600030d22b00930407002b0320008b468800c7
:1057700050012000f04188000005eb003a48880005
:10578000ba47880028002000084788004000200011
:10579000a4f1070080047800e9468800400020005a
:1057a000a0f10700f0468800880c78003100200046
:1057b0009104980008087800f046800011009800d5
:1057c0005a478800c0002000e04788008001200080
:1057d000f04788008902200019488800f1b82b00a2
:1057e0000800780083040700000178008b0078002f
:1057f00009007800d8f8070086003700d1d02b00c8
:10580000a0d12b006b0407002b0320008b468800df
:1058100050012000f04188000005eb003a48880064
:10582000ba47880028002000084788004000200070
:105830007cf1070080047800e946880040002000e1
:1058400078f10700f0468800880c780031002000cd
:105850009104980008087800f04680001100980034
:105860005a478800c0002000e047880080012000df
:10587000f04788008902200019488800f1b82b0001
:10588000080078005b040700000178008b007800b6
:1058900009007800b0f807005e003700d1d02b0077
:1058a00030d22b00430407003003200080468800dc
:1058b00050012000f04188000005eb003a488800c4
:1058c000ba478800280020000847880040002000d0
:1058d00054f1070080047800e94688004000200069
:1058e00050f10700f0468800880c78003100200055
:1058f0009104980008087800f04680001100980094
:105900005a47880040012000e047880074004000aa
:10591000f04788000903200019488800f1b82b00df
:1059200008007800330407000001780021032000fc
:105930000900780088f8070036003700d1d02b0026
:10594000f0d22b001b040700400320008046880093
:1059500060012000f04188000005eb003a48880013
:10596000ba4788002800200008478800400020002f
:105970002cf1070080047800e946880040002000f0
:1059800028f10700f0468800880c780031002000dc
:105990009104980008087800f046800011009800f3
:1059a0005a47880040012000e0478800b1c52b001d
:1059b000080078000f040700f047880029902000b5
:1059c00000022000800c7800f1b82b00080078005d
:1059d0000804070000017800210320001900780066
:1059e0005df807000b003700e40544000805780067
:1059f000a8002000890020000801780089007800b4
:105a00000a007800a2f407000a05e8008b0f550091
:105a1000f9ff3a00e04680009df00700f046800064
:105a20009bf007004047800099f007004f06780080
:105a30004f05be004f04be000080fa0000000600c3
:105a4000ed000700e0ff2f000c010700401f2000c1
:105a500098000700c0ff2f000801070000a62e00d5
:105a600094000700d0ff2f00fbfd3700889fbe0089
:105a70003c0007002c01070050000700d30007007e
:105a80007d0107000c0007002ee8b7003203070075
:105a9000d1d32b0060d42b00c603070028d52b00e0
:105aa000290020008800780009007800d103070051
:105ab000adfa0700fbff37002eee07004fee0700a0
:105ac0000602ab00feff3a0085c0a900e0c7b300a4
:105ad00039ee07000802ab00feff3a000100240087
:105ae0002204800002806000fdff320085c0a90012
:105af0000028ef000228ef00020028001403200015
:105b00000500200041108000010061000500320006
:105b10000040800011408000840f5000858f5800a5
:105b2000f8ff360000408000114080001203200082
:105b3000820f5000e08f580005003e0031ee070054
:105b40000642ab00feff3a00e0c7b3000400370096
:105b50002cee07000642ab00feff3a00e0c4b300a3
:105b600000000600f09f230000168800c422ef000a
:105b7000f0c02f0030168800f0302000501688004a
:105b80000080eb0060168800d022ef0001f02000ba
:105b90009116880001002300b1168800d822ef007a
:105ba000dc22ef00f0168800e222ef00f0cf2f0099
:105bb00020178800e822ef00000006000021ef0017
:105bc00080382100100888008460a9008c60a8003b
:105bd00000012800200888000080eb000bee070081
:105be0000028ef000228ef000428ef000628ef004d
:105bf000000006008000eb0002408000134080009f
:105c0000000241008182490004408800154088005c
:105c10002240800033408000000241008182490020
:105c200024408800354088002240800033408000b6
:105c300000202000020160008001eb00c71add0097
:105c40004911de0002817200c919de00e100610025
:105c5000ce08dd00f2ff2b00a316800003016100d7
:105c600002817000a2168800000000000000000001
:105c70002240800033408000020060008000eb0082
:105c8000470add004900de0000007200c908de009e
:105c90004f00dd00f1ff2700a51680008580600021
:105ca00081007000a11688000000000000000000c4
:105cb00000000600cf80de000028ef000228ef0081
:105cc0000240800013408000820f5000838f5800f4
:105cd000fbff3e0000000600889fbe000000e000c1
:105ce0000600320000047800893e20000900780098
:105cf000f0ff07000804e900fcff3a004f04be0073
:105d000000000600889fbe000004be0010c0b30063
:105d100016e8b700cced07000004e000fdff3a00f4
:105d2000f807b200d8108800c7ed07000004e000b3
:105d3000fdff3a000974a0008984fb00d910880097
:105d4000c1ed07000004e000fdff3a001748e20043
:105d50000b0034001a22ef00bbed07000004e00046
:105d6000fdff3a0017c8bf000074a0000080fb00d0
:105d7000d0108800b4ed07000004e000fdff3a00f9
:105d80002a48e2000c003500f0042000d010880002
:105d9000aded07000004e000fdff3a002ac8bf0097
:105da0000074a0000080fb00d0108800a6ed070062
:105db0000004e000fdff3a001768ef002ae8ef005a
:105dc0001668ef004f04be0000000600a3ed0700b8
:105dd00090f12f00a7ed070092012000d175270058
:105de00000f02d00c5ed07008000eb00d00320007f
:105df000c4ff070000000600e1006000e2ff2f0082
:105e0000a31680000301610002817000a2168800c1
:105e10000000000000000000e2006000d2ff2f0040
:105e2000a31680000301610002817000a2168800a1
:105e30000000000000000000e4006000b2ff2f003e
:105e4000a31680000301610002817000a216880081
:105e500000000000000000006800600071ff2f00db
:105e6000a21680008280600081007000a116880068
:105e7000000000000000000000000600e1006000db
:105e8000cc08dd00f2ff2e00a316800003016100a4
:105e900002817000a21688000000000000000000cf
:105ea000e20060008100d100e1806000cd08dd00eb
:105eb000f2ff2d00a3168000030161000281700033
:105ec000a21688000000000000000000e40060004e
:105ed000c208de00e1806000c808dd00f2ef2f009c
:105ee00043168000030161000281700042168800a1
:105ef0000000000000000000680060004300de00b9
:105f0000610060004900dd00f1df2f0042168000d3
:105f1000828060008100700041168800000000004f
:105f20000000000000000600f0ff2300401588007c
:105f300030fc2f00a202b6000020a000101588003f
:105f4000f0cf2f00a222b600a222a900a682a900ab
:105f5000a342a80001002c0051158800a1a2a800ae
:105f6000a022b600000e2000a022b700a022a800a8
:105f7000a042a800f0ff2100a222b600a202a900c0
:105f8000f00fb100a422b700a4e2a90000fc2f008a
:105f9000a402b600f001b300201588008560a800b7
:105fa0008d60a800a1e2a80000000600889fbe0046
:105fb0008a1f78000105780008002f00f9072000eb
:105fc000cf80de00080440008984480022002000c1
:105fd0000800be004eed070001002800023b8000d3
:105fe00002806000fdff3a000a0178000800be0050
:105ff00060ed070001002800023b80000280600085
:10600000fdff3a004f0578004f04be000000060077
:106010000200fa0002002f00f30720004f82de008a
:106020000200400083004a000002eb002300200031
:106030000f81e9005eed07007fb897000080fa004d
:106040000000060040168000610060000000a20011
:10605000c822ab0001003a000080e800c842ab0053
:1060600001003a0064004000c862ab0001003a0041
:1060700068004000000006008104200000222c007f
:10608000dbec070000000600889fbe008a9fbe0070
:1060900000457800814578003008e2003b003a0076
:1060a0002840800039408000880cb0000980b00092
:1060b000b0ec0700d1ec07000602ab00050032008f
:1060c0002040800031408000800f5400818f5c00b0
:1060d000f9ff3e0085c0a9000a407800b6ec070031
:1060e0000802ab00050032002040800031408000f3
:1060f000800f5400818f5c00f9ff3e0002002400f5
:10610000210480000100610005003a002040800069
:1061100031408000800f5400818f5c00f8ff3e000a
:1061200085c0a90002002800411080000100610024
:10613000050032002040800031408000800f540074
:10614000818f5c00f8ff3e000b4078009aec07005e
:10615000acec07000642ab00050032002040800096
:1061600031408000800f5400818f5c00f9ff3e00b9
:106170002040800031408000800f5400818f5c00ff
:1061800002003e0010002000804188004f05be0044
:106190004f04be00000006002283200092407000e1
:1061a0002ec8bf00b8ff070000000600881f780057
:1061b000004478006fec070090ec07000602ab008b
:1061c000feff3a0085c0a900084078000004a00046
:1061d00079ec07000802ab00feff3a000100240042
:1061e0002204800002806000fdff320085c0a9000b
:1061f000010028004210800002806000fdff3a008c
:1062000067ec0700004478007eec07000642ab0014
:10621000feff3a00084078004f04780000000600b6
:106220002ec8bf00e1ff0700000006003268a90089
:10623000fbff0700d8ff0700000006003268a80037
:10624000f7ff0700d4ff0700000006000000e00091
:106250000a0032008000eb00000000000000000097
:10626000000000000000000000000000000000002e
:106270008100e800810f5000f7ff3e00000006009b
:10628000881f780000447800084078000024a100ae
:10629000c1ff070010002000ecff07000840780055
:1062a0000024a000bcff070020032000e7ff070038
:1062b0004f04780000000600881f78000044780032
:1062c000084078000024a000b3ff07001000200061
:1062d000deff0700084078000024a100aeff0700a1
:1062e00020032000d9ff07004f04780000000600bb
:1062f000889fbe00004478000814a0000840780081
:10630000dfff0700c6ff07008044780008407800e0
:10631000e9ff0700094078004f04be0000000600b6
:10632000889fbe008a9fbe00004478000acfb30059
:106330000a40740098ff070049cfb30089447400f5
:1063400009407800eaff070080457800094078009e
:10635000e7ff070080447800084078000024a00090
