:020000040000fa
:080000000007040000000000ed
:020000040000fa
:040008006c0900007f
:020000040000fa
:04000c006c0900007b
:020000040000fa
:040010006c09000077
:020000040000fa
:040014006c09000073
:020000040000fa
:040018006c0900006f
:020000040000fa
:04001c006c0900006b
:020000040000fa
:040020006c09000067
:020000040000fa
:040024006c09000063
:020000040000fa
:040028006c0900005f
:020000040000fa
:04002c006c0900005b
:020000040000fa
:040030006c09000057
:020000040000fa
:04003400c8070000f9
:020000040000fa
:040038006c0900004f
:020000040000fa
:04003c006c0900004b
:020000040000fa
:040040006c09000047
:020000040000fa
:040044006c09000043
:020000040000fa
:040048006c0900003f
:020000040000fa
:04004c006c0900003b
:020000040000fa
:040050006c09000037
:020000040000fa
:040054001a09000085
:020000040000fa
:040058006c0900002f
:020000040000fa
:04005c006c0900002b
:020000040000fa
:040060006c09000027
:020000040000fa
:040064006c09000023
:020000040000fa
:040068006c0900001f
:020000040000fa
:04006c006c0900001b
:020000040000fa
:040070006c09000017
:020000040000fa
:040074006c09000013
:020000040000fa
:040078006c0900000f
:020000040000fa
:04007c006c0900000b
:020000040000fa
:040080006c09000007
:020000040000fa
:040084006c09000003
:020000040000fa
:040088002e0900003d
:020000040000fa
:04008c006c090000fb
:020000040000fa
:040090006c090000f7
:020000040000fa
:040094006c090000f3
:020000040000fa
:040098006c090000ef
:020000040000fa
:04009c006c090000eb
:020000040000fa
:0400a0006c090000e7
:020000040000fa
:0400a4006c090000e3
:020000040000fa
:0400a8006c090000df
:020000040000fa
:0400ac006c090000db
:020000040000fa
:0400b0006c090000d7
:020000040000fa
:0400b4006c090000d3
:020000040000fa
:0400b8006c090000cf
:020000040000fa
:0400bc006c090000cb
:020000040000fa
:0400c0006c090000c7
:020000040000fa
:0400c4006c090000c3
:020000040000fa
:0400c8006c090000bf
:020000040000fa
:0400cc006c090000bb
:020000040000fa
:0400d0006c090000b7
:020000040000fa
:0400d4006c090000b3
:020000040000fa
:0400d8006c090000af
:020000040000fa
:040108006c0900007e
:020000040000fa
:04010c006c0900007a
:020000040000fa
:040110006c09000076
:020000040000fa
:040114006c09000072
:020000040000fa
:040118006c0900006e
:020000040000fa
:04011c006c0900006a
:020000040000fa
:040120006c09000066
:020000040000fa
:040124006c09000062
:020000040000fa
:040128006c0900005e
:020000040000fa
:04012c006c0900005a
:020000040000fa
:040130006c09000056
:020000040000fa
:040134006c09000052
:020000040000fa
:040138006c0900004e
:020000040000fa
:04013c006c0900004a
:020000040000fa
:040140006c09000046
:020000040000fa
:040144006c09000042
:020000040000fa
:040148006c0900003e
:020000040000fa
:04014c006c0900003a
:020000040000fa
:040150006c09000036
:020000040000fa
:040154006c09000032
:020000040000fa
:040158006c0900002e
:020000040000fa
:04015c006c0900002a
:020000040000fa
:040160006c09000026
:020000040000fa
:040164006c09000022
:020000040000fa
:040168006c0900001e
:020000040000fa
:04016c006c0900001a
:020000040000fa
:040170006c09000016
:020000040000fa
:040174006c09000012
:020000040000fa
:040178006c0900000e
:020000040000fa
:04017c006c0900000a
:020000040000fa
:040180006c09000006
:020000040000fa
:040184006c09000002
:020000040000fa
:040188006c090000fe
:020000040000fa
:04018c006c090000fa
:020000040000fa
:040190006c090000f6
:020000040000fa
:040194006c090000f2
:020000040000fa
:040198006c090000ee
:020000040000fa
:04019c006c090000ea
:020000040000fa
:0401a0006c090000e6
:020000040000fa
:0401a4006c090000e2
:020000040000fa
:0401a8006c090000de
:020000040000fa
:0401ac006c090000da
:020000040000fa
:0401b0006c090000d6
:020000040000fa
:0401b4006c090000d2
:020000040000fa
:0401b8006c090000ce
:020000040000fa
:0401bc006c090000ca
:020000040000fa
:0401c0006c090000c6
:020000040000fa
:0401c4006c090000c2
:020000040000fa
:0401c8006c090000be
:020000040000fa
:0401cc006c090000ba
:020000040000fa
:0401d0006c090000b6
:020000040000fa
:0401d4006c090000b2
:020000040000fa
:0401d8006c090000ae
:020000040000fa
:100e00004fb220000e7f22000e018800000000007b
:100e1000000020000000e00002003200000120007d
:100e20002002880014000700b40107000000e00061
:100e300003003a00e07f2400010020000200370098
:100e40000000200001002000810f7000010032002e
:100e500014000700000020000000e0000200320043
:100e600000000200000000002e1002000000000040
:100e70000040da000000fe004440a900003c2000d1
:100e80000000e0000300320000002000a001880004
:100e90004440a800000006008a1f78008b1f7800dd
:100ea0000000060091018800800478000000eb003b
:100eb0001a003700e284440032a0b4009905ba0059
:100ec000e284440032a0b4009906ba00e2844400ef
:100ed00032a0b4000006eb00476fde00fd07b20051
:100ee000636ce10003003a00ebff07000000eb0039
:100ef0000a003700606ce10004003a00005deb007e
:100f00008b05e900fdff3e00040037006168e10049
:100f1000010032000086eb000b00070019c7ba0081
:100f20001905ba000e04e00003003a000a00e000d0
:100f3000e0ff3a0000000600fe07b2009e018800b4
:100f40008a047800f5ff3700395dba008b05e900a7
:100f50000c003200295dba008b05e9000800320060
:100f60000c00e00003003a00e284440032a0b40028
:100f7000f5ff370019ddba008b05e900faff3a00ea
:100f80008904e800e184440032a0b40000000600b7
:100f90003600f800809fbe00829fbe00849fbe0086
:100fa000869fbe00889fbe000400fa00500020000b
:100fb000bc150700201c07002ae8b7002ac8bf009c
:100fc000e14f40000c00320014c8bf000004e000f4
:100fd00009003a00a182200091407800014f78007a
:100fe00000c0eb002ae8b7001e00fb00800078007c
:100ff000f004200030160700a08d2000104078007b
:10100000614060000080fb00610060004900dd007d
:10101000d11680000190a10001007000d016880058
:10102000814080009040800000805000cf80de0032
:10103000370207000004be0081408000904080001d
:1010400000804000cf80de00310207000001be00ba
:101050000800be00cb0107000200200003f82300b7
:101060006b01070002002000034024007e020700fd
:101070000602070000007800100798009e0090000c
:1010800060418000808f50000a003c009e0090006c
:10109000b0408000808f5000060035000000eb005b
:1010a000404888000000eb0050488800e702a90093
:1010b00038003700404880000000e00007003a0098
:1010c00020408000314080006048880071488800de
:1010d00020002000404888002e0037004048800053
:1010e000e20f50002b003a006048800071488000f9
:1010f0006a014000e08148002040800031408000cb
:10110000800f5100818f590022003100e702a800b2
:101110009e00900060418000808f500008003400e5
:10112000904880000000e80090488800c0c4b300e8
:1011300015e8b700c00420005048880007003700b9
:10114000a04880000000e800a0488800200520009a
:101150005048880020c5b30015e8b7008000200083
:101160004048880014c8bf000004e00009003a00ad
:101170005181200091407800114798001568ef00d8
:101180001e4090000000fb00800078000000eb0093
:10119000c91507002040800031408000421f200018
:1011a0000300200064020700e00f5000e08f5800a9
:1011b00017003a0014c8bf000004e00014003a0011
:1011c000b04880000000e000030032001e009000e4
:1011d0008000eb00121b07009e0090006041800021
:1011e000808f5000030034001100200070042000a4
:1011f000b11507009e009000b0408000808f500025
:1012000003003d002100200070042000aa15070003
:101210008460a9000080fa004f04be004f03be00a6
:101220004f02be004f01be004f00be003600f90065
:1012300000400600801f78000000fa0000148000c3
:101240009040880010148000804088008560a900cc
:101250000080fa004f007800004006003600f800d9
:10126000809fbe00829fbe00849fbe00869fbe00fe
:101270000000fa00c0108000620060000000e00082
:10128000010032001822a900e010800040418800cf
:1012900041418000a0022000808f500006003a00eb
:1012a0008000eb00d00320008315070020032000fe
:1012b0004f1507000000fe008700a9000080fa001b
:1012c0004f03be004f02be004f01be004f00be00e4
:1012d0003600f900004006000040da000000fe0081
:1012e000889fbe0080047800104980000000e00064
:1012f00004003a000e0007000084eb000000e0004c
:1013000008003500184980000900e000050032009f
:1013100009004400060007000000e00001003d0055
:101320000084eb00080078004f04be0000000600b7
:10133000800078000100e00003003a0040922000a5
:1013400010498800000005000080eb0042b2200038
:10135000828f500002003e00114988000000eb001f
:10136000000006000602ab00feff3a000642ab009a
:10137000fcff3a000662ab00faff3a000682ab00bf
:10138000f8ff3a0009c2ab00f6ff3a000000060081
:101390000662a8000662ab00feff3a0008c2a90080
:1013a00000108000000006008040780000c0eb00c4
:1013b0008180fb001110880008e2ab0007003a00b2
:1013c00009c2ab00feff3a00e6ff07000040eb0059
:1013d0000802e20001003d00e0cfb300000006007b
:1013e0002110880030108800000006000602a800c6
:1013f000000006000642a800000006008460a90064
:10140000e7006000f2ff2800cc08dd00a3048000a4
:1014100003016100680060000281700071ff2f000d
:10142000a204880062048000828060008100700055
:101430006104880000000600001020001802b600b9
:101440000000e9004f00de000000060017e2a900de
:101450008f00a9008f20a9008700a9008720a9007c
:10146000000006008700a900e70060008720a900af
:101470000001780083ff2f000207b20004058000fe
:101480008481610083817000e800600003058800aa
:10149000c308de00f3f82f00e1806000040580003f
:1014a00084816100c808dd00830171000008b2007a
:1014b00003058800f2ef2f004700de007304800070
:1014c0000301610061006000028170004900dd00dd
:1014d00072048800f1df2f007404800084806000b3
:1014e000810070007104880000000600f21088007e
:1014f000b0108800c1108800000006000000050040
:101500003200f800910188000008bb00410424006b
:101510006210e10004003200000220000010e1002f
:101520000a003a0051042400013b88000500fc0039
:1015300051052000313b8800a10a2000313b880082
:1015400061e7a80000000000000000003200f90080
:10155000000006003200f80060042400003b880010
:10156000f2ff37003200f8009101880041002400aa
:10157000013b88000208bb00ecff37003200f80096
:101580009101880051002400013b880003012000e4
:101590003218bb008301e900fdff3a00e3ff37008a
:1015a0003200f8009101880080027800620040005b
:1015b0003549ba00e08048003204e0000410a7007a
:1015c000100032008301e9000e0032002549ba0004
:1015d0003204e0000410a7000a0032008301e90091
:1015e000080032000408a300eeff320015c9ba005b
:1015f0003204e0000410a700020032008301e90079
:10160000e8ff3a003200f9000000060003f0a200f3
:10161000889fbe008a9fbe008c1f7800fa000700da
:10162000010133006450e1004f0032006420e1000a
:101630005200320003826c0007003b000905d00015
:101640000306d000820f54000c065d000200390032
:101650000200320089017800030678008582550077
:1016600004003d000003fd008103fd008502ea0047
:101670008b854200840f720002003b006000100066
:10168000e08018006011b8000005eb007a28e10046
:101690000a00390006007800c75ddd00f707b200d8
:1016a000878075002d003700828171000a01780063
:1016b000610560008180d1000080d3008502e900cf
:1016c000f9ff3b00060440008784480002003b000d
:1016d00060041400e0841c000988a30007003200a5
:1016e0008a81710082817100610164008904d100e6
:1016f0000884d3008b05e800170037000978a300a1
:1017000013003a000b00e000130034008b05e900e1
:101710000804440089844c000a4474000978a3003a
:101720000d003a000b00e000070034008b05e900d3
:101730000804440089844c0001003a000b0020009a
:101740000978a300f7ff32000001eb000200370028
:10175000828171000a017800700007000cf0a70078
:1017600001f0a000b90037006420e10002003a0057
:10177000838f6c00b90033000801be000200be0078
:10178000b2003700889fbe008a9fbe008c1f780081
:101790009d000700a400330003866c006450e10044
:1017a0002e0032006420e100330032006150e1007d
:1017b0002f0032006120e1003100320085855500a4
:1017c000eb07b000090020000804200005003700e6
:1017d0000804440089844c000a00310006034300d9
:1017e00087834b000001530081815b00f8ff3300c9
:1017f0000203be000800a0000804440089844c00d5
:10180000f6ff3900c639dd008301730001003200a4
:10181000130020008904d1000884d3000998a30094
:10182000050032000800a7000300a0008904d100d1
:101830000884d3008b05e8008904d1000884d30014
:101840000001eb000281d2003400070001f0a1008a
:101850000cf0a70001f0a0007c0037006420e1003c
:101860007e0032000801be000200be00f7ff370014
:101870006120e100790032006000b800f3ff37001a
:101880000000200001f82700f0ff37000001be0033
:10189000480007000470a70003f0a1006509b1002b
:1018a000160032000d0035006828e1000600350002
:1018b000f0ff2f00f1ff27000300e00013003b00c2
:1018c0000100280000000500000040008180480061
:1018d0008502e900fcff3a0008003700f88f42005b
:1018e00002003c008000eb00000005008100d100f8
:1018f0000080d3008502e800fcff3a000300e0000e
:1019000002003b0060001000e080180000000600ac
:101910004f89de00820178008a00370081002000b4
:10192000618055000b003d000b00200061fe2f0080
:101930000100e1001d00340082817100610164003a
:101940008904d1000884d3000000e800faff3a00bf
:10195000710020006100640003007000020060005c
:101960000900320061044400e0844c000988a500ad
:10197000050032008b05e8006808e10002003a002b
:101980008904d1000884d300f20f20000258e1003e
:1019900005003d00c75ddd00f907b20089807500d4
:1019a00008007800000006000bf827008b00780084
:1019b00000000500c70ade00f107b200f50fb20013
:1019c00008003200e1cf4200020032000170a000a6
:1019d00024000500810f700001003200040805009a
:1019e00044000500810f700002003a001400050059
:1019f0008502e9000000400081c04800fcff3b0078
:101a00000170a000240005000004be00e9ff0700eb
:101a10000003be000405be000200be00e5ff070093
:101a2000844f7500000006000200be006450e10013
:101a3000050036006420e100020036000968a300ba
:101a400001003a000800be000160a0004f067800c7
:101a50004f05be004f04be0000000600f0ff2f003f
:101a6000f1ff2700f9ff3700889fbe008a9fbe0064
:101a70008c1f7800e4ff0700ebff330003866c0047
:101a80006450e100240032006420e10027003200ad
:101a90006150e100220032006120e10021003200ab
:101aa0008b854200eb07b1000134b800003ab80062
:101ab0000804420089844a00013ab8000030b800a6
:101ac0008880400009014a00040033000000400003
:101ad00081804800020149008b05e900c909dd0049
:101ae000830170000100320013002000c814de00e2
:101af0004814dd004709de001200b200c808de000d
:101b00000884700085ff070001f0a1000cf0a70019
:101b100001f0a000cdff37006120e100cfff3200cf
:101b20000801be000200be00f7ff37006150e1006f
:101b3000fcff3a00c9ff3700410007000400be0067
:101b400000000600881f7800030478000300e0000e
:101b500007003d0060001000e080180060011900df
:101b6000e081190002003b0001f02d000300370066
:101b70000400070008f0a70001f0a0004f0478005f
:101b800000000600889fbe008a9fbe000082700091
:101b90000402710004827100260032000004be00bd
:101ba0000200be006011b8006b0920009502200001
:101bb0000182cf000a0039000541b1000082cf0048
:101bc000070039000541b1000982cf000400390047
:101bd0000541b1000882cf00010039000541b10084
:101be00005425200120032000a003b00828171005f
:101bf000610164008100d1000080d3008984d3009a
:101c00000884d3008b05e8000442e800f7ff3a009f
:101c1000070037000804440089844c000000480095
:101c2000818048008b05e9000442e900f9ff3a0091
:101c30003aff07004f05be004f04be00000006003b
:101c40006022b800060220000000d0008180d2008f
:101c50000482d2008582d2000000a000020252005d
:101c600083825a00030031000202420083824a004c
:101c70000000a1000603e900f3ff3a00000006009f
:101c80000000e0002f003200c0017800e38f510017
:101c90002c0036000308a3002a003a00d148800037
:101ca0000100e00002003200810f5000040031000a
:101cb00011009800d0488800160037008200780094
:101cc000110190000200e00002003200800f51007c
:101cd000faff39001102780084824000850f50001d
:101ce00018003900808f520003003a008308420038
:101cf00001007800070037000200e0000300320016
:101d000083014000830f51000e003900120098003b
:101d100090009800900090000100e000090032005f
:101d200010014000828f500006003a00829120008e
:101d30000009eb00100178001108410091009000ab
:101d40001100980000000600889fbe000004780083
:101d5000c14880000100e00002003200010078006c
:101d60000d003700d1488000a0912000040037000a
:101d7000910f5400250036000180e800910090008a
:101d80000100e000faff3a0010003700920f540003
:101d90001e0036000280e800100178000200e0001a
:101da000faff3a0011017800d1488000a09120008c
:101db00004003700910f5400140036000180e80041
:101dc00091009000828f5000faff3a00094980008c
:101dd000888f5400010031008804780009007800e1
:101de0008e0007000000e00004003a00888f5400d5
:101df000050032008904d100f5ff3700091878008a
:101e00009fff0700d2ff37000000eb004f04be0029
:101e100000000600881f7800630440000800a1004d
:101e20008000eb00800f540021003600e30f5400c7
:101e300001003e004800200008007800c2ff0700b3
:101e40008000eb000000e0001900320090007800f4
:101e50009101780064815100880f51000300310026
:101e60001101900002087800070037000881400047
:101e70000208780091019000130198001001780089
:101e80001109140088087800100178000000eb00a8
:101e90000200e00004003200920190000300e00024
:101ea000010032000280e800c04888008180e8001c
:101eb000010078004f04780000000600889fbe00f3
:101ec000404280000000e0000100320000000100fc
:101ed000504280000000e0000100320000000100dc
:101ee000608420001004e00022003a00e0488000f6
:101ef000f148800088002000d26026009301200075
:101f000050000700f2352f00e3c623000000410017
:101f1000818049000804e900f7ff3a00c8842000e6
:101f20000908200088844400d26026009301200024
:101f300044000700f2352f00e3c6230000004100f3
:101f40008180490000acbe00890f5400f6ff3a00c2
:101f5000e0488800f14888006046800071468000b3
:101f6000604288007142880011c0b3006084200084
:101f700001487800d260260093012000e0488000ec
:101f8000f14880002f000700f2352f00e3c6230040
:101f90000002410081824900e4488800f548880039
:101fa000c0842000100078007f0160004211dd0035
:101fb00000852000020140001200be00604288003f
:101fc000714288000489be000100780000f0a10081
:101fd0004f04be0000000600889fbe000004780089
:101fe000404280000000e0000100320000000100db
:101ff000608420000048eb00504280000000e000b8
:1020000001003200000001008004eb00e848880075
:10201000f94888004f04be000000060080007800e8
:102020000000eb000100e000050034000100780032
:10203000abfc0700e10f400001003a000000eb009c
:1020400000000600020ab900001bb9000200b80037
:102050008100420081004300000006000000fa00f9
:1020600067110700ce1207007e110700ff1107005d
:1020700045130700201107002ee8b700d113070011
:1020800061452c00f0452c0064160700b1462c0079
:102090002000200071160700f5000700fbff370045
:1020a0000200fa0061472c00100020006b160700a8
:1020b000000f78001e007800e10f500002003a0087
:1020c000d482a800040037001e007800e20f500000
:1020d00001003a00d4a2a8000080fa000000060027
:1020e0000200fa00000f78001e007800e60f500092
:1020f0000c0032001e007800f00f50000900320082
:102100001e007800f10f5000060032001e0078001b
:10211000e30f5000030032001e007800e50f50006e
:1021200002003a0010002000010037000000eb0020
:102130000080fa00000006000400fa00004780005a
:102140000000e00031003400004780000000400043
:1021500030ff0700e0468800f14180007003200056
:10216000808f500007003200f0418000fe0f5000c9
:1021700004003200004780000000400025ff0700f7
:10218000f04688000000eb00000f78001c003700cc
:10219000e1472c00200020003016070010079800af
:1021a000e14680001e0078000000400000804000f2
:1021b0009e00900001087800f1418000700320002b
:1021c000808f50000d003200f0418000fe0f500063
:1021d0000a003200c1482c00200020001f16070012
:1021e00010079800f14680001e00780000004000b3
:1021f000008040009e009000010878001e0fe8005b
:10220000004780009e0f5000e1ff3c0030478000f7
:102210000000e00023003400304780000000400050
:10222000fcfe070010478800304780000000400097
:10223000f8fe0700204788000000eb00000f780040
:102240001500370081492c002000200003160700ec
:1022500010079800114780001e0078000000400021
:10226000008040009e00900001087800714a2c0018
:1022700020002000f9150700100798002147800072
:102280001e00780000004000008040009e0090008a
:10229000010878001e0fe800304780009e0f5000b4
:1022a000e8ff3c00504780000000e00015003400cb
:1022b0005047800000004000d6fe070040478800dd
:1022c0000000eb00000f78000b003700414b2c00a2
:1022d00020002000e115070010079800414780000a
:1022e0001e00780000004000008040009e0090002a
:1022f000010878001e0fe800504780009e0f500034
:10230000f2ff3c000080fa00000006000200fa0024
:10231000414c2c0010002000d0150700000f780061
:102320001e007800e20f500008003200e30f50005a
:102330000a003200e10f500013003a0011002000a3
:1023400040002000641607000f0037001100200035
:1023500030002000601607000b003700110020003d
:10236000400020005c160700000000000000000094
:1023700000000000000000001100200030002000dc
:1023800055160700000000000080fa00000006005b
:102390000a00fa0030079800410798004e009000ac
:1023a0000000e00004003a00314d2c001000200035
:1023b000aa150700400798004e009000e10f50005a
:1023c00005003a00400020001007980011428000ec
:1023d00021079800070037004e009000e20f5000e0
:1023e00004003a00300020001007980021428000cd
:1023f000210798000000eb00000f7800160037005e
:10240000110020001e009000331607002e009000df
:10241000f71007008000eb001e0090002e1607004a
:10242000ae009000401f2000808f500005003c004f
:10243000411f20002e00900000805000ec1007008b
:1024400004003700017d20002e0090000080500025
:10245000e71007001e0fe8003e0090009e00780085
:10246000808f5000e6ff35000080fa000000060073
:102470008000fa00703f98000000eb001712070080
:102480004200dd0060418800a00020001312070018
:102490004200dd00b0408800200020000f1207003d
:1024a00010428800c00020000c1207002042880063
:1024b000204080003140800000007800c6fe070008
:1024c0007e3890006101b900b0fe2f00f1ff2f00af
:1024d0000200400083804800020520000300200025
:1024e000820f5000838f5800ea053e000060010013
:1024f000500037005f00370060003700640037008d
:10250000650037007000370099003700c6003700bb
:10251000c7003700ca003700cb003700dd053700a1
:10252000ce00370001013700340137005f0137006a
:102530008e013700bb013700e80137001302370076
:102540003c0237006702370090023700b0023700c4
:10255000b1023700f20237000c03370033033700b3
:102560005c033700cb053700840337008503370051
:1025700088033700b403370006043700c505370069
:10258000c4053700c3053700c2053700c105370051
:102590004404370079043700b8043700eb043700ef
:1025a0001e0537005105370084053700b90537008f
:1025b000b8053700b7053700b6053700b505370051
:1025c000b4053700b3053700b2053700b105370051
:1025d000b0053700af053700ae053700ad05370051
:1025e000ac053700ab053700aa053700a905370051
:1025f000a8053700a7053700a6053700a505370051
:10260000a4053700a3053700a2053700a105370050
:10261000a00537009f0537009e0537009d05370050
:102620009c0537009b0537009a0537009905370050
:1026300052033700214e2c00100020000715070020
:1026400050079800914e2c00200020000315070031
:1026500060079800014f2c0010002000ff140700b5
:10266000700798007e019000ee0090005e009000e0
:10267000a00507007f06070096053700614f2c0074
:1026800010002000f5140700004288009105370073
:10269000380807008f05370010002000b048880078
:1026a00071502c0020002000ec140700000f98004f
:1026b0008e089000400620000088b90000007800d5
:1026c000390707008305370041512c0050512c0079
:1026d000d2140700e1512c0010002000df14070085
:1026e000100f98001e0890000000e0000200320069
:1026f0002000200001003700a00020008046880054
:10270000b00020009046880060062000f04188005c
:1027100081522c0010002000d0140700b047880020
:10272000200020000047880083fe070091532c0002
:1027300020002000c9140700e047880081542c00c5
:1027400020002000c5140700f047880051552c00d8
:1027500020002000c1140700200f98002e099000cf
:1027600041012000400120005a0c070059053700a4
:102770008106200081004700427e2c000a000900eb
:10278000b21878000000eb00000f78000800370056
:102790001e0078000000400000004700403090001c
:1027a00012002000a1002000730507001e0fe800a2
:1027b0001e007800ea0f5000f5ff36000000eb0025
:1027c000000f7800110037001100200040002000a9
:1027d0004115070010428000051007008000eb0043
:1027e000400020003c15070011428000401f2000df
:1027f000808f500004003c0010428000411f2000e8
:1028000000805000fa0f07001e0fe8001e0078003d
:10281000f30f5000ecff3400a08d200011c0b30076
:10282000014878002b053700b8fe0700290537005e
:102830008000eb0040062000d5fe0700250537008c
:10284000fd0b07002305370051562c001000200017
:10285000821407009b0e07001e05370061572c00ed
:10286000e0572c006d1407002000200080468800ef
:1028700030062000f0418800100020003048880019
:102880000000eb00b04788002000200000478800cf
:102890000000eb0050478800004780000000400027
:1028a0005cfd0700e0468800004780000000400013
:1028b00058fd0700f0468800e046800061002000d7
:1028c00001087800e04680000080e80071002000e8
:1028d00001087800f04680005100200001087800cf
:1028e000f04680000080e800c10020000108780068
:1028f00050002000e0478800a0002000f04788003a
:10290000400020001048880051552c002000200075
:1029100052140700300f98003e099000410120003a
:1029200040012000eb0b0700ea04370031582c006f
:10293000e0572c0039140700200020008046880052
:10294000e0062000f04188000000eb0030488800dd
:102950000000eb00b04788002000200000478800fe
:102960000000eb0050478800004780000000400056
:1029700028fd0700e0468800004780000000400076
:1029800024fd0700f0468800e0468000610020003a
:1029900001087800e04680000080e8007100200017
:1029a00001087800f04680005100200001087800fe
:1029b000f04680000080e800c10020000108780097
:1029c00050002000e0478800a0002000f047880069
:1029d000400020001048880051552c0020002000a5
:1029e0001e140700400f98004e099000410120007e
:1029f00040012000b70b0700b6043700c1582c0077
:102a000050592c0005140700e1512c001000200043
:102a100012140700500f98005e0890000000e000bc
:102a2000020032002000200001003700a00020003a
:102a300080468800b0002000904688006006200094
:102a4000f041880081522c00100020000314070080
:102a5000b047880040002000004788000000eb00dd
:102a600050478800b4fd070091532c00200020003f
:102a7000fa130700e047880081542c002000200052
:102a8000f6130700f047880051552c002000200065
:102a9000f2130700600f98006e09900041012000ba
:102aa000800220008b0b07008a043700515a2c004b
:102ab000a05a2c00d9130700e1512c00100020006f
:102ac000e6130700700f98007e0890000000e000f9
:102ad000020032002000200001003700100020001a
:102ae00080468800b000200090468800e001200069
:102af000f0418800215b2c0010002000d713070054
:102b000050478800c15b2c0010002000d313070041
:102b1000304888000000eb00b0478800200020000b
:102b20000047880084fd070091532c0020002000fe
:102b3000ca130700e047880081542c0020002000c1
:102b4000c6130700f047880051552c0020002000d4
:102b5000c2130700001798000e11900041012000d9
:102b6000400120005b0b07005a043700615c2c0019
:102b7000505d2c00a9130700e1512c00100020002b
:102b8000b6130700101798001e1090000000e00018
:102b9000020032002000200001003700a0002000c9
:102ba00080468800b0002000904688000003200086
:102bb000f041880010002000304888000000eb0041
:102bc000504788000000eb00b047880060002000fc
:102bd00000478800600020001048880056fd07006c
:102be00091532c00200020009c130700e047880030
:102bf00081542c002000200098130700f047880023
:102c000051552c0020002000941307002017980035
:102c10002e11900041012000c00320002d0b070061
:102c20002c043700e15d2c0050592c007b13070069
:102c3000e1512c0010002000881307003017980085
:102c40003e1090000000e000020032002000200052
:102c500001003700a000200080468800b00020005e
:102c60009046880060062000f041880081522c00c8
:102c70001000200079130700b04788006000200092
:102c80000047880060002000104888000000eb002a
:102c90005047880028fd070091532c002000200099
:102ca0006e130700e047880081542c0020002000ac
:102cb0006a130700f047880051552c0020002000bf
:102cc00066130700401798004e1190004101200044
:102cd000c0032000ff0a0700fe033700615c2c00e0
:102ce000505d2c004d130700e1512c001000200016
:102cf0005a130700501798005e1090000000e00083
:102d000002003200200020000100370010002000e7
:102d100080468800b0002000904688000003200014
:102d2000f04188000000eb00504788000000eb00f5
:102d3000b047880060002000004788006000200045
:102d400010488800fcfc070091532c002000200054
:102d500042130700e047880081542c002000200027
:102d60003e130700f047880051552c00200020003a
:102d70003a130700601798006e119000410120007f
:102d8000c0032000d30a0700d2033700615c2c0087
:102d9000705e2c0021130700e1512c001000200070
:102da0002e130700701798007e1090000000e000be
:102db0000200320020002000010037001000200037
:102dc00080468800b0002000904688000003200064
:102dd000f04188000000eb00504788000000eb0045
:102de000b0478800600020000047880010002000e5
:102df000304788006000200010488800cefc0700a3
:102e0000c0002000e047880050002000f047880004
:102e100051552c002000200010130700001f9800bf
:102e20000e19900041012000c0032000a90a0700ec
:102e3000a8033700615c2c00805f2c00f7120700ac
:102e4000e1512c001000200004130700101f98000f
:102e50001e1890000000e000020032002000200058
:102e6000010037001000200080468800b0002000dc
:102e70009046880000032000f041880010002000e8
:102e8000304888000000eb00504788000000eb004d
:102e9000b047880060002000004788002000200024
:102ea000304788006000200010488800a2fc07001e
:102eb000c0002000e047880050002000f047880054
:102ec00051552c0020002000e4120700201f98001c
:102ed0002e19900041012000c00320007d0a070048
:102ee0007c033700615c2c00805f2c00cb12070054
:102ef000e1512c0010002000d8120700301f98006c
:102f00003e1890000000e000020032002000200087
:102f1000010037001000200080468800b00020002b
:102f20009046880000032000f04188000000eb007c
:102f3000504788000000eb00b04788006000200088
:102f400000478800200020003047880060002000f3
:102f50001048880078fc0700c0002000e047880087
:102f600050002000f047880051552c002000200020
:102f7000ba120700401f98004e199000410120002e
:102f8000c0032000530a07005203370051602c0091
:102f900020002000b1120700501f980011612c0082
:102fa00020002000ad120700601f980091612c00e6
:102fb00020002000a9120700701f980011622c0049
:102fc00020002000a512070000279800de189000be
:102fd00011079800070037007e1990008e2090009e
:102fe0001e009000640307001e0090000000e8002f
:102ff00010079800de1890006e1890008080400046
:103000001e009000808f5000f3ff3c00310337001a
:1030100023fc07002f03370061622c00505d2c0059
:103020007e120700e1512c00100020008b120700d7
:10303000102798001e219000324888001e20900022
:103040000000e000020032002000200001003700f4
:103050001000200080468800b000200090468800c4
:1030600000032000f04188000000eb00504788007a
:103070000000eb00b047880071632c0010002000b6
:1030800076120700004788002bfc07000000eb00c9
:103090002007980000478000e40f5000070032002e
:1030a000e60f500008003200e20f50000b003a001b
:1030b000400120002007980008003700800220000f
:1030c00020079800050037006000200010488800a5
:1030d000c0032000200798000000000091532c003e
:1030e000200020005d120700e047880081542c007a
:1030f0002000200059120700f047880051552c008d
:103100002000200055120700202798002e21900053
:10311000410120002e009000ee090700ed0237006b
:1031200021642c00505d2c003c120700f0002000b0
:103130008046880000032000f04188000000eb007a
:10314000504788000000eb00b04788006000200076
:10315000004788006000200010488800f6fb070048
:1031600080002000e047880050002000f0478800e1
:10317000e0012000302798003e219000410120000e
:10318000c0032000d3090700d2023700d1642c000d
:1031900060652c0021120700e1512c001000200076
:1031a0002e120700402798004e2090000000e000fb
:1031b0000200320020002000010037003000200013
:1031c00080468800b000200090468800d00520008e
:1031d000f04188000000eb00b0478800200020008c
:1031e0000047880020002000304788000000eb00e6
:1031f00050478800d0fb0700a0002000e04788006f
:10320000f0002000f047880051552c0020002000dd
:1032100012120700502798005e21900081022000c2
:1032200040012000ab090700aa023700d1642c003e
:1032300060652c00f9110700e1512c0010002000fe
:1032400006120700602798006e2090000000e00042
:10325000020032002000200001003700a000200002
:1032600080468800b000200090468800e0052000dd
:10327000f04188000000eb00b047880020002000eb
:103280000047880010002000304788000000eb0055
:10329000504788001000200030488800a6fb070037
:1032a000a0002000e0478800f0002000f0478800e0
:1032b00051552c0020002000e811070070279800cd
:1032c0007e2190008102200040012000810907003a
:1032d00080023700914e2c0020002000df110700f3
:1032e000002f98000e289000ef0f500003003400cc
:1032f0000e28900070005000010037000e2890004a
:10330000b00d07000e289000ef0f500002003c00a7
:10331000e0ff2f0001003700b0ff2f00e40d070091
:10332000401f2000320d07000e289000ef0f5000c4
:1033300002003c00c0ff2f000100370030ff2f00cb
:10334000db0d070000a62e00290d07000e289000b7
:10335000ef0f500002003c00d0ff2f0001003700ab
:1033600070ff2f00d20d0700800c2000200d0700f9
:10337000f0002000ce0d0700560237000a0c0700af
:103380005402370010002000b04888004e040700a7
:103390005002370010002000b048880041512c0036
:1033a00000662c009d110700200020008046880048
:1033b00070032000f041880091662c00100020006e
:1033c000a611070030488800a1672c0010002000db
:1033d000a21107000048880081522c001000200034
:1033e0009e110700b0478800200020000047880099
:1033f00010002000504788004ffb070091532c001d
:103400002000200095110700e047880081542c001f
:103410002000200091110700f047880051552c0032
:10342000200020008d110700102f98001e29900009
:103430004106200040012000260907000000eb00a3
:10344000b04888002302370010002000b0488800f0
:1034500041512c00a0682c007011070020002000b2
:103460008046880070032000f041880091662c009f
:10347000100020007911070030488800a1672c0057
:1034800010002000751107000048880081522c00b0
:103490001000200071110700b04788000000eb0009
:1034a000b04788002000200000478800100020005e
:1034b0005047880091532c0020002000671107001e
:1034c000e047880081542c00200020006311070091
:1034d000f047880051552c00200020005f110700a4
:1034e000202f980081692c00200020005b1107002c
:1034f00030079800004780000000400045fa0700b0
:10350000e0468800504780000000400041fa070074
:1035100040478800404780008000eb0001087800a9
:10352000160037003e009000610060000000e000df
:1035300002003a0060002000010037007000200007
:10354000302f9800e0468000be28900001087800e7
:10355000e04680000080e8003e29900002087800e4
:103560002e2990004106200040002000d9080700c5
:103570003e0090000000e900300798003e009000f7
:103580000000e000e7ff3c000000eb00b0488800ce
:10359000d001370041512c00806a2c001f11070018
:1035a000200020008046880070032000f041880041
:1035b000600020001048880020002000304888006b
:1035c00010002000004888000000eb00b047880091
:1035d000600020000047880010002000504788004d
:1035e00000478000000040000afa0700e04688001b
:1035f000504780000000400006fa0700404788005e
:10360000404780008000eb0001087800e046800021
:103610006100200001087800e04680000080e8009a
:103620007100200001087800e0468000640040003e
:103630000101200001087800e0468000660040009b
:103640001101200001087800e04680006800400079
:103650002101200001087800e04680006a00400057
:10366000310120000108780020002000e047880098
:1036700080002000f047880051552c0020002000d9
:10368000f6100700402f98004e299000810120007d
:10369000800120008f0807000000eb00b048880080
:1036a0008c01370061572c00506b2c00db10070099
:1036b0002000200080468800a0002000f041880003
:1036c00010002000304888000000eb00b047880060
:1036d00020002000004788000047800000004000d4
:1036e000ccf90700e0468800004780000000400059
:1036f000c8f90700f0468800e0468000210020005d
:1037000001087800e04680000080e80031002000d9
:1037100001087800f04680002100200001087800b0
:10372000f04680000080e8003100200001087800a9
:103730000000eb005047880091532c00200020002f
:10374000c6100700e047880081542c0020002000ac
:10375000c2100700f047880051552c0020002000bf
:10376000be100700502f98005e2990002103200012
:10377000c00020005708070056013700a16b2c003d
:10378000506b2c00a5100700200020008046880008
:1037900040012000f0418800f16b2c001000200057
:1037a000ae100700304888000000eb00b0478800ea
:1037b00020002000004788000047800000004000f3
:1037c00094f90700e04688000047800000004000b0
:1037d00090f90700f0468800e046800021002000b4
:1037e00001087800e04680000080e80031002000f9
:1037f00001087800f04680002100200001087800d0
:10380000f04680000080e8003100200001087800c8
:103810000000eb005047880091532c00200020004e
:103820008e100700e047880081542c002000200003
:103830008a100700f047880051552c002000200016
:1038400086100700602f9800e0478000f30f5000bb
:1038500005003400104280008080d10010428000ba
:1038600000804000104288006e2990002103200053
:10387000c00020001708070016013700c16c2c009b
:10388000906d2c0065100700200320008046880002
:1038900050012000f04188000000eb003048880013
:1038a0000000eb00b047880020002000004788009f
:1038b000004780000000400056f90700e0468800fd
:1038c000004780000000400052f90700f0468800e1
:1038d000e04680002100200001087800e0468000da
:1038e0000080e8003100200001087800f0468000e8
:1038f0002100200001087800f04680000080e800e8
:1039000031002000010878000000eb0050478800db
:10391000c0002000e047880080012000f0478800b8
:10392000800220001048880051552c002000200003
:103930004a100700702f98007e2990002103200074
:1039400080022000e3070700e2003700c16c2c0072
:10395000206e2c00311007002003200080468800d4
:1039600050012000f04188000000eb003048880042
:103970000000eb00b04788002000200000478800ce
:10398000004780000000400022f90700e046880060
:1039900000478000000040001ef90700f046880044
:1039a000e04680002100200001087800e046800009
:1039b0000080e8003100200001087800f046800017
:1039c0002100200001087800f04680000080e80017
:1039d00031002000010878000000eb00504788000b
:1039e000c0002000e047880080012000f0478800e8
:1039f000800220001048880051552c002000200033
:103a000016100700003798000e31900021032000a7
:103a100080022000af070700ae003700c16c2c0009
:103a2000906d2c00fd0f07002003200080468800c9
:103a300050012000f04188000000eb003048880071
:103a40000000eb00b04788002000200000478800fd
:103a50000047800000004000eef80700e0468800c4
:103a60000047800000004000eaf80700f0468800a8
:103a7000e04680002100200001087800e046800038
:103a80000080e8003100200001087800f046800046
:103a90002100200001087800f04680000080e80046
:103aa00031002000010878000000eb00504788003a
:103ab000c0002000e047880080012000f047880017
:103ac000800220001048880051552c002000200062
:103ad000e20f0700103798001e31900021032000ec
:103ae000800220007b0707007a003700c16c2c00a1
:103af000206e2c00c90f070030032000804688008c
:103b000050012000f04188000000eb0030488800a0
:103b10000000eb00b047880020002000004788002c
:103b20000047800000004000baf80700e046880027
:103b30000047800000004000b6f80700f04688000b
:103b4000e04680002100200001087800e046800067
:103b50000080e8003100200001087800f046800075
:103b60002100200001087800f04680000080e80075
:103b700031002000010878000000eb005047880069
:103b800040012000e047880080022000f0478800c4
:103b9000000320001048880051552c002000200010
:103ba000ae0f0700203798002e319000210320002f
:103bb000000320004707070046003700c16c2c00b7
:103bc000e06e2c00950f070040032000804688001f
:103bd00060012000f04188000000eb0030488800c0
:103be0000000eb00b047880020002000004788005c
:103bf000004780000000400086f80700e04688008b
:103c0000004780000000400082f80700f04688006e
:103c1000e04680002100200001087800e046800096
:103c20000080e8003100200001087800f0468000a4
:103c30002100200001087800f04680000080e800a4
:103c400031002000010878000000eb005047880098
:103c500040012000e047880011622c002000200075
:103c60007e0f0700f04788000002200010488800ff
:103c700051552c0020002000780f070030379800a5
:103c8000104880003e3190002103200011070700fa
:103c900010003700fe3890004107980007003700f9
:103ca000a2002000810020004e009000320007009a
:103cb0004e0090000000e800400798007e38900019
:103cc000e40040004e009000808f5000f4ff3c0064
:103cd00000000000e0468000e9f70700f0468000a1
:103ce000e7f7070040478000e5f707000080fa008b
:103cf000000006000600fa00000f78001107980087
:103d000022079800150d07001e0d0700c06f2c003c
:103d1000ec0c07000001eb00610020001e007800a1
:103d2000a50e070012002000610020001e00900078
:103d3000a10e07001e0090000000e900210b070003
:103d400001003700000000001e80ea00580b070049
:103d50002e0090000000e000faff3a00401f200013
:103d6000a30a0700f0002000510b0700401f2000ad
:103d70009f0a0700f4ff37001400fa00700798004c
:103d8000010f9800120f9800401f200010079800a4
:103d9000803e200020079800300c2000300798005b
:103da0000000eb00000f7800ac003700eb0c0700c0
:103db000f40c0700a0702c00c20c070011c0b30067
:103dc0000040eb00f90c070000712c00bd0c07004f
:103dd0001e00e8001200200071002000760e07008f
:103de0000001eb00610020007e009000720e0700d1
:103df0007e009000ef0f5000030034007e00900022
:103e000070005000010037007e00900040079800cd
:103e10007e009000ef0f500002003c0010002000d8
:103e20000100370040002000500798007e009000fd
:103e3000ef0f500002003c0020002000010037007e
:103e40008000200060079800fe00900030002000f5
:103e5000990a07004e009000da0a07005e00900001
:103e60000080ea00120b07001e009000600a0700a5
:103e7000e702a800de0090006e00900001007000d4
:103e80000080ea000a0b07007e00900070006000ce
:103e90004480de0000407800614060000080fb004c
:103ea000610060004900dd00311780000190a10031
:103eb00001007000301788002e0190007066260007
:103ec0000090b9008180d1004f90de00008050004a
:103ed000470a07007e009000680060004380de0013
:103ee00000407800614060000080fb0061006000dd
:103ef0004900dd00311780000190a1000100700031
:103f0000301788002e019000706626000090b900de
:103f10008180d1004f90de0000805000340a0700fd
:103f20007e009000640060004280de000040780067
:103f3000614060000080fb00610060004900dd001e
:103f4000311780000190a100010070003017880037
:103f50002e019000706626000090b9008180d1008b
:103f60004f90de0000805000210a07007e00900084
:103f7000620060000080d100004078006140600075
:103f80000080fb00610060004900dd003117800007
:103f90000190a10001007000301788002e019000f0
:103fa000706626000090b9008180d1004f90de003d
:103fb000008050000e0a07007e009000004078004c
:103fc0006140600061406000614060000080fb0073
:103fd000610060004900dd00311780000190a10000
:103fe00001007000301788002e01900070662600d6
:103ff0000090b9008180d1004f90de008080500099
:104000003e00900000805000f90907006e0090000b
:104010000080ea00a60a07003e009000f4090700ad
:10402000e722a900f0002000a10a07008000eb00b1
:1040300030002000200a0700e702a9008e08900047
:10404000803e20000088b900800078001e009000ab
:1040500000805000e60907001e0fe8001e089000cf
:104060009e007800808f500050ff35000080fa00dd
:10407000000006000800fa0071712c0010002000fa
:10408000760e0700000f78001e0078000000e000a8
:1040900002003a008040800001003700904080001c
:1040a000300798003e019000b04721000090b90011
:1040b000c388de004f90de0000805000100798009b
:1040c0003e009000b14721000181b9004399de0014
:1040d000cf80de0001015100410620000191b900ae
:1040e0008200780001005000200798009e00900098
:1040f00070012000f0090700ae0090008001200050
:10410000ed09070020032000b9090700deff370092
:104110000600fa00889fbe00814080009040800029
:1041200000805000cf80de00f9f507000004be00db
:10413000814080009040800000804000cf80de0001
:10414000f3f507000001be000800be008df5070072
:104150000200200003f823002df5070002002000d4
:104160000340240040f60700c8f50700000078006f
:10417000200798002e019000b04721000090b90060
:10418000c388de004f90de00008f50002e009000ac
:10419000b14721000181b9004399de00cf80de00e4
:1041a00001015100410620000191b9008200780010
:1041b00001005000100798009e0078007001200058
:1041c000bd0907009e00900080012000ba09070089
:1041d00090012000860907002e0090008000eb006f
:1041e0000f0f07009001200081090700caff370068
:1041f0000200fa00f0f32f00f01688000000eb0038
:10420000000f78001e00a2001e0078000040780019
:10421000614060000080fb00610060004600dd003e
:10422000011780000160a1000100700000178800e4
:104230000000000000000000000000001e007800e8
:1042400000407800614060000080fb006100600079
:104250004800dd00411680000180a10001007000cf
:104260004016880000000000000000000000000070
:104270001e00780000407800614060000080fb0074
:10428000610060004900dd00411680000190a1003e
:1042900001007000401688000000000000000000cf
:1042a000000000001e0078000040780061406000bf
:1042b0000080fb00610060004700dd000117800006
:1042c0000170a100010070000017880000000000cc
:1042d00000000000000000001e0078000040780090
:1042e000614060000080fb00610060004600dd006e
:1042f000011780000160a100010070000017880014
:104300000000000000000000000000001e00780017
:1043100000407800614060000080fb0061006000a8
:104320004e00dd001116800001e0a10001007000c8
:1043300010168800000000000000000000000000cf
:104340001e00780000407800614060000080fb00a3
:10435000610060004c00dd00a116800001c0a100da
:1043600001007000a016880000000000000000009e
:10437000000000001e0078000040780061406000ee
:104380000080fb00610060004d00dd00a116800090
:1043900001d0a10001007000a0168800a00f20002d
:1043a0001309070097ff37000600fa00200798005e
:1043b0000000eb009048880060418000790e070003
:1043c0000000eb00000f78000000eb0010079800e1
:1043d000620b07006b0b070030722c00390b0700d3
:1043e000803e20000100200000408800114088002d
:1043f0000100370000000000914880001e0090007e
:10440000808f5000170036002e0090006101b90027
:104410000040800011408000800f5100818f5900c2
:104420000a003e0011002000400020002a0e070074
:104430000028ef000228ef001e0fe8001e007800a1
:1044400012002000c1002000db0c07009148800012
:10445000110798001e0090000001eb00b100200041
:10446000d50c0700104280006101b90000408000b7
:1044700011408000800f5100818f590003003e00e1
:104480008000eb0040002000130e07004141800037
:1044900010032000808f5000d6ff3a00110020004a
:1044a000400020000c0e070010428000d0080700da
:1044b0008000eb0040002000070e07000080eb00aa
:1044c00040418800ccff37000a00fa00200320009a
:1044d000f04188000000eb00000f78000000eb00c6
:1044e000904888000000eb00a04888000000eb0026
:1044f000100798000000eb00200798000000eb0078
:1045000030079800e1722c0020002000530d0700b6
:1045100040079800f1732c0010742c003f0d070029
:10452000ce009000400620000088b900000078000e
:10453000cf80de0000408800114088000100370075
:1045400000000000914880002e009000808f5000f5
:104550002a003600ce009000400620000088b900f6
:10456000000078006101b900004080001140800027
:10457000800f5100818f5900190031001e00780012
:10458000e40f5000160032001100200060012000ee
:10459000c90807001100200040002000ce0d0700d0
:1045a00040002000000f78000028ef000228ef00f4
:1045b0008040eb00f0c0b300fc0a0700c0c4b300a9
:1045c000b50a07001e0090000000e80010079800e0
:1045d0001e0090001200200021002000760c070031
:1045e000904880000001eb0021002000720c0700c1
:1045f00091488000210798002d003700a1488000d5
:104600003e009000808f500029003600ce009000c0
:10461000400620000088b900000078006101b90060
:104620000040800011408000800f5100818f5900b0
:10463000190031001e007800e30f50001600320010
:1046400021002000600120009b08070011002000cd
:1046500030002000a00d070030002000000f78007f
:104660000028ef000228ef008040eb00f0c0b3000c
:10467000ce0a070020c5b300870a07001e0090007d
:104680000000e800100798001e00900012002000b3
:1046900021002000480c0700a04880000001eb002a
:1046a000a1002000440c0700a148800031079800b9
:1046b000104280006101b90000408000114080007c
:1046c000800f5100818f5900030031008000eb0002
:1046d00040002000800d0700204280006101b900e9
:1046e0000040800011408000800f5100818f5900f0
:1046f000030031008000eb0030002000760d070041
:104700004141800010032000808f50000a003a00d1
:1047100011002000400020006f0d070010428000b3
:10472000330807008000eb00400020006a0d0700fe
:104730000080eb00404188004141800020032000c0
:10474000808f50007eff3a001100200030002000d2
:10475000610d070020428000250807008000eb0063
:10476000300020005c0d07000080eb004041880015
:1047700074ff37000400fa0060418000890d0700d3
:10478000b0408000870d0700b1742c00100020009d
:10479000b20c0700000f7800a1752c00300020003b
:1047a000ae0c0700100798001e0090007d0d07005a
:1047b0001e007800e10f500006003a001e00900035
:1047c0004280de00800078000000eb002409070032
:1047d000080037001e007800e20f500005003a0084
:1047e0001e0090004280de0080007800a0002000c3
:1047f0001b0907000000000000000000000000008e
:104800000000eb00350907004200dd006041880030
:10481000a0002000310907004200dd00b040880000
:104820000080fa00000006000800fa001007980057
:1048300021079800320798002e009000ef0f5000db
:10484000030034002e00900070005000010037007b
:104850002e0090005b0807001e009000e10f500042
:10486000060032001e009000e20f500003003200ec
:104870001e009000e60f500009003a002e00900044
:10488000ef0f500002003c00e0ff2f000100370056
:10489000b0ff2f0086080700401f2000c30d07004f
:1048a0001e009000e30f500001003200e722a80034
:1048b0001e009000e30f500012003a002e009000fe
:1048c0000000e00003003c002e0090004006b00015
:1048d000010037002e00900080007800300020009a
:1048e000f50707002e009000ef0f500002003c007b
:1048f000e0ff2f0001003700b0ff2f006c08070019
:10490000b10037002e009000ef0f500002003c0075
:10491000c0ff2f000100370030ff2f0064080700a0
:104920001e009000e40f500017003200e40f50000a
:1049300004003c000000e900e10f50001e003e00b2
:1049400007003700e60f500015003200e60f500058
:1049500010003500e70f5000140032001600370039
:104960002e009000def507000000e000030032009a
:1049700090002000000f78000f003700a0002000fa
:10498000000f78000c00370030052000000f780081
:104990000900370050052000000f7800060037009e
:1049a000b0002000000f780003003700c000200096
:1049b000000f7800000000002e0090000000e000d2
:1049c00003003a002e0090004006b00001003700be
:1049d0002e009000800078001e007800b6070700c7
:1049e0008040eb0030c0b300f00907001e009000cb
:1049f000e40f50001a003200e40f500005003c00a4
:104a0000e10f50000a003200e20f50000e003200a9
:104a100029003700e60f50001b003200e60f50005f
:104a200015003500e70f50001d003200220037004e
:104a300010c3b3009809070060478000800cb100e4
:104a40005a0d07001c00370020c3b300920907006d
:104a500080478000800cb100540d0700160037001d
:104a600030c3b3008c090700a0478000800cb10060
:104a70004e0d070010003700d0478000800cb100b9
:104a80004a0d07000c00370050c7b3008209070029
:104a900070478000800cb100440d0700060037000d
:104aa00050c5b3007c09070090478000800cb1001e
:104ab0003e0d0700000000002e009000ef0f500098
:104ac00002003c00d0ff2f000100370070ff2f00d4
:104ad000f7070700800c2000340d0700f0002000cd
:104ae000f30707008000eb001e0078007207070044
:104af0008040eb0030c0b300ac0907001e009000fe
:104b0000e40f500024003200e40f500005003c0088
:104b1000e10f500008003200e20f50001200320096
:104b200029003700e60f50001e003200e70f50004a
:104b30001f0032002400370040c6b30056090700aa
:104b40006047800080007800703e2000808f500019
:104b50001a003e0060478000813e20000080500027
:104b6000120d07001800370040c4b3004a090700bf
:104b70008047800080007800703e2000808f5000c9
:104b800010003e0080478000813e200000805000e1
:104b9000060d07000c00370020c5b3003e090700d2
:104ba0000900370040c6b3003b0907000600370084
:104bb00040c6b300380907000300370000000000ba
:104bc00001003700000000000000000000000000ad
:104bd0000000000000000000e722a9000080fa00a9
:104be000000006000400fa00000f7800110798008a
:104bf00011002000600120002f070700814880007d
:104c0000c0042000808f500009003a0011002000ed
:104c100040002000300c070010428000e30c070029
:104c20008000eb00400020002b0c07000c00370038
:104c30008148800020052000808f500008003a0045
:104c40001100200030002000230c070020428000cb
:104c5000d60c07008000eb00300020001e0c07007f
:104c60002228ef009e007800700020001207070045
:104c7000c04080000000e800c0408800c0408000c4
:104c80000001eb0051002000cb0a07000080fa0071
:104c9000000006000200fa00000f78002228ef0052
:104ca0009e0078004000200003070700e0408000dd
:104cb0000000e800e0408800e04080001200200092
:104cc00051002000bc0a07000080fa000000060026
:104cd0000200fa00000f7800104180000000e80098
:104ce000104188009e00780060002000f206070056
:104cf000d04080000000e800d0408800d040800014
:104d00000001eb0091002000ab0a0700b0478000d3
:104d10000000e0000200340080382100a30c0700ee
:104d20000080fa00000006000c00fa00881f7800de
:104d30002007980031079800420798005307980011
:104d40000000eb00000f78000000eb001007980057
:104d50000000eb0080488800f0418000fe0f50000a
:104d60000400320071032000810f50005300320014
:104d7000d20037000028ef000228ef0002003700c1
:104d800050488000804888005e0090006101b900b2
:104d90000040800011408000800f5100818f590039
:104da00003003600804880000000e000f4ff32007d
:104db0002040800031408000404088005140880001
:104dc000804880000000e00031003a002e00900092
:104dd000c3f407000000e0000b003a0011002000bf
:104de00050002000b4060700f04080000000e800fa
:104df000f0408800f0408000120020009100200068
:104e00006d0a07002001370010002000b0ff0700e6
:104e10002af4070001428000010178001100090016
:104e20000200d8008000fd000000e00005003a000c
:104e30003048800061006000004078000004e0001d
:104e400004003a004141800010032000808f500090
:104e50000c013a00110020006001200096060700b6
:104e600011002000400020009b0b070011002000d3
:104e70008000200090060700104280004b0c0700c5
:104e80008000eb0040002000930b0700fe0037007d
:104e90002e00900092f407000000e00003003a00aa
:104ea000100020007bff0700f700370011002000f2
:104eb000100020004bff0700f30037000028ef0030
:104ec0000228ef00400037005e009000cf00de00b7
:104ed000008040000080d1006101b90000408000e6
:104ee00011408000800f5100818f590034003a003a
:104ef0001e0090000000e00031003a001000200089
:104f000010079800edf307000142800001017800ce
:104f1000110009000200d8008000fd000000e00040
:104f200005003a00304880006100600000407800d1
:104f30000004e00004003a0041418000100320001a
:104f4000808f50001e003a001100200060012000f8
:104f500059060700ce00900080002000560607008a
:104f60002e0090005ef407000000e000090032000f
:104f70001100200040002000570b07001042800065
:104f80001b0607008000eb0040002000520b0700ca
:104f90000800370011002000300020004e0b0700f1
:104fa00020428000120607008000eb003000200045
:104fb000490b07000080eb00404188000c003700df
:104fc00050488000804888005e0090006101b90070
:104fd0000040800011408000800f5100818f5900f7
:104fe00003003600804880000000e000b6ff320079
:104ff00020408000314080004040880051408800bf
:105000002e00900036f407000000e000020032009d
:105010001000200001003700200020004007980009
:10502000804880000000e00006003a004e0090003a
:1050300027ff0700b04780000000a000b0478800ad
:10504000910037002e00900025f407000000e000da
:10505000040032008148800020052000808f50002d
:105060000800320081488000c0042000808f50007a
:105070000a003a002e00900019f407000000e0003a
:1050800006003a004e00900002ff0700b047800083
:105090000000a000b04788007b003700110020000e
:1050a0004e009000cffe0700b1478000e00f2000c7
:1050b00000806000b0478800730037000028ef00d0
:1050c0000228ef00330037005e009000cf00de00c2
:1050d000008040000080d1006101b90000408000e4
:1050e00011408000800f5100818f590027003a0045
:1050f0001e0090000000e00024003a001000200094
:10510000100798006df3070001428000010178004c
:10511000110009000200d8008000fd000000e0003e
:1051200005003a00304880006100600000407800cf
:105130000004e00004003a00414180001003200018
:10514000808f500011003a00110020006001200003
:10515000d9050700ce00900080002000d60507008a
:105160001100200040002000db0a070010428000f0
:105170009f0507008000eb0040002000d60a0700d2
:105180000080eb00404188000c0037005048800050
:10519000804888005e0090006101b90000408000f6
:1051a00011408000800f5100818f590003003600ac
:1051b000804880000000e000c3ff320020408000f3
:1051c0003140800040408800514088008048800085
:1051d0000000e00019003a002e009000c0f3070024
:1051e000000478003e009000bdf30700800f5400db
:1051f0000d003a00ce00900050002000ae050700e0
:10520000f04080000000e800f0408800f04080009e
:1052100012002000910020006709070050002000c4
:10522000000f7800180037004e009000a8fe07001d
:1052300060002000000f7800130037002e0090005f
:10524000a7f30700000478003e009000a4f30700d5
:10525000800f540005003a004e0090008dfe0700bc
:1052600040002000000f78000700370011002000e8
:105270004e0090005bfe070070002000000f7800d9
:1052800001003700000000001e0078004f04780085
:105290000080fa00000006000800fa0010079800dd
:1052a00021079800320798001e019000ae00900080
:1052b000600020005cfd07008040eb0030c0b300c0
:1052c000ba07070040c4b300730707003e00900010
:1052d0000000e00003003a0080bb2000330b070011
:1052e0002e003700803e2000300b0700000f7800b2
:1052f0003e009000ef0f5000030034003e0090008d
:1053000070005000010037003e009000ad0507001e
:105310003e009000ef0f500002003c00e0ff2f0025
:1053200001003700b0ff2f00e1050700401f2000fb
:105330001e0b07001e0f70001e0078000000e0002a
:105340000a003a001e019000be009000700020008c
:1053500035fd0700431f200032002000be009000f2
:105360002e00900070fe07000c003700f0002000b7
:10537000cf05070031002000400520004e05070042
:105380008040eb0030c0b3008807070010c4b300b2
:1053900041070700c05d2000040b07000080fa00f1
:1053a000000006000600fa00100798002107980088
:1053b000a1478000700c2000808f50004000340016
:1053c0000000eb00000f7800e0478000e10f500084
:1053d00013003400e04780008000e900803e200098
:1053e0000088b90000007800f00a07001e0f700066
:1053f000e047800080007800803e20000088b900ef
:105400008000780000832f0000804000e70a07003a
:105410001e0f7000401f2000e40a07001e0f7000de
:1054200040478000100078001e0190008000780046
:1054300030002000fcfc0700401f2000db0a0700b2
:105440001e0f70008040eb0030c0b300570707000c
:1054500030488000e10f50000f003c001e00780033
:105460000000e0000c003200f00020009005070072
:10547000ae009000400520000f05070010c4b300e7
:1054800005070700004180000000e8000041880097
:105490000000eb000b00370020c5b300fe0607003c
:1054a00040478000100078001e01900080007800c6
:1054b00040002000dcfc0700100020000100370045
:1054c0000000eb000080fa00000006001000fa0067
:1054d000300798004107980052079800630798002a
:1054e00074079800204080003140800040408800d0
:1054f00051408800f0478000cf80de00823e2000cf
:105500000289b900020178006002b90084017800c4
:1055100003014100833e20000300b8000101410067
:10552000820078002240800033408000000041006b
:1055300081804900803eb0000180b000604088005a
:1055400071408800fe009000a0032000da040700ec
:105550007e00900000f0a7000000ea000000ea00d2
:105560004f00de008000780010042000d204070005
:105570008040eb0030c0b3000c07070090c4b300bc
:10558000c5060700f0478000e30f5000100036000a
:10559000f0478000640f50000400370000a62e0082
:1055a000820a070041fc2f001e8f4000c00320002c
:1055b0009e007800808f5000f8ff3e009e0078002b
:1055c000803e20000088b90000007800770a0700bc
:1055d000c0da2000750a07008000eb00b00320004d
:1055e000b50407007e019000be009000100020006e
:1055f0008dfc0700f0418000fe0f500029003200b2
:1056000071032000810f500028003200e047800025
:105610000000e0001e003400304780000000e00081
:1056200012003200409c2000600a07006e019000ca
:10563000de0090007e00900017ff0700e04780002a
:10564000e70f500010003600e0478000800078002f
:10565000803e20000088b90080007800000c2e00f9
:1056600000804000510a070007003700e047800033
:1056700080007800803e20000088b900000078009b
:10568000803eb100490a0700401f2000470a07007a
:105690007e019000ce0090002000200062fc0700f8
:1056a0000300370000000000010037000000000088
:1056b0000000eb0010079800504780000000e00059
:1056c00003003200e10f50001300320026003700c3
:1056d0008040eb0030c0b300b406070020c5b30023
:1056e0006d060700304880000000e0000200320034
:1056f000007d200001003700803e200080017800fe
:1057000012002000ce0090003e00900086fd0700b1
:1057100010079800140037003e00900070f2070058
:105720000000e000020032001000200001003700fd
:1057300020002000800078007e00900019ff070004
:105740000000e0000700320003fa200022002000e1
:10575000ce0090003e00900073fd070010079800f7
:105760000100370000000000c1408000f0408000d0
:1057700080804000d040800080804000e040800079
:105780008080400000418000008040002007980099
:1057900012002000d10020002e0090000608070013
:1057a000c1408000f0408000008040000000e00028
:1057b00012003400c1408000f04080008080400032
:1057c000400620000088b900800078002e0090007c
:1057d00000017800110009008200d80020418800f3
:1057e0002041800031062000810f5000010034006c
:1057f0003006200020418800010037002428ef00f7
:1058000020418000e90f500002003400d000200049
:1058100001003700e0002000234180000001eb0080
:105820008000780003007800e3070700bb0b070047
:105830000080fa00000006000400fa001042800018
:10584000580907002042800056090700a1762c0065
:105850001000200081080700000f7800a1772c00bd
:10586000300020007d080700100798001e009000ff
:105870004c0907001e007800e10f500004003a00b8
:105880009e00900020002000f5040700060037006d
:105890001e007800e20f500003003a009e009000c6
:1058a000c0002000ee040700200020000b050700c8
:1058b00010428800c0002000080507002042880030
:1058c0008000eb00d0032000fb0307000080fa00fb
:1058d000000006002000fa00500f9800610f9800a9
:1058e000720f98000000eb00000f78003a28ef00dc
:1058f0009146800061079800104880000000400039
:1059000044f1070070079800f041800080007800a3
:1059100030032000e8030700530237001100200085
:10592000d0032000e403070091782c00a0792c001c
:105930003a080700d041800012002000110020002a
:105940009d0707002028ef0000418000f0408800fc
:10595000f0408000e0408800e0408000d0408800b7
:10596000d0408000c04088000000eb003007980065
:105970000000eb00400798000000eb00000f7800eb
:105980001c02370010488000800078007e009000e4
:10599000440907000000eb00500798000d02370093
:1059a0005e00900000004000fe009000008040007b
:1059b00010007800000f9800f04180006101b800ed
:1059c00060ff2f00f1ff2f0002004000838048009d
:1059d0004206200003002000820f5000838f5800f1
:1059e0006e013e0000600100bd0037006b01370012
:1059f0006a01370069013700680137006701370025
:105a00006601370065013700640137006301370024
:105a10005a00370074003700730037005f01370009
:105a20005e0137005d0137005c0137005b01370024
:105a30005a01370059013700c400370057013700b9
:105a40005601370055013700540137005301370024
:105a50005201370051013700500137004f01370024
:105a60004e0137004d0137004c0137004b01370024
:105a70004a01370049013700480137004701370024
:105a80004601370045013700440137004301370024
:105a9000420137004101370040013700ab003700b9
:105aa0003e0137003d0137003c0137003b01370024
:105ab0003a01370039013700380137003701370024
:105ac0003601370035013700340137003301370024
:105ad0003201370031013700300137002f01370024
:105ae0002e0137002d0137002c0137002b01370024
:105af0002a01370029013700280137002701370024
:105b00002601370025013700240137002301370023
:105b10002201370021013700200137001f01370023
:105b20001e0137001d0137001c0137001b01370023
:105b30001a013700fd003700e20037001701370077
:105b4000160137001501370014013700c300370074
:105b50001201370011013700100137000f01370023
:105b60000e0137000d0137000c0137000b01370023
:105b70000a013700090137009d0037000e08900028
:105b80000000e000030032000e089000e20f500019
:105b900003003a00e0468000100078000300370060
:105ba000e04680000080e8001000780010079800b0
:105bb0000e089000e10f5000030032000e08900024
:105bc000e20f500003003a00f04680001000780019
:105bd00003003700f04680000080e80010007800e5
:105be00020079800ed0037000e089000610060006b
:105bf000004078000004e00003003200e04680002e
:105c00001000780003003700e04680000080e800c4
:105c100010007800100798000e08900062006000e5
:105c20000000e00003003200e04680001000780031
:105c300003003700e04680000080e8001000780094
:105c400020079800f0418000f60f5000d2003a0083
:105c5000f0478000cf80de00823e20000289b9003c
:105c6000020178006002b90084017800030141005c
:105c7000833e20000300b80001014100820078004b
:105c800022408000334080000000410081804900b4
:105c9000803eb0000180b000604088007140880004
:105ca00050002000100f980080002000200f980066
:105cb000c0002000300f980040012000400f9800e5
:105cc0000e0890006c0060004280de000000400082
:105cd0000000470010089000e0478800af00370040
:105ce0000e0890000000e000030032000e08900053
:105cf000e20f500003003a00e046800010007800f8
:105d000003003700e04680000080e80010007800c3
:105d1000100798000e0890000000e0000300320019
:105d20000e089000e20f500004003a00f046800098
:105d30000080e8001000780002003700f046800084
:105d40001000780020079800940037000000eb0056
:105d500020079800b047800063006000e30f500008
:105d600003003a00c0418000e90f50001c003400dd
:105d700000478000e20f50000e003a000e0890002d
:105d80000000e000030032000e089000e20f500017
:105d900003003a00e046800010007800030037005e
:105da000e04680000080e8001000780010079800ae
:105db0000900370000478000e40f5000060034005f
:105dc000e14680000e089000000040000080400086
:105dd00010017800120798003828ef006f00370094
:105de000c04180000000e800c04188006b0037001f
:105df0000e0890000000e000030032000e08900042
:105e0000e20f500003003a00e046800010007800e6
:105e100003003700e04680000080e80010007800b2
:105e2000100798000e089000e10f500003003200a8
:105e30000e089000e20f500003003a00f046800088
:105e40001000780003003700f04680000080e80072
:105e50001000780020079800500037000e089000ce
:105e60000000e000030032000e089000e20f500036
:105e700003003a00e046800010007800030037007d
:105e8000e04680000080e8001000780010079800cd
:105e9000e0468000900078001e009000808f500047
:105ea00004003a00f04680000080e800100078000e
:105eb00002003700f04680001000780020079800ac
:105ec000360037000e0890000000e00003003200aa
:105ed0000e089000e20f500003003a00e0468000f8
:105ee0001000780003003700e04680000080e800e2
:105ef0001000780010079800e046800090007800bd
:105f00001e009000808f500004003a00f046800090
:105f10000080e8001000780002003700f0468000a2
:105f200010007800200798001c0037000e08900031
:105f30000000e000030032000e089000e20f500065
:105f400003003a00e04680001000780003003700ac
:105f5000e04680000080e8001000780010079800fc
:105f60000e089000e10f5000030032000e08900070
:105f7000e20f500003003a00f04680001000780065
:105f800003003700f04680000080e8001000780031
:105f90002007980001003700000000008040eb005f
:105fa0000040eb0081040700e1432c001e0090003c
:105fb000008040001040780037040700e1432c00c7
:105fc0002e0090000080400010407800320407004e
:105fd00030478000e10f500003003200e20f500014
:105fe000080032001700370010478000900078004a
:105ff0003107980020478000100178004207980080
:1060000010003700adef070061006000004078002d
:106010000004e00003003200104780001000780008
:1060200003003700104780000080e800100078006f
:1060300030079800204780009000780041079800c2
:10604000000000008046800021032000810f5000e6
:106050002000320021032000810f500007003c0087
:10606000e20f50000f003200e30f50004d003200ed
:10607000e10f50000e0032004b00370041032000ba
:10608000810f50002300320041032000810f500097
:106090001800350001052000810f50002600320055
:1060a000410037000000eb00904688003e003700ba
:1060b0001e007800610060000000e0000200320075
:1060c0006e009000010037000000eb009046880051
:1060d000350037000e0890004280de00800040004e
:1060e000807b2c00008040001000780090468800e3
:1060f0002d0037000e0890004280de008000400036
:10610000c07c2c0000804000100078009046880081
:10611000250037000e089000ef0f500003003400f8
:10612000a0022000904688001f0037000000eb000e
:10613000904688001c00370060ef07006100600097
:10614000004078000004e0000b0032005e08900080
:10615000cf00de00008040000080d1009e0f500084
:1061600002003c006e009000010037000000eb00d0
:10617000904688000c0037005e089000cf00de00db
:10618000008040000080d1009e0f500002003400cb
:106190006e009000010037000000eb009046880080
:1061a00001003700000000009046800000027800e7
:1061b000ce0190003e019000ae0090001e009000c5
:1061c000c2fc07001e0fe8005e0090000000e8001f
:1061d00050079800114880005e009000808f5000aa
:1061e00004003400114180006e089000808f500040
:1061f000ebfd35005e0890009e007800808f500017
:1062000004003d00114180006e089000808f500016
:10621000dcfd35008000eb00d0032000a601070064
:10622000b04880000000e0000f003a0020418000ec
:106230008000eb00fa060700d140800040062000f5
:106240000088b90080007800d2408000c040800003
:106250000000410000017800110009008200d80010
:1062600011002000ee060700114180006e0890002a
:10627000808f50000a003d00d141800010c0b30063
:106280007e099000828f5000010035000040eb0035
:106290008100e800d14188000004e0009ffd3a0041
:1062a0008000eb00e0032000830107000080eb008a
:1062b000404188007e00900071ee07000080fa00e7
:1062c000000006000400fa001007980020002000db
:1062d000904688000000eb00000f78001e00900040
:1062e000e10f50000d003200e20f500016003200a6
:1062f0000000e0002a003a001e00a2001e00780004
:1063000080407800a08d200001487800b17a2c00f0
:1063100010002000d1050700f7ff3700a08d2000f6
:1063200011c0b30001487800500020003f01070071
:10633000a08d20008040eb00014878005000200034
:106340003a010700f5ff37000000eb00000f78006e
:106350000e003700a08d200011c0b3000148780066
