:020000040000fa
:080000000007040000000000ed
:020000040000fa
:04000800a609000045
:020000040000fa
:04000c00a609000041
:020000040000fa
:04001000a60900003d
:020000040000fa
:04001400a609000039
:020000040000fa
:04001800a609000035
:020000040000fa
:04001c00a609000031
:020000040000fa
:04002000a60900002d
:020000040000fa
:04002400a609000029
:020000040000fa
:04002800a609000025
:020000040000fa
:04002c00a609000021
:020000040000fa
:04003000a60900001d
:020000040000fa
:04003400c8070000f9
:020000040000fa
:04003800a609000015
:020000040000fa
:04003c00a609000011
:020000040000fa
:04004000a60900000d
:020000040000fa
:04004400a609000009
:020000040000fa
:04004800a609000005
:020000040000fa
:04004c00a609000001
:020000040000fa
:04005000a6090000fd
:020000040000fa
:04005400540900004b
:020000040000fa
:04005800a6090000f5
:020000040000fa
:04005c00a6090000f1
:020000040000fa
:04006000a6090000ed
:020000040000fa
:04006400a6090000e9
:020000040000fa
:04006800a6090000e5
:020000040000fa
:04006c00a6090000e1
:020000040000fa
:04007000a6090000dd
:020000040000fa
:04007400a6090000d9
:020000040000fa
:04007800a6090000d5
:020000040000fa
:04007c00a6090000d1
:020000040000fa
:04008000a6090000cd
:020000040000fa
:04008400a6090000c9
:020000040000fa
:040088006809000003
:020000040000fa
:04008c00a6090000c1
:020000040000fa
:04009000a6090000bd
:020000040000fa
:04009400a6090000b9
:020000040000fa
:04009800a6090000b5
:020000040000fa
:04009c00a6090000b1
:020000040000fa
:0400a000a6090000ad
:020000040000fa
:0400a400a6090000a9
:020000040000fa
:0400a800a6090000a5
:020000040000fa
:0400ac00a6090000a1
:020000040000fa
:0400b000a60900009d
:020000040000fa
:0400b400a609000099
:020000040000fa
:0400b800a609000095
:020000040000fa
:0400bc00a609000091
:020000040000fa
:0400c000a60900008d
:020000040000fa
:0400c400a609000089
:020000040000fa
:0400c800a609000085
:020000040000fa
:0400cc00a609000081
:020000040000fa
:0400d000a60900007d
:020000040000fa
:0400d400a609000079
:020000040000fa
:0400d800a609000075
:020000040000fa
:04010800a609000044
:020000040000fa
:04010c00a609000040
:020000040000fa
:04011000a60900003c
:020000040000fa
:04011400a609000038
:020000040000fa
:04011800a609000034
:020000040000fa
:04011c00a609000030
:020000040000fa
:04012000a60900002c
:020000040000fa
:04012400a609000028
:020000040000fa
:04012800a609000024
:020000040000fa
:04012c00a609000020
:020000040000fa
:04013000a60900001c
:020000040000fa
:04013400a609000018
:020000040000fa
:04013800a609000014
:020000040000fa
:04013c00a609000010
:020000040000fa
:04014000a60900000c
:020000040000fa
:04014400a609000008
:020000040000fa
:04014800a609000004
:020000040000fa
:04014c00a609000000
:020000040000fa
:04015000a6090000fc
:020000040000fa
:04015400a6090000f8
:020000040000fa
:04015800a6090000f4
:020000040000fa
:04015c00a6090000f0
:020000040000fa
:04016000a6090000ec
:020000040000fa
:04016400a6090000e8
:020000040000fa
:04016800a6090000e4
:020000040000fa
:04016c00a6090000e0
:020000040000fa
:04017000a6090000dc
:020000040000fa
:04017400a6090000d8
:020000040000fa
:04017800a6090000d4
:020000040000fa
:04017c00a6090000d0
:020000040000fa
:04018000a6090000cc
:020000040000fa
:04018400a6090000c8
:020000040000fa
:04018800a6090000c4
:020000040000fa
:04018c00a6090000c0
:020000040000fa
:04019000a6090000bc
:020000040000fa
:04019400a6090000b8
:020000040000fa
:04019800a6090000b4
:020000040000fa
:04019c00a6090000b0
:020000040000fa
:0401a000a6090000ac
:020000040000fa
:0401a400a6090000a8
:020000040000fa
:0401a800a6090000a4
:020000040000fa
:0401ac00a6090000a0
:020000040000fa
:0401b000a60900009c
:020000040000fa
:0401b400a609000098
:020000040000fa
:0401b800a609000094
:020000040000fa
:0401bc00a609000090
:020000040000fa
:0401c000a60900008c
:020000040000fa
:0401c400a609000088
:020000040000fa
:0401c800a609000084
:020000040000fa
:0401cc00a609000080
:020000040000fa
:0401d000a60900007c
:020000040000fa
:0401d400a609000078
:020000040000fa
:0401d800a609000074
:020000040000fa
:100e00004fb220000e7f22000e018800000000007b
:100e1000000020000000e00002003200000120007d
:100e20002002880014000700d10107000000e00044
:100e300003003a0040862400010020000200370031
:100e40000000200001002000810f7000010032002e
:100e500014000700000020000000e0000200320043
:100e60000000020000000000681002000000000006
:100e70000040da000000fe004440a900003c2000d1
:100e80000000e0000300320000002000a001880004
:100e90004440a800000006008a1f78008b1f7800dd
:100ea0000000060091018800800478000000eb003b
:100eb0001a003700e284440032a0b4009905ba0059
:100ec000e284440032a0b4009906ba00e2844400ef
:100ed00032a0b4000006eb00476fde00fd07b20051
:100ee000636ce10003003a00ebff07000000eb0039
:100ef0000a003700606ce10004003a00005deb007e
:100f00008b05e900fdff3e00040037006168e10049
:100f1000010032000086eb000b00070019c7ba0081
:100f20001905ba000e04e00003003a000a00e000d0
:100f3000e0ff3a0000000600fe07b2009e018800b4
:100f40008a047800f5ff3700395dba008b05e900a7
:100f50000c003200295dba008b05e9000800320060
:100f60000c00e00003003a00e284440032a0b40028
:100f7000f5ff370019ddba008b05e900faff3a00ea
:100f80008904e800e184440032a0b40000000600b7
:100f90003600f800809fbe00829fbe00849fbe0086
:100fa000869fbe00889fbe000800fa005000200007
:100fb000ef150700531c07002ae8b7002ac8bf0036
:100fc000e14f40000c00320014c8bf000004e000f4
:100fd00009003a00a182200091407800014f78007a
:100fe00000c0eb002ae8b7001e00fb00800078007c
:100ff000f004200063160700a08d20001040780048
:10100000614060000080fb00610060004900dd007d
:10101000111680000190a1000100700010168800d8
:101020008140800090408000008040000000e0008f
:101030001500320081408000904080000080500008
:10104000cf80de004f020700020020000340240092
:10105000a20207000004be00814080009040800092
:1010600000804000cf80de00460207000001be0085
:101070000800be00e0010700210207000000780020
:101080000020b00001003700002020003007980049
:1010900040488000e20f500010003200be00900077
:1010a00060418000808f500004003400514880006f
:1010b00020052000808f500008003200be00900004
:1010c000b0408000808f500006003d0051488000f5
:1010d000c0042000808f500002003a001000200061
:1010e000010037000000eb0010079800be009000e0
:1010f00060418000808f50000d003c00be009000d9
:10110000b0408000808f5000090035000000eb00e7
:10111000404888000000eb005048880041178000dc
:10112000f0cf2f00008060004017880036003700a5
:10113000404880000000e00007003a0020408000a6
:1011400031408000604888007148880020002000fd
:10115000404888002c0037001e0090000000e0008e
:1011600029003200be00900060418000808f500056
:101170000c003400e722a90000000000000000007d
:10118000e702a800904880000000e800904888002e
:10119000c0c4b30015e8b700c00420005048880060
:1011a0000b003700e702a90000000000000000006b
:1011b000e722a800a04880000000e800a0488800be
:1011c000200520005048880020c5b30015e8b7006e
:1011d000800020004048880014c8bf000004e000e0
:1011e00009003a0051812000914078004147980061
:1011f0001568ef004e4090000000fb008000780072
:101200000000eb00df150700204080003140800027
:10121000421f20000300200064020700e00f50007e
:10122000e08f580017003a0014c8bf000004e00027
:1012300014003a00b04880000000e00003003200d3
:101240003e0090008000eb00281b0700be009000cd
:1012500060418000808f50000300340011002000a6
:1012600070042000c7150700be009000b040800049
:10127000808f500003003d002100200070042000fa
:10128000c01507008460a9000080fa004f04be006a
:101290004f03be004f02be004f01be004f00be0014
:1012a0003600f90000400600801f78000000fa00b8
:1012b0000014800090408800101480008040880056
:1012c0008560a9000080fa004f0078000040060009
:1012d0003600f800809fbe00829fbe00849fbe0043
:1012e000869fbe000000fa00c0108000620060000f
:1012f0000000e000010032001822a900e010800088
:101300004041880041418000a0022000808f5000b1
:1013100006003a008000eb00d0032000991507007a
:1013200020032000651507000000fe008700a900cb
:101330000080fa004f03be004f02be004f01be0006
:101340004f00be003600f900004006000040da0001
:101350000000fe00889fbe008004780010498000d5
:101360000000e00004003a000e0007000084eb00db
:101370000000e00008003500184980000900e00086
:101380000500320009004400060007000000e000ec
:1013900001003d000084eb00080078004f04be000f
:1013a00000000600800078000100e00003003a0021
:1013b0004092200010498800000005000080eb00ea
:1013c00042b22000828f500002003e001149880086
:1013d0000000eb00000006000602ab00feff3a0032
:1013e0000642ab00fcff3a000662ab00faff3a008f
:1013f0000682ab00f8ff3a0009c2ab00f6ff3a00e4
:10140000000006000662a8000662ab00feff3a007c
:1014100008c2a9000010800000000600804078008b
:1014200000c0eb008180fb001110880008e2ab00d7
:1014300007003a0009c2ab00feff3a00e6ff0700d2
:101440000040eb000802e20001003d00e0cfb300e5
:1014500000000600211088003010880000000600ff
:101460000602a800000006000642a80000000600d0
:101470008460a900e7006000f2ff2800cc08dd00ce
:10148000a304800003016100680060000281700015
:1014900071ff2f00a2048800620480008280600037
:1014a0008100700061048800000006000010200028
:1014b0001802b6000000e9004f00de000000060040
:1014c00017e2a9008f00a9008f20a9008700a900ba
:1014d0008720a900000006008700a900e70060003f
:1014e0008720a9000001780083ff2f000207b200c7
:1014f000040580008481610083817000e800600041
:1015000003058800c308de00f3f82f00e1806000c7
:101510000405800084816100c808dd00830171003a
:101520000008b20003058800f2ef2f004700de003c
:10153000730480000301610061006000028170009b
:101540004900dd0072048800f1df2f007404800080
:101550008480600081007000710488000000060033
:10156000f2108800b0108800c1108800000006004a
:10157000000005003200f800910188000008bb005f
:10158000410424006210e100040032000002200047
:101590000010e1000a003a0051042400013b8800d9
:1015a0000500fc0051052000313b8800a10a200005
:1015b000313b880061e7a800000000000000000047
:1015c0003200f900000006003200f8006004240038
:1015d000003b8800f2ff37003200f80091018800dc
:1015e00041002400013b88000208bb00ecff3700eb
:1015f0003200f8009101880051002400013b88006e
:10160000030120003218bb008301e900fdff3a000e
:10161000e3ff37003200f800910188008002780073
:10162000620040003549ba00e08048003204e00022
:101630000410a700100032008301e9000e00320000
:101640002549ba003204e0000410a7000a00320065
:101650008301e900080032000408a300eeff320015
:1016600015c9ba003204e0000410a70002003200dd
:101670008301e900e8ff3a003200f90000000600ab
:1016800003f0a200889fbe008a9fbe008c1f7800d6
:10169000fa000700010133006450e1004f003200fe
:1016a0006420e1005200320003826c0007003b001e
:1016b0000905d0000306d000820f54000c065d001f
:1016c0000200390002003200890178000306780028
:1016d0008582550004003d000003fd008103fd00ec
:1016e0008502ea008b854200840f720002003b00f5
:1016f00060001000e08018006011b8000005eb00e9
:101700007a28e1000a00390006007800c75ddd0094
:10171000f707b200878075002d00370082817100c5
:101720000a017800610560008180d1000080d3004b
:101730008502e900f9ff3b00060440008784480069
:1017400002003b0060041400e0841c000988a30030
:10175000070032008a81710082817100610164009a
:101760008904d1000884d3008b05e80017003700f6
:101770000978a30013003a000b00e00013003400c6
:101780008b05e9000804440089844c000a44740075
:101790000978a3000d003a000b00e00007003400b8
:1017a0008b05e9000804440089844c0001003a00dc
:1017b0000b0020000978a300f7ff32000001eb00c6
:1017c00002003700828171000a0178007000070072
:1017d0000cf0a70001f0a000b90037006420e10080
:1017e00002003a00838f6c00b90033000801be008c
:1017f0000200be00b2003700889fbe008a9fbe0074
:101800008c1f78009d000700a400330003866c0045
:101810006450e1002e0032006420e1003300320009
:101820006150e1002f0032006120e1003100320000
:1018300085855500eb07b000090020000804200052
:10184000050037000804440089844c000a00310078
:101850000603430087834b000001530081815b0036
:10186000f8ff33000203be000800a0000804440093
:1018700089844c00f6ff3900c639dd00830173000e
:1018800001003200130020008904d1000884d30035
:101890000998a300050032000800a7000300a0007b
:1018a0008904d1000884d3008b05e8008904d100a5
:1018b0000884d3000001eb000281d200340007004d
:1018c00001f0a1000cf0a70001f0a0007c0037009f
:1018d0006420e1007e0032000801be000200be006c
:1018e000f7ff37006120e100790032006000b800a6
:1018f000f3ff37000000200001f82700f0ff370059
:101900000001be00480007000470a70003f0a1001a
:101910006509b100160032000d0035006828e100ad
:1019200006003500f0ff2f00f1ff27000300e00064
:1019300013003b00010028000000050000004000eb
:10194000818048008502e900fcff3a00080037006a
:10195000f88f420002003c008000eb000000050010
:101960008100d1000080d3008502e800fcff3a002e
:101970000300e00002003b0060001000e08018005f
:10198000000006004f89de00820178008a003700df
:1019900081002000618055000b003d000b002000fd
:1019a00061fe2f000100e1001d0034008281710002
:1019b000610164008904d1000884d3000000e800bc
:1019c000faff3a007100200061006400030070001b
:1019d000020060000900320061044400e0844c0011
:1019e0000988a500050032008b05e8006808e100c1
:1019f00002003a008904d1000884d300f20f2000cd
:101a00000258e10005003d00c75ddd00f907b200a6
:101a10008980750008007800000006000bf8270098
:101a20008b00780000000500c70ade00f107b20055
:101a3000f50fb20008003200e1cf42000200320090
:101a40000170a00024000500810f70000100320029
:101a50000408050044000500810f700002003a00f0
:101a6000140005008502e9000000400081c0480024
:101a7000fcff3b000170a000240005000004be0034
:101a8000e9ff07000003be000405be000200be001f
:101a9000e5ff0700844f7500000006000200be004d
:101aa0006450e100050036006420e10002003600c9
:101ab0000968a30001003a000800be000160a00010
:101ac0004f0678004f05be004f04be000000060020
:101ad000f0ff2f00f1ff2700f9ff3700889fbe00bd
:101ae0008a9fbe008c1f7800e4ff0700ebff3300e5
:101af00003866c006450e100240032006420e100a1
:101b0000270032006150e100220032006120e10034
:101b1000210032008b854200eb07b1000134b80090
:101b2000003ab8000804420089844a00013ab8002b
:101b30000030b8008880400009014a0004003300ea
:101b40000000400081804800020149008b05e90047
:101b5000c909dd008301700001003200130020007c
:101b6000c814de004814dd004709de001200b20090
:101b7000c808de000884700085ff070001f0a1009e
:101b80000cf0a70001f0a000cdff37006120e100bc
:101b9000cfff32000801be000200be00f7ff370091
:101ba0006150e100fcff3a00c9ff37004100070027
:101bb0000400be0000000600881f780003047800bf
:101bc0000300e00007003d0060001000e080180006
:101bd00060011900e081190002003b0001f02d00b6
:101be000030037000400070008f0a70001f0a00080
:101bf0004f04780000000600889fbe008a9fbe0048
:101c0000008270000402710004827100260032001c
:101c10000004be000200be006011b8006b09200085
:101c2000950220000182cf000a0039000541b10071
:101c30000082cf00070039000541b1000982cf00c2
:101c4000040039000541b1000882cf0001003900cd
:101c50000541b10005425200120032000a003b006b
:101c600082817100610164008100d1000080d30095
:101c70008984d3000884d3008b05e8000442e8007f
:101c8000f7ff3a00070037000804440089844c003d
:101c900000004800818048008b05e9000442e9000b
:101ca000f9ff3a003aff07004f05be004f04be009f
:101cb000000006006022b800060220000000d000ec
:101cc0008180d2000482d2008582d2000000a00070
:101cd0000202520083825a000300310002024200d5
:101ce00083824a000000a1000603e900f3ff3a00e6
:101cf000000006000000e0002f003200c001780064
:101d0000e38f51002c0036000308a3002a003a009c
:101d1000d14880000100e00002003200810f500035
:101d20000400310011009800d048880016003700e8
:101d300082007800110190000200e00002003200f1
:101d4000800f5100faff39001102780084824000b0
:101d5000850f500018003900808f520003003a00b0
:101d60008308420001007800070037000200e0000d
:101d70000300320083014000830f51000e00390040
:101d80001200980090009800900090000100e00080
:101d90000900320010014000828f500006003a0016
:101da000829120000009eb00100178001108410029
:101db000910090001100980000000600889fbe006e
:101dc00000047800c14880000100e00002003200f9
:101dd000010078000d003700d1488000a09120005c
:101de00004003700910f5400250036000180e80000
:101df000910090000100e000faff3a001000370067
:101e0000920f54001e0036000280e8001001780096
:101e10000200e000faff3a0011017800d14880008a
:101e2000a091200004003700910f540014003600e8
:101e30000180e80091009000828f5000faff3a0084
:101e400009498000888f540001003100880478001f
:101e5000090078008e0007000000e00004003a004e
:101e6000888f5400050032008904d100f5ff370047
:101e7000091878009fff0700d2ff37000000eb0031
:101e80004f04be0000000600881f78006304400075
:101e90000800a1008000eb00800f540021003600f4
:101ea000e30f540001003e004800200008007800c5
:101eb000c2ff07008000eb000000e00019003200c4
:101ec000900078009101780064815100880f5100e2
:101ed000030031001101900002087800070037006c
:101ee00008814000020878009101900013019800d9
:101ef000100178001109140088087800100178009a
:101f00000000eb000200e0000400320092019000ab
:101f10000300e000010032000280e800c0488800b1
:101f20008180e800010078004f047800000006007e
:101f3000889fbe00404280000000e00001003200a7
:101f400000000100504280000000e000010032006b
:101f500000000100608420001004e00022003a002c
:101f6000e0488000f148800088002000d260260010
:101f70009301200050000700f2352f00e3c6230034
:101f800000004100818049000804e900f7ff3a00a1
:101f9000c88420000908200088844400d2602600fc
:101fa0009301200044000700f2352f00e3c6230010
:101fb000000041008180490000acbe00890f540040
:101fc000f6ff3a00e0488800f1488800604680004b
:101fd00071468000604288007142880011c0b300e1
:101fe0006084200001487800d26026009301200020
:101ff000e0488000f14880002f000700f2352f00f4
:10200000e3c623000002410081824900e4488800c1
:10201000f5488800c0842000100078007f0160002f
:102020004211dd0000852000020140001200be00c8
:1020300060428800714288000489be000100780077
:1020400000f0a1004f04be0000000600889fbe0003
:1020500000047800404280000000e00001003200ef
:1020600000000100608420000048eb005042800026
:102070000000e00001003200000001008004eb00dd
:10208000e8488800f94888004f04be0000000600b8
:10209000800078000000eb000100e0000500340043
:1020a00001007800abfc0700e10f400001003a009e
:1020b0000000eb0000000600020ab900001bb90096
:1020c0000200b800810042008100430000000600c9
:1020d0000000fa007d110700e412070094110700c8
:1020e000151207005b130700361107002ee8b70032
:1020f000e7130700c14b2c00504c2c007a16070048
:10210000114d2c002000200087160700f900070061
:10211000fbff37000200fa00c14d2c001000200028
:1021200081160700000f78001e007800e10f5000b4
:1021300002003a00d482a800040037001e00780094
:10214000e20f500001003a00d4a2a8000080fa007b
:10215000000006000200fa00000f78001e00780060
:10216000e60f50000c0032001e007800f00f500007
:10217000090032001e007800f10f50000600320006
:102180001e007800e30f5000030032001e007800ac
:10219000e50f500002003a00100020000100370057
:1021a0000000eb000080fa00000006000400fa00c6
:1021b000004780000000e00031003400004780004c
:1021c0000000400030ff0700e0468800f141800039
:1021d00070032000808f500007003200f041800023
:1021e000fe0f500004003200004780000000400055
:1021f00025ff0700f04688000000eb00000f780084
:102200001c003700414e2c0020002000461607001d
:1022100010079800e14680001e0078000000400092
:10222000008040009e00900001087800f14180008d
:1022300070032000808f50000d003200f0418000bc
:10224000fe0f50000a003200214f2c002000200019
:102250003516070010079800f14680001e00780030
:1022600000004000008040009e00900001087800bf
:102270001e0fe800004780009e0f5000e1ff3c0069
:10228000304780000000e000230034003047800029
:1022900000004000fcfe0700104788003047800027
:1022a00000004000f8fe0700204788000000eb0017
:1022b000000f780015003700e14f2c0020002000af
:1022c0001916070010079800114780001e007800bb
:1022d00000004000008040009e009000010878004f
:1022e000d1502c00200020000f1607001007980086
:1022f000214780001e007800000040000080400060
:102300009e009000010878001e0fe8003047800012
:102310009e0f5000e8ff3c00504780000000e000a6
:10232000150034005047800000004000d6fe070032
:10233000404788000000eb00000f78000b003700da
:10234000a1512c0020002000f7150700100798006d
:10235000414780001e0078000000400000804000df
:102360009e009000010878001e0fe8005047800092
:102370009e0f5000f2ff3c000080fa0000000600b3
:102380000200fa00a1522c0010002000e615070000
:10239000000f78001e007800e20f500008003200a5
:1023a000e30f50000a003200e10f500013003a0022
:1023b00011002000400020007a1607000f003700af
:1023c0001100200030002000761607000b003700b7
:1023d00011002000400020007216070000000000dd
:1023e00000000000000000000000000011002000bc
:1023f000300020006b160700000000000080fa008b
:10240000000006000a00fa00300798004107980013
:102410004e0090000000e00004003a0091532c00b0
:1024200010002000c0150700400798000000eb00d6
:10243000100798000000eb00200798004e00900065
:10244000e10f500005003a004000200010079800fe
:102450001142800021079800070037004e009000cd
:10246000e20f500004003a003000200010079800ee
:1024700021428000210798000000eb00000f780047
:1024800016003700110020001e00900045160700be
:102490002e009000091107008000eb001e00900044
:1024a00040160700ae009000401f2000808f5000b3
:1024b00005003c00411f20002e00900000805000cd
:1024c000fe10070004003700017d20002e00900060
:1024d00000805000f91007001e0fe8003e00900039
:1024e0009e007800808f5000e6ff35000080fa00e3
:1024f000000006008000fa00703f98000000eb002a
:10250000291207004200dd0060418800a000200081
:10251000251207004200dd00b040880020002000a6
:102520002112070010428800c00020001e12070080
:102530002042880020408000314080000000780068
:10254000c2fe07007e3890006101b900b0fe2f0086
:10255000f1ff2f00020040008380480002052000a8
:1025600003002000820f5000838f5800ea053e00d0
:1025700000600100500037005f0037006000370046
:10258000640037006500370070003700990037009d
:10259000c6003700c7003700ca003700cb0037003d
:1025a000dd053700ce003700010137003401370068
:1025b0005f0137008e013700bb013700e8013700ab
:1025c000130237003c0237006702370090023700e1
:1025d000b0023700b1023700f20237000c033700b7
:1025e000330337005c033700cb0537008403370023
:1025f0008503370088033700b4033700060437002b
:10260000c5053700c4053700c3053700c2053700cc
:10261000c10537004404370079043700b804370097
:10262000eb0437001e0537005105370084053700dd
:10263000b9053700b8053700b7053700b6053700cc
:10264000b5053700b4053700b3053700b2053700cc
:10265000b1053700b0053700af053700ae053700cc
:10266000ad053700ac053700ab053700aa053700cc
:10267000a9053700a8053700a7053700a6053700cc
:10268000a5053700a4053700a3053700a2053700cc
:10269000a1053700a00537009f0537009e053700cc
:1026a0009d0537009c0537009b0537009a053700cc
:1026b000990537005203370081542c001000200088
:1026c0001915070050079800f1542c002000200035
:1026d000151507006007980061552c0010002000b8
:1026e00011150700700798007e019000ee00900021
:1026f0005e009000a00507007f06070096053700e2
:10270000c1552c001000200007150700004288006a
:1027100091053700380807008f05370010002000aa
:10272000b0488800d1562c0020002000fe1407007d
:10273000000f98008e089000400620000088b90025
:10274000000078003907070083053700a1572c00e7
:10275000b0572c00e414070041582c001000200052
:10276000f1140700100f98001e0890000000e00010
:10277000020032002000200001003700a0002000ed
:1027800080468800b0002000904688006006200047
:10279000f0418800e1582c0010002000e2140700ee
:1027a000b047880020002000004788007ffe070017
:1027b000f1592c0020002000db140700e0478800be
:1027c000e15a2c0020002000d7140700f0478800b1
:1027d000b15b2c0020002000d3140700200f9800cc
:1027e0002e0990004101200040012000680c0700e4
:1027f000590537008106200081004700a2842c0083
:102800000a000900b21878000000eb00000f780001
:10281000080037001e00780000004000000047005c
:102820004030900012002000a10020007305070036
:102830001e0fe8001e007800ea0f5000f5ff36007a
:102840000000eb00000f780011003700110020009d
:1028500040002000531507001042800017100700a9
:102860008000eb00400020004e1507001142800060
:10287000401f2000808f500004003c001042800068
:10288000411f2000008050000c1007001e0fe800c0
:102890001e007800f30f5000ecff3400a08d2000e4
:1028a00011c0b300014878002b053700b4fe0700c3
:1028b000290537008000eb0040062000d1fe07000c
:1028c000250537000b0c070023053700b15c2c00f1
:1028d0001000200094140700ad0e07001e053700fd
:1028e000c15d2c00405e2c007f14070020002000fa
:1028f0008046880030062000f0418800100020004b
:10290000304888000000eb00b0478800200020001d
:10291000004788000000eb00504788000047800017
:102920000000400058fd0700e04688000047800096
:102930000000400054fd0700f0468800e04680009b
:102940006100200001087800e04680000080e80077
:102950007100200001087800f0468000510020003e
:1029600001087800f04680000080e800c1002000e7
:102970000108780050002000e0478800a0002000f7
:10298000f04788004000200010488800b15b2c0010
:102990002000200064140700300f98003e099000ca
:1029a0004101200040012000f90b0700ea04370034
:1029b000915e2c00405e2c004b140700200020008c
:1029c00080468800e0062000f04188000000eb000f
:1029d000304888000000eb00b0478800200020004d
:1029e000004788000000eb00504788000047800047
:1029f0000000400024fd0700e046880000478000fa
:102a00000000400020fd0700f0468800e0468000fe
:102a10006100200001087800e04680000080e800a6
:102a20007100200001087800f0468000510020006d
:102a300001087800f04680000080e800c100200016
:102a40000108780050002000e0478800a000200026
:102a5000f04788004000200010488800b15b2c003f
:102a60002000200030140700400f98004e0990000d
:102a70004101200040012000c50b0700b6043700cb
:102a8000215f2c00b05f2c001714070041582c0068
:102a90001000200024140700500f98005e089000da
:102aa0000000e0000200320020002000010037009a
:102ab000a000200080468800b000200090468800da
:102ac00060062000f0418800e1582c001000200032
:102ad00015140700b0478800400020000047880018
:102ae0000000eb0050478800b0fd0700f1592c00b2
:102af000200020000c140700e0478800e15a2c0059
:102b00002000200008140700f0478800b15b2c006b
:102b10002000200004140700600f98006e09900048
:102b20004101200080022000990b07008a04370031
:102b3000b1602c0000612c00eb13070041582c0001
:102b400010002000f8130700700f98007e08900016
:102b50000000e000020032002000200001003700e9
:102b60001000200080468800b000200090468800b9
:102b7000e0012000f041880081612c00100020005d
:102b8000e91307005047880021622c001000200044
:102b9000e5130700304888000000eb00b0478800cc
:102ba000200020000047880080fd0700f1592c001c
:102bb00020002000dc130700e0478800e15a2c00c9
:102bc00020002000d8130700f0478800b15b2c00dc
:102bd00020002000d4130700001798000e11900069
:102be0004101200040012000690b07005a04370012
:102bf000c1622c00b0632c00bb13070041582c00ad
:102c000010002000c8130700101798001e10900035
:102c10000000e00002003200200020000100370028
:102c2000a000200080468800b00020009046880068
:102c300000032000f0418800100020003048880088
:102c40000000eb00504788000000eb00b047880010
:102c500060002000004788006000200010488800c5
:102c600052fd0700f1592c0020002000ae13070090
:102c7000e0478800e15a2c0020002000aa1307003a
:102c8000f0478800b15b2c0020002000a61307004d
:102c9000201798002e11900041012000c003200051
:102ca0003b0b07002c04370041642c00b05f2c0064
:102cb0008d13070041582c00100020009a130700c4
:102cc000301798003e1090000000e0000200320033
:102cd0002000200001003700a0002000804688006e
:102ce000b00020009046880060062000f041880077
:102cf000e1582c00100020008b130700b04788001b
:102d00006000200000478800600020001048880014
:102d10000000eb005047880024fd0700f1592c000b
:102d20002000200080130700e0478800e15a2c00b3
:102d3000200020007c130700f0478800b15b2c00c6
:102d40002000200078130700401798004e119000d3
:102d500041012000c00320000d0b0700fe033700d7
:102d6000c1622c00b0632c005f13070041582c0097
:102d7000100020006c130700501798005e109000a0
:102d80000000e000020032002000200001003700b7
:102d90001000200080468800b00020009046880087
:102da00000032000f04188000000eb00504788003d
:102db0000000eb00b047880060002000004788005a
:102dc0006000200010488800f8fc0700f1592c0032
:102dd0002000200054130700e0478800e15a2c002f
:102de0002000200050130700f0478800b15b2c0042
:102df000200020004c130700601798006e1190000f
:102e000041012000c0032000e10a0700d20337007f
:102e1000c1622c00d0642c003313070041582c00f1
:102e20001000200040130700701798007e109000db
:102e30000000e00002003200200020000100370006
:102e40001000200080468800b000200090468800d6
:102e500000032000f04188000000eb00504788008c
:102e60000000eb00b04788006000200000478800a9
:102e700010002000304788006000200010488800c3
:102e8000cafc0700c0002000e04788005000200076
:102e9000f0478800b15b2c002000200022130700bf
:102ea000001f98000e19900041012000c00320006f
:102eb000b70a0700a8033700c1622c00e0652c00a8
:102ec0000913070041582c001000200016130700ba
:102ed000101f98001e1890000000e0000200320051
:102ee00020002000010037001000200080468800ec
:102ef000b00020009046880000032000f0418800c8
:102f000010002000304888000000eb005047880087
:102f10000000eb00b04788006000200000478800f8
:102f20002000200030478800600020001048880002
:102f30009efc0700c0002000e047880050002000f1
:102f4000f0478800b15b2c0020002000f61207003b
:102f5000201f98002e19900041012000c00320007e
:102f60008b0a07007c033700c1622c00e0652c004f
:102f7000dd12070041582c0010002000ea12070063
:102f8000301f98003e1890000000e0000200320060
:102f9000200020000100370010002000804688003b
:102fa000b00020009046880000032000f041880017
:102fb0000000eb00504788000000eb00b04788009d
:102fc0006000200000478800200020003047880073
:102fd000600020001048880074fc0700c00020003a
:102fe000e047880050002000f0478800b15b2c00cb
:102ff00020002000cc120700401f98004e199000be
:1030000041012000c0032000610a0700520337007d
:10301000b1662c0020002000c3120700501f98004a
:1030200071672c0020002000bf120700601f98006d
:10303000f1672c0020002000bb120700701f9800d1
:1030400071682c0020002000b712070000279800ac
:10305000de18900011079800070037007e199000d5
:103060008e2090001e009000640307001e00900058
:103070000000e80010079800de1890006e1890001d
:10308000808040001e009000808f5000f3ff3c00c5
:10309000310337001ffc07002f033700c1682c00e5
:1030a000b0632c009012070041582c001000200043
:1030b0009d120700102798001e21900032488800ba
:1030c0001e2090000000e0000200320020002000de
:1030d000010037001000200080468800b00020006a
:1030e0009046880000032000f04188000000eb00bb
:1030f000504788000000eb00b0478800d1692c00e1
:1031000010002000881207000047880027fc0700f5
:103110000000eb002007980000478000e40f5000fb
:1031200007003200e60f500008003200e20f5000a6
:103130000b003a00400120002007980008003700eb
:103140008002200020079800050037006000200062
:1031500010488800c00320002007980000000000ed
:10316000f1592c00200020006f120700e047880072
:10317000e15a2c00200020006b120700f047880065
:10318000b15b2c0020002000671207002027980068
:103190002e219000410120002e009000fc09070024
:1031a000ed023700816a2c00b0632c004e1207003c
:1031b000f00020008046880000032000f0418800d5
:1031c0000000eb00504788000000eb00b04788008b
:1031d0006000200000478800600020001048880040
:1031e000f2fb070080002000e0478800500020002c
:1031f000f0478800e0012000302798003e21900031
:1032000041012000c0032000e1090700d20237007d
:10321000316b2c00c06b2c003312070041582c007e
:103220001000200040120700402798004e20900018
:103230000000e00002003200200020000100370002
:103240003000200080468800b000200090468800b2
:10325000d0052000f04188000000eb00b047880056
:103260002000200000478800200020003047880010
:103270000000eb0050478800ccfb0700a0002000b6
:10328000e0478800f0002000f0478800b15b2c0088
:103290002000200024120700502798005e21900093
:1032a0008102200040012000b9090700aa0237006e
:1032b000316b2c00c06b2c000b12070041582c0006
:1032c0001000200018120700602798006e20900060
:1032d0000000e00002003200200020000100370062
:1032e000a000200080468800b000200090468800a2
:1032f000e0052000f04188000000eb00b0478800a6
:10330000200020000047880010002000304788007f
:103310000000eb0050478800100020003048880073
:10332000a2fb0700a0002000e0478800f00020007a
:10333000f0478800b15b2c0020002000fa11070044
:10334000702798007e21900081022000400120001b
:103350008f09070080023700f1542c002000200064
:10336000f1110700002f98000e289000ef0f500079
:10337000030034000e289000700050000100370058
:103380000e289000c20d07000e289000ef0f50008d
:1033900002003c00e0ff2f0001003700b0ff2f00cb
:1033a000f60d0700401f2000440d07000e28900076
:1033b000ef0f500002003c00c0ff2f00010037005b
:1033c00030ff2f00ed0d070000a62e003b0d07007b
:1033d0000e289000ef0f500002003c00d0ff2f009d
:1033e0000100370070ff2f00e40d0700800c200063
:1033f000320d0700f0002000e00d070056023700f4
:103400001c0c07005402370010002000b048880050
:103410004e0407005002370010002000b04888001a
:10342000a1572c00606c2c00af1107002000200079
:103430008046880070032000f0418800f16c2c0069
:1034400010002000b811070030488800016e2c00e1
:1034500010002000b411070000488800e1582c003b
:1034600010002000b0110700b047880020002000a5
:103470000047880010002000504788004bfb0700e1
:10348000f1592c0020002000a7110700e047880018
:10349000e15a2c0020002000a3110700f04788000b
:1034a000b15b2c00200020009f110700102f980016
:1034b0001e29900041062000400120003409070029
:1034c0000000eb00b0488800230237001000200005
:1034d000b0488800a1572c00006f2c008211070013
:1034e000200020008046880070032000f041880002
:1034f000f16c2c00100020008b1107003048880070
:10350000016e2c0010002000871107000048880081
:10351000e1582c001000200083110700b0478800fc
:103520000000eb00b0478800200020000047880022
:103530001000200050478800f1592c002000200086
:1035400079110700e0478800e15a2c002000200094
:1035500075110700f0478800b15b2c0020002000a7
:1035600071110700202f9800e16f2c00200020002f
:103570006d110700300798000047800000004000f0
:1035800041fa0700e04688005047800000004000f4
:103590003dfa070040478800404780008000eb006c
:1035a00001087800160037003e00900061006000be
:1035b0000000e00002003a00600020000100370037
:1035c00070002000302f9800e0468000be28900058
:1035d00001087800e04680000080e8003e29900065
:1035e000020878002e2990004106200040002000ab
:1035f000e70807003e0090000000e900300798004f
:103600003e0090000000e000e7ff3c000000eb00ff
:10361000b0488800d0013700a1572c00e0702c0082
:103620003111070020002000804688007003200030
:10363000f041880060002000104888002000200031
:103640003048880010002000004888000000eb008f
:10365000b04788006000200000478800100020006c
:1036600050478800004780000000400006fa07002d
:10367000e0468800504780000000400002fa070042
:1036800040478800404780008000eb000108780038
:10369000e04680006100200001087800e0468000dc
:1036a0000080e8007100200001087800e0468000fa
:1036b000640040000101200001087800e04680001d
:1036c000660040001101200001087800e0468000fb
:1036d000680040002101200001087800e0468000d9
:1036e0006a0040003101200001087800200020001d
:1036f000e047880080002000f0478800b15b2c0084
:103700002000200008110700402f98004e2990004b
:1037100081012000800120009d0807000000eb00cf
:10372000b04888008c013700c15d2c00b0712c00be
:10373000ed1007002000200080468800a000200037
:10374000f041880010002000304888000000eb00a5
:10375000b047880020002000004788000047800014
:1037600000004000c8f90700e046880000478000dc
:1037700000004000c4f90700f0468800e0468000e1
:103780002100200001087800e04680000080e80069
:103790003100200001087800f04680002100200060
:1037a00001087800f04680000080e8003100200029
:1037b000010878000000eb0050478800f1592c0008
:1037c00020002000d8100700e0478800e15a2c00b4
:1037d00020002000d4100700f0478800b15b2c00c7
:1037e00020002000d0100700502f98005e29900084
:1037f00021032000c00020006508070056013700a3
:1038000001722c00b0712c00b710070020002000be
:103810008046880040012000f041880051722c0051
:1038200010002000c0100700304888000000eb00a6
:10383000b047880020002000004788000047800033
:103840000000400090f90700e04688000047800033
:10385000000040008cf90700f0468800e046800038
:103860002100200001087800e04680000080e80088
:103870003100200001087800f0468000210020007f
:1038800001087800f04680000080e8003100200048
:10389000010878000000eb0050478800f1592c0027
:1038a00020002000a0100700e0478800e15a2c000b
:1038b000200020009c100700f0478800b15b2c001e
:1038c0002000200098100700602f9800e04780003b
:1038d000f30f500005003400104280008080d100ba
:1038e0001042800000804000104288006e29900045
:1038f00021032000c0002000250807001601370022
:1039000021732c00f0732c00771007002003200097
:103910008046880050012000f04188000000eb0044
:10392000304888000000eb00b047880020002000ed
:1039300000478800004780000000400052f907005f
:10394000e046880000478000000040004ef9070074
:10395000f0468800e0468000210020000108780041
:10396000e04680000080e800310020000108780077
:10397000f04680002100200001087800f046800019
:103980000080e80031002000010878000000eb0012
:1039900050478800c0002000e047880080012000d8
:1039a000f04788008002200010488800b15b2c009e
:1039b000200020005c100700702f98007e299000e6
:1039c0002103200080022000f1070700e2003700f9
:1039d00021732c0080742c0043100700200320006a
:1039e0008046880050012000f04188000000eb0074
:1039f000304888000000eb00b0478800200020001d
:103a00000047880000478000000040001ef90700c2
:103a1000e046880000478000000040001af90700d7
:103a2000f0468800e0468000210020000108780070
:103a3000e04680000080e8003100200001087800a6
:103a4000f04680002100200001087800f046800048
:103a50000080e80031002000010878000000eb0041
:103a600050478800c0002000e04788008001200007
:103a7000f04788008002200010488800b15b2c00cd
:103a80002000200028100700003798000e31900019
:103a90002103200080022000bd070700ae00370090
:103aa00021732c00f0732c000f100700200320005e
:103ab0008046880050012000f04188000000eb00a3
:103ac000304888000000eb00b0478800200020004c
:103ad000004788000047800000004000eaf8070027
:103ae000e04688000047800000004000e6f807003c
:103af000f0468800e04680002100200001087800a0
:103b0000e04680000080e8003100200001087800d5
:103b1000f04680002100200001087800f046800077
:103b20000080e80031002000010878000000eb0070
:103b300050478800c0002000e04788008001200036
:103b4000f04788008002200010488800b15b2c00fc
:103b500020002000f40f0700103798001e3190005d
:103b60002103200080022000890707007a00370027
:103b700021732c0080742c00db0f07003003200021
:103b80008046880050012000f04188000000eb00d2
:103b9000304888000000eb00b0478800200020007b
:103ba000004788000047800000004000b6f807008a
:103bb000e04688000047800000004000b2f807009f
:103bc000f0468800e04680002100200001087800cf
:103bd000e04680000080e800310020000108780005
:103be000f04680002100200001087800f0468000a7
:103bf0000080e80031002000010878000000eb00a0
:103c00005047880040012000e047880080022000e3
:103c1000f04788000003200010488800b15b2c00aa
:103c200020002000c00f0700203798002e319000a0
:103c3000210320000003200055070700460037003d
:103c400021732c0040752c00a70f070040032000b3
:103c50008046880060012000f04188000000eb00f1
:103c6000304888000000eb00b047880020002000aa
:103c700000478800004780000000400082f80700ed
:103c8000e046880000478000000040007ef8070002
:103c9000f0468800e04680002100200001087800fe
:103ca000e04680000080e800310020000108780034
:103cb000f04680002100200001087800f0468000d6
:103cc0000080e80031002000010878000000eb00cf
:103cd0005047880040012000e047880071682c00b0
:103ce00020002000900f0700f0478800000220000d
:103cf00010488800b15b2c00200020008a0f0700cc
:103d000030379800104880003e3190002103200099
:103d10001f07070010003700fe3890004107980089
:103d200007003700a2002000810020004e00900014
:103d3000320007004e0090000000e80040079800a5
:103d40007e389000e40040004e009000808f5000cc
:103d5000f4ff3c0000000000e0468000e5f70700ab
:103d6000f0468000e3f7070040478000e1f70700d6
:103d70000080fa00000006000600fa00000f78003c
:103d80001107980022079800270d0700300d070043
:103d900020762c00fe0c07000001eb0061002000e3
:103da0001e007800b70e07001200200061002000fe
:103db0001e009000b30e07001e0090000000e900f6
:103dc000330b070001003700000000001e80ea00ee
:103dd0006a0b07002e0090000000e000faff3a0096
:103de000401f2000b50a0700f0002000630b070009
:103df000401f2000b10a0700f4ff37001400fa004a
:103e000070079800010f9800120f9800401f2000c3
:103e100010079800803e200020079800300c2000fa
:103e2000300798000000eb00000f7800ac0037006e
:103e3000fd0c0700060d070000772c00d40c0700ce
:103e400011c0b3000040eb000b0d070060772c00a1
:103e5000cf0c07001e00e8001200200071002000b7
:103e6000880e07000001eb00610020007e0090003a
:103e7000840e07007e009000ef0f50000300340016
:103e80007e00900070005000010037007e0090001e
:103e9000400798007e009000ef0f500002003c00a9
:103ea000100020000100370040002000500798005b
:103eb0007e009000ef0f500002003c002000200028
:103ec000010037008000200060079800fe0090008d
:103ed00030002000ab0a07004e009000ec0a0700fb
:103ee0005e0090000080ea00240b07001e00900096
:103ef000720a0700e702a800de0090006e00900042
:103f0000010070000080ea001c0b07007e0090009a
:103f1000700060004480de00004078006140600076
:103f20000080fb00610060004900dd003117800067
:103f30000190a10001007000301788002e01900050
:103f4000706626000090b9008180d1004f90de009d
:103f500000805000590a07007e0090006800600051
:103f60004380de0000407800614060000080fb007c
:103f7000610060004900dd00311780000190a10060
:103f800001007000301788002e0190007066260036
:103f90000090b9008180d1004f90de000080500079
:103fa000460a07007e009000640060004280de0048
:103fb00000407800614060000080fb00610060000c
:103fc0004900dd00311780000190a1000100700060
:103fd000301788002e019000706626000090b9000e
:103fe0008180d1004f90de0000805000330a07002e
:103ff0007e009000620060000080d10000407800e8
:10400000614060000080fb00610060004900dd004d
:10401000311780000190a100010070003017880066
:104020002e019000706626000090b9008180d100ba
:104030004f90de0000805000200a07007e009000b4
:1040400000407800614060006140600061406000b5
:104050000080fb00610060004900dd003117800036
:104060000190a10001007000301788002e0190001f
:10407000706626000090b9008180d1004f90de006c
:10408000808050003e009000008050000b0a070026
:104090006e0090000080ea00b80a07003e00900021
:1040a000060a0700e722a900f0002000b30a070073
:1040b0008000eb0030002000320a0700e702a90070
:1040c0008e089000803e20000088b90080007800b3
:1040d0001e00900000805000f80907001e0fe80045
:1040e0001e0890009e007800808f500050ff350021
:1040f0000080fa00000006000800fa00d1772c00ca
:1041000010002000880e0700000f78001e007800c5
:104110000000e00002003a0080408000010037000b
:1041200090408000300798003e019000b047210089
:104130000090b900c388de004f90de000080500080
:10414000100798003e009000b14721000181b9009e
:104150004399de00cf80de000101510041062000be
:104160000191b900820078000100500020079800fa
:104170009e00900070012000020a0700ae0090002f
:1041800080012000ff09070020032000cb09070061
:10419000deff37000600fa00889fbe0081408000e5
:1041a0009040800000805000cf80de00f5f50700d1
:1041b0000004be00814080009040800000804000ec
:1041c000cf80de00eff507000001be000800be0052
:1041d00089f507000200200003f8230029f50700f5
:1041e00002002000034024003cf60700c4f507004d
:1041f00000007800200798002e019000b0472100b1
:104200000090b900c388de004f90de00008f5000a0
:104210002e009000b14721000181b9004399de00d2
:10422000cf80de0001015100410620000191b9005c
:104230008200780001005000100798009e0078006e
:1042400070012000cf0907009e009000800120002f
:10425000cc09070090012000980907002e0090006b
:104260008000eb00210f0700900120009309070058
:10427000caff37000200fa00f0f32f00f0168800a2
:104280000000eb00000f78001e00a2001e00780066
:1042900000407800614060000080fb006100600029
:1042a0004600dd00011780000160a10001007000e0
:1042b000001788000000000000000000000000005f
:1042c0001e00780000407800614060000080fb0024
:1042d000610060004800dd00411680000180a100ff
:1042e000010070004016880000000000000000007f
:1042f000000000001e00780000407800614060006f
:104300000080fb00610060004900dd004116800074
:104310000190a1000100700040168800000000001c
:1043200000000000000000001e007800004078003f
:10433000614060000080fb00610060004700dd001c
:10434000011780000170a1000100700000178800b3
:104350000000000000000000000000001e007800c7
:1043600000407800614060000080fb006100600058
:104370004600dd00011780000160a100010070000f
:10438000001788000000000000000000000000008e
:104390001e00780000407800614060000080fb0053
:1043a000610060004e00dd001116800001e0a100f8
:1043b00001007000101688000000000000000000de
:1043c000000000001e00780000407800614060009e
:1043d0000080fb00610060004c00dd00a116800041
:1043e00001c0a10001007000a016880000000000bc
:1043f00000000000000000001e007800004078006f
:10440000614060000080fb00610060004d00dd0045
:10441000a116800001d0a10001007000a016880044
:10442000a00f20002509070097ff37000600fa00bb
:10443000200798000000eb00904888006041800051
:104440008b0e07000000eb00000f78000000eb006f
:1044500010079800740b07007d0b070090782c0064
:104460004b0b0700803e2000010020000040880028
:1044700011408800010037000000000091488000d2
:104480001e009000808f5000170036002e00900014
:104490006101b9000040800011408000800f510090
:1044a000818f59000a003e001100200040002000ca
:1044b0003c0e07000028ef000228ef001e0fe80066
:1044c0001e00780012002000c1002000ed0c070043
:1044d00091488000110798001e0090000001eb0039
:1044e000b1002000e70c0700104280006101b90014
:1044f0000040800011408000800f5100818f5900e2
:1045000003003e008000eb0040002000250e070065
:104510004141800010032000808f5000d6ff3a00f8
:1045200011002000400020001e0e070010428000f5
:10453000e20807008000eb0040002000190e070091
:104540000080eb0040418800ccff37000a00fa00f1
:1045500020032000f04188000000eb00000f7800ed
:104560000000eb00904888000000eb00a0488800a5
:104570000000eb00100798000000eb0020079800f7
:104580000000eb003007980041792c00200020004b
:10459000650d070040079800517a2c00707a2c00b6
:1045a000510d0700ce009000400620000088b900a1
:1045b00000007800cf80de000040880011408800b5
:1045c0000100370000000000914880002e0090009c
:1045d000808f50002a003600ce0090004006200058
:1045e0000088b900000078006101b9000040800037
:1045f00011408000800f5100818f59001900310057
:104600001e007800e40f5000160032001100200058
:1046100060012000db08070011002000400020009e
:10462000e00d070040002000000f78000028ef0098
:104630000228ef008040eb00f0c0b3000e0b070033
:10464000c0c4b300c70a07001e0090000000e800c5
:10465000100798001e00900012002000210020008a
:10466000880c0700904880000001eb00210020002a
:10467000840c070091488000210798002d00370026
:10468000a14880003e009000808f50002900360035
:10469000ce009000400620000088b900000078009d
:1046a0006101b9000040800011408000800f51007e
:1046b000818f5900190031001e007800e30f50006f
:1046c000160032002100200060012000ad08070024
:1046d0001100200030002000b20d07003000200043
:1046e000000f78000028ef000228ef008040eb0068
:1046f000f0c0b300e00a070020c5b300990a070024
:104700001e0090000000e800100798001e009000b6
:1047100012002000210020005a0c0700a048800051
:104720000001eb00a1002000560c0700a14880000a
:1047300031079800104280006101b90000408000fc
:1047400011408000800f5100818f5900030031001b
:104750008000eb0040002000920d07002042800006
:104760006101b9000040800011408000800f5100bd
:10477000818f5900030031008000eb0030002000e1
:10478000880d07004141800010032000808f5000f9
:104790000a003a001100200040002000810d0700af
:1047a00010428000450807008000eb004000200018
:1047b0007c0d07000080eb004041880041418000f3
:1047c00020032000808f50007eff3a00110020005f
:1047d00030002000730d07002042800037080700da
:1047e0008000eb00300020006e0d07000080eb0021
:1047f0004041880074ff37000400fa0060418000e7
:104800009b0d0700b0408000990d0700117b2c0024
:1048100010002000c40c0700000f7800017c2c0061
:1048200030002000c00c0700100798001e00900008
:104830008f0d07001e007800e10f500006003a00bf
:104840001e0090004280de00800078000000eb0037
:1048500036090700080037001e007800e20f5000fc
:1048600005003a001e0090004280de0080007800c3
:10487000a00020002d09070000000000000000003b
:10488000000000000000eb00470907004200dd00c7
:1048900060418800a0002000430907004200dd00bd
:1048a000b04088000080fa00000006000800fa000e
:1048b0001007980021079800320798002e009000fa
:1048c000ef0f5000030034002e00900070005000e5
:1048d000010037002e0090006d0807001e009000b8
:1048e000e10f5000060032001e009000e20f500061
:1048f000030032001e009000e60f500009003a004d
:104900002e009000ef0f500002003c00e0ff2f004f
:1049100001003700b0ff2f0098080700401f20005b
:10492000d50d07001e009000e30f500012003a0062
:104930002e0090000000e00003003c002e009000dc
:104940004006b000010037002e0090008000780083
:10495000300020000b0807002e009000ef0f5000e1
:1049600002003c00e0ff2f0001003700b0ff2f00e5
:1049700082080700c20037002e0090000000e0000f
:1049800005003a00e11680000030200001007000b0
:10499000e0168800070037002e009000edf50700b4
:1049a0000000e00002003200db02a8000100370036
:1049b000db22a8002e009000ef0f500002003c0008
:1049c000c0ff2f000100370030ff2f006b080700e9
:1049d0000000eb00000f78001e009000e40f500074
:1049e00017003200e40f500004003c000000e90012
:1049f000e10f50001e003e0007003700e60f500098
:104a000015003200e60f500010003500e70f50008f
:104a100014003200160037002e009000cdf507007c
:104a20000000e0000300320090002000000f78003a
:104a30000f003700a0002000000f78000c003700a6
:104a400030052000000f78000900370050052000d5
:104a5000000f780006003700b0002000000f78003b
:104a600003003700c0002000000f780000000000a5
:104a70002e0090000000e00003003a002e0090009d
:104a80004006b000010037002e0090008000780042
:104a90001e007800bb0707008040eb0030c0b30069
:104aa000f50907001e009000e40f50001a003200c4
:104ab000e40f500005003c00e10f50000a003200f6
:104ac000e20f50000e00320029003700e60f5000c0
:104ad0001b003200e60f500015003500e70f5000b4
:104ae0001d0032002200370010c3b3009d090700eb
:104af00060478000800cb1005f0d07001c0037008c
:104b000020c3b3009709070080478000800cb100e4
:104b1000590d07001600370030c3b3009109070094
:104b2000a0478000800cb100530d07001000370033
:104b3000d0478000800cb1004f0d07000c003700fb
:104b400050c7b3008709070070478000800cb10090
:104b5000490d07000600370050c5b3008109070062
:104b600090478000800cb100430d0700000000005a
:104b70002e009000ef0f500002003c00d0ff2f00ed
:104b80000100370070ff2f00fc070700800c200099
:104b9000390d0700f0002000f80707008000eb0047
:104ba0001e007800770707008040eb0030c0b3009c
:104bb000b10907001e009000e40f500024003200ed
:104bc000e40f500005003c00e10f500008003200e7
:104bd000e20f50001200320029003700e60f5000ab
:104be0001e003200e70f50001f0032002400370083
:104bf00040c6b3005b090700604780008000780072
:104c0000703e2000808f50001a003e0060478000f8
:104c1000813e200000805000170d0700180037006b
:104c200040c4b3004f09070080478000800078002f
:104c3000703e2000808f500010003e0080478000b2
:104c4000813e2000008050000b0d07000c00370053
:104c500020c5b300430907000900370040c6b30070
:104c6000400907000600370040c6b3003d090700b1
:104c700003003700000000000100370000000000c2
:104c80000000000000000000e1168000f0cf2f00bf
:104c900000806000e01688000080fa000000060036
:104ca0000400fa00000f780011079800110020009e
:104cb000600120003307070081488000c004200005
:104cc000808f500009003a001100200040002000b1
:104cd000340c070010428000e70c07008000eb0056
:104ce000400020002f0c07000c0037008148800096
:104cf00020052000808f500008003a00110020009d
:104d000030002000270c070020428000da0c07004a
:104d10008000eb0030002000220c07002228ef006a
:104d20009e0078007000200016070700c040800039
:104d30000000e800c0408800c04080000001eb0097
:104d400051002000cf0a07000080fa000000060092
:104d50000200fa00000f78002228ef009e00780081
:104d60004000200007070700e04080000000e80046
:104d7000e0408800e0408000120020005100200048
:104d8000c00a07000080fa00000006000200fa00d6
:104d9000000f7800104180000000e80010418800fa
:104da0009e00780060002000f6060700d0408000da
:104db0000000e800d0408800d04080000001eb00f7
:104dc00091002000af0a0700b04780000000e0001b
:104dd0000200340080382100a70c07000080fa0090
:104de000000006000c00fa00881f780020079800d9
:104df0003107980042079800530798000000eb0025
:104e0000000f78000000eb00100798000000eb0096
:104e100080488800f0418000fe0f500004003200fe
:104e200071032000810f500053003200d200370080
:104e30000028ef000228ef000200370050488000f1
:104e4000804888005e0090006101b9000040800049
:104e500011408000800f5100818f590003003600ff
:104e6000804880000000e000f4ff32002040800015
:104e700031408000404088005140880080488000d8
:104e80000000e00031003a002e009000b1f407006d
:104e90000000e0000b003a0011002000500020004c
:104ea000b8060700f04080000000e800f0408800ed
:104eb000f04080001200200091002000710a0700dd
:104ec0002001370010002000b0ff070018f4070091
:104ed0000142800001017800110009000200d800a1
:104ee0008000fd000000e00005003a00304880002e
:104ef00061006000004078000004e00004003a0017
:104f00004141800010032000808f50000c013a00c6
:104f100011002000600120009a0607001100200007
:104f2000400020009f0b070011002000800020009f
:104f300094060700104280004f0c07008000eb0031
:104f400040002000970b0700fe0037002e00900065
:104f500080f407000000e00003003a001000200089
:104f60007bff0700f7003700110020001000200031
:104f70004bff0700f30037000028ef000228ef0086
:104f8000400037005e009000cf00de00008040004f
:104f90000080d1006101b900004080001140800014
:104fa000800f5100818f590034003a001e0090009c
:104fb0000000e00031003a001000200010079800c7
:104fc000dbf30700014280000101780011000900b5
:104fd0000200d8008000fd000000e00005003a005b
:104fe0003048800061006000004078000004e0006c
:104ff00004003a004141800010032000808f5000df
:105000001e003a0011002000600120005d0607002c
:10501000ce009000800020005a0607002e0090006d
:105020004cf407000000e0000900320011002000ed
:10503000400020005b0b0700104280001f060700a5
:105040008000eb0040002000560b070008003700ee
:105050001100200030002000520b07002042800089
:10506000160607008000eb00300020004d0b070003
:105070000080eb00404188000c0037005048800061
:10508000804888005e0090006101b9000040800007
:1050900011408000800f5100818f590003003600bd
:1050a000804880000000e000b6ff32002040800011
:1050b0003140800040408800514088002e00900020
:1050c00024f407000000e00002003200100020007d
:1050d0000100370020002000400798008048800031
:1050e0000000e00006003a004e00900027ff070095
:1050f000b04780000000a000b04788009100370052
:105100002e00900013f407000000e00004003200bd
:105110008148800020052000808f50000800320068
:1051200081488000c0042000808f50000a003a00af
:105130002e00900007f407000000e00006003a008f
:105140004e00900002ff0700b04780000000a00062
:10515000b04788007b003700110020004e0090000f
:10516000cffe0700b1478000e00f20000080600004
:10517000b0478800730037000028ef000228ef00d6
:10518000330037005e009000cf00de00008040005a
:105190000080d1006101b900004080001140800012
:1051a000800f5100818f590027003a001e009000a7
:1051b0000000e00024003a001000200010079800d2
:1051c0005bf3070001428000010178001100090033
:1051d0000200d8008000fd000000e00005003a0059
:1051e0003048800061006000004078000004e0006a
:1051f00004003a004141800010032000808f5000dd
:1052000011003a001100200060012000dd050700b8
:10521000ce00900080002000da0507001100200079
:1052200040002000df0a070010428000a3050700ad
:105230008000eb0040002000da0a07000080eb004d
:10524000404188000c0037005048800080488800aa
:105250005e0090006101b9000040800011408000b4
:10526000800f5100818f5900030036008048800074
:105270000000e000c3ff3200204080003140800089
:105280004040880051408800804880000000e000d5
:1052900019003a002e009000aef3070000047800d9
:1052a0003e009000abf30700800f54000d003a0061
:1052b000ce00900050002000b2050700f0408000b2
:1052c0000000e800f0408800f0408000120020005c
:1052d000910020006b09070050002000000f7800ab
:1052e000180037004e009000a8fe07006000200064
:1052f000000f7800130037002e00900095f3070090
:10530000000478003e00900092f30700800f5400e4
:1053100005003a004e0090008dfe0700400020007e
:10532000000f780007003700110020004e009000a9
:105330005bfe070070002000000f780001003700be
:10534000000000001e0078004f0478000080fa0082
:10535000000006000800fa001007980021079800d6
:10536000320798001e019000ae00900060002000ff
:105370004efd07008040eb0030c0b300be070700c1
:1053800040c4b300770707003e0090000000e00033
:1053900003003a0080bb2000370b07002e003700c7
:1053a000803e2000340b0700000f78003e00900084
:1053b000ef0f5000030034003e00900070005000da
:1053c000010037003e009000b10507003e0090004c
:1053d000ef0f500002003c00e0ff2f0001003700fb
:1053e000b0ff2f00e5050700401f2000220b07003b
:1053f0001e0f70001e0078000000e0000a003a0056
:105400001e019000be0090007000200027fd0700e4
:10541000431f200032002000be0090002e009000ac
:1054200070fe07000c003700f0002000d3050700d5
:105430003100200040052000520507008040eb00ad
:1054400030c0b3008c07070010c4b3004507070045
:10545000c05d2000080b07000080fa000000060075
:105460000600fa001007980021079800a147800065
:10547000700c2000808f5000400034000000eb00d2
:10548000000f7800e0478000e10f50001300340067
:10549000e04780008000e900803e20000088b900dd
:1054a00000007800f40a07001e0f7000e04780003b
:1054b00080007800803e20000088b90080007800dd
:1054c00000832f0000804000eb0a07001e0f7000d1
:1054d000401f2000e80a07001e0f700040478000b0
:1054e000100078001e01900080007800300020003d
:1054f000eefc0700401f2000df0a07001e0f7000af
:105500008040eb0030c0b3005b07070030488000ec
:10551000e10f50000f003c001e0078000000e0008a
:105520000c003200f000200094050700ae0090004f
:10553000400520001305070010c4b3000907070049
:10554000004180000000e800004188000000eb00fe
:105550000b00370020c5b30002070700404780005a
:10556000100078001e0190008000780040002000ac
:10557000cefc070010002000010037000000eb0007
:105580000080fa00000006001000fa0030079800c2
:105590004107980052079800630798007407980025
:1055a0002040800031408000404088005140880009
:1055b000f0478000cf80de00823e20000289b900e3
:1055c000020178006002b900840178000301410003
:1055d000833e20000300b8000101410082007800f2
:1055e000224080003340800000004100818049005b
:1055f000803eb0000180b0006040880071408800ab
:10560000fe009000a0032000de0407007e00900052
:1056100000f0a7000000ea000000ea004f00de00f2
:105620008000780010042000d60407008040eb00c2
:1056300030c0b3001007070090c4b300c9060700cc
:10564000f0478000e30f500010003600f047800064
:10565000640f50000400370000a62e00860a0700e1
:1056600041fc2f001e8f4000c00320009e007800e8
:10567000808f5000f8ff3e009e007800803e2000a2
:105680000088b900000078007b0a0700c0da20001b
:10569000790a07008000eb00b0032000b90407007e
:1056a0007e019000be009000100020007ffc0700eb
:1056b000f0418000fe0f50002900320071032000ed
:1056c000810f500028003200e04780000000e00019
:1056d0001e003400304780000000e000120032005d
:1056e000409c2000640a07006e019000de009000dc
:1056f0007e00900017ff0700e0478000e70f500092
:1057000010003600e047800080007800803e2000d6
:105710000088b90080007800000c2e000080400056
:10572000550a070007003700e04780008000780036
:10573000803e20000088b90000007800803eb10063
:105740004d0a0700401f20004b0a07007e01900011
:10575000ce0090002000200054fc0700030037001a
:105760000000000001003700000000000000eb0016
:1057700010079800504780000000e000030032004e
:10578000e10f500013003200260037008040eb008c
:1057900030c0b300b806070020c5b300710607008b
:1057a000304880000000e00002003200007d200050
:1057b00001003700803e20008001780012002000a8
:1057c000ce0090003e00900086fd07001007980074
:1057d000140037003e0090005ef207000000e00079
:1057e00002003200100020000100370020002000dd
:1057f000800078007e00900019ff07000000e000a4
:105800000700320003fa200022002000ce009000a2
:105810003e00900073fd070010079800010037005c
:1058200000000000c1408000f04080008080400007
:10583000d040800080804000e040800080804000b8
:1058400000418000008040002007980012002000e6
:10585000d10020002e0090000a080700c1408000ff
:10586000f0408000008040000000e00012003400a2
:10587000c1408000f0408000808040004006200051
:105880000088b900800078002e00900000017800a8
:10589000110009008200d8002041880020418000ca
:1058a00031062000810f5000010034003006200036
:1058b00020418800010037002428ef0020418000ab
:1058c000e90f500002003400d00020000100370032
:1058d000e0002000234180000001eb008000780000
:1058e00003007800e7070700bf0b07000080fa00fd
:1058f000000006000400fa00104280005c09070066
:10590000204280005a090700017d2c001000200071
:1059100085080700000f7800017e2c003000200071
:1059200081080700100798001e009000500907002a
:105930001e007800e10f500004003a009e00900025
:1059400020002000f9040700060037001e00780040
:10595000e20f500003003a009e009000c0002000bb
:10596000f2040700200020000f0507001042880005
:10597000c00020000c050700204288008000eb00da
:10598000d0032000ff0307000080fa00000006009b
:105990002000fa00500f9800610f9800720f9800d5
:1059a0000000eb00000f78003a28ef0091468000dd
:1059b00061079800104880000000400032f10700a5
:1059c00070079800f04180008000780030032000cc
:1059d000ec0307005702370011002000d00320001d
:1059e000e8030700f17e2c0000802c003e08070031
:1059f000d04180001200200011002000a107070004
:105a00002028ef0000418000f0408800f040800036
:105a1000e0408800e0408000d0408800d040800016
:105a2000c04088000000eb00100798000000eb0069
:105a3000200798000000eb00300798000000eb0002
:105a4000400798000000eb00000f78001c023700b0
:105a500010488000800078007e0090004409070014
:105a60000000eb00500798000d0237005e00900028
:105a700000004000fe009000008040001000780010
:105a8000000f9800f04180006101b80060ff2f0016
:105a9000f1ff2f00020040008380480042062000f2
:105aa00003002000820f5000838f58006e013e00db
:105ab00000600100bd0037006b0137006a0137004c
:105ac0006901370068013700670137006601370058
:105ad0006501370064013700630137005a00370061
:105ae00074003700730037005f0137005e01370034
:105af0005d0137005c0137005b0137005a01370058
:105b000059013700c40037005701370056013700ec
:105b10005501370054013700530137005201370057
:105b200051013700500137004f0137004e01370057
:105b30004d0137004c0137004b0137004a01370057
:105b40004901370048013700470137004601370057
:105b50004501370044013700430137004201370057
:105b60004101370040013700ab0037003e013700ec
:105b70003d0137003c0137003b0137003a01370057
:105b80003901370038013700370137003601370057
:105b90003501370034013700330137003201370057
:105ba00031013700300137002f0137002e01370057
:105bb0002d0137002c0137002b0137002a01370057
:105bc0002901370028013700270137002601370057
:105bd0002501370024013700230137002201370057
:105be00021013700200137001f0137001e01370057
:105bf0001d0137001c0137001b0137001a01370057
:105c0000fd003700e20037001701370016013700aa
:105c10001501370014013700c300370012013700a7
:105c200011013700100137000f0137000e01370056
:105c30000d0137000c0137000b0137000a01370056
:105c4000090137009d0037000e0890000000e000b9
:105c5000030032000e089000e20f500003003a00eb
:105c6000e04680001000780003003700e046800026
:105c70000080e80010007800100798000e089000df
:105c8000e10f5000030032000e089000e20f5000b8
:105c900003003a00f046800010007800030037004f
:105ca000f04680000080e80010007800200798008f
:105cb000ed0037000e0890006100600000407800a1
:105cc0000004e00003003200e0468000100078008d
:105cd00003003700e04680000080e80010007800f4
:105ce000100798000e089000620060000000e000bd
:105cf00003003200e0468000100078000300370007
:105d0000e04680000080e80010007800200798003e
:105d1000f0418000f60f5000d2003a00f0478000ba
:105d2000cf80de00823e20000289b90002017800a7
:105d30006002b9008401780003014100833e200025
:105d40000300b80001014100820078002240800079
:105d5000334080000000410081804900803eb00057
:105d60000180b00060408800714088005000200031
:105d7000100f980080002000200f9800c000200025
:105d8000300f980040012000400f98000e0890004e
:105d90006c0060004280de00000040000000470010
:105da00010089000e0478800af0037000e08900010
:105db0000000e000030032000e089000e20f5000e7
:105dc00003003a00e046800010007800030037002e
:105dd000e04680000080e80010007800100798007e
:105de0000e0890000000e000030032000e08900052
:105df000e20f500004003a00f04680000080e80006
:105e00001000780002003700f04680001000780093
:105e100020079800940037000000eb00200798004e
:105e2000b047800063006000e30f500003003a00b9
:105e3000c0418000e90f50001c0034000047800082
:105e4000e20f50000e003a000e0890000000e00043
:105e5000030032000e089000e20f500003003a00e9
:105e6000e04680001000780003003700e046800024
:105e70000080e80010007800100798000900370043
:105e800000478000e40f500006003400e146800027
:105e90000e089000000040000080400010017800d3
:105ea000120798003828ef006f003700c0418000cb
:105eb0000000e800c04188006b0037000e08900029
:105ec0000000e000030032000e089000e20f5000d6
:105ed00003003a00e046800010007800030037001d
:105ee000e04680000080e80010007800100798006d
:105ef0000e089000e10f5000030032000e089000e1
:105f0000e20f500003003a00f046800010007800d5
:105f100003003700f04680000080e80010007800a1
:105f200020079800500037000e0890000000e000a5
:105f3000030032000e089000e20f500003003a0008
:105f4000e04680001000780003003700e046800043
:105f50000080e8001000780010079800e0468000fc
:105f6000900078001e009000808f500004003a00de
:105f7000f04680000080e800100078000200370042
:105f8000f0468000100078002007980036003700a7
:105f90000e0890000000e000030032000e089000a0
:105fa000e20f500003003a00e04680001000780045
:105fb00003003700e04680000080e8001000780011
:105fc00010079800e0468000900078001e009000c6
:105fd000808f500004003a00f04680000080e80006
:105fe0001000780002003700f046800010007800b2
:105ff000200798001c0037000e0890000000e00009
:10600000030032000e089000e20f500003003a0037
:10601000e04680001000780003003700e046800072
:106020000080e80010007800100798000e0890002b
:10603000e10f5000030032000e089000e20f500004
:1060400003003a00f046800010007800030037009b
:10605000f04680000080e8001000780020079800db
:1060600001003700000000008040eb000040eb0022
:1060700081040700414a2c001e009000008040006f
:106080001040780037040700414a2c002e00900091
:106090000080400010407800320407003047800044
:1060a000e10f500003003200e20f50000800320000
:1060b00017003700104780009000780031079800e3
:1060c0002047800010017800420798001000370038
:1060d00097ef070061006000004078000004e000d6
:1060e00003003200104780001000780003003700e2
:1060f000104780000080e80010007800300798000a
:1061000020478000900078004107980000000000c0
:106110008046800021032000810f500020003200c3
:1061200021032000810f500007003c00e20f5000c7
:106130000f003200e30f50004d003200e10f50001d
:106140000e0032004b00370041032000810f500049
:106150002300320041032000810f50001800350059
:1061600001052000810f5000260032004100370059
:106170000000eb00904688003e0037001e007800cb
:10618000610060000000e000020032006e0090003c
:10619000010037000000eb00904688003500370012
:1061a0000e0890004280de0080004000e0812c005c
:1061b0000080400010007800904688002d003700d5
:1061c0000e0890004280de008000400020832c00fa
:1061d00000804000100078009046880025003700bd
:1061e0000e089000ef0f500003003400a0022000c2
:1061f000904688001f0037000000eb0090468800a2
:106200001c0037004aef0700610060000040780082
:106210000004e0000b0032005e089000cf00de00ba
:10622000008040000080d1009e0f500002003c0022
:106230006e009000010037000000eb0090468800df
:106240000c0037005e089000cf00de0000804000a8
:106250000080d1009e0f5000020034006e009000bc
:10626000010037000000eb00904688000100370075
:10627000000000009046800000027800ce019000ef
:106280003e019000ae0090001e009000befc070092
:106290001e0fe8005e0090000000e8005007980024
:1062a000114880005e009000808f50000400340090
:1062b000114180006e089000808f5000ebfd35008a
:1062c0005e0890009e007800808f500004003d0022
:1062d000114180006e089000808f5000dcfd350079
:1062e0008000eb00d0032000a6010700b04880002a
:1062f0000000e0000f003a00204180008000eb0029
:10630000fa060700d1408000400620000088b9004e
:1063100080007800d2408000c04080000000410032
:1063200000017800110009008200d800110020004f
:10633000ee060700114180006e089000808f50002b
:106340000a003d00d141800010c0b3007e099000da
:10635000828f5000010035000040eb008100e80012
